{
  "contractName": "CryptoBlades",
  "abi": [
    {
      "anonymous": false,
      "inputs": [
        {
          "indexed": true,
          "internalType": "address",
          "name": "owner",
          "type": "address"
        },
        {
          "indexed": true,
          "internalType": "uint256",
          "name": "character",
          "type": "uint256"
        },
        {
          "indexed": false,
          "internalType": "uint256",
          "name": "weapon",
          "type": "uint256"
        },
        {
          "indexed": false,
          "internalType": "uint32",
          "name": "target",
          "type": "uint32"
        },
        {
          "indexed": false,
          "internalType": "uint24",
          "name": "playerRoll",
          "type": "uint24"
        },
        {
          "indexed": false,
          "internalType": "uint24",
          "name": "enemyRoll",
          "type": "uint24"
        },
        {
          "indexed": false,
          "internalType": "uint16",
          "name": "xpGain",
          "type": "uint16"
        },
        {
          "indexed": false,
          "internalType": "uint256",
          "name": "skillGain",
          "type": "uint256"
        }
      ],
      "name": "FightOutcome",
      "type": "event"
    },
    {
      "anonymous": false,
      "inputs": [
        {
          "indexed": true,
          "internalType": "address",
          "name": "to",
          "type": "address"
        },
        {
          "indexed": false,
          "internalType": "uint256",
          "name": "skillAmount",
          "type": "uint256"
        }
      ],
      "name": "InGameOnlyFundsGiven",
      "type": "event"
    },
    {
      "anonymous": false,
      "inputs": [
        {
          "indexed": true,
          "internalType": "bytes32",
          "name": "role",
          "type": "bytes32"
        },
        {
          "indexed": true,
          "internalType": "bytes32",
          "name": "previousAdminRole",
          "type": "bytes32"
        },
        {
          "indexed": true,
          "internalType": "bytes32",
          "name": "newAdminRole",
          "type": "bytes32"
        }
      ],
      "name": "RoleAdminChanged",
      "type": "event"
    },
    {
      "anonymous": false,
      "inputs": [
        {
          "indexed": true,
          "internalType": "bytes32",
          "name": "role",
          "type": "bytes32"
        },
        {
          "indexed": true,
          "internalType": "address",
          "name": "account",
          "type": "address"
        },
        {
          "indexed": true,
          "internalType": "address",
          "name": "sender",
          "type": "address"
        }
      ],
      "name": "RoleGranted",
      "type": "event"
    },
    {
      "anonymous": false,
      "inputs": [
        {
          "indexed": true,
          "internalType": "bytes32",
          "name": "role",
          "type": "bytes32"
        },
        {
          "indexed": true,
          "internalType": "address",
          "name": "account",
          "type": "address"
        },
        {
          "indexed": true,
          "internalType": "address",
          "name": "sender",
          "type": "address"
        }
      ],
      "name": "RoleRevoked",
      "type": "event"
    },
    {
      "inputs": [],
      "name": "DEFAULT_ADMIN_ROLE",
      "outputs": [
        {
          "internalType": "bytes32",
          "name": "",
          "type": "bytes32"
        }
      ],
      "stateMutability": "view",
      "type": "function"
    },
    {
      "inputs": [],
      "name": "GAME_ADMIN",
      "outputs": [
        {
          "internalType": "bytes32",
          "name": "",
          "type": "bytes32"
        }
      ],
      "stateMutability": "view",
      "type": "function"
    },
    {
      "inputs": [],
      "name": "REWARDS_CLAIM_TAX_DURATION",
      "outputs": [
        {
          "internalType": "uint256",
          "name": "",
          "type": "uint256"
        }
      ],
      "stateMutability": "view",
      "type": "function"
    },
    {
      "inputs": [],
      "name": "REWARDS_CLAIM_TAX_MAX",
      "outputs": [
        {
          "internalType": "int128",
          "name": "",
          "type": "int128"
        }
      ],
      "stateMutability": "view",
      "type": "function"
    },
    {
      "inputs": [],
      "name": "characters",
      "outputs": [
        {
          "internalType": "contract Characters",
          "name": "",
          "type": "address"
        }
      ],
      "stateMutability": "view",
      "type": "function"
    },
    {
      "inputs": [],
      "name": "fightRewardBaseline",
      "outputs": [
        {
          "internalType": "int128",
          "name": "",
          "type": "int128"
        }
      ],
      "stateMutability": "view",
      "type": "function"
    },
    {
      "inputs": [],
      "name": "fightRewardGasOffset",
      "outputs": [
        {
          "internalType": "int128",
          "name": "",
          "type": "int128"
        }
      ],
      "stateMutability": "view",
      "type": "function"
    },
    {
      "inputs": [],
      "name": "fightTraitBonus",
      "outputs": [
        {
          "internalType": "int128",
          "name": "",
          "type": "int128"
        }
      ],
      "stateMutability": "view",
      "type": "function"
    },
    {
      "inputs": [],
      "name": "fightXpGain",
      "outputs": [
        {
          "internalType": "uint256",
          "name": "",
          "type": "uint256"
        }
      ],
      "stateMutability": "view",
      "type": "function"
    },
    {
      "inputs": [
        {
          "internalType": "bytes32",
          "name": "role",
          "type": "bytes32"
        }
      ],
      "name": "getRoleAdmin",
      "outputs": [
        {
          "internalType": "bytes32",
          "name": "",
          "type": "bytes32"
        }
      ],
      "stateMutability": "view",
      "type": "function"
    },
    {
      "inputs": [
        {
          "internalType": "bytes32",
          "name": "role",
          "type": "bytes32"
        },
        {
          "internalType": "uint256",
          "name": "index",
          "type": "uint256"
        }
      ],
      "name": "getRoleMember",
      "outputs": [
        {
          "internalType": "address",
          "name": "",
          "type": "address"
        }
      ],
      "stateMutability": "view",
      "type": "function"
    },
    {
      "inputs": [
        {
          "internalType": "bytes32",
          "name": "role",
          "type": "bytes32"
        }
      ],
      "name": "getRoleMemberCount",
      "outputs": [
        {
          "internalType": "uint256",
          "name": "",
          "type": "uint256"
        }
      ],
      "stateMutability": "view",
      "type": "function"
    },
    {
      "inputs": [
        {
          "internalType": "bytes32",
          "name": "role",
          "type": "bytes32"
        },
        {
          "internalType": "address",
          "name": "account",
          "type": "address"
        }
      ],
      "name": "grantRole",
      "outputs": [],
      "stateMutability": "nonpayable",
      "type": "function"
    },
    {
      "inputs": [
        {
          "internalType": "bytes32",
          "name": "role",
          "type": "bytes32"
        },
        {
          "internalType": "address",
          "name": "account",
          "type": "address"
        }
      ],
      "name": "hasRole",
      "outputs": [
        {
          "internalType": "bool",
          "name": "",
          "type": "bool"
        }
      ],
      "stateMutability": "view",
      "type": "function"
    },
    {
      "inputs": [
        {
          "internalType": "address",
          "name": "",
          "type": "address"
        }
      ],
      "name": "inGameOnlyFunds",
      "outputs": [
        {
          "internalType": "uint256",
          "name": "",
          "type": "uint256"
        }
      ],
      "stateMutability": "view",
      "type": "function"
    },
    {
      "inputs": [],
      "name": "mintCharacterFee",
      "outputs": [
        {
          "internalType": "int128",
          "name": "",
          "type": "int128"
        }
      ],
      "stateMutability": "view",
      "type": "function"
    },
    {
      "inputs": [],
      "name": "mintWeaponFee",
      "outputs": [
        {
          "internalType": "int128",
          "name": "",
          "type": "int128"
        }
      ],
      "stateMutability": "view",
      "type": "function"
    },
    {
      "inputs": [],
      "name": "oneFrac",
      "outputs": [
        {
          "internalType": "int128",
          "name": "",
          "type": "int128"
        }
      ],
      "stateMutability": "view",
      "type": "function"
    },
    {
      "inputs": [],
      "name": "priceOracleSkillPerUsd",
      "outputs": [
        {
          "internalType": "contract IPriceOracle",
          "name": "",
          "type": "address"
        }
      ],
      "stateMutability": "view",
      "type": "function"
    },
    {
      "inputs": [],
      "name": "promos",
      "outputs": [
        {
          "internalType": "contract Promos",
          "name": "",
          "type": "address"
        }
      ],
      "stateMutability": "view",
      "type": "function"
    },
    {
      "inputs": [],
      "name": "randoms",
      "outputs": [
        {
          "internalType": "contract IRandoms",
          "name": "",
          "type": "address"
        }
      ],
      "stateMutability": "view",
      "type": "function"
    },
    {
      "inputs": [],
      "name": "refillStaminaFee",
      "outputs": [
        {
          "internalType": "int128",
          "name": "",
          "type": "int128"
        }
      ],
      "stateMutability": "view",
      "type": "function"
    },
    {
      "inputs": [],
      "name": "reforgeWeaponFee",
      "outputs": [
        {
          "internalType": "int128",
          "name": "",
          "type": "int128"
        }
      ],
      "stateMutability": "view",
      "type": "function"
    },
    {
      "inputs": [
        {
          "internalType": "bytes32",
          "name": "role",
          "type": "bytes32"
        },
        {
          "internalType": "address",
          "name": "account",
          "type": "address"
        }
      ],
      "name": "renounceRole",
      "outputs": [],
      "stateMutability": "nonpayable",
      "type": "function"
    },
    {
      "inputs": [
        {
          "internalType": "bytes32",
          "name": "role",
          "type": "bytes32"
        },
        {
          "internalType": "address",
          "name": "account",
          "type": "address"
        }
      ],
      "name": "revokeRole",
      "outputs": [],
      "stateMutability": "nonpayable",
      "type": "function"
    },
    {
      "inputs": [],
      "name": "skillToken",
      "outputs": [
        {
          "internalType": "contract IERC20",
          "name": "",
          "type": "address"
        }
      ],
      "stateMutability": "view",
      "type": "function"
    },
    {
      "inputs": [],
      "name": "stakeFromGameImpl",
      "outputs": [
        {
          "internalType": "contract IStakeFromGame",
          "name": "",
          "type": "address"
        }
      ],
      "stateMutability": "view",
      "type": "function"
    },
    {
      "inputs": [],
      "name": "totalInGameOnlyFunds",
      "outputs": [
        {
          "internalType": "uint256",
          "name": "",
          "type": "uint256"
        }
      ],
      "stateMutability": "view",
      "type": "function"
    },
    {
      "inputs": [],
      "name": "weapons",
      "outputs": [
        {
          "internalType": "contract Weapons",
          "name": "",
          "type": "address"
        }
      ],
      "stateMutability": "view",
      "type": "function"
    },
    {
      "inputs": [
        {
          "internalType": "contract IERC20",
          "name": "_skillToken",
          "type": "address"
        },
        {
          "internalType": "contract Characters",
          "name": "_characters",
          "type": "address"
        },
        {
          "internalType": "contract Weapons",
          "name": "_weapons",
          "type": "address"
        },
        {
          "internalType": "contract IPriceOracle",
          "name": "_priceOracleSkillPerUsd",
          "type": "address"
        },
        {
          "internalType": "contract IRandoms",
          "name": "_randoms",
          "type": "address"
        }
      ],
      "name": "initialize",
      "outputs": [],
      "stateMutability": "nonpayable",
      "type": "function"
    },
    {
      "inputs": [],
      "name": "migrateTo_1ee400a",
      "outputs": [],
      "stateMutability": "nonpayable",
      "type": "function"
    },
    {
      "inputs": [],
      "name": "migrateTo_aa9da90",
      "outputs": [],
      "stateMutability": "nonpayable",
      "type": "function"
    },
    {
      "inputs": [
        {
          "internalType": "contract Promos",
          "name": "_promos",
          "type": "address"
        }
      ],
      "name": "migrateTo_ef994e2",
      "outputs": [],
      "stateMutability": "nonpayable",
      "type": "function"
    },
    {
      "inputs": [
        {
          "internalType": "contract IStakeFromGame",
          "name": "_stakeFromGame",
          "type": "address"
        }
      ],
      "name": "migrateTo_23b3a8b",
      "outputs": [],
      "stateMutability": "nonpayable",
      "type": "function"
    },
    {
      "inputs": [],
      "name": "migrateTo_7dd2a56",
      "outputs": [],
      "stateMutability": "nonpayable",
      "type": "function"
    },
    {
      "inputs": [
        {
          "internalType": "uint256",
          "name": "amount",
          "type": "uint256"
        }
      ],
      "name": "recoverSkill",
      "outputs": [],
      "stateMutability": "nonpayable",
      "type": "function"
    },
    {
      "inputs": [
        {
          "internalType": "uint256",
          "name": "_inGameOnlyFunds",
          "type": "uint256"
        },
        {
          "internalType": "uint256",
          "name": "_tokenRewards",
          "type": "uint256"
        },
        {
          "internalType": "uint256",
          "name": "_skillNeeded",
          "type": "uint256"
        }
      ],
      "name": "getSkillToSubtract",
      "outputs": [
        {
          "internalType": "uint256",
          "name": "fromInGameOnlyFunds",
          "type": "uint256"
        },
        {
          "internalType": "uint256",
          "name": "fromTokenRewards",
          "type": "uint256"
        },
        {
          "internalType": "uint256",
          "name": "fromUserWallet",
          "type": "uint256"
        }
      ],
      "stateMutability": "pure",
      "type": "function"
    },
    {
      "inputs": [
        {
          "internalType": "address",
          "name": "playerAddress",
          "type": "address"
        },
        {
          "internalType": "uint256",
          "name": "skillNeeded",
          "type": "uint256"
        }
      ],
      "name": "getSkillNeededFromUserWallet",
      "outputs": [
        {
          "internalType": "uint256",
          "name": "skillNeededFromUserWallet",
          "type": "uint256"
        }
      ],
      "stateMutability": "view",
      "type": "function"
    },
    {
      "inputs": [],
      "name": "getMyCharacters",
      "outputs": [
        {
          "internalType": "uint256[]",
          "name": "",
          "type": "uint256[]"
        }
      ],
      "stateMutability": "view",
      "type": "function"
    },
    {
      "inputs": [],
      "name": "getMyWeapons",
      "outputs": [
        {
          "internalType": "uint256[]",
          "name": "",
          "type": "uint256[]"
        }
      ],
      "stateMutability": "view",
      "type": "function"
    },
    {
      "inputs": [
        {
          "internalType": "uint96",
          "name": "playerData",
          "type": "uint96"
        }
      ],
      "name": "unpackFightData",
      "outputs": [
        {
          "internalType": "uint8",
          "name": "charTrait",
          "type": "uint8"
        },
        {
          "internalType": "uint24",
          "name": "basePowerLevel",
          "type": "uint24"
        },
        {
          "internalType": "uint64",
          "name": "timestamp",
          "type": "uint64"
        }
      ],
      "stateMutability": "pure",
      "type": "function"
    },
    {
      "inputs": [
        {
          "internalType": "uint256",
          "name": "char",
          "type": "uint256"
        },
        {
          "internalType": "uint256",
          "name": "wep",
          "type": "uint256"
        },
        {
          "internalType": "uint32",
          "name": "target",
          "type": "uint32"
        }
      ],
      "name": "fight",
      "outputs": [],
      "stateMutability": "nonpayable",
      "type": "function"
    },
    {
      "inputs": [
        {
          "internalType": "uint24",
          "name": "playerBasePower",
          "type": "uint24"
        },
        {
          "internalType": "int128",
          "name": "wepMultiplier",
          "type": "int128"
        },
        {
          "internalType": "uint24",
          "name": "wepBonusPower",
          "type": "uint24"
        },
        {
          "internalType": "uint64",
          "name": "staminaTimestamp",
          "type": "uint64"
        },
        {
          "internalType": "uint256",
          "name": "hour",
          "type": "uint256"
        },
        {
          "internalType": "uint32",
          "name": "target",
          "type": "uint32"
        }
      ],
      "name": "verifyFight",
      "outputs": [],
      "stateMutability": "pure",
      "type": "function"
    },
    {
      "inputs": [
        {
          "internalType": "uint32",
          "name": "target",
          "type": "uint32"
        }
      ],
      "name": "getMonsterPower",
      "outputs": [
        {
          "internalType": "uint24",
          "name": "",
          "type": "uint24"
        }
      ],
      "stateMutability": "pure",
      "type": "function"
    },
    {
      "inputs": [
        {
          "internalType": "uint24",
          "name": "basePower",
          "type": "uint24"
        },
        {
          "internalType": "int128",
          "name": "weaponMultiplier",
          "type": "int128"
        },
        {
          "internalType": "uint24",
          "name": "bonusPower",
          "type": "uint24"
        }
      ],
      "name": "getPlayerPower",
      "outputs": [
        {
          "internalType": "uint24",
          "name": "",
          "type": "uint24"
        }
      ],
      "stateMutability": "pure",
      "type": "function"
    },
    {
      "inputs": [
        {
          "internalType": "uint24",
          "name": "traitsCWE",
          "type": "uint24"
        }
      ],
      "name": "getPlayerTraitBonusAgainst",
      "outputs": [
        {
          "internalType": "int128",
          "name": "",
          "type": "int128"
        }
      ],
      "stateMutability": "view",
      "type": "function"
    },
    {
      "inputs": [
        {
          "internalType": "uint256",
          "name": "char",
          "type": "uint256"
        },
        {
          "internalType": "uint256",
          "name": "wep",
          "type": "uint256"
        }
      ],
      "name": "getTargets",
      "outputs": [
        {
          "internalType": "uint32[4]",
          "name": "",
          "type": "uint32[4]"
        }
      ],
      "stateMutability": "view",
      "type": "function"
    },
    {
      "inputs": [
        {
          "internalType": "uint8",
          "name": "attacker",
          "type": "uint8"
        },
        {
          "internalType": "uint8",
          "name": "defender",
          "type": "uint8"
        }
      ],
      "name": "isTraitEffectiveAgainst",
      "outputs": [
        {
          "internalType": "bool",
          "name": "",
          "type": "bool"
        }
      ],
      "stateMutability": "pure",
      "type": "function"
    },
    {
      "inputs": [],
      "name": "mintCharacter",
      "outputs": [],
      "stateMutability": "nonpayable",
      "type": "function"
    },
    {
      "inputs": [],
      "name": "mintWeapon",
      "outputs": [],
      "stateMutability": "nonpayable",
      "type": "function"
    },
    {
      "inputs": [
        {
          "internalType": "uint256",
          "name": "reforgeID",
          "type": "uint256"
        },
        {
          "internalType": "uint256",
          "name": "burnID",
          "type": "uint256"
        }
      ],
      "name": "reforgeWeapon",
      "outputs": [],
      "stateMutability": "nonpayable",
      "type": "function"
    },
    {
      "inputs": [
        {
          "internalType": "contract IRandoms",
          "name": "_newRandoms",
          "type": "address"
        }
      ],
      "name": "migrateRandoms",
      "outputs": [],
      "stateMutability": "nonpayable",
      "type": "function"
    },
    {
      "inputs": [
        {
          "internalType": "address",
          "name": "playerAddress",
          "type": "address"
        },
        {
          "internalType": "int128",
          "name": "usdAmount",
          "type": "int128"
        }
      ],
      "name": "payContract",
      "outputs": [],
      "stateMutability": "nonpayable",
      "type": "function"
    },
    {
      "inputs": [
        {
          "internalType": "address",
          "name": "playerAddress",
          "type": "address"
        },
        {
          "internalType": "uint256",
          "name": "convertedAmount",
          "type": "uint256"
        }
      ],
      "name": "payContractConverted",
      "outputs": [],
      "stateMutability": "nonpayable",
      "type": "function"
    },
    {
      "inputs": [
        {
          "internalType": "address",
          "name": "playerAddress",
          "type": "address"
        },
        {
          "internalType": "int128",
          "name": "baseAmount",
          "type": "int128"
        }
      ],
      "name": "payPlayer",
      "outputs": [],
      "stateMutability": "nonpayable",
      "type": "function"
    },
    {
      "inputs": [
        {
          "internalType": "address",
          "name": "playerAddress",
          "type": "address"
        },
        {
          "internalType": "uint256",
          "name": "convertedAmount",
          "type": "uint256"
        }
      ],
      "name": "payPlayerConverted",
      "outputs": [],
      "stateMutability": "nonpayable",
      "type": "function"
    },
    {
      "inputs": [
        {
          "internalType": "uint256",
          "name": "characterID",
          "type": "uint256"
        },
        {
          "internalType": "address",
          "name": "playerAddress",
          "type": "address"
        }
      ],
      "name": "approveContractCharacterFor",
      "outputs": [],
      "stateMutability": "nonpayable",
      "type": "function"
    },
    {
      "inputs": [
        {
          "internalType": "uint256",
          "name": "weaponID",
          "type": "uint256"
        },
        {
          "internalType": "address",
          "name": "playerAddress",
          "type": "address"
        }
      ],
      "name": "approveContractWeaponFor",
      "outputs": [],
      "stateMutability": "nonpayable",
      "type": "function"
    },
    {
      "inputs": [
        {
          "internalType": "uint256",
          "name": "cents",
          "type": "uint256"
        }
      ],
      "name": "setCharacterMintValue",
      "outputs": [],
      "stateMutability": "nonpayable",
      "type": "function"
    },
    {
      "inputs": [
        {
          "internalType": "uint256",
          "name": "tenthcents",
          "type": "uint256"
        }
      ],
      "name": "setFightRewardBaselineValue",
      "outputs": [],
      "stateMutability": "nonpayable",
      "type": "function"
    },
    {
      "inputs": [
        {
          "internalType": "uint256",
          "name": "cents",
          "type": "uint256"
        }
      ],
      "name": "setFightRewardGasOffsetValue",
      "outputs": [],
      "stateMutability": "nonpayable",
      "type": "function"
    },
    {
      "inputs": [
        {
          "internalType": "uint256",
          "name": "cents",
          "type": "uint256"
        }
      ],
      "name": "setWeaponMintValue",
      "outputs": [],
      "stateMutability": "nonpayable",
      "type": "function"
    },
    {
      "inputs": [
        {
          "internalType": "uint256",
          "name": "cents",
          "type": "uint256"
        }
      ],
      "name": "setReforgeWeaponValue",
      "outputs": [],
      "stateMutability": "nonpayable",
      "type": "function"
    },
    {
      "inputs": [
        {
          "internalType": "uint8",
          "name": "points",
          "type": "uint8"
        }
      ],
      "name": "setStaminaCostFight",
      "outputs": [],
      "stateMutability": "nonpayable",
      "type": "function"
    },
    {
      "inputs": [
        {
          "internalType": "uint256",
          "name": "average",
          "type": "uint256"
        }
      ],
      "name": "setFightXpGain",
      "outputs": [],
      "stateMutability": "nonpayable",
      "type": "function"
    },
    {
      "inputs": [
        {
          "internalType": "uint256",
          "name": "max",
          "type": "uint256"
        }
      ],
      "name": "setCharacterLimit",
      "outputs": [],
      "stateMutability": "nonpayable",
      "type": "function"
    },
    {
      "inputs": [
        {
          "internalType": "address",
          "name": "to",
          "type": "address"
        },
        {
          "internalType": "uint256",
          "name": "skillAmount",
          "type": "uint256"
        }
      ],
      "name": "giveInGameOnlyFunds",
      "outputs": [],
      "stateMutability": "nonpayable",
      "type": "function"
    },
    {
      "inputs": [
        {
          "internalType": "address",
          "name": "to",
          "type": "address"
        },
        {
          "internalType": "uint256",
          "name": "skillAmount",
          "type": "uint256"
        }
      ],
      "name": "giveInGameOnlyFundsFromContractBalance",
      "outputs": [],
      "stateMutability": "nonpayable",
      "type": "function"
    },
    {
      "inputs": [
        {
          "internalType": "int128",
          "name": "usdAmount",
          "type": "int128"
        }
      ],
      "name": "usdToSkill",
      "outputs": [
        {
          "internalType": "uint256",
          "name": "",
          "type": "uint256"
        }
      ],
      "stateMutability": "view",
      "type": "function"
    },
    {
      "inputs": [],
      "name": "getCurrentHour",
      "outputs": [
        {
          "internalType": "uint256",
          "name": "",
          "type": "uint256"
        }
      ],
      "stateMutability": "view",
      "type": "function"
    },
    {
      "inputs": [],
      "name": "claimTokenRewards",
      "outputs": [],
      "stateMutability": "nonpayable",
      "type": "function"
    },
    {
      "inputs": [],
      "name": "stakeUnclaimedRewards",
      "outputs": [],
      "stateMutability": "nonpayable",
      "type": "function"
    },
    {
      "inputs": [],
      "name": "claimXpRewards",
      "outputs": [],
      "stateMutability": "nonpayable",
      "type": "function"
    },
    {
      "inputs": [],
      "name": "getTokenRewards",
      "outputs": [
        {
          "internalType": "uint256",
          "name": "",
          "type": "uint256"
        }
      ],
      "stateMutability": "view",
      "type": "function"
    },
    {
      "inputs": [
        {
          "internalType": "uint256",
          "name": "char",
          "type": "uint256"
        }
      ],
      "name": "getXpRewards",
      "outputs": [
        {
          "internalType": "uint256",
          "name": "",
          "type": "uint256"
        }
      ],
      "stateMutability": "view",
      "type": "function"
    },
    {
      "inputs": [
        {
          "internalType": "address",
          "name": "wallet",
          "type": "address"
        }
      ],
      "name": "getTokenRewardsFor",
      "outputs": [
        {
          "internalType": "uint256",
          "name": "",
          "type": "uint256"
        }
      ],
      "stateMutability": "view",
      "type": "function"
    },
    {
      "inputs": [
        {
          "internalType": "address",
          "name": "wallet",
          "type": "address"
        }
      ],
      "name": "getTotalSkillOwnedBy",
      "outputs": [
        {
          "internalType": "uint256",
          "name": "",
          "type": "uint256"
        }
      ],
      "stateMutability": "view",
      "type": "function"
    },
    {
      "inputs": [],
      "name": "getOwnRewardsClaimTax",
      "outputs": [
        {
          "internalType": "int128",
          "name": "",
          "type": "int128"
        }
      ],
      "stateMutability": "view",
      "type": "function"
    }
  ],
  "bytecode": "0x608060405234801561001057600080fd5b50615610806100206000396000f3fe608060405234801561001057600080fd5b506004361061046a5760003560e01c806391d148541161024c578063c6e195ed11610146578063e36ed971116100c3578063ebca521f11610087578063ebca521f14610cc3578063f359832814610cef578063faf039f414610d1b578063fb198c4a14610d23578063fd20747e14610d7e5761046a565b8063e36ed97114610c53578063e3a6615a14610c70578063e4a0f56614610c78578063e6a9076a14610c9e578063e6c6b7f014610cbb5761046a565b8063d2c76c051161010a578063d2c76c0514610ba5578063d547741f14610bcd578063dbf802d914610bf9578063dc88432b14610c01578063e073241914610c275761046a565b8063c6e195ed14610b4d578063ca15c87314610b55578063d070bb5414610b72578063d0eac9c114610b7a578063d1ebdfd314610b9d5761046a565b8063aa663777116101d4578063bb3ccd7011610198578063bb3ccd7014610b25578063bc67e88714610b2d578063bcc0957d14610b35578063be2cf13814610b3d578063bee666d814610b455761046a565b8063aa66377714610ad6578063ab37e93414610ade578063b179edf414610ae6578063b63589a114610b15578063b7e1cd8614610b1d5761046a565b80639b9720921161021b5780639b97209214610a165780639f6b232e14610a455780639f8c964c14610aa0578063a217fddf14610aa8578063a93bde2f14610ab05761046a565b806391d1485414610971578063945dbfcf146109b1578063988b2935146109ce5780639b917481146109f45761046a565b80633c4739d3116103685780635b99d35f116102e55780636f907206116102a95780636f907206146108d75780637998b3fd146109035780637d3eb7d3146109295780638c30db79146109315780639010d07c1461094e5761046a565b80635b99d35f14610825578063613f13521461084b57806364d67868146108535780636a3c5e95146108705780636c6302b3146108b75761046a565b80634bfe0fa71161032c5780634bfe0fa71461074f57806351e717ac14610772578063534f66001461077a5780635504d3d2146107d0578063563002aa146107d85761046a565b80633c4739d3146107125780633f18cd5b1461071a5780633f7e1dd51461072257806344678be11461072a578063499eeeeb146107475761046a565b806313d721ef116103f6578063248a9ca3116103ba578063248a9ca31461063d5780632f2ff15d1461065a578063328da35114610686578063336dfb461461068e57806336568abe146106e65761046a565b806313d721ef1461058a5780631426cead146105b95780631459457a146105e55780631a70fe021461062d5780631d765c88146106355761046a565b80630dff3a101161043d5780630dff3a10146104f45780630e032061146105155780630ec32977146105325780630f92e39e1461053a5780631208fa55146105665761046a565b806301c5f7ed1461046f578063064187781461049d57806306deb3e1146104a55780630a8a9215146104c2575b600080fd5b61049b6004803603604081101561048557600080fd5b506001600160a01b038135169060200135610d9b565b005b61049b610e11565b61049b600480360360208110156104bb57600080fd5b5035610ec0565b6104e2600480360360208110156104d857600080fd5b5035600f0b610f60565b60408051918252519081900360200190f35b6104fc610ff8565b60408051600f92830b90920b8252519081900360200190f35b61049b6004803603602081101561052b57600080fd5b5035611006565b61049b6110a1565b61049b6004803603604081101561055057600080fd5b50803590602001356001600160a01b03166110f2565b61056e611164565b604080516001600160a01b039092168252519081900360200190f35b61049b600480360360408110156105a057600080fd5b506001600160a01b038135169060200135600f0b611173565b61049b600480360360408110156105cf57600080fd5b50803590602001356001600160a01b03166111e5565b61049b600480360360a08110156105fb57600080fd5b506001600160a01b03813581169160208101358216916040820135811691606081013582169160809091013516611257565b61049b6114a4565b61049b611559565b6104e26004803603602081101561065357600080fd5b503561166e565b61049b6004803603604081101561067057600080fd5b50803590602001356001600160a01b0316611683565b6104e26116eb565b6106966116fe565b60408051602080825283518183015283519192839290830191858101910280838360005b838110156106d25781810151838201526020016106ba565b505050509050019250505060405180910390f35b61049b600480360360408110156106fc57600080fd5b50803590602001356001600160a01b031661186e565b6106966118cf565b6104e2611a39565b61056e611a40565b61049b6004803603602081101561074057600080fd5b5035611a4f565b6104fc611abc565b61049b6004803603604081101561076557600080fd5b5080359060200135611acc565b61056e611f8d565b61049b600480360360c081101561079057600080fd5b50803562ffffff908116916020810135600f0b9160408201351690606081013567ffffffffffffffff169060808101359060a0013563ffffffff16611f9c565b6104e261204a565b61080d600480360360608110156107ee57600080fd5b5062ffffff81358116916020810135600f0b916040909101351661206c565b6040805162ffffff9092168252519081900360200190f35b6104e26004803603602081101561083b57600080fd5b50356001600160a01b03166120a6565b6104e261214e565b61049b6004803603602081101561086957600080fd5b5035612154565b6108996004803603606081101561088657600080fd5b508035906020810135906040013561221f565b60408051938452602084019290925282820152519081900360600190f35b61049b600480360360208110156108cd57600080fd5b503560ff16612266565b61049b600480360360408110156108ed57600080fd5b506001600160a01b0381351690602001356122e4565b6104e26004803603602081101561091957600080fd5b50356001600160a01b0316612465565b6104fc612480565b61049b6004803603602081101561094757600080fd5b5035612490565b61056e6004803603604081101561096457600080fd5b508035906020013561252f565b61099d6004803603604081101561098757600080fd5b50803590602001356001600160a01b0316612556565b604080519115158252519081900360200190f35b6104e2600480360360208110156109c757600080fd5b5035612574565b6104e2600480360360208110156109e457600080fd5b50356001600160a01b0316612586565b6104fc60048036036020811015610a0a57600080fd5b503562ffffff16612598565b61049b60048036036060811015610a2c57600080fd5b508035906020810135906040013563ffffffff1661265b565b610a7060048036036020811015610a5b57600080fd5b50356bffffffffffffffffffffffff16612adb565b6040805160ff909416845262ffffff909216602084015267ffffffffffffffff1682820152519081900360600190f35b6104fc612afb565b6104e2612b04565b61049b60048036036020811015610ac657600080fd5b50356001600160a01b0316612b09565b6104fc612b73565b6104e2612b7c565b61049b60048036036040811015610afc57600080fd5b506001600160a01b038135169060200135600f0b612b82565b6104e2612bf4565b61056e612c08565b61049b612c17565b61049b612c66565b6104fc612e0a565b6104fc612e13565b61056e612e1c565b6104fc612e2b565b6104e260048036036020811015610b6b57600080fd5b5035612e3b565b61056e612e52565b61080d60048036036020811015610b9057600080fd5b503563ffffffff16612e61565b61056e612e69565b61099d60048036036040811015610bbb57600080fd5b5060ff81358116916020013516612e78565b61049b60048036036040811015610be357600080fd5b50803590602001356001600160a01b0316612e9b565b6104fc612ef4565b61049b60048036036020811015610c1757600080fd5b50356001600160a01b0316612f00565b6104e260048036036040811015610c3d57600080fd5b506001600160a01b038135169060200135612f6a565b61049b60048036036020811015610c6957600080fd5b5035612fa2565b6104fc61300f565b61049b60048036036020811015610c8e57600080fd5b50356001600160a01b031661301f565b61049b60048036036020811015610cb457600080fd5b5035613089565b61049b613124565b61049b60048036036040811015610cd957600080fd5b506001600160a01b038135169060200135613523565b61049b60048036036040811015610d0557600080fd5b506001600160a01b038135169060200135613595565b61049b613607565b610d4660048036036040811015610d3957600080fd5b5080359060200135613f15565b6040518082608080838360005b83811015610d6b578181015183820152602001610d53565b5050505090500191505060405180910390f35b61049b60048036036020811015610d9457600080fd5b5035614133565b604080516923a0a6a2afa0a226a4a760b11b8152905190819003600a019020610dc49033612556565b610e03576040805162461bcd60e51b815260206004820152601760248201526000805160206154bc833981519152604482015290519081900360640190fd5b610e0d82826141d2565b5050565b610e1c600033612556565b610e59576040805162461bcd60e51b81526020600482015260096024820152682737ba1030b236b4b760b91b604482015290519081900360640190fd5b610e6360016142f1565b60748054600f9290920b6001600160801b03166001600160801b0319909216919091179055610e95604b6103e861430f565b607460106101000a8154816001600160801b030219169083600f0b6001600160801b03160217905550565b604080516923a0a6a2afa0a226a4a760b11b8152905190819003600a019020610ee99033612556565b610f28576040805162461bcd60e51b815260206004820152601760248201526000805160206154bc833981519152604482015290519081900360640190fd5b610f34816103e861430f565b606c60106101000a8154816001600160801b030219169083600f0b6001600160801b0316021790555050565b6000610ff0606860009054906101000a90046001600160a01b03166001600160a01b0316639d1b464a6040518163ffffffff1660e01b815260040160206040518083038186803b158015610fb357600080fd5b505afa158015610fc7573d6000803e3d6000fd5b505050506040513d6020811015610fdd57600080fd5b5051600f84900b9063ffffffff61434616565b90505b919050565b606b546101009004600f0b81565b604080516923a0a6a2afa0a226a4a760b11b8152905190819003600a01902061102f9033612556565b61106e576040805162461bcd60e51b815260206004820152601760248201526000805160206154bc833981519152604482015290519081900360640190fd5b61107981606461430f565b606d8054600f9290920b6001600160801b03166001600160801b031990921691909117905550565b336000818152607260205260408120805490829055916110e6906110d99084906110ca906143ae565b600f0b9063ffffffff61434616565b839063ffffffff61444916565b9050610e0d33826144a6565b604080516923a0a6a2afa0a226a4a760b11b8152905190819003600a01902061111b9033612556565b61115a576040805162461bcd60e51b815260206004820152601760248201526000805160206154bc833981519152604482015290519081900360640190fd5b610e0d828261452c565b6079546001600160a01b031681565b604080516923a0a6a2afa0a226a4a760b11b8152905190819003600a01902061119c9033612556565b6111db576040805162461bcd60e51b815260206004820152601760248201526000805160206154bc833981519152604482015290519081900360640190fd5b610e0d8282614595565b604080516923a0a6a2afa0a226a4a760b11b8152905190819003600a01902061120e9033612556565b61124d576040805162461bcd60e51b815260206004820152601760248201526000805160206154bc833981519152604482015290519081900360640190fd5b610e0d82826145a7565b600054610100900460ff168061127057506112706145fc565b8061127e575060005460ff16155b6112b95760405162461bcd60e51b815260040180806020018281038252602e81526020018061555d602e913960400191505060405180910390fd5b600054610100900460ff161580156112e4576000805460ff1961ff0019909116610100171660011790555b6112ec61460d565b6112f76000336116e1565b604080516923a0a6a2afa0a226a4a760b11b8152905190819003600a01902061132090336116e1565b606780546001600160a01b038089166001600160a01b03199283161790925560658054888416908316179055606680548784169083161790556068805486841690831617905560698054928516929091169190911790556004606a55606b805460ff19166028179055611395600a600161430f565b606b60016101000a8154816001600160801b030219169083600f0b6001600160801b031602179055506113ca6001606461430f565b606c60106101000a8154816001600160801b030219169083600f0b6001600160801b031602179055506113ff6008600a61430f565b606d8054600f9290920b6001600160801b03166001600160801b03199092169190911790556114306003600161430f565b606d60106101000a8154816001600160801b030219169083600f0b6001600160801b031602179055506114656005600a61430f565b606e8054600f9290920b6001600160801b03166001600160801b0319909216919091179055801561149c576000805461ff00191690555b505050505050565b6114af600033612556565b6114ec576040805162461bcd60e51b81526020600482015260096024820152682737ba1030b236b4b760b91b604482015290519081900360640190fd5b6114fb615a89620186a061430f565b606d8054600f9290920b6001600160801b03166001600160801b031990921691909117905561152e6101586103e861430f565b606c60106101000a8154816001600160801b030219169083600f0b6001600160801b03160217905550565b33600081815260726020526040812080549190559061157b90600a83046146be565b6067546079546040805163095ea7b360e01b81526001600160a01b039283166004820152602481018590529051919092169163095ea7b39160448083019260209291908290030181600087803b1580156115d457600080fd5b505af11580156115e8573d6000803e3d6000fd5b505050506040513d60208110156115fe57600080fd5b505060795460408051633347009160e11b81523360048201526024810184905290516001600160a01b039092169163668e01229160448082019260009290919082900301818387803b15801561165357600080fd5b505af1158015611667573d6000803e3d6000fd5b5050505050565b60009081526033602052604090206002015490565b6000828152603360205260409020600201546116a6906116a1614753565b612556565b6116e15760405162461bcd60e51b815260040180806020018281038252602f8152602001806154fe602f913960400191505060405180910390fd5b610e0d8282614757565b3360009081526072602052604090205490565b606654604080516370a0823160e01b8152336004820152905160609283926001600160a01b03909116916370a0823191602480820192602092909190829003018186803b15801561174e57600080fd5b505afa158015611762573d6000803e3d6000fd5b505050506040513d602081101561177857600080fd5b505167ffffffffffffffff8111801561179057600080fd5b506040519080825280602002602001820160405280156117ba578160200160208202803683370190505b50905060005b81518110156118685760665460408051632f745c5960e01b81523360048201526024810184905290516001600160a01b0390921691632f745c5991604480820192602092909190829003018186803b15801561181b57600080fd5b505afa15801561182f573d6000803e3d6000fd5b505050506040513d602081101561184557600080fd5b5051825183908390811061185557fe5b60209081029190910101526001016117c0565b50905090565b611876614753565b6001600160a01b0316816001600160a01b0316146118c55760405162461bcd60e51b815260040180806020018281038252602f8152602001806155ac602f913960400191505060405180910390fd5b610e0d82826147c6565b606554604080516370a0823160e01b8152336004820152905160609283926001600160a01b03909116916370a0823191602480820192602092909190829003018186803b15801561191f57600080fd5b505afa158015611933573d6000803e3d6000fd5b505050506040513d602081101561194957600080fd5b505167ffffffffffffffff8111801561196157600080fd5b5060405190808252806020026020018201604052801561198b578160200160208202803683370190505b50905060005b81518110156118685760655460408051632f745c5960e01b81523360048201526024810184905290516001600160a01b0390921691632f745c5991604480820192602092909190829003018186803b1580156119ec57600080fd5b505afa158015611a00573d6000803e3d6000fd5b505050506040513d6020811015611a1657600080fd5b50518251839083908110611a2657fe5b6020908102919091010152600101611991565b6213c68081565b6068546001600160a01b031681565b604080516923a0a6a2afa0a226a4a760b11b8152905190819003600a019020611a789033612556565b611ab7576040805162461bcd60e51b815260206004820152601760248201526000805160206154bc833981519152604482015290519081900360640190fd5b606a55565b6000611ac7336143ae565b905090565b606a54606554604080516370a0823160e01b815233600482015290516001600160a01b03909216916370a0823191602480820192602092909190829003018186803b158015611b1a57600080fd5b505afa158015611b2e573d6000803e3d6000fd5b505050506040513d6020811015611b4457600080fd5b50511115611b95576040805162461bcd60e51b8152602060048201526019602482015278151bdbc81b585b9e4818da185c9858dd195c9cc81bdddb9959603a1b604482015290519081900360640190fd5b606654604080516331a9108f60e11b8152600481018590529051849233926001600160a01b0390911691636352211e91602480820192602092909190829003018186803b158015611be557600080fd5b505afa158015611bf9573d6000803e3d6000fd5b505050506040513d6020811015611c0f57600080fd5b50516001600160a01b031614611c63576040805162461bcd60e51b81526020600482015260146024820152732737ba103a3432903bb2b0b837b71037bbb732b960611b604482015290519081900360640190fd5b606654604080516331a9108f60e11b8152600481018590529051849233926001600160a01b0390911691636352211e91602480820192602092909190829003018186803b158015611cb357600080fd5b505afa158015611cc7573d6000803e3d6000fd5b505050506040513d6020811015611cdd57600080fd5b50516001600160a01b031614611d31576040805162461bcd60e51b81526020600482015260146024820152732737ba103a3432903bb2b0b837b71037bbb732b960611b604482015290519081900360640190fd5b606e54600f0b6000611d4282610f60565b3360009081526075602090815260408083205460729092528220549293509091611d6d91908461221f565b606754604080516370a0823160e01b815233600482015290519295508594506001600160a01b0390911692506370a08231916024808301926020929190829003018186803b158015611dbe57600080fd5b505afa158015611dd2573d6000803e3d6000fd5b505050506040513d6020811015611de857600080fd5b50511015611df583614835565b60405160200180807602737ba1032b737bab3b41029a5a4a62610902732b2b21604d1b81525060170182805190602001908083835b60208310611e495780518252601f199092019160209182019101611e2a565b6001836020036101000a03801982511681845116808217855250505050505090500191505060405160208183030381529060405290611f065760405162461bcd60e51b81526004018080602001828103825283818151815260200191508051906020019080838360005b83811015611ecb578181015183820152602001611eb3565b50505050905090810190601f168015611ef85780820380516001836020036101000a031916815260200191505b509250505060405180910390fd5b50606e54611f18903390600f0b614595565b60665460408051639abcafef60e01b8152600481018a90526024810189905290516001600160a01b0390921691639abcafef9160448082019260009290919082900301818387803b158015611f6c57600080fd5b505af1158015611f80573d6000803e3d6000fd5b5050505050505050505050565b6077546001600160a01b031681565b611fa461549d565b611fb9611fb288888861206c565b858561490d565b90506000805b6004811015611ffc578363ffffffff16838260048110611fdb57fe5b602002015163ffffffff161415611ff457506001905060045b600101611fbf565b5080612040576040805162461bcd60e51b815260206004820152600e60248201526d15185c99d95d081a5b9d985b1a5960921b604482015290519081900360640190fd5b5050505050505050565b604080516923a0a6a2afa0a226a4a760b11b8152905190819003600a01902081565b600061209e8262ffffff166120928662ffffff1686600f0b61434690919063ffffffff16565b9063ffffffff6149a716565b949350505050565b606754604080516370a0823160e01b81526001600160a01b038481166004830152915160009392909216916370a0823191602480820192602092909190829003018186803b1580156120f757600080fd5b505afa15801561210b573d6000803e3d6000fd5b505050506040513d602081101561212157600080fd5b505161212c83612465565b6001600160a01b03841660009081526075602052604090205401019050919050565b60715481565b61215f600033612556565b61219c576040805162461bcd60e51b81526020600482015260096024820152682737ba1030b236b4b760b91b604482015290519081900360640190fd5b6067546040805163a9059cbb60e01b81523360048201526024810184905290516001600160a01b039092169163a9059cbb916044808201926020929091908290030181600087803b1580156121f057600080fd5b505af1158015612204573d6000803e3d6000fd5b505050506040513d602081101561221a57600080fd5b505050565b60008060008584116122395750829150600090508061225d565b85840393508484116122535750849150829050600061225d565b5050508190038282825b93509350939050565b604080516923a0a6a2afa0a226a4a760b11b8152905190819003600a01902061228f9033612556565b6122ce576040805162461bcd60e51b815260206004820152601760248201526000805160206154bc833981519152604482015290519081900360640190fd5b606b805460ff191660ff92909216919091179055565b604080516923a0a6a2afa0a226a4a760b11b8152905190819003600a01902061230d9033612556565b61234c576040805162461bcd60e51b815260206004820152601760248201526000805160206154bc833981519152604482015290519081900360640190fd5b60765461235f908263ffffffff6149a716565b6076556001600160a01b03821660009081526075602052604090205461238b908263ffffffff6149a716565b6001600160a01b0380841660009081526075602090815260408083209490945560675484516323b872dd60e01b81523360048201523060248201526044810187905294519316936323b872dd9360648083019491928390030190829087803b1580156123f657600080fd5b505af115801561240a573d6000803e3d6000fd5b505050506040513d602081101561242057600080fd5b50506040805182815290516001600160a01b038416917f3443ca0a6a2d7fbb0e0c0612adb07cdcbde092e281a3dddc6ed66c14c00429cd919081900360200190a25050565b6001600160a01b031660009081526072602052604090205490565b607454600160801b9004600f0b81565b604080516923a0a6a2afa0a226a4a760b11b8152905190819003600a0190206124b99033612556565b6124f8576040805162461bcd60e51b815260206004820152601760248201526000805160206154bc833981519152604482015290519081900360640190fd5b61250381606461430f565b606b60016101000a8154816001600160801b030219169083600f0b6001600160801b0316021790555050565b600082815260336020526040812061254d908363ffffffff614a0116565b90505b92915050565b600082815260336020526040812061254d908363ffffffff614a0d16565b60009081526073602052604090205490565b60756020526000908152604090205481565b607454600090600f0b60ff80841690600885901c168114156125d8576074546125d590600f84810b91600160801b9004900b63ffffffff614a2216565b91505b6125eb8160108662ffffff16901c612e78565b156126185760745461261190600f84810b91600160801b9004900b63ffffffff614a2216565b9150612654565b61262b60108562ffffff16901c82612e78565b156126545760745461265190600f84810b91600160801b9004900b63ffffffff614a5616565b91505b5092915050565b606a54606554604080516370a0823160e01b815233600482015290516001600160a01b03909216916370a0823191602480820192602092909190829003018186803b1580156126a957600080fd5b505afa1580156126bd573d6000803e3d6000fd5b505050506040513d60208110156126d357600080fd5b50511115612724576040805162461bcd60e51b8152602060048201526019602482015278151bdbc81b585b9e4818da185c9858dd195c9cc81bdddb9959603a1b604482015290519081900360640190fd5b336000818152607060205260409020544311612787576040805162461bcd60e51b815260206004820152601c60248201527f4f6e6c792063616c6c61626c65206f6e63652070657220626c6f636b00000000604482015290519081900360640190fd5b6001600160a01b0380821660009081526070602090815260409182902043905560655482516331a9108f60e11b815260048101899052925188943394921692636352211e9260248082019391829003018186803b1580156127e757600080fd5b505afa1580156127fb573d6000803e3d6000fd5b505050506040513d602081101561281157600080fd5b50516001600160a01b03161461286e576040805162461bcd60e51b815260206004820152601760248201527f4e6f742074686520636861726163746572206f776e6572000000000000000000604482015290519081900360640190fd5b606654604080516331a9108f60e11b8152600481018790529051869233926001600160a01b0390911691636352211e91602480820192602092909190829003018186803b1580156128be57600080fd5b505afa1580156128d2573d6000803e3d6000fd5b505050506040513d60208110156128e857600080fd5b50516001600160a01b03161461293c576040805162461bcd60e51b81526020600482015260146024820152732737ba103a3432903bb2b0b837b71037bbb732b960611b604482015290519081900360640190fd5b606554606b5460408051632ee6accf60e01b8152600481018a905260ff909216602483015251600092839283926129ce926001600160a01b031691632ee6accf91604480830192602092919082900301818887803b15801561299d57600080fd5b505af11580156129b1573d6000803e3d6000fd5b505050506040513d60208110156129c757600080fd5b5051612adb565b60665460408051631ab044f960e31b8152600481018e905260ff8616602482015290519497509295509093506000928392839283926001600160a01b039091169163d58227c8916044808301926080929190829003018186803b158015612a3457600080fd5b505afa158015612a48573d6000803e3d6000fd5b505050506040513d6080811015612a5e57600080fd5b5080516020820151604083015160609093015191965094509092509050612a88868584888f614a89565b612acc8d8d612a9889878761206c565b60088f63ff0000001663ffffffff16901c60088660ff1662ffffff16901b8c60ff161762ffffff16178f62ffffff16614a9e565b50505050505050505050505050565b60ff811691600882901c62ffffff169160201c67ffffffffffffffff1690565b606e54600f0b81565b600081565b612b14600033612556565b612b51576040805162461bcd60e51b81526020600482015260096024820152682737ba1030b236b4b760b91b604482015290519081900360640190fd5b607780546001600160a01b0319166001600160a01b0392909216919091179055565b607454600f0b81565b60765481565b604080516923a0a6a2afa0a226a4a760b11b8152905190819003600a019020612bab9033612556565b612bea576040805162461bcd60e51b815260206004820152601760248201526000805160206154bc833981519152604482015290519081900360640190fd5b610e0d8282614c51565b6000611ac742610e1063ffffffff614c6316565b6066546001600160a01b031681565b612c22600033612556565b612c5f576040805162461bcd60e51b81526020600482015260096024820152682737ba1030b236b4b760b91b604482015290519081900360640190fd5b6020607155565b60005b606554604080516370a0823160e01b815233600482015290516001600160a01b03909216916370a0823191602480820192602092909190829003018186803b158015612cb457600080fd5b505afa158015612cc8573d6000803e3d6000fd5b505050506040513d6020811015612cde57600080fd5b5051811015612e075760655460408051632f745c5960e01b81523360048201526024810184905290516000926001600160a01b031691632f745c59916044808301926020929190829003018186803b158015612d3957600080fd5b505afa158015612d4d573d6000803e3d6000fd5b505050506040513d6020811015612d6357600080fd5b50516000818152607360205260408120805491905590915061ffff811115612d8a575061ffff5b60655460408051630fc0057560e01b81526004810185905261ffff8416602482015290516001600160a01b0390921691630fc005759160448082019260009290919082900301818387803b158015612de157600080fd5b505af1158015612df5573d6000803e3d6000fd5b505060019094019350612c6992505050565b50565b606c54600f0b81565b606d54600f0b81565b6069546001600160a01b031681565b606c54600160801b9004600f0b81565b6000818152603360205260408120610ff090614cca565b6065546001600160a01b031681565b62ffffff1690565b6067546001600160a01b031681565b60008160ff1660048460010160ff1681612e8e57fe5b0660ff1614905092915050565b600082815260336020526040902060020154612eb9906116a1614753565b6118c55760405162461bcd60e51b815260040180806020018281038252603081526020018061552d6030913960400191505060405180910390fd5b67266666666666666681565b612f0b600033612556565b612f48576040805162461bcd60e51b81526020600482015260096024820152682737ba1030b236b4b760b91b604482015290519081900360640190fd5b607980546001600160a01b0319166001600160a01b0392909216919091179055565b6001600160a01b0382166000908152607560209081526040808320546072909252822054612f9991908461221f565b95945050505050565b604080516923a0a6a2afa0a226a4a760b11b8152905190819003600a019020612fcb9033612556565b61300a576040805162461bcd60e51b815260206004820152601760248201526000805160206154bc833981519152604482015290519081900360640190fd5b607155565b606d54600160801b9004600f0b81565b61302a600033612556565b613067576040805162461bcd60e51b81526020600482015260096024820152682737ba1030b236b4b760b91b604482015290519081900360640190fd5b606980546001600160a01b0319166001600160a01b0392909216919091179055565b604080516923a0a6a2afa0a226a4a760b11b8152905190819003600a0190206130b29033612556565b6130f1576040805162461bcd60e51b815260206004820152601760248201526000805160206154bc833981519152604482015290519081900360640190fd5b6130fc81606461430f565b606e8054600f9290920b6001600160801b03166001600160801b031990921691909117905550565b606a54606554604080516370a0823160e01b815233600482015290516001600160a01b03909216916370a0823191602480820192602092909190829003018186803b15801561317257600080fd5b505afa158015613186573d6000803e3d6000fd5b505050506040513d602081101561319c57600080fd5b505111156131ed576040805162461bcd60e51b8152602060048201526019602482015278151bdbc81b585b9e4818da185c9858dd195c9cc81bdddb9959603a1b604482015290519081900360640190fd5b336000818152607060205260409020544311613250576040805162461bcd60e51b815260206004820152601c60248201527f4f6e6c792063616c6c61626c65206f6e63652070657220626c6f636b00000000604482015290519081900360640190fd5b6001600160a01b0381166000908152607060205260408120439055606d54600160801b9004600f0b9061328282610f60565b33600090815260756020908152604080832054607290925282205492935090916132ad91908461221f565b606754604080516370a0823160e01b815233600482015290519295508594506001600160a01b0390911692506370a08231916024808301926020929190829003018186803b1580156132fe57600080fd5b505afa158015613312573d6000803e3d6000fd5b505050506040513d602081101561332857600080fd5b5051101561333583614835565b60405160200180807602737ba1032b737bab3b41029a5a4a62610902732b2b21604d1b81525060170182805190602001908083835b602083106133895780518252601f19909201916020918201910161336a565b6001836020036101000a038019825116818451168082178552505050505050905001915050604051602081830303815290604052906134095760405162461bcd60e51b8152602060048201818152835160248401528351909283926044909101919085019080838360008315611ecb578181015183820152602001611eb3565b50606d54613422903390600160801b9004600f0b614595565b60695460408051630e20f61560e21b815233600482015290516000926001600160a01b031691633883d854916024808301926020929190829003018186803b15801561346d57600080fd5b505afa158015613481573d6000803e3d6000fd5b505050506040513d602081101561349757600080fd5b5051606654604080516340c10f1960e01b81523360048201526024810184905290519293506001600160a01b03909116916340c10f19916044808201926020929091908290030181600087803b1580156134f057600080fd5b505af1158015613504573d6000803e3d6000fd5b505050506040513d602081101561351a57600080fd5b50505050505050565b604080516923a0a6a2afa0a226a4a760b11b8152905190819003600a01902061354c9033612556565b61358b576040805162461bcd60e51b815260206004820152601760248201526000805160206154bc833981519152604482015290519081900360640190fd5b610e0d82826144a6565b604080516923a0a6a2afa0a226a4a760b11b8152905190819003600a0190206135be9033612556565b6135fd576040805162461bcd60e51b815260206004820152601760248201526000805160206154bc833981519152604482015290519081900360640190fd5b610e0d82826146be565b606a54606554604080516370a0823160e01b815233600482015290516001600160a01b03909216916370a0823191602480820192602092909190829003018186803b15801561365557600080fd5b505afa158015613669573d6000803e3d6000fd5b505050506040513d602081101561367f57600080fd5b505111156136d0576040805162461bcd60e51b8152602060048201526019602482015278151bdbc81b585b9e4818da185c9858dd195c9cc81bdddb9959603a1b604482015290519081900360640190fd5b336000818152607060205260409020544311613733576040805162461bcd60e51b815260206004820152601c60248201527f4f6e6c792063616c6c61626c65206f6e63652070657220626c6f636b00000000604482015290519081900360640190fd5b6001600160a01b0381166000908152607060205260408120439055606b546101009004600f0b9061376382610f60565b336000908152607560209081526040808320546072909252822054929350909161378e91908461221f565b606754604080516370a0823160e01b815233600482015290519295508594506001600160a01b0390911692506370a08231916024808301926020929190829003018186803b1580156137df57600080fd5b505afa1580156137f3573d6000803e3d6000fd5b505050506040513d602081101561380957600080fd5b5051101561381683614835565b60405160200180807602737ba1032b737bab3b41029a5a4a62610902732b2b21604d1b81525060170182805190602001908083835b6020831061386a5780518252601f19909201916020918201910161384b565b6001836020036101000a038019825116818451168082178552505050505050905001915050604051602081830303815290604052906138ea5760405162461bcd60e51b8152602060048201818152835160248401528351909283926044909101919085019080838360008315611ecb578181015183820152602001611eb3565b50606a54606554604080516370a0823160e01b815233600482015290516001600160a01b03909216916370a0823191602480820192602092909190829003018186803b15801561393957600080fd5b505afa15801561394d573d6000803e3d6000fd5b505050506040513d602081101561396357600080fd5b5051606a54604080517102cb7ba9031b0b71037b7363c903430bb32960751b602082015260328101929092526b20636861726163746572732160a01b60528301528051603e818403018152605e90920190529111613a025760405162461bcd60e51b8152602060048201818152835160248401528351909283926044909101919085019080838360008315611ecb578181015183820152602001611eb3565b50606b54613a199033906101009004600f0b614595565b6077546040805163bf2a28cf60e01b815290516001600160a01b039092169163434d82a3913391849163bf2a28cf916004808301926020929190829003018186803b158015613a6757600080fd5b505afa158015613a7b573d6000803e3d6000fd5b505050506040513d6020811015613a9157600080fd5b5051604080516001600160e01b031960e086901b1681526001600160a01b0390931660048401526024830191909152516044808301926020929190829003018186803b158015613ae057600080fd5b505afa158015613af4573d6000803e3d6000fd5b505050506040513d6020811015613b0a57600080fd5b5051158015613b8d5750606554604080516370a0823160e01b815233600482015290516001600160a01b03909216916370a0823191602480820192602092909190829003018186803b158015613b5f57600080fd5b505afa158015613b73573d6000803e3d6000fd5b505050506040513d6020811015613b8957600080fd5b5051155b15613c1d57613c1d33613c18607760009054906101000a90046001600160a01b03166001600160a01b0316635249fb6d6040518163ffffffff1660e01b815260040160206040518083038186803b158015613be757600080fd5b505afa158015613bfb573d6000803e3d6000fd5b505050506040513d6020811015613c1157600080fd5b5051610f60565b6146be565b60695460408051630e20f61560e21b815233600482015290516000926001600160a01b031691633883d854916024808301926020929190829003018186803b158015613c6857600080fd5b505afa158015613c7c573d6000803e3d6000fd5b505050506040513d6020811015613c9257600080fd5b5051606554604080516340c10f1960e01b81523360048201526024810184905290519293506001600160a01b03909116916340c10f199160448082019260009290919082900301818387803b158015613cea57600080fd5b505af1158015613cfe573d6000803e3d6000fd5b5050606654604080516370a0823160e01b815233600482015290516001600160a01b0390921693506370a082319250602480820192602092909190829003018186803b158015613d4d57600080fd5b505afa158015613d61573d6000803e3d6000fd5b505050506040513d6020811015613d7757600080fd5b5051611667576066546001600160a01b031663e8d5fe4433826380aa68cd6000613da2876064614cd5565b6040518363ffffffff1660e01b8152600401808381526020018281526020019250505060206040518083038186803b158015613ddd57600080fd5b505afa158015613df1573d6000803e3d6000fd5b505050506040513d6020811015613e0757600080fd5b505160665460408051630f9a2d8160e21b815260048181015260c86024820152604481018890526065606482015290516001600160a01b0390921691633e68b60491608480820192602092909190829003018186803b158015613e6957600080fd5b505afa158015613e7d573d6000803e3d6000fd5b505050506040513d6020811015613e9357600080fd5b5051600080613ea3886066614cd5565b604080516001600160e01b031960e08a901b1681526001600160a01b03909716600488015261ffff958616602488015293851660448701529184166064860152909216608484015260a48301919091525160c48083019260209291908290030181600087803b1580156134f057600080fd5b613f1d61549d565b6066546065546040805163acb586df60e01b815260048101879052905160009384936001600160a01b039182169363d58227c89389939092169163acb586df91602480820192602092909190829003018186803b158015613f7d57600080fd5b505afa158015613f91573d6000803e3d6000fd5b505050506040513d6020811015613fa757600080fd5b5051604080516001600160e01b031960e086901b168152600481019390935260ff9091166024830152516044808301926080929190829003018186803b158015613ff057600080fd5b505afa158015614004573d6000803e3d6000fd5b505050506040513d608081101561401a57600080fd5b508051604091820151606554835163017fe80960e01b8152600481018a90529351929550909350612f99926140ae926001600160a01b039092169163017fe80991602480820192602092909190829003018186803b15801561407b57600080fd5b505afa15801561408f573d6000803e3d6000fd5b505050506040513d60208110156140a557600080fd5b5051848461206c565b60655460408051630153b1ff60e61b8152600481018a905290516001600160a01b03909216916354ec7fc091602480820192602092909190829003018186803b1580156140fa57600080fd5b505afa15801561410e573d6000803e3d6000fd5b505050506040513d602081101561412457600080fd5b505161412e612bf4565b61490d565b604080516923a0a6a2afa0a226a4a760b11b8152905190819003600a01902061415c9033612556565b61419b576040805162461bcd60e51b815260206004820152601760248201526000805160206154bc833981519152604482015290519081900360640190fd5b6141a681606461430f565b606d60106101000a8154816001600160801b030219169083600f0b6001600160801b0316021790555050565b6001600160a01b03821660009081526075602090815260408083205460729092528220548291829161420591908661221f565b9250925092506142208360765461444990919063ffffffff16565b6076556001600160a01b03851660009081526075602052604090205461424c908463ffffffff61444916565b6001600160a01b038616600090815260756020908152604080832093909355607290522054614281908363ffffffff61444916565b6001600160a01b0380871660008181526072602090815260408083209590955560675485516323b872dd60e01b8152600481019490945230602485015260448401879052945194909316936323b872dd936064808501949193918390030190829087803b1580156134f057600080fd5b6000677fffffffffffffff82111561430857600080fd5b5060401b90565b60008161431b57600080fd5b60006143278484614d01565b905060016001607f1b036001600160801b038216111561254d57600080fd5b60008161435557506000612550565b600083600f0b121561436657600080fd5b600f83900b6001600160801b038316810260401c90608084901c026001600160c01b0381111561439557600080fd5b60401b81198111156143a657600080fd5b019392505050565b6001600160a01b0381166000908152607860205260408120544210156143d057fe5b6001600160a01b0382166000908152607860205260408120546143fc906213c68063ffffffff6149a716565b90506000614410824263ffffffff614e4b16565b9150506213c68081111561442057fe5b600061442f826213c68061430f565b9050612f996726666666666666668263ffffffff614e7116565b6000828211156144a0576040805162461bcd60e51b815260206004820152601e60248201527f536166654d6174683a207375627472616374696f6e206f766572666c6f770000604482015290519081900360640190fd5b50900390565b6067546040805163a9059cbb60e01b81526001600160a01b038581166004830152602482018590529151919092169163a9059cbb9160448083019260209291908290030181600087803b1580156144fc57600080fd5b505af1158015614510573d6000803e3d6000fd5b505050506040513d602081101561452657600080fd5b50505050565b6065546040805163095ea7b360e01b81526001600160a01b038481166004830152602482018690529151919092169163095ea7b391604480830192600092919082900301818387803b15801561458157600080fd5b505af115801561149c573d6000803e3d6000fd5b610e0d826145a283610f60565b6141d2565b6066546040805163095ea7b360e01b81526001600160a01b038481166004830152602482018690529151919092169163095ea7b391604480830192600092919082900301818387803b15801561458157600080fd5b600061460730614ea7565b15905090565b600054610100900460ff168061462657506146266145fc565b80614634575060005460ff16155b61466f5760405162461bcd60e51b815260040180806020018281038252602e81526020018061555d602e913960400191505060405180910390fd5b600054610100900460ff1615801561469a576000805460ff1961ff0019909116610100171660011790555b6146a2614ead565b6146aa614ead565b8015612e07576000805461ff001916905550565b6076546146d1908263ffffffff6149a716565b6076556001600160a01b0382166000908152607560205260409020546146fd908263ffffffff6149a716565b6001600160a01b038316600081815260756020908152604091829020939093558051848152905191927f3443ca0a6a2d7fbb0e0c0612adb07cdcbde092e281a3dddc6ed66c14c00429cd92918290030190a25050565b3390565b6000828152603360205260409020614775908263ffffffff614f4d16565b15610e0d57614782614753565b6001600160a01b0316816001600160a01b0316837f2f8788117e7eff1d82e926ec794901d17c78024a50270940304540a733656f0d60405160405180910390a45050565b60008281526033602052604090206147e4908263ffffffff614f6216565b15610e0d576147f1614753565b6001600160a01b0316816001600160a01b0316837ff6391f5c32d9c69d2a47ea670b442974b53935d1edc7fd64eb21e047a839171b60405160405180910390a45050565b60608161485a57506040805180820190915260018152600360fc1b6020820152610ff3565b8160005b811561487257600101600a8204915061485e565b60608167ffffffffffffffff8111801561488b57600080fd5b506040519080825280601f01601f1916602001820160405280156148b6576020820181803683370190505b50905060001982015b851561490457600a860660300160f81b828280600190039350815181106148e257fe5b60200101906001600160f81b031916908160001a905350600a860495506148bf565b50949350505050565b61491561549d565b600061493961492e8567ffffffffffffffff1685614cd5565b8662ffffff16614cd5565b905061494361549d565b60005b600481101561499d57600061495b8483614cd5565b90506303000000601882901b1661497762ffffff8a1683614f77565b1783836004811061498457fe5b63ffffffff909216602092909202015250600101614946565b5095945050505050565b60008282018381101561254d576040805162461bcd60e51b815260206004820152601b60248201527f536166654d6174683a206164646974696f6e206f766572666c6f770000000000604482015290519081900360640190fd5b600061254d8383614fbc565b600061254d836001600160a01b038416615020565b6000600f83810b9083900b0160016001607f1b03198112801590614a4d575060016001607f1b038113155b61254d57600080fd5b6000600f82810b9084900b0360016001607f1b03198112801590614a4d575060016001607f1b0381131561254d57600080fd5b61166785858585614a98612bf4565b86611f9c565b60695460408051630e20f61560e21b815233600482015290516000926001600160a01b031691633883d854916024808301926020929190829003018186803b158015614ae957600080fd5b505afa158015614afd573d6000803e3d6000fd5b505050506040513d6020811015614b1357600080fd5b505190506000614b24858584615038565b90506000614b3c84614b37856001614cd5565b615059565b90506000614b4a878661506a565b90506000614b5f614b5a87615086565b610f60565b90508262ffffff168462ffffff161015614b7a575060009050805b33600090815260726020526040902054158015614b975750600081115b15614ba557614ba5336150da565b3360008181526072602090815260408083208054860190558d83526073825291829020805461ffff871690810190915582518d815262ffffff8b811663ff00000060088f901b161763ffffffff1693820193909352888316818501529187166060830152608082015260a0810184905290518c92917f7a58aac6530017822bf3210fccef7efa31f56277f19966bc887bfb11f40ca96d919081900360c00190a350505050505050505050565b610e0d82614c5e83610f60565b6144a6565b6000808211614cb9576040805162461bcd60e51b815260206004820152601a60248201527f536166654d6174683a206469766973696f6e206279207a65726f000000000000604482015290519081900360640190fd5b818381614cc257fe5b049392505050565b6000610ff0826150f6565b604080516020808201949094528082019290925280518083038201815260609092019052805191012090565b600081614d0d57600080fd5b60006001600160c01b038411614d325782604085901b81614d2a57fe5b049050614e37565b60c084811c6401000000008110614d4b576020918201911c5b620100008110614d5d576010918201911c5b6101008110614d6e576008918201911c5b60108110614d7e576004918201911c5b60048110614d8e576002918201911c5b60028110614d9d576001820191505b60bf820360018603901c6001018260ff0387901b81614db857fe5b0492506001600160801b03831115614dcf57600080fd5b608085901c83026001600160801b038616840260c088901c604089901b82811015614dfb576001820391505b608084901b92900382811015614e12576001820391505b829003608084901c8214614e2257fe5b888181614e2b57fe5b04870196505050505050505b6001600160801b0381111561254d57600080fd5b60008083831115614e6157506000905080614e6a565b50600190508183035b9250929050565b6000600f83810b9083900b0260401d60016001607f1b03198112801590614a4d575060016001607f1b0381131561254d57600080fd5b3b151590565b600054610100900460ff1680614ec65750614ec66145fc565b80614ed4575060005460ff16155b614f0f5760405162461bcd60e51b815260040180806020018281038252602e81526020018061555d602e913960400191505060405180910390fd5b600054610100900460ff161580156146aa576000805460ff1961ff0019909116610100171660011790558015612e07576000805461ff001916905550565b600061254d836001600160a01b0384166150fa565b600061254d836001600160a01b038416615144565b600080614f8b84600a63ffffffff614c6316565b905061209e614fac6000614fa684600263ffffffff61520a16565b86615263565b612092868463ffffffff61444916565b81546000908210614ffe5760405162461bcd60e51b81526004018080602001828103825260228152602001806154dc6022913960400191505060405180910390fd5b82600001828154811061500d57fe5b9060005260206000200154905092915050565b60009081526001919091016020526040902054151590565b60008061504a8562ffffff1684614f77565b9050612f99816110ca86612598565b600061254d8362ffffff1683614f77565b600061254d6071546110ca8462ffffff168662ffffff1661430f565b6000610ff06150c46150a76150a28562ffffff166103e861430f565b6152cd565b606c54600160801b9004600f90810b900b9063ffffffff614e7116565b606d54600f90810b900b9063ffffffff614a2216565b6001600160a01b03166000908152607860205260409020429055565b5490565b60006151068383615020565b61513c57508154600181810184556000848152602080822090930184905584548482528286019093526040902091909155612550565b506000612550565b60008181526001830160205260408120548015615200578354600019808301919081019060009087908390811061517757fe5b906000526020600020015490508087600001848154811061519457fe5b6000918252602080832090910192909255828152600189810190925260409020908401905586548790806151c457fe5b60019003818190600052602060002001600090559055866001016000878152602001908152602001600020600090556001945050505050612550565b6000915050612550565b60008261521957506000612550565b8282028284828161522657fe5b041461254d5760405162461bcd60e51b815260040180806020018281038252602181526020018061558b6021913960400191505060405180910390fd5b60008061527b6001612092868863ffffffff61444916565b60408051602080820187905282518083038201815291830190925280519101209091506000906152b1908363ffffffff6152ef16565b90506152c3818763ffffffff6149a716565b9695505050505050565b60008082600f0b12156152df57600080fd5b610ff0604083600f0b901b615356565b6000808211615345576040805162461bcd60e51b815260206004820152601860248201527f536166654d6174683a206d6f64756c6f206279207a65726f0000000000000000604482015290519081900360640190fd5b81838161534e57fe5b069392505050565b60008161536557506000610ff3565b816001600160801b821061537e5760809190911c9060401b5b6801000000000000000082106153995760409190911c9060201b5b64010000000082106153b05760209190911c9060101b5b6201000082106153c55760109190911c9060081b5b61010082106153d95760089190911c9060041b5b601082106153ec5760049190911c9060021b5b600882106153f85760011b5b600181858161540357fe5b048201901c9050600181858161541557fe5b048201901c9050600181858161542757fe5b048201901c9050600181858161543957fe5b048201901c9050600181858161544b57fe5b048201901c9050600181858161545d57fe5b048201901c9050600181858161546f57fe5b048201901c9050600081858161548157fe5b0490508082106154915780615493565b815b9350505050610ff3565b6040518060800160405280600490602082028036833750919291505056fe4d697373696e672047414d455f41444d494e20726f6c65000000000000000000456e756d657261626c655365743a20696e646578206f7574206f6620626f756e6473416363657373436f6e74726f6c3a2073656e646572206d75737420626520616e2061646d696e20746f206772616e74416363657373436f6e74726f6c3a2073656e646572206d75737420626520616e2061646d696e20746f207265766f6b65496e697469616c697a61626c653a20636f6e747261637420697320616c726561647920696e697469616c697a6564536166654d6174683a206d756c7469706c69636174696f6e206f766572666c6f77416363657373436f6e74726f6c3a2063616e206f6e6c792072656e6f756e636520726f6c657320666f722073656c66a2646970667358221220462e9c230b2fcae8cb924f60a32985ec414cb0600cc97343b5cd6c5557dbe5ad64736f6c63430006050033",
  "immutableReferences": {},
  "source": "pragma solidity ^0.6.0;\r\n\r\nimport \"@openzeppelin/contracts-upgradeable/proxy/Initializable.sol\";\r\nimport \"@openzeppelin/contracts-upgradeable/access/AccessControlUpgradeable.sol\";\r\nimport \"../node_modules/@openzeppelin/contracts/math/SafeMath.sol\";\r\nimport \"../node_modules/abdk-libraries-solidity/ABDKMath64x64.sol\";\r\nimport \"../node_modules/@openzeppelin/contracts/token/ERC20/IERC20.sol\";\r\nimport \"./interfaces/IStakeFromGame.sol\";\r\nimport \"./interfaces/IRandoms.sol\";\r\nimport \"./interfaces/IPriceOracle.sol\";\r\nimport \"./characters.sol\";\r\nimport \"./Promos.sol\";\r\nimport \"./weapons.sol\";\r\nimport \"./util.sol\";\r\n\r\ncontract CryptoBlades is Initializable, AccessControlUpgradeable {\r\n    using ABDKMath64x64 for int128;\r\n    using SafeMath for uint256;\r\n    using SafeMath for uint64;\r\n\r\n    bytes32 public constant GAME_ADMIN = keccak256(\"GAME_ADMIN\");\r\n\r\n    int128 public constant REWARDS_CLAIM_TAX_MAX = 2767011611056432742; // = ~0.15 = ~15%\r\n    uint256 public constant REWARDS_CLAIM_TAX_DURATION = 15 days;\r\n\r\n    Characters public characters;\r\n    Weapons public weapons;\r\n    IERC20 public skillToken;//0x154A9F9cbd3449AD22FDaE23044319D6eF2a1Fab;\r\n    IPriceOracle public priceOracleSkillPerUsd;\r\n    IRandoms public randoms;\r\n\r\n    function initialize(IERC20 _skillToken, Characters _characters, Weapons _weapons, IPriceOracle _priceOracleSkillPerUsd, IRandoms _randoms) public initializer {\r\n        __AccessControl_init();\r\n\r\n        _setupRole(DEFAULT_ADMIN_ROLE, msg.sender);\r\n        _setupRole(GAME_ADMIN, msg.sender);\r\n\r\n        skillToken = _skillToken;\r\n        characters = _characters;\r\n        weapons = _weapons;\r\n        priceOracleSkillPerUsd = _priceOracleSkillPerUsd;\r\n        randoms = _randoms;\r\n\r\n        characterLimit = 4;\r\n        staminaCostFight = 40;\r\n        mintCharacterFee = ABDKMath64x64.divu(10, 1);//10 usd;\r\n        fightRewardBaseline = ABDKMath64x64.divu(1, 100);//0.01 usd;\r\n        fightRewardGasOffset = ABDKMath64x64.divu(8, 10);//0.8 usd;\r\n        mintWeaponFee = ABDKMath64x64.divu(3, 1);//3 usd;\r\n        reforgeWeaponFee = ABDKMath64x64.divu(5, 10);//0.5 usd;\r\n    }\r\n\r\n    function migrateTo_1ee400a() public {\r\n        require(hasRole(DEFAULT_ADMIN_ROLE, msg.sender), \"Not admin\");\r\n\r\n        fightXpGain = 32;\r\n    }\r\n\r\n    function migrateTo_aa9da90() public {\r\n        require(hasRole(DEFAULT_ADMIN_ROLE, msg.sender), \"Not admin\");\r\n\r\n        oneFrac = ABDKMath64x64.fromUInt(1);\r\n        fightTraitBonus = ABDKMath64x64.divu(75, 1000);\r\n    }\r\n\r\n    function migrateTo_ef994e2(Promos _promos) public {\r\n        require(hasRole(DEFAULT_ADMIN_ROLE, msg.sender), \"Not admin\");\r\n\r\n        promos = _promos;\r\n    }\r\n\r\n    function migrateTo_23b3a8b(IStakeFromGame _stakeFromGame) external {\r\n        require(hasRole(DEFAULT_ADMIN_ROLE, msg.sender), \"Not admin\");\r\n\r\n        stakeFromGameImpl = _stakeFromGame;\r\n    }\r\n\r\n    function migrateTo_7dd2a56() external {\r\n        require(hasRole(DEFAULT_ADMIN_ROLE, msg.sender), \"Not admin\");\r\n\r\n        // numbers given for the curves were $4.3-aligned so they need to be multiplied\r\n        // additional accuracy may be in order for the setter functions for these\r\n        fightRewardGasOffset = ABDKMath64x64.divu(23177, 100000); // 0.0539 x 4.3\r\n        fightRewardBaseline = ABDKMath64x64.divu(344, 1000); // 0.08 x 4.3\r\n    }\r\n\r\n    // config vars\r\n    uint characterLimit;\r\n    uint8 staminaCostFight;\r\n\r\n    // prices & payouts are in USD, with 4 decimals of accuracy in 64.64 fixed point format\r\n    int128 public mintCharacterFee;\r\n    //int128 public rerollTraitFee;\r\n    //int128 public rerollCosmeticsFee;\r\n    int128 public refillStaminaFee;\r\n    // lvl 1 player power could be anywhere between ~909 to 1666\r\n    // cents per fight multiplied by monster power divided by 1000 (lv1 power)\r\n    int128 public fightRewardBaseline;\r\n    int128 public fightRewardGasOffset;\r\n\r\n    int128 public mintWeaponFee;\r\n    int128 public reforgeWeaponFee;\r\n\r\n    uint256 nonce;\r\n\r\n    mapping(address => uint256) lastBlockNumberCalled;\r\n\r\n    uint256 public fightXpGain; // multiplied based on power differences\r\n\r\n    mapping(address => uint256) tokenRewards; // user adress : skill wei\r\n    mapping(uint256 => uint256) xpRewards; // character id : xp\r\n\r\n    int128 public oneFrac; // 1.0\r\n    int128 public fightTraitBonus; // 7.5%\r\n\r\n    mapping(address => uint256) public inGameOnlyFunds;\r\n    uint256 public totalInGameOnlyFunds;\r\n\r\n    Promos public promos;\r\n\r\n    mapping(address => uint256) private _rewardsClaimTaxTimerStart;\r\n\r\n    IStakeFromGame public stakeFromGameImpl;\r\n\r\n    event FightOutcome(address indexed owner, uint256 indexed character, uint256 weapon, uint32 target, uint24 playerRoll, uint24 enemyRoll, uint16 xpGain, uint256 skillGain);\r\n    event InGameOnlyFundsGiven(address indexed to, uint256 skillAmount);\r\n\r\n    function recoverSkill(uint256 amount) public {\r\n        require(hasRole(DEFAULT_ADMIN_ROLE, msg.sender), \"Not admin\");\r\n\r\n        skillToken.transfer(msg.sender, amount);\r\n    }\r\n\r\n    function getSkillToSubtract(uint256 _inGameOnlyFunds, uint256 _tokenRewards, uint256 _skillNeeded)\r\n        public\r\n        pure\r\n        returns (uint256 fromInGameOnlyFunds, uint256 fromTokenRewards, uint256 fromUserWallet) {\r\n\r\n        if(_skillNeeded <= _inGameOnlyFunds) {\r\n            return (_skillNeeded, 0, 0);\r\n        }\r\n\r\n        _skillNeeded -= _inGameOnlyFunds;\r\n\r\n        if(_skillNeeded <= _tokenRewards) {\r\n            return (_inGameOnlyFunds, _skillNeeded, 0);\r\n        }\r\n\r\n        _skillNeeded -= _tokenRewards;\r\n\r\n        return (_inGameOnlyFunds, _tokenRewards, _skillNeeded);\r\n    }\r\n\r\n    function getSkillNeededFromUserWallet(address playerAddress, uint256 skillNeeded)\r\n        public\r\n        view\r\n        returns (uint256 skillNeededFromUserWallet) {\r\n\r\n        (,, skillNeededFromUserWallet) = getSkillToSubtract(\r\n            inGameOnlyFunds[playerAddress],\r\n            tokenRewards[playerAddress],\r\n            skillNeeded\r\n        );\r\n    }\r\n\r\n    function getMyCharacters() public view returns(uint256[] memory) {\r\n        uint256[] memory tokens = new uint256[](characters.balanceOf(msg.sender));\r\n        for(uint256 i = 0; i < tokens.length; i++) {\r\n            tokens[i] = characters.tokenOfOwnerByIndex(msg.sender, i);\r\n        }\r\n        return tokens;\r\n    }\r\n\r\n    function getMyWeapons() public view returns(uint256[] memory) {\r\n        uint256[] memory tokens = new uint256[](weapons.balanceOf(msg.sender));\r\n        for(uint256 i = 0; i < tokens.length; i++) {\r\n            tokens[i] = weapons.tokenOfOwnerByIndex(msg.sender, i);\r\n        }\r\n        return tokens;\r\n    }\r\n\r\n    function unpackFightData(uint96 playerData)\r\n        public pure returns (uint8 charTrait, uint24 basePowerLevel, uint64 timestamp) {\r\n\r\n        charTrait = uint8(playerData & 0xFF);\r\n        basePowerLevel = uint24((playerData >> 8) & 0xFFFFFF);\r\n        timestamp = uint64((playerData >> 32) & 0xFFFFFFFFFFFFFFFF);\r\n    }\r\n\r\n    function fight(uint256 char, uint256 wep, uint32 target) external\r\n            doesNotHaveMoreThanMaxCharacters\r\n            oncePerBlock(msg.sender)\r\n            isCharacterOwner(char)\r\n            isWeaponOwner(wep) {\r\n        (uint8 charTrait, uint24 basePowerLevel, uint64 timestamp) =\r\n            unpackFightData(characters.getFightDataAndDrainStamina(char, staminaCostFight));\r\n\r\n        (int128 weaponMultTarget,\r\n            int128 weaponMultFight,\r\n            uint24 weaponBonusPower,\r\n            uint8 weaponTrait) = weapons.getFightData(wep, charTrait);\r\n\r\n        _verifyFight(\r\n            basePowerLevel,\r\n            weaponMultTarget,\r\n            weaponBonusPower,\r\n            timestamp,\r\n            target\r\n        );\r\n        performFight(\r\n            char,\r\n            wep,\r\n            getPlayerPower(basePowerLevel, weaponMultFight, weaponBonusPower),\r\n            uint24(charTrait | (uint24(weaponTrait) << 8) | (target & 0xFF000000) >> 8),\r\n            uint24(target & 0xFFFFFF)\r\n        );\r\n    }\r\n\r\n    function _verifyFight(\r\n        uint24 basePowerLevel,\r\n        int128 weaponMultTarget,\r\n        uint24 weaponBonusPower,\r\n        uint64 timestamp,\r\n        uint32 target\r\n    ) internal view {\r\n        verifyFight(\r\n            basePowerLevel,\r\n            weaponMultTarget,\r\n            weaponBonusPower,\r\n            timestamp,\r\n            getCurrentHour(),\r\n            target\r\n        );\r\n    }\r\n\r\n    function verifyFight(\r\n        uint24 playerBasePower,\r\n        int128 wepMultiplier,\r\n        uint24 wepBonusPower,\r\n        uint64 staminaTimestamp,\r\n        uint256 hour,\r\n        uint32 target\r\n    ) public pure {\r\n\r\n        uint32[4] memory targets = getTargetsInternal(\r\n            getPlayerPower(playerBasePower, wepMultiplier, wepBonusPower),\r\n            staminaTimestamp,\r\n            hour\r\n        );\r\n        bool foundMatch = false;\r\n        for(uint i = 0; i < targets.length; i++) {\r\n            if(targets[i] == target) {\r\n                foundMatch = true;\r\n                i = targets.length;\r\n            }\r\n        }\r\n        require(foundMatch, \"Target invalid\");\r\n    }\r\n\r\n    function performFight(\r\n        uint256 char,\r\n        uint256 wep,\r\n        uint24 playerFightPower,\r\n        uint24 traitsCWE, // could fit into uint8 since each trait is only stored on 2 bits (TODO)\r\n        uint24 targetPower\r\n    ) private {\r\n        uint256 seed = randoms.getRandomSeed(msg.sender);\r\n        uint24 playerRoll = getPlayerPowerRoll(playerFightPower,traitsCWE,seed);\r\n        uint24 monsterRoll = getMonsterPowerRoll(targetPower, RandomUtil.combineSeeds(seed,1));\r\n\r\n        uint16 xp = getXpGainForFight(playerFightPower, targetPower);\r\n        uint256 tokens = usdToSkill(getTokenGainForFight(targetPower));\r\n\r\n        if(playerRoll < monsterRoll) {\r\n            tokens = 0;\r\n            xp = 0;\r\n        }\r\n\r\n        if(tokenRewards[msg.sender] == 0 && tokens > 0) {\r\n            _startRewardsClaimTaxTimer(msg.sender);\r\n        }\r\n\r\n        // this may seem dumb but we want to avoid guessing the outcome based on gas estimates!\r\n        tokenRewards[msg.sender] += tokens;\r\n        xpRewards[char] += xp;\r\n\r\n        emit FightOutcome(msg.sender, char, wep, (targetPower | ((uint32(traitsCWE) << 8) & 0xFF000000)), playerRoll, monsterRoll, xp, tokens);\r\n    }\r\n\r\n    function getMonsterPower(uint32 target) public pure returns (uint24) {\r\n        return uint24(target & 0xFFFFFF);\r\n    }\r\n\r\n    function getTokenGainForFight(uint24 monsterPower) internal view returns (int128) {\r\n        return fightRewardGasOffset.add(\r\n            fightRewardBaseline.mul(\r\n                ABDKMath64x64.sqrt(\r\n                    // Performance optimization: 1000 = getPowerAtLevel(0)\r\n                    ABDKMath64x64.divu(monsterPower, 1000)\r\n                )\r\n            )\r\n        );\r\n    }\r\n\r\n    function getXpGainForFight(uint24 playerPower, uint24 monsterPower) internal view returns (uint16) {\r\n        return uint16(ABDKMath64x64.divu(monsterPower, playerPower).mulu(fightXpGain));\r\n    }\r\n\r\n    function getPlayerPowerRoll(\r\n        uint24 playerFightPower,\r\n        uint24 traitsCWE,\r\n        uint256 seed\r\n    ) internal view returns(uint24) {\r\n\r\n        uint256 playerPower = RandomUtil.plusMinus10PercentSeeded(playerFightPower,seed);\r\n        return uint24(getPlayerTraitBonusAgainst(traitsCWE).mulu(playerPower));\r\n    }\r\n\r\n    function getMonsterPowerRoll(uint24 monsterPower, uint256 seed) internal pure returns(uint24) {\r\n        // roll for fights\r\n        return uint24(RandomUtil.plusMinus10PercentSeeded(monsterPower, seed));\r\n    }\r\n\r\n    function getPlayerPower(\r\n        uint24 basePower,\r\n        int128 weaponMultiplier,\r\n        uint24 bonusPower\r\n    ) public pure returns(uint24) {\r\n        return uint24(weaponMultiplier.mulu(basePower).add(bonusPower));\r\n    }\r\n\r\n    function getPlayerTraitBonusAgainst(uint24 traitsCWE) public view returns (int128) {\r\n        int128 traitBonus = oneFrac;\r\n        uint8 characterTrait = uint8(traitsCWE & 0xFF);\r\n        if(characterTrait == (traitsCWE >> 8) & 0xFF/*wepTrait*/) {\r\n            traitBonus = traitBonus.add(fightTraitBonus);\r\n        }\r\n        if(isTraitEffectiveAgainst(characterTrait, uint8(traitsCWE >> 16)/*enemy*/)) {\r\n            traitBonus = traitBonus.add(fightTraitBonus);\r\n        }\r\n        else if(isTraitEffectiveAgainst(uint8(traitsCWE >> 16)/*enemy*/, characterTrait)) {\r\n            traitBonus = traitBonus.sub(fightTraitBonus);\r\n        }\r\n        return traitBonus;\r\n    }\r\n\r\n    function getTargets(uint256 char, uint256 wep) public view returns (uint32[4] memory) {\r\n        (int128 weaponMultTarget,,\r\n            uint24 weaponBonusPower,\r\n            ) = weapons.getFightData(wep, characters.getTrait(char));\r\n\r\n        return getTargetsInternal(\r\n            getPlayerPower(characters.getPower(char), weaponMultTarget, weaponBonusPower),\r\n            characters.getStaminaTimestamp(char),\r\n            getCurrentHour()\r\n        );\r\n    }\r\n\r\n    function getTargetsInternal(uint24 playerPower,\r\n        uint64 staminaTimestamp,\r\n        uint256 currentHour\r\n    ) private pure returns (uint32[4] memory) {\r\n        // 4 targets, roll powers based on character + weapon power\r\n        // trait bonuses not accounted for\r\n        // targets expire on the hour\r\n\r\n        uint256 baseSeed = RandomUtil.combineSeeds(\r\n            RandomUtil.combineSeeds(staminaTimestamp,\r\n            currentHour),\r\n            playerPower\r\n        );\r\n\r\n        uint32[4] memory targets;\r\n        for(uint i = 0; i < targets.length; i++) {\r\n            // we alter seed per-index or they would be all the same\r\n            uint256 indexSeed = RandomUtil.combineSeeds(baseSeed, i);\r\n            targets[i] = uint32(\r\n                RandomUtil.plusMinus10PercentSeeded(playerPower, indexSeed) // power\r\n                | (uint32(indexSeed % 4) << 24) // trait\r\n            );\r\n        }\r\n\r\n        return targets;\r\n    }\r\n\r\n    function isTraitEffectiveAgainst(uint8 attacker, uint8 defender) public pure returns (bool) {\r\n        return (((attacker + 1) % 4) == defender); // Thanks to Tourist\r\n    }\r\n\r\n    function mintCharacter() public doesNotHaveMoreThanMaxCharacters oncePerBlock(msg.sender) requestPayFromPlayer(mintCharacterFee) {\r\n        require(characters.balanceOf(msg.sender) < characterLimit,\r\n            string(abi.encodePacked(\"You can only have \",characterLimit,\" characters!\")));\r\n        _payContract(msg.sender, mintCharacterFee);\r\n\r\n        if(!promos.getBit(msg.sender, promos.BIT_FIRST_CHARACTER()) && characters.balanceOf(msg.sender) == 0) {\r\n            _giveInGameOnlyFundsFromContractBalance(msg.sender, usdToSkill(promos.firstCharacterPromoInGameOnlyFundsGivenInUsd()));\r\n        }\r\n\r\n        uint256 seed = randoms.getRandomSeed(msg.sender);\r\n        characters.mint(msg.sender, seed);\r\n\r\n        // first weapon free with a character mint, max 1 star\r\n        if(weapons.balanceOf(msg.sender) == 0) {\r\n            weapons.performMintWeapon(msg.sender,\r\n                weapons.getRandomProperties(0, RandomUtil.combineSeeds(seed,100)),\r\n                weapons.getRandomStat(4, 200, seed, 101),\r\n                0, // stat2\r\n                0, // stat3\r\n                RandomUtil.combineSeeds(seed,102)\r\n            );\r\n        }\r\n    }\r\n\r\n    function mintWeapon() public doesNotHaveMoreThanMaxCharacters oncePerBlock(msg.sender) requestPayFromPlayer(mintWeaponFee) {\r\n        _payContract(msg.sender, mintWeaponFee);\r\n\r\n        uint256 seed = randoms.getRandomSeed(msg.sender);\r\n        weapons.mint(msg.sender, seed);\r\n    }\r\n\r\n    function reforgeWeapon(uint256 reforgeID, uint256 burnID) public\r\n            doesNotHaveMoreThanMaxCharacters\r\n            isWeaponOwner(reforgeID) isWeaponOwner(burnID) requestPayFromPlayer(reforgeWeaponFee) {\r\n        _payContract(msg.sender, reforgeWeaponFee);\r\n        weapons.reforge(reforgeID, burnID);\r\n    }\r\n\r\n    function migrateRandoms(IRandoms _newRandoms) external {\r\n        require(hasRole(DEFAULT_ADMIN_ROLE, msg.sender), \"Not admin\");\r\n        randoms = _newRandoms;\r\n    }\r\n\r\n    modifier restricted() {\r\n        require(hasRole(GAME_ADMIN, msg.sender), \"Missing GAME_ADMIN role\");\r\n        _;\r\n    }\r\n\r\n    modifier oncePerBlock(address user) {\r\n        require(lastBlockNumberCalled[user] < block.number, \"Only callable once per block\");\r\n        lastBlockNumberCalled[user] = block.number;\r\n        _;\r\n    }\r\n\r\n    modifier isWeaponOwner(uint256 weapon) {\r\n        require(weapons.ownerOf(weapon) == msg.sender, \"Not the weapon owner\");\r\n        _;\r\n    }\r\n\r\n    modifier isCharacterOwner(uint256 character) {\r\n        require(characters.ownerOf(character) == msg.sender, \"Not the character owner\");\r\n        _;\r\n    }\r\n\r\n    modifier doesNotHaveMoreThanMaxCharacters() {\r\n        require(characters.balanceOf(msg.sender) <= characterLimit, \"Too many characters owned\");\r\n        _;\r\n    }\r\n\r\n    modifier isTargetValid(uint256 character, uint256 weapon, uint32 target) {\r\n        bool foundMatch = false;\r\n        uint32[4] memory targets = getTargets(character, weapon);\r\n        for(uint i = 0; i < targets.length; i++) {\r\n            if(targets[i] == target) {\r\n                foundMatch = true;\r\n            }\r\n        }\r\n        require(foundMatch, \"Target invalid\");\r\n        _;\r\n    }\r\n\r\n    modifier requestPayFromPlayer(int128 usdAmount) {\r\n        uint256 skillAmount = usdToSkill(usdAmount);\r\n\r\n        (,, uint256 fromUserWallet) =\r\n            getSkillToSubtract(\r\n                inGameOnlyFunds[msg.sender],\r\n                tokenRewards[msg.sender],\r\n                skillAmount\r\n            );\r\n\r\n        require(skillToken.balanceOf(msg.sender) >= fromUserWallet,\r\n            string(abi.encodePacked(\"Not enough SKILL! Need \",RandomUtil.uint2str(skillAmount))));\r\n        _;\r\n    }\r\n\r\n    function payContract(address playerAddress, int128 usdAmount) public restricted {\r\n        _payContract(playerAddress, usdAmount);\r\n    }\r\n\r\n    function payContractConverted(address playerAddress, uint256 convertedAmount) public restricted {\r\n        _payContractConverted(playerAddress, convertedAmount);\r\n    }\r\n\r\n    function payPlayer(address playerAddress, int128 baseAmount) public restricted {\r\n        _payPlayer(playerAddress, baseAmount);\r\n    }\r\n\r\n    function payPlayerConverted(address playerAddress, uint256 convertedAmount) public restricted {\r\n        _payPlayerConverted(playerAddress, convertedAmount);\r\n    }\r\n\r\n    function approveContractCharacterFor(uint256 characterID, address playerAddress) public restricted {\r\n        _approveContractCharacterFor(characterID, playerAddress);\r\n    }\r\n\r\n    function approveContractWeaponFor(uint256 weaponID, address playerAddress) public restricted {\r\n        _approveContractWeaponFor(weaponID, playerAddress);\r\n    }\r\n\r\n    function _payContract(address playerAddress, int128 usdAmount) internal {\r\n        _payContractConverted(playerAddress, usdToSkill(usdAmount));\r\n    }\r\n\r\n    function _payContractConverted(address playerAddress, uint256 convertedAmount) internal {\r\n\r\n        (uint256 fromInGameOnlyFunds, uint256 fromTokenRewards, uint256 fromUserWallet) =\r\n            getSkillToSubtract(\r\n                inGameOnlyFunds[playerAddress],\r\n                tokenRewards[playerAddress],\r\n                convertedAmount\r\n            );\r\n\r\n        // must use requestPayFromPlayer modifier to approve on the initial function!\r\n        totalInGameOnlyFunds = totalInGameOnlyFunds.sub(fromInGameOnlyFunds);\r\n        inGameOnlyFunds[playerAddress] = inGameOnlyFunds[playerAddress].sub(fromInGameOnlyFunds);\r\n\r\n        tokenRewards[playerAddress] = tokenRewards[playerAddress].sub(fromTokenRewards);\r\n        skillToken.transferFrom(playerAddress, address(this), fromUserWallet);\r\n    }\r\n\r\n    function _payPlayer(address playerAddress, int128 baseAmount) internal {\r\n        _payPlayerConverted(playerAddress, usdToSkill(baseAmount));\r\n    }\r\n\r\n    function _payPlayerConverted(address playerAddress, uint256 convertedAmount) internal {\r\n        skillToken.transfer(playerAddress, convertedAmount);\r\n    }\r\n\r\n    function _approveContractCharacterFor(uint256 characterID, address playerAddress) internal {\r\n        characters.approve(playerAddress, characterID);\r\n    }\r\n\r\n    function _approveContractWeaponFor(uint256 weaponID, address playerAddress) internal {\r\n        weapons.approve(playerAddress, weaponID);\r\n    }\r\n\r\n    function setCharacterMintValue(uint256 cents) public restricted {\r\n        mintCharacterFee = ABDKMath64x64.divu(cents, 100);\r\n    }\r\n\r\n    function setFightRewardBaselineValue(uint256 tenthcents) public restricted {\r\n        fightRewardBaseline = ABDKMath64x64.divu(tenthcents, 1000); // !!! THIS TAKES TENTH OF CENTS !!!\r\n    }\r\n\r\n    function setFightRewardGasOffsetValue(uint256 cents) public restricted {\r\n        fightRewardGasOffset = ABDKMath64x64.divu(cents, 100);\r\n    }\r\n\r\n    function setWeaponMintValue(uint256 cents) public restricted {\r\n        mintWeaponFee = ABDKMath64x64.divu(cents, 100);\r\n    }\r\n\r\n    function setReforgeWeaponValue(uint256 cents) public restricted {\r\n        reforgeWeaponFee = ABDKMath64x64.divu(cents, 100);\r\n    }\r\n\r\n    function setStaminaCostFight(uint8 points) public restricted {\r\n        staminaCostFight = points;\r\n    }\r\n\r\n    function setFightXpGain(uint256 average) public restricted {\r\n        fightXpGain = average;\r\n    }\r\n\r\n    function setCharacterLimit(uint256 max) public restricted {\r\n        characterLimit = max;\r\n    }\r\n\r\n    function giveInGameOnlyFunds(address to, uint256 skillAmount) external restricted {\r\n        totalInGameOnlyFunds = totalInGameOnlyFunds.add(skillAmount);\r\n        inGameOnlyFunds[to] = inGameOnlyFunds[to].add(skillAmount);\r\n\r\n        skillToken.transferFrom(msg.sender, address(this), skillAmount);\r\n\r\n        emit InGameOnlyFundsGiven(to, skillAmount);\r\n    }\r\n\r\n    function _giveInGameOnlyFundsFromContractBalance(address to, uint256 skillAmount) internal {\r\n        totalInGameOnlyFunds = totalInGameOnlyFunds.add(skillAmount);\r\n        inGameOnlyFunds[to] = inGameOnlyFunds[to].add(skillAmount);\r\n\r\n        emit InGameOnlyFundsGiven(to, skillAmount);\r\n    }\r\n\r\n    function giveInGameOnlyFundsFromContractBalance(address to, uint256 skillAmount) external restricted {\r\n        _giveInGameOnlyFundsFromContractBalance(to, skillAmount);\r\n    }\r\n\r\n    function usdToSkill(int128 usdAmount) public view returns (uint256) {\r\n        return usdAmount.mulu(priceOracleSkillPerUsd.currentPrice());\r\n    }\r\n\r\n    function getCurrentHour() public view returns (uint256) {\r\n        // \"now\" returns unix time since 1970 Jan 1, in seconds\r\n        return now.div(1 hours);\r\n    }\r\n\r\n    function claimTokenRewards() public {\r\n        // our characters go to the tavern\r\n        // and the barkeep pays them for the bounties\r\n        uint256 _tokenRewards = tokenRewards[msg.sender];\r\n        tokenRewards[msg.sender] = 0;\r\n\r\n        uint256 _tokenRewardsToPayOut = _tokenRewards.sub(\r\n            _getRewardsClaimTax(msg.sender).mulu(_tokenRewards)\r\n        );\r\n\r\n        // Tax goes to game contract itself, which would mean\r\n        // transferring from the game contract to ...itself.\r\n        // So we don't need to do anything with the tax part of the rewards.\r\n\r\n        _payPlayerConverted(msg.sender, _tokenRewardsToPayOut);\r\n    }\r\n\r\n    function stakeUnclaimedRewards() external {\r\n        uint256 _tokenRewards = tokenRewards[msg.sender];\r\n        tokenRewards[msg.sender] = 0;\r\n\r\n        _giveInGameOnlyFundsFromContractBalance(msg.sender, _tokenRewards / 10);\r\n\r\n        skillToken.approve(address(stakeFromGameImpl), _tokenRewards);\r\n        stakeFromGameImpl.stakeFromGame(msg.sender, _tokenRewards);\r\n    }\r\n\r\n    function claimXpRewards() public {\r\n        // our characters go to the tavern to rest\r\n        // they meditate on what they've learned\r\n        for(uint256 i = 0; i < characters.balanceOf(msg.sender); i++) {\r\n            uint256 char = characters.tokenOfOwnerByIndex(msg.sender, i);\r\n            uint256 xpRewardsToClaim = xpRewards[char];\r\n            xpRewards[char] = 0;\r\n            if (xpRewardsToClaim > 65535) {\r\n                xpRewardsToClaim = 65535;\r\n            }\r\n            characters.gainXp(char, uint16(xpRewardsToClaim));\r\n        }\r\n    }\r\n\r\n    function getTokenRewards() public view returns (uint256) {\r\n        return tokenRewards[msg.sender];\r\n    }\r\n\r\n    function getXpRewards(uint256 char) public view returns (uint256) {\r\n        return xpRewards[char];\r\n    }\r\n\r\n    function getTokenRewardsFor(address wallet) public view returns (uint256) {\r\n        return tokenRewards[wallet];\r\n    }\r\n\r\n    function getTotalSkillOwnedBy(address wallet) public view returns (uint256) {\r\n        return inGameOnlyFunds[wallet] + getTokenRewardsFor(wallet) + skillToken.balanceOf(wallet);\r\n    }\r\n\r\n    function _getRewardsClaimTax(address playerAddress) internal view returns (int128) {\r\n        assert(_rewardsClaimTaxTimerStart[playerAddress] <= block.timestamp);\r\n\r\n        uint256 rewardsClaimTaxTimerEnd = _rewardsClaimTaxTimerStart[playerAddress].add(REWARDS_CLAIM_TAX_DURATION);\r\n\r\n        (, uint256 durationUntilNoTax) = rewardsClaimTaxTimerEnd.trySub(block.timestamp);\r\n\r\n        assert(0 <= durationUntilNoTax && durationUntilNoTax <= REWARDS_CLAIM_TAX_DURATION);\r\n\r\n        int128 frac = ABDKMath64x64.divu(durationUntilNoTax, REWARDS_CLAIM_TAX_DURATION);\r\n\r\n        return REWARDS_CLAIM_TAX_MAX.mul(frac);\r\n    }\r\n\r\n    function getOwnRewardsClaimTax() public view returns (int128) {\r\n        return _getRewardsClaimTax(msg.sender);\r\n    }\r\n\r\n    function _startRewardsClaimTaxTimer(address playerAddress) internal {\r\n        _rewardsClaimTaxTimerStart[playerAddress] = block.timestamp;\r\n    }\r\n\r\n}",
  "sourcePath": "F:\\vscode\\cblades\\contracts\\cryptoblades.sol",
  "compiler": {
    "name": "solc",
    "version": "0.6.5+commit.f956cc89.Emscripten.clang"
  },
  "schemaVersion": "3.3.4",
  "updatedAt": "2021-07-22T21:42:32.005Z",
  "devdoc": {
    "methods": {
      "getRoleAdmin(bytes32)": {
        "details": "Returns the admin role that controls `role`. See {grantRole} and {revokeRole}.     * To change a role's admin, use {_setRoleAdmin}."
      },
      "getRoleMember(bytes32,uint256)": {
        "details": "Returns one of the accounts that have `role`. `index` must be a value between 0 and {getRoleMemberCount}, non-inclusive.     * Role bearers are not sorted in any particular way, and their ordering may change at any point.     * WARNING: When using {getRoleMember} and {getRoleMemberCount}, make sure you perform all queries on the same block. See the following https://forum.openzeppelin.com/t/iterating-over-elements-on-enumerableset-in-openzeppelin-contracts/2296[forum post] for more information."
      },
      "getRoleMemberCount(bytes32)": {
        "details": "Returns the number of accounts that have `role`. Can be used together with {getRoleMember} to enumerate all bearers of a role."
      },
      "grantRole(bytes32,address)": {
        "details": "Grants `role` to `account`.     * If `account` had not been already granted `role`, emits a {RoleGranted} event.     * Requirements:     * - the caller must have ``role``'s admin role."
      },
      "hasRole(bytes32,address)": {
        "details": "Returns `true` if `account` has been granted `role`."
      },
      "renounceRole(bytes32,address)": {
        "details": "Revokes `role` from the calling account.     * Roles are often managed via {grantRole} and {revokeRole}: this function's purpose is to provide a mechanism for accounts to lose their privileges if they are compromised (such as when a trusted device is misplaced).     * If the calling account had been granted `role`, emits a {RoleRevoked} event.     * Requirements:     * - the caller must be `account`."
      },
      "revokeRole(bytes32,address)": {
        "details": "Revokes `role` from `account`.     * If `account` had been granted `role`, emits a {RoleRevoked} event.     * Requirements:     * - the caller must have ``role``'s admin role."
      }
    }
  },
  "userdoc": {
    "methods": {}
  }
}