{
  "contractName": "CryptoBlades",
  "abi": [
    {
      "anonymous": false,
      "inputs": [
        {
          "indexed": true,
          "internalType": "address",
          "name": "owner",
          "type": "address"
        },
        {
          "indexed": true,
          "internalType": "uint256",
          "name": "character",
          "type": "uint256"
        },
        {
          "indexed": false,
          "internalType": "uint256",
          "name": "weapon",
          "type": "uint256"
        },
        {
          "indexed": false,
          "internalType": "uint32",
          "name": "target",
          "type": "uint32"
        },
        {
          "indexed": false,
          "internalType": "uint24",
          "name": "playerRoll",
          "type": "uint24"
        },
        {
          "indexed": false,
          "internalType": "uint24",
          "name": "enemyRoll",
          "type": "uint24"
        },
        {
          "indexed": false,
          "internalType": "uint16",
          "name": "xpGain",
          "type": "uint16"
        },
        {
          "indexed": false,
          "internalType": "uint256",
          "name": "skillGain",
          "type": "uint256"
        }
      ],
      "name": "FightOutcome",
      "type": "event"
    },
    {
      "anonymous": false,
      "inputs": [
        {
          "indexed": true,
          "internalType": "address",
          "name": "to",
          "type": "address"
        },
        {
          "indexed": false,
          "internalType": "uint256",
          "name": "skillAmount",
          "type": "uint256"
        }
      ],
      "name": "InGameOnlyFundsGiven",
      "type": "event"
    },
    {
      "anonymous": false,
      "inputs": [
        {
          "indexed": true,
          "internalType": "bytes32",
          "name": "role",
          "type": "bytes32"
        },
        {
          "indexed": true,
          "internalType": "bytes32",
          "name": "previousAdminRole",
          "type": "bytes32"
        },
        {
          "indexed": true,
          "internalType": "bytes32",
          "name": "newAdminRole",
          "type": "bytes32"
        }
      ],
      "name": "RoleAdminChanged",
      "type": "event"
    },
    {
      "anonymous": false,
      "inputs": [
        {
          "indexed": true,
          "internalType": "bytes32",
          "name": "role",
          "type": "bytes32"
        },
        {
          "indexed": true,
          "internalType": "address",
          "name": "account",
          "type": "address"
        },
        {
          "indexed": true,
          "internalType": "address",
          "name": "sender",
          "type": "address"
        }
      ],
      "name": "RoleGranted",
      "type": "event"
    },
    {
      "anonymous": false,
      "inputs": [
        {
          "indexed": true,
          "internalType": "bytes32",
          "name": "role",
          "type": "bytes32"
        },
        {
          "indexed": true,
          "internalType": "address",
          "name": "account",
          "type": "address"
        },
        {
          "indexed": true,
          "internalType": "address",
          "name": "sender",
          "type": "address"
        }
      ],
      "name": "RoleRevoked",
      "type": "event"
    },
    {
      "inputs": [],
      "name": "DEFAULT_ADMIN_ROLE",
      "outputs": [
        {
          "internalType": "bytes32",
          "name": "",
          "type": "bytes32"
        }
      ],
      "stateMutability": "view",
      "type": "function"
    },
    {
      "inputs": [],
      "name": "GAME_ADMIN",
      "outputs": [
        {
          "internalType": "bytes32",
          "name": "",
          "type": "bytes32"
        }
      ],
      "stateMutability": "view",
      "type": "function"
    },
    {
      "inputs": [],
      "name": "REWARDS_CLAIM_TAX_DURATION",
      "outputs": [
        {
          "internalType": "uint256",
          "name": "",
          "type": "uint256"
        }
      ],
      "stateMutability": "view",
      "type": "function"
    },
    {
      "inputs": [],
      "name": "REWARDS_CLAIM_TAX_MAX",
      "outputs": [
        {
          "internalType": "int128",
          "name": "",
          "type": "int128"
        }
      ],
      "stateMutability": "view",
      "type": "function"
    },
    {
      "inputs": [],
      "name": "burnWeaponFee",
      "outputs": [
        {
          "internalType": "int128",
          "name": "",
          "type": "int128"
        }
      ],
      "stateMutability": "view",
      "type": "function"
    },
    {
      "inputs": [],
      "name": "characters",
      "outputs": [
        {
          "internalType": "contract Characters",
          "name": "",
          "type": "address"
        }
      ],
      "stateMutability": "view",
      "type": "function"
    },
    {
      "inputs": [],
      "name": "fightRewardBaseline",
      "outputs": [
        {
          "internalType": "int128",
          "name": "",
          "type": "int128"
        }
      ],
      "stateMutability": "view",
      "type": "function"
    },
    {
      "inputs": [],
      "name": "fightRewardGasOffset",
      "outputs": [
        {
          "internalType": "int128",
          "name": "",
          "type": "int128"
        }
      ],
      "stateMutability": "view",
      "type": "function"
    },
    {
      "inputs": [],
      "name": "fightTraitBonus",
      "outputs": [
        {
          "internalType": "int128",
          "name": "",
          "type": "int128"
        }
      ],
      "stateMutability": "view",
      "type": "function"
    },
    {
      "inputs": [],
      "name": "fightXpGain",
      "outputs": [
        {
          "internalType": "uint256",
          "name": "",
          "type": "uint256"
        }
      ],
      "stateMutability": "view",
      "type": "function"
    },
    {
      "inputs": [
        {
          "internalType": "bytes32",
          "name": "role",
          "type": "bytes32"
        }
      ],
      "name": "getRoleAdmin",
      "outputs": [
        {
          "internalType": "bytes32",
          "name": "",
          "type": "bytes32"
        }
      ],
      "stateMutability": "view",
      "type": "function"
    },
    {
      "inputs": [
        {
          "internalType": "bytes32",
          "name": "role",
          "type": "bytes32"
        },
        {
          "internalType": "uint256",
          "name": "index",
          "type": "uint256"
        }
      ],
      "name": "getRoleMember",
      "outputs": [
        {
          "internalType": "address",
          "name": "",
          "type": "address"
        }
      ],
      "stateMutability": "view",
      "type": "function"
    },
    {
      "inputs": [
        {
          "internalType": "bytes32",
          "name": "role",
          "type": "bytes32"
        }
      ],
      "name": "getRoleMemberCount",
      "outputs": [
        {
          "internalType": "uint256",
          "name": "",
          "type": "uint256"
        }
      ],
      "stateMutability": "view",
      "type": "function"
    },
    {
      "inputs": [
        {
          "internalType": "bytes32",
          "name": "role",
          "type": "bytes32"
        },
        {
          "internalType": "address",
          "name": "account",
          "type": "address"
        }
      ],
      "name": "grantRole",
      "outputs": [],
      "stateMutability": "nonpayable",
      "type": "function"
    },
    {
      "inputs": [
        {
          "internalType": "bytes32",
          "name": "role",
          "type": "bytes32"
        },
        {
          "internalType": "address",
          "name": "account",
          "type": "address"
        }
      ],
      "name": "hasRole",
      "outputs": [
        {
          "internalType": "bool",
          "name": "",
          "type": "bool"
        }
      ],
      "stateMutability": "view",
      "type": "function"
    },
    {
      "inputs": [
        {
          "internalType": "address",
          "name": "",
          "type": "address"
        }
      ],
      "name": "inGameOnlyFunds",
      "outputs": [
        {
          "internalType": "uint256",
          "name": "",
          "type": "uint256"
        }
      ],
      "stateMutability": "view",
      "type": "function"
    },
    {
      "inputs": [],
      "name": "mintCharacterFee",
      "outputs": [
        {
          "internalType": "int128",
          "name": "",
          "type": "int128"
        }
      ],
      "stateMutability": "view",
      "type": "function"
    },
    {
      "inputs": [],
      "name": "mintWeaponFee",
      "outputs": [
        {
          "internalType": "int128",
          "name": "",
          "type": "int128"
        }
      ],
      "stateMutability": "view",
      "type": "function"
    },
    {
      "inputs": [],
      "name": "oneFrac",
      "outputs": [
        {
          "internalType": "int128",
          "name": "",
          "type": "int128"
        }
      ],
      "stateMutability": "view",
      "type": "function"
    },
    {
      "inputs": [],
      "name": "priceOracleSkillPerUsd",
      "outputs": [
        {
          "internalType": "contract IPriceOracle",
          "name": "",
          "type": "address"
        }
      ],
      "stateMutability": "view",
      "type": "function"
    },
    {
      "inputs": [],
      "name": "promos",
      "outputs": [
        {
          "internalType": "contract Promos",
          "name": "",
          "type": "address"
        }
      ],
      "stateMutability": "view",
      "type": "function"
    },
    {
      "inputs": [],
      "name": "randoms",
      "outputs": [
        {
          "internalType": "contract IRandoms",
          "name": "",
          "type": "address"
        }
      ],
      "stateMutability": "view",
      "type": "function"
    },
    {
      "inputs": [],
      "name": "refillStaminaFee",
      "outputs": [
        {
          "internalType": "int128",
          "name": "",
          "type": "int128"
        }
      ],
      "stateMutability": "view",
      "type": "function"
    },
    {
      "inputs": [],
      "name": "reforgeWeaponFee",
      "outputs": [
        {
          "internalType": "int128",
          "name": "",
          "type": "int128"
        }
      ],
      "stateMutability": "view",
      "type": "function"
    },
    {
      "inputs": [],
      "name": "reforgeWeaponWithDustFee",
      "outputs": [
        {
          "internalType": "int128",
          "name": "",
          "type": "int128"
        }
      ],
      "stateMutability": "view",
      "type": "function"
    },
    {
      "inputs": [
        {
          "internalType": "bytes32",
          "name": "role",
          "type": "bytes32"
        },
        {
          "internalType": "address",
          "name": "account",
          "type": "address"
        }
      ],
      "name": "renounceRole",
      "outputs": [],
      "stateMutability": "nonpayable",
      "type": "function"
    },
    {
      "inputs": [
        {
          "internalType": "bytes32",
          "name": "role",
          "type": "bytes32"
        },
        {
          "internalType": "address",
          "name": "account",
          "type": "address"
        }
      ],
      "name": "revokeRole",
      "outputs": [],
      "stateMutability": "nonpayable",
      "type": "function"
    },
    {
      "inputs": [],
      "name": "skillToken",
      "outputs": [
        {
          "internalType": "contract IERC20",
          "name": "",
          "type": "address"
        }
      ],
      "stateMutability": "view",
      "type": "function"
    },
    {
      "inputs": [],
      "name": "stakeFromGameImpl",
      "outputs": [
        {
          "internalType": "contract IStakeFromGame",
          "name": "",
          "type": "address"
        }
      ],
      "stateMutability": "view",
      "type": "function"
    },
    {
      "inputs": [],
      "name": "totalInGameOnlyFunds",
      "outputs": [
        {
          "internalType": "uint256",
          "name": "",
          "type": "uint256"
        }
      ],
      "stateMutability": "view",
      "type": "function"
    },
    {
      "inputs": [],
      "name": "weapons",
      "outputs": [
        {
          "internalType": "contract Weapons",
          "name": "",
          "type": "address"
        }
      ],
      "stateMutability": "view",
      "type": "function"
    },
    {
      "inputs": [
        {
          "internalType": "contract IERC20",
          "name": "_skillToken",
          "type": "address"
        },
        {
          "internalType": "contract Characters",
          "name": "_characters",
          "type": "address"
        },
        {
          "internalType": "contract Weapons",
          "name": "_weapons",
          "type": "address"
        },
        {
          "internalType": "contract IPriceOracle",
          "name": "_priceOracleSkillPerUsd",
          "type": "address"
        },
        {
          "internalType": "contract IRandoms",
          "name": "_randoms",
          "type": "address"
        }
      ],
      "name": "initialize",
      "outputs": [],
      "stateMutability": "nonpayable",
      "type": "function"
    },
    {
      "inputs": [
        {
          "internalType": "contract Promos",
          "name": "_promos",
          "type": "address"
        }
      ],
      "name": "migrateTo_ef994e2",
      "outputs": [],
      "stateMutability": "nonpayable",
      "type": "function"
    },
    {
      "inputs": [
        {
          "internalType": "contract IStakeFromGame",
          "name": "_stakeFromGame",
          "type": "address"
        }
      ],
      "name": "migrateTo_23b3a8b",
      "outputs": [],
      "stateMutability": "nonpayable",
      "type": "function"
    },
    {
      "inputs": [],
      "name": "migrateTo_801f279",
      "outputs": [],
      "stateMutability": "nonpayable",
      "type": "function"
    },
    {
      "inputs": [
        {
          "internalType": "uint256",
          "name": "amount",
          "type": "uint256"
        }
      ],
      "name": "recoverSkill",
      "outputs": [],
      "stateMutability": "nonpayable",
      "type": "function"
    },
    {
      "inputs": [
        {
          "internalType": "uint256",
          "name": "_inGameOnlyFunds",
          "type": "uint256"
        },
        {
          "internalType": "uint256",
          "name": "_tokenRewards",
          "type": "uint256"
        },
        {
          "internalType": "uint256",
          "name": "_skillNeeded",
          "type": "uint256"
        }
      ],
      "name": "getSkillToSubtract",
      "outputs": [
        {
          "internalType": "uint256",
          "name": "fromInGameOnlyFunds",
          "type": "uint256"
        },
        {
          "internalType": "uint256",
          "name": "fromTokenRewards",
          "type": "uint256"
        },
        {
          "internalType": "uint256",
          "name": "fromUserWallet",
          "type": "uint256"
        }
      ],
      "stateMutability": "pure",
      "type": "function"
    },
    {
      "inputs": [
        {
          "internalType": "address",
          "name": "playerAddress",
          "type": "address"
        },
        {
          "internalType": "uint256",
          "name": "skillNeeded",
          "type": "uint256"
        }
      ],
      "name": "getSkillNeededFromUserWallet",
      "outputs": [
        {
          "internalType": "uint256",
          "name": "skillNeededFromUserWallet",
          "type": "uint256"
        }
      ],
      "stateMutability": "view",
      "type": "function"
    },
    {
      "inputs": [],
      "name": "getMyCharacters",
      "outputs": [
        {
          "internalType": "uint256[]",
          "name": "",
          "type": "uint256[]"
        }
      ],
      "stateMutability": "view",
      "type": "function"
    },
    {
      "inputs": [],
      "name": "getMyWeapons",
      "outputs": [
        {
          "internalType": "uint256[]",
          "name": "",
          "type": "uint256[]"
        }
      ],
      "stateMutability": "view",
      "type": "function"
    },
    {
      "inputs": [
        {
          "internalType": "uint96",
          "name": "playerData",
          "type": "uint96"
        }
      ],
      "name": "unpackFightData",
      "outputs": [
        {
          "internalType": "uint8",
          "name": "charTrait",
          "type": "uint8"
        },
        {
          "internalType": "uint24",
          "name": "basePowerLevel",
          "type": "uint24"
        },
        {
          "internalType": "uint64",
          "name": "timestamp",
          "type": "uint64"
        }
      ],
      "stateMutability": "pure",
      "type": "function"
    },
    {
      "inputs": [
        {
          "internalType": "uint256",
          "name": "char",
          "type": "uint256"
        },
        {
          "internalType": "uint256",
          "name": "wep",
          "type": "uint256"
        },
        {
          "internalType": "uint32",
          "name": "target",
          "type": "uint32"
        },
        {
          "internalType": "uint8",
          "name": "fightMultiplier",
          "type": "uint8"
        }
      ],
      "name": "fight",
      "outputs": [],
      "stateMutability": "nonpayable",
      "type": "function"
    },
    {
      "inputs": [
        {
          "internalType": "uint24",
          "name": "playerBasePower",
          "type": "uint24"
        },
        {
          "internalType": "int128",
          "name": "wepMultiplier",
          "type": "int128"
        },
        {
          "internalType": "uint24",
          "name": "wepBonusPower",
          "type": "uint24"
        },
        {
          "internalType": "uint64",
          "name": "staminaTimestamp",
          "type": "uint64"
        },
        {
          "internalType": "uint256",
          "name": "hour",
          "type": "uint256"
        },
        {
          "internalType": "uint32",
          "name": "target",
          "type": "uint32"
        }
      ],
      "name": "verifyFight",
      "outputs": [],
      "stateMutability": "pure",
      "type": "function"
    },
    {
      "inputs": [
        {
          "internalType": "uint32",
          "name": "target",
          "type": "uint32"
        }
      ],
      "name": "getMonsterPower",
      "outputs": [
        {
          "internalType": "uint24",
          "name": "",
          "type": "uint24"
        }
      ],
      "stateMutability": "pure",
      "type": "function"
    },
    {
      "inputs": [
        {
          "internalType": "uint24",
          "name": "basePower",
          "type": "uint24"
        },
        {
          "internalType": "int128",
          "name": "weaponMultiplier",
          "type": "int128"
        },
        {
          "internalType": "uint24",
          "name": "bonusPower",
          "type": "uint24"
        }
      ],
      "name": "getPlayerPower",
      "outputs": [
        {
          "internalType": "uint24",
          "name": "",
          "type": "uint24"
        }
      ],
      "stateMutability": "pure",
      "type": "function"
    },
    {
      "inputs": [
        {
          "internalType": "uint24",
          "name": "traitsCWE",
          "type": "uint24"
        }
      ],
      "name": "getPlayerTraitBonusAgainst",
      "outputs": [
        {
          "internalType": "int128",
          "name": "",
          "type": "int128"
        }
      ],
      "stateMutability": "view",
      "type": "function"
    },
    {
      "inputs": [
        {
          "internalType": "uint256",
          "name": "char",
          "type": "uint256"
        },
        {
          "internalType": "uint256",
          "name": "wep",
          "type": "uint256"
        }
      ],
      "name": "getTargets",
      "outputs": [
        {
          "internalType": "uint32[4]",
          "name": "",
          "type": "uint32[4]"
        }
      ],
      "stateMutability": "view",
      "type": "function"
    },
    {
      "inputs": [
        {
          "internalType": "uint8",
          "name": "attacker",
          "type": "uint8"
        },
        {
          "internalType": "uint8",
          "name": "defender",
          "type": "uint8"
        }
      ],
      "name": "isTraitEffectiveAgainst",
      "outputs": [
        {
          "internalType": "bool",
          "name": "",
          "type": "bool"
        }
      ],
      "stateMutability": "pure",
      "type": "function"
    },
    {
      "inputs": [],
      "name": "mintCharacter",
      "outputs": [],
      "stateMutability": "nonpayable",
      "type": "function"
    },
    {
      "inputs": [],
      "name": "mintWeapon",
      "outputs": [],
      "stateMutability": "nonpayable",
      "type": "function"
    },
    {
      "inputs": [
        {
          "internalType": "uint256",
          "name": "burnID",
          "type": "uint256"
        }
      ],
      "name": "burnWeapon",
      "outputs": [],
      "stateMutability": "nonpayable",
      "type": "function"
    },
    {
      "inputs": [
        {
          "internalType": "uint256[]",
          "name": "burnIDs",
          "type": "uint256[]"
        }
      ],
      "name": "burnWeapons",
      "outputs": [],
      "stateMutability": "nonpayable",
      "type": "function"
    },
    {
      "inputs": [
        {
          "internalType": "uint256",
          "name": "reforgeID",
          "type": "uint256"
        },
        {
          "internalType": "uint256",
          "name": "burnID",
          "type": "uint256"
        }
      ],
      "name": "reforgeWeapon",
      "outputs": [],
      "stateMutability": "nonpayable",
      "type": "function"
    },
    {
      "inputs": [
        {
          "internalType": "uint256",
          "name": "reforgeID",
          "type": "uint256"
        },
        {
          "internalType": "uint8",
          "name": "amountLB",
          "type": "uint8"
        },
        {
          "internalType": "uint8",
          "name": "amount4B",
          "type": "uint8"
        },
        {
          "internalType": "uint8",
          "name": "amount5B",
          "type": "uint8"
        }
      ],
      "name": "reforgeWeaponWithDust",
      "outputs": [],
      "stateMutability": "nonpayable",
      "type": "function"
    },
    {
      "inputs": [
        {
          "internalType": "contract IRandoms",
          "name": "_newRandoms",
          "type": "address"
        }
      ],
      "name": "migrateRandoms",
      "outputs": [],
      "stateMutability": "nonpayable",
      "type": "function"
    },
    {
      "inputs": [
        {
          "internalType": "address",
          "name": "playerAddress",
          "type": "address"
        },
        {
          "internalType": "int128",
          "name": "usdAmount",
          "type": "int128"
        }
      ],
      "name": "payContract",
      "outputs": [],
      "stateMutability": "nonpayable",
      "type": "function"
    },
    {
      "inputs": [
        {
          "internalType": "address",
          "name": "playerAddress",
          "type": "address"
        },
        {
          "internalType": "uint256",
          "name": "convertedAmount",
          "type": "uint256"
        }
      ],
      "name": "payContractConverted",
      "outputs": [],
      "stateMutability": "nonpayable",
      "type": "function"
    },
    {
      "inputs": [
        {
          "internalType": "address",
          "name": "playerAddress",
          "type": "address"
        },
        {
          "internalType": "int128",
          "name": "baseAmount",
          "type": "int128"
        }
      ],
      "name": "payPlayer",
      "outputs": [],
      "stateMutability": "nonpayable",
      "type": "function"
    },
    {
      "inputs": [
        {
          "internalType": "address",
          "name": "playerAddress",
          "type": "address"
        },
        {
          "internalType": "uint256",
          "name": "convertedAmount",
          "type": "uint256"
        }
      ],
      "name": "payPlayerConverted",
      "outputs": [],
      "stateMutability": "nonpayable",
      "type": "function"
    },
    {
      "inputs": [
        {
          "internalType": "uint256",
          "name": "characterID",
          "type": "uint256"
        },
        {
          "internalType": "address",
          "name": "playerAddress",
          "type": "address"
        }
      ],
      "name": "approveContractCharacterFor",
      "outputs": [],
      "stateMutability": "nonpayable",
      "type": "function"
    },
    {
      "inputs": [
        {
          "internalType": "uint256",
          "name": "weaponID",
          "type": "uint256"
        },
        {
          "internalType": "address",
          "name": "playerAddress",
          "type": "address"
        }
      ],
      "name": "approveContractWeaponFor",
      "outputs": [],
      "stateMutability": "nonpayable",
      "type": "function"
    },
    {
      "inputs": [
        {
          "internalType": "uint256",
          "name": "cents",
          "type": "uint256"
        }
      ],
      "name": "setCharacterMintValue",
      "outputs": [],
      "stateMutability": "nonpayable",
      "type": "function"
    },
    {
      "inputs": [
        {
          "internalType": "uint256",
          "name": "tenthcents",
          "type": "uint256"
        }
      ],
      "name": "setFightRewardBaselineValue",
      "outputs": [],
      "stateMutability": "nonpayable",
      "type": "function"
    },
    {
      "inputs": [
        {
          "internalType": "uint256",
          "name": "cents",
          "type": "uint256"
        }
      ],
      "name": "setFightRewardGasOffsetValue",
      "outputs": [],
      "stateMutability": "nonpayable",
      "type": "function"
    },
    {
      "inputs": [
        {
          "internalType": "uint256",
          "name": "cents",
          "type": "uint256"
        }
      ],
      "name": "setWeaponMintValue",
      "outputs": [],
      "stateMutability": "nonpayable",
      "type": "function"
    },
    {
      "inputs": [
        {
          "internalType": "uint256",
          "name": "cents",
          "type": "uint256"
        }
      ],
      "name": "setBurnWeaponValue",
      "outputs": [],
      "stateMutability": "nonpayable",
      "type": "function"
    },
    {
      "inputs": [
        {
          "internalType": "uint256",
          "name": "cents",
          "type": "uint256"
        }
      ],
      "name": "setReforgeWeaponValue",
      "outputs": [],
      "stateMutability": "nonpayable",
      "type": "function"
    },
    {
      "inputs": [
        {
          "internalType": "uint256",
          "name": "cents",
          "type": "uint256"
        }
      ],
      "name": "setReforgeWeaponWithDustValue",
      "outputs": [],
      "stateMutability": "nonpayable",
      "type": "function"
    },
    {
      "inputs": [
        {
          "internalType": "uint8",
          "name": "points",
          "type": "uint8"
        }
      ],
      "name": "setStaminaCostFight",
      "outputs": [],
      "stateMutability": "nonpayable",
      "type": "function"
    },
    {
      "inputs": [
        {
          "internalType": "uint8",
          "name": "points",
          "type": "uint8"
        }
      ],
      "name": "setDurabilityCostFight",
      "outputs": [],
      "stateMutability": "nonpayable",
      "type": "function"
    },
    {
      "inputs": [
        {
          "internalType": "uint256",
          "name": "average",
          "type": "uint256"
        }
      ],
      "name": "setFightXpGain",
      "outputs": [],
      "stateMutability": "nonpayable",
      "type": "function"
    },
    {
      "inputs": [
        {
          "internalType": "uint256",
          "name": "max",
          "type": "uint256"
        }
      ],
      "name": "setCharacterLimit",
      "outputs": [],
      "stateMutability": "nonpayable",
      "type": "function"
    },
    {
      "inputs": [
        {
          "internalType": "address",
          "name": "to",
          "type": "address"
        },
        {
          "internalType": "uint256",
          "name": "skillAmount",
          "type": "uint256"
        }
      ],
      "name": "giveInGameOnlyFunds",
      "outputs": [],
      "stateMutability": "nonpayable",
      "type": "function"
    },
    {
      "inputs": [
        {
          "internalType": "address",
          "name": "to",
          "type": "address"
        },
        {
          "internalType": "uint256",
          "name": "skillAmount",
          "type": "uint256"
        }
      ],
      "name": "giveInGameOnlyFundsFromContractBalance",
      "outputs": [],
      "stateMutability": "nonpayable",
      "type": "function"
    },
    {
      "inputs": [
        {
          "internalType": "int128",
          "name": "usdAmount",
          "type": "int128"
        }
      ],
      "name": "usdToSkill",
      "outputs": [
        {
          "internalType": "uint256",
          "name": "",
          "type": "uint256"
        }
      ],
      "stateMutability": "view",
      "type": "function"
    },
    {
      "inputs": [],
      "name": "getCurrentHour",
      "outputs": [
        {
          "internalType": "uint256",
          "name": "",
          "type": "uint256"
        }
      ],
      "stateMutability": "view",
      "type": "function"
    },
    {
      "inputs": [],
      "name": "claimTokenRewards",
      "outputs": [],
      "stateMutability": "nonpayable",
      "type": "function"
    },
    {
      "inputs": [],
      "name": "stakeUnclaimedRewards",
      "outputs": [],
      "stateMutability": "nonpayable",
      "type": "function"
    },
    {
      "inputs": [],
      "name": "claimXpRewards",
      "outputs": [],
      "stateMutability": "nonpayable",
      "type": "function"
    },
    {
      "inputs": [],
      "name": "getTokenRewards",
      "outputs": [
        {
          "internalType": "uint256",
          "name": "",
          "type": "uint256"
        }
      ],
      "stateMutability": "view",
      "type": "function"
    },
    {
      "inputs": [
        {
          "internalType": "uint256",
          "name": "char",
          "type": "uint256"
        }
      ],
      "name": "getXpRewards",
      "outputs": [
        {
          "internalType": "uint256",
          "name": "",
          "type": "uint256"
        }
      ],
      "stateMutability": "view",
      "type": "function"
    },
    {
      "inputs": [
        {
          "internalType": "address",
          "name": "wallet",
          "type": "address"
        }
      ],
      "name": "getTokenRewardsFor",
      "outputs": [
        {
          "internalType": "uint256",
          "name": "",
          "type": "uint256"
        }
      ],
      "stateMutability": "view",
      "type": "function"
    },
    {
      "inputs": [
        {
          "internalType": "address",
          "name": "wallet",
          "type": "address"
        }
      ],
      "name": "getTotalSkillOwnedBy",
      "outputs": [
        {
          "internalType": "uint256",
          "name": "",
          "type": "uint256"
        }
      ],
      "stateMutability": "view",
      "type": "function"
    },
    {
      "inputs": [],
      "name": "getOwnRewardsClaimTax",
      "outputs": [
        {
          "internalType": "int128",
          "name": "",
          "type": "int128"
        }
      ],
      "stateMutability": "view",
      "type": "function"
    }
  ],
  "bytecode": "0x608060405234801561001057600080fd5b5061586780620000216000396000f3fe608060405234801561001057600080fd5b50600436106104ac5760003560e01c806391d148541161026d578063ca15c87311610151578063e36ed971116100ce578063ebca521f11610092578063ebca521f14610e43578063f359832814610e6f578063f7cd44af14610e9b578063faf039f414610eb8578063fb198c4a14610ec0578063fd20747e14610f1b576104ac565b8063e36ed97114610dd3578063e3a6615a14610df0578063e4a0f56614610df8578063e6a9076a14610e1e578063e6c6b7f014610e3b576104ac565b8063d2c76c0511610115578063d2c76c0514610d25578063d547741f14610d4d578063dbf802d914610d79578063dc88432b14610d81578063e073241914610da7576104ac565b8063ca15c87314610c32578063d056fe9614610c4f578063d070bb5414610cf2578063d0eac9c114610cfa578063d1ebdfd314610d1d576104ac565b8063aa663777116101ea578063b97ed979116101ae578063b97ed97914610c02578063bc67e88714610c0a578063bcc0957d14610c12578063be2cf13814610c1a578063bee666d814610c22578063c6e195ed14610c2a576104ac565b8063aa66377714610bb3578063ab37e93414610bbb578063b179edf414610bc3578063b63589a114610bf2578063b7e1cd8614610bfa576104ac565b80639f6b232e116102315780639f6b232e14610b1a5780639f8c964c14610b75578063a217fddf14610b7d578063a93bde2f14610b85578063aa22548b14610bab576104ac565b806391d1485414610a58578063945dbfcf14610a98578063979aacf714610ab5578063988b293514610ad25780639b91748114610af8576104ac565b80633f7e1dd5116103945780635b99d35f116103115780636f907206116102d55780636f907206146109865780637998b3fd146109b25780637d3eb7d3146109d85780638ae541cb146109e05780638c30db7914610a185780639010d07c14610a35576104ac565b80635b99d35f146108d4578063613f1352146108fa57806364d67868146109025780636a3c5e951461091f5780636c6302b314610966576104ac565b8063534f660011610358578063534f6600146108015780635504d3d214610857578063563002aa1461085f578063599389b5146108ac57806359995f55146108cc576104ac565b80633f7e1dd5146107a957806344678be1146107b1578063499eeeeb146107ce5780634bfe0fa7146107d657806351e717ac146107f9576104ac565b80631459457a1161042d578063328da351116103f1578063328da351146106f0578063336dfb46146106f8578063359238aa1461075057806336568abe1461076d5780633c4739d3146107995780633f18cd5b146107a1576104ac565b80631459457a1461061f5780631d765c8814610667578063248a9ca31461066f578063253a49931461068c5780632f2ff15d146106c4576104ac565b80630ec32977116104745780630ec329771461056c5780630f92e39e146105745780631208fa55146105a057806313d721ef146105c45780631426cead146105f3576104ac565b806301c5f7ed146104b157806306deb3e1146104df5780630a8a9215146104fc5780630dff3a101461052e5780630e0320611461054f575b600080fd5b6104dd600480360360408110156104c757600080fd5b506001600160a01b038135169060200135610f38565b005b6104dd600480360360208110156104f557600080fd5b5035610f4e565b61051c6004803603602081101561051257600080fd5b5035600f0b610f8e565b60408051918252519081900360200190f35b610536611026565b60408051600f92830b90920b8252519081900360200190f35b6104dd6004803603602081101561056557600080fd5b5035611034565b6104dd61106f565b6104dd6004803603604081101561058a57600080fd5b50803590602001356001600160a01b03166110c0565b6105a86110d2565b604080516001600160a01b039092168252519081900360200190f35b6104dd600480360360408110156105da57600080fd5b506001600160a01b038135169060200135600f0b6110e1565b6104dd6004803603604081101561060957600080fd5b50803590602001356001600160a01b03166110f3565b6104dd600480360360a081101561063557600080fd5b506001600160a01b03813581169160208101358216916040820135811691606081013582169160809091013516611105565b6104dd611392565b61051c6004803603602081101561068557600080fd5b50356114a7565b6104dd600480360360808110156106a257600080fd5b5080359060ff60208201358116916040810135821691606090910135166114bc565b6104dd600480360360408110156106da57600080fd5b50803590602001356001600160a01b0316611582565b61051c6115ea565b6107006115fd565b60408051602080825283518183015283519192839290830191858101910280838360005b8381101561073c578181015183820152602001610724565b505050509050019250505060405180910390f35b6104dd6004803603602081101561076657600080fd5b503561176d565b6104dd6004803603604081101561078357600080fd5b50803590602001356001600160a01b03166117a8565b610700611809565b61051c611973565b6105a861197a565b6104dd600480360360208110156107c757600080fd5b5035611989565b6105366119de565b6104dd600480360360408110156107ec57600080fd5b50803590602001356119ee565b6105a8611a9d565b6104dd600480360360c081101561081757600080fd5b50803562ffffff908116916020810135600f0b9160408201351690606081013567ffffffffffffffff169060808101359060a0013563ffffffff16611aac565b61051c611b5a565b6108946004803603606081101561087557600080fd5b5062ffffff81358116916020810135600f0b9160409091013516611b7c565b6040805162ffffff9092168252519081900360200190f35b6104dd600480360360208110156108c257600080fd5b503560ff16611bb8565b610536611be0565b61051c600480360360208110156108ea57600080fd5b50356001600160a01b0316611be9565b61051c611c91565b6104dd6004803603602081101561091857600080fd5b5035611c97565b6109486004803603606081101561093557600080fd5b5080359060208101359060400135611cff565b60408051938452602084019290925282820152519081900360600190f35b6104dd6004803603602081101561097c57600080fd5b503560ff16611d46565b6104dd6004803603604081101561099c57600080fd5b506001600160a01b038135169060200135611e16565b61051c600480360360208110156109c857600080fd5b50356001600160a01b0316611ed3565b610536611eee565b6104dd600480360360808110156109f657600080fd5b50803590602081013590604081013563ffffffff16906060013560ff16611efe565b6104dd60048036036020811015610a2e57600080fd5b50356124f4565b6105a860048036036040811015610a4b57600080fd5b5080359060200135612533565b610a8460048036036040811015610a6e57600080fd5b50803590602001356001600160a01b031661255a565b604080519115158252519081900360200190f35b61051c60048036036020811015610aae57600080fd5b5035612578565b6104dd60048036036020811015610acb57600080fd5b503561258a565b61051c60048036036020811015610ae857600080fd5b50356001600160a01b03166125e9565b61053660048036036020811015610b0e57600080fd5b503562ffffff166125fb565b610b4560048036036020811015610b3057600080fd5b50356bffffffffffffffffffffffff166126be565b6040805160ff909416845262ffffff909216602084015267ffffffffffffffff1682820152519081900360600190f35b6105366126de565b61051c6126e7565b6104dd60048036036020811015610b9b57600080fd5b50356001600160a01b03166126ec565b610536612756565b610536612766565b61051c61276f565b6104dd60048036036040811015610bd957600080fd5b506001600160a01b038135169060200135600f0b612775565b61051c612787565b6105a861279b565b6104dd6127aa565b6104dd61287a565b610536612a1b565b610536612a24565b6105a8612a2d565b610536612a3c565b61051c60048036036020811015610c4857600080fd5b5035612a4c565b6104dd60048036036020811015610c6557600080fd5b810190602081018135640100000000811115610c8057600080fd5b820183602082011115610c9257600080fd5b80359060200191846020830284011164010000000083111715610cb457600080fd5b919080806020026020016040519081016040528093929190818152602001838360200280828437600092019190915250929550612a63945050505050565b6105a8612b4e565b61089460048036036020811015610d1057600080fd5b503563ffffffff16612b5d565b6105a8612b65565b610a8460048036036040811015610d3b57600080fd5b5060ff81358116916020013516612b74565b6104dd60048036036040811015610d6357600080fd5b50803590602001356001600160a01b0316612b97565b610536612bf0565b6104dd60048036036020811015610d9757600080fd5b50356001600160a01b0316612bfc565b61051c60048036036040811015610dbd57600080fd5b506001600160a01b038135169060200135612c66565b6104dd60048036036020811015610de957600080fd5b5035612c9e565b610536612d44565b6104dd60048036036020811015610e0e57600080fd5b50356001600160a01b0316612d54565b6104dd60048036036020811015610e3457600080fd5b5035612dbe565b6104dd612f0e565b6104dd60048036036040811015610e5957600080fd5b506001600160a01b03813516906020013561304e565b6104dd60048036036040811015610e8557600080fd5b506001600160a01b038135169060200135613060565b6104dd60048036036020811015610eb157600080fd5b5035613072565b6104dd61310e565b610ee360048036036040811015610ed657600080fd5b5080359060200135613890565b6040518082608080838360005b83811015610f08578181015183820152602001610ef0565b5050505090500191505060405180910390f35b6104dd60048036036020811015610f3157600080fd5b5035613aae565b610f40613aed565b610f4a8282613b69565b5050565b610f56613aed565b610f62816103e8613c4b565b606c60106101000a8154816001600160801b030219169083600f0b6001600160801b0316021790555050565b600061101e606860009054906101000a90046001600160a01b03166001600160a01b0316639d1b464a6040518163ffffffff1660e01b815260040160206040518083038186803b158015610fe157600080fd5b505afa158015610ff5573d6000803e3d6000fd5b505050506040513d602081101561100b57600080fd5b5051600f84900b9063ffffffff613c8216565b90505b919050565b606b546101009004600f0b81565b61103c613aed565b611047816064613c4b565b606d8054600f9290920b6001600160801b03166001600160801b031990921691909117905550565b336000818152607260205260408120805490829055916110b4906110a790849061109890613cea565b600f0b9063ffffffff613c8216565b839063ffffffff613d8516565b9050610f4a3382613de2565b6110c8613aed565b610f4a8282613dff565b6079546001600160a01b031681565b6110e9613aed565b610f4a8282613e68565b6110fb613aed565b610f4a8282613e7a565b600054610100900460ff168061111e575061111e613ecf565b8061112c575060005460ff16155b6111675760405162461bcd60e51b815260040180806020018281038252602e815260200180615769602e913960400191505060405180910390fd5b600054610100900460ff16158015611192576000805460ff1961ff0019909116610100171660011790555b61119a613ee0565b6111a56000336115e0565b604080516923a0a6a2afa0a226a4a760b11b8152905190819003600a0190206111ce90336115e0565b606780546001600160a01b038089166001600160a01b0319928316179092556065805488841690831617905560668054878416908316179055606880548684169083161790556069805492851692909116919091179055606b805460ff1916602817905561123e600a6001613c4b565b606b60016101000a8154816001600160801b030219169083600f0b6001600160801b0316021790555061127360036001613c4b565b606d8054600f9290920b6001600160801b03908116600160801b02921691909117905560206071556112a56001613f91565b60748054600f9290920b6001600160801b03166001600160801b03199092169190911790556112d7604b6103e8613c4b565b607460106101000a8154816001600160801b030219169083600f0b6001600160801b0316021790555061130f615a89620186a0613c4b565b606d8054600f9290920b6001600160801b03166001600160801b03199092169190911790556113426101586103e8613c4b565b606c8054600f9290920b6001600160801b03908116600160801b0292169190911790556079805460ff60a01b1916600160a01b179055801561138a576000805461ff00191690555b505050505050565b3360008181526072602052604081208054919055906113b49060028304613faf565b6067546079546040805163095ea7b360e01b81526001600160a01b039283166004820152602481018590529051919092169163095ea7b39160448083019260209291908290030181600087803b15801561140d57600080fd5b505af1158015611421573d6000803e3d6000fd5b505050506040513d602081101561143757600080fd5b505060795460408051633347009160e11b81523360048201526024810184905290516001600160a01b039092169163668e01229160448082019260009290919082900301818387803b15801561148c57600080fd5b505af11580156114a0573d6000803e3d6000fd5b5050505050565b60009081526033602052604090206002015490565b6114c4614044565b836114ce81614184565b607a54600160801b9004600f0b6114e48161424d565b607a546114fc903390600160801b9004600f0b613e68565b6066546040805163c394f9db60e01b81526004810189905260ff808916602483015280881660448301528616606482015290516001600160a01b039092169163c394f9db9160848082019260009290919082900301818387803b15801561156257600080fd5b505af1158015611576573d6000803e3d6000fd5b50505050505050505050565b6000828152603360205260409020600201546115a5906115a06143e5565b61255a565b6115e05760405162461bcd60e51b815260040180806020018281038252602f8152602001806156e4602f913960400191505060405180910390fd5b610f4a82826143e9565b3360009081526072602052604090205490565b606654604080516370a0823160e01b8152336004820152905160609283926001600160a01b03909116916370a0823191602480820192602092909190829003018186803b15801561164d57600080fd5b505afa158015611661573d6000803e3d6000fd5b505050506040513d602081101561167757600080fd5b505167ffffffffffffffff8111801561168f57600080fd5b506040519080825280602002602001820160405280156116b9578160200160208202803683370190505b50905060005b81518110156117675760665460408051632f745c5960e01b81523360048201526024810184905290516001600160a01b0390921691632f745c5991604480820192602092909190829003018186803b15801561171a57600080fd5b505afa15801561172e573d6000803e3d6000fd5b505050506040513d602081101561174457600080fd5b5051825183908390811061175457fe5b60209081029190910101526001016116bf565b50905090565b611775613aed565b611780816064613c4b565b607a8054600f9290920b6001600160801b03166001600160801b031990921691909117905550565b6117b06143e5565b6001600160a01b0316816001600160a01b0316146117ff5760405162461bcd60e51b815260040180806020018281038252602f8152602001806157e2602f913960400191505060405180910390fd5b610f4a8282614458565b606554604080516370a0823160e01b8152336004820152905160609283926001600160a01b03909116916370a0823191602480820192602092909190829003018186803b15801561185957600080fd5b505afa15801561186d573d6000803e3d6000fd5b505050506040513d602081101561188357600080fd5b505167ffffffffffffffff8111801561189b57600080fd5b506040519080825280602002602001820160405280156118c5578160200160208202803683370190505b50905060005b81518110156117675760655460408051632f745c5960e01b81523360048201526024810184905290516001600160a01b0390921691632f745c5991604480820192602092909190829003018186803b15801561192657600080fd5b505afa15801561193a573d6000803e3d6000fd5b505050506040513d602081101561195057600080fd5b5051825183908390811061196057fe5b60209081029190910101526001016118cb565b6213c68081565b6068546001600160a01b031681565b611991613aed565b606554604080516344678be160e01b81526004810184905290516001600160a01b03909216916344678be19160248082019260009290919082900301818387803b15801561148c57600080fd5b60006119e933613cea565b905090565b6119f6614044565b81611a0081614184565b81611a0a81614184565b606e54600f0b611a198161424d565b606e54611a2a903390600f0b613e68565b60665460408051639abcafef60e01b8152600481018890526024810187905290516001600160a01b0390921691639abcafef9160448082019260009290919082900301818387803b158015611a7e57600080fd5b505af1158015611a92573d6000803e3d6000fd5b505050505050505050565b6077546001600160a01b031681565b611ab46156a3565b611ac9611ac2888888611b7c565b85856144c7565b90506000805b6004811015611b0c578363ffffffff16838260048110611aeb57fe5b602002015163ffffffff161415611b0457506001905060045b600101611acf565b5080611b50576040805162461bcd60e51b815260206004820152600e60248201526d15185c99d95d081a5b9d985b1a5960921b604482015290519081900360640190fd5b5050505050505050565b604080516923a0a6a2afa0a226a4a760b11b8152905190819003600a01902081565b6000611bae8262ffffff16611ba28662ffffff1686600f0b613c8290919063ffffffff16565b9063ffffffff61456116565b90505b9392505050565b611bc0613aed565b6079805460ff909216600160a01b0260ff60a01b19909216919091179055565b607a54600f0b81565b606754604080516370a0823160e01b81526001600160a01b038481166004830152915160009392909216916370a0823191602480820192602092909190829003018186803b158015611c3a57600080fd5b505afa158015611c4e573d6000803e3d6000fd5b505050506040513d6020811015611c6457600080fd5b5051611c6f83611ed3565b6001600160a01b03841660009081526075602052604090205401019050919050565b60715481565b611ca260003361255a565b611cdf576040805162461bcd60e51b81526020600482015260096024820152682737ba1030b236b4b760b91b604482015290519081900360640190fd5b606754611cfc906001600160a01b0316338363ffffffff6145bb16565b50565b6000806000858411611d1957508291506000905080611d3d565b8584039350848411611d3357508491508290506000611d3d565b5050508190038282825b93509350939050565b611d4e613aed565b60148160ff161015611da7576040805162461bcd60e51b815260206004820152601860248201527f5374616d696e61436f7374466967687420746f6f206c6f770000000000000000604482015290519081900360640190fd5b60328160ff161115611e00576040805162461bcd60e51b815260206004820152601960248201527f5374616d696e61436f7374466967687420746f6f206869676800000000000000604482015290519081900360640190fd5b606b805460ff191660ff92909216919091179055565b611e1e613aed565b607654611e31908263ffffffff61456116565b6076556001600160a01b038216600090815260756020526040902054611e5d908263ffffffff61456116565b6001600160a01b03808416600090815260756020526040902091909155606754611e90911633308463ffffffff61460d16565b6040805182815290516001600160a01b038416917f3443ca0a6a2d7fbb0e0c0612adb07cdcbde092e281a3dddc6ed66c14c00429cd919081900360200190a25050565b6001600160a01b031660009081526072602052604090205490565b607454600160801b9004600f0b81565b8383323314611f54576040805162461bcd60e51b815260206004820152601c60248201527f4f6e6c7920454f4120616c6c6f776564202874656d706f726172792900000000604482015290519081900360640190fd5b606560009054906101000a90046001600160a01b03166001600160a01b031663aa3c6cfc6040518163ffffffff1660e01b815260040160206040518083038186803b158015611fa257600080fd5b505afa158015611fb6573d6000803e3d6000fd5b505050506040513d6020811015611fcc57600080fd5b5051606554604080516370a0823160e01b815233600482015290516001600160a01b03909216916370a0823191602480820192602092909190829003018186803b15801561201957600080fd5b505afa15801561202d573d6000803e3d6000fd5b505050506040513d602081101561204357600080fd5b50511115612094576040805162461bcd60e51b8152602060048201526019602482015278151bdbc81b585b9e4818da185c9858dd195c9cc81bdddb9959603a1b604482015290519081900360640190fd5b3360009081526070602052604090205443116120f7576040805162461bcd60e51b815260206004820152601c60248201527f4f6e6c792063616c6c61626c65206f6e63652070657220626c6f636b00000000604482015290519081900360640190fd5b3360008181526070602090815260409182902043905560655482516331a9108f60e11b81526004810187905292516001600160a01b0390911692636352211e926024808301939192829003018186803b15801561215357600080fd5b505afa158015612167573d6000803e3d6000fd5b505050506040513d602081101561217d57600080fd5b50516001600160a01b0316146121da576040805162461bcd60e51b815260206004820152601760248201527f4e6f742074686520636861726163746572206f776e6572000000000000000000604482015290519081900360640190fd5b606654604080516331a9108f60e11b815260048101849052905133926001600160a01b031691636352211e916024808301926020929190829003018186803b15801561222557600080fd5b505afa158015612239573d6000803e3d6000fd5b505050506040513d602081101561224f57600080fd5b50516001600160a01b0316146122a3576040805162461bcd60e51b81526020600482015260146024820152732737ba103a3432903bb2b0b837b71037bbb732b960611b604482015290519081900360640190fd5b606554606b5460408051632ee6accf60e01b8152600481018a905260ff92831687029092166024830152516000928392839261233a926001600160a01b031691632ee6accf91604480830192602092919082900301818887803b15801561230957600080fd5b505af115801561231d573d6000803e3d6000fd5b505050506040513d602081101561233357600080fd5b50516126be565b60665460408051631ab044f960e31b8152600481018e905260ff8616602482015290519497509295509093506000928392839283926001600160a01b039091169163d58227c8916044808301926080929190829003018186803b1580156123a057600080fd5b505afa1580156123b4573d6000803e3d6000fd5b505050506040513d60808110156123ca57600080fd5b81019080805190602001909291908051906020019092919080519060200190929190805190602001909291905050509350935093509350606660009054906101000a90046001600160a01b03166001600160a01b031663e07608868d8c607960149054906101000a900460ff16026040518363ffffffff1660e01b8152600401808381526020018260ff1660ff16815260200192505050600060405180830381600087803b15801561247b57600080fd5b505af115801561248f573d6000803e3d6000fd5b505050506124a0868584888f614667565b6124e58d8d6124b0898787611b7c565b60088f63ff0000001663ffffffff16901c60088660ff1662ffffff16901b8c60ff161762ffffff16178f62ffffff168f61467c565b50505050505050505050505050565b6124fc613aed565b612507816064613c4b565b606b60016101000a8154816001600160801b030219169083600f0b6001600160801b0316021790555050565b6000828152603360205260408120612551908363ffffffff6148a016565b90505b92915050565b6000828152603360205260408120612551908363ffffffff6148ac16565b60009081526073602052604090205490565b612592613aed565b61259d816064613c4b565b607a80546001600160801b03908116600160801b600f94850b831681029190911792839055606e80546001600160801b031916918404850b93850b9390930190930b1691909117905550565b60756020526000908152604090205481565b607454600090600f0b60ff80841690600885901c1681141561263b5760745461263890600f84810b91600160801b9004900b63ffffffff6148c116565b91505b61264e8160108662ffffff16901c612b74565b1561267b5760745461267490600f84810b91600160801b9004900b63ffffffff6148c116565b91506126b7565b61268e60108562ffffff16901c82612b74565b156126b7576074546126b490600f84810b91600160801b9004900b63ffffffff6148f516565b91505b5092915050565b60ff811691600882901c62ffffff169160201c67ffffffffffffffff1690565b606e54600f0b81565b600081565b6126f760003361255a565b612734576040805162461bcd60e51b81526020600482015260096024820152682737ba1030b236b4b760b91b604482015290519081900360640190fd5b607780546001600160a01b0319166001600160a01b0392909216919091179055565b607a54600160801b9004600f0b81565b607454600f0b81565b60765481565b61277d613aed565b610f4a8282614928565b60006119e942610e1063ffffffff61493a16565b6066546001600160a01b031681565b6127b560003361255a565b6127f2576040805162461bcd60e51b81526020600482015260096024820152682737ba1030b236b4b760b91b604482015290519081900360640190fd5b6127fe6002600a613c4b565b607a8054600f9290920b6001600160801b03166001600160801b031990921691909117905561282f6003600a613c4b565b607a80546001600160801b03908116600160801b600f94850b831681029190911792839055606e80546001600160801b031916918404850b93850b9390930190930b16919091179055565b60005b606554604080516370a0823160e01b815233600482015290516001600160a01b03909216916370a0823191602480820192602092909190829003018186803b1580156128c857600080fd5b505afa1580156128dc573d6000803e3d6000fd5b505050506040513d60208110156128f257600080fd5b5051811015611cfc5760655460408051632f745c5960e01b81523360048201526024810184905290516000926001600160a01b031691632f745c59916044808301926020929190829003018186803b15801561294d57600080fd5b505afa158015612961573d6000803e3d6000fd5b505050506040513d602081101561297757600080fd5b50516000818152607360205260408120805491905590915061ffff81111561299e575061ffff5b60655460408051630fc0057560e01b81526004810185905261ffff8416602482015290516001600160a01b0390921691630fc005759160448082019260009290919082900301818387803b1580156129f557600080fd5b505af1158015612a09573d6000803e3d6000fd5b50506001909401935061287d92505050565b606c54600f0b81565b606d54600f0b81565b6069546001600160a01b031681565b606c54600160801b9004600f0b81565b600081815260336020526040812061101e906149a1565b612a6b614044565b80612a75816149ac565b612a98612a828351613f91565b607a54600f90810b900b9063ffffffff614a9d16565b612aa18161424d565b612ab733612ab2612a828651613f91565b613e68565b60005b8351811015612b485760665484516001600160a01b03909116906342966c6890869084908110612ae657fe5b60200260200101516040518263ffffffff1660e01b815260040180828152602001915050600060405180830381600087803b158015612b2457600080fd5b505af1158015612b38573d6000803e3d6000fd5b505060019092019150612aba9050565b50505050565b6065546001600160a01b031681565b62ffffff1690565b6067546001600160a01b031681565b60008160ff1660048460010160ff1681612b8a57fe5b0660ff1614905092915050565b600082815260336020526040902060020154612bb5906115a06143e5565b6117ff5760405162461bcd60e51b81526004018080602001828103825260308152602001806157396030913960400191505060405180910390fd5b67266666666666666681565b612c0760003361255a565b612c44576040805162461bcd60e51b81526020600482015260096024820152682737ba1030b236b4b760b91b604482015290519081900360640190fd5b607980546001600160a01b0319166001600160a01b0392909216919091179055565b6001600160a01b0382166000908152607560209081526040808320546072909252822054612c95919084611cff565b95945050505050565b612ca6613aed565b6010811015612cf2576040805162461bcd60e51b8152602060048201526013602482015272466967687458704761696e20746f6f206c6f7760681b604482015290519081900360640190fd5b6040811115612d3f576040805162461bcd60e51b815260206004820152601460248201527308cd2ced0e8b0e08ec2d2dc40e8dede40d0d2ced60631b604482015290519081900360640190fd5b607155565b606d54600160801b9004600f0b81565b612d5f60003361255a565b612d9c576040805162461bcd60e51b81526020600482015260096024820152682737ba1030b236b4b760b91b604482015290519081900360640190fd5b606980546001600160a01b0319166001600160a01b0392909216919091179055565b612dc6613aed565b6019811015612e1c576040805162461bcd60e51b815260206004820152601a60248201527f5265666f726765576561706f6e56616c756520746f6f206c6f77000000000000604482015290519081900360640190fd5b6064811115612e72576040805162461bcd60e51b815260206004820152601b60248201527f5265666f726765576561706f6e56616c756520746f6f20686967680000000000604482015290519081900360640190fd5b6000612e7f826064613c4b565b607a54909150600f90810b810b9082900b13612ecc5760405162461bcd60e51b81526004018080602001828103825260218152602001806158116021913960400191505060405180910390fd5b607a80546001600160801b03808216600160801b600f93840b8603840b83160217909255606e80546001600160801b0319169390910b90911691909117905550565b612f16614ad3565b612f1e614044565b33612f2881614b27565b606d54600160801b9004600f0b612f3e8161424d565b606d54612f56903390600160801b9004600f0b613e68565b60695460408051630e20f61560e21b815233600482015290516000926001600160a01b031691633883d854916024808301926020929190829003018186803b158015612fa157600080fd5b505afa158015612fb5573d6000803e3d6000fd5b505050506040513d6020811015612fcb57600080fd5b5051606654604080516340c10f1960e01b81523360048201526024810184905290519293506001600160a01b03909116916340c10f19916044808201926020929091908290030181600087803b15801561302457600080fd5b505af1158015613038573d6000803e3d6000fd5b505050506040513d60208110156114a057600080fd5b613056613aed565b610f4a8282613de2565b613068613aed565b610f4a8282613faf565b61307a614044565b8061308481614184565b607a54600f0b6130938161424d565b607a546130a4903390600f0b613e68565b60665460408051630852cd8d60e31b81526004810186905290516001600160a01b03909216916342966c689160248082019260009290919082900301818387803b1580156130f157600080fd5b505af1158015613105573d6000803e3d6000fd5b50505050505050565b613116614ad3565b61311e614044565b3361312881614b27565b606b546101009004600f0b61313c8161424d565b606560009054906101000a90046001600160a01b03166001600160a01b031663aa3c6cfc6040518163ffffffff1660e01b815260040160206040518083038186803b15801561318a57600080fd5b505afa15801561319e573d6000803e3d6000fd5b505050506040513d60208110156131b457600080fd5b5051606554604080516370a0823160e01b815233600482015290516001600160a01b03909216916370a0823191602480820192602092909190829003018186803b15801561320157600080fd5b505afa158015613215573d6000803e3d6000fd5b505050506040513d602081101561322b57600080fd5b505160655460408051632a8f1b3f60e21b8152905193909210926001600160a01b039091169163aa3c6cfc916004808301926020929190829003018186803b15801561327657600080fd5b505afa15801561328a573d6000803e3d6000fd5b505050506040513d60208110156132a057600080fd5b5051604080517102cb7ba9031b0b71037b7363c903430bb32960751b602082015260328101929092526b20636861726163746572732160a01b60528301528051603e818403018152605e9092019052906133785760405162461bcd60e51b81526004018080602001828103825283818151815260200191508051906020019080838360005b8381101561333d578181015183820152602001613325565b50505050905090810190601f16801561336a5780820380516001836020036101000a031916815260200191505b509250505060405180910390fd5b50606b5461338f9033906101009004600f0b613e68565b6077546040805163bf2a28cf60e01b815290516001600160a01b039092169163434d82a3913391849163bf2a28cf916004808301926020929190829003018186803b1580156133dd57600080fd5b505afa1580156133f1573d6000803e3d6000fd5b505050506040513d602081101561340757600080fd5b5051604080516001600160e01b031960e086901b1681526001600160a01b0390931660048401526024830191909152516044808301926020929190829003018186803b15801561345657600080fd5b505afa15801561346a573d6000803e3d6000fd5b505050506040513d602081101561348057600080fd5b50511580156135035750606554604080516370a0823160e01b815233600482015290516001600160a01b03909216916370a0823191602480820192602092909190829003018186803b1580156134d557600080fd5b505afa1580156134e9573d6000803e3d6000fd5b505050506040513d60208110156134ff57600080fd5b5051155b15613593576135933361358e607760009054906101000a90046001600160a01b03166001600160a01b0316635249fb6d6040518163ffffffff1660e01b815260040160206040518083038186803b15801561355d57600080fd5b505afa158015613571573d6000803e3d6000fd5b505050506040513d602081101561358757600080fd5b5051610f8e565b613faf565b60695460408051630e20f61560e21b815233600482015290516000926001600160a01b031691633883d854916024808301926020929190829003018186803b1580156135de57600080fd5b505afa1580156135f2573d6000803e3d6000fd5b505050506040513d602081101561360857600080fd5b5051606554604080516340c10f1960e01b81523360048201526024810184905290519293506001600160a01b03909116916340c10f199160448082019260009290919082900301818387803b15801561366057600080fd5b505af1158015613674573d6000803e3d6000fd5b5050606654604080516370a0823160e01b815233600482015290516001600160a01b0390921693506370a082319250602480820192602092909190829003018186803b1580156136c357600080fd5b505afa1580156136d7573d6000803e3d6000fd5b505050506040513d60208110156136ed57600080fd5b505161388b576066546001600160a01b031663e8d5fe4433826380aa68cd6000613718876064614baf565b6040518363ffffffff1660e01b8152600401808381526020018281526020019250505060206040518083038186803b15801561375357600080fd5b505afa158015613767573d6000803e3d6000fd5b505050506040513d602081101561377d57600080fd5b505160665460408051630f9a2d8160e21b815260048181015260c86024820152604481018890526065606482015290516001600160a01b0390921691633e68b60491608480820192602092909190829003018186803b1580156137df57600080fd5b505afa1580156137f3573d6000803e3d6000fd5b505050506040513d602081101561380957600080fd5b5051600080613819886066614baf565b604080516001600160e01b031960e08a901b1681526001600160a01b03909716600488015261ffff958616602488015293851660448701529184166064860152909216608484015260a48301919091525160c48083019260209291908290030181600087803b15801561302457600080fd5b505050565b6138986156a3565b6066546065546040805163acb586df60e01b815260048101879052905160009384936001600160a01b039182169363d58227c89389939092169163acb586df91602480820192602092909190829003018186803b1580156138f857600080fd5b505afa15801561390c573d6000803e3d6000fd5b505050506040513d602081101561392257600080fd5b5051604080516001600160e01b031960e086901b168152600481019390935260ff9091166024830152516044808301926080929190829003018186803b15801561396b57600080fd5b505afa15801561397f573d6000803e3d6000fd5b505050506040513d608081101561399557600080fd5b508051604091820151606554835163017fe80960e01b8152600481018a90529351929550909350612c9592613a29926001600160a01b039092169163017fe80991602480820192602092909190829003018186803b1580156139f657600080fd5b505afa158015613a0a573d6000803e3d6000fd5b505050506040513d6020811015613a2057600080fd5b50518484611b7c565b60655460408051630153b1ff60e61b8152600481018a905290516001600160a01b03909216916354ec7fc091602480820192602092909190829003018186803b158015613a7557600080fd5b505afa158015613a89573d6000803e3d6000fd5b505050506040513d6020811015613a9f57600080fd5b5051613aa9612787565b6144c7565b613ab6613aed565b613ac1816064613c4b565b606d60106101000a8154816001600160801b030219169083600f0b6001600160801b0316021790555050565b604080516923a0a6a2afa0a226a4a760b11b8152905190819003600a019020613b16903361255a565b613b67576040805162461bcd60e51b815260206004820152601760248201527f4d697373696e672047414d455f41444d494e20726f6c65000000000000000000604482015290519081900360640190fd5b565b6001600160a01b038216600090815260756020908152604080832054607290925282205482918291613b9c919086611cff565b925092509250613bb783607654613d8590919063ffffffff16565b6076556001600160a01b038516600090815260756020526040902054613be3908463ffffffff613d8516565b6001600160a01b038616600090815260756020908152604080832093909355607290522054613c18908363ffffffff613d8516565b6001600160a01b038087166000908152607260205260409020919091556067546114a0911686308463ffffffff61460d16565b600081613c5757600080fd5b6000613c638484614bdb565b905060016001607f1b036001600160801b038216111561255157600080fd5b600081613c9157506000612554565b600083600f0b1215613ca257600080fd5b600f83900b6001600160801b038316810260401c90608084901c026001600160c01b03811115613cd157600080fd5b60401b8119811115613ce257600080fd5b019392505050565b6001600160a01b038116600090815260786020526040812054421015613d0c57fe5b6001600160a01b038216600090815260786020526040812054613d38906213c68063ffffffff61456116565b90506000613d4c824263ffffffff614d2516565b9150506213c680811115613d5c57fe5b6000613d6b826213c680613c4b565b9050612c956726666666666666668263ffffffff614a9d16565b600082821115613ddc576040805162461bcd60e51b815260206004820152601e60248201527f536166654d6174683a207375627472616374696f6e206f766572666c6f770000604482015290519081900360640190fd5b50900390565b606754610f4a906001600160a01b0316838363ffffffff6145bb16565b6065546040805163095ea7b360e01b81526001600160a01b038481166004830152602482018690529151919092169163095ea7b391604480830192600092919082900301818387803b158015613e5457600080fd5b505af115801561138a573d6000803e3d6000fd5b610f4a82613e7583610f8e565b613b69565b6066546040805163095ea7b360e01b81526001600160a01b038481166004830152602482018690529151919092169163095ea7b391604480830192600092919082900301818387803b158015613e5457600080fd5b6000613eda30614d4b565b15905090565b600054610100900460ff1680613ef95750613ef9613ecf565b80613f07575060005460ff16155b613f425760405162461bcd60e51b815260040180806020018281038252602e815260200180615769602e913960400191505060405180910390fd5b600054610100900460ff16158015613f6d576000805460ff1961ff0019909116610100171660011790555b613f75614d51565b613f7d614d51565b8015611cfc576000805461ff001916905550565b6000677fffffffffffffff821115613fa857600080fd5b5060401b90565b607654613fc2908263ffffffff61456116565b6076556001600160a01b038216600090815260756020526040902054613fee908263ffffffff61456116565b6001600160a01b038316600081815260756020908152604091829020939093558051848152905191927f3443ca0a6a2d7fbb0e0c0612adb07cdcbde092e281a3dddc6ed66c14c00429cd92918290030190a25050565b606560009054906101000a90046001600160a01b03166001600160a01b031663aa3c6cfc6040518163ffffffff1660e01b815260040160206040518083038186803b15801561409257600080fd5b505afa1580156140a6573d6000803e3d6000fd5b505050506040513d60208110156140bc57600080fd5b5051606554604080516370a0823160e01b815233600482015290516001600160a01b03909216916370a0823191602480820192602092909190829003018186803b15801561410957600080fd5b505afa15801561411d573d6000803e3d6000fd5b505050506040513d602081101561413357600080fd5b50511115613b67576040805162461bcd60e51b8152602060048201526019602482015278151bdbc81b585b9e4818da185c9858dd195c9cc81bdddb9959603a1b604482015290519081900360640190fd5b606654604080516331a9108f60e11b815260048101849052905133926001600160a01b031691636352211e916024808301926020929190829003018186803b1580156141cf57600080fd5b505afa1580156141e3573d6000803e3d6000fd5b505050506040513d60208110156141f957600080fd5b50516001600160a01b031614611cfc576040805162461bcd60e51b81526020600482015260146024820152732737ba103a3432903bb2b0b837b71037bbb732b960611b604482015290519081900360640190fd5b600061425882610f8e565b3360009081526075602090815260408083205460729092528220549293509091614283919084611cff565b606754604080516370a0823160e01b815233600482015290519295508594506001600160a01b0390911692506370a08231916024808301926020929190829003018186803b1580156142d457600080fd5b505afa1580156142e8573d6000803e3d6000fd5b505050506040513d60208110156142fe57600080fd5b5051101561430b83614df1565b60405160200180807f4e6f7420656e6f75676820534b494c4c21204e6565642000000000000000000081525060170182805190602001908083835b602083106143655780518252601f199092019160209182019101614346565b6001836020036101000a03801982511681845116808217855250505050505090500191505060405160208183030381529060405290612b485760405162461bcd60e51b815260206004820181815283516024840152835190928392604490910191908501908083836000831561333d578181015183820152602001613325565b3390565b6000828152603360205260409020614407908263ffffffff614ec916565b15610f4a576144146143e5565b6001600160a01b0316816001600160a01b0316837f2f8788117e7eff1d82e926ec794901d17c78024a50270940304540a733656f0d60405160405180910390a45050565b6000828152603360205260409020614476908263ffffffff614ede16565b15610f4a576144836143e5565b6001600160a01b0316816001600160a01b0316837ff6391f5c32d9c69d2a47ea670b442974b53935d1edc7fd64eb21e047a839171b60405160405180910390a45050565b6144cf6156a3565b60006144f36144e88567ffffffffffffffff1685614baf565b8662ffffff16614baf565b90506144fd6156a3565b60005b60048110156145575760006145158483614baf565b90506303000000601882901b1661453162ffffff8a1683614ef3565b1783836004811061453e57fe5b63ffffffff909216602092909202015250600101614500565b5095945050505050565b600082820183811015612551576040805162461bcd60e51b815260206004820152601b60248201527f536166654d6174683a206164646974696f6e206f766572666c6f770000000000604482015290519081900360640190fd5b604080516001600160a01b038416602482015260448082018490528251808303909101815260649091019091526020810180516001600160e01b031663a9059cbb60e01b17905261388b908490614f40565b604080516001600160a01b0380861660248301528416604482015260648082018490528251808303909101815260849091019091526020810180516001600160e01b03166323b872dd60e01b179052612b48908590614f40565b6114a085858585614676612787565b86611aac565b60695460408051630e20f61560e21b815233600482015290516000926001600160a01b031691633883d854916024808301926020929190829003018186803b1580156146c757600080fd5b505afa1580156146db573d6000803e3d6000fd5b505050506040513d60208110156146f157600080fd5b505190506000614702868684614ff1565b9050600061471a85614715856001614baf565b615012565b905060008460ff1661472c8988615023565b02905060006147478660ff166147418961503f565b02610f8e565b90508262ffffff168462ffffff161015614762575060009050805b3360009081526072602052604090205415801561477f5750600081115b1561478d5761478d33615093565b8060726000336001600160a01b03166001600160a01b03168152602001908152602001600020600082825401925050819055508161ffff16607360008d8152602001908152602001600020600082825401925050819055508a336001600160a01b03167f7a58aac6530017822bf3210fccef7efa31f56277f19966bc887bfb11f40ca96d8c60088c62ffffff1663ffffffff16901b63ff000000168b62ffffff161788888888604051808781526020018663ffffffff1663ffffffff1681526020018562ffffff1662ffffff1681526020018462ffffff1662ffffff1681526020018361ffff1661ffff168152602001828152602001965050505050505060405180910390a35050505050505050505050565b600061255183836150af565b6000612551836001600160a01b038416615113565b6000600f83810b9083900b0160016001607f1b031981128015906148ec575060016001607f1b038113155b61255157600080fd5b6000600f82810b9084900b0360016001607f1b031981128015906148ec575060016001607f1b0381131561255157600080fd5b610f4a8261493583610f8e565b613de2565b6000808211614990576040805162461bcd60e51b815260206004820152601a60248201527f536166654d6174683a206469766973696f6e206279207a65726f000000000000604482015290519081900360640190fd5b81838161499957fe5b049392505050565b600061101e8261512b565b60005b8151811015610f4a57606654825133916001600160a01b031690636352211e908590859081106149db57fe5b60200260200101516040518263ffffffff1660e01b81526004018082815260200191505060206040518083038186803b158015614a1757600080fd5b505afa158015614a2b573d6000803e3d6000fd5b505050506040513d6020811015614a4157600080fd5b50516001600160a01b031614614a95576040805162461bcd60e51b81526020600482015260146024820152732737ba103a3432903bb2b0b837b71037bbb732b960611b604482015290519081900360640190fd5b6001016149af565b6000600f83810b9083900b0260401d60016001607f1b031981128015906148ec575060016001607f1b0381131561255157600080fd5b323314613b67576040805162461bcd60e51b815260206004820152601c60248201527f4f6e6c7920454f4120616c6c6f776564202874656d706f726172792900000000604482015290519081900360640190fd5b6001600160a01b0381166000908152607060205260409020544311614b93576040805162461bcd60e51b815260206004820152601c60248201527f4f6e6c792063616c6c61626c65206f6e63652070657220626c6f636b00000000604482015290519081900360640190fd5b6001600160a01b03166000908152607060205260409020439055565b604080516020808201949094528082019290925280518083038201815260609092019052805191012090565b600081614be757600080fd5b60006001600160c01b038411614c0c5782604085901b81614c0457fe5b049050614d11565b60c084811c6401000000008110614c25576020918201911c5b620100008110614c37576010918201911c5b6101008110614c48576008918201911c5b60108110614c58576004918201911c5b60048110614c68576002918201911c5b60028110614c77576001820191505b60bf820360018603901c6001018260ff0387901b81614c9257fe5b0492506001600160801b03831115614ca957600080fd5b608085901c83026001600160801b038616840260c088901c604089901b82811015614cd5576001820391505b608084901b92900382811015614cec576001820391505b829003608084901c8214614cfc57fe5b888181614d0557fe5b04870196505050505050505b6001600160801b0381111561255157600080fd5b60008083831115614d3b57506000905080614d44565b50600190508183035b9250929050565b3b151590565b600054610100900460ff1680614d6a5750614d6a613ecf565b80614d78575060005460ff16155b614db35760405162461bcd60e51b815260040180806020018281038252602e815260200180615769602e913960400191505060405180910390fd5b600054610100900460ff16158015613f7d576000805460ff1961ff0019909116610100171660011790558015611cfc576000805461ff001916905550565b606081614e1657506040805180820190915260018152600360fc1b6020820152611021565b8160005b8115614e2e57600101600a82049150614e1a565b60608167ffffffffffffffff81118015614e4757600080fd5b506040519080825280601f01601f191660200182016040528015614e72576020820181803683370190505b50905060001982015b8515614ec057600a860660300160f81b82828060019003935081518110614e9e57fe5b60200101906001600160f81b031916908160001a905350600a86049550614e7b565b50949350505050565b6000612551836001600160a01b03841661512f565b6000612551836001600160a01b038416615179565b600080614f0784600a63ffffffff61493a16565b9050614f38614f286000614f2284600263ffffffff61523f16565b86615298565b611ba2868463ffffffff613d8516565b949350505050565b6060614f95826040518060400160405280602081526020017f5361666545524332303a206c6f772d6c6576656c2063616c6c206661696c6564815250856001600160a01b03166153029092919063ffffffff16565b80519091501561388b57808060200190516020811015614fb457600080fd5b505161388b5760405162461bcd60e51b815260040180806020018281038252602a8152602001806157b8602a913960400191505060405180910390fd5b6000806150038562ffffff1684614ef3565b9050612c9581611098866125fb565b60006125518362ffffff1683614ef3565b60006125516071546110988462ffffff168662ffffff16613c4b565b600061101e61507d61506061505b8562ffffff166103e8613c4b565b615311565b606c54600160801b9004600f90810b900b9063ffffffff614a9d16565b606d54600f90810b900b9063ffffffff6148c116565b6001600160a01b03166000908152607860205260409020429055565b815460009082106150f15760405162461bcd60e51b81526004018080602001828103825260228152602001806156c26022913960400191505060405180910390fd5b82600001828154811061510057fe5b9060005260206000200154905092915050565b60009081526001919091016020526040902054151590565b5490565b600061513b8383615113565b61517157508154600181810184556000848152602080822090930184905584548482528286019093526040902091909155612554565b506000612554565b6000818152600183016020526040812054801561523557835460001980830191908101906000908790839081106151ac57fe5b90600052602060002001549050808760000184815481106151c957fe5b6000918252602080832090910192909255828152600189810190925260409020908401905586548790806151f957fe5b60019003818190600052602060002001600090559055866001016000878152602001908152602001600020600090556001945050505050612554565b6000915050612554565b60008261524e57506000612554565b8282028284828161525b57fe5b04146125515760405162461bcd60e51b81526004018080602001828103825260218152602001806157976021913960400191505060405180910390fd5b6000806152b06001611ba2868863ffffffff613d8516565b60408051602080820187905282518083038201815291830190925280519101209091506000906152e6908363ffffffff61533316565b90506152f8818763ffffffff61456116565b9695505050505050565b6060611bae848460008561539a565b60008082600f0b121561532357600080fd5b61101e604083600f0b901b6154f6565b6000808211615389576040805162461bcd60e51b815260206004820152601860248201527f536166654d6174683a206d6f64756c6f206279207a65726f0000000000000000604482015290519081900360640190fd5b81838161539257fe5b069392505050565b6060824710156153db5760405162461bcd60e51b81526004018080602001828103825260268152602001806157136026913960400191505060405180910390fd5b6153e485614d4b565b615435576040805162461bcd60e51b815260206004820152601d60248201527f416464726573733a2063616c6c20746f206e6f6e2d636f6e7472616374000000604482015290519081900360640190fd5b60006060866001600160a01b031685876040518082805190602001908083835b602083106154745780518252601f199092019160209182019101615455565b6001836020036101000a03801982511681845116808217855250505050505090500191505060006040518083038185875af1925050503d80600081146154d6576040519150601f19603f3d011682016040523d82523d6000602084013e6154db565b606091505b50915091506154eb82828661563d565b979650505050505050565b60008161550557506000611021565b816001600160801b821061551e5760809190911c9060401b5b6801000000000000000082106155395760409190911c9060201b5b64010000000082106155505760209190911c9060101b5b6201000082106155655760109190911c9060081b5b61010082106155795760089190911c9060041b5b6010821061558c5760049190911c9060021b5b600882106155985760011b5b60018185816155a357fe5b048201901c905060018185816155b557fe5b048201901c905060018185816155c757fe5b048201901c905060018185816155d957fe5b048201901c905060018185816155eb57fe5b048201901c905060018185816155fd57fe5b048201901c9050600181858161560f57fe5b048201901c9050600081858161562157fe5b0490508082106156315780615633565b815b9350505050611021565b6060831561564c575081611bb1565b82511561565c5782518084602001fd5b60405162461bcd60e51b815260206004820181815284516024840152845185939192839260440191908501908083836000831561333d578181015183820152602001613325565b6040518060800160405280600490602082028036833750919291505056fe456e756d657261626c655365743a20696e646578206f7574206f6620626f756e6473416363657373436f6e74726f6c3a2073656e646572206d75737420626520616e2061646d696e20746f206772616e74416464726573733a20696e73756666696369656e742062616c616e636520666f722063616c6c416363657373436f6e74726f6c3a2073656e646572206d75737420626520616e2061646d696e20746f207265766f6b65496e697469616c697a61626c653a20636f6e747261637420697320616c726561647920696e697469616c697a6564536166654d6174683a206d756c7469706c69636174696f6e206f766572666c6f775361666545524332303a204552433230206f7065726174696f6e20646964206e6f742073756363656564416363657373436f6e74726f6c3a2063616e206f6e6c792072656e6f756e636520726f6c657320666f722073656c665265666f72676520666565206d75737420696e636c756465206275726e20666565a26469706673582212207c86af27bd54b8cee5d48e35affa6bf748840dde1aa8ca699fb133a765d3d2db64736f6c63430006050033",
  "immutableReferences": {},
  "source": "pragma solidity ^0.6.0;\r\n\r\nimport \"@openzeppelin/contracts-upgradeable/proxy/Initializable.sol\";\r\nimport \"@openzeppelin/contracts-upgradeable/access/AccessControlUpgradeable.sol\";\r\nimport \"@openzeppelin/contracts/math/SafeMath.sol\";\r\nimport \"abdk-libraries-solidity/ABDKMath64x64.sol\";\r\nimport \"@openzeppelin/contracts/token/ERC20/IERC20.sol\";\r\nimport \"@openzeppelin/contracts/token/ERC20/SafeERC20.sol\";\r\nimport \"./interfaces/IStakeFromGame.sol\";\r\nimport \"./interfaces/IRandoms.sol\";\r\nimport \"./interfaces/IPriceOracle.sol\";\r\nimport \"./characters.sol\";\r\nimport \"./Promos.sol\";\r\nimport \"./weapons.sol\";\r\nimport \"./util.sol\";\r\n\r\ncontract CryptoBlades is Initializable, AccessControlUpgradeable {\r\n    using ABDKMath64x64 for int128;\r\n    using SafeMath for uint256;\r\n    using SafeMath for uint64;\r\n    using SafeERC20 for IERC20;\r\n\r\n    bytes32 public constant GAME_ADMIN = keccak256(\"GAME_ADMIN\");\r\n\r\n    int128 public constant REWARDS_CLAIM_TAX_MAX = 2767011611056432742; // = ~0.15 = ~15%\r\n    uint256 public constant REWARDS_CLAIM_TAX_DURATION = 15 days;\r\n\r\n    Characters public characters;\r\n    Weapons public weapons;\r\n    IERC20 public skillToken;//0x154A9F9cbd3449AD22FDaE23044319D6eF2a1Fab;\r\n    IPriceOracle public priceOracleSkillPerUsd;\r\n    IRandoms public randoms;\r\n\r\n    function initialize(IERC20 _skillToken, Characters _characters, Weapons _weapons, IPriceOracle _priceOracleSkillPerUsd, IRandoms _randoms) public initializer {\r\n        __AccessControl_init();\r\n\r\n        _setupRole(DEFAULT_ADMIN_ROLE, msg.sender);\r\n        _setupRole(GAME_ADMIN, msg.sender);\r\n\r\n        skillToken = _skillToken;\r\n        characters = _characters;\r\n        weapons = _weapons;\r\n        priceOracleSkillPerUsd = _priceOracleSkillPerUsd;\r\n        randoms = _randoms;\r\n\r\n        staminaCostFight = 40;\r\n        mintCharacterFee = ABDKMath64x64.divu(10, 1);//10 usd;\r\n        mintWeaponFee = ABDKMath64x64.divu(3, 1);//3 usd;\r\n\r\n        // migrateTo_1ee400a\r\n        fightXpGain = 32;\r\n\r\n        // migrateTo_aa9da90\r\n        oneFrac = ABDKMath64x64.fromUInt(1);\r\n        fightTraitBonus = ABDKMath64x64.divu(75, 1000);\r\n\r\n        // migrateTo_7dd2a56\r\n        // numbers given for the curves were $4.3-aligned so they need to be multiplied\r\n        // additional accuracy may be in order for the setter functions for these\r\n        fightRewardGasOffset = ABDKMath64x64.divu(23177, 100000); // 0.0539 x 4.3\r\n        fightRewardBaseline = ABDKMath64x64.divu(344, 1000); // 0.08 x 4.3\r\n\r\n        // migrateTo_5e833b0\r\n        durabilityCostFight = 1;\r\n    }\r\n\r\n    function migrateTo_ef994e2(Promos _promos) public {\r\n        require(hasRole(DEFAULT_ADMIN_ROLE, msg.sender), \"Not admin\");\r\n\r\n        promos = _promos;\r\n    }\r\n\r\n    function migrateTo_23b3a8b(IStakeFromGame _stakeFromGame) external {\r\n        require(hasRole(DEFAULT_ADMIN_ROLE, msg.sender), \"Not admin\");\r\n\r\n        stakeFromGameImpl = _stakeFromGame;\r\n    }\r\n\r\n    function migrateTo_801f279() external {\r\n        require(hasRole(DEFAULT_ADMIN_ROLE, msg.sender), \"Not admin\");\r\n\r\n        burnWeaponFee = ABDKMath64x64.divu(2, 10);//0.2 usd;\r\n        reforgeWeaponWithDustFee = ABDKMath64x64.divu(3, 10);//0.3 usd;\r\n\r\n        reforgeWeaponFee = burnWeaponFee + reforgeWeaponWithDustFee;//0.5 usd;\r\n    }\r\n\r\n    // UNUSED; KEPT FOR UPGRADEABILITY PROXY COMPATIBILITY\r\n    uint characterLimit;\r\n    // config vars\r\n    uint8 staminaCostFight;\r\n\r\n    // prices & payouts are in USD, with 4 decimals of accuracy in 64.64 fixed point format\r\n    int128 public mintCharacterFee;\r\n    //int128 public rerollTraitFee;\r\n    //int128 public rerollCosmeticsFee;\r\n    int128 public refillStaminaFee;\r\n    // lvl 1 player power could be anywhere between ~909 to 1666\r\n    // cents per fight multiplied by monster power divided by 1000 (lv1 power)\r\n    int128 public fightRewardBaseline;\r\n    int128 public fightRewardGasOffset;\r\n\r\n    int128 public mintWeaponFee;\r\n    int128 public reforgeWeaponFee;\r\n\r\n    uint256 nonce;\r\n\r\n    mapping(address => uint256) lastBlockNumberCalled;\r\n\r\n    uint256 public fightXpGain; // multiplied based on power differences\r\n\r\n    mapping(address => uint256) tokenRewards; // user adress : skill wei\r\n    mapping(uint256 => uint256) xpRewards; // character id : xp\r\n\r\n    int128 public oneFrac; // 1.0\r\n    int128 public fightTraitBonus; // 7.5%\r\n\r\n    mapping(address => uint256) public inGameOnlyFunds;\r\n    uint256 public totalInGameOnlyFunds;\r\n\r\n    Promos public promos;\r\n\r\n    mapping(address => uint256) private _rewardsClaimTaxTimerStart;\r\n\r\n    IStakeFromGame public stakeFromGameImpl;\r\n\r\n    uint8 durabilityCostFight;\r\n\r\n    int128 public burnWeaponFee;\r\n    int128 public reforgeWeaponWithDustFee;\r\n\r\n    event FightOutcome(address indexed owner, uint256 indexed character, uint256 weapon, uint32 target, uint24 playerRoll, uint24 enemyRoll, uint16 xpGain, uint256 skillGain);\r\n    event InGameOnlyFundsGiven(address indexed to, uint256 skillAmount);\r\n\r\n    function recoverSkill(uint256 amount) public {\r\n        require(hasRole(DEFAULT_ADMIN_ROLE, msg.sender), \"Not admin\");\r\n\r\n        skillToken.safeTransfer(msg.sender, amount);\r\n    }\r\n\r\n    function getSkillToSubtract(uint256 _inGameOnlyFunds, uint256 _tokenRewards, uint256 _skillNeeded)\r\n        public\r\n        pure\r\n        returns (uint256 fromInGameOnlyFunds, uint256 fromTokenRewards, uint256 fromUserWallet) {\r\n\r\n        if(_skillNeeded <= _inGameOnlyFunds) {\r\n            return (_skillNeeded, 0, 0);\r\n        }\r\n\r\n        _skillNeeded -= _inGameOnlyFunds;\r\n\r\n        if(_skillNeeded <= _tokenRewards) {\r\n            return (_inGameOnlyFunds, _skillNeeded, 0);\r\n        }\r\n\r\n        _skillNeeded -= _tokenRewards;\r\n\r\n        return (_inGameOnlyFunds, _tokenRewards, _skillNeeded);\r\n    }\r\n\r\n    function getSkillNeededFromUserWallet(address playerAddress, uint256 skillNeeded)\r\n        public\r\n        view\r\n        returns (uint256 skillNeededFromUserWallet) {\r\n\r\n        (,, skillNeededFromUserWallet) = getSkillToSubtract(\r\n            inGameOnlyFunds[playerAddress],\r\n            tokenRewards[playerAddress],\r\n            skillNeeded\r\n        );\r\n    }\r\n\r\n    function getMyCharacters() public view returns(uint256[] memory) {\r\n        uint256[] memory tokens = new uint256[](characters.balanceOf(msg.sender));\r\n        for(uint256 i = 0; i < tokens.length; i++) {\r\n            tokens[i] = characters.tokenOfOwnerByIndex(msg.sender, i);\r\n        }\r\n        return tokens;\r\n    }\r\n\r\n    function getMyWeapons() public view returns(uint256[] memory) {\r\n        uint256[] memory tokens = new uint256[](weapons.balanceOf(msg.sender));\r\n        for(uint256 i = 0; i < tokens.length; i++) {\r\n            tokens[i] = weapons.tokenOfOwnerByIndex(msg.sender, i);\r\n        }\r\n        return tokens;\r\n    }\r\n\r\n    function unpackFightData(uint96 playerData)\r\n        public pure returns (uint8 charTrait, uint24 basePowerLevel, uint64 timestamp) {\r\n\r\n        charTrait = uint8(playerData & 0xFF);\r\n        basePowerLevel = uint24((playerData >> 8) & 0xFFFFFF);\r\n        timestamp = uint64((playerData >> 32) & 0xFFFFFFFFFFFFFFFF);\r\n    }\r\n\r\n    function fight(uint256 char, uint256 wep, uint32 target, uint8 fightMultiplier) external\r\n            // These have been combined due to error: CompilerError: Stack too deep, try removing local variables. TODO\r\n            // onlyNonContract\r\n            // doesNotHaveMoreThanMaxCharacters\r\n            // oncePerBlock(msg.sender)\r\n            // isCharacterOwner(char)\r\n            // isWeaponOwner(wep) {\r\n        fightModifierChecks(char, wep) {\r\n\r\n        (uint8 charTrait, uint24 basePowerLevel, uint64 timestamp) =\r\n            unpackFightData(characters.getFightDataAndDrainStamina(char, staminaCostFight * fightMultiplier));\r\n\r\n        (int128 weaponMultTarget,\r\n            int128 weaponMultFight,\r\n            uint24 weaponBonusPower,\r\n            uint8 weaponTrait) = weapons.getFightData(wep, charTrait);\r\n\r\n        weapons.drainDurability(wep, durabilityCostFight * fightMultiplier);\r\n\r\n        _verifyFight(\r\n            basePowerLevel,\r\n            weaponMultTarget,\r\n            weaponBonusPower,\r\n            timestamp,\r\n            target\r\n        );\r\n        performFight(\r\n            char,\r\n            wep,\r\n            getPlayerPower(basePowerLevel, weaponMultFight, weaponBonusPower),\r\n            uint24(charTrait | (uint24(weaponTrait) << 8) | (target & 0xFF000000) >> 8),\r\n            uint24(target & 0xFFFFFF),\r\n            fightMultiplier\r\n        );\r\n    }\r\n\r\n    function _verifyFight(\r\n        uint24 basePowerLevel,\r\n        int128 weaponMultTarget,\r\n        uint24 weaponBonusPower,\r\n        uint64 timestamp,\r\n        uint32 target\r\n    ) internal view {\r\n        verifyFight(\r\n            basePowerLevel,\r\n            weaponMultTarget,\r\n            weaponBonusPower,\r\n            timestamp,\r\n            getCurrentHour(),\r\n            target\r\n        );\r\n    }\r\n\r\n    function verifyFight(\r\n        uint24 playerBasePower,\r\n        int128 wepMultiplier,\r\n        uint24 wepBonusPower,\r\n        uint64 staminaTimestamp,\r\n        uint256 hour,\r\n        uint32 target\r\n    ) public pure {\r\n\r\n        uint32[4] memory targets = getTargetsInternal(\r\n            getPlayerPower(playerBasePower, wepMultiplier, wepBonusPower),\r\n            staminaTimestamp,\r\n            hour\r\n        );\r\n        bool foundMatch = false;\r\n        for(uint i = 0; i < targets.length; i++) {\r\n            if(targets[i] == target) {\r\n                foundMatch = true;\r\n                i = targets.length;\r\n            }\r\n        }\r\n        require(foundMatch, \"Target invalid\");\r\n    }\r\n\r\n    function performFight(\r\n        uint256 char,\r\n        uint256 wep,\r\n        uint24 playerFightPower,\r\n        uint24 traitsCWE, // could fit into uint8 since each trait is only stored on 2 bits (TODO)\r\n        uint24 targetPower,\r\n        uint8 fightMultiplier\r\n    ) private {\r\n        uint256 seed = randoms.getRandomSeed(msg.sender);\r\n        uint24 playerRoll = getPlayerPowerRoll(playerFightPower,traitsCWE,seed);\r\n        uint24 monsterRoll = getMonsterPowerRoll(targetPower, RandomUtil.combineSeeds(seed,1));\r\n\r\n        uint16 xp = getXpGainForFight(playerFightPower, targetPower) * fightMultiplier;\r\n        uint256 tokens = usdToSkill(getTokenGainForFight(targetPower) * fightMultiplier);\r\n\r\n        if(playerRoll < monsterRoll) {\r\n            tokens = 0;\r\n            xp = 0;\r\n        }\r\n\r\n        if(tokenRewards[msg.sender] == 0 && tokens > 0) {\r\n            _startRewardsClaimTaxTimer(msg.sender);\r\n        }\r\n\r\n        // this may seem dumb but we want to avoid guessing the outcome based on gas estimates!\r\n        tokenRewards[msg.sender] += tokens;\r\n        xpRewards[char] += xp;\r\n\r\n        emit FightOutcome(msg.sender, char, wep, (targetPower | ((uint32(traitsCWE) << 8) & 0xFF000000)), playerRoll, monsterRoll, xp, tokens);\r\n    }\r\n\r\n    function getMonsterPower(uint32 target) public pure returns (uint24) {\r\n        return uint24(target & 0xFFFFFF);\r\n    }\r\n\r\n    function getTokenGainForFight(uint24 monsterPower) internal view returns (int128) {\r\n        return fightRewardGasOffset.add(\r\n            fightRewardBaseline.mul(\r\n                ABDKMath64x64.sqrt(\r\n                    // Performance optimization: 1000 = getPowerAtLevel(0)\r\n                    ABDKMath64x64.divu(monsterPower, 1000)\r\n                )\r\n            )\r\n        );\r\n    }\r\n\r\n    function getXpGainForFight(uint24 playerPower, uint24 monsterPower) internal view returns (uint16) {\r\n        return uint16(ABDKMath64x64.divu(monsterPower, playerPower).mulu(fightXpGain));\r\n    }\r\n\r\n    function getPlayerPowerRoll(\r\n        uint24 playerFightPower,\r\n        uint24 traitsCWE,\r\n        uint256 seed\r\n    ) internal view returns(uint24) {\r\n\r\n        uint256 playerPower = RandomUtil.plusMinus10PercentSeeded(playerFightPower,seed);\r\n        return uint24(getPlayerTraitBonusAgainst(traitsCWE).mulu(playerPower));\r\n    }\r\n\r\n    function getMonsterPowerRoll(uint24 monsterPower, uint256 seed) internal pure returns(uint24) {\r\n        // roll for fights\r\n        return uint24(RandomUtil.plusMinus10PercentSeeded(monsterPower, seed));\r\n    }\r\n\r\n    function getPlayerPower(\r\n        uint24 basePower,\r\n        int128 weaponMultiplier,\r\n        uint24 bonusPower\r\n    ) public pure returns(uint24) {\r\n        return uint24(weaponMultiplier.mulu(basePower).add(bonusPower));\r\n    }\r\n\r\n    function getPlayerTraitBonusAgainst(uint24 traitsCWE) public view returns (int128) {\r\n        int128 traitBonus = oneFrac;\r\n        uint8 characterTrait = uint8(traitsCWE & 0xFF);\r\n        if(characterTrait == (traitsCWE >> 8) & 0xFF/*wepTrait*/) {\r\n            traitBonus = traitBonus.add(fightTraitBonus);\r\n        }\r\n        if(isTraitEffectiveAgainst(characterTrait, uint8(traitsCWE >> 16)/*enemy*/)) {\r\n            traitBonus = traitBonus.add(fightTraitBonus);\r\n        }\r\n        else if(isTraitEffectiveAgainst(uint8(traitsCWE >> 16)/*enemy*/, characterTrait)) {\r\n            traitBonus = traitBonus.sub(fightTraitBonus);\r\n        }\r\n        return traitBonus;\r\n    }\r\n\r\n    function getTargets(uint256 char, uint256 wep) public view returns (uint32[4] memory) {\r\n        (int128 weaponMultTarget,,\r\n            uint24 weaponBonusPower,\r\n            ) = weapons.getFightData(wep, characters.getTrait(char));\r\n\r\n        return getTargetsInternal(\r\n            getPlayerPower(characters.getPower(char), weaponMultTarget, weaponBonusPower),\r\n            characters.getStaminaTimestamp(char),\r\n            getCurrentHour()\r\n        );\r\n    }\r\n\r\n    function getTargetsInternal(uint24 playerPower,\r\n        uint64 staminaTimestamp,\r\n        uint256 currentHour\r\n    ) private pure returns (uint32[4] memory) {\r\n        // 4 targets, roll powers based on character + weapon power\r\n        // trait bonuses not accounted for\r\n        // targets expire on the hour\r\n\r\n        uint256 baseSeed = RandomUtil.combineSeeds(\r\n            RandomUtil.combineSeeds(staminaTimestamp,\r\n            currentHour),\r\n            playerPower\r\n        );\r\n\r\n        uint32[4] memory targets;\r\n        for(uint i = 0; i < targets.length; i++) {\r\n            // we alter seed per-index or they would be all the same\r\n            uint256 indexSeed = RandomUtil.combineSeeds(baseSeed, i);\r\n            targets[i] = uint32(\r\n                RandomUtil.plusMinus10PercentSeeded(playerPower, indexSeed) // power\r\n                | (uint32(indexSeed % 4) << 24) // trait\r\n            );\r\n        }\r\n\r\n        return targets;\r\n    }\r\n\r\n    function isTraitEffectiveAgainst(uint8 attacker, uint8 defender) public pure returns (bool) {\r\n        return (((attacker + 1) % 4) == defender); // Thanks to Tourist\r\n    }\r\n\r\n    function mintCharacter() public onlyNonContract doesNotHaveMoreThanMaxCharacters oncePerBlock(msg.sender) requestPayFromPlayer(mintCharacterFee) {\r\n        require(characters.balanceOf(msg.sender) < characters.characterLimit(),\r\n            string(abi.encodePacked(\"You can only have \",characters.characterLimit(),\" characters!\")));\r\n        _payContract(msg.sender, mintCharacterFee);\r\n\r\n        if(!promos.getBit(msg.sender, promos.BIT_FIRST_CHARACTER()) && characters.balanceOf(msg.sender) == 0) {\r\n            _giveInGameOnlyFundsFromContractBalance(msg.sender, usdToSkill(promos.firstCharacterPromoInGameOnlyFundsGivenInUsd()));\r\n        }\r\n\r\n        uint256 seed = randoms.getRandomSeed(msg.sender);\r\n        characters.mint(msg.sender, seed);\r\n\r\n        // first weapon free with a character mint, max 1 star\r\n        if(weapons.balanceOf(msg.sender) == 0) {\r\n            weapons.performMintWeapon(msg.sender,\r\n                weapons.getRandomProperties(0, RandomUtil.combineSeeds(seed,100)),\r\n                weapons.getRandomStat(4, 200, seed, 101),\r\n                0, // stat2\r\n                0, // stat3\r\n                RandomUtil.combineSeeds(seed,102)\r\n            );\r\n        }\r\n    }\r\n\r\n    function mintWeapon() public onlyNonContract doesNotHaveMoreThanMaxCharacters oncePerBlock(msg.sender) requestPayFromPlayer(mintWeaponFee) {\r\n        _payContract(msg.sender, mintWeaponFee);\r\n\r\n        uint256 seed = randoms.getRandomSeed(msg.sender);\r\n        weapons.mint(msg.sender, seed);\r\n    }\r\n\r\n    function burnWeapon(uint256 burnID) public\r\n            doesNotHaveMoreThanMaxCharacters\r\n            isWeaponOwner(burnID) requestPayFromPlayer(burnWeaponFee) {\r\n        _payContract(msg.sender, burnWeaponFee);\r\n        weapons.burn(burnID);\r\n    }\r\n\r\n    function burnWeapons(uint256[] memory burnIDs) public\r\n            doesNotHaveMoreThanMaxCharacters\r\n            isWeaponsOwner(burnIDs) requestPayFromPlayer(burnWeaponFee.mul(ABDKMath64x64.fromUInt(burnIDs.length))) {\r\n        _payContract(msg.sender, burnWeaponFee.mul(ABDKMath64x64.fromUInt(burnIDs.length)));\r\n        for(uint i = 0; i < burnIDs.length; i++) {\r\n            weapons.burn(burnIDs[i]);\r\n        }\r\n    }\r\n\r\n    function reforgeWeapon(uint256 reforgeID, uint256 burnID) public\r\n            doesNotHaveMoreThanMaxCharacters\r\n            isWeaponOwner(reforgeID) isWeaponOwner(burnID) requestPayFromPlayer(reforgeWeaponFee) {\r\n        _payContract(msg.sender, reforgeWeaponFee);\r\n        weapons.reforge(reforgeID, burnID);\r\n    }\r\n\r\n    function reforgeWeaponWithDust(uint256 reforgeID, uint8 amountLB, uint8 amount4B, uint8 amount5B) public\r\n            doesNotHaveMoreThanMaxCharacters\r\n            isWeaponOwner(reforgeID) requestPayFromPlayer(reforgeWeaponWithDustFee) {\r\n        _payContract(msg.sender, reforgeWeaponWithDustFee);\r\n        weapons.reforgeWithDust(reforgeID, amountLB, amount4B, amount5B);\r\n    }\r\n\r\n    function migrateRandoms(IRandoms _newRandoms) external {\r\n        require(hasRole(DEFAULT_ADMIN_ROLE, msg.sender), \"Not admin\");\r\n        randoms = _newRandoms;\r\n    }\r\n\r\n    modifier fightModifierChecks(uint256 char, uint256 wep) {\r\n        require(tx.origin == msg.sender, \"Only EOA allowed (temporary)\");\r\n        require(characters.balanceOf(msg.sender) <= characters.characterLimit(), \"Too many characters owned\");\r\n        require(lastBlockNumberCalled[msg.sender] < block.number, \"Only callable once per block\");\r\n        lastBlockNumberCalled[msg.sender] = block.number;\r\n        require(characters.ownerOf(char) == msg.sender, \"Not the character owner\");\r\n        require(weapons.ownerOf(wep) == msg.sender, \"Not the weapon owner\");\r\n        _;\r\n    }\r\n\r\n    modifier onlyNonContract() {\r\n        _onlyNonContract();\r\n        _;\r\n    }\r\n\r\n    function _onlyNonContract() internal view {\r\n        require(tx.origin == msg.sender, \"Only EOA allowed (temporary)\");\r\n    }\r\n\r\n    modifier restricted() {\r\n        _restricted();\r\n        _;\r\n    }\r\n\r\n    function _restricted() internal view {\r\n        require(hasRole(GAME_ADMIN, msg.sender), \"Missing GAME_ADMIN role\");\r\n    }\r\n\r\n    modifier oncePerBlock(address user) {\r\n        _oncePerBlock(user);\r\n        _;\r\n    }\r\n\r\n    function _oncePerBlock(address user) internal {\r\n        require(lastBlockNumberCalled[user] < block.number, \"Only callable once per block\");\r\n        lastBlockNumberCalled[user] = block.number;\r\n    }\r\n\r\n    modifier isWeaponOwner(uint256 weapon) {\r\n        _isWeaponOwner(weapon);\r\n        _;\r\n    }\r\n\r\n    function _isWeaponOwner(uint256 weapon) internal view {\r\n        require(weapons.ownerOf(weapon) == msg.sender, \"Not the weapon owner\");\r\n    }\r\n\r\n    modifier isWeaponsOwner(uint256[] memory weaponArray) {\r\n        _isWeaponsOwner(weaponArray);\r\n        _;\r\n    }\r\n\r\n    function _isWeaponsOwner(uint256[] memory weaponArray) internal view {\r\n        for(uint i = 0; i < weaponArray.length; i++) {\r\n            require(weapons.ownerOf(weaponArray[i]) == msg.sender, \"Not the weapon owner\");\r\n        }\r\n    }\r\n\r\n    modifier isCharacterOwner(uint256 character) {\r\n        _isCharacterOwner(character);\r\n        _;\r\n    }\r\n\r\n    function _isCharacterOwner(uint256 character) internal view {\r\n        require(characters.ownerOf(character) == msg.sender, \"Not the character owner\");\r\n    }\r\n\r\n    modifier doesNotHaveMoreThanMaxCharacters() {\r\n        _doesNotHaveMoreThanMaxCharacters();\r\n        _;\r\n    }\r\n\r\n    function _doesNotHaveMoreThanMaxCharacters() internal view {\r\n        require(characters.balanceOf(msg.sender) <= characters.characterLimit(), \"Too many characters owned\");\r\n    }\r\n\r\n    modifier isTargetValid(uint256 character, uint256 weapon, uint32 target) {\r\n        bool foundMatch = false;\r\n        uint32[4] memory targets = getTargets(character, weapon);\r\n        for(uint i = 0; i < targets.length; i++) {\r\n            if(targets[i] == target) {\r\n                foundMatch = true;\r\n            }\r\n        }\r\n        require(foundMatch, \"Target invalid\");\r\n        _;\r\n    }\r\n\r\n    modifier requestPayFromPlayer(int128 usdAmount) {\r\n        _requestPayFromPlayer(usdAmount);\r\n        _;\r\n    }\r\n\r\n    function _requestPayFromPlayer(int128 usdAmount) internal view {\r\n        uint256 skillAmount = usdToSkill(usdAmount);\r\n\r\n        (,, uint256 fromUserWallet) =\r\n            getSkillToSubtract(\r\n                inGameOnlyFunds[msg.sender],\r\n                tokenRewards[msg.sender],\r\n                skillAmount\r\n            );\r\n\r\n        require(skillToken.balanceOf(msg.sender) >= fromUserWallet,\r\n            string(abi.encodePacked(\"Not enough SKILL! Need \",RandomUtil.uint2str(skillAmount))));\r\n    }\r\n\r\n    function payContract(address playerAddress, int128 usdAmount) public restricted {\r\n        _payContract(playerAddress, usdAmount);\r\n    }\r\n\r\n    function payContractConverted(address playerAddress, uint256 convertedAmount) public restricted {\r\n        _payContractConverted(playerAddress, convertedAmount);\r\n    }\r\n\r\n    function payPlayer(address playerAddress, int128 baseAmount) public restricted {\r\n        _payPlayer(playerAddress, baseAmount);\r\n    }\r\n\r\n    function payPlayerConverted(address playerAddress, uint256 convertedAmount) public restricted {\r\n        _payPlayerConverted(playerAddress, convertedAmount);\r\n    }\r\n\r\n    function approveContractCharacterFor(uint256 characterID, address playerAddress) public restricted {\r\n        _approveContractCharacterFor(characterID, playerAddress);\r\n    }\r\n\r\n    function approveContractWeaponFor(uint256 weaponID, address playerAddress) public restricted {\r\n        _approveContractWeaponFor(weaponID, playerAddress);\r\n    }\r\n\r\n    function _payContract(address playerAddress, int128 usdAmount) internal {\r\n        _payContractConverted(playerAddress, usdToSkill(usdAmount));\r\n    }\r\n\r\n    function _payContractConverted(address playerAddress, uint256 convertedAmount) internal {\r\n\r\n        (uint256 fromInGameOnlyFunds, uint256 fromTokenRewards, uint256 fromUserWallet) =\r\n            getSkillToSubtract(\r\n                inGameOnlyFunds[playerAddress],\r\n                tokenRewards[playerAddress],\r\n                convertedAmount\r\n            );\r\n\r\n        // must use requestPayFromPlayer modifier to approve on the initial function!\r\n        totalInGameOnlyFunds = totalInGameOnlyFunds.sub(fromInGameOnlyFunds);\r\n        inGameOnlyFunds[playerAddress] = inGameOnlyFunds[playerAddress].sub(fromInGameOnlyFunds);\r\n\r\n        tokenRewards[playerAddress] = tokenRewards[playerAddress].sub(fromTokenRewards);\r\n        skillToken.safeTransferFrom(playerAddress, address(this), fromUserWallet);\r\n    }\r\n\r\n    function _payPlayer(address playerAddress, int128 baseAmount) internal {\r\n        _payPlayerConverted(playerAddress, usdToSkill(baseAmount));\r\n    }\r\n\r\n    function _payPlayerConverted(address playerAddress, uint256 convertedAmount) internal {\r\n        skillToken.safeTransfer(playerAddress, convertedAmount);\r\n    }\r\n\r\n    function _approveContractCharacterFor(uint256 characterID, address playerAddress) internal {\r\n        characters.approve(playerAddress, characterID);\r\n    }\r\n\r\n    function _approveContractWeaponFor(uint256 weaponID, address playerAddress) internal {\r\n        weapons.approve(playerAddress, weaponID);\r\n    }\r\n\r\n    function setCharacterMintValue(uint256 cents) public restricted {\r\n        mintCharacterFee = ABDKMath64x64.divu(cents, 100);\r\n    }\r\n\r\n    function setFightRewardBaselineValue(uint256 tenthcents) public restricted {\r\n        fightRewardBaseline = ABDKMath64x64.divu(tenthcents, 1000); // !!! THIS TAKES TENTH OF CENTS !!!\r\n    }\r\n\r\n    function setFightRewardGasOffsetValue(uint256 cents) public restricted {\r\n        fightRewardGasOffset = ABDKMath64x64.divu(cents, 100);\r\n    }\r\n\r\n    function setWeaponMintValue(uint256 cents) public restricted {\r\n        mintWeaponFee = ABDKMath64x64.divu(cents, 100);\r\n    }\r\n\r\n    function setBurnWeaponValue(uint256 cents) public restricted {\r\n        burnWeaponFee = ABDKMath64x64.divu(cents, 100);\r\n    }\r\n\r\n    function setReforgeWeaponValue(uint256 cents) public restricted {\r\n        require(cents >= 25, \"ReforgeWeaponValue too low\");\r\n        require(cents <= 100, \"ReforgeWeaponValue too high\");\r\n        int128 newReforgeWeaponFee = ABDKMath64x64.divu(cents, 100);\r\n        require(newReforgeWeaponFee > burnWeaponFee, \"Reforge fee must include burn fee\");\r\n        reforgeWeaponWithDustFee = newReforgeWeaponFee - burnWeaponFee;\r\n        reforgeWeaponFee = newReforgeWeaponFee;\r\n    }\r\n\r\n    function setReforgeWeaponWithDustValue(uint256 cents) public restricted {\r\n        reforgeWeaponWithDustFee = ABDKMath64x64.divu(cents, 100);\r\n        reforgeWeaponFee = burnWeaponFee + reforgeWeaponWithDustFee;\r\n    }\r\n\r\n    function setStaminaCostFight(uint8 points) public restricted {\r\n        require(points >= 20, \"StaminaCostFight too low\");\r\n        require(points <= 50, \"StaminaCostFight too high\");\r\n        staminaCostFight = points;\r\n    }\r\n\r\n    function setDurabilityCostFight(uint8 points) public restricted {\r\n        durabilityCostFight = points;\r\n    }\r\n\r\n    function setFightXpGain(uint256 average) public restricted {\r\n        require(average >= 16, \"FightXpGain too low\");\r\n        require(average <= 64, \"FightXpGain too high\");\r\n        fightXpGain = average;\r\n    }\r\n\r\n    function setCharacterLimit(uint256 max) public restricted {\r\n        characters.setCharacterLimit(max);\r\n    }\r\n\r\n    function giveInGameOnlyFunds(address to, uint256 skillAmount) external restricted {\r\n        totalInGameOnlyFunds = totalInGameOnlyFunds.add(skillAmount);\r\n        inGameOnlyFunds[to] = inGameOnlyFunds[to].add(skillAmount);\r\n\r\n        skillToken.safeTransferFrom(msg.sender, address(this), skillAmount);\r\n\r\n        emit InGameOnlyFundsGiven(to, skillAmount);\r\n    }\r\n\r\n    function _giveInGameOnlyFundsFromContractBalance(address to, uint256 skillAmount) internal {\r\n        totalInGameOnlyFunds = totalInGameOnlyFunds.add(skillAmount);\r\n        inGameOnlyFunds[to] = inGameOnlyFunds[to].add(skillAmount);\r\n\r\n        emit InGameOnlyFundsGiven(to, skillAmount);\r\n    }\r\n\r\n    function giveInGameOnlyFundsFromContractBalance(address to, uint256 skillAmount) external restricted {\r\n        _giveInGameOnlyFundsFromContractBalance(to, skillAmount);\r\n    }\r\n\r\n    function usdToSkill(int128 usdAmount) public view returns (uint256) {\r\n        return usdAmount.mulu(priceOracleSkillPerUsd.currentPrice());\r\n    }\r\n\r\n    function getCurrentHour() public view returns (uint256) {\r\n        // \"now\" returns unix time since 1970 Jan 1, in seconds\r\n        return now.div(1 hours);\r\n    }\r\n\r\n    function claimTokenRewards() public {\r\n        // our characters go to the tavern\r\n        // and the barkeep pays them for the bounties\r\n        uint256 _tokenRewards = tokenRewards[msg.sender];\r\n        tokenRewards[msg.sender] = 0;\r\n\r\n        uint256 _tokenRewardsToPayOut = _tokenRewards.sub(\r\n            _getRewardsClaimTax(msg.sender).mulu(_tokenRewards)\r\n        );\r\n\r\n        // Tax goes to game contract itself, which would mean\r\n        // transferring from the game contract to ...itself.\r\n        // So we don't need to do anything with the tax part of the rewards.\r\n\r\n        _payPlayerConverted(msg.sender, _tokenRewardsToPayOut);\r\n    }\r\n\r\n    function stakeUnclaimedRewards() external {\r\n        uint256 _tokenRewards = tokenRewards[msg.sender];\r\n        tokenRewards[msg.sender] = 0;\r\n\r\n        _giveInGameOnlyFundsFromContractBalance(msg.sender, _tokenRewards / 2);\r\n\r\n        skillToken.approve(address(stakeFromGameImpl), _tokenRewards);\r\n        stakeFromGameImpl.stakeFromGame(msg.sender, _tokenRewards);\r\n    }\r\n\r\n    function claimXpRewards() public {\r\n        // our characters go to the tavern to rest\r\n        // they meditate on what they've learned\r\n        for(uint256 i = 0; i < characters.balanceOf(msg.sender); i++) {\r\n            uint256 char = characters.tokenOfOwnerByIndex(msg.sender, i);\r\n            uint256 xpRewardsToClaim = xpRewards[char];\r\n            xpRewards[char] = 0;\r\n            if (xpRewardsToClaim > 65535) {\r\n                xpRewardsToClaim = 65535;\r\n            }\r\n            characters.gainXp(char, uint16(xpRewardsToClaim));\r\n        }\r\n    }\r\n\r\n    function getTokenRewards() public view returns (uint256) {\r\n        return tokenRewards[msg.sender];\r\n    }\r\n\r\n    function getXpRewards(uint256 char) public view returns (uint256) {\r\n        return xpRewards[char];\r\n    }\r\n\r\n    function getTokenRewardsFor(address wallet) public view returns (uint256) {\r\n        return tokenRewards[wallet];\r\n    }\r\n\r\n    function getTotalSkillOwnedBy(address wallet) public view returns (uint256) {\r\n        return inGameOnlyFunds[wallet] + getTokenRewardsFor(wallet) + skillToken.balanceOf(wallet);\r\n    }\r\n\r\n    function _getRewardsClaimTax(address playerAddress) internal view returns (int128) {\r\n        assert(_rewardsClaimTaxTimerStart[playerAddress] <= block.timestamp);\r\n\r\n        uint256 rewardsClaimTaxTimerEnd = _rewardsClaimTaxTimerStart[playerAddress].add(REWARDS_CLAIM_TAX_DURATION);\r\n\r\n        (, uint256 durationUntilNoTax) = rewardsClaimTaxTimerEnd.trySub(block.timestamp);\r\n\r\n        assert(0 <= durationUntilNoTax && durationUntilNoTax <= REWARDS_CLAIM_TAX_DURATION);\r\n\r\n        int128 frac = ABDKMath64x64.divu(durationUntilNoTax, REWARDS_CLAIM_TAX_DURATION);\r\n\r\n        return REWARDS_CLAIM_TAX_MAX.mul(frac);\r\n    }\r\n\r\n    function getOwnRewardsClaimTax() public view returns (int128) {\r\n        return _getRewardsClaimTax(msg.sender);\r\n    }\r\n\r\n    function _startRewardsClaimTaxTimer(address playerAddress) internal {\r\n        _rewardsClaimTaxTimerStart[playerAddress] = block.timestamp;\r\n    }\r\n\r\n}",
  "sourcePath": "F:\\vscode\\cblades\\contracts\\cryptoblades.sol",
  "compiler": {
    "name": "solc",
    "version": "0.6.5+commit.f956cc89.Emscripten.clang"
  },
  "schemaVersion": "3.3.4",
  "updatedAt": "2021-07-29T00:52:19.215Z",
  "devdoc": {
    "methods": {
      "getRoleAdmin(bytes32)": {
        "details": "Returns the admin role that controls `role`. See {grantRole} and {revokeRole}.     * To change a role's admin, use {_setRoleAdmin}."
      },
      "getRoleMember(bytes32,uint256)": {
        "details": "Returns one of the accounts that have `role`. `index` must be a value between 0 and {getRoleMemberCount}, non-inclusive.     * Role bearers are not sorted in any particular way, and their ordering may change at any point.     * WARNING: When using {getRoleMember} and {getRoleMemberCount}, make sure you perform all queries on the same block. See the following https://forum.openzeppelin.com/t/iterating-over-elements-on-enumerableset-in-openzeppelin-contracts/2296[forum post] for more information."
      },
      "getRoleMemberCount(bytes32)": {
        "details": "Returns the number of accounts that have `role`. Can be used together with {getRoleMember} to enumerate all bearers of a role."
      },
      "grantRole(bytes32,address)": {
        "details": "Grants `role` to `account`.     * If `account` had not been already granted `role`, emits a {RoleGranted} event.     * Requirements:     * - the caller must have ``role``'s admin role."
      },
      "hasRole(bytes32,address)": {
        "details": "Returns `true` if `account` has been granted `role`."
      },
      "renounceRole(bytes32,address)": {
        "details": "Revokes `role` from the calling account.     * Roles are often managed via {grantRole} and {revokeRole}: this function's purpose is to provide a mechanism for accounts to lose their privileges if they are compromised (such as when a trusted device is misplaced).     * If the calling account had been granted `role`, emits a {RoleRevoked} event.     * Requirements:     * - the caller must be `account`."
      },
      "revokeRole(bytes32,address)": {
        "details": "Revokes `role` from `account`.     * If `account` had been granted `role`, emits a {RoleRevoked} event.     * Requirements:     * - the caller must have ``role``'s admin role."
      }
    }
  },
  "userdoc": {
    "methods": {}
  }
}