{
  "contractName": "NFTMarket",
  "abi": [
    {
      "anonymous": false,
      "inputs": [
        {
          "indexed": true,
          "internalType": "address",
          "name": "seller",
          "type": "address"
        },
        {
          "indexed": true,
          "internalType": "contract IERC721",
          "name": "nftAddress",
          "type": "address"
        },
        {
          "indexed": true,
          "internalType": "uint256",
          "name": "nftID",
          "type": "uint256"
        }
      ],
      "name": "CancelledListing",
      "type": "event"
    },
    {
      "anonymous": false,
      "inputs": [
        {
          "indexed": true,
          "internalType": "address",
          "name": "seller",
          "type": "address"
        },
        {
          "indexed": true,
          "internalType": "contract IERC721",
          "name": "nftAddress",
          "type": "address"
        },
        {
          "indexed": true,
          "internalType": "uint256",
          "name": "nftID",
          "type": "uint256"
        },
        {
          "indexed": false,
          "internalType": "uint256",
          "name": "newPrice",
          "type": "uint256"
        }
      ],
      "name": "ListingPriceChange",
      "type": "event"
    },
    {
      "anonymous": false,
      "inputs": [
        {
          "indexed": true,
          "internalType": "address",
          "name": "seller",
          "type": "address"
        },
        {
          "indexed": true,
          "internalType": "contract IERC721",
          "name": "nftAddress",
          "type": "address"
        },
        {
          "indexed": true,
          "internalType": "uint256",
          "name": "nftID",
          "type": "uint256"
        },
        {
          "indexed": false,
          "internalType": "uint256",
          "name": "price",
          "type": "uint256"
        }
      ],
      "name": "NewListing",
      "type": "event"
    },
    {
      "anonymous": false,
      "inputs": [
        {
          "indexed": true,
          "internalType": "address",
          "name": "buyer",
          "type": "address"
        },
        {
          "indexed": false,
          "internalType": "address",
          "name": "seller",
          "type": "address"
        },
        {
          "indexed": true,
          "internalType": "contract IERC721",
          "name": "nftAddress",
          "type": "address"
        },
        {
          "indexed": true,
          "internalType": "uint256",
          "name": "nftID",
          "type": "uint256"
        },
        {
          "indexed": false,
          "internalType": "uint256",
          "name": "price",
          "type": "uint256"
        }
      ],
      "name": "PurchasedListing",
      "type": "event"
    },
    {
      "anonymous": false,
      "inputs": [
        {
          "indexed": true,
          "internalType": "bytes32",
          "name": "role",
          "type": "bytes32"
        },
        {
          "indexed": true,
          "internalType": "bytes32",
          "name": "previousAdminRole",
          "type": "bytes32"
        },
        {
          "indexed": true,
          "internalType": "bytes32",
          "name": "newAdminRole",
          "type": "bytes32"
        }
      ],
      "name": "RoleAdminChanged",
      "type": "event"
    },
    {
      "anonymous": false,
      "inputs": [
        {
          "indexed": true,
          "internalType": "bytes32",
          "name": "role",
          "type": "bytes32"
        },
        {
          "indexed": true,
          "internalType": "address",
          "name": "account",
          "type": "address"
        },
        {
          "indexed": true,
          "internalType": "address",
          "name": "sender",
          "type": "address"
        }
      ],
      "name": "RoleGranted",
      "type": "event"
    },
    {
      "anonymous": false,
      "inputs": [
        {
          "indexed": true,
          "internalType": "bytes32",
          "name": "role",
          "type": "bytes32"
        },
        {
          "indexed": true,
          "internalType": "address",
          "name": "account",
          "type": "address"
        },
        {
          "indexed": true,
          "internalType": "address",
          "name": "sender",
          "type": "address"
        }
      ],
      "name": "RoleRevoked",
      "type": "event"
    },
    {
      "inputs": [],
      "name": "DEFAULT_ADMIN_ROLE",
      "outputs": [
        {
          "internalType": "bytes32",
          "name": "",
          "type": "bytes32"
        }
      ],
      "stateMutability": "view",
      "type": "function"
    },
    {
      "inputs": [],
      "name": "GAME_ADMIN",
      "outputs": [
        {
          "internalType": "bytes32",
          "name": "",
          "type": "bytes32"
        }
      ],
      "stateMutability": "view",
      "type": "function"
    },
    {
      "inputs": [],
      "name": "defaultTax",
      "outputs": [
        {
          "internalType": "int128",
          "name": "",
          "type": "int128"
        }
      ],
      "stateMutability": "view",
      "type": "function"
    },
    {
      "inputs": [
        {
          "internalType": "bytes32",
          "name": "role",
          "type": "bytes32"
        }
      ],
      "name": "getRoleAdmin",
      "outputs": [
        {
          "internalType": "bytes32",
          "name": "",
          "type": "bytes32"
        }
      ],
      "stateMutability": "view",
      "type": "function"
    },
    {
      "inputs": [
        {
          "internalType": "bytes32",
          "name": "role",
          "type": "bytes32"
        },
        {
          "internalType": "uint256",
          "name": "index",
          "type": "uint256"
        }
      ],
      "name": "getRoleMember",
      "outputs": [
        {
          "internalType": "address",
          "name": "",
          "type": "address"
        }
      ],
      "stateMutability": "view",
      "type": "function"
    },
    {
      "inputs": [
        {
          "internalType": "bytes32",
          "name": "role",
          "type": "bytes32"
        }
      ],
      "name": "getRoleMemberCount",
      "outputs": [
        {
          "internalType": "uint256",
          "name": "",
          "type": "uint256"
        }
      ],
      "stateMutability": "view",
      "type": "function"
    },
    {
      "inputs": [
        {
          "internalType": "bytes32",
          "name": "role",
          "type": "bytes32"
        },
        {
          "internalType": "address",
          "name": "account",
          "type": "address"
        }
      ],
      "name": "grantRole",
      "outputs": [],
      "stateMutability": "nonpayable",
      "type": "function"
    },
    {
      "inputs": [
        {
          "internalType": "bytes32",
          "name": "role",
          "type": "bytes32"
        },
        {
          "internalType": "address",
          "name": "account",
          "type": "address"
        }
      ],
      "name": "hasRole",
      "outputs": [
        {
          "internalType": "bool",
          "name": "",
          "type": "bool"
        }
      ],
      "stateMutability": "view",
      "type": "function"
    },
    {
      "inputs": [
        {
          "internalType": "address",
          "name": "",
          "type": "address"
        }
      ],
      "name": "isTokenBanned",
      "outputs": [
        {
          "internalType": "bool",
          "name": "",
          "type": "bool"
        }
      ],
      "stateMutability": "view",
      "type": "function"
    },
    {
      "inputs": [
        {
          "internalType": "address",
          "name": "",
          "type": "address"
        }
      ],
      "name": "isUserBanned",
      "outputs": [
        {
          "internalType": "bool",
          "name": "",
          "type": "bool"
        }
      ],
      "stateMutability": "view",
      "type": "function"
    },
    {
      "inputs": [
        {
          "internalType": "bytes32",
          "name": "role",
          "type": "bytes32"
        },
        {
          "internalType": "address",
          "name": "account",
          "type": "address"
        }
      ],
      "name": "renounceRole",
      "outputs": [],
      "stateMutability": "nonpayable",
      "type": "function"
    },
    {
      "inputs": [
        {
          "internalType": "bytes32",
          "name": "role",
          "type": "bytes32"
        },
        {
          "internalType": "address",
          "name": "account",
          "type": "address"
        }
      ],
      "name": "revokeRole",
      "outputs": [],
      "stateMutability": "nonpayable",
      "type": "function"
    },
    {
      "inputs": [],
      "name": "skillToken",
      "outputs": [
        {
          "internalType": "contract IERC20",
          "name": "",
          "type": "address"
        }
      ],
      "stateMutability": "view",
      "type": "function"
    },
    {
      "inputs": [
        {
          "internalType": "address",
          "name": "",
          "type": "address"
        }
      ],
      "name": "tax",
      "outputs": [
        {
          "internalType": "int128",
          "name": "",
          "type": "int128"
        }
      ],
      "stateMutability": "view",
      "type": "function"
    },
    {
      "inputs": [],
      "name": "taxRecipient",
      "outputs": [
        {
          "internalType": "address",
          "name": "",
          "type": "address"
        }
      ],
      "stateMutability": "view",
      "type": "function"
    },
    {
      "inputs": [
        {
          "internalType": "contract IERC20",
          "name": "_skillToken",
          "type": "address"
        },
        {
          "internalType": "address",
          "name": "_taxRecipient",
          "type": "address"
        }
      ],
      "name": "initialize",
      "outputs": [],
      "stateMutability": "nonpayable",
      "type": "function"
    },
    {
      "inputs": [
        {
          "internalType": "contract Characters",
          "name": "_charactersContract",
          "type": "address"
        },
        {
          "internalType": "contract Weapons",
          "name": "_weaponsContract",
          "type": "address"
        }
      ],
      "name": "migrateTo_a98a9ac",
      "outputs": [],
      "stateMutability": "nonpayable",
      "type": "function"
    },
    {
      "inputs": [
        {
          "internalType": "contract IERC721",
          "name": "_tokenAddress",
          "type": "address"
        }
      ],
      "name": "isTokenAllowed",
      "outputs": [
        {
          "internalType": "bool",
          "name": "",
          "type": "bool"
        }
      ],
      "stateMutability": "view",
      "type": "function"
    },
    {
      "inputs": [],
      "name": "getAllowedTokenTypes",
      "outputs": [
        {
          "internalType": "contract IERC721[]",
          "name": "",
          "type": "address[]"
        }
      ],
      "stateMutability": "view",
      "type": "function"
    },
    {
      "inputs": [
        {
          "internalType": "contract IERC721",
          "name": "_tokenAddress",
          "type": "address"
        },
        {
          "internalType": "uint256",
          "name": "_tokenId",
          "type": "uint256"
        }
      ],
      "name": "getSellerOfNftID",
      "outputs": [
        {
          "internalType": "address",
          "name": "",
          "type": "address"
        }
      ],
      "stateMutability": "view",
      "type": "function"
    },
    {
      "inputs": [],
      "name": "defaultTaxAsRoundedPercentRoughEstimate",
      "outputs": [
        {
          "internalType": "uint256",
          "name": "",
          "type": "uint256"
        }
      ],
      "stateMutability": "view",
      "type": "function"
    },
    {
      "inputs": [],
      "name": "getListedTokenTypes",
      "outputs": [
        {
          "internalType": "contract IERC721[]",
          "name": "",
          "type": "address[]"
        }
      ],
      "stateMutability": "view",
      "type": "function"
    },
    {
      "inputs": [
        {
          "internalType": "contract IERC721",
          "name": "_tokenAddress",
          "type": "address"
        }
      ],
      "name": "getListingIDs",
      "outputs": [
        {
          "internalType": "uint256[]",
          "name": "",
          "type": "uint256[]"
        }
      ],
      "stateMutability": "view",
      "type": "function"
    },
    {
      "inputs": [
        {
          "internalType": "contract IERC721",
          "name": "_tokenAddress",
          "type": "address"
        },
        {
          "internalType": "uint8",
          "name": "_limit",
          "type": "uint8"
        },
        {
          "internalType": "uint256",
          "name": "_pageNumber",
          "type": "uint256"
        },
        {
          "internalType": "uint8",
          "name": "_trait",
          "type": "uint8"
        },
        {
          "internalType": "uint8",
          "name": "_stars",
          "type": "uint8"
        }
      ],
      "name": "getWeaponListingIDsPage",
      "outputs": [
        {
          "internalType": "uint256[]",
          "name": "",
          "type": "uint256[]"
        }
      ],
      "stateMutability": "view",
      "type": "function"
    },
    {
      "inputs": [
        {
          "internalType": "contract IERC721",
          "name": "_tokenAddress",
          "type": "address"
        },
        {
          "internalType": "uint8",
          "name": "_limit",
          "type": "uint8"
        },
        {
          "internalType": "uint256",
          "name": "_pageNumber",
          "type": "uint256"
        },
        {
          "internalType": "uint8",
          "name": "_trait",
          "type": "uint8"
        },
        {
          "internalType": "uint8",
          "name": "_minLevel",
          "type": "uint8"
        },
        {
          "internalType": "uint8",
          "name": "_maxLevel",
          "type": "uint8"
        }
      ],
      "name": "getCharacterListingIDsPage",
      "outputs": [
        {
          "internalType": "uint256[]",
          "name": "",
          "type": "uint256[]"
        }
      ],
      "stateMutability": "view",
      "type": "function"
    },
    {
      "inputs": [
        {
          "internalType": "contract IERC721",
          "name": "_tokenAddress",
          "type": "address"
        },
        {
          "internalType": "address",
          "name": "_seller",
          "type": "address"
        }
      ],
      "name": "getNumberOfListingsBySeller",
      "outputs": [
        {
          "internalType": "uint256",
          "name": "",
          "type": "uint256"
        }
      ],
      "stateMutability": "view",
      "type": "function"
    },
    {
      "inputs": [
        {
          "internalType": "contract IERC721",
          "name": "_tokenAddress",
          "type": "address"
        },
        {
          "internalType": "address",
          "name": "_seller",
          "type": "address"
        }
      ],
      "name": "getListingIDsBySeller",
      "outputs": [
        {
          "internalType": "uint256[]",
          "name": "tokens",
          "type": "uint256[]"
        }
      ],
      "stateMutability": "view",
      "type": "function"
    },
    {
      "inputs": [
        {
          "internalType": "contract IERC721",
          "name": "_tokenAddress",
          "type": "address"
        }
      ],
      "name": "getNumberOfListingsForToken",
      "outputs": [
        {
          "internalType": "uint256",
          "name": "",
          "type": "uint256"
        }
      ],
      "stateMutability": "view",
      "type": "function"
    },
    {
      "inputs": [
        {
          "internalType": "contract IERC721",
          "name": "_tokenAddress",
          "type": "address"
        },
        {
          "internalType": "uint8",
          "name": "_trait",
          "type": "uint8"
        },
        {
          "internalType": "uint8",
          "name": "_minLevel",
          "type": "uint8"
        },
        {
          "internalType": "uint8",
          "name": "_maxLevel",
          "type": "uint8"
        }
      ],
      "name": "getNumberOfCharacterListings",
      "outputs": [
        {
          "internalType": "uint256",
          "name": "",
          "type": "uint256"
        }
      ],
      "stateMutability": "view",
      "type": "function"
    },
    {
      "inputs": [
        {
          "internalType": "contract IERC721",
          "name": "_tokenAddress",
          "type": "address"
        },
        {
          "internalType": "uint8",
          "name": "_trait",
          "type": "uint8"
        },
        {
          "internalType": "uint8",
          "name": "_stars",
          "type": "uint8"
        }
      ],
      "name": "getNumberOfWeaponListings",
      "outputs": [
        {
          "internalType": "uint256",
          "name": "",
          "type": "uint256"
        }
      ],
      "stateMutability": "view",
      "type": "function"
    },
    {
      "inputs": [
        {
          "internalType": "contract IERC721",
          "name": "_tokenAddress",
          "type": "address"
        },
        {
          "internalType": "uint256",
          "name": "_id",
          "type": "uint256"
        }
      ],
      "name": "getSellerPrice",
      "outputs": [
        {
          "internalType": "uint256",
          "name": "",
          "type": "uint256"
        }
      ],
      "stateMutability": "view",
      "type": "function"
    },
    {
      "inputs": [
        {
          "internalType": "contract IERC721",
          "name": "_tokenAddress",
          "type": "address"
        },
        {
          "internalType": "uint256",
          "name": "_id",
          "type": "uint256"
        }
      ],
      "name": "getFinalPrice",
      "outputs": [
        {
          "internalType": "uint256",
          "name": "",
          "type": "uint256"
        }
      ],
      "stateMutability": "view",
      "type": "function"
    },
    {
      "inputs": [
        {
          "internalType": "contract IERC721",
          "name": "_tokenAddress",
          "type": "address"
        },
        {
          "internalType": "uint256",
          "name": "_id",
          "type": "uint256"
        }
      ],
      "name": "getTaxOnListing",
      "outputs": [
        {
          "internalType": "uint256",
          "name": "",
          "type": "uint256"
        }
      ],
      "stateMutability": "view",
      "type": "function"
    },
    {
      "inputs": [
        {
          "internalType": "contract IERC721",
          "name": "_tokenAddress",
          "type": "address"
        },
        {
          "internalType": "uint256",
          "name": "_id",
          "type": "uint256"
        },
        {
          "internalType": "uint256",
          "name": "_price",
          "type": "uint256"
        }
      ],
      "name": "addListing",
      "outputs": [],
      "stateMutability": "nonpayable",
      "type": "function"
    },
    {
      "inputs": [
        {
          "internalType": "contract IERC721",
          "name": "_tokenAddress",
          "type": "address"
        },
        {
          "internalType": "uint256",
          "name": "_id",
          "type": "uint256"
        },
        {
          "internalType": "uint256",
          "name": "_newPrice",
          "type": "uint256"
        }
      ],
      "name": "changeListingPrice",
      "outputs": [],
      "stateMutability": "nonpayable",
      "type": "function"
    },
    {
      "inputs": [
        {
          "internalType": "contract IERC721",
          "name": "_tokenAddress",
          "type": "address"
        },
        {
          "internalType": "uint256",
          "name": "_id",
          "type": "uint256"
        }
      ],
      "name": "cancelListing",
      "outputs": [],
      "stateMutability": "nonpayable",
      "type": "function"
    },
    {
      "inputs": [
        {
          "internalType": "contract IERC721",
          "name": "_tokenAddress",
          "type": "address"
        },
        {
          "internalType": "uint256",
          "name": "_id",
          "type": "uint256"
        },
        {
          "internalType": "uint256",
          "name": "_maxPrice",
          "type": "uint256"
        }
      ],
      "name": "purchaseListing",
      "outputs": [],
      "stateMutability": "nonpayable",
      "type": "function"
    },
    {
      "inputs": [
        {
          "internalType": "address",
          "name": "_taxRecipient",
          "type": "address"
        }
      ],
      "name": "setTaxRecipient",
      "outputs": [],
      "stateMutability": "nonpayable",
      "type": "function"
    },
    {
      "inputs": [
        {
          "internalType": "int128",
          "name": "_defaultTax",
          "type": "int128"
        }
      ],
      "name": "setDefaultTax",
      "outputs": [],
      "stateMutability": "nonpayable",
      "type": "function"
    },
    {
      "inputs": [
        {
          "internalType": "uint256",
          "name": "_numerator",
          "type": "uint256"
        },
        {
          "internalType": "uint256",
          "name": "_denominator",
          "type": "uint256"
        }
      ],
      "name": "setDefaultTaxAsRational",
      "outputs": [],
      "stateMutability": "nonpayable",
      "type": "function"
    },
    {
      "inputs": [
        {
          "internalType": "uint256",
          "name": "_percent",
          "type": "uint256"
        }
      ],
      "name": "setDefaultTaxAsPercent",
      "outputs": [],
      "stateMutability": "nonpayable",
      "type": "function"
    },
    {
      "inputs": [
        {
          "internalType": "contract IERC721",
          "name": "_tokenAddress",
          "type": "address"
        },
        {
          "internalType": "int128",
          "name": "_newTax",
          "type": "int128"
        }
      ],
      "name": "setTaxOnTokenType",
      "outputs": [],
      "stateMutability": "nonpayable",
      "type": "function"
    },
    {
      "inputs": [
        {
          "internalType": "contract IERC721",
          "name": "_tokenAddress",
          "type": "address"
        },
        {
          "internalType": "uint256",
          "name": "_numerator",
          "type": "uint256"
        },
        {
          "internalType": "uint256",
          "name": "_denominator",
          "type": "uint256"
        }
      ],
      "name": "setTaxOnTokenTypeAsRational",
      "outputs": [],
      "stateMutability": "nonpayable",
      "type": "function"
    },
    {
      "inputs": [
        {
          "internalType": "contract IERC721",
          "name": "_tokenAddress",
          "type": "address"
        },
        {
          "internalType": "uint256",
          "name": "_percent",
          "type": "uint256"
        }
      ],
      "name": "setTaxOnTokenTypeAsPercent",
      "outputs": [],
      "stateMutability": "nonpayable",
      "type": "function"
    },
    {
      "inputs": [
        {
          "internalType": "address",
          "name": "user",
          "type": "address"
        },
        {
          "internalType": "bool",
          "name": "to",
          "type": "bool"
        }
      ],
      "name": "setUserBan",
      "outputs": [],
      "stateMutability": "nonpayable",
      "type": "function"
    },
    {
      "inputs": [
        {
          "internalType": "contract IERC721",
          "name": "_tokenAddress",
          "type": "address"
        }
      ],
      "name": "allowToken",
      "outputs": [],
      "stateMutability": "nonpayable",
      "type": "function"
    },
    {
      "inputs": [
        {
          "internalType": "contract IERC721",
          "name": "_tokenAddress",
          "type": "address"
        }
      ],
      "name": "disallowToken",
      "outputs": [],
      "stateMutability": "nonpayable",
      "type": "function"
    },
    {
      "inputs": [
        {
          "internalType": "uint256",
          "name": "amount",
          "type": "uint256"
        }
      ],
      "name": "recoverSkill",
      "outputs": [],
      "stateMutability": "nonpayable",
      "type": "function"
    },
    {
      "inputs": [
        {
          "internalType": "address",
          "name": "",
          "type": "address"
        },
        {
          "internalType": "address",
          "name": "",
          "type": "address"
        },
        {
          "internalType": "uint256",
          "name": "_id",
          "type": "uint256"
        },
        {
          "internalType": "bytes",
          "name": "",
          "type": "bytes"
        }
      ],
      "name": "onERC721Received",
      "outputs": [
        {
          "internalType": "bytes4",
          "name": "",
          "type": "bytes4"
        }
      ],
      "stateMutability": "nonpayable",
      "type": "function"
    }
  ],
  "bytecode": "0x608060405234801561001057600080fd5b50613940806100206000396000f3fe608060405234801561001057600080fd5b50600436106102ba5760003560e01c806386c51fa911610182578063ca15c873116100e9578063d739d8bc116100a2578063e79767af1161007c578063e79767af14610a7a578063ed9999ca14610aa0578063f6d36ccb14610ad2578063f9eaee0d14610b04576102ba565b8063d739d8bc14610a18578063d9db220d14610a46578063e4ca10dc14610a72576102ba565b8063ca15c8731461091b578063cb8da19314610938578063cc8efb141461097d578063d1ebdfd3146109a3578063d547741f146109ab578063d6797562146109d7576102ba565b8063a6f957261161013b578063a6f9572614610820578063b2ddee0614610852578063b53472ef1461087e578063bb782e73146108a4578063c573a97e146108ca578063c7e4ff42146108ed576102ba565b806386c51fa9146107315780639010d07c1461075d57806391d14854146107805780639ed9b4fd146107c0578063a217fddf146107e6578063a5bc3632146107ee576102ba565b80633b75a46a116102265780636891de07116101df5780636891de0714610678578063737ea06e1461068057806374c7b328146106885780637899d80f146106b757806378e3079e146106dd5780637ff57c5714610703576102ba565b80633b75a46a146105a0578063485cc955146105c0578063546b45ac146105ee5780635504d3d21461061c57806364d678681461062457806366a417fe14610641576102ba565b80632731447311610278578063273144731461045f5780632df8c04a146104a75780632f2ff15d146104d357806335e0406f146104ff57806336568abe1461052557806339378fb314610551576102ba565b80621e9187146102bf5780630bb99c57146102fd578063150b7a021461031e5780631a10c902146103cb5780631ac0bab014610423578063248a9ca314610442575b600080fd5b6102eb600480360360408110156102d557600080fd5b506001600160a01b038135169060200135610b2a565b60408051918252519081900360200190f35b610305610b58565b60408051600f92830b90920b8252519081900360200190f35b6103ae6004803603608081101561033457600080fd5b6001600160a01b0382358116926020810135909116916040820135919081019060808101606082013564010000000081111561036f57600080fd5b82018360208201111561038157600080fd5b803590602001918460018302840111640100000000831117156103a357600080fd5b509092509050610b61565b604080516001600160e01b03199092168252519081900360200190f35b6103d3610bfe565b60408051602080825283518183015283519192839290830191858101910280838360005b8381101561040f5781810151838201526020016103f7565b505050509050019250505060405180910390f35b6104406004803603602081101561043957600080fd5b5035610c9e565b005b6102eb6004803603602081101561045857600080fd5b5035610d3c565b61048b6004803603604081101561047557600080fd5b506001600160a01b038135169060200135610d51565b604080516001600160a01b039092168252519081900360200190f35b6102eb600480360360408110156104bd57600080fd5b506001600160a01b038135169060200135610dcd565b610440600480360360408110156104e957600080fd5b50803590602001356001600160a01b0316610e03565b6103d36004803603602081101561051557600080fd5b50356001600160a01b0316610e6f565b6104406004803603604081101561053b57600080fd5b50803590602001356001600160a01b0316610f1a565b6103d3600480360360c081101561056757600080fd5b506001600160a01b038135169060ff60208201358116916040810135916060820135811691608081013582169160a09091013516610f7b565b610440600480360360208110156105b657600080fd5b5035600f0b6111f8565b610440600480360360408110156105d657600080fd5b506001600160a01b038135811691602001351661128a565b6102eb6004803603604081101561060457600080fd5b506001600160a01b03813581169160200135166113a2565b6102eb611433565b6104406004803603602081101561063a57600080fd5b5035611455565b6102eb6004803603606081101561065757600080fd5b506001600160a01b038135169060ff6020820135811691604001351661153e565b6102eb6116c7565b61048b6116ea565b6104406004803603604081101561069e57600080fd5b506001600160a01b038135169060200135600f0b6116f9565b610305600480360360208110156106cd57600080fd5b50356001600160a01b0316611789565b610440600480360360208110156106f357600080fd5b50356001600160a01b031661179e565b6104406004803603604081101561071957600080fd5b506001600160a01b038135811691602001351661182b565b6104406004803603604081101561074757600080fd5b506001600160a01b0381351690602001356118a1565b61048b6004803603604081101561077357600080fd5b508035906020013561193b565b6107ac6004803603604081101561079657600080fd5b50803590602001356001600160a01b0316611959565b604080519115158252519081900360200190f35b6107ac600480360360208110156107d657600080fd5b50356001600160a01b0316611977565b6102eb61198c565b6104406004803603606081101561080457600080fd5b506001600160a01b038135169060208101359060400135611991565b6104406004803603606081101561083657600080fd5b506001600160a01b038135169060208101359060400135611a2b565b6104406004803603604081101561086857600080fd5b506001600160a01b038135169060200135611e1f565b6104406004803603602081101561089457600080fd5b50356001600160a01b03166120a1565b6107ac600480360360208110156108ba57600080fd5b50356001600160a01b0316612138565b610440600480360360408110156108e057600080fd5b508035906020013561214d565b6104406004803603604081101561090357600080fd5b506001600160a01b03813516906020013515156121eb565b6102eb6004803603602081101561093157600080fd5b5035612281565b6103d3600480360360a081101561094e57600080fd5b506001600160a01b038135169060ff602082013581169160408101359160608201358116916080013516612298565b6102eb6004803603602081101561099357600080fd5b50356001600160a01b03166124f3565b61048b612514565b610440600480360360408110156109c157600080fd5b50803590602001356001600160a01b0316612523565b6102eb600480360360808110156109ed57600080fd5b506001600160a01b038135169060ff602082013581169160408101358216916060909101351661257c565b6103d360048036036040811015610a2e57600080fd5b506001600160a01b0381358116916020013516612726565b6102eb60048036036040811015610a5c57600080fd5b506001600160a01b03813516906020013561281d565b6103d3612842565b61044060048036036020811015610a9057600080fd5b50356001600160a01b03166128db565b61044060048036036060811015610ab657600080fd5b506001600160a01b038135169060208101359060400135612957565b61044060048036036060811015610ae857600080fd5b506001600160a01b038135169060208101359060400135612b0d565b6107ac60048036036020811015610b1a57600080fd5b50356001600160a01b0316612d81565b6001600160a01b03821660009081526067602090815260408083208484529091529020600101545b92915050565b606f54600f0b81565b600033610b7560698263ffffffff612d9416565b8015610ba457506001600160a01b0381166000908152606860205260409020610ba4908663ffffffff612da916565b610beb576040805162461bcd60e51b8152602060048201526013602482015272151bdad95b881251081b9bdd081b1a5cdd1959606a1b604482015290519081900360640190fd5b50630a85bd0160e11b9695505050505050565b6060607081610c0c82612db5565b67ffffffffffffffff81118015610c2257600080fd5b50604051908082528060200260200182016040528015610c4c578160200160208202803683370190505b50905060005b8151811015610c9757610c6b838263ffffffff612dc016565b828281518110610c7757fe5b6001600160a01b0390921660209283029190910190910152600101610c52565b5091505090565b604080516923a0a6a2afa0a226a4a760b11b8152905190819003600a019020610cc79033611959565b610d09576040805162461bcd60e51b815260206004820152600e60248201526d2737ba1033b0b6b29030b236b4b760911b604482015290519081900360640190fd5b610d14816064612dcc565b606f8054600f9290920b6001600160801b03166001600160801b031990921691909117905550565b60009081526033602052604090206002015490565b6000610d6460698463ffffffff612d9416565b610d7057506000610b52565b6001600160a01b0383166000908152606860205260409020610d98908363ffffffff612da916565b610da457506000610b52565b506001600160a01b03918216600090815260676020908152604080832093835292905220541690565b6001600160a01b0382166000908152606d6020526040812054610dfc90600f0b610df78585610b2a565b612e0c565b9392505050565b600082815260336020526040902060020154610e2690610e21612e74565b611959565b610e615760405162461bcd60e51b815260040180806020018281038252602f815260200180613828602f913960400191505060405180910390fd5b610e6b8282612e78565b5050565b6001600160a01b038116600090815260686020526040902060609081610e9482612db5565b67ffffffffffffffff81118015610eaa57600080fd5b50604051908082528060200260200182016040528015610ed4578160200160208202803683370190505b50905060005b8151811015610f1257610ef3838263ffffffff612dc016565b828281518110610eff57fe5b6020908102919091010152600101610eda565b509392505050565b610f22612e74565b6001600160a01b0316816001600160a01b031614610f715760405162461bcd60e51b815260040180806020018281038252602f8152602001806138dc602f913960400191505060405180910390fd5b610e6b8282612ee7565b6001600160a01b0386166000908152606860205260408120606091610fa28987878761257c565b905060ff88166001880102600081831015610fc457888a60ff16028303610fc9565b8960ff165b905060608167ffffffffffffffff81118015610fe457600080fd5b5060405190808252806020026020018201604052801561100e578160200160208202803683370190505b509050600080805b61101f88612db5565b8110801561102c57508583105b156111e5576073546000906001600160a01b031663acb586df6110558b8563ffffffff612dc016565b6040518263ffffffff1660e01b81526004018082815260200191505060206040518083038186803b15801561108957600080fd5b505afa15801561109d573d6000803e3d6000fd5b505050506040513d60208110156110b357600080fd5b50516073549091506000906001600160a01b03166386481d406110dc8c8663ffffffff612dc016565b6040518263ffffffff1660e01b81526004018082815260200191505060206040518083038186803b15801561111057600080fd5b505afa158015611124573d6000803e3d6000fd5b505050506040513d602081101561113a57600080fd5b5051905060ff808f16148061115457508d60ff168260ff16145b801561119257508c60ff1660ff148061117057508b60ff1660ff145b8061119257508c60ff168160ff161015801561119257508b60ff168160ff1611155b156111db578f60ff16880385106111d4576111b38a8463ffffffff612dc016565b868560ff16815181106111c257fe5b60209081029190910101526001909301925b6001909401935b5050600101611016565b50919d9c50505050505050505050505050565b604080516923a0a6a2afa0a226a4a760b11b8152905190819003600a0190206112219033611959565b611263576040805162461bcd60e51b815260206004820152600e60248201526d2737ba1033b0b6b29030b236b4b760911b604482015290519081900360640190fd5b606f8054600f9290920b6001600160801b03166001600160801b0319909216919091179055565b600054610100900460ff16806112a357506112a3612f56565b806112b1575060005460ff16155b6112ec5760405162461bcd60e51b815260040180806020018281038252602e815260200180613887602e913960400191505060405180910390fd5b600054610100900460ff16158015611317576000805460ff1961ff0019909116610100171660011790555b61131f612f67565b61132a600033610e61565b606580546001600160a01b038086166001600160a01b03199283161790925560668054928516929091169190911790556113666001600a612dcc565b606f8054600f9290920b6001600160801b03166001600160801b0319909216919091179055801561139d576000805461ff00191690555b505050565b6001600160a01b038216600090815260686020526040812081805b6113c683612db5565b81101561142a576001600160a01b03868116600090815260676020526040812091871691906113fb868563ffffffff612dc016565b81526020810191909152604001600020546001600160a01b03161415611422576001909101905b6001016113bd565b50949350505050565b604080516923a0a6a2afa0a226a4a760b11b8152905190819003600a01902081565b604080516923a0a6a2afa0a226a4a760b11b8152905190819003600a01902061147e9033611959565b6114c0576040805162461bcd60e51b815260206004820152600e60248201526d2737ba1033b0b6b29030b236b4b760911b604482015290519081900360640190fd5b6065546040805163a9059cbb60e01b81523360048201526024810184905290516001600160a01b039092169163a9059cbb916044808201926020929091908290030181600087803b15801561151457600080fd5b505af1158015611528573d6000803e3d6000fd5b505050506040513d602081101561139d57600080fd5b6001600160a01b0383166000908152606860205260408120818080805b61156485612db5565b8110156116ba576072546001600160a01b031663acb586df61158c878463ffffffff612dc016565b6040518263ffffffff1660e01b81526004018082815260200191505060206040518083038186803b1580156115c057600080fd5b505afa1580156115d4573d6000803e3d6000fd5b505050506040513d60208110156115ea57600080fd5b50516072549093506001600160a01b031663adf04f20611610878463ffffffff612dc016565b6040518263ffffffff1660e01b81526004018082815260200191505060206040518083038186803b15801561164457600080fd5b505afa158015611658573d6000803e3d6000fd5b505050506040513d602081101561166e57600080fd5b5051915060ff808916148061168857508760ff168360ff16145b80156116a657508660ff1660ff14806116a657508660ff168260ff16145b156116b2576001909301925b60010161155b565b5091979650505050505050565b606f546000906116e590600f90810b900b606463ffffffff612e0c16565b905090565b6066546001600160a01b031681565b604080516923a0a6a2afa0a226a4a760b11b8152905190819003600a0190206117229033611959565b611764576040805162461bcd60e51b815260206004820152600e60248201526d2737ba1033b0b6b29030b236b4b760911b604482015290519081900360640190fd5b81611776816380ac58cd60e01b613019565b61177f57600080fd5b61139d8383613035565b606d60205260009081526040902054600f0b81565b604080516923a0a6a2afa0a226a4a760b11b8152905190819003600a0190206117c79033611959565b611809576040805162461bcd60e51b815260206004820152600e60248201526d2737ba1033b0b6b29030b236b4b760911b604482015290519081900360640190fd5b606680546001600160a01b0319166001600160a01b0392909216919091179055565b611836600033611959565b611873576040805162461bcd60e51b81526020600482015260096024820152682737ba1030b236b4b760b91b604482015290519081900360640190fd5b607380546001600160a01b039384166001600160a01b03199182161790915560728054929093169116179055565b604080516923a0a6a2afa0a226a4a760b11b8152905190819003600a0190206118ca9033611959565b61190c576040805162461bcd60e51b815260206004820152600e60248201526d2737ba1033b0b6b29030b236b4b760911b604482015290519081900360640190fd5b8161191e816380ac58cd60e01b613019565b61192757600080fd5b61139d83611936846064612dcc565b613035565b6000828152603360205260408120610dfc908363ffffffff612dc016565b6000828152603360205260408120610dfc908363ffffffff612d9416565b606c6020526000908152604090205460ff1681565b600081565b604080516923a0a6a2afa0a226a4a760b11b8152905190819003600a0190206119ba9033611959565b6119fc576040805162461bcd60e51b815260206004820152600e60248201526d2737ba1033b0b6b29030b236b4b760911b604482015290519081900360640190fd5b82611a0e816380ac58cd60e01b613019565b611a1757600080fd5b611a25846119368585612dcc565b50505050565b336000908152606c602052604090205460ff1615611a83576040805162461bcd60e51b815260206004820152601060248201526f466f7262696464656e2061636365737360801b604482015290519081900360640190fd5b8282611a9660698363ffffffff612d9416565b8015611ac557506001600160a01b0382166000908152606860205260409020611ac5908263ffffffff612da916565b611b0c576040805162461bcd60e51b8152602060048201526013602482015272151bdad95b881251081b9bdd081b1a5cdd1959606a1b604482015290519081900360640190fd5b6000611b18868661281d565b905083811115611b66576040805162461bcd60e51b8152602060048201526014602482015273427579696e6720707269636520746f6f206c6f7760601b604482015290519081900360640190fd5b611b6e6137ee565b506001600160a01b038087166000908152606760209081526040808320898452825280832081518083019092528054909416815260019093015490830152611bb68888610dcd565b6001600160a01b03891660008181526067602090815260408083208c8452825280832080546001600160a01b03191681556001018390559282526068905220909150611c08908863ffffffff6130e416565b50611c12886130f0565b606554606654604080516323b872dd60e01b81523360048201526001600160a01b03928316602482015260448101859052905191909216916323b872dd9160648083019260209291908290030181600087803b158015611c7157600080fd5b505af1158015611c85573d6000803e3d6000fd5b505050506040513d6020811015611c9b57600080fd5b505060655482516001600160a01b03909116906323b872dd903390611cc6878663ffffffff61312e16565b6040518463ffffffff1660e01b815260040180846001600160a01b03166001600160a01b03168152602001836001600160a01b03166001600160a01b031681526020018281526020019350505050602060405180830381600087803b158015611d2e57600080fd5b505af1158015611d42573d6000803e3d6000fd5b505050506040513d6020811015611d5857600080fd5b505060408051632142170760e11b81523060048201523360248201526044810189905290516001600160a01b038a16916342842e0e91606480830192600092919082900301818387803b158015611dae57600080fd5b505af1158015611dc2573d6000803e3d6000fd5b50508351604080516001600160a01b0392831681526020810188905281518c9550928d16935033927f7762d23dc0afc60972698afa4f7ab7e5853e961dad5c968fe29b0fd3b14fffb5929181900390910190a45050505050505050565b336000908152606c602052604090205460ff1615611e77576040805162461bcd60e51b815260206004820152601060248201526f466f7262696464656e2061636365737360801b604482015290519081900360640190fd5b8181611e8a60698363ffffffff612d9416565b8015611eb957506001600160a01b0382166000908152606860205260409020611eb9908263ffffffff612da916565b611f00576040805162461bcd60e51b8152602060048201526013602482015272151bdad95b881251081b9bdd081b1a5cdd1959606a1b604482015290519081900360640190fd5b6001600160a01b0380851660009081526067602090815260408083208784529091529020548591859116331480611f5b5750604080516923a0a6a2afa0a226a4a760b11b8152905190819003600a019020611f5b9033611959565b611f9c576040805162461bcd60e51b815260206004820152600d60248201526c1058d8d95cdcc819195b9a5959609a1b604482015290519081900360640190fd5b6001600160a01b0386166000818152606760209081526040808320898452825280832080546001600160a01b03191681556001018390559282526068905220611feb908663ffffffff6130e416565b50611ff5866130f0565b60408051632142170760e11b81523060048201523360248201526044810187905290516001600160a01b038816916342842e0e91606480830192600092919082900301818387803b15801561204957600080fd5b505af115801561205d573d6000803e3d6000fd5b50506040518792506001600160a01b038916915033907fd66e7fc4b7515678684c4cbafb29ad2dbe872f0d8913ac2227c7cfead5d6923490600090a4505050505050565b604080516923a0a6a2afa0a226a4a760b11b8152905190819003600a0190206120ca9033611959565b61210c576040805162461bcd60e51b815260206004820152600e60248201526d2737ba1033b0b6b29030b236b4b760911b604482015290519081900360640190fd5b8061211e816380ac58cd60e01b613019565b61212757600080fd5b61139d60708363ffffffff61318b16565b606b6020526000908152604090205460ff1681565b604080516923a0a6a2afa0a226a4a760b11b8152905190819003600a0190206121769033611959565b6121b8576040805162461bcd60e51b815260206004820152600e60248201526d2737ba1033b0b6b29030b236b4b760911b604482015290519081900360640190fd5b6121c28282612dcc565b606f8054600f9290920b6001600160801b03166001600160801b03199092169190911790555050565b604080516923a0a6a2afa0a226a4a760b11b8152905190819003600a0190206122149033611959565b612256576040805162461bcd60e51b815260206004820152600e60248201526d2737ba1033b0b6b29030b236b4b760911b604482015290519081900360640190fd5b6001600160a01b03919091166000908152606c60205260409020805460ff1916911515919091179055565b6000818152603360205260408120610b5290612db5565b6001600160a01b03851660009081526068602052604081206060916122be88868661153e565b905060ff871660018701026000818310156122e057878960ff160283036122e5565b8860ff165b905060608167ffffffffffffffff8111801561230057600080fd5b5060405190808252806020026020018201604052801561232a578160200160208202803683370190505b509050600080805b61233b88612db5565b8110801561234857508583105b156124e1576072546000906001600160a01b031663acb586df6123718b8563ffffffff612dc016565b6040518263ffffffff1660e01b81526004018082815260200191505060206040518083038186803b1580156123a557600080fd5b505afa1580156123b9573d6000803e3d6000fd5b505050506040513d60208110156123cf57600080fd5b50516072549091506000906001600160a01b031663adf04f206123f88c8663ffffffff612dc016565b6040518263ffffffff1660e01b81526004018082815260200191505060206040518083038186803b15801561242c57600080fd5b505afa158015612440573d6000803e3d6000fd5b505050506040513d602081101561245657600080fd5b5051905060ff808e16148061247057508c60ff168260ff16145b801561248e57508b60ff1660ff148061248e57508b60ff168160ff16145b156124d7578e60ff16880385106124d0576124af8a8463ffffffff612dc016565b868560ff16815181106124be57fe5b60209081029190910101526001909301925b6001909401935b5050600101612332565b50919c9b505050505050505050505050565b6001600160a01b0381166000908152606860205260408120610b5290612db5565b6065546001600160a01b031681565b60008281526033602052604090206002015461254190610e21612e74565b610f715760405162461bcd60e51b81526004018080602001828103825260308152602001806138576030913960400191505060405180910390fd5b6001600160a01b0384166000908152606860205260408120818080805b6125a285612db5565b811015612718576073546001600160a01b03166386481d406125ca878463ffffffff612dc016565b6040518263ffffffff1660e01b81526004018082815260200191505060206040518083038186803b1580156125fe57600080fd5b505afa158015612612573d6000803e3d6000fd5b505050506040513d602081101561262857600080fd5b50516073549093506001600160a01b031663acb586df61264e878463ffffffff612dc016565b6040518263ffffffff1660e01b81526004018082815260200191505060206040518083038186803b15801561268257600080fd5b505afa158015612696573d6000803e3d6000fd5b505050506040513d60208110156126ac57600080fd5b5051915060ff808a1614806126c657508860ff168260ff16145b801561270457508760ff1660ff14806126e257508660ff1660ff145b8061270457508760ff168360ff161015801561270457508660ff168360ff1611155b15612710576001909301925b600101612599565b509198975050505050505050565b6060600061273484846113a2565b90508067ffffffffffffffff8111801561274d57600080fd5b50604051908082528060200260200182016040528015612777578160200160208202803683370190505b506001600160a01b0385166000908152606860205260408120919350805b61279e83612db5565b8110156128135760006127b7848363ffffffff612dc016565b6001600160a01b0389811660009081526067602090815260408083208584529091529020549192508881169116141561280a57808684806001019550815181106127fd57fe5b6020026020010181815250505b50600101612795565b5050505092915050565b6000610dfc61282c8484610dcd565b6128368585610b2a565b9063ffffffff6131a016565b606060698161285082612db5565b67ffffffffffffffff8111801561286657600080fd5b50604051908082528060200260200182016040528015612890578160200160208202803683370190505b50905060005b8151811015610c97576128af838263ffffffff612dc016565b8282815181106128bb57fe5b6001600160a01b0390921660209283029190910190910152600101612896565b604080516923a0a6a2afa0a226a4a760b11b8152905190819003600a0190206129049033611959565b612946576040805162461bcd60e51b815260206004820152600e60248201526d2737ba1033b0b6b29030b236b4b760911b604482015290519081900360640190fd5b610e6b60708263ffffffff6131fa16565b336000908152606c602052604090205460ff16156129af576040805162461bcd60e51b815260206004820152601060248201526f466f7262696464656e2061636365737360801b604482015290519081900360640190fd5b82826129c260698363ffffffff612d9416565b80156129f157506001600160a01b03821660009081526068602052604090206129f1908263ffffffff612da916565b612a38576040805162461bcd60e51b8152602060048201526013602482015272151bdad95b881251081b9bdd081b1a5cdd1959606a1b604482015290519081900360640190fd5b6001600160a01b03808616600090815260676020908152604080832088845290915290205486918691163314612aa5576040805162461bcd60e51b815260206004820152600d60248201526c1058d8d95cdcc819195b9a5959609a1b604482015290519081900360640190fd5b6001600160a01b03871660008181526067602090815260408083208a84528252918290206001018890558151888152915189939233927f35717041cfb73c9917e328a2cdd6bae61d669e3c8b024b049188bb5cd35d00cb92918290030190a450505050505050565b336000908152606c602052604090205460ff1615612b65576040805162461bcd60e51b815260206004820152601060248201526f466f7262696464656e2061636365737360801b604482015290519081900360640190fd5b82612b6f81612d81565b612baa5760405162461bcd60e51b81526004018080602001828103825260278152602001806138b56027913960400191505060405180910390fd5b83612bbc816380ac58cd60e01b613019565b612bc557600080fd5b8484612bd860698363ffffffff612d9416565b1580612c0957506001600160a01b0382166000908152606860205260409020612c07908263ffffffff612da916565b155b612c5a576040805162461bcd60e51b815260206004820152601b60248201527f546f6b656e204944206d757374206e6f74206265206c69737465640000000000604482015290519081900360640190fd5b60408051808201825233815260208082018881526001600160a01b038b81166000818152606785528681208d82528552868120955186546001600160a01b0319169316929092178555915160019094019390935582526068905220612cbf908761320f565b50612cc9876130f0565b60408051632142170760e11b81523360048201523060248201526044810188905290516001600160a01b038916916342842e0e91606480830192600092919082900301818387803b158015612d1d57600080fd5b505af1158015612d31573d6000803e3d6000fd5b50506040805188815290518993506001600160a01b038b16925033917f062bbf144ceb4ac73469f757015d16a5ba66b478ede809652e46b8f30750b4e5919081900360200190a450505050505050565b6000610b5260708363ffffffff612d9416565b6000610dfc836001600160a01b03841661321b565b6000610dfc838361321b565b6000610b5282613233565b6000610dfc8383613237565b600081612dd857600080fd5b6000612de4848461329b565b90506f7fffffffffffffffffffffffffffffff6001600160801b0382161115610dfc57600080fd5b600081612e1b57506000610b52565b600083600f0b1215612e2c57600080fd5b600f83900b6001600160801b038316810260401c90608084901c026001600160c01b03811115612e5b57600080fd5b60401b8119811115612e6c57600080fd5b019392505050565b3390565b6000828152603360205260409020612e96908263ffffffff61318b16565b15610e6b57612ea3612e74565b6001600160a01b0316816001600160a01b0316837f2f8788117e7eff1d82e926ec794901d17c78024a50270940304540a733656f0d60405160405180910390a45050565b6000828152603360205260409020612f05908263ffffffff6131fa16565b15610e6b57612f12612e74565b6001600160a01b0316816001600160a01b0316837ff6391f5c32d9c69d2a47ea670b442974b53935d1edc7fd64eb21e047a839171b60405160405180910390a45050565b6000612f61306133e5565b15905090565b600054610100900460ff1680612f805750612f80612f56565b80612f8e575060005460ff16155b612fc95760405162461bcd60e51b815260040180806020018281038252602e815260200180613887602e913960400191505060405180910390fd5b600054610100900460ff16158015612ff4576000805460ff1961ff0019909116610100171660011790555b612ffc6133eb565b6130046133eb565b8015613016576000805461ff00191690555b50565b60006130248361348b565b8015610dfc5750610dfc83836134be565b600081600f0b121561308e576040805162461bcd60e51b815260206004820181905260248201527f5765277265206e6f742072756e6e696e67206120636861726974792068657265604482015290519081900360640190fd5b6001600160a01b03919091166000908152606d6020908152604080832080546001600160801b0319166001600160801b03600f9690960b958616179055606e90915290208054911560ff19909216919091179055565b6000610dfc83836134e4565b6001600160a01b038116600090815260686020526040812061311190612db5565b111561312557613120816135aa565b613016565b6130168161365f565b600082821115613185576040805162461bcd60e51b815260206004820152601e60248201527f536166654d6174683a207375627472616374696f6e206f766572666c6f770000604482015290519081900360640190fd5b50900390565b6000610dfc836001600160a01b038416613670565b600082820183811015610dfc576040805162461bcd60e51b815260206004820152601b60248201527f536166654d6174683a206164646974696f6e206f766572666c6f770000000000604482015290519081900360640190fd5b6000610dfc836001600160a01b0384166134e4565b6000610dfc8383613670565b60009081526001919091016020526040902054151590565b5490565b815460009082106132795760405162461bcd60e51b81526004018080602001828103825260228152602001806138066022913960400191505060405180910390fd5b82600001828154811061328857fe5b9060005260206000200154905092915050565b6000816132a757600080fd5b60006001600160c01b0384116132cc5782604085901b816132c457fe5b0490506133d1565b60c084811c64010000000081106132e5576020918201911c5b6201000081106132f7576010918201911c5b6101008110613308576008918201911c5b60108110613318576004918201911c5b60048110613328576002918201911c5b60028110613337576001820191505b60bf820360018603901c6001018260ff0387901b8161335257fe5b0492506001600160801b0383111561336957600080fd5b608085901c83026001600160801b038616840260c088901c604089901b82811015613395576001820391505b608084901b929003828110156133ac576001820391505b829003608084901c82146133bc57fe5b8881816133c557fe5b04870196505050505050505b6001600160801b03811115610dfc57600080fd5b3b151590565b600054610100900460ff16806134045750613404612f56565b80613412575060005460ff16155b61344d5760405162461bcd60e51b815260040180806020018281038252602e815260200180613887602e913960400191505060405180910390fd5b600054610100900460ff16158015613004576000805460ff1961ff0019909116610100171660011790558015613016576000805461ff001916905550565b600061349e826301ffc9a760e01b6134be565b8015610b5257506134b7826001600160e01b03196134be565b1592915050565b60008060006134cd85856136ba565b915091508180156134db5750805b95945050505050565b600081815260018301602052604081205480156135a0578354600019808301919081019060009087908390811061351757fe5b906000526020600020015490508087600001848154811061353457fe5b60009182526020808320909101929092558281526001898101909252604090209084019055865487908061356457fe5b60019003818190600052602060002001600090559055866001016000878152602001908152602001600020600090556001945050505050610b52565b6000915050610b52565b6135bb60698263ffffffff612d9416565b613016576135d060698263ffffffff61318b16565b506001600160a01b0381166000908152606d6020526040902054600f90810b900b15801561361757506001600160a01b0381166000908152606e602052604090205460ff16155b1561301657606f546001600160a01b0382166000908152606d602052604090208054600f92830b90920b6001600160801b03166001600160801b031990921691909117905550565b610e6b60698263ffffffff6131fa16565b600061367c838361321b565b6136b257508154600181810184556000848152602080822090930184905584548482528286019093526040902091909155610b52565b506000610b52565b604080516001600160e01b0319831660248083019190915282518083039091018152604490910182526020810180516001600160e01b03166301ffc9a760e01b1781529151815160009384939284926060926001600160a01b038a169261753092879282918083835b602083106137425780518252601f199092019160209182019101613723565b6001836020036101000a0380198251168184511680821785525050505050509050019150506000604051808303818686fa925050503d80600081146137a3576040519150601f19603f3d011682016040523d82523d6000602084013e6137a8565b606091505b50915091506020815110156137c657600080945094505050506137e7565b818180602001905160208110156137dc57600080fd5b505190955093505050505b9250929050565b60408051808201909152600080825260208201529056fe456e756d657261626c655365743a20696e646578206f7574206f6620626f756e6473416363657373436f6e74726f6c3a2073656e646572206d75737420626520616e2061646d696e20746f206772616e74416363657373436f6e74726f6c3a2073656e646572206d75737420626520616e2061646d696e20746f207265766f6b65496e697469616c697a61626c653a20636f6e747261637420697320616c726561647920696e697469616c697a6564546869732074797065206f66204e4654206d6179206e6f74206265207472616465642068657265416363657373436f6e74726f6c3a2063616e206f6e6c792072656e6f756e636520726f6c657320666f722073656c66a26469706673582212206e5899ea136205cfe33e8964bf78aacd0fad07f5841b2a6cdea9bb314f53161d64736f6c63430006050033",
  "immutableReferences": {},
  "source": "pragma solidity ^0.6.0;\r\n\r\nimport \"@openzeppelin/contracts-upgradeable/proxy/Initializable.sol\";\r\nimport \"@openzeppelin/contracts-upgradeable/access/AccessControlUpgradeable.sol\";\r\nimport \"@openzeppelin/contracts-upgradeable/token/ERC721/IERC721ReceiverUpgradeable.sol\";\r\nimport \"../node_modules/@openzeppelin/contracts/utils/EnumerableSet.sol\";\r\nimport \"../node_modules/@openzeppelin/contracts/math/SafeMath.sol\";\r\nimport \"../node_modules/@openzeppelin/contracts/introspection/ERC165Checker.sol\";\r\nimport \"../node_modules/@openzeppelin/contracts/token/ERC20/IERC20.sol\";\r\nimport \"../node_modules/@openzeppelin/contracts/token/ERC721/IERC721.sol\";\r\nimport \"../node_modules/abdk-libraries-solidity/ABDKMath64x64.sol\";\r\nimport \"./interfaces/IPriceOracle.sol\";\r\nimport \"./characters.sol\";\r\nimport \"./weapons.sol\";\r\n\r\n// *****************************************************************************\r\n// *** NOTE: almost all uses of _tokenAddress in this contract are UNSAFE!!! ***\r\n// *****************************************************************************\r\ncontract NFTMarket is\r\n    IERC721ReceiverUpgradeable,\r\n    Initializable,\r\n    AccessControlUpgradeable\r\n{\r\n    using SafeMath for uint256;\r\n    using ABDKMath64x64 for int128; // kroge beware\r\n    using EnumerableSet for EnumerableSet.UintSet;\r\n    using EnumerableSet for EnumerableSet.AddressSet;\r\n\r\n    bytes4 private constant _INTERFACE_ID_ERC721 = 0x80ac58cd;\r\n\r\n    bytes32 public constant GAME_ADMIN = keccak256(\"GAME_ADMIN\");\r\n\r\n    // ############\r\n    // Initializer\r\n    // ############\r\n    function initialize(IERC20 _skillToken, address _taxRecipient)\r\n        public\r\n        initializer\r\n    {\r\n        __AccessControl_init();\r\n\r\n        _setupRole(DEFAULT_ADMIN_ROLE, msg.sender);\r\n\r\n        skillToken = _skillToken;\r\n\r\n        taxRecipient = _taxRecipient;\r\n        defaultTax = ABDKMath64x64.divu(1, 10); // 10%\r\n    }\r\n\r\n    function migrateTo_a98a9ac(Characters _charactersContract, Weapons _weaponsContract) external {\r\n        require(hasRole(DEFAULT_ADMIN_ROLE, msg.sender), \"Not admin\");\r\n\r\n        characters = _charactersContract;\r\n        weapons = _weaponsContract;\r\n    }\r\n\r\n    // basic listing; we can easily offer other types (auction / buy it now)\r\n    // if the struct can be extended, that's one way, otherwise different mapping per type.\r\n    struct Listing {\r\n        address seller;\r\n        uint256 price;\r\n        //int128 usdTether; // this would be to \"tether\" price dynamically to our oracle\r\n    }\r\n\r\n    // ############\r\n    // State\r\n    // ############\r\n    IERC20 public skillToken; //0x154A9F9cbd3449AD22FDaE23044319D6eF2a1Fab;\r\n    address public taxRecipient; //game contract\r\n    //IPriceOracle public priceOracleSkillPerUsd; // we may want this for dynamic pricing\r\n\r\n    // address is IERC721 -- kept like this because of OpenZeppelin upgrade plugin bug\r\n    mapping(address => mapping(uint256 => Listing)) private listings;\r\n    // address is IERC721 -- kept like this because of OpenZeppelin upgrade plugin bug\r\n    mapping(address => EnumerableSet.UintSet) private listedTokenIDs;\r\n    // address is IERC721\r\n    EnumerableSet.AddressSet private listedTokenTypes; // stored for a way to know the types we have on offer\r\n\r\n    // UNUSED; KEPT FOR UPGRADEABILITY PROXY COMPATIBILITY\r\n    mapping(address => bool) public isTokenBanned;\r\n\r\n    // address is IERC721 -- kept like this because of OpenZeppelin upgrade plugin bug\r\n    mapping(address => bool) public isUserBanned;\r\n\r\n    // address is IERC721 -- kept like this because of OpenZeppelin upgrade plugin bug\r\n    mapping(address => int128) public tax; // per NFT type tax\r\n    // address is IERC721 -- kept like this because of OpenZeppelin upgrade plugin bug\r\n    mapping(address => bool) private freeTax; // since tax is 0-default, this specifies it to fix an exploit\r\n    int128 public defaultTax; // fallback in case we haven't specified it\r\n\r\n    // address is IERC721 -- kept like this because of OpenZeppelin upgrade plugin bug\r\n    EnumerableSet.AddressSet private allowedTokenTypes;\r\n\r\n    Weapons internal weapons;\r\n    Characters internal characters;\r\n\r\n    // ############\r\n    // Events\r\n    // ############\r\n    event NewListing(\r\n        address indexed seller,\r\n        IERC721 indexed nftAddress,\r\n        uint256 indexed nftID,\r\n        uint256 price\r\n    );\r\n    event ListingPriceChange(\r\n        address indexed seller,\r\n        IERC721 indexed nftAddress,\r\n        uint256 indexed nftID,\r\n        uint256 newPrice\r\n    );\r\n    event CancelledListing(\r\n        address indexed seller,\r\n        IERC721 indexed nftAddress,\r\n        uint256 indexed nftID\r\n    );\r\n    event PurchasedListing(\r\n        address indexed buyer,\r\n        address seller,\r\n        IERC721 indexed nftAddress,\r\n        uint256 indexed nftID,\r\n        uint256 price\r\n    );\r\n\r\n    // ############\r\n    // Modifiers\r\n    // ############\r\n    modifier restricted() {\r\n        require(hasRole(GAME_ADMIN, msg.sender), \"Not game admin\");\r\n        _;\r\n    }\r\n\r\n    modifier isListed(IERC721 _tokenAddress, uint256 id) {\r\n        require(\r\n            listedTokenTypes.contains(address(_tokenAddress)) &&\r\n                listedTokenIDs[address(_tokenAddress)].contains(id),\r\n            \"Token ID not listed\"\r\n        );\r\n        _;\r\n    }\r\n\r\n    modifier isNotListed(IERC721 _tokenAddress, uint256 id) {\r\n        require(\r\n            !listedTokenTypes.contains(address(_tokenAddress)) ||\r\n                !listedTokenIDs[address(_tokenAddress)].contains(id),\r\n            \"Token ID must not be listed\"\r\n        );\r\n        _;\r\n    }\r\n\r\n    modifier isSeller(IERC721 _tokenAddress, uint256 id) {\r\n        require(\r\n            listings[address(_tokenAddress)][id].seller == msg.sender,\r\n            \"Access denied\"\r\n        );\r\n        _;\r\n    }\r\n\r\n    modifier isSellerOrAdmin(IERC721 _tokenAddress, uint256 id) {\r\n        require(\r\n            listings[address(_tokenAddress)][id].seller == msg.sender ||\r\n                hasRole(GAME_ADMIN, msg.sender),\r\n            \"Access denied\"\r\n        );\r\n        _;\r\n    }\r\n\r\n    modifier tokenNotBanned(IERC721 _tokenAddress) {\r\n        require(\r\n            isTokenAllowed(_tokenAddress),\r\n            \"This type of NFT may not be traded here\"\r\n        );\r\n        _;\r\n    }\r\n\r\n    modifier userNotBanned() {\r\n        require(isUserBanned[msg.sender] == false, \"Forbidden access\");\r\n        _;\r\n    }\r\n\r\n    modifier isValidERC721(IERC721 _tokenAddress) {\r\n        require(\r\n            ERC165Checker.supportsInterface(\r\n                address(_tokenAddress),\r\n                _INTERFACE_ID_ERC721\r\n            )\r\n        );\r\n        _;\r\n    }\r\n\r\n    // ############\r\n    // Views\r\n    // ############\r\n    function isTokenAllowed(IERC721 _tokenAddress) public view returns (bool) {\r\n        return allowedTokenTypes.contains(address(_tokenAddress));\r\n    }\r\n\r\n    function getAllowedTokenTypes() public view returns (IERC721[] memory) {\r\n        EnumerableSet.AddressSet storage set = allowedTokenTypes;\r\n        IERC721[] memory tokens = new IERC721[](set.length());\r\n\r\n        for (uint256 i = 0; i < tokens.length; i++) {\r\n            tokens[i] = IERC721(set.at(i));\r\n        }\r\n        return tokens;\r\n    }\r\n\r\n    function getSellerOfNftID(IERC721 _tokenAddress, uint256 _tokenId) public view returns (address) {\r\n        if(!listedTokenTypes.contains(address(_tokenAddress))) {\r\n            return address(0);\r\n        }\r\n\r\n        if(!listedTokenIDs[address(_tokenAddress)].contains(_tokenId)) {\r\n            return address(0);\r\n        }\r\n\r\n        return listings[address(_tokenAddress)][_tokenId].seller;\r\n    }\r\n\r\n    function defaultTaxAsRoundedPercentRoughEstimate() public view returns (uint256) {\r\n        return defaultTax.mulu(100);\r\n    }\r\n\r\n    function getListedTokenTypes() public view returns (IERC721[] memory) {\r\n        EnumerableSet.AddressSet storage set = listedTokenTypes;\r\n        IERC721[] memory tokens = new IERC721[](set.length());\r\n\r\n        for (uint256 i = 0; i < tokens.length; i++) {\r\n            tokens[i] = IERC721(set.at(i));\r\n        }\r\n        return tokens;\r\n    }\r\n\r\n    function getListingIDs(IERC721 _tokenAddress)\r\n        public\r\n        view\r\n        returns (uint256[] memory)\r\n    {\r\n        EnumerableSet.UintSet storage set = listedTokenIDs[address(_tokenAddress)];\r\n        uint256[] memory tokens = new uint256[](set.length());\r\n\r\n        for (uint256 i = 0; i < tokens.length; i++) {\r\n            tokens[i] = set.at(i);\r\n        }\r\n        return tokens;\r\n    }\r\n\r\n    function getWeaponListingIDsPage(IERC721 _tokenAddress, uint8 _limit, uint256 _pageNumber, uint8 _trait, uint8 _stars)\r\n        public\r\n        view\r\n        returns (uint256[] memory)\r\n    {\r\n        EnumerableSet.UintSet storage set = listedTokenIDs[address(_tokenAddress)];\r\n        uint256 matchingWeaponsAmount = getNumberOfWeaponListings(_tokenAddress, _trait, _stars);\r\n        uint256 pageEnd = _limit * (_pageNumber + 1);\r\n        uint256 tokensSize = matchingWeaponsAmount >= pageEnd ? _limit : matchingWeaponsAmount - (_limit * _pageNumber);\r\n        uint256[] memory tokens = new uint256[](tokensSize);\r\n\r\n        uint256 counter = 0;\r\n        uint8 tokenIterator = 0;\r\n        for (uint256 i = 0; i < set.length() && counter < pageEnd; i++) {\r\n            uint8 weaponTrait = weapons.getTrait(set.at(i));\r\n            uint8 weaponStars = weapons.getStars(set.at(i));\r\n            if((_trait == 255 || weaponTrait == _trait) && (_stars == 255 || weaponStars == _stars)) {\r\n                if(counter >= pageEnd - _limit) {\r\n                    tokens[tokenIterator] = set.at(i);\r\n                    tokenIterator++;\r\n                }\r\n                counter++;\r\n            }\r\n        }\r\n\r\n        return tokens;\r\n    }\r\n\r\n    function getCharacterListingIDsPage(IERC721 _tokenAddress, uint8 _limit, uint256 _pageNumber, uint8 _trait, uint8 _minLevel, uint8 _maxLevel)\r\n        public\r\n        view\r\n        returns (uint256[] memory)\r\n    {\r\n        EnumerableSet.UintSet storage set = listedTokenIDs[address(_tokenAddress)];\r\n        uint256 matchingCharactersAmount = getNumberOfCharacterListings(_tokenAddress, _trait, _minLevel, _maxLevel);\r\n        uint256 pageEnd = _limit * (_pageNumber + 1);\r\n        uint256 tokensSize = matchingCharactersAmount >= pageEnd ? _limit : matchingCharactersAmount - (_limit * _pageNumber);\r\n        uint256[] memory tokens = new uint256[](tokensSize);\r\n\r\n        uint256 counter = 0;\r\n        uint8 tokenIterator = 0;\r\n        for (uint256 i = 0; i < set.length() && counter < pageEnd; i++) {\r\n            uint8 characterTrait = characters.getTrait(set.at(i));\r\n            uint8 characterLevel = characters.getLevel(set.at(i));\r\n             if((_trait == 255 || characterTrait == _trait) && (_minLevel == 255 || _maxLevel == 255 || (characterLevel >= _minLevel && characterLevel <= _maxLevel))) {\r\n                if(counter >= pageEnd - _limit) {\r\n                    tokens[tokenIterator] = set.at(i);\r\n                    tokenIterator++;\r\n                }\r\n                counter++;\r\n            }\r\n        }\r\n\r\n        return tokens;\r\n    }\r\n\r\n    function getNumberOfListingsBySeller(\r\n        IERC721 _tokenAddress,\r\n        address _seller\r\n    ) public view returns (uint256) {\r\n        EnumerableSet.UintSet storage listedTokens = listedTokenIDs[address(_tokenAddress)];\r\n\r\n        uint256 amount = 0;\r\n        for (uint256 i = 0; i < listedTokens.length(); i++) {\r\n            if (\r\n                listings[address(_tokenAddress)][listedTokens.at(i)].seller == _seller\r\n            ) amount++;\r\n        }\r\n\r\n        return amount;\r\n    }\r\n\r\n    function getListingIDsBySeller(IERC721 _tokenAddress, address _seller)\r\n        public\r\n        view\r\n        returns (uint256[] memory tokens)\r\n    {\r\n        // NOTE: listedTokens is enumerated twice (once for length calc, once for getting token IDs)\r\n        uint256 amount = getNumberOfListingsBySeller(_tokenAddress, _seller);\r\n        tokens = new uint256[](amount);\r\n\r\n        EnumerableSet.UintSet storage listedTokens = listedTokenIDs[address(_tokenAddress)];\r\n\r\n        uint256 index = 0;\r\n        for (uint256 i = 0; i < listedTokens.length(); i++) {\r\n            uint256 id = listedTokens.at(i);\r\n            if (listings[address(_tokenAddress)][id].seller == _seller)\r\n                tokens[index++] = id;\r\n        }\r\n    }\r\n\r\n    function getNumberOfListingsForToken(IERC721 _tokenAddress)\r\n        public\r\n        view\r\n        returns (uint256)\r\n    {\r\n        return listedTokenIDs[address(_tokenAddress)].length();\r\n    }\r\n\r\n    function getNumberOfCharacterListings(IERC721 _tokenAddress, uint8 _trait, uint8 _minLevel, uint8 _maxLevel)\r\n        public\r\n        view\r\n        returns (uint256)\r\n    {\r\n        EnumerableSet.UintSet storage listedTokens = listedTokenIDs[address(_tokenAddress)];\r\n        uint256 counter = 0;\r\n        uint8 characterLevel;\r\n        uint8 characterTrait;\r\n        for(uint256 i = 0; i < listedTokens.length(); i++) {\r\n            characterLevel = characters.getLevel(listedTokens.at(i));\r\n            characterTrait = characters.getTrait(listedTokens.at(i));\r\n            if((_trait == 255 || characterTrait == _trait) && (_minLevel == 255 || _maxLevel == 255 || (characterLevel >= _minLevel && characterLevel <= _maxLevel))) {\r\n                counter++;\r\n            }\r\n        }\r\n        return counter;\r\n    }\r\n\r\n    function getNumberOfWeaponListings(IERC721 _tokenAddress, uint8 _trait, uint8 _stars)\r\n        public\r\n        view\r\n        returns (uint256)\r\n    {\r\n        EnumerableSet.UintSet storage listedTokens = listedTokenIDs[address(_tokenAddress)];\r\n        uint256 counter = 0;\r\n        uint8 weaponTrait;\r\n        uint8 weaponStars;\r\n        for(uint256 i = 0; i < listedTokens.length(); i++) {\r\n            weaponTrait = weapons.getTrait(listedTokens.at(i));\r\n            weaponStars = weapons.getStars(listedTokens.at(i));\r\n            if((_trait == 255 || weaponTrait == _trait) && (_stars == 255 || weaponStars == _stars)) {\r\n                counter++;\r\n            }\r\n        }\r\n        return counter;\r\n    }\r\n\r\n    function getSellerPrice(IERC721 _tokenAddress, uint256 _id)\r\n        public\r\n        view\r\n        returns (uint256)\r\n    {\r\n        return listings[address(_tokenAddress)][_id].price;\r\n    }\r\n\r\n    function getFinalPrice(IERC721 _tokenAddress, uint256 _id)\r\n        public\r\n        view\r\n        returns (uint256)\r\n    {\r\n        return\r\n            getSellerPrice(_tokenAddress, _id).add(\r\n                getTaxOnListing(_tokenAddress, _id)\r\n            );\r\n    }\r\n\r\n    function getTaxOnListing(IERC721 _tokenAddress, uint256 _id)\r\n        public\r\n        view\r\n        returns (uint256)\r\n    {\r\n        return\r\n            ABDKMath64x64.mulu(\r\n                tax[address(_tokenAddress)],\r\n                getSellerPrice(_tokenAddress, _id)\r\n            );\r\n    }\r\n\r\n    // ############\r\n    // Mutative\r\n    // ############\r\n    function addListing(\r\n        IERC721 _tokenAddress,\r\n        uint256 _id,\r\n        uint256 _price\r\n    )\r\n        public\r\n        userNotBanned\r\n        tokenNotBanned(_tokenAddress)\r\n        isValidERC721(_tokenAddress)\r\n        isNotListed(_tokenAddress, _id)\r\n    {\r\n        listings[address(_tokenAddress)][_id] = Listing(msg.sender, _price);\r\n        listedTokenIDs[address(_tokenAddress)].add(_id);\r\n\r\n        _updateListedTokenTypes(_tokenAddress);\r\n\r\n        // in theory the transfer and required approval already test non-owner operations\r\n        _tokenAddress.safeTransferFrom(msg.sender, address(this), _id);\r\n\r\n        emit NewListing(msg.sender, _tokenAddress, _id, _price);\r\n    }\r\n\r\n    function changeListingPrice(\r\n        IERC721 _tokenAddress,\r\n        uint256 _id,\r\n        uint256 _newPrice\r\n    )\r\n        public\r\n        userNotBanned\r\n        isListed(_tokenAddress, _id)\r\n        isSeller(_tokenAddress, _id)\r\n    {\r\n        listings[address(_tokenAddress)][_id].price = _newPrice;\r\n        emit ListingPriceChange(\r\n            msg.sender,\r\n            _tokenAddress,\r\n            _id,\r\n            _newPrice\r\n        );\r\n    }\r\n\r\n    function cancelListing(IERC721 _tokenAddress, uint256 _id)\r\n        public\r\n        userNotBanned\r\n        isListed(_tokenAddress, _id)\r\n        isSellerOrAdmin(_tokenAddress, _id)\r\n    {\r\n        delete listings[address(_tokenAddress)][_id];\r\n        listedTokenIDs[address(_tokenAddress)].remove(_id);\r\n\r\n        _updateListedTokenTypes(_tokenAddress);\r\n\r\n        _tokenAddress.safeTransferFrom(address(this), msg.sender, _id);\r\n\r\n        emit CancelledListing(msg.sender, _tokenAddress, _id);\r\n    }\r\n\r\n    function purchaseListing(\r\n        IERC721 _tokenAddress,\r\n        uint256 _id,\r\n        uint256 _maxPrice\r\n    ) public userNotBanned isListed(_tokenAddress, _id) {\r\n        uint256 finalPrice = getFinalPrice(_tokenAddress, _id);\r\n        require(finalPrice <= _maxPrice, \"Buying price too low\");\r\n\r\n        Listing memory listing = listings[address(_tokenAddress)][_id];\r\n        uint256 taxAmount = getTaxOnListing(_tokenAddress, _id);\r\n\r\n        delete listings[address(_tokenAddress)][_id];\r\n        listedTokenIDs[address(_tokenAddress)].remove(_id);\r\n        _updateListedTokenTypes(_tokenAddress);\r\n\r\n        skillToken.transferFrom(msg.sender, taxRecipient, taxAmount);\r\n        skillToken.transferFrom(\r\n            msg.sender,\r\n            listing.seller,\r\n            finalPrice.sub(taxAmount)\r\n        );\r\n        _tokenAddress.safeTransferFrom(address(this), msg.sender, _id);\r\n\r\n        emit PurchasedListing(\r\n            msg.sender,\r\n            listing.seller,\r\n            _tokenAddress,\r\n            _id,\r\n            finalPrice\r\n        );\r\n    }\r\n\r\n    function setTaxRecipient(address _taxRecipient) public restricted {\r\n        taxRecipient = _taxRecipient;\r\n    }\r\n\r\n    function setDefaultTax(int128 _defaultTax) public restricted {\r\n        defaultTax = _defaultTax;\r\n    }\r\n\r\n    function setDefaultTaxAsRational(uint256 _numerator, uint256 _denominator)\r\n        public\r\n        restricted\r\n    {\r\n        defaultTax = ABDKMath64x64.divu(_numerator, _denominator);\r\n    }\r\n\r\n    function setDefaultTaxAsPercent(uint256 _percent) public restricted {\r\n        defaultTax = ABDKMath64x64.divu(_percent, 100);\r\n    }\r\n\r\n    function setTaxOnTokenType(IERC721 _tokenAddress, int128 _newTax)\r\n        public\r\n        restricted\r\n        isValidERC721(_tokenAddress)\r\n    {\r\n        _setTaxOnTokenType(_tokenAddress, _newTax);\r\n    }\r\n\r\n    function setTaxOnTokenTypeAsRational(\r\n        IERC721 _tokenAddress,\r\n        uint256 _numerator,\r\n        uint256 _denominator\r\n    ) public restricted isValidERC721(_tokenAddress) {\r\n        _setTaxOnTokenType(\r\n            _tokenAddress,\r\n            ABDKMath64x64.divu(_numerator, _denominator)\r\n        );\r\n    }\r\n\r\n    function setTaxOnTokenTypeAsPercent(\r\n        IERC721 _tokenAddress,\r\n        uint256 _percent\r\n    ) public restricted isValidERC721(_tokenAddress) {\r\n        _setTaxOnTokenType(\r\n            _tokenAddress,\r\n            ABDKMath64x64.divu(_percent, 100)\r\n        );\r\n    }\r\n\r\n    function setUserBan(address user, bool to) public restricted {\r\n        isUserBanned[user] = to;\r\n    }\r\n\r\n    function allowToken(IERC721 _tokenAddress) public restricted isValidERC721(_tokenAddress) {\r\n        allowedTokenTypes.add(address(_tokenAddress));\r\n    }\r\n\r\n    function disallowToken(IERC721 _tokenAddress) public restricted {\r\n        allowedTokenTypes.remove(address(_tokenAddress));\r\n    }\r\n\r\n    function recoverSkill(uint256 amount) public restricted {\r\n        skillToken.transfer(msg.sender, amount); // dont expect we'll hold tokens here but might as well\r\n    }\r\n\r\n    function onERC721Received(\r\n        address, /* operator */\r\n        address, /* from */\r\n        uint256 _id,\r\n        bytes calldata /* data */\r\n    ) external override returns (bytes4) {\r\n        // NOTE: The contract address is always the message sender.\r\n        address _tokenAddress = msg.sender;\r\n\r\n        require(\r\n            listedTokenTypes.contains(_tokenAddress) &&\r\n                listedTokenIDs[_tokenAddress].contains(_id),\r\n            \"Token ID not listed\"\r\n        );\r\n\r\n        return IERC721ReceiverUpgradeable.onERC721Received.selector;\r\n    }\r\n\r\n    // ############\r\n    // Internal helpers\r\n    // ############\r\n    function _setTaxOnTokenType(IERC721 tokenAddress, int128 newTax) private {\r\n        require(newTax >= 0, \"We're not running a charity here\");\r\n        tax[address(tokenAddress)] = newTax;\r\n        freeTax[address(tokenAddress)] = newTax == 0;\r\n    }\r\n\r\n    function _updateListedTokenTypes(IERC721 tokenAddress) private {\r\n        if (listedTokenIDs[address(tokenAddress)].length() > 0) {\r\n            _registerTokenAddress(tokenAddress);\r\n        } else {\r\n            _unregisterTokenAddress(tokenAddress);\r\n        }\r\n    }\r\n\r\n    function _registerTokenAddress(IERC721 tokenAddress) private {\r\n        if (!listedTokenTypes.contains(address(tokenAddress))) {\r\n            listedTokenTypes.add(address(tokenAddress));\r\n\r\n            // this prevents resetting custom tax by removing all\r\n            if (\r\n                tax[address(tokenAddress)] == 0 && // unset or intentionally free\r\n                freeTax[address(tokenAddress)] == false\r\n            ) tax[address(tokenAddress)] = defaultTax;\r\n        }\r\n    }\r\n\r\n    function _unregisterTokenAddress(IERC721 tokenAddress) private {\r\n        listedTokenTypes.remove(address(tokenAddress));\r\n    }\r\n}\r\n",
  "sourcePath": "F:/vscode/cblades/contracts/NFTMarket.sol",
  "compiler": {
    "name": "solc",
    "version": "0.6.5+commit.f956cc89.Emscripten.clang"
  },
  "schemaVersion": "3.3.4",
  "updatedAt": "2021-07-22T21:42:31.848Z",
  "devdoc": {
    "methods": {
      "getRoleAdmin(bytes32)": {
        "details": "Returns the admin role that controls `role`. See {grantRole} and {revokeRole}.     * To change a role's admin, use {_setRoleAdmin}."
      },
      "getRoleMember(bytes32,uint256)": {
        "details": "Returns one of the accounts that have `role`. `index` must be a value between 0 and {getRoleMemberCount}, non-inclusive.     * Role bearers are not sorted in any particular way, and their ordering may change at any point.     * WARNING: When using {getRoleMember} and {getRoleMemberCount}, make sure you perform all queries on the same block. See the following https://forum.openzeppelin.com/t/iterating-over-elements-on-enumerableset-in-openzeppelin-contracts/2296[forum post] for more information."
      },
      "getRoleMemberCount(bytes32)": {
        "details": "Returns the number of accounts that have `role`. Can be used together with {getRoleMember} to enumerate all bearers of a role."
      },
      "grantRole(bytes32,address)": {
        "details": "Grants `role` to `account`.     * If `account` had not been already granted `role`, emits a {RoleGranted} event.     * Requirements:     * - the caller must have ``role``'s admin role."
      },
      "hasRole(bytes32,address)": {
        "details": "Returns `true` if `account` has been granted `role`."
      },
      "renounceRole(bytes32,address)": {
        "details": "Revokes `role` from the calling account.     * Roles are often managed via {grantRole} and {revokeRole}: this function's purpose is to provide a mechanism for accounts to lose their privileges if they are compromised (such as when a trusted device is misplaced).     * If the calling account had been granted `role`, emits a {RoleRevoked} event.     * Requirements:     * - the caller must be `account`."
      },
      "revokeRole(bytes32,address)": {
        "details": "Revokes `role` from `account`.     * If `account` had been granted `role`, emits a {RoleRevoked} event.     * Requirements:     * - the caller must have ``role``'s admin role."
      }
    }
  },
  "userdoc": {
    "methods": {}
  }
}