{
  "contractName": "Promos",
  "abi": [
    {
      "anonymous": false,
      "inputs": [
        {
          "indexed": true,
          "internalType": "bytes32",
          "name": "role",
          "type": "bytes32"
        },
        {
          "indexed": true,
          "internalType": "bytes32",
          "name": "previousAdminRole",
          "type": "bytes32"
        },
        {
          "indexed": true,
          "internalType": "bytes32",
          "name": "newAdminRole",
          "type": "bytes32"
        }
      ],
      "name": "RoleAdminChanged",
      "type": "event"
    },
    {
      "anonymous": false,
      "inputs": [
        {
          "indexed": true,
          "internalType": "bytes32",
          "name": "role",
          "type": "bytes32"
        },
        {
          "indexed": true,
          "internalType": "address",
          "name": "account",
          "type": "address"
        },
        {
          "indexed": true,
          "internalType": "address",
          "name": "sender",
          "type": "address"
        }
      ],
      "name": "RoleGranted",
      "type": "event"
    },
    {
      "anonymous": false,
      "inputs": [
        {
          "indexed": true,
          "internalType": "bytes32",
          "name": "role",
          "type": "bytes32"
        },
        {
          "indexed": true,
          "internalType": "address",
          "name": "account",
          "type": "address"
        },
        {
          "indexed": true,
          "internalType": "address",
          "name": "sender",
          "type": "address"
        }
      ],
      "name": "RoleRevoked",
      "type": "event"
    },
    {
      "inputs": [],
      "name": "BIT_FIRST_CHARACTER",
      "outputs": [
        {
          "internalType": "uint256",
          "name": "",
          "type": "uint256"
        }
      ],
      "stateMutability": "view",
      "type": "function"
    },
    {
      "inputs": [],
      "name": "DEFAULT_ADMIN_ROLE",
      "outputs": [
        {
          "internalType": "bytes32",
          "name": "",
          "type": "bytes32"
        }
      ],
      "stateMutability": "view",
      "type": "function"
    },
    {
      "inputs": [],
      "name": "GAME_ADMIN",
      "outputs": [
        {
          "internalType": "bytes32",
          "name": "",
          "type": "bytes32"
        }
      ],
      "stateMutability": "view",
      "type": "function"
    },
    {
      "inputs": [
        {
          "internalType": "address",
          "name": "",
          "type": "address"
        }
      ],
      "name": "bits",
      "outputs": [
        {
          "internalType": "uint256",
          "name": "",
          "type": "uint256"
        }
      ],
      "stateMutability": "view",
      "type": "function"
    },
    {
      "inputs": [],
      "name": "firstCharacterPromoInGameOnlyFundsGivenInUsd",
      "outputs": [
        {
          "internalType": "int128",
          "name": "",
          "type": "int128"
        }
      ],
      "stateMutability": "view",
      "type": "function"
    },
    {
      "inputs": [
        {
          "internalType": "bytes32",
          "name": "role",
          "type": "bytes32"
        }
      ],
      "name": "getRoleAdmin",
      "outputs": [
        {
          "internalType": "bytes32",
          "name": "",
          "type": "bytes32"
        }
      ],
      "stateMutability": "view",
      "type": "function"
    },
    {
      "inputs": [
        {
          "internalType": "bytes32",
          "name": "role",
          "type": "bytes32"
        },
        {
          "internalType": "uint256",
          "name": "index",
          "type": "uint256"
        }
      ],
      "name": "getRoleMember",
      "outputs": [
        {
          "internalType": "address",
          "name": "",
          "type": "address"
        }
      ],
      "stateMutability": "view",
      "type": "function"
    },
    {
      "inputs": [
        {
          "internalType": "bytes32",
          "name": "role",
          "type": "bytes32"
        }
      ],
      "name": "getRoleMemberCount",
      "outputs": [
        {
          "internalType": "uint256",
          "name": "",
          "type": "uint256"
        }
      ],
      "stateMutability": "view",
      "type": "function"
    },
    {
      "inputs": [
        {
          "internalType": "bytes32",
          "name": "role",
          "type": "bytes32"
        },
        {
          "internalType": "address",
          "name": "account",
          "type": "address"
        }
      ],
      "name": "grantRole",
      "outputs": [],
      "stateMutability": "nonpayable",
      "type": "function"
    },
    {
      "inputs": [
        {
          "internalType": "bytes32",
          "name": "role",
          "type": "bytes32"
        },
        {
          "internalType": "address",
          "name": "account",
          "type": "address"
        }
      ],
      "name": "hasRole",
      "outputs": [
        {
          "internalType": "bool",
          "name": "",
          "type": "bool"
        }
      ],
      "stateMutability": "view",
      "type": "function"
    },
    {
      "inputs": [
        {
          "internalType": "bytes32",
          "name": "role",
          "type": "bytes32"
        },
        {
          "internalType": "address",
          "name": "account",
          "type": "address"
        }
      ],
      "name": "renounceRole",
      "outputs": [],
      "stateMutability": "nonpayable",
      "type": "function"
    },
    {
      "inputs": [
        {
          "internalType": "bytes32",
          "name": "role",
          "type": "bytes32"
        },
        {
          "internalType": "address",
          "name": "account",
          "type": "address"
        }
      ],
      "name": "revokeRole",
      "outputs": [],
      "stateMutability": "nonpayable",
      "type": "function"
    },
    {
      "inputs": [],
      "name": "initialize",
      "outputs": [],
      "stateMutability": "nonpayable",
      "type": "function"
    },
    {
      "inputs": [],
      "name": "migrateTo_f73df27",
      "outputs": [],
      "stateMutability": "nonpayable",
      "type": "function"
    },
    {
      "inputs": [
        {
          "internalType": "address",
          "name": "user",
          "type": "address"
        },
        {
          "internalType": "uint256",
          "name": "bit",
          "type": "uint256"
        }
      ],
      "name": "setBit",
      "outputs": [],
      "stateMutability": "nonpayable",
      "type": "function"
    },
    {
      "inputs": [
        {
          "internalType": "address",
          "name": "user",
          "type": "address"
        },
        {
          "internalType": "uint256",
          "name": "bit",
          "type": "uint256"
        }
      ],
      "name": "unsetBit",
      "outputs": [],
      "stateMutability": "nonpayable",
      "type": "function"
    },
    {
      "inputs": [
        {
          "internalType": "address",
          "name": "user",
          "type": "address"
        },
        {
          "internalType": "uint256",
          "name": "bit",
          "type": "uint256"
        }
      ],
      "name": "getBit",
      "outputs": [
        {
          "internalType": "bool",
          "name": "",
          "type": "bool"
        }
      ],
      "stateMutability": "view",
      "type": "function"
    },
    {
      "inputs": [],
      "name": "firstCharacterPromoInGameOnlyFundsGivenInUsdAsCents",
      "outputs": [
        {
          "internalType": "uint256",
          "name": "",
          "type": "uint256"
        }
      ],
      "stateMutability": "view",
      "type": "function"
    },
    {
      "inputs": [
        {
          "internalType": "uint256",
          "name": "_usdCents",
          "type": "uint256"
        }
      ],
      "name": "setFirstCharacterPromoInGameOnlyFundsGivenInUsdAsCents",
      "outputs": [],
      "stateMutability": "nonpayable",
      "type": "function"
    },
    {
      "inputs": [
        {
          "internalType": "uint256",
          "name": "_numerator",
          "type": "uint256"
        },
        {
          "internalType": "uint256",
          "name": "_denominator",
          "type": "uint256"
        }
      ],
      "name": "setFirstCharacterPromoInGameOnlyFundsGivenInUsdAsRational",
      "outputs": [],
      "stateMutability": "nonpayable",
      "type": "function"
    }
  ],
  "bytecode": "0x608060405234801561001057600080fd5b5061108c806100206000396000f3fe608060405234801561001057600080fd5b506004361061012c5760003560e01c80635504d3d2116100ad578063a217fddf11610071578063a217fddf1461033e578063bf2a28cf14610346578063ca15c8731461034e578063d547741f1461036b578063d5db16f9146103975761012c565b80635504d3d2146102975780637dc18a3a1461029f5780638129fc1c146102cb5780639010d07c146102d357806391d14854146103125761012c565b8063260730e0116100f4578063260730e0146101b25780632f2ff15d146101de57806336568abe1461020a578063434d82a3146102365780635249fb6d146102765761012c565b806309cc8d46146101315780631976bd47146101505780631c4e328b14610173578063248a9ca31461017b57806324a9db2a146101aa575b600080fd5b61014e6004803603602081101561014757600080fd5b50356103bd565b005b61014e6004803603604081101561016657600080fd5b508035906020013561045b565b61014e6104f9565b6101986004803603602081101561019157600080fd5b5035610575565b60408051918252519081900360200190f35b61019861058a565b61014e600480360360408110156101c857600080fd5b506001600160a01b0381351690602001356105ad565b61014e600480360360408110156101f457600080fd5b50803590602001356001600160a01b031661063a565b61014e6004803603604081101561022057600080fd5b50803590602001356001600160a01b03166106a6565b6102626004803603604081101561024c57600080fd5b506001600160a01b038135169060200135610707565b604080519115158252519081900360200190f35b61027e61072b565b60408051600f92830b90920b8252519081900360200190f35b610198610734565b61014e600480360360408110156102b557600080fd5b506001600160a01b038135169060200135610756565b61014e6107e6565b6102f6600480360360408110156102e957600080fd5b508035906020013561089b565b604080516001600160a01b039092168252519081900360200190f35b6102626004803603604081101561032857600080fd5b50803590602001356001600160a01b03166108c0565b6101986108de565b6101986108e3565b6101986004803603602081101561036457600080fd5b50356108e8565b61014e6004803603604081101561038157600080fd5b50803590602001356001600160a01b03166108ff565b610198600480360360208110156103ad57600080fd5b50356001600160a01b0316610958565b604080516923a0a6a2afa0a226a4a760b11b8152905190819003600a0190206103e690336108c0565b610428576040805162461bcd60e51b815260206004820152600e60248201526d2737ba1033b0b6b29030b236b4b760911b604482015290519081900360640190fd5b61043381606461096a565b60668054600f9290920b6001600160801b03166001600160801b031990921691909117905550565b604080516923a0a6a2afa0a226a4a760b11b8152905190819003600a01902061048490336108c0565b6104c6576040805162461bcd60e51b815260206004820152600e60248201526d2737ba1033b0b6b29030b236b4b760911b604482015290519081900360640190fd5b6104d0828261096a565b60668054600f9290920b6001600160801b03166001600160801b03199092169190911790555050565b6105046000336108c0565b610541576040805162461bcd60e51b81526020600482015260096024820152682737ba1030b236b4b760b91b604482015290519081900360640190fd5b61054e614344606461096a565b60668054600f9290920b6001600160801b03166001600160801b0319909216919091179055565b60009081526033602052604090206002015490565b6066546000906105a890600f90810b900b606463ffffffff6109aa16565b905090565b604080516923a0a6a2afa0a226a4a760b11b8152905190819003600a0190206105d690336108c0565b610618576040805162461bcd60e51b815260206004820152600e60248201526d2737ba1033b0b6b29030b236b4b760911b604482015290519081900360640190fd5b6001600160a01b03909116600090815260656020526040902080549091179055565b60008281526033602052604090206002015461065d90610658610a12565b6108c0565b6106985760405162461bcd60e51b815260040180806020018281038252602f815260200180610f9b602f913960400191505060405180910390fd5b6106a28282610a16565b5050565b6106ae610a12565b6001600160a01b0316816001600160a01b0316146106fd5760405162461bcd60e51b815260040180806020018281038252602f815260200180611028602f913960400191505060405180910390fd5b6106a28282610a85565b6001600160a01b038216600090815260656020526040902054811681145b92915050565b606654600f0b81565b604080516923a0a6a2afa0a226a4a760b11b8152905190819003600a01902081565b604080516923a0a6a2afa0a226a4a760b11b8152905190819003600a01902061077f90336108c0565b6107c1576040805162461bcd60e51b815260206004820152600e60248201526d2737ba1033b0b6b29030b236b4b760911b604482015290519081900360640190fd5b6001600160a01b03909116600090815260656020526040902080549119919091169055565b600054610100900460ff16806107ff57506107ff610af4565b8061080d575060005460ff16155b6108485760405162461bcd60e51b815260040180806020018281038252602e815260200180610ffa602e913960400191505060405180910390fd5b600054610100900460ff16158015610873576000805460ff1961ff0019909116610100171660011790555b61087b610b05565b610886600033610698565b8015610898576000805461ff00191690555b50565b60008281526033602052604081206108b9908363ffffffff610ba216565b9392505050565b60008281526033602052604081206108b9908363ffffffff610bae16565b600081565b600181565b600081815260336020526040812061072590610bc3565b60008281526033602052604090206002015461091d90610658610a12565b6106fd5760405162461bcd60e51b8152600401808060200182810382526030815260200180610fca6030913960400191505060405180910390fd5b60656020526000908152604090205481565b60008161097657600080fd5b60006109828484610bce565b90506f7fffffffffffffffffffffffffffffff6001600160801b03821611156108b957600080fd5b6000816109b957506000610725565b600083600f0b12156109ca57600080fd5b600f83900b6001600160801b038316810260401c90608084901c026001600160c01b038111156109f957600080fd5b60401b8119811115610a0a57600080fd5b019392505050565b3390565b6000828152603360205260409020610a34908263ffffffff610d1816565b156106a257610a41610a12565b6001600160a01b0316816001600160a01b0316837f2f8788117e7eff1d82e926ec794901d17c78024a50270940304540a733656f0d60405160405180910390a45050565b6000828152603360205260409020610aa3908263ffffffff610d2d16565b156106a257610ab0610a12565b6001600160a01b0316816001600160a01b0316837ff6391f5c32d9c69d2a47ea670b442974b53935d1edc7fd64eb21e047a839171b60405160405180910390a45050565b6000610aff30610d42565b15905090565b600054610100900460ff1680610b1e5750610b1e610af4565b80610b2c575060005460ff16155b610b675760405162461bcd60e51b815260040180806020018281038252602e815260200180610ffa602e913960400191505060405180910390fd5b600054610100900460ff16158015610b92576000805460ff1961ff0019909116610100171660011790555b610b9a610d48565b610886610d48565b60006108b98383610de8565b60006108b9836001600160a01b038416610e4c565b600061072582610e64565b600081610bda57600080fd5b60006001600160c01b038411610bff5782604085901b81610bf757fe5b049050610d04565b60c084811c6401000000008110610c18576020918201911c5b620100008110610c2a576010918201911c5b6101008110610c3b576008918201911c5b60108110610c4b576004918201911c5b60048110610c5b576002918201911c5b60028110610c6a576001820191505b60bf820360018603901c6001018260ff0387901b81610c8557fe5b0492506001600160801b03831115610c9c57600080fd5b608085901c83026001600160801b038616840260c088901c604089901b82811015610cc8576001820391505b608084901b92900382811015610cdf576001820391505b829003608084901c8214610cef57fe5b888181610cf857fe5b04870196505050505050505b6001600160801b038111156108b957600080fd5b60006108b9836001600160a01b038416610e68565b60006108b9836001600160a01b038416610eb2565b3b151590565b600054610100900460ff1680610d615750610d61610af4565b80610d6f575060005460ff16155b610daa5760405162461bcd60e51b815260040180806020018281038252602e815260200180610ffa602e913960400191505060405180910390fd5b600054610100900460ff16158015610886576000805460ff1961ff0019909116610100171660011790558015610898576000805461ff001916905550565b81546000908210610e2a5760405162461bcd60e51b8152600401808060200182810382526022815260200180610f796022913960400191505060405180910390fd5b826000018281548110610e3957fe5b9060005260206000200154905092915050565b60009081526001919091016020526040902054151590565b5490565b6000610e748383610e4c565b610eaa57508154600181810184556000848152602080822090930184905584548482528286019093526040902091909155610725565b506000610725565b60008181526001830160205260408120548015610f6e5783546000198083019190810190600090879083908110610ee557fe5b9060005260206000200154905080876000018481548110610f0257fe5b600091825260208083209091019290925582815260018981019092526040902090840190558654879080610f3257fe5b60019003818190600052602060002001600090559055866001016000878152602001908152602001600020600090556001945050505050610725565b600091505061072556fe456e756d657261626c655365743a20696e646578206f7574206f6620626f756e6473416363657373436f6e74726f6c3a2073656e646572206d75737420626520616e2061646d696e20746f206772616e74416363657373436f6e74726f6c3a2073656e646572206d75737420626520616e2061646d696e20746f207265766f6b65496e697469616c697a61626c653a20636f6e747261637420697320616c726561647920696e697469616c697a6564416363657373436f6e74726f6c3a2063616e206f6e6c792072656e6f756e636520726f6c657320666f722073656c66a26469706673582212206d618f04632a54f0bcfff0542daaa78c670fd1b652c9f6d7c4a0a2a9f6b17b2164736f6c63430006050033",
  "immutableReferences": {},
  "source": "pragma solidity ^0.6.0;\r\n\r\nimport \"@openzeppelin/contracts-upgradeable/proxy/Initializable.sol\";\r\nimport \"@openzeppelin/contracts-upgradeable/access/AccessControlUpgradeable.sol\";\r\nimport \"../node_modules/abdk-libraries-solidity/ABDKMath64x64.sol\";\r\n\r\ncontract Promos is Initializable, AccessControlUpgradeable {\r\n    using ABDKMath64x64 for int128;\r\n\r\n    bytes32 public constant GAME_ADMIN = keccak256(\"GAME_ADMIN\");\r\n\r\n    function initialize() public initializer {\r\n        __AccessControl_init();\r\n\r\n        _setupRole(DEFAULT_ADMIN_ROLE, msg.sender);\r\n    }\r\n\r\n    function migrateTo_f73df27() external {\r\n        require(hasRole(DEFAULT_ADMIN_ROLE, msg.sender), \"Not admin\");\r\n\r\n        firstCharacterPromoInGameOnlyFundsGivenInUsd = ABDKMath64x64.divu(\r\n            17220,\r\n            100\r\n        );\r\n    }\r\n\r\n    mapping(address => uint256) public bits;\r\n    uint256 public constant BIT_FIRST_CHARACTER = 1;\r\n\r\n    int128 public firstCharacterPromoInGameOnlyFundsGivenInUsd;\r\n\r\n    modifier restricted() {\r\n        require(hasRole(GAME_ADMIN, msg.sender), \"Not game admin\");\r\n        _;\r\n    }\r\n\r\n    function setBit(address user, uint256 bit) public restricted {\r\n        bits[user] |= bit;\r\n    }\r\n\r\n    function unsetBit(address user, uint256 bit) public restricted {\r\n        bits[user] &= ~bit;\r\n    }\r\n\r\n    function getBit(address user, uint256 bit) public view returns (bool) {\r\n        return (bits[user] & bit) == bit;\r\n    }\r\n\r\n    function firstCharacterPromoInGameOnlyFundsGivenInUsdAsCents() external view returns (uint256) {\r\n        return firstCharacterPromoInGameOnlyFundsGivenInUsd.mulu(100);\r\n    }\r\n\r\n    function setFirstCharacterPromoInGameOnlyFundsGivenInUsdAsCents(\r\n        uint256 _usdCents\r\n    ) external restricted {\r\n        firstCharacterPromoInGameOnlyFundsGivenInUsd = ABDKMath64x64.divu(\r\n            _usdCents,\r\n            100\r\n        );\r\n    }\r\n\r\n    function setFirstCharacterPromoInGameOnlyFundsGivenInUsdAsRational(\r\n        uint256 _numerator,\r\n        uint256 _denominator\r\n    ) external restricted {\r\n        firstCharacterPromoInGameOnlyFundsGivenInUsd = ABDKMath64x64.divu(\r\n            _numerator,\r\n            _denominator\r\n        );\r\n    }\r\n}\r\n",
  "sourcePath": "F:\\vscode\\cblades\\contracts\\Promos.sol",
  "compiler": {
    "name": "solc",
    "version": "0.6.5+commit.f956cc89.Emscripten.clang"
  },
  "schemaVersion": "3.3.4",
  "updatedAt": "2021-07-22T21:42:31.916Z",
  "devdoc": {
    "methods": {
      "getRoleAdmin(bytes32)": {
        "details": "Returns the admin role that controls `role`. See {grantRole} and {revokeRole}.     * To change a role's admin, use {_setRoleAdmin}."
      },
      "getRoleMember(bytes32,uint256)": {
        "details": "Returns one of the accounts that have `role`. `index` must be a value between 0 and {getRoleMemberCount}, non-inclusive.     * Role bearers are not sorted in any particular way, and their ordering may change at any point.     * WARNING: When using {getRoleMember} and {getRoleMemberCount}, make sure you perform all queries on the same block. See the following https://forum.openzeppelin.com/t/iterating-over-elements-on-enumerableset-in-openzeppelin-contracts/2296[forum post] for more information."
      },
      "getRoleMemberCount(bytes32)": {
        "details": "Returns the number of accounts that have `role`. Can be used together with {getRoleMember} to enumerate all bearers of a role."
      },
      "grantRole(bytes32,address)": {
        "details": "Grants `role` to `account`.     * If `account` had not been already granted `role`, emits a {RoleGranted} event.     * Requirements:     * - the caller must have ``role``'s admin role."
      },
      "hasRole(bytes32,address)": {
        "details": "Returns `true` if `account` has been granted `role`."
      },
      "renounceRole(bytes32,address)": {
        "details": "Revokes `role` from the calling account.     * Roles are often managed via {grantRole} and {revokeRole}: this function's purpose is to provide a mechanism for accounts to lose their privileges if they are compromised (such as when a trusted device is misplaced).     * If the calling account had been granted `role`, emits a {RoleRevoked} event.     * Requirements:     * - the caller must be `account`."
      },
      "revokeRole(bytes32,address)": {
        "details": "Revokes `role` from `account`.     * If `account` had been granted `role`, emits a {RoleRevoked} event.     * Requirements:     * - the caller must have ``role``'s admin role."
      }
    }
  },
  "userdoc": {
    "methods": {}
  }
}