{
  "contractName": "RaidBasic",
  "abi": [
    {
      "anonymous": false,
      "inputs": [],
      "name": "RaidCompleted",
      "type": "event"
    },
    {
      "anonymous": false,
      "inputs": [],
      "name": "RaidReset",
      "type": "event"
    },
    {
      "anonymous": false,
      "inputs": [
        {
          "indexed": false,
          "internalType": "address",
          "name": "owner",
          "type": "address"
        },
        {
          "indexed": false,
          "internalType": "uint256",
          "name": "character",
          "type": "uint256"
        },
        {
          "indexed": false,
          "internalType": "uint256",
          "name": "weapon",
          "type": "uint256"
        },
        {
          "indexed": false,
          "internalType": "uint24",
          "name": "power",
          "type": "uint24"
        }
      ],
      "name": "RaiderJoined",
      "type": "event"
    },
    {
      "anonymous": false,
      "inputs": [
        {
          "indexed": false,
          "internalType": "address",
          "name": "addr",
          "type": "address"
        },
        {
          "indexed": false,
          "internalType": "uint256",
          "name": "wepID",
          "type": "uint256"
        }
      ],
      "name": "WeaponWinner",
      "type": "event"
    },
    {
      "anonymous": false,
      "inputs": [
        {
          "indexed": false,
          "internalType": "address",
          "name": "addr",
          "type": "address"
        },
        {
          "indexed": false,
          "internalType": "uint256",
          "name": "charID",
          "type": "uint256"
        },
        {
          "indexed": false,
          "internalType": "uint256",
          "name": "amount",
          "type": "uint256"
        }
      ],
      "name": "XpReward",
      "type": "event"
    },
    {
      "inputs": [],
      "name": "getExpectedFinishTime",
      "outputs": [
        {
          "internalType": "uint256",
          "name": "",
          "type": "uint256"
        }
      ],
      "stateMutability": "view",
      "type": "function",
      "constant": true
    },
    {
      "inputs": [],
      "name": "getRaiderCount",
      "outputs": [
        {
          "internalType": "uint256",
          "name": "",
          "type": "uint256"
        }
      ],
      "stateMutability": "view",
      "type": "function",
      "constant": true
    },
    {
      "inputs": [
        {
          "internalType": "address",
          "name": "to",
          "type": "address"
        }
      ],
      "name": "grantAccess",
      "outputs": [],
      "stateMutability": "nonpayable",
      "type": "function"
    },
    {
      "inputs": [
        {
          "internalType": "uint256",
          "name": "character",
          "type": "uint256"
        }
      ],
      "name": "isRaider",
      "outputs": [
        {
          "internalType": "bool",
          "name": "",
          "type": "bool"
        }
      ],
      "stateMutability": "view",
      "type": "function",
      "constant": true
    },
    {
      "inputs": [
        {
          "internalType": "address",
          "name": "from",
          "type": "address"
        }
      ],
      "name": "revokeAccess",
      "outputs": [],
      "stateMutability": "nonpayable",
      "type": "function"
    },
    {
      "inputs": [
        {
          "internalType": "uint256",
          "name": "time",
          "type": "uint256"
        }
      ],
      "name": "setExpectedFinishTime",
      "outputs": [],
      "stateMutability": "nonpayable",
      "type": "function"
    },
    {
      "inputs": [],
      "name": "initialize",
      "outputs": [],
      "stateMutability": "nonpayable",
      "type": "function"
    },
    {
      "inputs": [
        {
          "internalType": "address",
          "name": "gameContract",
          "type": "address"
        }
      ],
      "name": "initialize",
      "outputs": [],
      "stateMutability": "nonpayable",
      "type": "function"
    },
    {
      "inputs": [
        {
          "internalType": "uint256",
          "name": "characterID",
          "type": "uint256"
        },
        {
          "internalType": "uint256",
          "name": "weaponID",
          "type": "uint256"
        }
      ],
      "name": "addRaider",
      "outputs": [],
      "stateMutability": "nonpayable",
      "type": "function"
    },
    {
      "inputs": [
        {
          "internalType": "uint256",
          "name": "seed",
          "type": "uint256"
        }
      ],
      "name": "completeRaid",
      "outputs": [],
      "stateMutability": "nonpayable",
      "type": "function"
    },
    {
      "inputs": [],
      "name": "reset",
      "outputs": [],
      "stateMutability": "nonpayable",
      "type": "function"
    },
    {
      "inputs": [
        {
          "internalType": "uint8",
          "name": "trait",
          "type": "uint8"
        }
      ],
      "name": "setBossTrait",
      "outputs": [],
      "stateMutability": "nonpayable",
      "type": "function"
    },
    {
      "inputs": [],
      "name": "getTotalPower",
      "outputs": [
        {
          "internalType": "uint256",
          "name": "",
          "type": "uint256"
        }
      ],
      "stateMutability": "view",
      "type": "function",
      "constant": true
    },
    {
      "inputs": [
        {
          "internalType": "uint256",
          "name": "id",
          "type": "uint256"
        }
      ],
      "name": "addRewardWeapon",
      "outputs": [],
      "stateMutability": "nonpayable",
      "type": "function"
    },
    {
      "inputs": [
        {
          "internalType": "uint256",
          "name": "stars",
          "type": "uint256"
        },
        {
          "internalType": "uint256",
          "name": "seed",
          "type": "uint256"
        }
      ],
      "name": "mintRewardWeapon",
      "outputs": [],
      "stateMutability": "nonpayable",
      "type": "function"
    },
    {
      "inputs": [
        {
          "internalType": "uint256",
          "name": "index",
          "type": "uint256"
        }
      ],
      "name": "removeRewardWeapon",
      "outputs": [],
      "stateMutability": "nonpayable",
      "type": "function"
    },
    {
      "inputs": [],
      "name": "getWeaponDrops",
      "outputs": [
        {
          "internalType": "uint256[]",
          "name": "",
          "type": "uint256[]"
        }
      ],
      "stateMutability": "view",
      "type": "function",
      "constant": true
    },
    {
      "inputs": [
        {
          "internalType": "uint64",
          "name": "secs",
          "type": "uint64"
        }
      ],
      "name": "setStaminaDrainSeconds",
      "outputs": [],
      "stateMutability": "nonpayable",
      "type": "function"
    },
    {
      "inputs": [],
      "name": "getStaminaDrainSeconds",
      "outputs": [
        {
          "internalType": "uint64",
          "name": "",
          "type": "uint64"
        }
      ],
      "stateMutability": "view",
      "type": "function",
      "constant": true
    }
  ],
  "bytecode": "0x608060405234801561001057600080fd5b50611a03806100206000396000f3fe608060405234801561001057600080fd5b50600436106101215760003560e01c80638fcc2c3a116100ad578063d826f88f11610071578063d826f88f146102aa578063da574c58146102b2578063e94eb3b7146102e3578063f08e33bf14610306578063f75821681461032b57610121565b80638fcc2c3a1461023a578063ba2d57c914610242578063bde13ade1461025f578063c4d66de814610267578063c79f0fe91461028d57610121565b80636c771ea0116100f45780636c771ea0146101ab57806372362611146101d25780637fcf0cd7146101ef5780638129fc1c1461020c57806385e685311461021457610121565b80630ae5e739146101265780633330c1dc1461014e578063434594dd1461017157806353976a2614610191575b600080fd5b61014c6004803603602081101561013c57600080fd5b50356001600160a01b0316610383565b005b61014c6004803603604081101561016457600080fd5b5080359060200135610404565b61014c6004803603602081101561018757600080fd5b503560ff166107f7565b610199610867565b60408051918252519081900360200190f35b61014c600480360360208110156101c157600080fd5b503567ffffffffffffffff1661086e565b61014c600480360360208110156101e857600080fd5b50356108ec565b61014c6004803603602081101561020557600080fd5b503561094b565b61014c610d69565b61014c6004803603602081101561022a57600080fd5b50356001600160a01b0316610e28565b610199610ea3565b61014c6004803603602081101561025857600080fd5b5035610ea9565b610199610fa9565b61014c6004803603602081101561027d57600080fd5b50356001600160a01b0316610faf565b61014c600480360360208110156102a357600080fd5b5035611070565b61014c6111c2565b6102cf600480360360208110156102c857600080fd5b5035611239565b604080519115158252519081900360200190f35b61014c600480360360408110156102f957600080fd5b508035906020013561124e565b61030e611348565b6040805167ffffffffffffffff9092168252519081900360200190f35b610333611358565b60408051602080825283518183015283519192839290830191858101910280838360005b8381101561036f578181015183820152602001610357565b505050509050019250505060405180910390f35b3360009081526001602081905260409091205460ff161515146103dd576040805162461bcd60e51b815260206004820152600d60248201526c1058d8d95cdcc819195b9a5959609a1b604482015290519081900360640190fd5b6001600160a01b03166000908152600160208190526040909120805460ff19169091179055565b600554604080516331a9108f60e11b815260048101859052905133926001600160a01b031691636352211e916024808301926020929190829003018186803b15801561044f57600080fd5b505afa158015610463573d6000803e3d6000fd5b505050506040513d602081101561047957600080fd5b50516001600160a01b03161461048e57600080fd5b600654604080516331a9108f60e11b815260048101849052905133926001600160a01b031691636352211e916024808301926020929190829003018186803b1580156104d957600080fd5b505afa1580156104ed573d6000803e3d6000fd5b505050506040513d602081101561050357600080fd5b50516001600160a01b03161461051857600080fd5b60008281526008602052604090205460ff16156105665760405162461bcd60e51b815260040180806020018281038252602a8152602001806119a4602a913960400191505060405180910390fd5b600554604080516302e9ec9d60e11b81526004810185905290516000926001600160a01b0316916305d3d93a916024808301926020929190829003018186803b1580156105b257600080fd5b505afa1580156105c6573d6000803e3d6000fd5b505050506040513d60208110156105dc57600080fd5b505160ff1611610633576040805162461bcd60e51b815260206004820152601e60248201527f596f752063616e6e6f74206a6f696e20776974682030207374616d696e610000604482015290519081900360640190fd5b600082815260086020526040808220805460ff191660011790556005546009548251637953a0bd60e11b8152600481018790524267ffffffffffffffff92831601909116602482015291516001600160a01b039091169263f2a7417a926044808201939182900301818387803b1580156106ac57600080fd5b505af11580156106c0573d6000803e3d6000fd5b50506040805160808082018352338083526020808401898152848601898152600060608088018281526007805460018101825590845298517fa66cc928b5edb82af9bd49922954155ab7b0942694bea4ce44661d9a8736c6886004909a02998a015593517fa66cc928b5edb82af9bd49922954155ab7b0942694bea4ce44661d9a8736c68989015591517fa66cc928b5edb82af9bd49922954155ab7b0942694bea4ce44661d9a8736c68a88015591517fa66cc928b5edb82af9bd49922954155ab7b0942694bea4ce44661d9a8736c68b909601805462ffffff191662ffffff90971696909617909555855192835290820189905281850188905292810183905292519194508493507f3b5b51314c72259d72381975d913d49f7b46afc94c0d15e935202c8ecf5c1465928290030190a150505050565b3360009081526001602081905260409091205460ff16151514610851576040805162461bcd60e51b815260206004820152600d60248201526c1058d8d95cdcc819195b9a5959609a1b604482015290519081900360640190fd5b600c805460ff191660ff92909216919091179055565b600d545b90565b3360009081526001602081905260409091205460ff161515146108c8576040805162461bcd60e51b815260206004820152600d60248201526c1058d8d95cdcc819195b9a5959609a1b604482015290519081900360640190fd5b6009805467ffffffffffffffff191667ffffffffffffffff92909216919091179055565b3360009081526001602081905260409091205460ff16151514610946576040805162461bcd60e51b815260206004820152600d60248201526c1058d8d95cdcc819195b9a5959609a1b604482015290519081900360640190fd5b600355565b3360009081526001602081905260409091205460ff161515146109a5576040805162461bcd60e51b815260206004820152600d60248201526c1058d8d95cdcc819195b9a5959609a1b604482015290519081900360640190fd5b60025460ff16156109e75760405162461bcd60e51b81526004018080602001828103825260278152602001806119156027913960400191505060405180910390fd5b6002805460ff1916600117905560005b600754811015610b26577faa5c9174ff52f4482b049e5b7e649ac869505a43460f311a8afb36e48dc13af060078281548110610a2f57fe5b90600052602060002090600402016000015460078381548110610a4e57fe5b600091825260209182902060016004909202010154604080516001600160a01b0390941684529183015260608282018190529051918290030190a1600554600780546001600160a01b0390921691630fc00575919084908110610aad57fe5b90600052602060002090600402016001015460606040518363ffffffff1660e01b8152600401808381526020018261ffff16815260200192505050600060405180830381600087803b158015610b0257600080fd5b505af1158015610b16573d6000803e3d6000fd5b5050600190920191506109f79050565b5060005b600a54811015610d3c57610b3c611855565b60078054610b5a9060009060001901610b5587876113b0565b6113dc565b81548110610b6457fe5b60009182526020918290206040805160808101825260049384029092018054835260018101549483019490945260028401549082015260039092015462ffffff16606083015254600a80549293506001600160a01b0390911691631426cead919085908110610bcf57fe5b6000918252602082200154604080516001600160e01b031960e086901b1681526004810192909252306024830152516044808301939282900301818387803b158015610c1a57600080fd5b505af1158015610c2e573d6000803e3d6000fd5b50506006546004548451600a80546001600160a01b0394851696506342842e0e95509290931692909187908110610c6157fe5b6000918252602082200154604080516001600160e01b031960e088901b1681526001600160a01b039586166004820152939094166024840152604483015291516064808301939282900301818387803b158015610cbd57600080fd5b505af1158015610cd1573d6000803e3d6000fd5b505050507f78add5d2d9d412031d5db1f8c87adbf0cf1c336b8abff735bf1f557d140b61d08160000151600a8481548110610d0857fe5b60009182526020918290200154604080516001600160a01b039094168452918301528051918290030190a150600101610b2a565b506040517f05c57ab95c0002b1c500198dff372a054d7d3271602b5c20d4ae31119141d8e390600090a150565b600054610100900460ff1680610d825750610d82611452565b80610d90575060005460ff16155b610dcb5760405162461bcd60e51b815260040180806020018281038252602e815260200180611976602e913960400191505060405180910390fd5b600054610100900460ff16158015610df6576000805460ff1961ff0019909116610100171660011790555b336000908152600160208190526040909120805460ff191690911790558015610e25576000805461ff00191690555b50565b3360009081526001602081905260409091205460ff16151514610e82576040805162461bcd60e51b815260206004820152600d60248201526c1058d8d95cdcc819195b9a5959609a1b604482015290519081900360640190fd5b6001600160a01b03166000908152600160205260409020805460ff19169055565b60075490565b3360009081526001602081905260409091205460ff16151514610f03576040805162461bcd60e51b815260206004820152600d60248201526c1058d8d95cdcc819195b9a5959609a1b604482015290519081900360640190fd5b600a548110610f4f576040805162461bcd60e51b8152602060048201526013602482015272496e646578206f7574206f6620626f756e647360681b604482015290519081900360640190fd5b600a80546000198101908110610f6157fe5b9060005260206000200154600a8281548110610f7957fe5b600091825260209091200155600a805480610f9057fe5b6001900381819060005260206000200160009055905550565b60035490565b600054610100900460ff1680610fc85750610fc8611452565b80610fd6575060005460ff16155b6110115760405162461bcd60e51b815260040180806020018281038252602e815260200180611976602e913960400191505060405180910390fd5b600054610100900460ff1615801561103c576000805460ff1961ff0019909116610100171660011790555b61104582611463565b6009805467ffffffffffffffff191661a8c0179055801561106c576000805461ff00191690555b5050565b3360009081526001602081905260409091205460ff161515146110ca576040805162461bcd60e51b815260206004820152600d60248201526c1058d8d95cdcc819195b9a5959609a1b604482015290519081900360640190fd5b60048054600654604080516331a9108f60e11b8152938401859052516001600160a01b03928316939290911691636352211e916024808301926020929190829003018186803b15801561111c57600080fd5b505afa158015611130573d6000803e3d6000fd5b505050506040513d602081101561114657600080fd5b50516001600160a01b03161461118d5760405162461bcd60e51b815260040180806020018281038252603a81526020018061193c603a913960400191505060405180910390fd5b600a80546001810182556000919091527fc65a7bb8d6351c1cf70c95a316cc6a92839c986682d98bc35f958f4883f9d2a80155565b3360009081526001602081905260409091205460ff1615151461121c576040805162461bcd60e51b815260206004820152600d60248201526c1058d8d95cdcc819195b9a5959609a1b604482015290519081900360640190fd5b6000600d81905561122f90600a90611882565b61123761163e565b565b60009081526008602052604090205460ff1690565b3360009081526001602081905260409091205460ff161515146112a8576040805162461bcd60e51b815260206004820152600d60248201526c1058d8d95cdcc819195b9a5959609a1b604482015290519081900360640190fd5b6006546004805460408051632439381b60e21b81526001600160a01b039283169381019390935260248301869052604483018590525160009391909116916390e4e06c91606480830192602092919082900301818787803b15801561130c57600080fd5b505af1158015611320573d6000803e3d6000fd5b505050506040513d602081101561133657600080fd5b5051905061134381611070565b505050565b60095467ffffffffffffffff1690565b6060600a8054806020026020016040519081016040528092919081815260200182805480156113a657602002820191906000526020600020905b815481526020019060010190808311611392575b5050505050905090565b604080516020808201949094528082019290925280518083038201815260609092019052805191012090565b60008061140060016113f4868863ffffffff61172a16565b9063ffffffff61178716565b6040805160208082018790528251808303820181529183019092528051910120909150600090611436908363ffffffff6117e816565b9050611448818763ffffffff61178716565b9695505050505050565b600061145d3061184f565b15905090565b600054610100900460ff168061147c575061147c611452565b8061148a575060005460ff16155b6114c55760405162461bcd60e51b815260040180806020018281038252602e815260200180611976602e913960400191505060405180910390fd5b600054610100900460ff161580156114f0576000805460ff1961ff0019909116610100171660011790555b6114f8610d69565b61150182610383565b600480546001600160a01b0319166001600160a01b03848116919091178083556040805163341c2ed560e21b81529051919092169263d070bb5492808201926020929091829003018186803b15801561155957600080fd5b505afa15801561156d573d6000803e3d6000fd5b505050506040513d602081101561158357600080fd5b5051600580546001600160a01b0319166001600160a01b039283161790556004805460408051635bf0e6c360e11b81529051919093169263b7e1cd869281810192602092909190829003018186803b1580156115de57600080fd5b505afa1580156115f2573d6000803e3d6000fd5b505050506040513d602081101561160857600080fd5b5051600680546001600160a01b0319166001600160a01b03909216919091179055801561106c576000805461ff00191690555050565b3360009081526001602081905260409091205460ff16151514611698576040805162461bcd60e51b815260206004820152600d60248201526c1058d8d95cdcc819195b9a5959609a1b604482015290519081900360640190fd5b60005b6007548110156116e85760086000600783815481106116b657fe5b600091825260208083206001600490930201820154845283019390935260409091019020805460ff191690550161169b565b506116f5600760006118a0565b6002805460ff191690556040517fa645797aa1dfd9e6468e9839242e439c1c97e015cf6667c4d201368fc3983c0d90600090a1565b600082821115611781576040805162461bcd60e51b815260206004820152601e60248201527f536166654d6174683a207375627472616374696f6e206f766572666c6f770000604482015290519081900360640190fd5b50900390565b6000828201838110156117e1576040805162461bcd60e51b815260206004820152601b60248201527f536166654d6174683a206164646974696f6e206f766572666c6f770000000000604482015290519081900360640190fd5b9392505050565b600080821161183e576040805162461bcd60e51b815260206004820152601860248201527f536166654d6174683a206d6f64756c6f206279207a65726f0000000000000000604482015290519081900360640190fd5b81838161184757fe5b069392505050565b3b151590565b6040518060800160405280600081526020016000815260200160008152602001600062ffffff1681525090565b5080546000825590600052602060002090810190610e2591906118c1565b5080546000825560040290600052602060002090810190610e2591906118df565b61086b91905b808211156118db57600081556001016118c7565b5090565b61086b91905b808211156118db57600080825560018201819055600282015560038101805462ffffff191690556004016118e556fe5261696420616c726561647920636f6d706c657465642c2072756e20726573657420666972737443616e206f6e6c792061646420776561706f6e7320746861742062656c6f6e6720746f20746865206d61696e2067616d6520636f6e7472616374496e697469616c697a61626c653a20636f6e747261637420697320616c726561647920696e697469616c697a6564546869732063686172616374657220697320616c72656164792070617274206f66207468652072616964a2646970667358221220ef373df4b2aad590d942d9579f0561dc9ea931f1ab43b6ec35da630548a55cb064736f6c63430006050033",
  "immutableReferences": {},
  "source": "pragma solidity ^0.6.0;\r\n\r\nimport \"@openzeppelin/contracts-upgradeable/proxy/Initializable.sol\";\r\nimport \"abdk-libraries-solidity/ABDKMath64x64.sol\";\r\nimport \"./raid.sol\";\r\n\r\ncontract RaidBasic is Initializable, Raid {\r\n\r\n    using ABDKMath64x64 for int128;\r\n    using ABDKMath64x64 for uint256;\r\n\r\n    uint64 internal staminaDrain;\r\n    uint256[] weaponDrops; // given out randomly, we add them manually\r\n    uint256 bounty; // UNUSED; KEPT FOR UPGRADE PROXY BACKWARDS COMPAT\r\n    uint8 bossTrait; // set manually for now\r\n\r\n    uint256 totalPower;\r\n\r\n    event XpReward(address addr, uint256 charID, uint256 amount);\r\n    event WeaponWinner(address addr, uint256 wepID);\r\n\r\n    function initialize(address gameContract) public override initializer {\r\n        Raid.initialize(gameContract);\r\n\r\n        staminaDrain = 12 * 60 * 60;\r\n    }\r\n\r\n    function addRaider(uint256 characterID, uint256 weaponID) public override {\r\n        require(characters.ownerOf(characterID) == msg.sender);\r\n        require(weapons.ownerOf(weaponID) == msg.sender);\r\n        require(participation[characterID] == false, \"This character is already part of the raid\");\r\n        require(characters.getStaminaPoints(characterID) > 0, \"You cannot join with 0 stamina\");\r\n\r\n        participation[characterID] = true;\r\n        // we drain ~12h of stamina from the character\r\n        // we may want to have a specific lockout in the future\r\n        characters.setStaminaTimestamp(characterID, uint64(now + (staminaDrain)));\r\n        // TODO fix raids\r\n        int128 traitMultiplier = 0;/*game.getPlayerTraitBonusAgainst(\r\n            characters.getTrait(characterID),\r\n            weapons.getTrait(weaponID),\r\n            bossTrait\r\n        );*/\r\n        uint24 power = 0;//uint24(traitMultiplier.mulu(game.getPlayerFinalPower(characterID, weaponID)));\r\n        totalPower += power;\r\n        raiders.push(Raider(uint256(msg.sender), characterID, weaponID, power));\r\n        emit RaiderJoined(msg.sender, characterID, weaponID, power);\r\n    }\r\n\r\n    function completeRaid(uint256 seed) public override restricted {\r\n        require(completed == false, \"Raid already completed, run reset first\");\r\n        completed = true;\r\n\r\n        // TODO revisit rewards\r\n        for(uint i = 0; i < raiders.length; i++) {\r\n            emit XpReward(address(raiders[i].owner), raiders[i].charID, 96);\r\n            characters.gainXp(raiders[i].charID, 96);\r\n        }\r\n        /*for(uint i = 0; i < raiders.length; i++) {\r\n            Raider memory r = raiders[i];\r\n\r\n            int128 powerPercentage = uint256(r.power).divu(totalPower);\r\n            uint256 payout = powerPercentage.mulu(bounty);\r\n            game.payPlayerConverted(address(r.owner), payout);\r\n            emit SkillWinner(address(r.owner), payout);\r\n        }*/\r\n\r\n        for(uint i = 0; i < weaponDrops.length; i++) {\r\n            Raider memory r = raiders[RandomUtil.randomSeededMinMax(0, raiders.length-1, RandomUtil.combineSeeds(seed,i))];\r\n            game.approveContractWeaponFor(weaponDrops[i], address(this));\r\n            weapons.safeTransferFrom(address(game), address(r.owner), weaponDrops[i]);\r\n            emit WeaponWinner(address(r.owner), weaponDrops[i]);\r\n        }\r\n\r\n        emit RaidCompleted();\r\n    }\r\n\r\n    function reset() public override restricted {\r\n        totalPower = 0;\r\n        delete weaponDrops;\r\n        super.reset();\r\n    }\r\n\r\n    function setBossTrait(uint8 trait) public restricted {\r\n        bossTrait = trait;\r\n    }\r\n\r\n    function getTotalPower() public view returns(uint256) {\r\n        return totalPower;\r\n    }\r\n\r\n    function addRewardWeapon(uint256 id) public restricted {\r\n        require(weapons.ownerOf(id) == address(game), \"Can only add weapons that belong to the main game contract\");\r\n        weaponDrops.push(id);\r\n    }\r\n\r\n    function mintRewardWeapon(uint256 stars, uint256 seed) public restricted {\r\n        uint256 tokenId = weapons.mintWeaponWithStars(address(game), stars, seed);\r\n        addRewardWeapon(tokenId);\r\n    }\r\n\r\n    function removeRewardWeapon(uint256 index) public restricted {\r\n        require(index < weaponDrops.length, \"Index out of bounds\");\r\n\r\n        weaponDrops[index] = weaponDrops[weaponDrops.length - 1];\r\n        weaponDrops.pop();\r\n    }\r\n\r\n    function getWeaponDrops() public view returns(uint256[] memory) {\r\n        return weaponDrops;\r\n    }\r\n\r\n    function setStaminaDrainSeconds(uint64 secs) public restricted {\r\n        staminaDrain = secs;\r\n    }\r\n\r\n    function getStaminaDrainSeconds() public view returns(uint64) {\r\n        return staminaDrain;\r\n    }\r\n}",
  "sourcePath": "F:/vscode/cblades/contracts/raidBasic.sol",
  "compiler": {
    "name": "solc",
    "version": "0.6.5+commit.f956cc89.Emscripten.clang"
  },
  "schemaVersion": "3.3.4",
  "updatedAt": "2021-07-29T00:45:17.043Z",
  "networkType": "ethereum",
  "devdoc": {
    "methods": {}
  },
  "userdoc": {
    "methods": {}
  }
}