{
  "contractName": "SkillStakingRewardsUpgradeable",
  "abi": [
    {
      "anonymous": false,
      "inputs": [],
      "name": "FailsafeModeEnabled",
      "type": "event"
    },
    {
      "anonymous": false,
      "inputs": [
        {
          "indexed": false,
          "internalType": "uint256",
          "name": "newMinimumStakeAmount",
          "type": "uint256"
        }
      ],
      "name": "MinimumStakeAmountUpdated",
      "type": "event"
    },
    {
      "anonymous": false,
      "inputs": [
        {
          "indexed": false,
          "internalType": "uint256",
          "name": "newMinimumStakeTime",
          "type": "uint256"
        }
      ],
      "name": "MinimumStakeTimeUpdated",
      "type": "event"
    },
    {
      "anonymous": false,
      "inputs": [
        {
          "indexed": true,
          "internalType": "address",
          "name": "previousOwner",
          "type": "address"
        },
        {
          "indexed": true,
          "internalType": "address",
          "name": "newOwner",
          "type": "address"
        }
      ],
      "name": "OwnershipTransferred",
      "type": "event"
    },
    {
      "anonymous": false,
      "inputs": [
        {
          "indexed": false,
          "internalType": "address",
          "name": "account",
          "type": "address"
        }
      ],
      "name": "Paused",
      "type": "event"
    },
    {
      "anonymous": false,
      "inputs": [
        {
          "indexed": false,
          "internalType": "address",
          "name": "token",
          "type": "address"
        },
        {
          "indexed": false,
          "internalType": "uint256",
          "name": "amount",
          "type": "uint256"
        }
      ],
      "name": "Recovered",
      "type": "event"
    },
    {
      "anonymous": false,
      "inputs": [
        {
          "indexed": false,
          "internalType": "uint256",
          "name": "reward",
          "type": "uint256"
        }
      ],
      "name": "RewardAdded",
      "type": "event"
    },
    {
      "anonymous": false,
      "inputs": [
        {
          "indexed": true,
          "internalType": "address",
          "name": "user",
          "type": "address"
        },
        {
          "indexed": false,
          "internalType": "uint256",
          "name": "reward",
          "type": "uint256"
        }
      ],
      "name": "RewardPaid",
      "type": "event"
    },
    {
      "anonymous": false,
      "inputs": [
        {
          "indexed": false,
          "internalType": "uint256",
          "name": "newDuration",
          "type": "uint256"
        }
      ],
      "name": "RewardsDurationUpdated",
      "type": "event"
    },
    {
      "anonymous": false,
      "inputs": [
        {
          "indexed": true,
          "internalType": "address",
          "name": "user",
          "type": "address"
        },
        {
          "indexed": false,
          "internalType": "uint256",
          "name": "amount",
          "type": "uint256"
        }
      ],
      "name": "Staked",
      "type": "event"
    },
    {
      "anonymous": false,
      "inputs": [
        {
          "indexed": false,
          "internalType": "address",
          "name": "account",
          "type": "address"
        }
      ],
      "name": "Unpaused",
      "type": "event"
    },
    {
      "anonymous": false,
      "inputs": [
        {
          "indexed": true,
          "internalType": "address",
          "name": "user",
          "type": "address"
        },
        {
          "indexed": false,
          "internalType": "uint256",
          "name": "amount",
          "type": "uint256"
        }
      ],
      "name": "Withdrawn",
      "type": "event"
    },
    {
      "inputs": [
        {
          "internalType": "address",
          "name": "account",
          "type": "address"
        }
      ],
      "name": "balanceOf",
      "outputs": [
        {
          "internalType": "uint256",
          "name": "",
          "type": "uint256"
        }
      ],
      "stateMutability": "view",
      "type": "function",
      "constant": true
    },
    {
      "inputs": [
        {
          "internalType": "address",
          "name": "account",
          "type": "address"
        }
      ],
      "name": "earned",
      "outputs": [
        {
          "internalType": "uint256",
          "name": "",
          "type": "uint256"
        }
      ],
      "stateMutability": "view",
      "type": "function",
      "constant": true
    },
    {
      "inputs": [],
      "name": "enableFailsafeMode",
      "outputs": [],
      "stateMutability": "nonpayable",
      "type": "function"
    },
    {
      "inputs": [],
      "name": "exit",
      "outputs": [],
      "stateMutability": "nonpayable",
      "type": "function"
    },
    {
      "inputs": [],
      "name": "failsafeModeActive",
      "outputs": [
        {
          "internalType": "bool",
          "name": "",
          "type": "bool"
        }
      ],
      "stateMutability": "view",
      "type": "function",
      "constant": true
    },
    {
      "inputs": [],
      "name": "getReward",
      "outputs": [],
      "stateMutability": "nonpayable",
      "type": "function"
    },
    {
      "inputs": [],
      "name": "getRewardForDuration",
      "outputs": [
        {
          "internalType": "uint256",
          "name": "",
          "type": "uint256"
        }
      ],
      "stateMutability": "view",
      "type": "function",
      "constant": true
    },
    {
      "inputs": [],
      "name": "getStakeRewardDistributionTimeLeft",
      "outputs": [
        {
          "internalType": "uint256",
          "name": "",
          "type": "uint256"
        }
      ],
      "stateMutability": "view",
      "type": "function",
      "constant": true
    },
    {
      "inputs": [],
      "name": "getStakeUnlockTimeLeft",
      "outputs": [
        {
          "internalType": "uint256",
          "name": "",
          "type": "uint256"
        }
      ],
      "stateMutability": "view",
      "type": "function",
      "constant": true
    },
    {
      "inputs": [
        {
          "internalType": "address",
          "name": "_owner",
          "type": "address"
        },
        {
          "internalType": "address",
          "name": "_rewardsDistribution",
          "type": "address"
        },
        {
          "internalType": "address",
          "name": "_rewardsToken",
          "type": "address"
        },
        {
          "internalType": "address",
          "name": "_stakingToken",
          "type": "address"
        },
        {
          "internalType": "uint256",
          "name": "_minimumStakeTime",
          "type": "uint256"
        }
      ],
      "name": "initialize",
      "outputs": [],
      "stateMutability": "nonpayable",
      "type": "function"
    },
    {
      "inputs": [],
      "name": "lastTimeRewardApplicable",
      "outputs": [
        {
          "internalType": "uint256",
          "name": "",
          "type": "uint256"
        }
      ],
      "stateMutability": "view",
      "type": "function",
      "constant": true
    },
    {
      "inputs": [],
      "name": "lastUpdateTime",
      "outputs": [
        {
          "internalType": "uint256",
          "name": "",
          "type": "uint256"
        }
      ],
      "stateMutability": "view",
      "type": "function",
      "constant": true
    },
    {
      "inputs": [
        {
          "internalType": "uint256",
          "name": "_minimumStakeAmount",
          "type": "uint256"
        }
      ],
      "name": "migrateTo_8cb6e70",
      "outputs": [],
      "stateMutability": "nonpayable",
      "type": "function"
    },
    {
      "inputs": [],
      "name": "minimumStakeAmount",
      "outputs": [
        {
          "internalType": "uint256",
          "name": "",
          "type": "uint256"
        }
      ],
      "stateMutability": "view",
      "type": "function",
      "constant": true
    },
    {
      "inputs": [],
      "name": "minimumStakeTime",
      "outputs": [
        {
          "internalType": "uint256",
          "name": "",
          "type": "uint256"
        }
      ],
      "stateMutability": "view",
      "type": "function",
      "constant": true
    },
    {
      "inputs": [
        {
          "internalType": "uint256",
          "name": "reward",
          "type": "uint256"
        }
      ],
      "name": "notifyRewardAmount",
      "outputs": [],
      "stateMutability": "nonpayable",
      "type": "function"
    },
    {
      "inputs": [],
      "name": "owner",
      "outputs": [
        {
          "internalType": "address",
          "name": "",
          "type": "address"
        }
      ],
      "stateMutability": "view",
      "type": "function",
      "constant": true
    },
    {
      "inputs": [],
      "name": "pause",
      "outputs": [],
      "stateMutability": "nonpayable",
      "type": "function"
    },
    {
      "inputs": [],
      "name": "paused",
      "outputs": [
        {
          "internalType": "bool",
          "name": "",
          "type": "bool"
        }
      ],
      "stateMutability": "view",
      "type": "function",
      "constant": true
    },
    {
      "inputs": [],
      "name": "periodFinish",
      "outputs": [
        {
          "internalType": "uint256",
          "name": "",
          "type": "uint256"
        }
      ],
      "stateMutability": "view",
      "type": "function",
      "constant": true
    },
    {
      "inputs": [
        {
          "internalType": "address",
          "name": "tokenAddress",
          "type": "address"
        },
        {
          "internalType": "uint256",
          "name": "tokenAmount",
          "type": "uint256"
        }
      ],
      "name": "recoverERC20",
      "outputs": [],
      "stateMutability": "nonpayable",
      "type": "function"
    },
    {
      "inputs": [],
      "name": "recoverExtraStakingTokensToOwner",
      "outputs": [],
      "stateMutability": "nonpayable",
      "type": "function"
    },
    {
      "inputs": [],
      "name": "recoverOwnStake",
      "outputs": [],
      "stateMutability": "nonpayable",
      "type": "function"
    },
    {
      "inputs": [],
      "name": "renounceOwnership",
      "outputs": [],
      "stateMutability": "nonpayable",
      "type": "function"
    },
    {
      "inputs": [],
      "name": "rewardPerToken",
      "outputs": [
        {
          "internalType": "uint256",
          "name": "",
          "type": "uint256"
        }
      ],
      "stateMutability": "view",
      "type": "function",
      "constant": true
    },
    {
      "inputs": [],
      "name": "rewardPerTokenStored",
      "outputs": [
        {
          "internalType": "uint256",
          "name": "",
          "type": "uint256"
        }
      ],
      "stateMutability": "view",
      "type": "function",
      "constant": true
    },
    {
      "inputs": [],
      "name": "rewardRate",
      "outputs": [
        {
          "internalType": "uint256",
          "name": "",
          "type": "uint256"
        }
      ],
      "stateMutability": "view",
      "type": "function",
      "constant": true
    },
    {
      "inputs": [
        {
          "internalType": "address",
          "name": "",
          "type": "address"
        }
      ],
      "name": "rewards",
      "outputs": [
        {
          "internalType": "uint256",
          "name": "",
          "type": "uint256"
        }
      ],
      "stateMutability": "view",
      "type": "function",
      "constant": true
    },
    {
      "inputs": [],
      "name": "rewardsDistribution",
      "outputs": [
        {
          "internalType": "address",
          "name": "",
          "type": "address"
        }
      ],
      "stateMutability": "view",
      "type": "function",
      "constant": true
    },
    {
      "inputs": [],
      "name": "rewardsDuration",
      "outputs": [
        {
          "internalType": "uint256",
          "name": "",
          "type": "uint256"
        }
      ],
      "stateMutability": "view",
      "type": "function",
      "constant": true
    },
    {
      "inputs": [],
      "name": "rewardsToken",
      "outputs": [
        {
          "internalType": "contract IERC20",
          "name": "",
          "type": "address"
        }
      ],
      "stateMutability": "view",
      "type": "function",
      "constant": true
    },
    {
      "inputs": [
        {
          "internalType": "uint256",
          "name": "_minimumStakeAmount",
          "type": "uint256"
        }
      ],
      "name": "setMinimumStakeAmount",
      "outputs": [],
      "stateMutability": "nonpayable",
      "type": "function"
    },
    {
      "inputs": [
        {
          "internalType": "uint256",
          "name": "_minimumStakeTime",
          "type": "uint256"
        }
      ],
      "name": "setMinimumStakeTime",
      "outputs": [],
      "stateMutability": "nonpayable",
      "type": "function"
    },
    {
      "inputs": [
        {
          "internalType": "address",
          "name": "_rewardsDistribution",
          "type": "address"
        }
      ],
      "name": "setRewardsDistribution",
      "outputs": [],
      "stateMutability": "nonpayable",
      "type": "function"
    },
    {
      "inputs": [
        {
          "internalType": "uint256",
          "name": "_rewardsDuration",
          "type": "uint256"
        }
      ],
      "name": "setRewardsDuration",
      "outputs": [],
      "stateMutability": "nonpayable",
      "type": "function"
    },
    {
      "inputs": [
        {
          "internalType": "uint256",
          "name": "amount",
          "type": "uint256"
        }
      ],
      "name": "stake",
      "outputs": [],
      "stateMutability": "nonpayable",
      "type": "function"
    },
    {
      "inputs": [],
      "name": "stakingToken",
      "outputs": [
        {
          "internalType": "contract IERC20",
          "name": "",
          "type": "address"
        }
      ],
      "stateMutability": "view",
      "type": "function",
      "constant": true
    },
    {
      "inputs": [],
      "name": "totalSupply",
      "outputs": [
        {
          "internalType": "uint256",
          "name": "",
          "type": "uint256"
        }
      ],
      "stateMutability": "view",
      "type": "function",
      "constant": true
    },
    {
      "inputs": [
        {
          "internalType": "address",
          "name": "newOwner",
          "type": "address"
        }
      ],
      "name": "transferOwnership",
      "outputs": [],
      "stateMutability": "nonpayable",
      "type": "function"
    },
    {
      "inputs": [],
      "name": "unpause",
      "outputs": [],
      "stateMutability": "nonpayable",
      "type": "function"
    },
    {
      "inputs": [
        {
          "internalType": "uint256",
          "name": "timestamp",
          "type": "uint256"
        }
      ],
      "name": "updatePeriodFinish",
      "outputs": [],
      "stateMutability": "nonpayable",
      "type": "function"
    },
    {
      "inputs": [
        {
          "internalType": "address",
          "name": "",
          "type": "address"
        }
      ],
      "name": "userRewardPerTokenPaid",
      "outputs": [
        {
          "internalType": "uint256",
          "name": "",
          "type": "uint256"
        }
      ],
      "stateMutability": "view",
      "type": "function",
      "constant": true
    },
    {
      "inputs": [
        {
          "internalType": "uint256",
          "name": "amount",
          "type": "uint256"
        }
      ],
      "name": "withdraw",
      "outputs": [],
      "stateMutability": "nonpayable",
      "type": "function"
    },
    {
      "inputs": [],
      "name": "game",
      "outputs": [
        {
          "internalType": "contract CryptoBlades",
          "name": "",
          "type": "address"
        }
      ],
      "stateMutability": "view",
      "type": "function",
      "constant": true
    },
    {
      "inputs": [
        {
          "internalType": "contract CryptoBlades",
          "name": "_game",
          "type": "address"
        }
      ],
      "name": "migrateTo_23b3a8b",
      "outputs": [],
      "stateMutability": "nonpayable",
      "type": "function"
    },
    {
      "inputs": [
        {
          "internalType": "address",
          "name": "player",
          "type": "address"
        },
        {
          "internalType": "uint256",
          "name": "amount",
          "type": "uint256"
        }
      ],
      "name": "stakeFromGame",
      "outputs": [],
      "stateMutability": "nonpayable",
      "type": "function"
    }
  ],
  "bytecode": "0x608060405234801561001057600080fd5b50613044806100206000396000f3fe608060405234801561001057600080fd5b50600436106102895760003560e01c806372f702f31161015c578063cd3daf9d116100ce578063e9fad8ee11610087578063e9fad8ee146105a1578063ebe2b12b146105a9578063f2fde38b146105b1578063f603944c146105d7578063f7013ef6146105df578063ff9940331461062557610289565b8063cd3daf9d1461053e578063d1af0c7d14610546578063dc88432b1461054e578063df136d6514610574578063e2adc2371461057c578063e94220461461058457610289565b80638b876347116101205780638b876347146104c65780638da5cb5b146104ec578063a694fc3a146104f4578063c3fe3e2814610511578063c8f33c9114610519578063cc1a378f1461052157610289565b806372f702f31461047a5780637b0a47ee1461048257806380faa57d1461048a5780638456cb59146104925780638980f11f1461049a57610289565b8063386a952511610200578063556f6e6b116101b9578063556f6e6b146103f35780635c975abb14610410578063668e0122146104185780636b036f451461044457806370a082311461044c578063715018a61461047257610289565b8063386a9525146103925780633c6b16ab1461039a5780633d18b912146103b75780633f4ba83a146103bf5780633fc6df6e146103c757806344142db5146103eb57610289565b80631976214311610252578063197621431461032f5780631c1f78eb14610355578063242df9e11461035d57806327ab1969146103655780632e1a7d4d1461036d5780632f3d3b141461038a57610289565b80628cc2621461028e5780630700037d146102c65780630d29fcd4146102ec5780631265cc971461030b57806318160ddd14610327575b600080fd5b6102b4600480360360208110156102a457600080fd5b50356001600160a01b0316610642565b60408051918252519081900360200190f35b6102b4600480360360208110156102dc57600080fd5b50356001600160a01b03166106d8565b6103096004803603602081101561030257600080fd5b50356106ea565b005b6103136107c9565b604080519115158252519081900360200190f35b6102b46107d2565b6103096004803603602081101561034557600080fd5b50356001600160a01b03166107d9565b6102b461085d565b6102b461087b565b6102b4610881565b6103096004803603602081101561038357600080fd5b50356108b4565b610309610b2c565b6102b4610be8565b610309600480360360208110156103b057600080fd5b5035610bee565b610309610e8c565b61030961106a565b6103cf611126565b604080516001600160a01b039092168252519081900360200190f35b610309611135565b6103096004803603602081101561040957600080fd5b5035611252565b6103136113a3565b6103096004803603604081101561042e57600080fd5b506001600160a01b0381351690602001356113b1565b6102b4611580565b6102b46004803603602081101561046257600080fd5b50356001600160a01b0316611586565b6103096115a1565b6103cf61164d565b6102b461165c565b6102b4611662565b610309611670565b610309600480360360408110156104b057600080fd5b506001600160a01b038135169060200135611727565b6102b4600480360360208110156104dc57600080fd5b50356001600160a01b0316611840565b6103cf611852565b6103096004803603602081101561050a57600080fd5b5035611861565b6103cf6119c9565b6102b46119d8565b6103096004803603602081101561053757600080fd5b50356119de565b6102b4611afd565b6103cf611b57565b6103096004803603602081101561056457600080fd5b50356001600160a01b0316611b66565b6102b4611bea565b610309611bf0565b6103096004803603602081101561059a57600080fd5b5035611cb5565b610309611d94565b6102b4611df7565b610309600480360360208110156105c757600080fd5b50356001600160a01b0316611dfd565b6102b4611f00565b610309600480360360a08110156105f557600080fd5b506001600160a01b0381358116916020810135821691604082013581169160608101359091169060800135611f3b565b6103096004803603602081101561063b57600080fd5b503561206e565b6001600160a01b038116600090815260d3602090815260408083205460d29092528220546106d291906106c690670de0b6b3a7640000906106ba9061069590610689611afd565b9063ffffffff6120d516565b6001600160a01b038816600090815260d560205260409020549063ffffffff61213216565b9063ffffffff61219216565b9063ffffffff6121f916565b92915050565b60d36020526000908152604090205481565b60985460ff161561072c5760405162461bcd60e51b8152600401808060200182810382526046815260200180612dbf6046913960600191505060405180910390fd5b610734612253565b6001600160a01b0316610745611852565b6001600160a01b03161461078e576040805162461bcd60e51b81526020600482018190526024820152600080516020612ee8833981519152604482015290519081900360640190fd5b60d88190556040805182815290517ff7fc4cb95c43f64f7a376fd9ef5947d85e6aff2df3e9b1715789ffff63d716329181900360200190a150565b60985460ff1681565b60d4545b90565b6107e1612253565b6001600160a01b03166107f2611852565b6001600160a01b03161461083b576040805162461bcd60e51b81526020600482018190526024820152600080516020612ee8833981519152604482015290519081900360640190fd5b606580546001600160a01b0319166001600160a01b0392909216919091179055565b600061087660ce5460cd5461213290919063ffffffff16565b905090565b60cf5481565b600080600061089b4260cc5461225790919063ffffffff16565b91509150816108ab5760006108ad565b805b9250505090565b60985460ff16156108f65760405162461bcd60e51b8152600401808060200182810382526046815260200180612dbf6046913960600191505060405180910390fd5b6002606654141561093c576040805162461bcd60e51b815260206004820152601f6024820152600080516020612d9f833981519152604482015290519081900360640190fd5b6002606655609854339060ff166109a757610955611afd565b60d155610960611662565b60d0556001600160a01b038116156109a75761097b81610642565b6001600160a01b038216600090815260d3602090815260408083209390935560d15460d2909152919020555b600082116109f0576040805162461bcd60e51b8152602060048201526011602482015270043616e6e6f74207769746864726177203607c1b604482015290519081900360640190fd5b60cf541580610a21575060cf5433600090815260d66020526040902054610a1e90429063ffffffff6120d516565b10155b610a5c5760405162461bcd60e51b8152600401808060200182810382526035815260200180612f086035913960400191505060405180910390fd5b60d454610a6f908363ffffffff6120d516565b60d45533600090815260d56020526040902054610a92908363ffffffff6120d516565b33600090815260d560205260409020819055610abd5733600090815260d66020526040812055610ad0565b33600090815260d6602052604090204290555b60cb54610aed906001600160a01b0316338463ffffffff61227d16565b60408051838152905133917f7084f5476618d8e60b11ef0d7d3f06914655adb8793e28ff7f018d4c76d505d5919081900360200190a250506001606655565b60985460ff16610b6d5760405162461bcd60e51b8152600401808060200182810382526048815260200180612e056048913960600191505060405180910390fd5b33600090815260d560205260409020548015610be55760d454610b96908263ffffffff6120d516565b60d45533600090815260d56020526040902054610bb9908263ffffffff6120d516565b33600081815260d5602052604090209190915560cb54610be5916001600160a01b03909116908361227d565b50565b60ce5481565b60985460ff1615610c305760405162461bcd60e51b8152600401808060200182810382526046815260200180612dbf6046913960600191505060405180910390fd5b6065546001600160a01b03163314610c795760405162461bcd60e51b815260040180806020018281038252602a815260200180612f63602a913960400191505060405180910390fd5b60985460009060ff16610ce057610c8e611afd565b60d155610c99611662565b60d0556001600160a01b03811615610ce057610cb481610642565b6001600160a01b038216600090815260d3602090815260408083209390935560d15460d2909152919020555b60cc544210610d055760ce54610cfd90839063ffffffff61219216565b60cd55610d54565b60cc54600090610d1b904263ffffffff6120d516565b90506000610d3460cd548361213290919063ffffffff16565b60ce54909150610d4e906106ba868463ffffffff6121f916565b60cd5550505b60ca54604080516370a0823160e01b815230600482015290516000926001600160a01b0316916370a08231916024808301926020929190829003018186803b158015610d9f57600080fd5b505afa158015610db3573d6000803e3d6000fd5b505050506040513d6020811015610dc957600080fd5b505160ce54909150610de290829063ffffffff61219216565b60cd541115610e38576040805162461bcd60e51b815260206004820152601860248201527f50726f76696465642072657761726420746f6f20686967680000000000000000604482015290519081900360640190fd5b4260d081905560ce54610e51919063ffffffff6121f916565b60cc556040805184815290517fde88a922e0d3b88b24e9623efeb464919c6bf9f66857a65e2bfcf2ce87a9433d9181900360200190a1505050565b60985460ff1615610ece5760405162461bcd60e51b8152600401808060200182810382526046815260200180612dbf6046913960600191505060405180910390fd5b60026066541415610f14576040805162461bcd60e51b815260206004820152601f6024820152600080516020612d9f833981519152604482015290519081900360640190fd5b6002606655609854339060ff16610f7f57610f2d611afd565b60d155610f38611662565b60d0556001600160a01b03811615610f7f57610f5381610642565b6001600160a01b038216600090815260d3602090815260408083209390935560d15460d2909152919020555b60cf541580610fb0575060cf5433600090815260d66020526040902054610fad90429063ffffffff6120d516565b10155b610feb5760405162461bcd60e51b8152600401808060200182810382526037815260200180612fb76037913960400191505060405180910390fd5b33600090815260d3602052604090205480156110615733600081815260d3602052604081205560ca5461102a916001600160a01b03909116908361227d565b60408051828152905133917fe2403640ba68fed3a2f88b7557551d1993f84b99bb10ff833f0cf8db0c5e0486919081900360200190a25b50506001606655565b611072612253565b6001600160a01b0316611083611852565b6001600160a01b0316146110cc576040805162461bcd60e51b81526020600482018190526024820152600080516020612ee8833981519152604482015290519081900360640190fd5b6110d46113a3565b61111c576040805162461bcd60e51b815260206004820152601460248201527314185d5cd8589b194e881b9bdd081c185d5cd95960621b604482015290519081900360640190fd5b6111246122d4565b565b6065546001600160a01b031681565b61113d612253565b6001600160a01b031661114e611852565b6001600160a01b031614611197576040805162461bcd60e51b81526020600482018190526024820152600080516020612ee8833981519152604482015290519081900360640190fd5b60d45460cb54604080516370a0823160e01b815230600482015290516000936112269390926001600160a01b03909116916370a0823191602480820192602092909190829003018186803b1580156111ee57600080fd5b505afa158015611202573d6000803e3d6000fd5b505050506040513d602081101561121857600080fd5b50519063ffffffff6120d516565b90508015610be557610be5611239611852565b60cb546001600160a01b0316908363ffffffff61227d16565b60985460ff16156112945760405162461bcd60e51b8152600401808060200182810382526046815260200180612dbf6046913960600191505060405180910390fd5b61129c612253565b6001600160a01b03166112ad611852565b6001600160a01b0316146112f6576040805162461bcd60e51b81526020600482018190526024820152600080516020612ee8833981519152604482015290519081900360640190fd5b60985460009060ff1661135d5761130b611afd565b60d155611316611662565b60d0556001600160a01b0381161561135d5761133181610642565b6001600160a01b038216600090815260d3602090815260408083209390935560d15460d2909152919020555b60d054821161139d5760405162461bcd60e51b8152600401808060200182810382526026815260200180612f3d6026913960400191505060405180910390fd5b5060cc55565b609854610100900460ff1690565b60985460ff16156113f35760405162461bcd60e51b8152600401808060200182810382526046815260200180612dbf6046913960600191505060405180910390fd5b60026066541415611439576040805162461bcd60e51b815260206004820152601f6024820152600080516020612d9f833981519152604482015290519081900360640190fd5b60026066556114466113a3565b1561148b576040805162461bcd60e51b815260206004820152601060248201526f14185d5cd8589b194e881c185d5cd95960821b604482015290519081900360640190fd5b60d7546001600160a01b031633146114e2576040805162461bcd60e51b81526020600482015260156024820152744f6e6c792063616c6c61626c652062792067616d6560581b604482015290519081900360640190fd5b609854829060ff16611548576114f6611afd565b60d155611501611662565b60d0556001600160a01b038116156115485761151c81610642565b6001600160a01b038216600090815260d3602090815260408083209390935560d15460d2909152919020555b6115528383612375565b60d75460cb54611576916001600160a01b039182169116308563ffffffff61249316565b5050600160665550565b60d85481565b6001600160a01b0316600090815260d5602052604090205490565b6115a9612253565b6001600160a01b03166115ba611852565b6001600160a01b031614611603576040805162461bcd60e51b81526020600482018190526024820152600080516020612ee8833981519152604482015290519081900360640190fd5b6033546040516000916001600160a01b0316907f8be0079c531659141344cd1fd0a4f28419497f9722a3daafe3b4186f6b6457e0908390a3603380546001600160a01b0319169055565b60cb546001600160a01b031681565b60cd5481565b60006108764260cc546124f3565b611678612253565b6001600160a01b0316611689611852565b6001600160a01b0316146116d2576040805162461bcd60e51b81526020600482018190526024820152600080516020612ee8833981519152604482015290519081900360640190fd5b6116da6113a3565b1561171f576040805162461bcd60e51b815260206004820152601060248201526f14185d5cd8589b194e881c185d5cd95960821b604482015290519081900360640190fd5b611124612509565b61172f612253565b6001600160a01b0316611740611852565b6001600160a01b031614611789576040805162461bcd60e51b81526020600482018190526024820152600080516020612ee8833981519152604482015290519081900360640190fd5b60cb546001600160a01b03838116911614156117d65760405162461bcd60e51b8152600401808060200182810382526021815260200180612fee6021913960400191505060405180910390fd5b6117f86117e1611852565b6001600160a01b038416908363ffffffff61227d16565b604080516001600160a01b03841681526020810183905281517f8c1256b8896378cd5044f80c202f9772b9d77dc85c8a6eb51967210b09bfaa28929181900390910190a15050565b60d26020526000908152604090205481565b6033546001600160a01b031690565b60985460ff16156118a35760405162461bcd60e51b8152600401808060200182810382526046815260200180612dbf6046913960600191505060405180910390fd5b600260665414156118e9576040805162461bcd60e51b815260206004820152601f6024820152600080516020612d9f833981519152604482015290519081900360640190fd5b60026066556118f66113a3565b1561193b576040805162461bcd60e51b815260206004820152601060248201526f14185d5cd8589b194e881c185d5cd95960821b604482015290519081900360640190fd5b609854339060ff166119a15761194f611afd565b60d15561195a611662565b60d0556001600160a01b038116156119a15761197581610642565b6001600160a01b038216600090815260d3602090815260408083209390935560d15460d2909152919020555b6119ab3383612375565b60cb54611061906001600160a01b031633308563ffffffff61249316565b60d7546001600160a01b031690565b60d05481565b60985460ff1615611a205760405162461bcd60e51b8152600401808060200182810382526046815260200180612dbf6046913960600191505060405180910390fd5b611a28612253565b6001600160a01b0316611a39611852565b6001600160a01b031614611a82576040805162461bcd60e51b81526020600482018190526024820152600080516020612ee8833981519152604482015290519081900360640190fd5b60cc544211611ac25760405162461bcd60e51b8152600401808060200182810382526058815260200180612d476058913960600191505060405180910390fd5b60ce8190556040805182815290517ffb46ca5a5e06d4540d6387b930a7c978bce0db5f449ec6b3f5d07c6e1d44f2d39181900360200190a150565b600060d45460001415611b13575060d1546107d6565b610876611b4860d4546106ba670de0b6b3a7640000611b3c60cd54611b3c60d054610689611662565b9063ffffffff61213216565b60d1549063ffffffff6121f916565b60ca546001600160a01b031681565b611b6e612253565b6001600160a01b0316611b7f611852565b6001600160a01b031614611bc8576040805162461bcd60e51b81526020600482018190526024820152600080516020612ee8833981519152604482015290519081900360640190fd5b60d780546001600160a01b0319166001600160a01b0392909216919091179055565b60d15481565b60985460ff1615611c325760405162461bcd60e51b8152600401808060200182810382526046815260200180612dbf6046913960600191505060405180910390fd5b611c3a612253565b6001600160a01b0316611c4b611852565b6001600160a01b031614611c94576040805162461bcd60e51b81526020600482018190526024820152600080516020612ee8833981519152604482015290519081900360640190fd5b600060d881905560cf81905560cc81905560cd81905560d15561112461258e565b60985460ff1615611cf75760405162461bcd60e51b8152600401808060200182810382526046815260200180612dbf6046913960600191505060405180910390fd5b611cff612253565b6001600160a01b0316611d10611852565b6001600160a01b031614611d59576040805162461bcd60e51b81526020600482018190526024820152600080516020612ee8833981519152604482015290519081900360640190fd5b60cf8190556040805182815290517f2b0fa66d155c9598699cb6569577f27b95729bbf580268eed39db6bc4e8144779181900360200190a150565b60985460ff1615611dd65760405162461bcd60e51b8152600401808060200182810382526046815260200180612dbf6046913960600191505060405180910390fd5b33600090815260d56020526040902054611def906108b4565b611124610e8c565b60cc5481565b611e05612253565b6001600160a01b0316611e16611852565b6001600160a01b031614611e5f576040805162461bcd60e51b81526020600482018190526024820152600080516020612ee8833981519152604482015290519081900360640190fd5b6001600160a01b038116611ea45760405162461bcd60e51b8152600401808060200182810382526026815260200180612e4d6026913960400191505060405180910390fd5b6033546040516001600160a01b038084169216907f8be0079c531659141344cd1fd0a4f28419497f9722a3daafe3b4186f6b6457e090600090a3603380546001600160a01b0319166001600160a01b0392909216919091179055565b60cf5433600090815260d6602052604081205490918291829161089b914291611f2f919063ffffffff6121f916565b9063ffffffff61225716565b600054610100900460ff1680611f545750611f54612628565b80611f62575060005460ff16155b611f9d5760405162461bcd60e51b815260040180806020018281038252602e815260200180612e99602e913960400191505060405180910390fd5b600054610100900460ff16158015611fc8576000805460ff1961ff0019909116610100171660011790555b611fd0612639565b611fd86126e2565b611fe06127db565b611fe8612887565b611ff0612932565b611ff86129d8565b61200186611dfd565b60ca80546001600160a01b038087166001600160a01b03199283161790925560cb8054868416908316179055606580549288169290911691909117905560cf829055600060cc81905560cd5562ed4e0060ce558015612066576000805461ff00191690555b505050505050565b612076612253565b6001600160a01b0316612087611852565b6001600160a01b0316146120d0576040805162461bcd60e51b81526020600482018190526024820152600080516020612ee8833981519152604482015290519081900360640190fd5b60d855565b60008282111561212c576040805162461bcd60e51b815260206004820152601e60248201527f536166654d6174683a207375627472616374696f6e206f766572666c6f770000604482015290519081900360640190fd5b50900390565b600082612141575060006106d2565b8282028284828161214e57fe5b041461218b5760405162461bcd60e51b8152600401808060200182810382526021815260200180612ec76021913960400191505060405180910390fd5b9392505050565b60008082116121e8576040805162461bcd60e51b815260206004820152601a60248201527f536166654d6174683a206469766973696f6e206279207a65726f000000000000604482015290519081900360640190fd5b8183816121f157fe5b049392505050565b60008282018381101561218b576040805162461bcd60e51b815260206004820152601b60248201527f536166654d6174683a206164646974696f6e206f766572666c6f770000000000604482015290519081900360640190fd5b3390565b6000808383111561226d57506000905080612276565b50600190508183035b9250929050565b604080516001600160a01b038416602482015260448082018490528251808303909101815260649091019091526020810180516001600160e01b031663a9059cbb60e01b1790526122cf908490612a78565b505050565b6122dc6113a3565b612324576040805162461bcd60e51b815260206004820152601460248201527314185d5cd8589b194e881b9bdd081c185d5cd95960621b604482015290519081900360640190fd5b6098805461ff00191690557f5db9ee0a495bf2e6ff9c91a7834c1ba4fdd244a5e8aa4e537bd38aeae4b073aa612358612253565b604080516001600160a01b039092168252519081900360200190a1565b60d8548110156123cc576040805162461bcd60e51b815260206004820152601d60248201527f4d696e696d756d207374616b6520616d6f756e74207265717569726564000000604482015290519081900360640190fd5b60d4546123df908263ffffffff6121f916565b60d4556001600160a01b038216600090815260d5602052604090205461240b908263ffffffff6121f916565b6001600160a01b038316600090815260d5602090815260408083209390935560d690522054612450576001600160a01b038216600090815260d6602052604090204290555b6040805182815290516001600160a01b038416917f9e71bc8eea02a63969f509818f2dafb9254532904319f9dbda79b67bd34a5f3d919081900360200190a25050565b604080516001600160a01b0380861660248301528416604482015260648082018490528251808303909101815260849091019091526020810180516001600160e01b03166323b872dd60e01b1790526124ed908590612a78565b50505050565b6000818310612502578161218b565b5090919050565b6125116113a3565b15612556576040805162461bcd60e51b815260206004820152601060248201526f14185d5cd8589b194e881c185d5cd95960821b604482015290519081900360640190fd5b6098805461ff0019166101001790557f62e78cea01bee320cd4e420270b5ea74000d11b0c9f74754ebdbfc544b05a258612358612253565b612596612253565b6001600160a01b03166125a7611852565b6001600160a01b0316146125f0576040805162461bcd60e51b81526020600482018190526024820152600080516020612ee8833981519152604482015290519081900360640190fd5b6098805460ff191660011790556040517fe68101b30364d616deefc8cd307b7e27ccbd9c73f138bd478179497563d97a1190600090a1565b600061263330612b29565b15905090565b600054610100900460ff16806126525750612652612628565b80612660575060005460ff16155b61269b5760405162461bcd60e51b815260040180806020018281038252602e815260200180612e99602e913960400191505060405180910390fd5b600054610100900460ff161580156126c6576000805460ff1961ff0019909116610100171660011790555b6126ce6129d8565b8015610be5576000805461ff001916905550565b600054610100900460ff16806126fb57506126fb612628565b80612709575060005460ff16155b6127445760405162461bcd60e51b815260040180806020018281038252602e815260200180612e99602e913960400191505060405180910390fd5b600054610100900460ff1615801561276f576000805460ff1961ff0019909116610100171660011790555b6000612779612253565b603380546001600160a01b0319166001600160a01b038316908117909155604051919250906000907f8be0079c531659141344cd1fd0a4f28419497f9722a3daafe3b4186f6b6457e0908290a3508015610be5576000805461ff001916905550565b600054610100900460ff16806127f457506127f4612628565b80612802575060005460ff16155b61283d5760405162461bcd60e51b815260040180806020018281038252602e815260200180612e99602e913960400191505060405180910390fd5b600054610100900460ff16158015612868576000805460ff1961ff0019909116610100171660011790555b6098805461ff00191690558015610be5576000805461ff001916905550565b600054610100900460ff16806128a057506128a0612628565b806128ae575060005460ff16155b6128e95760405162461bcd60e51b815260040180806020018281038252602e815260200180612e99602e913960400191505060405180910390fd5b600054610100900460ff16158015612914576000805460ff1961ff0019909116610100171660011790555b6098805460ff191690558015610be5576000805461ff001916905550565b600054610100900460ff168061294b575061294b612628565b80612959575060005460ff16155b6129945760405162461bcd60e51b815260040180806020018281038252602e815260200180612e99602e913960400191505060405180910390fd5b600054610100900460ff161580156129bf576000805460ff1961ff0019909116610100171660011790555b60016066558015610be5576000805461ff001916905550565b600054610100900460ff16806129f157506129f1612628565b806129ff575060005460ff16155b612a3a5760405162461bcd60e51b815260040180806020018281038252602e815260200180612e99602e913960400191505060405180910390fd5b600054610100900460ff161580156126ce576000805460ff1961ff0019909116610100171660011790558015610be5576000805461ff001916905550565b6060612acd826040518060400160405280602081526020017f5361666545524332303a206c6f772d6c6576656c2063616c6c206661696c6564815250856001600160a01b0316612b2f9092919063ffffffff16565b8051909150156122cf57808060200190516020811015612aec57600080fd5b50516122cf5760405162461bcd60e51b815260040180806020018281038252602a815260200180612f8d602a913960400191505060405180910390fd5b3b151590565b6060612b3e8484600085612b46565b949350505050565b606082471015612b875760405162461bcd60e51b8152600401808060200182810382526026815260200180612e736026913960400191505060405180910390fd5b612b9085612b29565b612be1576040805162461bcd60e51b815260206004820152601d60248201527f416464726573733a2063616c6c20746f206e6f6e2d636f6e7472616374000000604482015290519081900360640190fd5b60006060866001600160a01b031685876040518082805190602001908083835b60208310612c205780518252601f199092019160209182019101612c01565b6001836020036101000a03801982511681845116808217855250505050505090500191505060006040518083038185875af1925050503d8060008114612c82576040519150601f19603f3d011682016040523d82523d6000602084013e612c87565b606091505b5091509150612c97828286612ca2565b979650505050505050565b60608315612cb157508161218b565b825115612cc15782518084602001fd5b8160405162461bcd60e51b81526004018080602001828103825283818151815260200191508051906020019080838360005b83811015612d0b578181015183820152602001612cf3565b50505050905090810190601f168015612d385780820380516001836020036101000a031916815260200191505b509250505060405180910390fdfe50726576696f7573207265776172647320706572696f64206d75737420626520636f6d706c657465206265666f7265206368616e67696e6720746865206475726174696f6e20666f7220746865206e657720706572696f645265656e7472616e637947756172643a207265656e7472616e742063616c6c005468697320616374696f6e2063616e6e6f7420626520706572666f726d6564207768696c652074686520636f6e747261637420697320696e204661696c73616665204d6f64655468697320616374696f6e2063616e206f6e6c7920626520706572666f726d6564207768696c652074686520636f6e747261637420697320696e204661696c73616665204d6f64654f776e61626c653a206e6577206f776e657220697320746865207a65726f2061646472657373416464726573733a20696e73756666696369656e742062616c616e636520666f722063616c6c496e697469616c697a61626c653a20636f6e747261637420697320616c726561647920696e697469616c697a6564536166654d6174683a206d756c7469706c69636174696f6e206f766572666c6f774f776e61626c653a2063616c6c6572206973206e6f7420746865206f776e657243616e6e6f7420776974686472617720756e74696c206d696e696d756d207374616b696e672074696d65206861732070617373656454696d657374616d70206d757374206265206166746572206c61737455706461746554696d6543616c6c6572206973206e6f742052657761726473446973747269627574696f6e20636f6e74726163745361666545524332303a204552433230206f7065726174696f6e20646964206e6f74207375636365656443616e6e6f74206765742072657761726420756e74696c206d696e696d756d207374616b696e672074696d65206861732070617373656443616e6e6f7420776974686472617720746865207374616b696e6720746f6b656ea2646970667358221220c2c164e2220156549738eb23a3e2d38a72ac21b01a68c583e63264a32cb0aab764736f6c63430006050033",
  "immutableReferences": {},
  "source": "pragma solidity ^0.6.2;\r\n\r\nimport \"./staking/StakingRewardsUpgradeable.sol\";\r\nimport \"./interfaces/IStakeFromGame.sol\";\r\nimport \"./cryptoblades.sol\";\r\n\r\ncontract SkillStakingRewardsUpgradeable is IStakeFromGame, StakingRewardsUpgradeable {\r\n    /* ========== VIEWS ========== */\r\n\r\n    function game() external view returns (CryptoBlades) {\r\n        return __game;\r\n    }\r\n\r\n    /* ========== RESTRICTED FUNCTIONS ========== */\r\n\r\n    function migrateTo_23b3a8b(CryptoBlades _game) external onlyOwner {\r\n        __game = _game;\r\n    }\r\n\r\n    function stakeFromGame(address player, uint256 amount)\r\n        external\r\n        override\r\n        normalMode\r\n        nonReentrant\r\n        whenNotPaused\r\n        onlyGame\r\n        updateReward(player)\r\n    {\r\n        _stake(player, amount);\r\n        stakingToken.safeTransferFrom(address(__game), address(this), amount);\r\n    }\r\n\r\n    /* ========== MODIFIERS ========== */\r\n\r\n    modifier onlyGame() {\r\n        require(msg.sender == address(__game), \"Only callable by game\");\r\n        _;\r\n    }\r\n}\r\n",
  "sourcePath": "F:/vscode/cblades/contracts/SkillStakingRewardsUpgradeable.sol",
  "compiler": {
    "name": "solc",
    "version": "0.6.5+commit.f956cc89.Emscripten.clang"
  },
  "schemaVersion": "3.3.4",
  "updatedAt": "2021-07-29T00:45:16.918Z",
  "networkType": "ethereum",
  "devdoc": {
    "methods": {
      "owner()": {
        "details": "Returns the address of the current owner."
      },
      "paused()": {
        "details": "Returns true if the contract is paused, and false otherwise."
      },
      "renounceOwnership()": {
        "details": "Leaves the contract without owner. It will not be possible to call `onlyOwner` functions anymore. Can only be called by the current owner.     * NOTE: Renouncing ownership will leave the contract without an owner, thereby removing any functionality that is only available to the owner."
      },
      "transferOwnership(address)": {
        "details": "Transfers ownership of the contract to a new account (`newOwner`). Can only be called by the current owner."
      }
    }
  },
  "userdoc": {
    "methods": {}
  }
}