{
  "contractName": "SkillStakingRewardsUpgradeable",
  "abi": [
    {
      "anonymous": false,
      "inputs": [],
      "name": "FailsafeModeEnabled",
      "type": "event"
    },
    {
      "anonymous": false,
      "inputs": [
        {
          "indexed": false,
          "internalType": "uint256",
          "name": "newMinimumStakeTime",
          "type": "uint256"
        }
      ],
      "name": "MinimumStakeTimeUpdated",
      "type": "event"
    },
    {
      "anonymous": false,
      "inputs": [
        {
          "indexed": true,
          "internalType": "address",
          "name": "previousOwner",
          "type": "address"
        },
        {
          "indexed": true,
          "internalType": "address",
          "name": "newOwner",
          "type": "address"
        }
      ],
      "name": "OwnershipTransferred",
      "type": "event"
    },
    {
      "anonymous": false,
      "inputs": [
        {
          "indexed": false,
          "internalType": "address",
          "name": "account",
          "type": "address"
        }
      ],
      "name": "Paused",
      "type": "event"
    },
    {
      "anonymous": false,
      "inputs": [
        {
          "indexed": false,
          "internalType": "address",
          "name": "token",
          "type": "address"
        },
        {
          "indexed": false,
          "internalType": "uint256",
          "name": "amount",
          "type": "uint256"
        }
      ],
      "name": "Recovered",
      "type": "event"
    },
    {
      "anonymous": false,
      "inputs": [
        {
          "indexed": false,
          "internalType": "uint256",
          "name": "reward",
          "type": "uint256"
        }
      ],
      "name": "RewardAdded",
      "type": "event"
    },
    {
      "anonymous": false,
      "inputs": [
        {
          "indexed": true,
          "internalType": "address",
          "name": "user",
          "type": "address"
        },
        {
          "indexed": false,
          "internalType": "uint256",
          "name": "reward",
          "type": "uint256"
        }
      ],
      "name": "RewardPaid",
      "type": "event"
    },
    {
      "anonymous": false,
      "inputs": [
        {
          "indexed": false,
          "internalType": "uint256",
          "name": "newDuration",
          "type": "uint256"
        }
      ],
      "name": "RewardsDurationUpdated",
      "type": "event"
    },
    {
      "anonymous": false,
      "inputs": [
        {
          "indexed": true,
          "internalType": "address",
          "name": "user",
          "type": "address"
        },
        {
          "indexed": false,
          "internalType": "uint256",
          "name": "amount",
          "type": "uint256"
        }
      ],
      "name": "Staked",
      "type": "event"
    },
    {
      "anonymous": false,
      "inputs": [
        {
          "indexed": false,
          "internalType": "address",
          "name": "account",
          "type": "address"
        }
      ],
      "name": "Unpaused",
      "type": "event"
    },
    {
      "anonymous": false,
      "inputs": [
        {
          "indexed": true,
          "internalType": "address",
          "name": "user",
          "type": "address"
        },
        {
          "indexed": false,
          "internalType": "uint256",
          "name": "amount",
          "type": "uint256"
        }
      ],
      "name": "Withdrawn",
      "type": "event"
    },
    {
      "inputs": [
        {
          "internalType": "address",
          "name": "account",
          "type": "address"
        }
      ],
      "name": "balanceOf",
      "outputs": [
        {
          "internalType": "uint256",
          "name": "",
          "type": "uint256"
        }
      ],
      "stateMutability": "view",
      "type": "function"
    },
    {
      "inputs": [
        {
          "internalType": "address",
          "name": "account",
          "type": "address"
        }
      ],
      "name": "earned",
      "outputs": [
        {
          "internalType": "uint256",
          "name": "",
          "type": "uint256"
        }
      ],
      "stateMutability": "view",
      "type": "function"
    },
    {
      "inputs": [],
      "name": "enableFailsafeMode",
      "outputs": [],
      "stateMutability": "nonpayable",
      "type": "function"
    },
    {
      "inputs": [],
      "name": "exit",
      "outputs": [],
      "stateMutability": "nonpayable",
      "type": "function"
    },
    {
      "inputs": [],
      "name": "failsafeModeActive",
      "outputs": [
        {
          "internalType": "bool",
          "name": "",
          "type": "bool"
        }
      ],
      "stateMutability": "view",
      "type": "function"
    },
    {
      "inputs": [],
      "name": "game",
      "outputs": [
        {
          "internalType": "contract CryptoBlades",
          "name": "",
          "type": "address"
        }
      ],
      "stateMutability": "view",
      "type": "function"
    },
    {
      "inputs": [],
      "name": "getReward",
      "outputs": [],
      "stateMutability": "nonpayable",
      "type": "function"
    },
    {
      "inputs": [],
      "name": "getRewardForDuration",
      "outputs": [
        {
          "internalType": "uint256",
          "name": "",
          "type": "uint256"
        }
      ],
      "stateMutability": "view",
      "type": "function"
    },
    {
      "inputs": [],
      "name": "getStakeRewardDistributionTimeLeft",
      "outputs": [
        {
          "internalType": "uint256",
          "name": "",
          "type": "uint256"
        }
      ],
      "stateMutability": "view",
      "type": "function"
    },
    {
      "inputs": [],
      "name": "getStakeUnlockTimeLeft",
      "outputs": [
        {
          "internalType": "uint256",
          "name": "",
          "type": "uint256"
        }
      ],
      "stateMutability": "view",
      "type": "function"
    },
    {
      "inputs": [
        {
          "internalType": "address",
          "name": "_owner",
          "type": "address"
        },
        {
          "internalType": "address",
          "name": "_rewardsDistribution",
          "type": "address"
        },
        {
          "internalType": "address",
          "name": "_rewardsToken",
          "type": "address"
        },
        {
          "internalType": "address",
          "name": "_stakingToken",
          "type": "address"
        },
        {
          "internalType": "uint256",
          "name": "_minimumStakeTime",
          "type": "uint256"
        }
      ],
      "name": "initialize",
      "outputs": [],
      "stateMutability": "nonpayable",
      "type": "function"
    },
    {
      "inputs": [],
      "name": "lastTimeRewardApplicable",
      "outputs": [
        {
          "internalType": "uint256",
          "name": "",
          "type": "uint256"
        }
      ],
      "stateMutability": "view",
      "type": "function"
    },
    {
      "inputs": [],
      "name": "lastUpdateTime",
      "outputs": [
        {
          "internalType": "uint256",
          "name": "",
          "type": "uint256"
        }
      ],
      "stateMutability": "view",
      "type": "function"
    },
    {
      "inputs": [],
      "name": "minimumStakeTime",
      "outputs": [
        {
          "internalType": "uint256",
          "name": "",
          "type": "uint256"
        }
      ],
      "stateMutability": "view",
      "type": "function"
    },
    {
      "inputs": [
        {
          "internalType": "uint256",
          "name": "reward",
          "type": "uint256"
        }
      ],
      "name": "notifyRewardAmount",
      "outputs": [],
      "stateMutability": "nonpayable",
      "type": "function"
    },
    {
      "inputs": [],
      "name": "owner",
      "outputs": [
        {
          "internalType": "address",
          "name": "",
          "type": "address"
        }
      ],
      "stateMutability": "view",
      "type": "function"
    },
    {
      "inputs": [],
      "name": "pause",
      "outputs": [],
      "stateMutability": "nonpayable",
      "type": "function"
    },
    {
      "inputs": [],
      "name": "paused",
      "outputs": [
        {
          "internalType": "bool",
          "name": "",
          "type": "bool"
        }
      ],
      "stateMutability": "view",
      "type": "function"
    },
    {
      "inputs": [],
      "name": "periodFinish",
      "outputs": [
        {
          "internalType": "uint256",
          "name": "",
          "type": "uint256"
        }
      ],
      "stateMutability": "view",
      "type": "function"
    },
    {
      "inputs": [
        {
          "internalType": "address",
          "name": "tokenAddress",
          "type": "address"
        },
        {
          "internalType": "uint256",
          "name": "tokenAmount",
          "type": "uint256"
        }
      ],
      "name": "recoverERC20",
      "outputs": [],
      "stateMutability": "nonpayable",
      "type": "function"
    },
    {
      "inputs": [],
      "name": "recoverExtraStakingTokensToOwner",
      "outputs": [],
      "stateMutability": "nonpayable",
      "type": "function"
    },
    {
      "inputs": [],
      "name": "recoverOwnStake",
      "outputs": [],
      "stateMutability": "nonpayable",
      "type": "function"
    },
    {
      "inputs": [],
      "name": "renounceOwnership",
      "outputs": [],
      "stateMutability": "nonpayable",
      "type": "function"
    },
    {
      "inputs": [],
      "name": "rewardPerToken",
      "outputs": [
        {
          "internalType": "uint256",
          "name": "",
          "type": "uint256"
        }
      ],
      "stateMutability": "view",
      "type": "function"
    },
    {
      "inputs": [],
      "name": "rewardPerTokenStored",
      "outputs": [
        {
          "internalType": "uint256",
          "name": "",
          "type": "uint256"
        }
      ],
      "stateMutability": "view",
      "type": "function"
    },
    {
      "inputs": [],
      "name": "rewardRate",
      "outputs": [
        {
          "internalType": "uint256",
          "name": "",
          "type": "uint256"
        }
      ],
      "stateMutability": "view",
      "type": "function"
    },
    {
      "inputs": [
        {
          "internalType": "address",
          "name": "",
          "type": "address"
        }
      ],
      "name": "rewards",
      "outputs": [
        {
          "internalType": "uint256",
          "name": "",
          "type": "uint256"
        }
      ],
      "stateMutability": "view",
      "type": "function"
    },
    {
      "inputs": [],
      "name": "rewardsDistribution",
      "outputs": [
        {
          "internalType": "address",
          "name": "",
          "type": "address"
        }
      ],
      "stateMutability": "view",
      "type": "function"
    },
    {
      "inputs": [],
      "name": "rewardsDuration",
      "outputs": [
        {
          "internalType": "uint256",
          "name": "",
          "type": "uint256"
        }
      ],
      "stateMutability": "view",
      "type": "function"
    },
    {
      "inputs": [],
      "name": "rewardsToken",
      "outputs": [
        {
          "internalType": "contract IERC20",
          "name": "",
          "type": "address"
        }
      ],
      "stateMutability": "view",
      "type": "function"
    },
    {
      "inputs": [
        {
          "internalType": "uint256",
          "name": "_minimumStakeTime",
          "type": "uint256"
        }
      ],
      "name": "setMinimumStakeTime",
      "outputs": [],
      "stateMutability": "nonpayable",
      "type": "function"
    },
    {
      "inputs": [
        {
          "internalType": "address",
          "name": "_rewardsDistribution",
          "type": "address"
        }
      ],
      "name": "setRewardsDistribution",
      "outputs": [],
      "stateMutability": "nonpayable",
      "type": "function"
    },
    {
      "inputs": [
        {
          "internalType": "uint256",
          "name": "_rewardsDuration",
          "type": "uint256"
        }
      ],
      "name": "setRewardsDuration",
      "outputs": [],
      "stateMutability": "nonpayable",
      "type": "function"
    },
    {
      "inputs": [
        {
          "internalType": "uint256",
          "name": "amount",
          "type": "uint256"
        }
      ],
      "name": "stake",
      "outputs": [],
      "stateMutability": "nonpayable",
      "type": "function"
    },
    {
      "inputs": [],
      "name": "stakingToken",
      "outputs": [
        {
          "internalType": "contract IERC20",
          "name": "",
          "type": "address"
        }
      ],
      "stateMutability": "view",
      "type": "function"
    },
    {
      "inputs": [],
      "name": "totalSupply",
      "outputs": [
        {
          "internalType": "uint256",
          "name": "",
          "type": "uint256"
        }
      ],
      "stateMutability": "view",
      "type": "function"
    },
    {
      "inputs": [
        {
          "internalType": "address",
          "name": "newOwner",
          "type": "address"
        }
      ],
      "name": "transferOwnership",
      "outputs": [],
      "stateMutability": "nonpayable",
      "type": "function"
    },
    {
      "inputs": [],
      "name": "unpause",
      "outputs": [],
      "stateMutability": "nonpayable",
      "type": "function"
    },
    {
      "inputs": [
        {
          "internalType": "uint256",
          "name": "timestamp",
          "type": "uint256"
        }
      ],
      "name": "updatePeriodFinish",
      "outputs": [],
      "stateMutability": "nonpayable",
      "type": "function"
    },
    {
      "inputs": [
        {
          "internalType": "address",
          "name": "",
          "type": "address"
        }
      ],
      "name": "userRewardPerTokenPaid",
      "outputs": [
        {
          "internalType": "uint256",
          "name": "",
          "type": "uint256"
        }
      ],
      "stateMutability": "view",
      "type": "function"
    },
    {
      "inputs": [
        {
          "internalType": "uint256",
          "name": "amount",
          "type": "uint256"
        }
      ],
      "name": "withdraw",
      "outputs": [],
      "stateMutability": "nonpayable",
      "type": "function"
    },
    {
      "inputs": [
        {
          "internalType": "contract CryptoBlades",
          "name": "_game",
          "type": "address"
        }
      ],
      "name": "migrateTo_23b3a8b",
      "outputs": [],
      "stateMutability": "nonpayable",
      "type": "function"
    },
    {
      "inputs": [
        {
          "internalType": "address",
          "name": "player",
          "type": "address"
        },
        {
          "internalType": "uint256",
          "name": "amount",
          "type": "uint256"
        }
      ],
      "name": "stakeFromGame",
      "outputs": [],
      "stateMutability": "nonpayable",
      "type": "function"
    }
  ],
  "bytecode": "0x608060405234801561001057600080fd5b50612e7f806100206000396000f3fe608060405234801561001057600080fd5b50600436106102685760003560e01c806372f702f311610151578063cd3daf9d116100c3578063e942204611610087578063e94220461461053e578063e9fad8ee1461055b578063ebe2b12b14610563578063f2fde38b1461056b578063f603944c14610591578063f7013ef61461059957610268565b8063cd3daf9d146104f8578063d1af0c7d14610500578063dc88432b14610508578063df136d651461052e578063e2adc2371461053657610268565b80638b876347116101155780638b876347146104805780638da5cb5b146104a6578063a694fc3a146104ae578063c3fe3e28146104cb578063c8f33c91146104d3578063cc1a378f146104db57610268565b806372f702f3146104345780637b0a47ee1461043c57806380faa57d146104445780638456cb591461044c5780638980f11f1461045457610268565b8063386a9525116101ea57806344142db5116101ae57806344142db5146103ad578063556f6e6b146103b55780635c975abb146103d2578063668e0122146103da57806370a0823114610406578063715018a61461042c57610268565b8063386a9525146103545780633c6b16ab1461035c5780633d18b912146103795780633f4ba83a146103815780633fc6df6e1461038957610268565b80631c1f78eb116102315780631c1f78eb14610317578063242df9e11461031f57806327ab1969146103275780632e1a7d4d1461032f5780632f3d3b141461034c57610268565b80628cc2621461026d5780630700037d146102a55780631265cc97146102cb57806318160ddd146102e757806319762143146102ef575b600080fd5b6102936004803603602081101561028357600080fd5b50356001600160a01b03166105df565b60408051918252519081900360200190f35b610293600480360360208110156102bb57600080fd5b50356001600160a01b0316610675565b6102d3610687565b604080519115158252519081900360200190f35b610293610690565b6103156004803603602081101561030557600080fd5b50356001600160a01b0316610697565b005b61029361071b565b610293610739565b61029361073f565b6103156004803603602081101561034557600080fd5b5035610772565b6103156109ea565b610293610aa6565b6103156004803603602081101561037257600080fd5b5035610aac565b610315610d4a565b610315610f28565b610391610fe4565b604080516001600160a01b039092168252519081900360200190f35b610315610ff3565b610315600480360360208110156103cb57600080fd5b5035611110565b6102d3611261565b610315600480360360408110156103f057600080fd5b506001600160a01b03813516906020013561126f565b6102936004803603602081101561041c57600080fd5b50356001600160a01b031661143e565b610315611459565b610391611505565b610293611514565b61029361151a565b610315611528565b6103156004803603604081101561046a57600080fd5b506001600160a01b0381351690602001356115df565b6102936004803603602081101561049657600080fd5b50356001600160a01b03166116f8565b61039161170a565b610315600480360360208110156104c457600080fd5b5035611719565b610391611881565b610293611890565b610315600480360360208110156104f157600080fd5b5035611896565b6102936119b5565b610391611a0f565b6103156004803603602081101561051e57600080fd5b50356001600160a01b0316611a1e565b610293611aa2565b610315611aa8565b6103156004803603602081101561055457600080fd5b5035611b68565b610315611c47565b610293611caa565b6103156004803603602081101561058157600080fd5b50356001600160a01b0316611cb0565b610293611db3565b610315600480360360a08110156105af57600080fd5b506001600160a01b0381358116916020810135821691604082013581169160608101359091169060800135611dee565b6001600160a01b038116600090815260d3602090815260408083205460d290925282205461066f919061066390670de0b6b3a76400009061065790610632906106266119b5565b9063ffffffff611f2116565b6001600160a01b038816600090815260d560205260409020549063ffffffff611f7e16565b9063ffffffff611fde16565b9063ffffffff61204516565b92915050565b60d36020526000908152604090205481565b60985460ff1681565b60d4545b90565b61069f61209f565b6001600160a01b03166106b061170a565b6001600160a01b0316146106f9576040805162461bcd60e51b81526020600482018190526024820152600080516020612d23833981519152604482015290519081900360640190fd5b606580546001600160a01b0319166001600160a01b0392909216919091179055565b600061073460ce5460cd54611f7e90919063ffffffff16565b905090565b60cf5481565b60008060006107594260cc546120a390919063ffffffff16565b915091508161076957600061076b565b805b9250505090565b60985460ff16156107b45760405162461bcd60e51b8152600401808060200182810382526046815260200180612bfa6046913960600191505060405180910390fd5b600260665414156107fa576040805162461bcd60e51b815260206004820152601f6024820152600080516020612bda833981519152604482015290519081900360640190fd5b6002606655609854339060ff16610865576108136119b5565b60d15561081e61151a565b60d0556001600160a01b0381161561086557610839816105df565b6001600160a01b038216600090815260d3602090815260408083209390935560d15460d2909152919020555b600082116108ae576040805162461bcd60e51b8152602060048201526011602482015270043616e6e6f74207769746864726177203607c1b604482015290519081900360640190fd5b60cf5415806108df575060cf5433600090815260d660205260409020546108dc90429063ffffffff611f2116565b10155b61091a5760405162461bcd60e51b8152600401808060200182810382526035815260200180612d436035913960400191505060405180910390fd5b60d45461092d908363ffffffff611f2116565b60d45533600090815260d56020526040902054610950908363ffffffff611f2116565b33600090815260d56020526040902081905561097b5733600090815260d6602052604081205561098e565b33600090815260d6602052604090204290555b60cb546109ab906001600160a01b0316338463ffffffff6120c916565b60408051838152905133917f7084f5476618d8e60b11ef0d7d3f06914655adb8793e28ff7f018d4c76d505d5919081900360200190a250506001606655565b60985460ff16610a2b5760405162461bcd60e51b8152600401808060200182810382526048815260200180612c406048913960600191505060405180910390fd5b33600090815260d560205260409020548015610aa35760d454610a54908263ffffffff611f2116565b60d45533600090815260d56020526040902054610a77908263ffffffff611f2116565b33600081815260d5602052604090209190915560cb54610aa3916001600160a01b0390911690836120c9565b50565b60ce5481565b60985460ff1615610aee5760405162461bcd60e51b8152600401808060200182810382526046815260200180612bfa6046913960600191505060405180910390fd5b6065546001600160a01b03163314610b375760405162461bcd60e51b815260040180806020018281038252602a815260200180612d9e602a913960400191505060405180910390fd5b60985460009060ff16610b9e57610b4c6119b5565b60d155610b5761151a565b60d0556001600160a01b03811615610b9e57610b72816105df565b6001600160a01b038216600090815260d3602090815260408083209390935560d15460d2909152919020555b60cc544210610bc35760ce54610bbb90839063ffffffff611fde16565b60cd55610c12565b60cc54600090610bd9904263ffffffff611f2116565b90506000610bf260cd5483611f7e90919063ffffffff16565b60ce54909150610c0c90610657868463ffffffff61204516565b60cd5550505b60ca54604080516370a0823160e01b815230600482015290516000926001600160a01b0316916370a08231916024808301926020929190829003018186803b158015610c5d57600080fd5b505afa158015610c71573d6000803e3d6000fd5b505050506040513d6020811015610c8757600080fd5b505160ce54909150610ca090829063ffffffff611fde16565b60cd541115610cf6576040805162461bcd60e51b815260206004820152601860248201527f50726f76696465642072657761726420746f6f20686967680000000000000000604482015290519081900360640190fd5b4260d081905560ce54610d0f919063ffffffff61204516565b60cc556040805184815290517fde88a922e0d3b88b24e9623efeb464919c6bf9f66857a65e2bfcf2ce87a9433d9181900360200190a1505050565b60985460ff1615610d8c5760405162461bcd60e51b8152600401808060200182810382526046815260200180612bfa6046913960600191505060405180910390fd5b60026066541415610dd2576040805162461bcd60e51b815260206004820152601f6024820152600080516020612bda833981519152604482015290519081900360640190fd5b6002606655609854339060ff16610e3d57610deb6119b5565b60d155610df661151a565b60d0556001600160a01b03811615610e3d57610e11816105df565b6001600160a01b038216600090815260d3602090815260408083209390935560d15460d2909152919020555b60cf541580610e6e575060cf5433600090815260d66020526040902054610e6b90429063ffffffff611f2116565b10155b610ea95760405162461bcd60e51b8152600401808060200182810382526037815260200180612df26037913960400191505060405180910390fd5b33600090815260d360205260409020548015610f1f5733600081815260d3602052604081205560ca54610ee8916001600160a01b0390911690836120c9565b60408051828152905133917fe2403640ba68fed3a2f88b7557551d1993f84b99bb10ff833f0cf8db0c5e0486919081900360200190a25b50506001606655565b610f3061209f565b6001600160a01b0316610f4161170a565b6001600160a01b031614610f8a576040805162461bcd60e51b81526020600482018190526024820152600080516020612d23833981519152604482015290519081900360640190fd5b610f92611261565b610fda576040805162461bcd60e51b815260206004820152601460248201527314185d5cd8589b194e881b9bdd081c185d5cd95960621b604482015290519081900360640190fd5b610fe2612120565b565b6065546001600160a01b031681565b610ffb61209f565b6001600160a01b031661100c61170a565b6001600160a01b031614611055576040805162461bcd60e51b81526020600482018190526024820152600080516020612d23833981519152604482015290519081900360640190fd5b60d45460cb54604080516370a0823160e01b815230600482015290516000936110e49390926001600160a01b03909116916370a0823191602480820192602092909190829003018186803b1580156110ac57600080fd5b505afa1580156110c0573d6000803e3d6000fd5b505050506040513d60208110156110d657600080fd5b50519063ffffffff611f2116565b90508015610aa357610aa36110f761170a565b60cb546001600160a01b0316908363ffffffff6120c916565b60985460ff16156111525760405162461bcd60e51b8152600401808060200182810382526046815260200180612bfa6046913960600191505060405180910390fd5b61115a61209f565b6001600160a01b031661116b61170a565b6001600160a01b0316146111b4576040805162461bcd60e51b81526020600482018190526024820152600080516020612d23833981519152604482015290519081900360640190fd5b60985460009060ff1661121b576111c96119b5565b60d1556111d461151a565b60d0556001600160a01b0381161561121b576111ef816105df565b6001600160a01b038216600090815260d3602090815260408083209390935560d15460d2909152919020555b60d054821161125b5760405162461bcd60e51b8152600401808060200182810382526026815260200180612d786026913960400191505060405180910390fd5b5060cc55565b609854610100900460ff1690565b60985460ff16156112b15760405162461bcd60e51b8152600401808060200182810382526046815260200180612bfa6046913960600191505060405180910390fd5b600260665414156112f7576040805162461bcd60e51b815260206004820152601f6024820152600080516020612bda833981519152604482015290519081900360640190fd5b6002606655611304611261565b15611349576040805162461bcd60e51b815260206004820152601060248201526f14185d5cd8589b194e881c185d5cd95960821b604482015290519081900360640190fd5b60d7546001600160a01b031633146113a0576040805162461bcd60e51b81526020600482015260156024820152744f6e6c792063616c6c61626c652062792067616d6560581b604482015290519081900360640190fd5b609854829060ff16611406576113b46119b5565b60d1556113bf61151a565b60d0556001600160a01b03811615611406576113da816105df565b6001600160a01b038216600090815260d3602090815260408083209390935560d15460d2909152919020555b61141083836121c1565b60d75460cb54611434916001600160a01b039182169116308563ffffffff6122ce16565b5050600160665550565b6001600160a01b0316600090815260d5602052604090205490565b61146161209f565b6001600160a01b031661147261170a565b6001600160a01b0316146114bb576040805162461bcd60e51b81526020600482018190526024820152600080516020612d23833981519152604482015290519081900360640190fd5b6033546040516000916001600160a01b0316907f8be0079c531659141344cd1fd0a4f28419497f9722a3daafe3b4186f6b6457e0908390a3603380546001600160a01b0319169055565b60cb546001600160a01b031681565b60cd5481565b60006107344260cc5461232e565b61153061209f565b6001600160a01b031661154161170a565b6001600160a01b03161461158a576040805162461bcd60e51b81526020600482018190526024820152600080516020612d23833981519152604482015290519081900360640190fd5b611592611261565b156115d7576040805162461bcd60e51b815260206004820152601060248201526f14185d5cd8589b194e881c185d5cd95960821b604482015290519081900360640190fd5b610fe2612344565b6115e761209f565b6001600160a01b03166115f861170a565b6001600160a01b031614611641576040805162461bcd60e51b81526020600482018190526024820152600080516020612d23833981519152604482015290519081900360640190fd5b60cb546001600160a01b038381169116141561168e5760405162461bcd60e51b8152600401808060200182810382526021815260200180612e296021913960400191505060405180910390fd5b6116b061169961170a565b6001600160a01b038416908363ffffffff6120c916565b604080516001600160a01b03841681526020810183905281517f8c1256b8896378cd5044f80c202f9772b9d77dc85c8a6eb51967210b09bfaa28929181900390910190a15050565b60d26020526000908152604090205481565b6033546001600160a01b031690565b60985460ff161561175b5760405162461bcd60e51b8152600401808060200182810382526046815260200180612bfa6046913960600191505060405180910390fd5b600260665414156117a1576040805162461bcd60e51b815260206004820152601f6024820152600080516020612bda833981519152604482015290519081900360640190fd5b60026066556117ae611261565b156117f3576040805162461bcd60e51b815260206004820152601060248201526f14185d5cd8589b194e881c185d5cd95960821b604482015290519081900360640190fd5b609854339060ff16611859576118076119b5565b60d15561181261151a565b60d0556001600160a01b038116156118595761182d816105df565b6001600160a01b038216600090815260d3602090815260408083209390935560d15460d2909152919020555b61186333836121c1565b60cb54610f1f906001600160a01b031633308563ffffffff6122ce16565b60d7546001600160a01b031681565b60d05481565b60985460ff16156118d85760405162461bcd60e51b8152600401808060200182810382526046815260200180612bfa6046913960600191505060405180910390fd5b6118e061209f565b6001600160a01b03166118f161170a565b6001600160a01b03161461193a576040805162461bcd60e51b81526020600482018190526024820152600080516020612d23833981519152604482015290519081900360640190fd5b60cc54421161197a5760405162461bcd60e51b8152600401808060200182810382526058815260200180612b826058913960600191505060405180910390fd5b60ce8190556040805182815290517ffb46ca5a5e06d4540d6387b930a7c978bce0db5f449ec6b3f5d07c6e1d44f2d39181900360200190a150565b600060d454600014156119cb575060d154610694565b610734611a0060d454610657670de0b6b3a76400006119f460cd546119f460d05461062661151a565b9063ffffffff611f7e16565b60d1549063ffffffff61204516565b60ca546001600160a01b031681565b611a2661209f565b6001600160a01b0316611a3761170a565b6001600160a01b031614611a80576040805162461bcd60e51b81526020600482018190526024820152600080516020612d23833981519152604482015290519081900360640190fd5b60d780546001600160a01b0319166001600160a01b0392909216919091179055565b60d15481565b60985460ff1615611aea5760405162461bcd60e51b8152600401808060200182810382526046815260200180612bfa6046913960600191505060405180910390fd5b611af261209f565b6001600160a01b0316611b0361170a565b6001600160a01b031614611b4c576040805162461bcd60e51b81526020600482018190526024820152600080516020612d23833981519152604482015290519081900360640190fd5b600060cf81905560cc81905560cd81905560d155610fe26123c9565b60985460ff1615611baa5760405162461bcd60e51b8152600401808060200182810382526046815260200180612bfa6046913960600191505060405180910390fd5b611bb261209f565b6001600160a01b0316611bc361170a565b6001600160a01b031614611c0c576040805162461bcd60e51b81526020600482018190526024820152600080516020612d23833981519152604482015290519081900360640190fd5b60cf8190556040805182815290517f2b0fa66d155c9598699cb6569577f27b95729bbf580268eed39db6bc4e8144779181900360200190a150565b60985460ff1615611c895760405162461bcd60e51b8152600401808060200182810382526046815260200180612bfa6046913960600191505060405180910390fd5b33600090815260d56020526040902054611ca290610772565b610fe2610d4a565b60cc5481565b611cb861209f565b6001600160a01b0316611cc961170a565b6001600160a01b031614611d12576040805162461bcd60e51b81526020600482018190526024820152600080516020612d23833981519152604482015290519081900360640190fd5b6001600160a01b038116611d575760405162461bcd60e51b8152600401808060200182810382526026815260200180612c886026913960400191505060405180910390fd5b6033546040516001600160a01b038084169216907f8be0079c531659141344cd1fd0a4f28419497f9722a3daafe3b4186f6b6457e090600090a3603380546001600160a01b0319166001600160a01b0392909216919091179055565b60cf5433600090815260d66020526040812054909182918291610759914291611de2919063ffffffff61204516565b9063ffffffff6120a316565b600054610100900460ff1680611e075750611e07612463565b80611e15575060005460ff16155b611e505760405162461bcd60e51b815260040180806020018281038252602e815260200180612cd4602e913960400191505060405180910390fd5b600054610100900460ff16158015611e7b576000805460ff1961ff0019909116610100171660011790555b611e83612474565b611e8b61251d565b611e93612616565b611e9b6126c2565b611ea361276d565b611eab612813565b611eb486611cb0565b60ca80546001600160a01b038087166001600160a01b03199283161790925560cb8054868416908316179055606580549288169290911691909117905560cf829055600060cc81905560cd5562ed4e0060ce558015611f19576000805461ff00191690555b505050505050565b600082821115611f78576040805162461bcd60e51b815260206004820152601e60248201527f536166654d6174683a207375627472616374696f6e206f766572666c6f770000604482015290519081900360640190fd5b50900390565b600082611f8d5750600061066f565b82820282848281611f9a57fe5b0414611fd75760405162461bcd60e51b8152600401808060200182810382526021815260200180612d026021913960400191505060405180910390fd5b9392505050565b6000808211612034576040805162461bcd60e51b815260206004820152601a60248201527f536166654d6174683a206469766973696f6e206279207a65726f000000000000604482015290519081900360640190fd5b81838161203d57fe5b049392505050565b600082820183811015611fd7576040805162461bcd60e51b815260206004820152601b60248201527f536166654d6174683a206164646974696f6e206f766572666c6f770000000000604482015290519081900360640190fd5b3390565b600080838311156120b9575060009050806120c2565b50600190508183035b9250929050565b604080516001600160a01b038416602482015260448082018490528251808303909101815260649091019091526020810180516001600160e01b031663a9059cbb60e01b17905261211b9084906128b3565b505050565b612128611261565b612170576040805162461bcd60e51b815260206004820152601460248201527314185d5cd8589b194e881b9bdd081c185d5cd95960621b604482015290519081900360640190fd5b6098805461ff00191690557f5db9ee0a495bf2e6ff9c91a7834c1ba4fdd244a5e8aa4e537bd38aeae4b073aa6121a461209f565b604080516001600160a01b039092168252519081900360200190a1565b60008111612207576040805162461bcd60e51b815260206004820152600e60248201526d043616e6e6f74207374616b6520360941b604482015290519081900360640190fd5b60d45461221a908263ffffffff61204516565b60d4556001600160a01b038216600090815260d56020526040902054612246908263ffffffff61204516565b6001600160a01b038316600090815260d5602090815260408083209390935560d69052205461228b576001600160a01b038216600090815260d6602052604090204290555b6040805182815290516001600160a01b038416917f9e71bc8eea02a63969f509818f2dafb9254532904319f9dbda79b67bd34a5f3d919081900360200190a25050565b604080516001600160a01b0380861660248301528416604482015260648082018490528251808303909101815260849091019091526020810180516001600160e01b03166323b872dd60e01b1790526123289085906128b3565b50505050565b600081831061233d5781611fd7565b5090919050565b61234c611261565b15612391576040805162461bcd60e51b815260206004820152601060248201526f14185d5cd8589b194e881c185d5cd95960821b604482015290519081900360640190fd5b6098805461ff0019166101001790557f62e78cea01bee320cd4e420270b5ea74000d11b0c9f74754ebdbfc544b05a2586121a461209f565b6123d161209f565b6001600160a01b03166123e261170a565b6001600160a01b03161461242b576040805162461bcd60e51b81526020600482018190526024820152600080516020612d23833981519152604482015290519081900360640190fd5b6098805460ff191660011790556040517fe68101b30364d616deefc8cd307b7e27ccbd9c73f138bd478179497563d97a1190600090a1565b600061246e30612964565b15905090565b600054610100900460ff168061248d575061248d612463565b8061249b575060005460ff16155b6124d65760405162461bcd60e51b815260040180806020018281038252602e815260200180612cd4602e913960400191505060405180910390fd5b600054610100900460ff16158015612501576000805460ff1961ff0019909116610100171660011790555b612509612813565b8015610aa3576000805461ff001916905550565b600054610100900460ff16806125365750612536612463565b80612544575060005460ff16155b61257f5760405162461bcd60e51b815260040180806020018281038252602e815260200180612cd4602e913960400191505060405180910390fd5b600054610100900460ff161580156125aa576000805460ff1961ff0019909116610100171660011790555b60006125b461209f565b603380546001600160a01b0319166001600160a01b038316908117909155604051919250906000907f8be0079c531659141344cd1fd0a4f28419497f9722a3daafe3b4186f6b6457e0908290a3508015610aa3576000805461ff001916905550565b600054610100900460ff168061262f575061262f612463565b8061263d575060005460ff16155b6126785760405162461bcd60e51b815260040180806020018281038252602e815260200180612cd4602e913960400191505060405180910390fd5b600054610100900460ff161580156126a3576000805460ff1961ff0019909116610100171660011790555b6098805461ff00191690558015610aa3576000805461ff001916905550565b600054610100900460ff16806126db57506126db612463565b806126e9575060005460ff16155b6127245760405162461bcd60e51b815260040180806020018281038252602e815260200180612cd4602e913960400191505060405180910390fd5b600054610100900460ff1615801561274f576000805460ff1961ff0019909116610100171660011790555b6098805460ff191690558015610aa3576000805461ff001916905550565b600054610100900460ff16806127865750612786612463565b80612794575060005460ff16155b6127cf5760405162461bcd60e51b815260040180806020018281038252602e815260200180612cd4602e913960400191505060405180910390fd5b600054610100900460ff161580156127fa576000805460ff1961ff0019909116610100171660011790555b60016066558015610aa3576000805461ff001916905550565b600054610100900460ff168061282c575061282c612463565b8061283a575060005460ff16155b6128755760405162461bcd60e51b815260040180806020018281038252602e815260200180612cd4602e913960400191505060405180910390fd5b600054610100900460ff16158015612509576000805460ff1961ff0019909116610100171660011790558015610aa3576000805461ff001916905550565b6060612908826040518060400160405280602081526020017f5361666545524332303a206c6f772d6c6576656c2063616c6c206661696c6564815250856001600160a01b031661296a9092919063ffffffff16565b80519091501561211b5780806020019051602081101561292757600080fd5b505161211b5760405162461bcd60e51b815260040180806020018281038252602a815260200180612dc8602a913960400191505060405180910390fd5b3b151590565b60606129798484600085612981565b949350505050565b6060824710156129c25760405162461bcd60e51b8152600401808060200182810382526026815260200180612cae6026913960400191505060405180910390fd5b6129cb85612964565b612a1c576040805162461bcd60e51b815260206004820152601d60248201527f416464726573733a2063616c6c20746f206e6f6e2d636f6e7472616374000000604482015290519081900360640190fd5b60006060866001600160a01b031685876040518082805190602001908083835b60208310612a5b5780518252601f199092019160209182019101612a3c565b6001836020036101000a03801982511681845116808217855250505050505090500191505060006040518083038185875af1925050503d8060008114612abd576040519150601f19603f3d011682016040523d82523d6000602084013e612ac2565b606091505b5091509150612ad2828286612add565b979650505050505050565b60608315612aec575081611fd7565b825115612afc5782518084602001fd5b8160405162461bcd60e51b81526004018080602001828103825283818151815260200191508051906020019080838360005b83811015612b46578181015183820152602001612b2e565b50505050905090810190601f168015612b735780820380516001836020036101000a031916815260200191505b509250505060405180910390fdfe50726576696f7573207265776172647320706572696f64206d75737420626520636f6d706c657465206265666f7265206368616e67696e6720746865206475726174696f6e20666f7220746865206e657720706572696f645265656e7472616e637947756172643a207265656e7472616e742063616c6c005468697320616374696f6e2063616e6e6f7420626520706572666f726d6564207768696c652074686520636f6e747261637420697320696e204661696c73616665204d6f64655468697320616374696f6e2063616e206f6e6c7920626520706572666f726d6564207768696c652074686520636f6e747261637420697320696e204661696c73616665204d6f64654f776e61626c653a206e6577206f776e657220697320746865207a65726f2061646472657373416464726573733a20696e73756666696369656e742062616c616e636520666f722063616c6c496e697469616c697a61626c653a20636f6e747261637420697320616c726561647920696e697469616c697a6564536166654d6174683a206d756c7469706c69636174696f6e206f766572666c6f774f776e61626c653a2063616c6c6572206973206e6f7420746865206f776e657243616e6e6f7420776974686472617720756e74696c206d696e696d756d207374616b696e672074696d65206861732070617373656454696d657374616d70206d757374206265206166746572206c61737455706461746554696d6543616c6c6572206973206e6f742052657761726473446973747269627574696f6e20636f6e74726163745361666545524332303a204552433230206f7065726174696f6e20646964206e6f74207375636365656443616e6e6f74206765742072657761726420756e74696c206d696e696d756d207374616b696e672074696d65206861732070617373656443616e6e6f7420776974686472617720746865207374616b696e6720746f6b656ea2646970667358221220bbef0e3d8640423e4fc2fa4ee0a1eb361311062bb588d6b69fce65fbfb4f0e0064736f6c63430006050033",
  "immutableReferences": {},
  "source": "pragma solidity ^0.6.2;\r\n\r\nimport \"./staking/StakingRewardsUpgradeable.sol\";\r\nimport \"./interfaces/IStakeFromGame.sol\";\r\nimport \"./cryptoblades.sol\";\r\n\r\ncontract SkillStakingRewardsUpgradeable is IStakeFromGame, StakingRewardsUpgradeable {\r\n    /* ========== STATE VARIABLES ========== */\r\n\r\n    CryptoBlades public game;\r\n\r\n    /* ========== RESTRICTED FUNCTIONS ========== */\r\n\r\n    function migrateTo_23b3a8b(CryptoBlades _game) external onlyOwner {\r\n        game = _game;\r\n    }\r\n\r\n    function stakeFromGame(address player, uint256 amount)\r\n        external\r\n        override\r\n        normalMode\r\n        nonReentrant\r\n        whenNotPaused\r\n        onlyGame\r\n        updateReward(player)\r\n    {\r\n        _stake(player, amount);\r\n        stakingToken.safeTransferFrom(address(game), address(this), amount);\r\n    }\r\n\r\n    /* ========== MODIFIERS ========== */\r\n\r\n    modifier onlyGame() {\r\n        require(msg.sender == address(game), \"Only callable by game\");\r\n        _;\r\n    }\r\n}\r\n",
  "sourcePath": "F:/vscode/cblades/contracts/SkillStakingRewardsUpgradeable.sol",
  "compiler": {
    "name": "solc",
    "version": "0.6.5+commit.f956cc89.Emscripten.clang"
  },
  "schemaVersion": "3.3.4",
  "updatedAt": "2021-07-22T21:42:31.932Z",
  "devdoc": {
    "methods": {
      "owner()": {
        "details": "Returns the address of the current owner."
      },
      "paused()": {
        "details": "Returns true if the contract is paused, and false otherwise."
      },
      "renounceOwnership()": {
        "details": "Leaves the contract without owner. It will not be possible to call `onlyOwner` functions anymore. Can only be called by the current owner.     * NOTE: Renouncing ownership will leave the contract without an owner, thereby removing any functionality that is only available to the owner."
      },
      "transferOwnership(address)": {
        "details": "Transfers ownership of the contract to a new account (`newOwner`). Can only be called by the current owner."
      }
    }
  },
  "userdoc": {
    "methods": {}
  }
}