{
  "contractName": "StakingRewardsUpgradeable",
  "abi": [
    {
      "anonymous": false,
      "inputs": [],
      "name": "FailsafeModeEnabled",
      "type": "event"
    },
    {
      "anonymous": false,
      "inputs": [
        {
          "indexed": false,
          "internalType": "uint256",
          "name": "newMinimumStakeTime",
          "type": "uint256"
        }
      ],
      "name": "MinimumStakeTimeUpdated",
      "type": "event"
    },
    {
      "anonymous": false,
      "inputs": [
        {
          "indexed": true,
          "internalType": "address",
          "name": "previousOwner",
          "type": "address"
        },
        {
          "indexed": true,
          "internalType": "address",
          "name": "newOwner",
          "type": "address"
        }
      ],
      "name": "OwnershipTransferred",
      "type": "event"
    },
    {
      "anonymous": false,
      "inputs": [
        {
          "indexed": false,
          "internalType": "address",
          "name": "account",
          "type": "address"
        }
      ],
      "name": "Paused",
      "type": "event"
    },
    {
      "anonymous": false,
      "inputs": [
        {
          "indexed": false,
          "internalType": "address",
          "name": "token",
          "type": "address"
        },
        {
          "indexed": false,
          "internalType": "uint256",
          "name": "amount",
          "type": "uint256"
        }
      ],
      "name": "Recovered",
      "type": "event"
    },
    {
      "anonymous": false,
      "inputs": [
        {
          "indexed": false,
          "internalType": "uint256",
          "name": "reward",
          "type": "uint256"
        }
      ],
      "name": "RewardAdded",
      "type": "event"
    },
    {
      "anonymous": false,
      "inputs": [
        {
          "indexed": true,
          "internalType": "address",
          "name": "user",
          "type": "address"
        },
        {
          "indexed": false,
          "internalType": "uint256",
          "name": "reward",
          "type": "uint256"
        }
      ],
      "name": "RewardPaid",
      "type": "event"
    },
    {
      "anonymous": false,
      "inputs": [
        {
          "indexed": false,
          "internalType": "uint256",
          "name": "newDuration",
          "type": "uint256"
        }
      ],
      "name": "RewardsDurationUpdated",
      "type": "event"
    },
    {
      "anonymous": false,
      "inputs": [
        {
          "indexed": true,
          "internalType": "address",
          "name": "user",
          "type": "address"
        },
        {
          "indexed": false,
          "internalType": "uint256",
          "name": "amount",
          "type": "uint256"
        }
      ],
      "name": "Staked",
      "type": "event"
    },
    {
      "anonymous": false,
      "inputs": [
        {
          "indexed": false,
          "internalType": "address",
          "name": "account",
          "type": "address"
        }
      ],
      "name": "Unpaused",
      "type": "event"
    },
    {
      "anonymous": false,
      "inputs": [
        {
          "indexed": true,
          "internalType": "address",
          "name": "user",
          "type": "address"
        },
        {
          "indexed": false,
          "internalType": "uint256",
          "name": "amount",
          "type": "uint256"
        }
      ],
      "name": "Withdrawn",
      "type": "event"
    },
    {
      "inputs": [],
      "name": "failsafeModeActive",
      "outputs": [
        {
          "internalType": "bool",
          "name": "",
          "type": "bool"
        }
      ],
      "stateMutability": "view",
      "type": "function"
    },
    {
      "inputs": [],
      "name": "lastUpdateTime",
      "outputs": [
        {
          "internalType": "uint256",
          "name": "",
          "type": "uint256"
        }
      ],
      "stateMutability": "view",
      "type": "function"
    },
    {
      "inputs": [],
      "name": "minimumStakeTime",
      "outputs": [
        {
          "internalType": "uint256",
          "name": "",
          "type": "uint256"
        }
      ],
      "stateMutability": "view",
      "type": "function"
    },
    {
      "inputs": [],
      "name": "owner",
      "outputs": [
        {
          "internalType": "address",
          "name": "",
          "type": "address"
        }
      ],
      "stateMutability": "view",
      "type": "function"
    },
    {
      "inputs": [],
      "name": "paused",
      "outputs": [
        {
          "internalType": "bool",
          "name": "",
          "type": "bool"
        }
      ],
      "stateMutability": "view",
      "type": "function"
    },
    {
      "inputs": [],
      "name": "periodFinish",
      "outputs": [
        {
          "internalType": "uint256",
          "name": "",
          "type": "uint256"
        }
      ],
      "stateMutability": "view",
      "type": "function"
    },
    {
      "inputs": [],
      "name": "renounceOwnership",
      "outputs": [],
      "stateMutability": "nonpayable",
      "type": "function"
    },
    {
      "inputs": [],
      "name": "rewardPerTokenStored",
      "outputs": [
        {
          "internalType": "uint256",
          "name": "",
          "type": "uint256"
        }
      ],
      "stateMutability": "view",
      "type": "function"
    },
    {
      "inputs": [],
      "name": "rewardRate",
      "outputs": [
        {
          "internalType": "uint256",
          "name": "",
          "type": "uint256"
        }
      ],
      "stateMutability": "view",
      "type": "function"
    },
    {
      "inputs": [
        {
          "internalType": "address",
          "name": "",
          "type": "address"
        }
      ],
      "name": "rewards",
      "outputs": [
        {
          "internalType": "uint256",
          "name": "",
          "type": "uint256"
        }
      ],
      "stateMutability": "view",
      "type": "function"
    },
    {
      "inputs": [],
      "name": "rewardsDistribution",
      "outputs": [
        {
          "internalType": "address",
          "name": "",
          "type": "address"
        }
      ],
      "stateMutability": "view",
      "type": "function"
    },
    {
      "inputs": [],
      "name": "rewardsDuration",
      "outputs": [
        {
          "internalType": "uint256",
          "name": "",
          "type": "uint256"
        }
      ],
      "stateMutability": "view",
      "type": "function"
    },
    {
      "inputs": [],
      "name": "rewardsToken",
      "outputs": [
        {
          "internalType": "contract IERC20",
          "name": "",
          "type": "address"
        }
      ],
      "stateMutability": "view",
      "type": "function"
    },
    {
      "inputs": [
        {
          "internalType": "address",
          "name": "_rewardsDistribution",
          "type": "address"
        }
      ],
      "name": "setRewardsDistribution",
      "outputs": [],
      "stateMutability": "nonpayable",
      "type": "function"
    },
    {
      "inputs": [],
      "name": "stakingToken",
      "outputs": [
        {
          "internalType": "contract IERC20",
          "name": "",
          "type": "address"
        }
      ],
      "stateMutability": "view",
      "type": "function"
    },
    {
      "inputs": [
        {
          "internalType": "address",
          "name": "newOwner",
          "type": "address"
        }
      ],
      "name": "transferOwnership",
      "outputs": [],
      "stateMutability": "nonpayable",
      "type": "function"
    },
    {
      "inputs": [
        {
          "internalType": "address",
          "name": "",
          "type": "address"
        }
      ],
      "name": "userRewardPerTokenPaid",
      "outputs": [
        {
          "internalType": "uint256",
          "name": "",
          "type": "uint256"
        }
      ],
      "stateMutability": "view",
      "type": "function"
    },
    {
      "inputs": [
        {
          "internalType": "address",
          "name": "_owner",
          "type": "address"
        },
        {
          "internalType": "address",
          "name": "_rewardsDistribution",
          "type": "address"
        },
        {
          "internalType": "address",
          "name": "_rewardsToken",
          "type": "address"
        },
        {
          "internalType": "address",
          "name": "_stakingToken",
          "type": "address"
        },
        {
          "internalType": "uint256",
          "name": "_minimumStakeTime",
          "type": "uint256"
        }
      ],
      "name": "initialize",
      "outputs": [],
      "stateMutability": "nonpayable",
      "type": "function"
    },
    {
      "inputs": [],
      "name": "totalSupply",
      "outputs": [
        {
          "internalType": "uint256",
          "name": "",
          "type": "uint256"
        }
      ],
      "stateMutability": "view",
      "type": "function"
    },
    {
      "inputs": [
        {
          "internalType": "address",
          "name": "account",
          "type": "address"
        }
      ],
      "name": "balanceOf",
      "outputs": [
        {
          "internalType": "uint256",
          "name": "",
          "type": "uint256"
        }
      ],
      "stateMutability": "view",
      "type": "function"
    },
    {
      "inputs": [],
      "name": "lastTimeRewardApplicable",
      "outputs": [
        {
          "internalType": "uint256",
          "name": "",
          "type": "uint256"
        }
      ],
      "stateMutability": "view",
      "type": "function"
    },
    {
      "inputs": [],
      "name": "rewardPerToken",
      "outputs": [
        {
          "internalType": "uint256",
          "name": "",
          "type": "uint256"
        }
      ],
      "stateMutability": "view",
      "type": "function"
    },
    {
      "inputs": [
        {
          "internalType": "address",
          "name": "account",
          "type": "address"
        }
      ],
      "name": "earned",
      "outputs": [
        {
          "internalType": "uint256",
          "name": "",
          "type": "uint256"
        }
      ],
      "stateMutability": "view",
      "type": "function"
    },
    {
      "inputs": [],
      "name": "getRewardForDuration",
      "outputs": [
        {
          "internalType": "uint256",
          "name": "",
          "type": "uint256"
        }
      ],
      "stateMutability": "view",
      "type": "function"
    },
    {
      "inputs": [],
      "name": "getStakeRewardDistributionTimeLeft",
      "outputs": [
        {
          "internalType": "uint256",
          "name": "",
          "type": "uint256"
        }
      ],
      "stateMutability": "view",
      "type": "function"
    },
    {
      "inputs": [],
      "name": "getStakeUnlockTimeLeft",
      "outputs": [
        {
          "internalType": "uint256",
          "name": "",
          "type": "uint256"
        }
      ],
      "stateMutability": "view",
      "type": "function"
    },
    {
      "inputs": [
        {
          "internalType": "uint256",
          "name": "amount",
          "type": "uint256"
        }
      ],
      "name": "stake",
      "outputs": [],
      "stateMutability": "nonpayable",
      "type": "function"
    },
    {
      "inputs": [
        {
          "internalType": "uint256",
          "name": "amount",
          "type": "uint256"
        }
      ],
      "name": "withdraw",
      "outputs": [],
      "stateMutability": "nonpayable",
      "type": "function"
    },
    {
      "inputs": [],
      "name": "getReward",
      "outputs": [],
      "stateMutability": "nonpayable",
      "type": "function"
    },
    {
      "inputs": [],
      "name": "exit",
      "outputs": [],
      "stateMutability": "nonpayable",
      "type": "function"
    },
    {
      "inputs": [],
      "name": "recoverOwnStake",
      "outputs": [],
      "stateMutability": "nonpayable",
      "type": "function"
    },
    {
      "inputs": [
        {
          "internalType": "uint256",
          "name": "reward",
          "type": "uint256"
        }
      ],
      "name": "notifyRewardAmount",
      "outputs": [],
      "stateMutability": "nonpayable",
      "type": "function"
    },
    {
      "inputs": [
        {
          "internalType": "uint256",
          "name": "timestamp",
          "type": "uint256"
        }
      ],
      "name": "updatePeriodFinish",
      "outputs": [],
      "stateMutability": "nonpayable",
      "type": "function"
    },
    {
      "inputs": [
        {
          "internalType": "address",
          "name": "tokenAddress",
          "type": "address"
        },
        {
          "internalType": "uint256",
          "name": "tokenAmount",
          "type": "uint256"
        }
      ],
      "name": "recoverERC20",
      "outputs": [],
      "stateMutability": "nonpayable",
      "type": "function"
    },
    {
      "inputs": [
        {
          "internalType": "uint256",
          "name": "_rewardsDuration",
          "type": "uint256"
        }
      ],
      "name": "setRewardsDuration",
      "outputs": [],
      "stateMutability": "nonpayable",
      "type": "function"
    },
    {
      "inputs": [
        {
          "internalType": "uint256",
          "name": "_minimumStakeTime",
          "type": "uint256"
        }
      ],
      "name": "setMinimumStakeTime",
      "outputs": [],
      "stateMutability": "nonpayable",
      "type": "function"
    },
    {
      "inputs": [],
      "name": "enableFailsafeMode",
      "outputs": [],
      "stateMutability": "nonpayable",
      "type": "function"
    },
    {
      "inputs": [],
      "name": "recoverExtraStakingTokensToOwner",
      "outputs": [],
      "stateMutability": "nonpayable",
      "type": "function"
    },
    {
      "inputs": [],
      "name": "pause",
      "outputs": [],
      "stateMutability": "nonpayable",
      "type": "function"
    },
    {
      "inputs": [],
      "name": "unpause",
      "outputs": [],
      "stateMutability": "nonpayable",
      "type": "function"
    }
  ],
  "bytecode": "0x608060405234801561001057600080fd5b50612bb8806100206000396000f3fe608060405234801561001057600080fd5b50600436106102475760003560e01c806372f702f31161013b578063cd3daf9d116100b8578063e9fad8ee1161007c578063e9fad8ee146104e0578063ebe2b12b146104e8578063f2fde38b146104f0578063f603944c14610516578063f7013ef61461051e57610247565b8063cd3daf9d146104a3578063d1af0c7d146104ab578063df136d65146104b3578063e2adc237146104bb578063e9422046146104c357610247565b80638b876347116100ff5780638b876347146104335780638da5cb5b14610459578063a694fc3a14610461578063c8f33c911461047e578063cc1a378f1461048657610247565b806372f702f3146103e75780637b0a47ee146103ef57806380faa57d146103f75780638456cb59146103ff5780638980f11f1461040757610247565b8063386a9525116101c957806344142db51161018d57806344142db51461038c578063556f6e6b146103945780635c975abb146103b157806370a08231146103b9578063715018a6146103df57610247565b8063386a9525146103335780633c6b16ab1461033b5780633d18b912146103585780633f4ba83a146103605780633fc6df6e1461036857610247565b80631c1f78eb116102105780631c1f78eb146102f6578063242df9e1146102fe57806327ab1969146103065780632e1a7d4d1461030e5780632f3d3b141461032b57610247565b80628cc2621461024c5780630700037d146102845780631265cc97146102aa57806318160ddd146102c657806319762143146102ce575b600080fd5b6102726004803603602081101561026257600080fd5b50356001600160a01b0316610564565b60408051918252519081900360200190f35b6102726004803603602081101561029a57600080fd5b50356001600160a01b03166105fa565b6102b261060c565b604080519115158252519081900360200190f35b610272610615565b6102f4600480360360208110156102e457600080fd5b50356001600160a01b031661061c565b005b6102726106a0565b6102726106be565b6102726106c4565b6102f46004803603602081101561032457600080fd5b50356106f7565b6102f4610981565b610272610a3d565b6102f46004803603602081101561035157600080fd5b5035610a43565b6102f4610ce1565b6102f4610ed1565b610370610f8d565b604080516001600160a01b039092168252519081900360200190f35b6102f4610f9c565b6102f4600480360360208110156103aa57600080fd5b50356110b9565b6102b261120a565b610272600480360360208110156103cf57600080fd5b50356001600160a01b0316611218565b6102f4611233565b6103706112df565b6102726112ee565b6102726112f4565b6102f4611302565b6102f46004803603604081101561041d57600080fd5b506001600160a01b0381351690602001356113b9565b6102726004803603602081101561044957600080fd5b50356001600160a01b03166114d2565b6103706114e4565b6102f46004803603602081101561047757600080fd5b50356114f3565b61027261166d565b6102f46004803603602081101561049c57600080fd5b5035611673565b610272611792565b6103706117ec565b6102726117fb565b6102f4611801565b6102f4600480360360208110156104d957600080fd5b50356118c1565b6102f46119a0565b610272611a03565b6102f46004803603602081101561050657600080fd5b50356001600160a01b0316611a09565b610272611b0c565b6102f4600480360360a081101561053457600080fd5b506001600160a01b0381358116916020810135821691604082013581169160608101359091169060800135611b47565b6001600160a01b038116600090815260d3602090815260408083205460d29092528220546105f491906105e890670de0b6b3a7640000906105dc906105b7906105ab611792565b9063ffffffff611c7a16565b6001600160a01b038816600090815260d560205260409020549063ffffffff611cd716565b9063ffffffff611d3716565b9063ffffffff611d9e16565b92915050565b60d36020526000908152604090205481565b60985460ff1681565b60d4545b90565b610624611df8565b6001600160a01b03166106356114e4565b6001600160a01b03161461067e576040805162461bcd60e51b81526020600482018190526024820152600080516020612a5c833981519152604482015290519081900360640190fd5b606580546001600160a01b0319166001600160a01b0392909216919091179055565b60006106b960ce5460cd54611cd790919063ffffffff16565b905090565b60cf5481565b60008060006106de4260cc54611dfc90919063ffffffff16565b91509150816106ee5760006106f0565b805b9250505090565b60985460ff16156107395760405162461bcd60e51b81526004018080602001828103825260468152602001806129336046913960600191505060405180910390fd5b60026066541415610791576040805162461bcd60e51b815260206004820152601f60248201527f5265656e7472616e637947756172643a207265656e7472616e742063616c6c00604482015290519081900360640190fd5b6002606655609854339060ff166107fc576107aa611792565b60d1556107b56112f4565b60d0556001600160a01b038116156107fc576107d081610564565b6001600160a01b038216600090815260d3602090815260408083209390935560d15460d2909152919020555b60008211610845576040805162461bcd60e51b8152602060048201526011602482015270043616e6e6f74207769746864726177203607c1b604482015290519081900360640190fd5b60cf541580610876575060cf5433600090815260d6602052604090205461087390429063ffffffff611c7a16565b10155b6108b15760405162461bcd60e51b8152600401808060200182810382526035815260200180612a7c6035913960400191505060405180910390fd5b60d4546108c4908363ffffffff611c7a16565b60d45533600090815260d560205260409020546108e7908363ffffffff611c7a16565b33600090815260d5602052604090208190556109125733600090815260d66020526040812055610925565b33600090815260d6602052604090204290555b60cb54610942906001600160a01b0316338463ffffffff611e2216565b60408051838152905133917f7084f5476618d8e60b11ef0d7d3f06914655adb8793e28ff7f018d4c76d505d5919081900360200190a250506001606655565b60985460ff166109c25760405162461bcd60e51b81526004018080602001828103825260488152602001806129796048913960600191505060405180910390fd5b33600090815260d560205260409020548015610a3a5760d4546109eb908263ffffffff611c7a16565b60d45533600090815260d56020526040902054610a0e908263ffffffff611c7a16565b33600081815260d5602052604090209190915560cb54610a3a916001600160a01b039091169083611e22565b50565b60ce5481565b60985460ff1615610a855760405162461bcd60e51b81526004018080602001828103825260468152602001806129336046913960600191505060405180910390fd5b6065546001600160a01b03163314610ace5760405162461bcd60e51b815260040180806020018281038252602a815260200180612ad7602a913960400191505060405180910390fd5b60985460009060ff16610b3557610ae3611792565b60d155610aee6112f4565b60d0556001600160a01b03811615610b3557610b0981610564565b6001600160a01b038216600090815260d3602090815260408083209390935560d15460d2909152919020555b60cc544210610b5a5760ce54610b5290839063ffffffff611d3716565b60cd55610ba9565b60cc54600090610b70904263ffffffff611c7a16565b90506000610b8960cd5483611cd790919063ffffffff16565b60ce54909150610ba3906105dc868463ffffffff611d9e16565b60cd5550505b60ca54604080516370a0823160e01b815230600482015290516000926001600160a01b0316916370a08231916024808301926020929190829003018186803b158015610bf457600080fd5b505afa158015610c08573d6000803e3d6000fd5b505050506040513d6020811015610c1e57600080fd5b505160ce54909150610c3790829063ffffffff611d3716565b60cd541115610c8d576040805162461bcd60e51b815260206004820152601860248201527f50726f76696465642072657761726420746f6f20686967680000000000000000604482015290519081900360640190fd5b4260d081905560ce54610ca6919063ffffffff611d9e16565b60cc556040805184815290517fde88a922e0d3b88b24e9623efeb464919c6bf9f66857a65e2bfcf2ce87a9433d9181900360200190a1505050565b60985460ff1615610d235760405162461bcd60e51b81526004018080602001828103825260468152602001806129336046913960600191505060405180910390fd5b60026066541415610d7b576040805162461bcd60e51b815260206004820152601f60248201527f5265656e7472616e637947756172643a207265656e7472616e742063616c6c00604482015290519081900360640190fd5b6002606655609854339060ff16610de657610d94611792565b60d155610d9f6112f4565b60d0556001600160a01b03811615610de657610dba81610564565b6001600160a01b038216600090815260d3602090815260408083209390935560d15460d2909152919020555b60cf541580610e17575060cf5433600090815260d66020526040902054610e1490429063ffffffff611c7a16565b10155b610e525760405162461bcd60e51b8152600401808060200182810382526037815260200180612b2b6037913960400191505060405180910390fd5b33600090815260d360205260409020548015610ec85733600081815260d3602052604081205560ca54610e91916001600160a01b039091169083611e22565b60408051828152905133917fe2403640ba68fed3a2f88b7557551d1993f84b99bb10ff833f0cf8db0c5e0486919081900360200190a25b50506001606655565b610ed9611df8565b6001600160a01b0316610eea6114e4565b6001600160a01b031614610f33576040805162461bcd60e51b81526020600482018190526024820152600080516020612a5c833981519152604482015290519081900360640190fd5b610f3b61120a565b610f83576040805162461bcd60e51b815260206004820152601460248201527314185d5cd8589b194e881b9bdd081c185d5cd95960621b604482015290519081900360640190fd5b610f8b611e79565b565b6065546001600160a01b031681565b610fa4611df8565b6001600160a01b0316610fb56114e4565b6001600160a01b031614610ffe576040805162461bcd60e51b81526020600482018190526024820152600080516020612a5c833981519152604482015290519081900360640190fd5b60d45460cb54604080516370a0823160e01b8152306004820152905160009361108d9390926001600160a01b03909116916370a0823191602480820192602092909190829003018186803b15801561105557600080fd5b505afa158015611069573d6000803e3d6000fd5b505050506040513d602081101561107f57600080fd5b50519063ffffffff611c7a16565b90508015610a3a57610a3a6110a06114e4565b60cb546001600160a01b0316908363ffffffff611e2216565b60985460ff16156110fb5760405162461bcd60e51b81526004018080602001828103825260468152602001806129336046913960600191505060405180910390fd5b611103611df8565b6001600160a01b03166111146114e4565b6001600160a01b03161461115d576040805162461bcd60e51b81526020600482018190526024820152600080516020612a5c833981519152604482015290519081900360640190fd5b60985460009060ff166111c457611172611792565b60d15561117d6112f4565b60d0556001600160a01b038116156111c45761119881610564565b6001600160a01b038216600090815260d3602090815260408083209390935560d15460d2909152919020555b60d05482116112045760405162461bcd60e51b8152600401808060200182810382526026815260200180612ab16026913960400191505060405180910390fd5b5060cc55565b609854610100900460ff1690565b6001600160a01b0316600090815260d5602052604090205490565b61123b611df8565b6001600160a01b031661124c6114e4565b6001600160a01b031614611295576040805162461bcd60e51b81526020600482018190526024820152600080516020612a5c833981519152604482015290519081900360640190fd5b6033546040516000916001600160a01b0316907f8be0079c531659141344cd1fd0a4f28419497f9722a3daafe3b4186f6b6457e0908390a3603380546001600160a01b0319169055565b60cb546001600160a01b031681565b60cd5481565b60006106b94260cc54611f1a565b61130a611df8565b6001600160a01b031661131b6114e4565b6001600160a01b031614611364576040805162461bcd60e51b81526020600482018190526024820152600080516020612a5c833981519152604482015290519081900360640190fd5b61136c61120a565b156113b1576040805162461bcd60e51b815260206004820152601060248201526f14185d5cd8589b194e881c185d5cd95960821b604482015290519081900360640190fd5b610f8b611f30565b6113c1611df8565b6001600160a01b03166113d26114e4565b6001600160a01b03161461141b576040805162461bcd60e51b81526020600482018190526024820152600080516020612a5c833981519152604482015290519081900360640190fd5b60cb546001600160a01b03838116911614156114685760405162461bcd60e51b8152600401808060200182810382526021815260200180612b626021913960400191505060405180910390fd5b61148a6114736114e4565b6001600160a01b038416908363ffffffff611e2216565b604080516001600160a01b03841681526020810183905281517f8c1256b8896378cd5044f80c202f9772b9d77dc85c8a6eb51967210b09bfaa28929181900390910190a15050565b60d26020526000908152604090205481565b6033546001600160a01b031690565b60985460ff16156115355760405162461bcd60e51b81526004018080602001828103825260468152602001806129336046913960600191505060405180910390fd5b6002606654141561158d576040805162461bcd60e51b815260206004820152601f60248201527f5265656e7472616e637947756172643a207265656e7472616e742063616c6c00604482015290519081900360640190fd5b600260665561159a61120a565b156115df576040805162461bcd60e51b815260206004820152601060248201526f14185d5cd8589b194e881c185d5cd95960821b604482015290519081900360640190fd5b609854339060ff16611645576115f3611792565b60d1556115fe6112f4565b60d0556001600160a01b038116156116455761161981610564565b6001600160a01b038216600090815260d3602090815260408083209390935560d15460d2909152919020555b61164f3383611fb5565b60cb54610ec8906001600160a01b031633308563ffffffff6120c216565b60d05481565b60985460ff16156116b55760405162461bcd60e51b81526004018080602001828103825260468152602001806129336046913960600191505060405180910390fd5b6116bd611df8565b6001600160a01b03166116ce6114e4565b6001600160a01b031614611717576040805162461bcd60e51b81526020600482018190526024820152600080516020612a5c833981519152604482015290519081900360640190fd5b60cc5442116117575760405162461bcd60e51b81526004018080602001828103825260588152602001806128db6058913960600191505060405180910390fd5b60ce8190556040805182815290517ffb46ca5a5e06d4540d6387b930a7c978bce0db5f449ec6b3f5d07c6e1d44f2d39181900360200190a150565b600060d454600014156117a8575060d154610619565b6106b96117dd60d4546105dc670de0b6b3a76400006117d160cd546117d160d0546105ab6112f4565b9063ffffffff611cd716565b60d1549063ffffffff611d9e16565b60ca546001600160a01b031681565b60d15481565b60985460ff16156118435760405162461bcd60e51b81526004018080602001828103825260468152602001806129336046913960600191505060405180910390fd5b61184b611df8565b6001600160a01b031661185c6114e4565b6001600160a01b0316146118a5576040805162461bcd60e51b81526020600482018190526024820152600080516020612a5c833981519152604482015290519081900360640190fd5b600060cf81905560cc81905560cd81905560d155610f8b612122565b60985460ff16156119035760405162461bcd60e51b81526004018080602001828103825260468152602001806129336046913960600191505060405180910390fd5b61190b611df8565b6001600160a01b031661191c6114e4565b6001600160a01b031614611965576040805162461bcd60e51b81526020600482018190526024820152600080516020612a5c833981519152604482015290519081900360640190fd5b60cf8190556040805182815290517f2b0fa66d155c9598699cb6569577f27b95729bbf580268eed39db6bc4e8144779181900360200190a150565b60985460ff16156119e25760405162461bcd60e51b81526004018080602001828103825260468152602001806129336046913960600191505060405180910390fd5b33600090815260d560205260409020546119fb906106f7565b610f8b610ce1565b60cc5481565b611a11611df8565b6001600160a01b0316611a226114e4565b6001600160a01b031614611a6b576040805162461bcd60e51b81526020600482018190526024820152600080516020612a5c833981519152604482015290519081900360640190fd5b6001600160a01b038116611ab05760405162461bcd60e51b81526004018080602001828103825260268152602001806129c16026913960400191505060405180910390fd5b6033546040516001600160a01b038084169216907f8be0079c531659141344cd1fd0a4f28419497f9722a3daafe3b4186f6b6457e090600090a3603380546001600160a01b0319166001600160a01b0392909216919091179055565b60cf5433600090815260d660205260408120549091829182916106de914291611b3b919063ffffffff611d9e16565b9063ffffffff611dfc16565b600054610100900460ff1680611b605750611b606121bc565b80611b6e575060005460ff16155b611ba95760405162461bcd60e51b815260040180806020018281038252602e815260200180612a0d602e913960400191505060405180910390fd5b600054610100900460ff16158015611bd4576000805460ff1961ff0019909116610100171660011790555b611bdc6121cd565b611be4612276565b611bec61236f565b611bf461241b565b611bfc6124c6565b611c0461256c565b611c0d86611a09565b60ca80546001600160a01b038087166001600160a01b03199283161790925560cb8054868416908316179055606580549288169290911691909117905560cf829055600060cc81905560cd5562ed4e0060ce558015611c72576000805461ff00191690555b505050505050565b600082821115611cd1576040805162461bcd60e51b815260206004820152601e60248201527f536166654d6174683a207375627472616374696f6e206f766572666c6f770000604482015290519081900360640190fd5b50900390565b600082611ce6575060006105f4565b82820282848281611cf357fe5b0414611d305760405162461bcd60e51b8152600401808060200182810382526021815260200180612a3b6021913960400191505060405180910390fd5b9392505050565b6000808211611d8d576040805162461bcd60e51b815260206004820152601a60248201527f536166654d6174683a206469766973696f6e206279207a65726f000000000000604482015290519081900360640190fd5b818381611d9657fe5b049392505050565b600082820183811015611d30576040805162461bcd60e51b815260206004820152601b60248201527f536166654d6174683a206164646974696f6e206f766572666c6f770000000000604482015290519081900360640190fd5b3390565b60008083831115611e1257506000905080611e1b565b50600190508183035b9250929050565b604080516001600160a01b038416602482015260448082018490528251808303909101815260649091019091526020810180516001600160e01b031663a9059cbb60e01b179052611e7490849061260c565b505050565b611e8161120a565b611ec9576040805162461bcd60e51b815260206004820152601460248201527314185d5cd8589b194e881b9bdd081c185d5cd95960621b604482015290519081900360640190fd5b6098805461ff00191690557f5db9ee0a495bf2e6ff9c91a7834c1ba4fdd244a5e8aa4e537bd38aeae4b073aa611efd611df8565b604080516001600160a01b039092168252519081900360200190a1565b6000818310611f295781611d30565b5090919050565b611f3861120a565b15611f7d576040805162461bcd60e51b815260206004820152601060248201526f14185d5cd8589b194e881c185d5cd95960821b604482015290519081900360640190fd5b6098805461ff0019166101001790557f62e78cea01bee320cd4e420270b5ea74000d11b0c9f74754ebdbfc544b05a258611efd611df8565b60008111611ffb576040805162461bcd60e51b815260206004820152600e60248201526d043616e6e6f74207374616b6520360941b604482015290519081900360640190fd5b60d45461200e908263ffffffff611d9e16565b60d4556001600160a01b038216600090815260d5602052604090205461203a908263ffffffff611d9e16565b6001600160a01b038316600090815260d5602090815260408083209390935560d69052205461207f576001600160a01b038216600090815260d6602052604090204290555b6040805182815290516001600160a01b038416917f9e71bc8eea02a63969f509818f2dafb9254532904319f9dbda79b67bd34a5f3d919081900360200190a25050565b604080516001600160a01b0380861660248301528416604482015260648082018490528251808303909101815260849091019091526020810180516001600160e01b03166323b872dd60e01b17905261211c90859061260c565b50505050565b61212a611df8565b6001600160a01b031661213b6114e4565b6001600160a01b031614612184576040805162461bcd60e51b81526020600482018190526024820152600080516020612a5c833981519152604482015290519081900360640190fd5b6098805460ff191660011790556040517fe68101b30364d616deefc8cd307b7e27ccbd9c73f138bd478179497563d97a1190600090a1565b60006121c7306126bd565b15905090565b600054610100900460ff16806121e657506121e66121bc565b806121f4575060005460ff16155b61222f5760405162461bcd60e51b815260040180806020018281038252602e815260200180612a0d602e913960400191505060405180910390fd5b600054610100900460ff1615801561225a576000805460ff1961ff0019909116610100171660011790555b61226261256c565b8015610a3a576000805461ff001916905550565b600054610100900460ff168061228f575061228f6121bc565b8061229d575060005460ff16155b6122d85760405162461bcd60e51b815260040180806020018281038252602e815260200180612a0d602e913960400191505060405180910390fd5b600054610100900460ff16158015612303576000805460ff1961ff0019909116610100171660011790555b600061230d611df8565b603380546001600160a01b0319166001600160a01b038316908117909155604051919250906000907f8be0079c531659141344cd1fd0a4f28419497f9722a3daafe3b4186f6b6457e0908290a3508015610a3a576000805461ff001916905550565b600054610100900460ff168061238857506123886121bc565b80612396575060005460ff16155b6123d15760405162461bcd60e51b815260040180806020018281038252602e815260200180612a0d602e913960400191505060405180910390fd5b600054610100900460ff161580156123fc576000805460ff1961ff0019909116610100171660011790555b6098805461ff00191690558015610a3a576000805461ff001916905550565b600054610100900460ff168061243457506124346121bc565b80612442575060005460ff16155b61247d5760405162461bcd60e51b815260040180806020018281038252602e815260200180612a0d602e913960400191505060405180910390fd5b600054610100900460ff161580156124a8576000805460ff1961ff0019909116610100171660011790555b6098805460ff191690558015610a3a576000805461ff001916905550565b600054610100900460ff16806124df57506124df6121bc565b806124ed575060005460ff16155b6125285760405162461bcd60e51b815260040180806020018281038252602e815260200180612a0d602e913960400191505060405180910390fd5b600054610100900460ff16158015612553576000805460ff1961ff0019909116610100171660011790555b60016066558015610a3a576000805461ff001916905550565b600054610100900460ff168061258557506125856121bc565b80612593575060005460ff16155b6125ce5760405162461bcd60e51b815260040180806020018281038252602e815260200180612a0d602e913960400191505060405180910390fd5b600054610100900460ff16158015612262576000805460ff1961ff0019909116610100171660011790558015610a3a576000805461ff001916905550565b6060612661826040518060400160405280602081526020017f5361666545524332303a206c6f772d6c6576656c2063616c6c206661696c6564815250856001600160a01b03166126c39092919063ffffffff16565b805190915015611e745780806020019051602081101561268057600080fd5b5051611e745760405162461bcd60e51b815260040180806020018281038252602a815260200180612b01602a913960400191505060405180910390fd5b3b151590565b60606126d284846000856126da565b949350505050565b60608247101561271b5760405162461bcd60e51b81526004018080602001828103825260268152602001806129e76026913960400191505060405180910390fd5b612724856126bd565b612775576040805162461bcd60e51b815260206004820152601d60248201527f416464726573733a2063616c6c20746f206e6f6e2d636f6e7472616374000000604482015290519081900360640190fd5b60006060866001600160a01b031685876040518082805190602001908083835b602083106127b45780518252601f199092019160209182019101612795565b6001836020036101000a03801982511681845116808217855250505050505090500191505060006040518083038185875af1925050503d8060008114612816576040519150601f19603f3d011682016040523d82523d6000602084013e61281b565b606091505b509150915061282b828286612836565b979650505050505050565b60608315612845575081611d30565b8251156128555782518084602001fd5b8160405162461bcd60e51b81526004018080602001828103825283818151815260200191508051906020019080838360005b8381101561289f578181015183820152602001612887565b50505050905090810190601f1680156128cc5780820380516001836020036101000a031916815260200191505b509250505060405180910390fdfe50726576696f7573207265776172647320706572696f64206d75737420626520636f6d706c657465206265666f7265206368616e67696e6720746865206475726174696f6e20666f7220746865206e657720706572696f645468697320616374696f6e2063616e6e6f7420626520706572666f726d6564207768696c652074686520636f6e747261637420697320696e204661696c73616665204d6f64655468697320616374696f6e2063616e206f6e6c7920626520706572666f726d6564207768696c652074686520636f6e747261637420697320696e204661696c73616665204d6f64654f776e61626c653a206e6577206f776e657220697320746865207a65726f2061646472657373416464726573733a20696e73756666696369656e742062616c616e636520666f722063616c6c496e697469616c697a61626c653a20636f6e747261637420697320616c726561647920696e697469616c697a6564536166654d6174683a206d756c7469706c69636174696f6e206f766572666c6f774f776e61626c653a2063616c6c6572206973206e6f7420746865206f776e657243616e6e6f7420776974686472617720756e74696c206d696e696d756d207374616b696e672074696d65206861732070617373656454696d657374616d70206d757374206265206166746572206c61737455706461746554696d6543616c6c6572206973206e6f742052657761726473446973747269627574696f6e20636f6e74726163745361666545524332303a204552433230206f7065726174696f6e20646964206e6f74207375636365656443616e6e6f74206765742072657761726420756e74696c206d696e696d756d207374616b696e672074696d65206861732070617373656443616e6e6f7420776974686472617720746865207374616b696e6720746f6b656ea2646970667358221220f9dbf2f4699170a622ffb0798dff0858406505c064aab7ce4b70a42a9e2f194e64736f6c63430006050033",
  "immutableReferences": {},
  "source": "pragma solidity ^0.6.2;\r\n\r\nimport \"@openzeppelin/contracts-upgradeable/proxy/Initializable.sol\";\r\nimport \"@openzeppelin/contracts-upgradeable/utils/ReentrancyGuardUpgradeable.sol\";\r\nimport \"@openzeppelin/contracts-upgradeable/utils/PausableUpgradeable.sol\";\r\nimport \"../../node_modules/@openzeppelin/contracts/math/Math.sol\";\r\nimport \"../../node_modules/@openzeppelin/contracts/math/SafeMath.sol\";\r\nimport \"../../node_modules/@openzeppelin/contracts/token/ERC20/SafeERC20.sol\";\r\n\r\n// Inheritance\r\nimport \"./interfaces/IStakingRewards.sol\";\r\nimport \"./RewardsDistributionRecipientUpgradeable.sol\";\r\nimport \"./FailsafeUpgradeable.sol\";\r\n\r\n// https://docs.synthetix.io/contracts/source/contracts/stakingrewards\r\ncontract StakingRewardsUpgradeable is\r\n    IStakingRewards,\r\n    Initializable,\r\n    RewardsDistributionRecipientUpgradeable,\r\n    ReentrancyGuardUpgradeable,\r\n    FailsafeUpgradeable,\r\n    PausableUpgradeable\r\n{\r\n    using SafeMath for uint256;\r\n    using SafeERC20 for IERC20;\r\n\r\n    /* ========== STATE VARIABLES ========== */\r\n\r\n    IERC20 public rewardsToken;\r\n    IERC20 public stakingToken;\r\n    uint256 public periodFinish;\r\n    uint256 public override rewardRate;\r\n    uint256 public override rewardsDuration;\r\n    uint256 public override minimumStakeTime;\r\n    uint256 public lastUpdateTime;\r\n    uint256 public rewardPerTokenStored;\r\n\r\n    mapping(address => uint256) public userRewardPerTokenPaid;\r\n    mapping(address => uint256) public rewards;\r\n\r\n    uint256 private _totalSupply;\r\n    mapping(address => uint256) private _balances;\r\n    mapping(address => uint256) private _stakeTimestamp;\r\n\r\n    /* ========== CONSTRUCTOR ========== */\r\n\r\n    function initialize(\r\n        address _owner,\r\n        address _rewardsDistribution,\r\n        address _rewardsToken,\r\n        address _stakingToken,\r\n        uint256 _minimumStakeTime\r\n    ) public virtual initializer {\r\n        __Context_init();\r\n        __Ownable_init_unchained();\r\n        __Pausable_init_unchained();\r\n        __Failsafe_init_unchained();\r\n        __ReentrancyGuard_init_unchained();\r\n        __RewardsDistributionRecipient_init_unchained();\r\n\r\n        // for consistency with the old contract\r\n        transferOwnership(_owner);\r\n\r\n        rewardsToken = IERC20(_rewardsToken);\r\n        stakingToken = IERC20(_stakingToken);\r\n        rewardsDistribution = _rewardsDistribution;\r\n        minimumStakeTime = _minimumStakeTime;\r\n\r\n        periodFinish = 0;\r\n        rewardRate = 0;\r\n        rewardsDuration = 180 days;\r\n    }\r\n\r\n    /* ========== VIEWS ========== */\r\n\r\n    function totalSupply() external view override returns (uint256) {\r\n        return _totalSupply;\r\n    }\r\n\r\n    function balanceOf(address account)\r\n        external\r\n        view\r\n        override\r\n        returns (uint256)\r\n    {\r\n        return _balances[account];\r\n    }\r\n\r\n    function lastTimeRewardApplicable() public view override returns (uint256) {\r\n        return Math.min(block.timestamp, periodFinish);\r\n    }\r\n\r\n    function rewardPerToken() public view override returns (uint256) {\r\n        if (_totalSupply == 0) {\r\n            return rewardPerTokenStored;\r\n        }\r\n        return\r\n            rewardPerTokenStored.add(\r\n                lastTimeRewardApplicable()\r\n                    .sub(lastUpdateTime)\r\n                    .mul(rewardRate)\r\n                    .mul(1e18)\r\n                    .div(_totalSupply)\r\n            );\r\n    }\r\n\r\n    function earned(address account) public view override returns (uint256) {\r\n        return\r\n            _balances[account]\r\n                .mul(rewardPerToken().sub(userRewardPerTokenPaid[account]))\r\n                .div(1e18)\r\n                .add(rewards[account]);\r\n    }\r\n\r\n    function getRewardForDuration() external view override returns (uint256) {\r\n        return rewardRate.mul(rewardsDuration);\r\n    }\r\n\r\n    function getStakeRewardDistributionTimeLeft()\r\n        external\r\n        override\r\n        view\r\n        returns (uint256)\r\n    {\r\n        (bool success, uint256 diff) = periodFinish.trySub(block.timestamp);\r\n        return success ? diff : 0;\r\n    }\r\n\r\n    function getStakeUnlockTimeLeft() external override view returns (uint256) {\r\n        (bool success, uint256 diff) =\r\n            _stakeTimestamp[msg.sender].add(minimumStakeTime).trySub(\r\n                block.timestamp\r\n            );\r\n        return success ? diff : 0;\r\n    }\r\n\r\n    /* ========== MUTATIVE FUNCTIONS ========== */\r\n\r\n    function stake(uint256 amount)\r\n        external\r\n        override\r\n        normalMode\r\n        nonReentrant\r\n        whenNotPaused\r\n        updateReward(msg.sender)\r\n    {\r\n        _stake(msg.sender, amount);\r\n        stakingToken.safeTransferFrom(msg.sender, address(this), amount);\r\n    }\r\n\r\n    function withdraw(uint256 amount)\r\n        public\r\n        override\r\n        normalMode\r\n        nonReentrant\r\n        updateReward(msg.sender)\r\n    {\r\n        require(amount > 0, \"Cannot withdraw 0\");\r\n        require(\r\n            minimumStakeTime == 0 ||\r\n                block.timestamp.sub(_stakeTimestamp[msg.sender]) >=\r\n                minimumStakeTime,\r\n            \"Cannot withdraw until minimum staking time has passed\"\r\n        );\r\n        _totalSupply = _totalSupply.sub(amount);\r\n        _balances[msg.sender] = _balances[msg.sender].sub(amount);\r\n        if (_balances[msg.sender] == 0) {\r\n            _stakeTimestamp[msg.sender] = 0;\r\n        } else {\r\n            _stakeTimestamp[msg.sender] = block.timestamp;\r\n        }\r\n        stakingToken.safeTransfer(msg.sender, amount);\r\n        emit Withdrawn(msg.sender, amount);\r\n    }\r\n\r\n    function getReward()\r\n        public\r\n        override\r\n        normalMode\r\n        nonReentrant\r\n        updateReward(msg.sender)\r\n    {\r\n        require(\r\n            minimumStakeTime == 0 ||\r\n                block.timestamp.sub(_stakeTimestamp[msg.sender]) >=\r\n                minimumStakeTime,\r\n            \"Cannot get reward until minimum staking time has passed\"\r\n        );\r\n        uint256 reward = rewards[msg.sender];\r\n        if (reward > 0) {\r\n            rewards[msg.sender] = 0;\r\n            rewardsToken.safeTransfer(msg.sender, reward);\r\n            emit RewardPaid(msg.sender, reward);\r\n        }\r\n    }\r\n\r\n    function exit() external override normalMode {\r\n        withdraw(_balances[msg.sender]);\r\n        getReward();\r\n    }\r\n\r\n    function recoverOwnStake() external failsafeMode {\r\n        uint256 amount = _balances[msg.sender];\r\n        if (amount > 0) {\r\n            _totalSupply = _totalSupply.sub(amount);\r\n            _balances[msg.sender] = _balances[msg.sender].sub(amount);\r\n            stakingToken.safeTransfer(msg.sender, amount);\r\n        }\r\n    }\r\n\r\n    /* ========== RESTRICTED FUNCTIONS ========== */\r\n\r\n    function notifyRewardAmount(uint256 reward)\r\n        external\r\n        override\r\n        normalMode\r\n        onlyRewardsDistribution\r\n        updateReward(address(0))\r\n    {\r\n        if (block.timestamp >= periodFinish) {\r\n            rewardRate = reward.div(rewardsDuration);\r\n        } else {\r\n            uint256 remaining = periodFinish.sub(block.timestamp);\r\n            uint256 leftover = remaining.mul(rewardRate);\r\n            rewardRate = reward.add(leftover).div(rewardsDuration);\r\n        }\r\n\r\n        // Ensure the provided reward amount is not more than the balance in the contract.\r\n        // This keeps the reward rate in the right range, preventing overflows due to\r\n        // very high values of rewardRate in the earned and rewardsPerToken functions;\r\n        // Reward + leftover must be less than 2^256 / 10^18 to avoid overflow.\r\n        uint256 balance = rewardsToken.balanceOf(address(this));\r\n        require(\r\n            rewardRate <= balance.div(rewardsDuration),\r\n            \"Provided reward too high\"\r\n        );\r\n\r\n        lastUpdateTime = block.timestamp;\r\n        periodFinish = block.timestamp.add(rewardsDuration);\r\n        emit RewardAdded(reward);\r\n    }\r\n\r\n    // End rewards emission earlier\r\n    function updatePeriodFinish(uint256 timestamp)\r\n        external\r\n        normalMode\r\n        onlyOwner\r\n        updateReward(address(0))\r\n    {\r\n        require(\r\n            timestamp > lastUpdateTime,\r\n            \"Timestamp must be after lastUpdateTime\"\r\n        );\r\n        periodFinish = timestamp;\r\n    }\r\n\r\n    // Added to support recovering LP Rewards from other systems such as BAL to be distributed to holders\r\n    function recoverERC20(address tokenAddress, uint256 tokenAmount)\r\n        external\r\n        onlyOwner\r\n    {\r\n        require(\r\n            tokenAddress != address(stakingToken),\r\n            \"Cannot withdraw the staking token\"\r\n        );\r\n        IERC20(tokenAddress).safeTransfer(owner(), tokenAmount);\r\n        emit Recovered(tokenAddress, tokenAmount);\r\n    }\r\n\r\n    function setRewardsDuration(uint256 _rewardsDuration)\r\n        external\r\n        normalMode\r\n        onlyOwner\r\n    {\r\n        require(\r\n            block.timestamp > periodFinish,\r\n            \"Previous rewards period must be complete before changing the duration for the new period\"\r\n        );\r\n        rewardsDuration = _rewardsDuration;\r\n        emit RewardsDurationUpdated(rewardsDuration);\r\n    }\r\n\r\n    function setMinimumStakeTime(uint256 _minimumStakeTime)\r\n        external\r\n        normalMode\r\n        onlyOwner\r\n    {\r\n        minimumStakeTime = _minimumStakeTime;\r\n        emit MinimumStakeTimeUpdated(_minimumStakeTime);\r\n    }\r\n\r\n    function enableFailsafeMode() public override normalMode onlyOwner {\r\n        minimumStakeTime = 0;\r\n        periodFinish = 0;\r\n        rewardRate = 0;\r\n        rewardPerTokenStored = 0;\r\n\r\n        super.enableFailsafeMode();\r\n    }\r\n\r\n    function recoverExtraStakingTokensToOwner() external onlyOwner {\r\n        // stake() and withdraw() should guarantee that\r\n        // _totalSupply <= stakingToken.balanceOf(this)\r\n        uint256 stakingTokenAmountBelongingToOwner =\r\n            stakingToken.balanceOf(address(this)).sub(_totalSupply);\r\n\r\n        if (stakingTokenAmountBelongingToOwner > 0) {\r\n            stakingToken.safeTransfer(\r\n                owner(),\r\n                stakingTokenAmountBelongingToOwner\r\n            );\r\n        }\r\n    }\r\n\r\n    function pause() external onlyOwner whenNotPaused {\r\n        _pause();\r\n    }\r\n\r\n    function unpause() external onlyOwner whenPaused {\r\n        _unpause();\r\n    }\r\n\r\n    /* ========== INTERNAL FUNCTIONS ========== */\r\n\r\n    function _stake(address staker, uint256 amount) internal\r\n    {\r\n        require(amount > 0, \"Cannot stake 0\");\r\n        _totalSupply = _totalSupply.add(amount);\r\n        _balances[staker] = _balances[staker].add(amount);\r\n        if (_stakeTimestamp[staker] == 0) {\r\n            _stakeTimestamp[staker] = block.timestamp;\r\n        }\r\n        emit Staked(staker, amount);\r\n    }\r\n\r\n    /* ========== MODIFIERS ========== */\r\n\r\n    modifier updateReward(address account) {\r\n        if (!failsafeModeActive) {\r\n            rewardPerTokenStored = rewardPerToken();\r\n            lastUpdateTime = lastTimeRewardApplicable();\r\n            if (account != address(0)) {\r\n                rewards[account] = earned(account);\r\n                userRewardPerTokenPaid[account] = rewardPerTokenStored;\r\n            }\r\n        }\r\n        _;\r\n    }\r\n\r\n    /* ========== EVENTS ========== */\r\n\r\n    event RewardAdded(uint256 reward);\r\n    event Staked(address indexed user, uint256 amount);\r\n    event Withdrawn(address indexed user, uint256 amount);\r\n    event RewardPaid(address indexed user, uint256 reward);\r\n    event RewardsDurationUpdated(uint256 newDuration);\r\n    event MinimumStakeTimeUpdated(uint256 newMinimumStakeTime);\r\n    event Recovered(address token, uint256 amount);\r\n}\r\n",
  "sourcePath": "F:\\vscode\\cblades\\contracts\\staking\\StakingRewardsUpgradeable.sol",
  "compiler": {
    "name": "solc",
    "version": "0.6.5+commit.f956cc89.Emscripten.clang"
  },
  "schemaVersion": "3.3.4",
  "updatedAt": "2021-07-22T21:42:32.190Z",
  "devdoc": {
    "methods": {
      "owner()": {
        "details": "Returns the address of the current owner."
      },
      "paused()": {
        "details": "Returns true if the contract is paused, and false otherwise."
      },
      "renounceOwnership()": {
        "details": "Leaves the contract without owner. It will not be possible to call `onlyOwner` functions anymore. Can only be called by the current owner.     * NOTE: Renouncing ownership will leave the contract without an owner, thereby removing any functionality that is only available to the owner."
      },
      "transferOwnership(address)": {
        "details": "Transfers ownership of the contract to a new account (`newOwner`). Can only be called by the current owner."
      }
    }
  },
  "userdoc": {
    "methods": {}
  }
}