{
  "contractName": "Weapons",
  "abi": [
    {
      "anonymous": false,
      "inputs": [
        {
          "indexed": true,
          "internalType": "address",
          "name": "owner",
          "type": "address"
        },
        {
          "indexed": true,
          "internalType": "address",
          "name": "approved",
          "type": "address"
        },
        {
          "indexed": true,
          "internalType": "uint256",
          "name": "tokenId",
          "type": "uint256"
        }
      ],
      "name": "Approval",
      "type": "event"
    },
    {
      "anonymous": false,
      "inputs": [
        {
          "indexed": true,
          "internalType": "address",
          "name": "owner",
          "type": "address"
        },
        {
          "indexed": true,
          "internalType": "address",
          "name": "operator",
          "type": "address"
        },
        {
          "indexed": false,
          "internalType": "bool",
          "name": "approved",
          "type": "bool"
        }
      ],
      "name": "ApprovalForAll",
      "type": "event"
    },
    {
      "anonymous": false,
      "inputs": [
        {
          "indexed": true,
          "internalType": "address",
          "name": "owner",
          "type": "address"
        },
        {
          "indexed": true,
          "internalType": "uint256",
          "name": "burned",
          "type": "uint256"
        }
      ],
      "name": "Burned",
      "type": "event"
    },
    {
      "anonymous": false,
      "inputs": [
        {
          "indexed": true,
          "internalType": "uint256",
          "name": "weapon",
          "type": "uint256"
        },
        {
          "indexed": true,
          "internalType": "address",
          "name": "minter",
          "type": "address"
        }
      ],
      "name": "NewWeapon",
      "type": "event"
    },
    {
      "anonymous": false,
      "inputs": [
        {
          "indexed": true,
          "internalType": "address",
          "name": "owner",
          "type": "address"
        },
        {
          "indexed": true,
          "internalType": "uint256",
          "name": "reforged",
          "type": "uint256"
        },
        {
          "indexed": true,
          "internalType": "uint256",
          "name": "burned",
          "type": "uint256"
        },
        {
          "indexed": false,
          "internalType": "uint8",
          "name": "lowPoints",
          "type": "uint8"
        },
        {
          "indexed": false,
          "internalType": "uint8",
          "name": "fourPoints",
          "type": "uint8"
        },
        {
          "indexed": false,
          "internalType": "uint8",
          "name": "fivePoints",
          "type": "uint8"
        }
      ],
      "name": "Reforged",
      "type": "event"
    },
    {
      "anonymous": false,
      "inputs": [
        {
          "indexed": true,
          "internalType": "address",
          "name": "owner",
          "type": "address"
        },
        {
          "indexed": true,
          "internalType": "uint256",
          "name": "reforged",
          "type": "uint256"
        },
        {
          "indexed": false,
          "internalType": "uint8",
          "name": "lowDust",
          "type": "uint8"
        },
        {
          "indexed": false,
          "internalType": "uint8",
          "name": "fourDust",
          "type": "uint8"
        },
        {
          "indexed": false,
          "internalType": "uint8",
          "name": "fiveDust",
          "type": "uint8"
        },
        {
          "indexed": false,
          "internalType": "uint8",
          "name": "lowPoints",
          "type": "uint8"
        },
        {
          "indexed": false,
          "internalType": "uint8",
          "name": "fourPoints",
          "type": "uint8"
        },
        {
          "indexed": false,
          "internalType": "uint8",
          "name": "fivePoints",
          "type": "uint8"
        }
      ],
      "name": "ReforgedWithDust",
      "type": "event"
    },
    {
      "anonymous": false,
      "inputs": [
        {
          "indexed": true,
          "internalType": "bytes32",
          "name": "role",
          "type": "bytes32"
        },
        {
          "indexed": true,
          "internalType": "bytes32",
          "name": "previousAdminRole",
          "type": "bytes32"
        },
        {
          "indexed": true,
          "internalType": "bytes32",
          "name": "newAdminRole",
          "type": "bytes32"
        }
      ],
      "name": "RoleAdminChanged",
      "type": "event"
    },
    {
      "anonymous": false,
      "inputs": [
        {
          "indexed": true,
          "internalType": "bytes32",
          "name": "role",
          "type": "bytes32"
        },
        {
          "indexed": true,
          "internalType": "address",
          "name": "account",
          "type": "address"
        },
        {
          "indexed": true,
          "internalType": "address",
          "name": "sender",
          "type": "address"
        }
      ],
      "name": "RoleGranted",
      "type": "event"
    },
    {
      "anonymous": false,
      "inputs": [
        {
          "indexed": true,
          "internalType": "bytes32",
          "name": "role",
          "type": "bytes32"
        },
        {
          "indexed": true,
          "internalType": "address",
          "name": "account",
          "type": "address"
        },
        {
          "indexed": true,
          "internalType": "address",
          "name": "sender",
          "type": "address"
        }
      ],
      "name": "RoleRevoked",
      "type": "event"
    },
    {
      "anonymous": false,
      "inputs": [
        {
          "indexed": true,
          "internalType": "address",
          "name": "from",
          "type": "address"
        },
        {
          "indexed": true,
          "internalType": "address",
          "name": "to",
          "type": "address"
        },
        {
          "indexed": true,
          "internalType": "uint256",
          "name": "tokenId",
          "type": "uint256"
        }
      ],
      "name": "Transfer",
      "type": "event"
    },
    {
      "inputs": [],
      "name": "DEFAULT_ADMIN_ROLE",
      "outputs": [
        {
          "internalType": "bytes32",
          "name": "",
          "type": "bytes32"
        }
      ],
      "stateMutability": "view",
      "type": "function"
    },
    {
      "inputs": [],
      "name": "GAME_ADMIN",
      "outputs": [
        {
          "internalType": "bytes32",
          "name": "",
          "type": "bytes32"
        }
      ],
      "stateMutability": "view",
      "type": "function"
    },
    {
      "inputs": [],
      "name": "RECEIVE_DOES_NOT_SET_TRANSFER_TIMESTAMP",
      "outputs": [
        {
          "internalType": "bytes32",
          "name": "",
          "type": "bytes32"
        }
      ],
      "stateMutability": "view",
      "type": "function"
    },
    {
      "inputs": [
        {
          "internalType": "address",
          "name": "to",
          "type": "address"
        },
        {
          "internalType": "uint256",
          "name": "tokenId",
          "type": "uint256"
        }
      ],
      "name": "approve",
      "outputs": [],
      "stateMutability": "nonpayable",
      "type": "function"
    },
    {
      "inputs": [
        {
          "internalType": "address",
          "name": "owner",
          "type": "address"
        }
      ],
      "name": "balanceOf",
      "outputs": [
        {
          "internalType": "uint256",
          "name": "",
          "type": "uint256"
        }
      ],
      "stateMutability": "view",
      "type": "function"
    },
    {
      "inputs": [],
      "name": "baseURI",
      "outputs": [
        {
          "internalType": "string",
          "name": "",
          "type": "string"
        }
      ],
      "stateMutability": "view",
      "type": "function"
    },
    {
      "inputs": [],
      "name": "burnPointMultiplier",
      "outputs": [
        {
          "internalType": "uint256",
          "name": "",
          "type": "uint256"
        }
      ],
      "stateMutability": "view",
      "type": "function"
    },
    {
      "inputs": [],
      "name": "fiveStarBurnPowerPerPoint",
      "outputs": [
        {
          "internalType": "uint256",
          "name": "",
          "type": "uint256"
        }
      ],
      "stateMutability": "view",
      "type": "function"
    },
    {
      "inputs": [],
      "name": "fourStarBurnPowerPerPoint",
      "outputs": [
        {
          "internalType": "uint256",
          "name": "",
          "type": "uint256"
        }
      ],
      "stateMutability": "view",
      "type": "function"
    },
    {
      "inputs": [
        {
          "internalType": "uint256",
          "name": "tokenId",
          "type": "uint256"
        }
      ],
      "name": "getApproved",
      "outputs": [
        {
          "internalType": "address",
          "name": "",
          "type": "address"
        }
      ],
      "stateMutability": "view",
      "type": "function"
    },
    {
      "inputs": [
        {
          "internalType": "bytes32",
          "name": "role",
          "type": "bytes32"
        }
      ],
      "name": "getRoleAdmin",
      "outputs": [
        {
          "internalType": "bytes32",
          "name": "",
          "type": "bytes32"
        }
      ],
      "stateMutability": "view",
      "type": "function"
    },
    {
      "inputs": [
        {
          "internalType": "bytes32",
          "name": "role",
          "type": "bytes32"
        },
        {
          "internalType": "uint256",
          "name": "index",
          "type": "uint256"
        }
      ],
      "name": "getRoleMember",
      "outputs": [
        {
          "internalType": "address",
          "name": "",
          "type": "address"
        }
      ],
      "stateMutability": "view",
      "type": "function"
    },
    {
      "inputs": [
        {
          "internalType": "bytes32",
          "name": "role",
          "type": "bytes32"
        }
      ],
      "name": "getRoleMemberCount",
      "outputs": [
        {
          "internalType": "uint256",
          "name": "",
          "type": "uint256"
        }
      ],
      "stateMutability": "view",
      "type": "function"
    },
    {
      "inputs": [
        {
          "internalType": "bytes32",
          "name": "role",
          "type": "bytes32"
        },
        {
          "internalType": "address",
          "name": "account",
          "type": "address"
        }
      ],
      "name": "grantRole",
      "outputs": [],
      "stateMutability": "nonpayable",
      "type": "function"
    },
    {
      "inputs": [
        {
          "internalType": "bytes32",
          "name": "role",
          "type": "bytes32"
        },
        {
          "internalType": "address",
          "name": "account",
          "type": "address"
        }
      ],
      "name": "hasRole",
      "outputs": [
        {
          "internalType": "bool",
          "name": "",
          "type": "bool"
        }
      ],
      "stateMutability": "view",
      "type": "function"
    },
    {
      "inputs": [
        {
          "internalType": "address",
          "name": "owner",
          "type": "address"
        },
        {
          "internalType": "address",
          "name": "operator",
          "type": "address"
        }
      ],
      "name": "isApprovedForAll",
      "outputs": [
        {
          "internalType": "bool",
          "name": "",
          "type": "bool"
        }
      ],
      "stateMutability": "view",
      "type": "function"
    },
    {
      "inputs": [
        {
          "internalType": "uint256",
          "name": "",
          "type": "uint256"
        }
      ],
      "name": "lastTransferTimestamp",
      "outputs": [
        {
          "internalType": "uint256",
          "name": "",
          "type": "uint256"
        }
      ],
      "stateMutability": "view",
      "type": "function"
    },
    {
      "inputs": [],
      "name": "lowStarBurnPowerPerPoint",
      "outputs": [
        {
          "internalType": "uint256",
          "name": "",
          "type": "uint256"
        }
      ],
      "stateMutability": "view",
      "type": "function"
    },
    {
      "inputs": [],
      "name": "maxDurability",
      "outputs": [
        {
          "internalType": "uint256",
          "name": "",
          "type": "uint256"
        }
      ],
      "stateMutability": "view",
      "type": "function"
    },
    {
      "inputs": [],
      "name": "name",
      "outputs": [
        {
          "internalType": "string",
          "name": "",
          "type": "string"
        }
      ],
      "stateMutability": "view",
      "type": "function"
    },
    {
      "inputs": [],
      "name": "oneFrac",
      "outputs": [
        {
          "internalType": "int128",
          "name": "",
          "type": "int128"
        }
      ],
      "stateMutability": "view",
      "type": "function"
    },
    {
      "inputs": [
        {
          "internalType": "uint256",
          "name": "tokenId",
          "type": "uint256"
        }
      ],
      "name": "ownerOf",
      "outputs": [
        {
          "internalType": "address",
          "name": "",
          "type": "address"
        }
      ],
      "stateMutability": "view",
      "type": "function"
    },
    {
      "inputs": [],
      "name": "powerMultPerPointBasic",
      "outputs": [
        {
          "internalType": "int128",
          "name": "",
          "type": "int128"
        }
      ],
      "stateMutability": "view",
      "type": "function"
    },
    {
      "inputs": [],
      "name": "powerMultPerPointMatching",
      "outputs": [
        {
          "internalType": "int128",
          "name": "",
          "type": "int128"
        }
      ],
      "stateMutability": "view",
      "type": "function"
    },
    {
      "inputs": [],
      "name": "powerMultPerPointPWR",
      "outputs": [
        {
          "internalType": "int128",
          "name": "",
          "type": "int128"
        }
      ],
      "stateMutability": "view",
      "type": "function"
    },
    {
      "inputs": [
        {
          "internalType": "bytes32",
          "name": "role",
          "type": "bytes32"
        },
        {
          "internalType": "address",
          "name": "account",
          "type": "address"
        }
      ],
      "name": "renounceRole",
      "outputs": [],
      "stateMutability": "nonpayable",
      "type": "function"
    },
    {
      "inputs": [
        {
          "internalType": "bytes32",
          "name": "role",
          "type": "bytes32"
        },
        {
          "internalType": "address",
          "name": "account",
          "type": "address"
        }
      ],
      "name": "revokeRole",
      "outputs": [],
      "stateMutability": "nonpayable",
      "type": "function"
    },
    {
      "inputs": [
        {
          "internalType": "address",
          "name": "from",
          "type": "address"
        },
        {
          "internalType": "address",
          "name": "to",
          "type": "address"
        },
        {
          "internalType": "uint256",
          "name": "tokenId",
          "type": "uint256"
        }
      ],
      "name": "safeTransferFrom",
      "outputs": [],
      "stateMutability": "nonpayable",
      "type": "function"
    },
    {
      "inputs": [
        {
          "internalType": "address",
          "name": "from",
          "type": "address"
        },
        {
          "internalType": "address",
          "name": "to",
          "type": "address"
        },
        {
          "internalType": "uint256",
          "name": "tokenId",
          "type": "uint256"
        },
        {
          "internalType": "bytes",
          "name": "_data",
          "type": "bytes"
        }
      ],
      "name": "safeTransferFrom",
      "outputs": [],
      "stateMutability": "nonpayable",
      "type": "function"
    },
    {
      "inputs": [],
      "name": "secondsPerDurability",
      "outputs": [
        {
          "internalType": "uint256",
          "name": "",
          "type": "uint256"
        }
      ],
      "stateMutability": "view",
      "type": "function"
    },
    {
      "inputs": [
        {
          "internalType": "address",
          "name": "operator",
          "type": "address"
        },
        {
          "internalType": "bool",
          "name": "approved",
          "type": "bool"
        }
      ],
      "name": "setApprovalForAll",
      "outputs": [],
      "stateMutability": "nonpayable",
      "type": "function"
    },
    {
      "inputs": [
        {
          "internalType": "bytes4",
          "name": "interfaceId",
          "type": "bytes4"
        }
      ],
      "name": "supportsInterface",
      "outputs": [
        {
          "internalType": "bool",
          "name": "",
          "type": "bool"
        }
      ],
      "stateMutability": "view",
      "type": "function"
    },
    {
      "inputs": [],
      "name": "symbol",
      "outputs": [
        {
          "internalType": "string",
          "name": "",
          "type": "string"
        }
      ],
      "stateMutability": "view",
      "type": "function"
    },
    {
      "inputs": [
        {
          "internalType": "uint256",
          "name": "index",
          "type": "uint256"
        }
      ],
      "name": "tokenByIndex",
      "outputs": [
        {
          "internalType": "uint256",
          "name": "",
          "type": "uint256"
        }
      ],
      "stateMutability": "view",
      "type": "function"
    },
    {
      "inputs": [
        {
          "internalType": "address",
          "name": "owner",
          "type": "address"
        },
        {
          "internalType": "uint256",
          "name": "index",
          "type": "uint256"
        }
      ],
      "name": "tokenOfOwnerByIndex",
      "outputs": [
        {
          "internalType": "uint256",
          "name": "",
          "type": "uint256"
        }
      ],
      "stateMutability": "view",
      "type": "function"
    },
    {
      "inputs": [
        {
          "internalType": "uint256",
          "name": "tokenId",
          "type": "uint256"
        }
      ],
      "name": "tokenURI",
      "outputs": [
        {
          "internalType": "string",
          "name": "",
          "type": "string"
        }
      ],
      "stateMutability": "view",
      "type": "function"
    },
    {
      "inputs": [],
      "name": "totalSupply",
      "outputs": [
        {
          "internalType": "uint256",
          "name": "",
          "type": "uint256"
        }
      ],
      "stateMutability": "view",
      "type": "function"
    },
    {
      "inputs": [
        {
          "internalType": "address",
          "name": "from",
          "type": "address"
        },
        {
          "internalType": "address",
          "name": "to",
          "type": "address"
        },
        {
          "internalType": "uint256",
          "name": "tokenId",
          "type": "uint256"
        }
      ],
      "name": "transferFrom",
      "outputs": [],
      "stateMutability": "nonpayable",
      "type": "function"
    },
    {
      "inputs": [],
      "name": "initialize",
      "outputs": [],
      "stateMutability": "nonpayable",
      "type": "function"
    },
    {
      "inputs": [],
      "name": "migrateTo_e55d8c5",
      "outputs": [],
      "stateMutability": "nonpayable",
      "type": "function"
    },
    {
      "inputs": [],
      "name": "migrateTo_aa9da90",
      "outputs": [],
      "stateMutability": "nonpayable",
      "type": "function"
    },
    {
      "inputs": [],
      "name": "migrateTo_951a020",
      "outputs": [],
      "stateMutability": "nonpayable",
      "type": "function"
    },
    {
      "inputs": [
        {
          "internalType": "uint256",
          "name": "id",
          "type": "uint256"
        }
      ],
      "name": "get",
      "outputs": [
        {
          "internalType": "uint16",
          "name": "_properties",
          "type": "uint16"
        },
        {
          "internalType": "uint16",
          "name": "_stat1",
          "type": "uint16"
        },
        {
          "internalType": "uint16",
          "name": "_stat2",
          "type": "uint16"
        },
        {
          "internalType": "uint16",
          "name": "_stat3",
          "type": "uint16"
        },
        {
          "internalType": "uint8",
          "name": "_level",
          "type": "uint8"
        },
        {
          "internalType": "uint8",
          "name": "_blade",
          "type": "uint8"
        },
        {
          "internalType": "uint8",
          "name": "_crossguard",
          "type": "uint8"
        },
        {
          "internalType": "uint8",
          "name": "_grip",
          "type": "uint8"
        },
        {
          "internalType": "uint8",
          "name": "_pommel",
          "type": "uint8"
        },
        {
          "internalType": "uint24",
          "name": "_burnPoints",
          "type": "uint24"
        },
        {
          "internalType": "uint24",
          "name": "_bonusPower",
          "type": "uint24"
        }
      ],
      "stateMutability": "view",
      "type": "function"
    },
    {
      "inputs": [
        {
          "internalType": "address",
          "name": "minter",
          "type": "address"
        },
        {
          "internalType": "uint256",
          "name": "seed",
          "type": "uint256"
        }
      ],
      "name": "mint",
      "outputs": [
        {
          "internalType": "uint256",
          "name": "",
          "type": "uint256"
        }
      ],
      "stateMutability": "nonpayable",
      "type": "function"
    },
    {
      "inputs": [
        {
          "internalType": "address",
          "name": "minter",
          "type": "address"
        },
        {
          "internalType": "uint256",
          "name": "stars",
          "type": "uint256"
        },
        {
          "internalType": "uint256",
          "name": "seed",
          "type": "uint256"
        }
      ],
      "name": "mintWeaponWithStars",
      "outputs": [
        {
          "internalType": "uint256",
          "name": "",
          "type": "uint256"
        }
      ],
      "stateMutability": "nonpayable",
      "type": "function"
    },
    {
      "inputs": [
        {
          "internalType": "address",
          "name": "minter",
          "type": "address"
        },
        {
          "internalType": "uint16",
          "name": "properties",
          "type": "uint16"
        },
        {
          "internalType": "uint16",
          "name": "stat1",
          "type": "uint16"
        },
        {
          "internalType": "uint16",
          "name": "stat2",
          "type": "uint16"
        },
        {
          "internalType": "uint16",
          "name": "stat3",
          "type": "uint16"
        },
        {
          "internalType": "uint256",
          "name": "cosmeticSeed",
          "type": "uint256"
        }
      ],
      "name": "performMintWeapon",
      "outputs": [
        {
          "internalType": "uint256",
          "name": "",
          "type": "uint256"
        }
      ],
      "stateMutability": "nonpayable",
      "type": "function"
    },
    {
      "inputs": [
        {
          "internalType": "uint256",
          "name": "stars",
          "type": "uint256"
        },
        {
          "internalType": "uint256",
          "name": "seed",
          "type": "uint256"
        }
      ],
      "name": "getRandomProperties",
      "outputs": [
        {
          "internalType": "uint16",
          "name": "",
          "type": "uint16"
        }
      ],
      "stateMutability": "pure",
      "type": "function"
    },
    {
      "inputs": [
        {
          "internalType": "uint16",
          "name": "minRoll",
          "type": "uint16"
        },
        {
          "internalType": "uint16",
          "name": "maxRoll",
          "type": "uint16"
        },
        {
          "internalType": "uint256",
          "name": "seed",
          "type": "uint256"
        },
        {
          "internalType": "uint256",
          "name": "seed2",
          "type": "uint256"
        }
      ],
      "name": "getRandomStat",
      "outputs": [
        {
          "internalType": "uint16",
          "name": "",
          "type": "uint16"
        }
      ],
      "stateMutability": "pure",
      "type": "function"
    },
    {
      "inputs": [
        {
          "internalType": "uint256",
          "name": "seed",
          "type": "uint256"
        },
        {
          "internalType": "uint256",
          "name": "seed2",
          "type": "uint256"
        },
        {
          "internalType": "uint8",
          "name": "limit",
          "type": "uint8"
        }
      ],
      "name": "getRandomCosmetic",
      "outputs": [
        {
          "internalType": "uint8",
          "name": "",
          "type": "uint8"
        }
      ],
      "stateMutability": "pure",
      "type": "function"
    },
    {
      "inputs": [
        {
          "internalType": "uint256",
          "name": "stars",
          "type": "uint256"
        }
      ],
      "name": "getStatMinRoll",
      "outputs": [
        {
          "internalType": "uint16",
          "name": "",
          "type": "uint16"
        }
      ],
      "stateMutability": "pure",
      "type": "function"
    },
    {
      "inputs": [
        {
          "internalType": "uint256",
          "name": "stars",
          "type": "uint256"
        }
      ],
      "name": "getStatMaxRoll",
      "outputs": [
        {
          "internalType": "uint16",
          "name": "",
          "type": "uint16"
        }
      ],
      "stateMutability": "pure",
      "type": "function"
    },
    {
      "inputs": [
        {
          "internalType": "uint256",
          "name": "stars",
          "type": "uint256"
        }
      ],
      "name": "getStatCount",
      "outputs": [
        {
          "internalType": "uint8",
          "name": "",
          "type": "uint8"
        }
      ],
      "stateMutability": "pure",
      "type": "function"
    },
    {
      "inputs": [
        {
          "internalType": "uint256",
          "name": "id",
          "type": "uint256"
        }
      ],
      "name": "getProperties",
      "outputs": [
        {
          "internalType": "uint16",
          "name": "",
          "type": "uint16"
        }
      ],
      "stateMutability": "view",
      "type": "function"
    },
    {
      "inputs": [
        {
          "internalType": "uint256",
          "name": "id",
          "type": "uint256"
        }
      ],
      "name": "getStars",
      "outputs": [
        {
          "internalType": "uint8",
          "name": "",
          "type": "uint8"
        }
      ],
      "stateMutability": "view",
      "type": "function"
    },
    {
      "inputs": [
        {
          "internalType": "uint16",
          "name": "properties",
          "type": "uint16"
        }
      ],
      "name": "getStarsFromProperties",
      "outputs": [
        {
          "internalType": "uint8",
          "name": "",
          "type": "uint8"
        }
      ],
      "stateMutability": "pure",
      "type": "function"
    },
    {
      "inputs": [
        {
          "internalType": "uint256",
          "name": "id",
          "type": "uint256"
        }
      ],
      "name": "getTrait",
      "outputs": [
        {
          "internalType": "uint8",
          "name": "",
          "type": "uint8"
        }
      ],
      "stateMutability": "view",
      "type": "function"
    },
    {
      "inputs": [
        {
          "internalType": "uint16",
          "name": "properties",
          "type": "uint16"
        }
      ],
      "name": "getTraitFromProperties",
      "outputs": [
        {
          "internalType": "uint8",
          "name": "",
          "type": "uint8"
        }
      ],
      "stateMutability": "pure",
      "type": "function"
    },
    {
      "inputs": [
        {
          "internalType": "uint256",
          "name": "id",
          "type": "uint256"
        }
      ],
      "name": "getStatPattern",
      "outputs": [
        {
          "internalType": "uint8",
          "name": "",
          "type": "uint8"
        }
      ],
      "stateMutability": "view",
      "type": "function"
    },
    {
      "inputs": [
        {
          "internalType": "uint16",
          "name": "properties",
          "type": "uint16"
        }
      ],
      "name": "getStatPatternFromProperties",
      "outputs": [
        {
          "internalType": "uint8",
          "name": "",
          "type": "uint8"
        }
      ],
      "stateMutability": "pure",
      "type": "function"
    },
    {
      "inputs": [
        {
          "internalType": "uint8",
          "name": "statPattern",
          "type": "uint8"
        }
      ],
      "name": "getStat1Trait",
      "outputs": [
        {
          "internalType": "uint8",
          "name": "",
          "type": "uint8"
        }
      ],
      "stateMutability": "pure",
      "type": "function"
    },
    {
      "inputs": [
        {
          "internalType": "uint8",
          "name": "statPattern",
          "type": "uint8"
        }
      ],
      "name": "getStat2Trait",
      "outputs": [
        {
          "internalType": "uint8",
          "name": "",
          "type": "uint8"
        }
      ],
      "stateMutability": "pure",
      "type": "function"
    },
    {
      "inputs": [
        {
          "internalType": "uint8",
          "name": "statPattern",
          "type": "uint8"
        }
      ],
      "name": "getStat3Trait",
      "outputs": [
        {
          "internalType": "uint8",
          "name": "",
          "type": "uint8"
        }
      ],
      "stateMutability": "pure",
      "type": "function"
    },
    {
      "inputs": [
        {
          "internalType": "uint256",
          "name": "id",
          "type": "uint256"
        }
      ],
      "name": "getLevel",
      "outputs": [
        {
          "internalType": "uint8",
          "name": "",
          "type": "uint8"
        }
      ],
      "stateMutability": "view",
      "type": "function"
    },
    {
      "inputs": [
        {
          "internalType": "uint256",
          "name": "id",
          "type": "uint256"
        }
      ],
      "name": "getStat1",
      "outputs": [
        {
          "internalType": "uint16",
          "name": "",
          "type": "uint16"
        }
      ],
      "stateMutability": "view",
      "type": "function"
    },
    {
      "inputs": [
        {
          "internalType": "uint256",
          "name": "id",
          "type": "uint256"
        }
      ],
      "name": "getStat2",
      "outputs": [
        {
          "internalType": "uint16",
          "name": "",
          "type": "uint16"
        }
      ],
      "stateMutability": "view",
      "type": "function"
    },
    {
      "inputs": [
        {
          "internalType": "uint256",
          "name": "id",
          "type": "uint256"
        }
      ],
      "name": "getStat3",
      "outputs": [
        {
          "internalType": "uint16",
          "name": "",
          "type": "uint16"
        }
      ],
      "stateMutability": "view",
      "type": "function"
    },
    {
      "inputs": [
        {
          "internalType": "uint256",
          "name": "id",
          "type": "uint256"
        }
      ],
      "name": "getPowerMultiplier",
      "outputs": [
        {
          "internalType": "int128",
          "name": "",
          "type": "int128"
        }
      ],
      "stateMutability": "view",
      "type": "function"
    },
    {
      "inputs": [
        {
          "internalType": "uint16",
          "name": "properties",
          "type": "uint16"
        },
        {
          "internalType": "uint16",
          "name": "stat1",
          "type": "uint16"
        },
        {
          "internalType": "uint16",
          "name": "stat2",
          "type": "uint16"
        },
        {
          "internalType": "uint16",
          "name": "stat3",
          "type": "uint16"
        },
        {
          "internalType": "uint8",
          "name": "trait",
          "type": "uint8"
        }
      ],
      "name": "getPowerMultiplierForTrait",
      "outputs": [
        {
          "internalType": "int128",
          "name": "",
          "type": "int128"
        }
      ],
      "stateMutability": "view",
      "type": "function"
    },
    {
      "inputs": [
        {
          "internalType": "address",
          "name": "playerAddress",
          "type": "address"
        }
      ],
      "name": "getDustSupplies",
      "outputs": [
        {
          "internalType": "uint32[]",
          "name": "",
          "type": "uint32[]"
        }
      ],
      "stateMutability": "view",
      "type": "function"
    },
    {
      "inputs": [
        {
          "internalType": "uint256",
          "name": "burnID",
          "type": "uint256"
        }
      ],
      "name": "_calculateBurnValues",
      "outputs": [
        {
          "internalType": "uint8[]",
          "name": "",
          "type": "uint8[]"
        }
      ],
      "stateMutability": "view",
      "type": "function"
    },
    {
      "inputs": [
        {
          "internalType": "uint256",
          "name": "burnID",
          "type": "uint256"
        }
      ],
      "name": "burn",
      "outputs": [],
      "stateMutability": "nonpayable",
      "type": "function"
    },
    {
      "inputs": [
        {
          "internalType": "uint256",
          "name": "reforgeID",
          "type": "uint256"
        },
        {
          "internalType": "uint256",
          "name": "burnID",
          "type": "uint256"
        }
      ],
      "name": "reforge",
      "outputs": [],
      "stateMutability": "nonpayable",
      "type": "function"
    },
    {
      "inputs": [
        {
          "internalType": "uint256",
          "name": "reforgeID",
          "type": "uint256"
        },
        {
          "internalType": "uint8",
          "name": "amountLB",
          "type": "uint8"
        },
        {
          "internalType": "uint8",
          "name": "amount4B",
          "type": "uint8"
        },
        {
          "internalType": "uint8",
          "name": "amount5B",
          "type": "uint8"
        }
      ],
      "name": "reforgeWithDust",
      "outputs": [],
      "stateMutability": "nonpayable",
      "type": "function"
    },
    {
      "inputs": [
        {
          "internalType": "uint256",
          "name": "id",
          "type": "uint256"
        }
      ],
      "name": "getBonusPower",
      "outputs": [
        {
          "internalType": "uint24",
          "name": "",
          "type": "uint24"
        }
      ],
      "stateMutability": "view",
      "type": "function"
    },
    {
      "inputs": [
        {
          "internalType": "uint256",
          "name": "id",
          "type": "uint256"
        },
        {
          "internalType": "uint8",
          "name": "level",
          "type": "uint8"
        }
      ],
      "name": "getBonusPowerForFight",
      "outputs": [
        {
          "internalType": "uint24",
          "name": "",
          "type": "uint24"
        }
      ],
      "stateMutability": "view",
      "type": "function"
    },
    {
      "inputs": [
        {
          "internalType": "uint256",
          "name": "id",
          "type": "uint256"
        },
        {
          "internalType": "uint8",
          "name": "charTrait",
          "type": "uint8"
        }
      ],
      "name": "getFightData",
      "outputs": [
        {
          "internalType": "int128",
          "name": "",
          "type": "int128"
        },
        {
          "internalType": "int128",
          "name": "",
          "type": "int128"
        },
        {
          "internalType": "uint24",
          "name": "",
          "type": "uint24"
        },
        {
          "internalType": "uint8",
          "name": "",
          "type": "uint8"
        }
      ],
      "stateMutability": "view",
      "type": "function"
    },
    {
      "inputs": [
        {
          "internalType": "uint256",
          "name": "id",
          "type": "uint256"
        },
        {
          "internalType": "uint8",
          "name": "amount",
          "type": "uint8"
        }
      ],
      "name": "drainDurability",
      "outputs": [],
      "stateMutability": "nonpayable",
      "type": "function"
    },
    {
      "inputs": [
        {
          "internalType": "uint256",
          "name": "multiplier",
          "type": "uint256"
        }
      ],
      "name": "setBurnPointMultiplier",
      "outputs": [],
      "stateMutability": "nonpayable",
      "type": "function"
    },
    {
      "inputs": [
        {
          "internalType": "uint256",
          "name": "powerPerBurnPoint",
          "type": "uint256"
        }
      ],
      "name": "setLowStarBurnPowerPerPoint",
      "outputs": [],
      "stateMutability": "nonpayable",
      "type": "function"
    },
    {
      "inputs": [
        {
          "internalType": "uint256",
          "name": "powerPerBurnPoint",
          "type": "uint256"
        }
      ],
      "name": "setFourStarBurnPowerPerPoint",
      "outputs": [],
      "stateMutability": "nonpayable",
      "type": "function"
    },
    {
      "inputs": [
        {
          "internalType": "uint256",
          "name": "powerPerBurnPoint",
          "type": "uint256"
        }
      ],
      "name": "setFiveStarBurnPowerPerPoint",
      "outputs": [],
      "stateMutability": "nonpayable",
      "type": "function"
    },
    {
      "inputs": [
        {
          "internalType": "uint256",
          "name": "id",
          "type": "uint256"
        }
      ],
      "name": "getDurabilityTimestamp",
      "outputs": [
        {
          "internalType": "uint64",
          "name": "",
          "type": "uint64"
        }
      ],
      "stateMutability": "view",
      "type": "function"
    },
    {
      "inputs": [
        {
          "internalType": "uint256",
          "name": "id",
          "type": "uint256"
        },
        {
          "internalType": "uint64",
          "name": "timestamp",
          "type": "uint64"
        }
      ],
      "name": "setDurabilityTimestamp",
      "outputs": [],
      "stateMutability": "nonpayable",
      "type": "function"
    },
    {
      "inputs": [
        {
          "internalType": "uint256",
          "name": "id",
          "type": "uint256"
        }
      ],
      "name": "getDurabilityPoints",
      "outputs": [
        {
          "internalType": "uint8",
          "name": "",
          "type": "uint8"
        }
      ],
      "stateMutability": "view",
      "type": "function"
    },
    {
      "inputs": [
        {
          "internalType": "uint64",
          "name": "timestamp",
          "type": "uint64"
        }
      ],
      "name": "getDurabilityPointsFromTimestamp",
      "outputs": [
        {
          "internalType": "uint8",
          "name": "",
          "type": "uint8"
        }
      ],
      "stateMutability": "view",
      "type": "function"
    },
    {
      "inputs": [
        {
          "internalType": "uint256",
          "name": "id",
          "type": "uint256"
        }
      ],
      "name": "isDurabilityFull",
      "outputs": [
        {
          "internalType": "bool",
          "name": "",
          "type": "bool"
        }
      ],
      "stateMutability": "view",
      "type": "function"
    },
    {
      "inputs": [],
      "name": "getDurabilityMaxWait",
      "outputs": [
        {
          "internalType": "uint64",
          "name": "",
          "type": "uint64"
        }
      ],
      "stateMutability": "pure",
      "type": "function"
    }
  ],
  "bytecode": "0x608060405234801561001057600080fd5b5061590380620000216000396000f3fe608060405234801561001057600080fd5b50600436106104cd5760003560e01c8063752fde9e11610283578063ae5d498e1161015c578063d58227c8116100ce578063e8d5fe4411610092578063e8d5fe44146110aa578063e985e9c5146110fa578063ecd4738b14611128578063f8e678a714611154578063fa9b6e871461115c578063fa9e839814611179576104cd565b8063d58227c814610fcc578063d9514cb314611029578063dfd3712914611046578063e06efad814611067578063e076088614611084576104cd565b8063c6a5108811610120578063c6a5108814610edb578063c87b56dd14610efb578063ca15c87314610f18578063cd69289614610f35578063ce20b64214610f5b578063d547741f14610fa0576104cd565b8063ae5d498e14610d7e578063b88d4fde14610db3578063c366620b14610e77578063c394f9db14610e9b578063c47efcf614610ed3576104cd565b806395d06a0f116101f5578063a217fddf116101b9578063a217fddf14610ce0578063a22cb46514610ce8578063a3b5ccb114610d16578063aa66377714610d3c578063acb586df14610d44578063adf04f2014610d61576104cd565b806395d06a0f14610c6f57806395d89b4114610c905780639abcafef14610c985780639d7c828b14610cbb578063a1570c8e14610cd8576104cd565b80638c7f7242116102475780638c7f724214610b3d5780638d1d1de414610b455780639010d07c14610b6257806390e4e06c14610b8557806391d1485414610bb75780639507d39a14610be3576104cd565b8063752fde9e14610a805780637d1a789414610a8857806380aa68cd14610af55780638129fc1c14610b1857806386481d4014610b20576104cd565b8063308bdc6f116103b55780634c0647f611610327578063586064f3116102eb578063586064f314610a1d5780636352211e14610a255780636a4d521d14610a425780636c0360eb14610a4a57806370a0823114610a525780637294510014610a78576104cd565b80634c0647f6146109b35780634f6ccce7146109bb5780634fbff6a2146109d857806352bc59ea146109f85780635504d3d214610a15576104cd565b80633e68b604116103795780633e68b604146108d85780633f5e61801461090f57806340c10f191461091757806342842e0e1461094357806342966c68146109795780634b14027714610996576104cd565b8063308bdc6f14610862578063316a7ba51461087f57806333ee5a531461089c578063350b7995146108a457806336568abe146108ac576104cd565b80631b8ca2171161044e5780632a716b3c116104125780632a716b3c146107875780632a9f22f2146107a45780632c3048a2146107c15780632c3fc619146107de5780632f2ff15d1461080a5780632f745c5914610836576104cd565b80631b8ca217146106c657806323b872dd146106fa578063248a9ca31461073057806324f7bb1b1461074d57806327cd91de1461076a576104cd565b8063095ea7b311610495578063095ea7b3146106035780630a583a931461062f5780630a724cff1461066657806316f1daf61461068657806318160ddd146106ac576104cd565b806301ffc9a7146104d2578063064187781461050d57806306fdde0314610517578063081812fc14610594578063083659eb146105cd575b600080fd5b6104f9600480360360208110156104e857600080fd5b50356001600160e01b031916611196565b604080519115158252519081900360200190f35b6105156111b9565b005b61051f6112f1565b6040805160208082528351818301528351919283929083019185019080838360005b83811015610559578181015183820152602001610541565b50505050905090810190601f1680156105865780820380516001836020036101000a031916815260200191505b509250505060405180910390f35b6105b1600480360360208110156105aa57600080fd5b5035611388565b604080516001600160a01b039092168252519081900360200190f35b6105ea600480360360208110156105e357600080fd5b50356113ea565b60408051600f92830b90920b8252519081900360200190f35b6105156004803603604081101561061957600080fd5b506001600160a01b038135169060200135611505565b6106506004803603602081101561064557600080fd5b503561ffff166115e0565b6040805160ff9092168252519081900360200190f35b6106506004803603602081101561067c57600080fd5b503560ff166115e6565b6106506004803603602081101561069c57600080fd5b50356001600160401b0316611606565b6106b4611644565b60408051918252519081900360200190f35b6106e3600480360360208110156106dc57600080fd5b5035611655565b6040805161ffff9092168252519081900360200190f35b6105156004803603606081101561071057600080fd5b506001600160a01b03813581169160208101359091169060400135611685565b6106b46004803603602081101561074657600080fd5b50356116dc565b6106506004803603602081101561076357600080fd5b50356116f1565b6106e36004803603602081101561078057600080fd5b5035611715565b6105156004803603602081101561079d57600080fd5b503561174c565b610650600480360360208110156107ba57600080fd5b5035611805565b6106e3600480360360208110156107d757600080fd5b5035611820565b610515600480360360408110156107f457600080fd5b50803590602001356001600160401b0316611856565b6105156004803603604081101561082057600080fd5b50803590602001356001600160a01b031661188d565b6106b46004803603604081101561084c57600080fd5b506001600160a01b0381351690602001356118f9565b6105156004803603602081101561087857600080fd5b5035611921565b6106e36004803603602081101561089557600080fd5b50356119ae565b6105ea6119fa565b6106b4611a0a565b610515600480360360408110156108c257600080fd5b50803590602001356001600160a01b0316611a10565b6106e3600480360360808110156108ee57600080fd5b5061ffff813581169160208101359091169060408101359060600135611a71565b610515611a9a565b6106b46004803603604081101561092d57600080fd5b506001600160a01b038135169060200135611af8565b6105156004803603606081101561095957600080fd5b506001600160a01b03813581169160208101359091169060400135611b69565b6105156004803603602081101561098f57600080fd5b5035611b84565b610515600480360360208110156109ac57600080fd5b5035611c97565b6106b4611d3a565b6106b4600480360360208110156109d157600080fd5b5035611d40565b610650600480360360208110156109ee57600080fd5b503560ff16611d5c565b61065060048036036020811015610a0e57600080fd5b5035611d6e565b6106b4611d8f565b6105ea611db1565b6105b160048036036020811015610a3b57600080fd5b5035611dba565b6106b4611de8565b61051f611e03565b6106b460048036036020811015610a6857600080fd5b50356001600160a01b0316611e64565b6106b4611ecc565b610515611ed2565b610aa560048036036020811015610a9e57600080fd5b5035611f2c565b60408051602080825283518183015283519192839290830191858101910280838360005b83811015610ae1578181015183820152602001610ac9565b505050509050019250505060405180910390f35b6106e360048036036040811015610b0b57600080fd5b50803590602001356120b3565b6105156120f5565b61065060048036036020811015610b3657600080fd5b50356121fa565b6106b4612230565b61051560048036036020811015610b5b57600080fd5b5035612236565b6105b160048036036040811015610b7857600080fd5b50803590602001356122c3565b6106b460048036036060811015610b9b57600080fd5b506001600160a01b0381351690602081013590604001356122e1565b6104f960048036036040811015610bcd57600080fd5b50803590602001356001600160a01b031661236b565b610c0060048036036020811015610bf957600080fd5b5035612389565b6040805161ffff9c8d1681529a8c1660208c0152988b168a8a015296909916606089015260ff948516608089015292841660a088015290831660c0870152821660e08601521661010084015262ffffff9384166101208401529092166101408201529051908190036101600190f35b61065060048036036020811015610c8557600080fd5b503561ffff166123d3565b61051f6123dc565b61051560048036036040811015610cae57600080fd5b508035906020013561243d565b6106b460048036036020811015610cd157600080fd5b5035612521565b6106b4612533565b6106b4612539565b61051560048036036040811015610cfe57600080fd5b506001600160a01b038135169060200135151561253e565b610aa560048036036020811015610d2c57600080fd5b50356001600160a01b0316612643565b6105ea612707565b61065060048036036020811015610d5a57600080fd5b5035612710565b61065060048036036020811015610d7757600080fd5b503561272d565b610d9b60048036036020811015610d9457600080fd5b503561274a565b6040805162ffffff9092168252519081900360200190f35b61051560048036036080811015610dc957600080fd5b6001600160a01b03823581169260208101359091169160408201359190810190608081016060820135600160201b811115610e0357600080fd5b820183602082011115610e1557600080fd5b803590602001918460018302840111600160201b83111715610e3657600080fd5b91908080601f01602080910402602001604051908101604052809392919081815260200183838082843760009201919091525092955061278c945050505050565b610e7f6127ea565b604080516001600160401b039092168252519081900360200190f35b61051560048036036080811015610eb157600080fd5b5080359060ff60208201358116916040810135821691606090910135166127f0565b6105ea6128d4565b61065060048036036020811015610ef157600080fd5b503560ff166128e4565b61051f60048036036020811015610f1157600080fd5b50356128f1565b6106b460048036036020811015610f2e57600080fd5b5035612b74565b610d9b60048036036040811015610f4b57600080fd5b508035906020013560ff16612b8b565b6105ea600480360360a0811015610f7157600080fd5b50803561ffff90811691602081013582169160408201358116916060810135909116906080013560ff16612c16565b61051560048036036040811015610fb657600080fd5b50803590602001356001600160a01b0316612df2565b610ff260048036036040811015610fe257600080fd5b508035906020013560ff16612e4b565b60408051600f95860b860b815293850b90940b602084015262ffffff9091168284015260ff16606082015290519081900360800190f35b610e7f6004803603602081101561103f57600080fd5b5035612f2c565b6106506004803603602081101561105c57600080fd5b503561ffff16612f47565b6106e36004803603602081101561107d57600080fd5b5035612f50565b6105156004803603604081101561109a57600080fd5b508035906020013560ff16612f87565b6106b4600480360360c08110156110c057600080fd5b506001600160a01b038135169061ffff60208201358116916040810135821691606082013581169160808101359091169060a0013561309a565b6104f96004803603604081101561111057600080fd5b506001600160a01b03813581169160200135166132b9565b6106506004803603606081101561113e57600080fd5b508035906020810135906040013560ff166132e7565b6106b46132fc565b6104f96004803603602081101561117257600080fd5b5035613301565b6106e36004803603602081101561118f57600080fd5b5035613319565b6001600160e01b0319811660009081526033602052604090205460ff165b919050565b6111c460003361236b565b611201576040805162461bcd60e51b81526020600482015260096024820152682737ba1030b236b4b760b91b604482015290519081900360640190fd5b61120b6001613344565b60d08054600f9290920b6001600160801b03166001600160801b031990921691909117905561123d6001610190613362565b60d060106101000a8154816001600160801b030219169083600f0b6001600160801b0316021790555061129261127560676064613362565b60d054600160801b9004600f90810b900b9063ffffffff61339916565b60d18054600f9290920b6001600160801b03166001600160801b03199092169190911790556112c6611275606b6064613362565b60d160106101000a8154816001600160801b030219169083600f0b6001600160801b03160217905550565b606a8054604080516020601f600260001961010060018816150201909516949094049384018190048102820181019092528281526060939092909183018282801561137d5780601f106113525761010080835404028352916020019161137d565b820191906000526020600020905b81548152906001019060200180831161136057829003601f168201915b505050505090505b90565b6000611393826133d0565b6113ce5760405162461bcd60e51b815260040180806020018281038252602c81526020018061573d602c913960400191505060405180910390fd5b506000908152606860205260409020546001600160a01b031690565b6000816113f6816133e3565b6113fe615399565b60c9848154811061140b57fe5b600091825260208083206040805160a081018252939091015461ffff8082168552620100008204811693850193909352600160201b8104831691840191909152600160301b81049091166060830152600160401b900460ff16608082015291506114786001610190613362565b905060006114a082611491856020015161ffff16613344565b600f0b9063ffffffff61339916565b905060006114b983611491866040015161ffff16613344565b905060006114d284611491876060015161ffff16613344565b90506114f9816114ea846114ea876114ea6001613344565b600f0b9063ffffffff61343c16565b98975050505050505050565b600061151082611dba565b9050806001600160a01b0316836001600160a01b031614156115635760405162461bcd60e51b81526004018080602001828103825260218152602001806157c16021913960400191505060405180910390fd5b806001600160a01b031661157561346f565b6001600160a01b0316148061159657506115968161159161346f565b6132b9565b6115d15760405162461bcd60e51b81526004018080602001828103825260388152602001806156206038913960400191505060405180910390fd5b6115db8383613473565b505050565b60071690565b600060056115f88360ff1660196134e1565b816115ff57fe5b0692915050565b600042826001600160401b03161115611621575060006111b4565b610bb86001600160401b038316420304601481111561163e575060145b92915050565b60006116506066613548565b905090565b600081611661816133e3565b60c9838154811061166e57fe5b60009182526020909120015461ffff169392505050565b61169661169061346f565b82613553565b6116d15760405162461bcd60e51b81526004018080602001828103825260318152602001806157e26031913960400191505060405180910390fd5b6115db8383836135ef565b60009081526097602052604090206002015490565b6000816116fd816133e3565b61170e61170984611655565b612f47565b9392505050565b600081611721816133e3565b60c9838154811061172e57fe5b600091825260209091200154600160301b900461ffff169392505050565b61175461374d565b60018110156117aa576040805162461bcd60e51b815260206004820152601b60248201527f4275726e506f696e744d756c7469706c69657220746f6f206c6f770000000000604482015290519081900360640190fd5b6005811115611800576040805162461bcd60e51b815260206004820152601c60248201527f4275726e506f696e744d756c7469706c69657220746f6f206869676800000000604482015290519081900360640190fd5b60cc55565b60006003821015611818575060016111b4565b506000190190565b60008161182c816133e3565b60c9838154811061183957fe5b60009182526020909120015462010000900461ffff169392505050565b61185e61374d565b600091825260d56020526040909120805467ffffffffffffffff19166001600160401b03909216919091179055565b6000828152609760205260409020600201546118b0906118ab61346f565b61236b565b6118eb5760405162461bcd60e51b815260040180806020018281038252602f81526020018061551e602f913960400191505060405180910390fd5b6118f582826137b8565b5050565b6001600160a01b038216600090815260656020526040812061170e908363ffffffff61382716565b61192961374d565b60198110156119695760405162461bcd60e51b81526004018080602001828103825260218152602001806158356021913960400191505060405180910390fd5b60238111156119a95760405162461bcd60e51b81526004018080602001828103825260228152602001806158136022913960400191505060405180910390fd5b60ce55565b6000816119bd575060046111b4565b81600114156119ce575060b46111b4565b81600214156119e057506101186111b4565b81600314156119f1575060c86111b4565b5061010c919050565b60d054600160801b9004600f0b81565b60ce5481565b611a1861346f565b6001600160a01b0316816001600160a01b031614611a675760405162461bcd60e51b815260040180806020018281038252602f81526020018061589f602f913960400191505060405180910390fd5b6118f58282613833565b6000611a8f8561ffff168561ffff16611a8a86866138a2565b6138ce565b90505b949350505050565b611aa560003361236b565b611ae2576040805162461bcd60e51b81526020600482015260096024820152682737ba1030b236b4b760b91b604482015290519081900360640190fd5b600260cc55600f60cd55601e60ce55603c60cf55565b6000611b0261374d565b6000606483066001811015611b1a5760049150611b55565b6006811015611b2c5760039150611b55565b6015811015611b3e5760029150611b55565b6038811015611b505760019150611b55565b600091505b611b608583866122e1565b95945050505050565b6115db8383836040518060200160405280600081525061278c565b611b8c61374d565b6060611b9782611f2c565b9050611bf2611ba583611dba565b82600081518110611bb257fe5b602002602001015160ff1683600181518110611bca57fe5b602002602001015160ff1684600281518110611be257fe5b602002602001015160ff16613938565b611bfb82613aa5565b611c54611c0783611dba565b82600081518110611c1457fe5b602002602001015160ff1683600181518110611c2c57fe5b602002602001015160ff1684600281518110611c4457fe5b602002602001015160ff16613b7e565b81611c5e83611dba565b6001600160a01b03167f696de425f79f4a40bc6d2122ca50507f0efbeabbff86a84871b7196ab8ea8df760405160405180910390a35050565b611c9f61374d565b600a811015611cf5576040805162461bcd60e51b815260206004820181905260248201527f4c6f77537461724275726e506f776572506572506f696e7420746f6f206c6f77604482015290519081900360640190fd5b6014811115611d355760405162461bcd60e51b81526004018080602001828103825260218152602001806156fb6021913960400191505060405180910390fd5b60cd55565b60cf5481565b600080611d5460668463ffffffff613c6916565b509392505050565b600060056115f88360ff1660056134e1565b600081815260d5602052604081205461163e906001600160401b0316611606565b604080516923a0a6a2afa0a226a4a760b11b8152905190819003600a01902081565b60d154600f0b81565b600061163e82604051806060016040528060298152602001615682602991396066919063ffffffff613c8516565b60405180602761587882396027019050604051809103902081565b606d8054604080516020601f600260001961010060018816150201909516949094049384018190048102820181019092528281526060939092909183018282801561137d5780601f106113525761010080835404028352916020019161137d565b60006001600160a01b038216611eab5760405162461bcd60e51b815260040180806020018281038252602a815260200180615658602a913960400191505060405180910390fd5b6001600160a01b038216600090815260656020526040902061163e90613548565b60cc5481565b611edd60003361236b565b611f1a576040805162461bcd60e51b81526020600482015260096024820152682737ba1030b236b4b760b91b604482015290519081900360640190fd5b611f2a63398b9a5d60e21b613c92565b565b6040805160038082526080820190925260609182919060208201838036833701905050600084815260cb6020526040902080549192509060029060ff908116600101160482600081518110611f7d57fe5b60ff928316602091820292909201015281546002916101009091048116600101160482600181518110611fac57fe5b60ff92831660209182029290920101528154600291620100009091048116600101160482600281518110611fdc57fe5b602002602001019060ff16908160ff1681525050600060c98581548110611fff57fe5b60009182526020822001805490925061201b9061ffff166115e0565b905060038160ff16101561205b578060010160ff1660cc54028460008151811061204157fe5b6020908102919091010180519190910160ff1690526120a9565b8060ff16600314156120775760cc548460018151811061204157fe5b8060ff16600414156120a95760cc548460028151811061209357fe5b6020908102919091010180519190910160ff1690525b5091949350505050565b600060056120c96000607c611a8a8660026138a2565b607f16901b60036120e260006003611a8a8760016138a2565b600316901b846007161717905092915050565b600054610100900460ff168061210e575061210e613d16565b8061211c575060005460ff16155b6121575760405162461bcd60e51b815260040180806020018281038252602e8152602001806156ab602e913960400191505060405180910390fd5b600054610100900460ff16158015612182576000805460ff1961ff0019909116610100171660011790555b6121d26040518060400160405280601381526020017221b93cb83a37a13630b232b9903bb2b0b837b760691b8152506040518060400160405280600381526020016243425760e81b815250613d27565b6121da613de4565b6121e56000336118eb565b80156121f7576000805461ff00191690555b50565b600081612206816133e3565b60c9838154811061221357fe5b600091825260209091200154600160401b900460ff169392505050565b610bb881565b61223e61374d565b602881101561227e5760405162461bcd60e51b81526004018080602001828103825260218152602001806155ff6021913960400191505060405180910390fd5b60508111156122be5760405162461bcd60e51b81526004018080602001828103825260228152602001806158566022913960400191505060405180910390fd5b60cf55565b600082815260976020526040812061170e908363ffffffff61382716565b60006122eb61374d565b6008831061232a5760405162461bcd60e51b81526004018080602001828103825260218152602001806154db6021913960400191505060405180910390fd5b60008060006123398686613e84565b9250925092506123608761234d88886120b3565b85858561235b8b60036138a2565b61309a565b979650505050505050565b600082815260976020526040812061170e908363ffffffff613f0c16565b60008060008060008060008060008060008b6123a4816133e3565b6123ad8d613f21565b9b509b509b509b509b509b509b509b509b509b509b505091939597999b90929496989a50565b600390811c1690565b606b8054604080516020601f600260001961010060018816150201909516949094049384018190048102820181019092528281526060939092909183018282801561137d5780601f106113525761010080835404028352916020019161137d565b61244561374d565b606061245082611f2c565b905061249a838260008151811061246357fe5b60200260200101518360018151811061247857fe5b60200260200101518460028151811061248d57fe5b6020026020010151613fdd565b6124a382613aa5565b600083815260cb6020526040902082846124bc81611dba565b83546040805160ff80841682526101008404811660208301526201000090930490921682820152516001600160a01b0392909216917fd1b1d9a936fc3409b20503a5fd66b94b1c2a8b4986d01def5b9ef60272896e3c9181900360600190a450505050565b60d26020526000908152604090205481565b60cd5481565b600081565b61254661346f565b6001600160a01b0316826001600160a01b031614156125ac576040805162461bcd60e51b815260206004820152601960248201527f4552433732313a20617070726f766520746f2063616c6c657200000000000000604482015290519081900360640190fd5b80606960006125b961346f565b6001600160a01b03908116825260208083019390935260409182016000908120918716808252919093529120805460ff1916921515929092179091556125fd61346f565b60408051841515815290516001600160a01b0392909216917f17307eab39ab6107e8899845ad3d59bd9653f200f220920489ca2b5937696c319181900360200190a35050565b6001600160a01b038116600090815260d6602052604090819020548151600380825260808201909352606092839190816020016020820280368337019050509050818160008151811061269257fe5b602002602001019063ffffffff16908163ffffffff1681525050602082901c816001815181106126be57fe5b602002602001019063ffffffff16908163ffffffff1681525050604082901c816002815181106126ea57fe5b63ffffffff90921660209283029190910190910152915050919050565b60d054600f0b81565b60008161271c816133e3565b61170e61272884611655565b6123d3565b600081612739816133e3565b61170e61274584611655565b6115e0565b600081612756816133e3565b600060c9848154811061276557fe5b906000526020600020019050611a92848260000160089054906101000a900460ff16612b8b565b61279d61279761346f565b83613553565b6127d85760405162461bcd60e51b81526004018080602001828103825260318152602001806157e26031913960400191505060405180910390fd5b6127e4848484846141c6565b50505050565b61ea6090565b6127f861374d565b61281561280485611dba565b8460ff168460ff168460ff16614218565b61282184848484613fdd565b61283e61282d85611dba565b8460ff168460ff168460ff1661436c565b600084815260cb602052604090208461285681611dba565b82546040805160ff808a16825280891660208301528088168284015280841660608301526101008404811660808301526201000090930490921660a0830152516001600160a01b0392909216917fd07aff3873e60e4df29e5f960d1422759a3ef9f5aa27eec562431cddcd9bba019181900360c00190a35050505050565b60d154600160801b9004600f0b81565b6000600560ff83166115ff565b60606128fc826133d0565b6129375760405162461bcd60e51b815260040180806020018281038252602f815260200180615792602f913960400191505060405180910390fd5b6000828152606c602090815260409182902080548351601f60026000196101006001861615020190931692909204918201849004840281018401909452808452606093928301828280156129cc5780601f106129a1576101008083540402835291602001916129cc565b820191906000526020600020905b8154815290600101906020018083116129af57829003601f168201915b5050505050905060606129dd611e03565b90508051600014156129f1575090506111b4565b815115612ab25780826040516020018083805190602001908083835b60208310612a2c5780518252601f199092019160209182019101612a0d565b51815160209384036101000a600019018019909216911617905285519190930192850191508083835b60208310612a745780518252601f199092019160209182019101612a55565b6001836020036101000a03801982511681845116808217855250505050505090500192505050604051602081830303815290604052925050506111b4565b80612abc85614414565b6040516020018083805190602001908083835b60208310612aee5780518252601f199092019160209182019101612acf565b51815160209384036101000a600019018019909216911617905285519190930192850191508083835b60208310612b365780518252601f199092019160209182019101612b17565b6001836020036101000a0380198251168184511680821785525050505050509050019250505060405160208183030381529060405292505050919050565b600081815260976020526040812061163e90613548565b600082612b97816133e3565b600084815260cb60205260409020611b60612bbc600f60ff871663ffffffff6144ee16565b825460cf54612c0a91612bd8919062010000900460ff166144ee565b845460ce54612c0a91612bf39190610100900460ff166144ee565b865460cd54612c0a9160ff1663ffffffff6144ee16565b9063ffffffff61454716565b600080612c2287612f47565b60d054909150600f0b60ff8416612c38836128e4565b60ff161415612c7b5760d154612c7490612c6390600160801b9004600f0b61149161ffff8b16613344565b600f83900b9063ffffffff61343c16565b9050612ccf565b612c84826128e4565b60ff1660041415612caa5760d154612c7490612c6390600f0b61149161ffff8b16613344565b60d054612ccc90612c6390600160801b9004600f0b61149161ffff8b16613344565b90505b8360ff16612cdc83611d5c565b60ff161415612d0e5760d154612d0790612c6390600160801b9004600f0b61149161ffff8a16613344565b9050612d62565b612d1782611d5c565b60ff1660041415612d3d5760d154612d0790612c6390600f0b61149161ffff8a16613344565b60d054612d5f90612c6390600160801b9004600f0b61149161ffff8a16613344565b90505b8360ff16612d6f836115e6565b60ff161415612da15760d154612d9a90612c6390600160801b9004600f0b61149161ffff8916613344565b9050612360565b612daa826115e6565b60ff1660041415612dd05760d154612d9a90612c6390600f0b61149161ffff8916613344565b60d0546114f990612c6390600160801b9004600f0b61149161ffff8916613344565b600082815260976020526040902060020154612e10906118ab61346f565b611a675760405162461bcd60e51b81526004018080602001828103825260308152602001806155cf6030913960400191505060405180910390fd5b60008060008085612e5b816133e3565b600060c98881548110612e6a57fe5b60009182526020909120018054909150612ec690612eb0906112759062010000810461ffff908116600160201b8304821601600160301b90920481169190910116613344565b60d054600f90810b900b9063ffffffff61343c16565b8154612ef49061ffff80821691620100008104821691600160201b8204811691600160301b9004168c612c16565b8254612f0b908b90600160401b900460ff16612b8b565b8354612f1a9061ffff166123d3565b929b919a509850909650945050505050565b600090815260d560205260409020546001600160401b031690565b60051c607f1690565b600081612f5c816133e3565b60c98381548110612f6957fe5b600091825260209091200154600160201b900461ffff169392505050565b612f8f61374d565b600082815260d56020526040812054612fb0906001600160401b0316611606565b90508160ff168160ff161015613006576040805162461bcd60e51b81526020600482015260166024820152754e6f7420656e6f756768206475726162696c6974792160501b604482015290519081900360640190fd5b60ff808316610bb8029060149083161061306657806001600160401b031661302c6127ea565b600086815260d560205260409020805467ffffffffffffffff19166001600160401b039283164203939093019091169190911790556127e4565b600084815260d56020526040902080546001600160401b0380821684011667ffffffffffffffff1990911617905550505050565b60006130a461374d565b60c95460d35443146130b65760d48190555b4360d3556040805160a08101825261ffff898116825288811660208084019182528983168486019081528984166060860190815260006080870181815260c980546001808201835591845298517f66be4f155c5ef2ebd3772b228f2f00681e4ed5826cdb3b1943cc11ad15ad1d289099018054975195519451925161ffff199098169989169990991763ffff0000191662010000958916959095029490941765ffff000000001916600160201b938816939093029290921767ffff0000000000001916600160301b92909616919091029490941768ff00000000000000001916600160401b60ff94851602179094558451808601909552828552840187815260ca8054948501815590925292517f42d72674974f694b5f5159593243114d38a5c39c89d6b62fee061ff523240ee16002909302928301805460ff1916919094161790925590517f42d72674974f694b5f5159593243114d38a5c39c89d6b62fee061ff523240ee29091015561322b88826145a1565b61324c6132366127ea565b42906001600160401b031663ffffffff6146db16565b600082815260d56020526040808220805467ffffffffffffffff19166001600160401b03949094169390931790925590516001600160a01b038a169183917fa90298fff9b7c2ea259d17bcbd0821ef6fe7d48b4f8fd9380d54ae299ee730449190a3979650505050505050565b6001600160a01b03918216600090815260696020908152604080832093909416825291909152205460ff1690565b6000611a9260008360ff16611a8a87876138a2565b601481565b6000601461330e83611d6e565b60ff16101592915050565b6000600182111561332d57506101906111b4565b811561333c575061012c6111b4565b5060c8919050565b6000677fffffffffffffff82111561335b57600080fd5b5060401b90565b60008161336e57600080fd5b600061337a8484614738565b905060016001607f1b036001600160801b038216111561170e57600080fd5b6000600f83810b9083900b0260401d60016001607f1b031981128015906133c7575060016001607f1b038113155b61170e57600080fd5b600061163e60668363ffffffff61488116565b60d4548110806133f457504360d354105b6121f7576040805162461bcd60e51b81526020600482015260146024820152730546f6f20667265736820666f72206c6f6f6b75760641b604482015290519081900360640190fd5b6000600f83810b9083900b0160016001607f1b031981128015906133c7575060016001607f1b0381131561170e57600080fd5b3390565b600081815260686020526040902080546001600160a01b0319166001600160a01b03841690811790915581906134a882611dba565b6001600160a01b03167f8c5be1e5ebec7d5bd14f71427d1e84f3dd0314c0f7b2291e5b200ac8c7c3b92560405160405180910390a45050565b6000808211613537576040805162461bcd60e51b815260206004820152601a60248201527f536166654d6174683a206469766973696f6e206279207a65726f000000000000604482015290519081900360640190fd5b81838161354057fe5b049392505050565b600061163e8261488d565b600061355e826133d0565b6135995760405162461bcd60e51b815260040180806020018281038252602c8152602001806155a3602c913960400191505060405180910390fd5b60006135a483611dba565b9050806001600160a01b0316846001600160a01b031614806135df5750836001600160a01b03166135d484611388565b6001600160a01b0316145b80611a925750611a9281856132b9565b826001600160a01b031661360282611dba565b6001600160a01b0316146136475760405162461bcd60e51b81526004018080602001828103825260298152602001806157696029913960400191505060405180910390fd5b6001600160a01b03821661368c5760405162461bcd60e51b815260040180806020018281038252602481526020018061557f6024913960400191505060405180910390fd5b6136978383836115db565b6136a2600082613473565b6001600160a01b03831660009081526065602052604090206136ca908263ffffffff61489116565b506001600160a01b03821660009081526065602052604090206136f3908263ffffffff61489d16565b506137066066828463ffffffff6148a916565b5080826001600160a01b0316846001600160a01b03167fddf252ad1be2c89b69c2b068fc378daa952ba7f163c4a11628f55a4df523b3ef60405160405180910390a4505050565b604080516923a0a6a2afa0a226a4a760b11b8152905190819003600a019020613776903361236b565b611f2a576040805162461bcd60e51b815260206004820152600e60248201526d2737ba1033b0b6b29030b236b4b760911b604482015290519081900360640190fd5b60008281526097602052604090206137d6908263ffffffff6148bf16565b156118f5576137e361346f565b6001600160a01b0316816001600160a01b0316837f2f8788117e7eff1d82e926ec794901d17c78024a50270940304540a733656f0d60405160405180910390a45050565b600061170e83836148d4565b6000828152609760205260409020613851908263ffffffff61493816565b156118f55761385e61346f565b6001600160a01b0316816001600160a01b0316837ff6391f5c32d9c69d2a47ea670b442974b53935d1edc7fd64eb21e047a839171b60405160405180910390a45050565b604080516020808201949094528082019290925280518083038201815260609092019052805191012090565b6000806138e66001612c0a868863ffffffff6146db16565b604080516020808201879052825180830382018152918301909252805191012090915060009061391c908363ffffffff61494d16565b905061392e818763ffffffff61454716565b9695505050505050565b606061394385612643565b905063ffffffff8463ffffffff168260008151811061395e57fe5b602002602001015163ffffffff160110156139b8576040805162461bcd60e51b8152602060048201526015602482015274111d5cdd081310881cdd5c1c1b1e4818d85c1c1959605a1b604482015290519081900360640190fd5b63ffffffff8363ffffffff16826001815181106139d157fe5b602002602001015163ffffffff16011015613a2b576040805162461bcd60e51b8152602060048201526015602482015274111d5cdd080d10881cdd5c1c1b1e4818d85c1c1959605a1b604482015290519081900360640190fd5b63ffffffff8263ffffffff1682600281518110613a4457fe5b602002602001015163ffffffff16011015613a9e576040805162461bcd60e51b8152602060048201526015602482015274111d5cdd080d50881cdd5c1c1b1e4818d85c1c1959605a1b604482015290519081900360640190fd5b5050505050565b6000613ab082611dba565b9050613abe816000846115db565b613ac9600083613473565b6000828152606c60205260409020546002600019610100600184161502019091160415613b07576000828152606c60205260408120613b07916153c7565b6001600160a01b0381166000908152606560205260409020613b2f908363ffffffff61489116565b50613b4160668363ffffffff6149b416565b5060405182906000906001600160a01b038416907fddf252ad1be2c89b69c2b068fc378daa952ba7f163c4a11628f55a4df523b3ef908390a45050565b613b8a84848484613938565b6060613b9585612643565b90508381600081518110613ba557fe5b602002602001018181510191509063ffffffff16908163ffffffff16815250508281600181518110613bd357fe5b602002602001018181510191509063ffffffff16908163ffffffff16815250508181600281518110613c0157fe5b602002602001018181510191509063ffffffff16908163ffffffff1681525050613a9e8582600081518110613c3257fe5b602002602001015183600181518110613c4757fe5b602002602001015184600281518110613c5c57fe5b60200260200101516149c0565b6000808080613c788686614a10565b9097909650945050505050565b6000611a92848484614a8b565b6001600160e01b03198082161415613cf1576040805162461bcd60e51b815260206004820152601c60248201527f4552433136353a20696e76616c696420696e7465726661636520696400000000604482015290519081900360640190fd5b6001600160e01b0319166000908152603360205260409020805460ff19166001179055565b6000613d2130614b55565b15905090565b600054610100900460ff1680613d405750613d40613d16565b80613d4e575060005460ff16155b613d895760405162461bcd60e51b815260040180806020018281038252602e8152602001806156ab602e913960400191505060405180910390fd5b600054610100900460ff16158015613db4576000805460ff1961ff0019909116610100171660011790555b613dbc613de4565b613dc4614b5b565b613dce8383614bf8565b80156115db576000805461ff0019169055505050565b600054610100900460ff1680613dfd5750613dfd613d16565b80613e0b575060005460ff16155b613e465760405162461bcd60e51b815260040180806020018281038252602e8152602001806156ab602e913960400191505060405180910390fd5b600054610100900460ff161580156121e5576000805460ff1961ff00199091166101001716600117905580156121f7576000805461ff001916905550565b600080600080613e93866119ae565b90506000613ea087613319565b90506000613ead88611805565b90506000613ebe84848a6005611a71565b9050600080600160ff85161115613edf57613edc86868c6003611a71565b91505b60028460ff161115613efb57613ef886868c6004611a71565b90505b919750955093505050509250925092565b600061170e836001600160a01b038416614cdd565b6000806000806000806000806000806000613f3b8c614cf5565b939e50919c509a5098509650613f508c614d87565b92985090965094509250613f6261540b565b5060008c815260cb60209081526040918290208251606081018452905460ff808216808452610100830480831695850195909552620100009092049081169483019490945260109390931b62ff00001660089290921b61ff0016909217179250613fcb8d61274a565b91505091939597999b90929496989a50565b600084815260cb6020526040902060ff84161561404f578054606460ff9091161061404f576040805162461bcd60e51b815260206004820152601f60248201527f4c6f772073746172206275726e20706f696e7473206172652063617070656400604482015290519081900360640190fd5b60ff8316156140b7578054601961010090910460ff16106140b7576040805162461bcd60e51b815260206004820181905260248201527f466f75722073746172206275726e20706f696e74732061726520636170706564604482015290519081900360640190fd5b60ff821615614120578054600a6201000090910460ff1610614120576040805162461bcd60e51b815260206004820181905260248201527f466976652073746172206275726e20706f696e74732061726520636170706564604482015290519081900360640190fd5b805462ff00001961ff001960ff19831660ff9384168801841617908116610100918290048416870184169091021790811662010000918290048316850183169091021780835560649116111561417c57805460ff191660641781555b8054601961010090910460ff16111561419d57805461ff0019166119001781555b8054600a6201000090910460ff161115613a9e57805462ff00001916620a000017905550505050565b6141d18484846135ef565b6141dd84848484614e22565b6127e45760405162461bcd60e51b815260040180806020018281038252603281526020018061554d6032913960400191505060405180910390fd5b606061422385612643565b90508363ffffffff168160008151811061423957fe5b602002602001015163ffffffff161015614292576040805162461bcd60e51b8152602060048201526015602482015274111d5cdd081310881cdd5c1c1b1e481b9959591959605a1b604482015290519081900360640190fd5b8263ffffffff16816001815181106142a657fe5b602002602001015163ffffffff1610156142ff576040805162461bcd60e51b8152602060048201526015602482015274111d5cdd080d10881cdd5c1c1b1e481b9959591959605a1b604482015290519081900360640190fd5b8163ffffffff168160028151811061431357fe5b602002602001015163ffffffff161015613a9e576040805162461bcd60e51b8152602060048201526015602482015274111d5cdd080d50881cdd5c1c1b1e481b9959591959605a1b604482015290519081900360640190fd5b606061437785612643565b9050838160008151811061438757fe5b602002602001018181510391509063ffffffff16908163ffffffff168152505082816001815181106143b557fe5b602002602001018181510391509063ffffffff16908163ffffffff168152505081816002815181106143e357fe5b602002602001018181510391509063ffffffff16908163ffffffff1681525050613a9e8582600081518110613c3257fe5b60608161443957506040805180820190915260018152600360fc1b60208201526111b4565b8160005b811561445157600101600a8204915061443d565b6060816001600160401b038111801561446957600080fd5b506040519080825280601f01601f191660200182016040528015614494576020820181803683370190505b50859350905060001982015b83156144e557600a840660300160f81b828280600190039350815181106144c357fe5b60200101906001600160f81b031916908160001a905350600a840493506144a0565b50949350505050565b6000826144fd5750600061163e565b8282028284828161450a57fe5b041461170e5760405162461bcd60e51b815260040180806020018281038252602181526020018061571c6021913960400191505060405180910390fd5b60008282018381101561170e576040805162461bcd60e51b815260206004820152601b60248201527f536166654d6174683a206164646974696f6e206f766572666c6f770000000000604482015290519081900360640190fd5b6001600160a01b0382166145fc576040805162461bcd60e51b815260206004820181905260248201527f4552433732313a206d696e7420746f20746865207a65726f2061646472657373604482015290519081900360640190fd5b614605816133d0565b15614657576040805162461bcd60e51b815260206004820152601c60248201527f4552433732313a20746f6b656e20616c7265616479206d696e74656400000000604482015290519081900360640190fd5b614663600083836115db565b6001600160a01b038216600090815260656020526040902061468b908263ffffffff61489d16565b5061469e6066828463ffffffff6148a916565b5060405181906001600160a01b038416906000907fddf252ad1be2c89b69c2b068fc378daa952ba7f163c4a11628f55a4df523b3ef908290a45050565b600082821115614732576040805162461bcd60e51b815260206004820152601e60248201527f536166654d6174683a207375627472616374696f6e206f766572666c6f770000604482015290519081900360640190fd5b50900390565b60008161474457600080fd5b60006001600160c01b0384116147695782604085901b8161476157fe5b04905061486d565b60c084811c600160201b8110614781576020918201911c5b620100008110614793576010918201911c5b61010081106147a4576008918201911c5b601081106147b4576004918201911c5b600481106147c4576002918201911c5b600281106147d3576001820191505b60bf820360018603901c6001018260ff0387901b816147ee57fe5b0492506001600160801b0383111561480557600080fd5b608085901c83026001600160801b038616840260c088901c604089901b82811015614831576001820391505b608084901b92900382811015614848576001820391505b829003608084901c821461485857fe5b88818161486157fe5b04870196505050505050505b6001600160801b0381111561170e57600080fd5b600061170e8383614cdd565b5490565b600061170e8383614fa2565b600061170e8383615068565b6000611a9284846001600160a01b0385166150b2565b600061170e836001600160a01b038416615068565b815460009082106149165760405162461bcd60e51b81526004018080602001828103825260228152602001806154fc6022913960400191505060405180910390fd5b82600001828154811061492557fe5b9060005260206000200154905092915050565b600061170e836001600160a01b038416614fa2565b60008082116149a3576040805162461bcd60e51b815260206004820152601860248201527f536166654d6174683a206d6f64756c6f206279207a65726f0000000000000000604482015290519081900360640190fd5b8183816149ac57fe5b069392505050565b600061170e8383615149565b6001600160a01b0393909316600090815260d6602090815260409182902063ffffffff9390911b67ffffffff00000000169490911b6bffffffff0000000000000000169390930191909101169055565b815460009081908310614a545760405162461bcd60e51b81526004018080602001828103825260228152602001806156d96022913960400191505060405180910390fd5b6000846000018481548110614a6557fe5b906000526020600020906002020190508060000154816001015492509250509250929050565b60008281526001840160205260408120548281614b265760405162461bcd60e51b81526004018080602001828103825283818151815260200191508051906020019080838360005b83811015614aeb578181015183820152602001614ad3565b50505050905090810190601f168015614b185780820380516001836020036101000a031916815260200191505b509250505060405180910390fd5b50846000016001820381548110614b3957fe5b9060005260206000209060020201600101549150509392505050565b3b151590565b600054610100900460ff1680614b745750614b74613d16565b80614b82575060005460ff16155b614bbd5760405162461bcd60e51b815260040180806020018281038252602e8152602001806156ab602e913960400191505060405180910390fd5b600054610100900460ff16158015614be8576000805460ff1961ff0019909116610100171660011790555b6121e56301ffc9a760e01b613c92565b600054610100900460ff1680614c115750614c11613d16565b80614c1f575060005460ff16155b614c5a5760405162461bcd60e51b815260040180806020018281038252602e8152602001806156ab602e913960400191505060405180910390fd5b600054610100900460ff16158015614c85576000805460ff1961ff0019909116610100171660011790555b8251614c9890606a90602086019061542b565b508151614cac90606b90602085019061542b565b50614cbd6380ac58cd60e01b613c92565b614ccd635b5e139f60e01b613c92565b613dce63780e9d6360e01b613c92565b60009081526001919091016020526040902054151590565b6000806000806000614d05615399565b60c98781548110614d1257fe5b60009182526020918290206040805160a081018252929091015461ffff8082168085526201000083048216958501869052600160201b83048216938501849052600160301b830490911660608501819052600160401b90920460ff1660809094018490529b939a509098509650945092505050565b600080600080614d956154a9565b60ca8681548110614da257fe5b600091825260209182902060408051808201909152600290920201805460ff168252600190810154928201839052909250614ddf919060186132e7565b9450614df28160200151600260186132e7565b9350614e058160200151600360186132e7565b9250614e188160200151600460186132e7565b9150509193509193565b6000614e36846001600160a01b0316614b55565b614e4257506001611a92565b6060614f68630a85bd0160e11b614e5761346f565b88878760405160240180856001600160a01b03166001600160a01b03168152602001846001600160a01b03166001600160a01b0316815260200183815260200180602001828103825283818151815260200191508051906020019080838360005b83811015614ed0578181015183820152602001614eb8565b50505050905090810190601f168015614efd5780820380516001836020036101000a031916815260200191505b5095505050505050604051602081830303815290604052906001600160e01b0319166020820180516001600160e01b03838183161783525050505060405180606001604052806032815260200161554d603291396001600160a01b038816919063ffffffff61521d16565b90506000818060200190516020811015614f8157600080fd5b50516001600160e01b031916630a85bd0160e11b1492505050949350505050565b6000818152600183016020526040812054801561505e5783546000198083019190810190600090879083908110614fd557fe5b9060005260206000200154905080876000018481548110614ff257fe5b60009182526020808320909101929092558281526001898101909252604090209084019055865487908061502257fe5b6001900381819060005260206000200160009055905586600101600087815260200190815260200160002060009055600194505050505061163e565b600091505061163e565b60006150748383614cdd565b6150aa5750815460018181018455600084815260208082209093018490558454848252828601909352604090209190915561163e565b50600061163e565b60008281526001840160205260408120548061511757505060408051808201825283815260208082018481528654600181810189556000898152848120955160029093029095019182559151908201558654868452818801909252929091205561170e565b8285600001600183038154811061512a57fe5b906000526020600020906002020160010181905550600091505061170e565b6000818152600183016020526040812054801561505e578354600019808301919081019060009087908390811061517c57fe5b906000526020600020906002020190508087600001848154811061519c57fe5b6000918252602080832084546002909302019182556001938401549184019190915583548252898301905260409020908401905586548790806151db57fe5b600082815260208082206002600019909401938402018281556001908101839055929093558881528982019092526040822091909155945061163e9350505050565b6060611a9284846000858561523185614b55565b615282576040805162461bcd60e51b815260206004820152601d60248201527f416464726573733a2063616c6c20746f206e6f6e2d636f6e7472616374000000604482015290519081900360640190fd5b60006060866001600160a01b031685876040518082805190602001908083835b602083106152c15780518252601f1990920191602091820191016152a2565b6001836020036101000a03801982511681845116808217855250505050505090500191505060006040518083038185875af1925050503d8060008114615323576040519150601f19603f3d011682016040523d82523d6000602084013e615328565b606091505b50915091506123608282866060831561534257508161170e565b8251156153525782518084602001fd5b60405162461bcd60e51b8152602060048201818152845160248401528451859391928392604401919085019080838360008315614aeb578181015183820152602001614ad3565b6040805160a08101825260008082526020820181905291810182905260608101829052608081019190915290565b50805460018160011615610100020316600290046000825580601f106153ed57506121f7565b601f0160209004906000526020600020908101906121f791906154c0565b604080516060810182526000808252602082018190529181019190915290565b828054600181600116156101000203166002900490600052602060002090601f016020900481019282601f1061546c57805160ff1916838001178555615499565b82800160010185558215615499579182015b8281111561549957825182559160200191906001019061547e565b506154a59291506154c0565b5090565b604080518082019091526000808252602082015290565b61138591905b808211156154a557600081556001016154c656fe537461727320706172616d6574657220746f6f20686967682120286d6178203729456e756d657261626c655365743a20696e646578206f7574206f6620626f756e6473416363657373436f6e74726f6c3a2073656e646572206d75737420626520616e2061646d696e20746f206772616e744552433732313a207472616e7366657220746f206e6f6e20455243373231526563656976657220696d706c656d656e7465724552433732313a207472616e7366657220746f20746865207a65726f20616464726573734552433732313a206f70657261746f7220717565727920666f72206e6f6e6578697374656e7420746f6b656e416363657373436f6e74726f6c3a2073656e646572206d75737420626520616e2061646d696e20746f207265766f6b6546697665537461724275726e506f776572506572506f696e7420746f6f206c6f774552433732313a20617070726f76652063616c6c6572206973206e6f74206f776e6572206e6f7220617070726f76656420666f7220616c6c4552433732313a2062616c616e636520717565727920666f7220746865207a65726f20616464726573734552433732313a206f776e657220717565727920666f72206e6f6e6578697374656e7420746f6b656e496e697469616c697a61626c653a20636f6e747261637420697320616c726561647920696e697469616c697a6564456e756d657261626c654d61703a20696e646578206f7574206f6620626f756e64734c6f77537461724275726e506f776572506572506f696e7420746f6f2068696768536166654d6174683a206d756c7469706c69636174696f6e206f766572666c6f774552433732313a20617070726f76656420717565727920666f72206e6f6e6578697374656e7420746f6b656e4552433732313a207472616e73666572206f6620746f6b656e2074686174206973206e6f74206f776e4552433732314d657461646174613a2055524920717565727920666f72206e6f6e6578697374656e7420746f6b656e4552433732313a20617070726f76616c20746f2063757272656e74206f776e65724552433732313a207472616e736665722063616c6c6572206973206e6f74206f776e6572206e6f7220617070726f766564466f7572537461724275726e506f776572506572506f696e7420746f6f2068696768466f7572537461724275726e506f776572506572506f696e7420746f6f206c6f7746697665537461724275726e506f776572506572506f696e7420746f6f2068696768524543454956455f444f45535f4e4f545f5345545f5452414e534645525f54494d455354414d50416363657373436f6e74726f6c3a2063616e206f6e6c792072656e6f756e636520726f6c657320666f722073656c66a2646970667358221220ac9b0bcffeafd3ee2d228e0bb4aac766b1445b1679cc1dd642bf501649ac83cb64736f6c63430006050033",
  "immutableReferences": {},
  "source": "pragma solidity ^0.6.0;\r\n\r\nimport \"@openzeppelin/contracts-upgradeable/proxy/Initializable.sol\";\r\nimport \"@openzeppelin/contracts-upgradeable/token/ERC721/ERC721Upgradeable.sol\";\r\nimport \"@openzeppelin/contracts-upgradeable/access/AccessControlUpgradeable.sol\";\r\nimport \"@openzeppelin/contracts/math/SafeMath.sol\";\r\nimport \"abdk-libraries-solidity/ABDKMath64x64.sol\";\r\nimport \"./util.sol\";\r\n\r\ncontract Weapons is Initializable, ERC721Upgradeable, AccessControlUpgradeable {\r\n\r\n    using ABDKMath64x64 for int128;\r\n    using ABDKMath64x64 for uint16;\r\n\r\n    bytes32 public constant GAME_ADMIN = keccak256(\"GAME_ADMIN\");\r\n    bytes32 public constant RECEIVE_DOES_NOT_SET_TRANSFER_TIMESTAMP = keccak256(\"RECEIVE_DOES_NOT_SET_TRANSFER_TIMESTAMP\");\r\n\r\n    function initialize () public initializer {\r\n        __ERC721_init(\"CryptoBlades weapon\", \"CBW\");\r\n        __AccessControl_init_unchained();\r\n\r\n        _setupRole(DEFAULT_ADMIN_ROLE, msg.sender);\r\n    }\r\n\r\n    function migrateTo_e55d8c5() public {\r\n        require(hasRole(DEFAULT_ADMIN_ROLE, msg.sender), \"Not admin\");\r\n\r\n        burnPointMultiplier = 2;\r\n        lowStarBurnPowerPerPoint = 15;\r\n        fourStarBurnPowerPerPoint = 30;\r\n        fiveStarBurnPowerPerPoint = 60;\r\n    }\r\n\r\n    function migrateTo_aa9da90() public {\r\n        require(hasRole(DEFAULT_ADMIN_ROLE, msg.sender), \"Not admin\");\r\n\r\n        oneFrac = ABDKMath64x64.fromUInt(1);\r\n        powerMultPerPointBasic =  ABDKMath64x64.divu(1, 400);// 0.25%\r\n        powerMultPerPointPWR = powerMultPerPointBasic.mul(ABDKMath64x64.divu(103, 100)); // 0.2575% (+3%)\r\n        powerMultPerPointMatching = powerMultPerPointBasic.mul(ABDKMath64x64.divu(107, 100)); // 0.2675% (+7%)\r\n    }\r\n\r\n    function migrateTo_951a020() public {\r\n        require(hasRole(DEFAULT_ADMIN_ROLE, msg.sender), \"Not admin\");\r\n\r\n        // Apparently ERC165 interfaces cannot be removed in this version of the OpenZeppelin library.\r\n        // But if we remove the registration, then while local deployments would not register the interface ID,\r\n        // existing deployments on both testnet and mainnet would still be registered to handle it.\r\n        // That sort of inconsistency is a good way to attract bugs that only happens on some environments.\r\n        // Hence, we keep registering the interface despite not actually implementing the interface.\r\n        _registerInterface(0xe62e6974); // TransferCooldownableInterfaceId.interfaceId()\r\n    }\r\n\r\n    /*\r\n        visual numbers start at 0, increment values by 1\r\n        levels: 1-128\r\n        stars: 1-5 (1,2,3: primary only, 4: one secondary, 5: two secondaries)\r\n        traits: 0-3 [0(fire) > 1(earth) > 2(lightning) > 3(water) > repeat]\r\n        stats: STR(fire), DEX(earth), CHA(lightning), INT(water), PWR(traitless)\r\n        base stat rolls: 1*(1-50), 2*(45-75), 3*(70-100), 4*(50-100), 5*(66-100, main is 68-100)\r\n        burns: add level & main stat, and 50% chance to increase secondaries\r\n        power: each point contributes .25% to fight power\r\n        cosmetics: 0-255 but only 24 is used, may want to cap so future expansions dont change existing weps\r\n    */\r\n\r\n    struct Weapon {\r\n        uint16 properties; // right to left: 3b stars, 2b trait, 7b stat pattern, 4b EMPTY\r\n        // stats (each point refers to .25% improvement)\r\n        uint16 stat1;\r\n        uint16 stat2;\r\n        uint16 stat3;\r\n        uint8 level; // separate from stat1 because stat1 will have a pre-roll\r\n    }\r\n\r\n    struct WeaponBurnPoints {\r\n        uint8 lowStarBurnPoints;\r\n        uint8 fourStarBurnPoints;\r\n        uint8 fiveStarBurnPoints;\r\n    }\r\n\r\n    struct WeaponCosmetics {\r\n        uint8 version;\r\n        uint256 seed;\r\n    }\r\n\r\n    Weapon[] private tokens;\r\n    WeaponCosmetics[] private cosmetics;\r\n    mapping(uint256 => WeaponBurnPoints) burnPoints;\r\n\r\n    uint public burnPointMultiplier; // 2\r\n    uint public lowStarBurnPowerPerPoint; // 15\r\n    uint public fourStarBurnPowerPerPoint; // 30\r\n    uint public fiveStarBurnPowerPerPoint; // 60\r\n\r\n    int128 public oneFrac; // 1.0\r\n    int128 public powerMultPerPointBasic; // 0.25%\r\n    int128 public powerMultPerPointPWR; // 0.2575% (+3%)\r\n    int128 public powerMultPerPointMatching; // 0.2675% (+7%)\r\n\r\n    // UNUSED; KEPT FOR UPGRADEABILITY PROXY COMPATIBILITY\r\n    mapping(uint256 => uint256) public lastTransferTimestamp;\r\n\r\n    uint256 private lastMintedBlock;\r\n    uint256 private firstMintedOfLastBlock;\r\n\r\n    mapping(uint256 => uint64) durabilityTimestamp;\r\n\r\n    uint256 public constant maxDurability = 20;\r\n    uint256 public constant secondsPerDurability = 3000; //50 * 60\r\n\r\n    mapping(address => uint256) burnDust; // user address : burned item dust counts\r\n\r\n    event Burned(address indexed owner, uint256 indexed burned);\r\n    event NewWeapon(uint256 indexed weapon, address indexed minter);\r\n    event Reforged(address indexed owner, uint256 indexed reforged, uint256 indexed burned, uint8 lowPoints, uint8 fourPoints, uint8 fivePoints);\r\n    event ReforgedWithDust(address indexed owner, uint256 indexed reforged, uint8 lowDust, uint8 fourDust, uint8 fiveDust, uint8 lowPoints, uint8 fourPoints, uint8 fivePoints);\r\n\r\n    modifier restricted() {\r\n        _restricted();\r\n        _;\r\n    }\r\n\r\n    function _restricted() internal view {\r\n        require(hasRole(GAME_ADMIN, msg.sender), \"Not game admin\");\r\n    }\r\n\r\n    modifier noFreshLookup(uint256 id) {\r\n        _noFreshLookup(id);\r\n        _;\r\n    }\r\n\r\n    function _noFreshLookup(uint256 id) internal view {\r\n        require(id < firstMintedOfLastBlock || lastMintedBlock < block.number, \"Too fresh for lookup\");\r\n    }\r\n\r\n    function getStats(uint256 id) internal view\r\n        returns (uint16 _properties, uint16 _stat1, uint16 _stat2, uint16 _stat3, uint8 _level) {\r\n\r\n        Weapon memory w = tokens[id];\r\n        return (w.properties, w.stat1, w.stat2, w.stat3, w.level);\r\n    }\r\n\r\n    function getCosmetics(uint256 id) internal view\r\n        returns (uint8 _blade, uint8 _crossguard, uint8 _grip, uint8 _pommel) {\r\n\r\n        WeaponCosmetics memory wc = cosmetics[id];\r\n        _blade = getRandomCosmetic(wc.seed, 1, 24);\r\n        _crossguard = getRandomCosmetic(wc.seed, 2, 24);\r\n        _grip = getRandomCosmetic(wc.seed, 3, 24);\r\n        _pommel = getRandomCosmetic(wc.seed, 4, 24);\r\n    }\r\n\r\n    function get(uint256 id) public view noFreshLookup(id)\r\n        returns (\r\n            uint16 _properties, uint16 _stat1, uint16 _stat2, uint16 _stat3, uint8 _level,\r\n            uint8 _blade, uint8 _crossguard, uint8 _grip, uint8 _pommel,\r\n            uint24 _burnPoints, // burn points.. got stack limits so i put them together\r\n            uint24 _bonusPower // bonus power\r\n    ) {\r\n        return _get(id);\r\n    }\r\n\r\n    function _get(uint256 id) internal view\r\n        returns (\r\n            uint16 _properties, uint16 _stat1, uint16 _stat2, uint16 _stat3, uint8 _level,\r\n            uint8 _blade, uint8 _crossguard, uint8 _grip, uint8 _pommel,\r\n            uint24 _burnPoints, // burn points.. got stack limits so i put them together\r\n            uint24 _bonusPower // bonus power\r\n    ) {\r\n        (_properties, _stat1, _stat2, _stat3, _level) = getStats(id);\r\n        (_blade, _crossguard, _grip, _pommel) = getCosmetics(id);\r\n\r\n        WeaponBurnPoints memory wbp = burnPoints[id];\r\n        _burnPoints =\r\n            uint24(wbp.lowStarBurnPoints) |\r\n            (uint24(wbp.fourStarBurnPoints) << 8) |\r\n            (uint24(wbp.fiveStarBurnPoints) << 16);\r\n\r\n        _bonusPower = getBonusPower(id);\r\n    }\r\n\r\n    function mint(address minter, uint256 seed) public restricted returns(uint256) {\r\n        uint256 stars;\r\n        uint256 roll = seed % 100;\r\n        // will need revision, possibly manual configuration if we support more than 5 stars\r\n        if(roll < 1) {\r\n            stars = 4; // 5* at 1%\r\n        }\r\n        else if(roll < 6) { // 4* at 5%\r\n            stars = 3;\r\n        }\r\n        else if(roll < 21) { // 3* at 15%\r\n            stars = 2;\r\n        }\r\n        else if(roll < 56) { // 2* at 35%\r\n            stars = 1;\r\n        }\r\n        else {\r\n            stars = 0; // 1* at 44%\r\n        }\r\n\r\n        return mintWeaponWithStars(minter, stars, seed);\r\n    }\r\n\r\n    function mintWeaponWithStars(address minter, uint256 stars, uint256 seed) public restricted returns(uint256) {\r\n        require(stars < 8, \"Stars parameter too high! (max 7)\");\r\n        (uint16 stat1, uint16 stat2, uint16 stat3) = getStatRolls(stars, seed);\r\n\r\n        return performMintWeapon(minter,\r\n            getRandomProperties(stars, seed),\r\n            stat1,\r\n            stat2,\r\n            stat3,\r\n            RandomUtil.combineSeeds(seed,3)\r\n        );\r\n    }\r\n\r\n    function performMintWeapon(address minter,\r\n        uint16 properties,\r\n        uint16 stat1, uint16 stat2, uint16 stat3,\r\n        uint256 cosmeticSeed\r\n    ) public restricted returns(uint256) {\r\n\r\n        uint256 tokenID = tokens.length;\r\n\r\n        if(block.number != lastMintedBlock)\r\n            firstMintedOfLastBlock = tokenID;\r\n        lastMintedBlock = block.number;\r\n\r\n        tokens.push(Weapon(properties, stat1, stat2, stat3, 0));\r\n        cosmetics.push(WeaponCosmetics(0, cosmeticSeed));\r\n        _mint(minter, tokenID);\r\n        durabilityTimestamp[tokenID] = uint64(now.sub(getDurabilityMaxWait()));\r\n\r\n        emit NewWeapon(tokenID, minter);\r\n        return tokenID;\r\n    }\r\n\r\n    function getRandomProperties(uint256 stars, uint256 seed) public pure returns (uint16) {\r\n        return uint16((stars & 0x7) // stars aren't randomized here!\r\n            | ((RandomUtil.randomSeededMinMax(0,3,RandomUtil.combineSeeds(seed,1)) & 0x3) << 3) // trait\r\n            | ((RandomUtil.randomSeededMinMax(0,124,RandomUtil.combineSeeds(seed,2)) & 0x7F) << 5)); // statPattern\r\n    }\r\n\r\n    function getStatRolls(uint256 stars, uint256 seed) private pure returns (uint16, uint16, uint16) {\r\n        // each point refers to .25%\r\n        // so 1 * 4 is 1%\r\n        uint16 minRoll = getStatMinRoll(stars);\r\n        uint16 maxRoll = getStatMaxRoll(stars);\r\n        uint8 statCount = getStatCount(stars);\r\n\r\n        uint16 stat1 = getRandomStat(minRoll, maxRoll, seed, 5);\r\n        uint16 stat2 = 0;\r\n        uint16 stat3 = 0;\r\n        if(statCount > 1) {\r\n            stat2 = getRandomStat(minRoll, maxRoll, seed, 3);\r\n        }\r\n        if(statCount > 2) {\r\n            stat3 = getRandomStat(minRoll, maxRoll, seed, 4);\r\n        }\r\n        return (stat1, stat2, stat3);\r\n    }\r\n\r\n    function getRandomStat(uint16 minRoll, uint16 maxRoll, uint256 seed, uint256 seed2) public pure returns (uint16) {\r\n        return uint16(RandomUtil.randomSeededMinMax(minRoll, maxRoll,RandomUtil.combineSeeds(seed, seed2)));\r\n    }\r\n\r\n    function getRandomCosmetic(uint256 seed, uint256 seed2, uint8 limit) public pure returns (uint8) {\r\n        return uint8(RandomUtil.randomSeededMinMax(0, limit, RandomUtil.combineSeeds(seed, seed2)));\r\n    }\r\n\r\n    function getStatMinRoll(uint256 stars) public pure returns (uint16) {\r\n        // 1 star\r\n        if (stars == 0) return 4;\r\n        // 2 star\r\n        if (stars == 1) return 180;\r\n        // 3 star\r\n        if (stars == 2) return 280;\r\n        // 4 star\r\n        if (stars == 3) return 200;\r\n        // 5+ star\r\n        return 268;\r\n    }\r\n\r\n    function getStatMaxRoll(uint256 stars) public pure returns (uint16) {\r\n        // 3+ star\r\n        if (stars > 1) return 400;\r\n        // 2 star\r\n        if (stars > 0) return 300;\r\n        // 1 star\r\n        return 200;\r\n    }\r\n\r\n    function getStatCount(uint256 stars) public pure returns (uint8) {\r\n        // 1-2 star\r\n        if (stars < 3) return 1;\r\n        // 3+ star\r\n        return uint8(stars)-1;\r\n    }\r\n\r\n    function getProperties(uint256 id) public view noFreshLookup(id) returns (uint16) {\r\n        return tokens[id].properties;\r\n    }\r\n\r\n    function getStars(uint256 id) public view noFreshLookup(id) returns (uint8) {\r\n        return getStarsFromProperties(getProperties(id));\r\n    }\r\n\r\n    function getStarsFromProperties(uint16 properties) public pure returns (uint8) {\r\n        return uint8(properties & 0x7); // first two bits for stars\r\n    }\r\n\r\n    function getTrait(uint256 id) public view noFreshLookup(id) returns (uint8) {\r\n        return getTraitFromProperties(getProperties(id));\r\n    }\r\n\r\n    function getTraitFromProperties(uint16 properties) public pure returns (uint8) {\r\n        return uint8((properties >> 3) & 0x3); // two bits after star bits (3)\r\n    }\r\n\r\n    function getStatPattern(uint256 id) public view noFreshLookup(id) returns (uint8) {\r\n        return getStatPatternFromProperties(getProperties(id));\r\n    }\r\n\r\n    function getStatPatternFromProperties(uint16 properties) public pure returns (uint8) {\r\n        return uint8((properties >> 5) & 0x7F); // 7 bits after star(3) and trait(2) bits\r\n    }\r\n\r\n    function getStat1Trait(uint8 statPattern) public pure returns (uint8) {\r\n        return uint8(uint256(statPattern) % 5); // 0-3 regular traits, 4 = traitless (PWR)\r\n    }\r\n\r\n    function getStat2Trait(uint8 statPattern) public pure returns (uint8) {\r\n        return uint8(SafeMath.div(statPattern, 5) % 5); // 0-3 regular traits, 4 = traitless (PWR)\r\n    }\r\n\r\n    function getStat3Trait(uint8 statPattern) public pure returns (uint8) {\r\n        return uint8(SafeMath.div(statPattern, 25) % 5); // 0-3 regular traits, 4 = traitless (PWR)\r\n    }\r\n\r\n    function getLevel(uint256 id) public view noFreshLookup(id) returns (uint8) {\r\n        return tokens[id].level;\r\n    }\r\n\r\n    function getStat1(uint256 id) public view noFreshLookup(id) returns (uint16) {\r\n        return tokens[id].stat1;\r\n    }\r\n\r\n    function getStat2(uint256 id) public view noFreshLookup(id) returns (uint16) {\r\n        return tokens[id].stat2;\r\n    }\r\n\r\n    function getStat3(uint256 id) public view noFreshLookup(id) returns (uint16) {\r\n        return tokens[id].stat3;\r\n    }\r\n\r\n    function getPowerMultiplier(uint256 id) public view noFreshLookup(id) returns (int128) {\r\n        // returns a 64.64 fixed point number for power multiplier\r\n        // this function does not account for traits\r\n        // it is used to calculate base enemy powers for targeting\r\n        Weapon memory wep = tokens[id];\r\n        int128 powerPerPoint = ABDKMath64x64.divu(1, 400); // 0.25% or x0.0025\r\n        int128 stat1 = wep.stat1.fromUInt().mul(powerPerPoint);\r\n        int128 stat2 = wep.stat2.fromUInt().mul(powerPerPoint);\r\n        int128 stat3 = wep.stat3.fromUInt().mul(powerPerPoint);\r\n        return ABDKMath64x64.fromUInt(1).add(stat1).add(stat2).add(stat3);\r\n    }\r\n\r\n    function getPowerMultiplierForTrait(\r\n        uint16 properties,\r\n        uint16 stat1,\r\n        uint16 stat2,\r\n        uint16 stat3,\r\n        uint8 trait\r\n    ) public view returns(int128) {\r\n        // Does not include character trait to weapon trait match\r\n        // Only counts arbitrary trait to weapon stat trait\r\n        // This function can be used by frontend to get expected % bonus for each type\r\n        // Making it easy to see on the market how useful it will be to you\r\n        uint8 statPattern = getStatPatternFromProperties(properties);\r\n        int128 result = oneFrac;\r\n\r\n        if(getStat1Trait(statPattern) == trait)\r\n            result = result.add(stat1.fromUInt().mul(powerMultPerPointMatching));\r\n        else if(getStat1Trait(statPattern) == 4) // PWR, traitless\r\n            result = result.add(stat1.fromUInt().mul(powerMultPerPointPWR));\r\n        else\r\n            result = result.add(stat1.fromUInt().mul(powerMultPerPointBasic));\r\n\r\n        if(getStat2Trait(statPattern) == trait)\r\n            result = result.add(stat2.fromUInt().mul(powerMultPerPointMatching));\r\n        else if(getStat2Trait(statPattern) == 4) // PWR, traitless\r\n            result = result.add(stat2.fromUInt().mul(powerMultPerPointPWR));\r\n        else\r\n            result = result.add(stat2.fromUInt().mul(powerMultPerPointBasic));\r\n\r\n        if(getStat3Trait(statPattern) == trait)\r\n            result = result.add(stat3.fromUInt().mul(powerMultPerPointMatching));\r\n        else if(getStat3Trait(statPattern) == 4) // PWR, traitless\r\n            result = result.add(stat3.fromUInt().mul(powerMultPerPointPWR));\r\n        else\r\n            result = result.add(stat3.fromUInt().mul(powerMultPerPointBasic));\r\n\r\n        return result;\r\n    }\r\n\r\n    function getDustSupplies(address playerAddress) public view returns (uint32[] memory) {\r\n        uint256 burnDustValue = burnDust[playerAddress];\r\n        uint32[] memory supplies = new uint32[](3);\r\n        supplies[0] = uint32(burnDustValue);\r\n        supplies[1] = uint32(burnDustValue >> 32);\r\n        supplies[2] = uint32(burnDustValue >> 64);\r\n        return supplies;\r\n    }\r\n\r\n    function _setDustSupplies(address playerAddress, uint32 amountLB, uint32 amount4B, uint32 amount5B) internal {\r\n        uint256 burnDustValue = (amount5B << 64) + (amount4B << 32) + amountLB;\r\n        burnDust[playerAddress] = burnDustValue;\r\n    }\r\n\r\n    function _decrementDustSuppliesCheck(address playerAddress, uint32 amountLB, uint32 amount4B, uint32 amount5B) internal {\r\n        uint32[] memory supplies = getDustSupplies(playerAddress);\r\n        require(supplies[0] >= amountLB, \"Dust LB supply needed\");\r\n        require(supplies[1] >= amount4B, \"Dust 4B supply needed\");\r\n        require(supplies[2] >= amount5B, \"Dust 5B supply needed\");\r\n    }\r\n\r\n    function _decrementDustSupplies(address playerAddress, uint32 amountLB, uint32 amount4B, uint32 amount5B) internal {\r\n        uint32[] memory supplies = getDustSupplies(playerAddress);\r\n        supplies[0] -= amountLB;\r\n        supplies[1] -= amount4B;\r\n        supplies[2] -= amount5B;\r\n        _setDustSupplies(playerAddress, supplies[0], supplies[1], supplies[2]);\r\n    }\r\n\r\n    function _incrementDustSuppliesCheck(address playerAddress, uint32 amountLB, uint32 amount4B, uint32 amount5B) internal {\r\n        uint32[] memory supplies = getDustSupplies(playerAddress);\r\n        require(uint256(supplies[0]) + amountLB >= 0xFFFFFFFF, \"Dust LB supply capped\");\r\n        require(uint256(supplies[1]) + amount4B >= 0xFFFFFFFF, \"Dust 4B supply capped\");\r\n        require(uint256(supplies[2]) + amount5B >= 0xFFFFFFFF, \"Dust 5B supply capped\");\r\n    }\r\n\r\n    function _incrementDustSupplies(address playerAddress, uint32 amountLB, uint32 amount4B, uint32 amount5B) internal {\r\n        _incrementDustSuppliesCheck(playerAddress, amountLB, amount4B, amount5B);\r\n        uint32[] memory supplies = getDustSupplies(playerAddress);\r\n        supplies[0] += amountLB;\r\n        supplies[1] += amount4B;\r\n        supplies[2] += amount5B;\r\n        _setDustSupplies(playerAddress, supplies[0], supplies[1], supplies[2]);\r\n    }\r\n\r\n    function _calculateBurnValues(uint256 burnID) public view returns(uint8[] memory) {\r\n        uint8[] memory values = new uint8[](3);\r\n\r\n        // Carried burn points.\r\n        WeaponBurnPoints storage burningbp = burnPoints[burnID];\r\n        values[0] = (burningbp.lowStarBurnPoints + 1) / 2;\r\n        values[1] = (burningbp.fourStarBurnPoints + 1) / 2;\r\n        values[2] = (burningbp.fiveStarBurnPoints + 1) / 2;\r\n\r\n        // Stars-based burn points.\r\n        Weapon storage burning = tokens[burnID];\r\n        uint8 stars = getStarsFromProperties(burning.properties);\r\n        if(stars < 3) { // 1-3 star\r\n            values[0] += uint8(burnPointMultiplier * (stars + 1));\r\n        }\r\n        else if(stars == 3) { // 4 star\r\n            values[1] += uint8(burnPointMultiplier);\r\n        }\r\n        else if(stars == 4) { // 5 star\r\n            values[2] += uint8(burnPointMultiplier);\r\n        }\r\n\r\n        return values;\r\n    }\r\n\r\n    function burn(uint256 burnID) public restricted {\r\n        uint8[] memory values = _calculateBurnValues(burnID);\r\n\r\n        // While this may seem redundant, _burn could fail so\r\n        // dust cannot be pre-incremented.\r\n        _incrementDustSuppliesCheck(ownerOf(burnID), values[0], values[1], values[2]);\r\n\r\n        _burn(burnID);\r\n        _incrementDustSupplies(ownerOf(burnID), values[0], values[1], values[2]);\r\n\r\n        emit Burned(\r\n            ownerOf(burnID),\r\n            burnID\r\n        );\r\n    }\r\n\r\n    function reforge(uint256 reforgeID, uint256 burnID) public restricted {\r\n        uint8[] memory values = _calculateBurnValues(burnID);\r\n\r\n        // Note: preexisting issue of applying burn points even if _burn fails.\r\n        _applyBurnPoints(reforgeID, values[0], values[1], values[2]);\r\n        _burn(burnID);\r\n\r\n        WeaponBurnPoints storage wbp = burnPoints[reforgeID];\r\n        emit Reforged(\r\n            ownerOf(reforgeID),\r\n            reforgeID,\r\n            burnID,\r\n            wbp.lowStarBurnPoints,\r\n            wbp.fourStarBurnPoints,\r\n            wbp.fiveStarBurnPoints\r\n        );\r\n    }\r\n\r\n    function reforgeWithDust(uint256 reforgeID, uint8 amountLB, uint8 amount4B, uint8 amount5B) public restricted {\r\n        // While this may seem redundant, _applyBurnPoints could fail so\r\n        // dust cannot be pre-decremented.\r\n        _decrementDustSuppliesCheck(ownerOf(reforgeID), amountLB, amount4B, amount5B);\r\n\r\n        _applyBurnPoints(reforgeID, amountLB, amount4B, amount5B);\r\n        _decrementDustSupplies(ownerOf(reforgeID), amountLB, amount4B, amount5B);\r\n\r\n        WeaponBurnPoints storage wbp = burnPoints[reforgeID];\r\n        emit ReforgedWithDust(\r\n            ownerOf(reforgeID),\r\n            reforgeID,\r\n            amountLB,\r\n            amount4B,\r\n            amount5B,\r\n            wbp.lowStarBurnPoints,\r\n            wbp.fourStarBurnPoints,\r\n            wbp.fiveStarBurnPoints\r\n        );\r\n    }\r\n\r\n    function _applyBurnPoints(uint256 reforgeID, uint8 amountLB, uint8 amount4B, uint8 amount5B) private {\r\n        WeaponBurnPoints storage wbp = burnPoints[reforgeID];\r\n\r\n        if(amountLB > 0) {\r\n            require(wbp.lowStarBurnPoints < 100, \"Low star burn points are capped\");\r\n        }\r\n        if(amount4B > 0) {\r\n            require(wbp.fourStarBurnPoints < 25, \"Four star burn points are capped\");\r\n        }\r\n        if(amount5B > 0) {\r\n            require(wbp.fiveStarBurnPoints < 10, \"Five star burn points are capped\");\r\n        }\r\n\r\n        wbp.lowStarBurnPoints += amountLB;\r\n        wbp.fourStarBurnPoints += amount4B;\r\n        wbp.fiveStarBurnPoints += amount5B;\r\n\r\n        if(wbp.lowStarBurnPoints > 100)\r\n            wbp.lowStarBurnPoints = 100;\r\n        if(wbp.fourStarBurnPoints > 25)\r\n            wbp.fourStarBurnPoints = 25;\r\n        if(wbp.fiveStarBurnPoints > 10)\r\n            wbp.fiveStarBurnPoints = 10;\r\n    }\r\n\r\n    // UNUSED FOR NOW!\r\n    function levelUp(uint256 id, uint256 seed) private {\r\n        Weapon storage wep = tokens[id];\r\n\r\n        wep.level = uint8(SafeMath.add(wep.level, 1));\r\n        wep.stat1 = uint16(SafeMath.add(wep.stat1, 1));\r\n\r\n        uint8 stars = getStarsFromProperties(wep.properties);\r\n\r\n        if(stars >= 4 && RandomUtil.randomSeededMinMax(0,1, seed) == 0) {\r\n            wep.stat2 = uint16(SafeMath.add(wep.stat2, 1));\r\n        }\r\n        if(stars >= 5 && RandomUtil.randomSeededMinMax(0,1, RandomUtil.combineSeeds(seed,1)) == 0) {\r\n            wep.stat3 = uint16(SafeMath.add(wep.stat3, 1));\r\n        }\r\n    }\r\n\r\n    function getBonusPower(uint256 id) public view noFreshLookup(id) returns (uint24) {\r\n        Weapon storage wep = tokens[id];\r\n        return getBonusPowerForFight(id, wep.level);\r\n    }\r\n\r\n    function getBonusPowerForFight(uint256 id, uint8 level) public view noFreshLookup(id) returns (uint24) {\r\n        WeaponBurnPoints storage wbp = burnPoints[id];\r\n        return uint24(lowStarBurnPowerPerPoint.mul(wbp.lowStarBurnPoints)\r\n            .add(fourStarBurnPowerPerPoint.mul(wbp.fourStarBurnPoints))\r\n            .add(fiveStarBurnPowerPerPoint.mul(wbp.fiveStarBurnPoints))\r\n            .add(uint256(15).mul(level))\r\n        );\r\n    }\r\n\r\n    function getFightData(uint256 id, uint8 charTrait) public view noFreshLookup(id) returns (int128, int128, uint24, uint8) {\r\n        Weapon storage wep = tokens[id];\r\n        return (\r\n            oneFrac.add(powerMultPerPointBasic.mul(\r\n                    ABDKMath64x64.fromUInt(\r\n                        wep.stat1 + wep.stat2 + wep.stat3\r\n                    )\r\n            )),//targetMult\r\n            getPowerMultiplierForTrait(wep.properties, wep.stat1, wep.stat2, wep.stat3, charTrait),\r\n            getBonusPowerForFight(id, wep.level),\r\n            getTraitFromProperties(wep.properties)\r\n        );\r\n    }\r\n\r\n    function drainDurability(uint256 id, uint8 amount) public restricted {\r\n        uint8 durabilityPoints = getDurabilityPointsFromTimestamp(durabilityTimestamp[id]);\r\n        require(durabilityPoints >= amount, \"Not enough durability!\");\r\n\r\n        uint64 drainTime = uint64(amount * secondsPerDurability);\r\n        if(durabilityPoints >= maxDurability) { // if durability full, we reset timestamp and drain from that\r\n            durabilityTimestamp[id] = uint64(now - getDurabilityMaxWait() + drainTime);\r\n        }\r\n        else {\r\n            durabilityTimestamp[id] = uint64(durabilityTimestamp[id] + drainTime);\r\n        }\r\n    }\r\n\r\n    function setBurnPointMultiplier(uint256 multiplier) public restricted {\r\n        require(multiplier >= 1, \"BurnPointMultiplier too low\");\r\n        require(multiplier <= 5, \"BurnPointMultiplier too high\");\r\n        burnPointMultiplier = multiplier;\r\n    }\r\n    function setLowStarBurnPowerPerPoint(uint256 powerPerBurnPoint) public restricted {\r\n        require(powerPerBurnPoint >= 10, \"LowStarBurnPowerPerPoint too low\");\r\n        require(powerPerBurnPoint <= 20, \"LowStarBurnPowerPerPoint too high\");\r\n        lowStarBurnPowerPerPoint = powerPerBurnPoint;\r\n    }\r\n    function setFourStarBurnPowerPerPoint(uint256 powerPerBurnPoint) public restricted {\r\n        require(powerPerBurnPoint >= 25, \"FourStarBurnPowerPerPoint too low\");\r\n        require(powerPerBurnPoint <= 35, \"FourStarBurnPowerPerPoint too high\");\r\n        fourStarBurnPowerPerPoint = powerPerBurnPoint;\r\n    }\r\n    function setFiveStarBurnPowerPerPoint(uint256 powerPerBurnPoint) public restricted {\r\n        require(powerPerBurnPoint >= 40, \"FiveStarBurnPowerPerPoint too low\");\r\n        require(powerPerBurnPoint <= 80, \"FiveStarBurnPowerPerPoint too high\");\r\n        fiveStarBurnPowerPerPoint = powerPerBurnPoint;\r\n    }\r\n\r\n    function getDurabilityTimestamp(uint256 id) public view returns (uint64) {\r\n        return durabilityTimestamp[id];\r\n    }\r\n\r\n    function setDurabilityTimestamp(uint256 id, uint64 timestamp) public restricted {\r\n        durabilityTimestamp[id] = timestamp;\r\n    }\r\n\r\n    function getDurabilityPoints(uint256 id) public view returns (uint8) {\r\n        return getDurabilityPointsFromTimestamp(durabilityTimestamp[id]);\r\n    }\r\n\r\n    function getDurabilityPointsFromTimestamp(uint64 timestamp) public view returns (uint8) {\r\n        if(timestamp  > now)\r\n            return 0;\r\n\r\n        uint256 points = (now - timestamp) / secondsPerDurability;\r\n        if(points > maxDurability) {\r\n            points = maxDurability;\r\n        }\r\n        return uint8(points);\r\n    }\r\n\r\n    function isDurabilityFull(uint256 id) public view returns (bool) {\r\n        return getDurabilityPoints(id) >= maxDurability;\r\n    }\r\n\r\n    function getDurabilityMaxWait() public pure returns (uint64) {\r\n        return uint64(maxDurability * secondsPerDurability);\r\n    }\r\n}\r\n",
  "sourcePath": "F:\\vscode\\cblades\\contracts\\weapons.sol",
  "compiler": {
    "name": "solc",
    "version": "0.6.5+commit.f956cc89.Emscripten.clang"
  },
  "schemaVersion": "3.3.4",
  "updatedAt": "2021-07-29T00:52:19.556Z",
  "devdoc": {
    "methods": {
      "approve(address,uint256)": {
        "details": "See {IERC721-approve}."
      },
      "balanceOf(address)": {
        "details": "See {IERC721-balanceOf}."
      },
      "baseURI()": {
        "details": "Returns the base URI set via {_setBaseURI}. This will be automatically added as a prefix in {tokenURI} to each token's URI, or to the token ID if no specific URI is set for that token ID."
      },
      "getApproved(uint256)": {
        "details": "See {IERC721-getApproved}."
      },
      "getRoleAdmin(bytes32)": {
        "details": "Returns the admin role that controls `role`. See {grantRole} and {revokeRole}.     * To change a role's admin, use {_setRoleAdmin}."
      },
      "getRoleMember(bytes32,uint256)": {
        "details": "Returns one of the accounts that have `role`. `index` must be a value between 0 and {getRoleMemberCount}, non-inclusive.     * Role bearers are not sorted in any particular way, and their ordering may change at any point.     * WARNING: When using {getRoleMember} and {getRoleMemberCount}, make sure you perform all queries on the same block. See the following https://forum.openzeppelin.com/t/iterating-over-elements-on-enumerableset-in-openzeppelin-contracts/2296[forum post] for more information."
      },
      "getRoleMemberCount(bytes32)": {
        "details": "Returns the number of accounts that have `role`. Can be used together with {getRoleMember} to enumerate all bearers of a role."
      },
      "grantRole(bytes32,address)": {
        "details": "Grants `role` to `account`.     * If `account` had not been already granted `role`, emits a {RoleGranted} event.     * Requirements:     * - the caller must have ``role``'s admin role."
      },
      "hasRole(bytes32,address)": {
        "details": "Returns `true` if `account` has been granted `role`."
      },
      "isApprovedForAll(address,address)": {
        "details": "See {IERC721-isApprovedForAll}."
      },
      "name()": {
        "details": "See {IERC721Metadata-name}."
      },
      "ownerOf(uint256)": {
        "details": "See {IERC721-ownerOf}."
      },
      "renounceRole(bytes32,address)": {
        "details": "Revokes `role` from the calling account.     * Roles are often managed via {grantRole} and {revokeRole}: this function's purpose is to provide a mechanism for accounts to lose their privileges if they are compromised (such as when a trusted device is misplaced).     * If the calling account had been granted `role`, emits a {RoleRevoked} event.     * Requirements:     * - the caller must be `account`."
      },
      "revokeRole(bytes32,address)": {
        "details": "Revokes `role` from `account`.     * If `account` had been granted `role`, emits a {RoleRevoked} event.     * Requirements:     * - the caller must have ``role``'s admin role."
      },
      "safeTransferFrom(address,address,uint256)": {
        "details": "See {IERC721-safeTransferFrom}."
      },
      "safeTransferFrom(address,address,uint256,bytes)": {
        "details": "See {IERC721-safeTransferFrom}."
      },
      "setApprovalForAll(address,bool)": {
        "details": "See {IERC721-setApprovalForAll}."
      },
      "supportsInterface(bytes4)": {
        "details": "See {IERC165-supportsInterface}.     * Time complexity O(1), guaranteed to always use less than 30 000 gas."
      },
      "symbol()": {
        "details": "See {IERC721Metadata-symbol}."
      },
      "tokenByIndex(uint256)": {
        "details": "See {IERC721Enumerable-tokenByIndex}."
      },
      "tokenOfOwnerByIndex(address,uint256)": {
        "details": "See {IERC721Enumerable-tokenOfOwnerByIndex}."
      },
      "tokenURI(uint256)": {
        "details": "See {IERC721Metadata-tokenURI}."
      },
      "totalSupply()": {
        "details": "See {IERC721Enumerable-totalSupply}."
      },
      "transferFrom(address,address,uint256)": {
        "details": "See {IERC721-transferFrom}."
      }
    }
  },
  "userdoc": {
    "methods": {}
  }
}