{"contractName":"Blacksmith","abi":[{"anonymous":false,"inputs":[{"indexed":true,"internalType":"address","name":"owner","type":"address"},{"indexed":false,"internalType":"uint256","name":"tier","type":"uint256"},{"indexed":false,"internalType":"uint256","name":"price","type":"uint256"},{"indexed":false,"internalType":"uint256","name":"currency","type":"uint256"}],"name":"CBKLandPurchased","type":"event"},{"anonymous":false,"inputs":[{"indexed":true,"internalType":"bytes32","name":"role","type":"bytes32"},{"indexed":true,"internalType":"bytes32","name":"previousAdminRole","type":"bytes32"},{"indexed":true,"internalType":"bytes32","name":"newAdminRole","type":"bytes32"}],"name":"RoleAdminChanged","type":"event"},{"anonymous":false,"inputs":[{"indexed":true,"internalType":"bytes32","name":"role","type":"bytes32"},{"indexed":true,"internalType":"address","name":"account","type":"address"},{"indexed":true,"internalType":"address","name":"sender","type":"address"}],"name":"RoleGranted","type":"event"},{"anonymous":false,"inputs":[{"indexed":true,"internalType":"bytes32","name":"role","type":"bytes32"},{"indexed":true,"internalType":"address","name":"account","type":"address"},{"indexed":true,"internalType":"address","name":"sender","type":"address"}],"name":"RoleRevoked","type":"event"},{"inputs":[],"name":"CURRENCY_SKILL","outputs":[{"internalType":"uint256","name":"","type":"uint256"}],"stateMutability":"view","type":"function"},{"inputs":[],"name":"DEFAULT_ADMIN_ROLE","outputs":[{"internalType":"bytes32","name":"","type":"bytes32"}],"stateMutability":"view","type":"function"},{"inputs":[],"name":"GAME","outputs":[{"internalType":"bytes32","name":"","type":"bytes32"}],"stateMutability":"view","type":"function"},{"inputs":[],"name":"ITEM_CHARACTER_RENAME","outputs":[{"internalType":"uint256","name":"","type":"uint256"}],"stateMutability":"view","type":"function"},{"inputs":[],"name":"ITEM_CHARACTER_TRAITCHANGE_EARTH","outputs":[{"internalType":"uint256","name":"","type":"uint256"}],"stateMutability":"view","type":"function"},{"inputs":[],"name":"ITEM_CHARACTER_TRAITCHANGE_FIRE","outputs":[{"internalType":"uint256","name":"","type":"uint256"}],"stateMutability":"view","type":"function"},{"inputs":[],"name":"ITEM_CHARACTER_TRAITCHANGE_LIGHTNING","outputs":[{"internalType":"uint256","name":"","type":"uint256"}],"stateMutability":"view","type":"function"},{"inputs":[],"name":"ITEM_CHARACTER_TRAITCHANGE_WATER","outputs":[{"internalType":"uint256","name":"","type":"uint256"}],"stateMutability":"view","type":"function"},{"inputs":[],"name":"ITEM_COSMETIC_CHARACTER","outputs":[{"internalType":"uint256","name":"","type":"uint256"}],"stateMutability":"view","type":"function"},{"inputs":[],"name":"ITEM_COSMETIC_WEAPON","outputs":[{"internalType":"uint256","name":"","type":"uint256"}],"stateMutability":"view","type":"function"},{"inputs":[],"name":"ITEM_SHIELD","outputs":[{"internalType":"uint256","name":"","type":"uint256"}],"stateMutability":"view","type":"function"},{"inputs":[],"name":"ITEM_WEAPON_RENAME","outputs":[{"internalType":"uint256","name":"","type":"uint256"}],"stateMutability":"view","type":"function"},{"inputs":[],"name":"LINK_KING_ORACLE","outputs":[{"internalType":"uint256","name":"","type":"uint256"}],"stateMutability":"view","type":"function"},{"inputs":[],"name":"LINK_SAFE_RANDOMS","outputs":[{"internalType":"uint256","name":"","type":"uint256"}],"stateMutability":"view","type":"function"},{"inputs":[],"name":"LINK_SKILL_ORACLE_2","outputs":[{"internalType":"uint256","name":"","type":"uint256"}],"stateMutability":"view","type":"function"},{"inputs":[],"name":"SHIELD_SEED","outputs":[{"internalType":"bytes32","name":"","type":"bytes32"}],"stateMutability":"view","type":"function"},{"inputs":[],"name":"VAR_PURCHASE_SHIELD_SUPPLY","outputs":[{"internalType":"uint256","name":"","type":"uint256"}],"stateMutability":"view","type":"function"},{"inputs":[],"name":"VAR_PURCHASE_SHIELD_TYPE","outputs":[{"internalType":"uint256","name":"","type":"uint256"}],"stateMutability":"view","type":"function"},{"inputs":[],"name":"cbkLandSale","outputs":[{"internalType":"contract CBKLandSale","name":"","type":"address"}],"stateMutability":"view","type":"function"},{"inputs":[],"name":"game","outputs":[{"internalType":"contract CryptoBlades","name":"","type":"address"}],"stateMutability":"view","type":"function"},{"inputs":[{"internalType":"bytes32","name":"role","type":"bytes32"}],"name":"getRoleAdmin","outputs":[{"internalType":"bytes32","name":"","type":"bytes32"}],"stateMutability":"view","type":"function"},{"inputs":[{"internalType":"bytes32","name":"role","type":"bytes32"},{"internalType":"uint256","name":"index","type":"uint256"}],"name":"getRoleMember","outputs":[{"internalType":"address","name":"","type":"address"}],"stateMutability":"view","type":"function"},{"inputs":[{"internalType":"bytes32","name":"role","type":"bytes32"}],"name":"getRoleMemberCount","outputs":[{"internalType":"uint256","name":"","type":"uint256"}],"stateMutability":"view","type":"function"},{"inputs":[{"internalType":"bytes32","name":"role","type":"bytes32"},{"internalType":"address","name":"account","type":"address"}],"name":"grantRole","outputs":[],"stateMutability":"nonpayable","type":"function"},{"inputs":[{"internalType":"bytes32","name":"role","type":"bytes32"},{"internalType":"address","name":"account","type":"address"}],"name":"hasRole","outputs":[{"internalType":"bool","name":"","type":"bool"}],"stateMutability":"view","type":"function"},{"inputs":[{"internalType":"uint256","name":"","type":"uint256"}],"name":"itemAddresses","outputs":[{"internalType":"address","name":"","type":"address"}],"stateMutability":"view","type":"function"},{"inputs":[{"internalType":"uint256","name":"","type":"uint256"}],"name":"itemFlatPrices","outputs":[{"internalType":"uint256","name":"","type":"uint256"}],"stateMutability":"view","type":"function"},{"inputs":[{"internalType":"uint256","name":"","type":"uint256"},{"internalType":"uint256","name":"","type":"uint256"}],"name":"itemSeriesFlatPrices","outputs":[{"internalType":"uint256","name":"","type":"uint256"}],"stateMutability":"view","type":"function"},{"inputs":[{"internalType":"uint256","name":"","type":"uint256"},{"internalType":"uint256","name":"","type":"uint256"}],"name":"landPrices","outputs":[{"internalType":"uint256","name":"","type":"uint256"}],"stateMutability":"view","type":"function"},{"inputs":[{"internalType":"uint256","name":"","type":"uint256"}],"name":"links","outputs":[{"internalType":"address","name":"","type":"address"}],"stateMutability":"view","type":"function"},{"inputs":[{"internalType":"uint256","name":"","type":"uint256"}],"name":"numberParameters","outputs":[{"internalType":"uint256","name":"","type":"uint256"}],"stateMutability":"view","type":"function"},{"inputs":[],"name":"randoms","outputs":[{"internalType":"contract IRandoms","name":"","type":"address"}],"stateMutability":"view","type":"function"},{"inputs":[{"internalType":"bytes32","name":"role","type":"bytes32"},{"internalType":"address","name":"account","type":"address"}],"name":"renounceRole","outputs":[],"stateMutability":"nonpayable","type":"function"},{"inputs":[{"internalType":"bytes32","name":"role","type":"bytes32"},{"internalType":"address","name":"account","type":"address"}],"name":"revokeRole","outputs":[],"stateMutability":"nonpayable","type":"function"},{"inputs":[],"name":"shields","outputs":[{"internalType":"contract Shields","name":"","type":"address"}],"stateMutability":"view","type":"function"},{"inputs":[{"internalType":"address","name":"","type":"address"}],"name":"tickets","outputs":[{"internalType":"uint32","name":"","type":"uint32"}],"stateMutability":"view","type":"function"},{"inputs":[],"name":"weapons","outputs":[{"internalType":"contract Weapons","name":"","type":"address"}],"stateMutability":"view","type":"function"},{"inputs":[{"internalType":"contract Weapons","name":"_weapons","type":"address"},{"internalType":"contract IRandoms","name":"_randoms","type":"address"}],"name":"initialize","outputs":[],"stateMutability":"nonpayable","type":"function"},{"inputs":[{"internalType":"contract IRandoms","name":"_newRandoms","type":"address"}],"name":"migrateRandoms","outputs":[],"stateMutability":"nonpayable","type":"function"},{"inputs":[{"internalType":"contract Shields","name":"_shields","type":"address"},{"internalType":"contract CryptoBlades","name":"_game","type":"address"}],"name":"migrateTo_61c10da","outputs":[],"stateMutability":"nonpayable","type":"function"},{"inputs":[{"internalType":"address","name":"_characterRename","type":"address"},{"internalType":"address","name":"_weaponRename","type":"address"},{"internalType":"address","name":"_charFireTraitChange","type":"address"},{"internalType":"address","name":"_charEarthTraitChange","type":"address"},{"internalType":"address","name":"_charWaterTraitChange","type":"address"},{"internalType":"address","name":"_charLightningTraitChange","type":"address"}],"name":"migrateTo_16884dd","outputs":[],"stateMutability":"nonpayable","type":"function"},{"inputs":[{"internalType":"contract CBKLandSale","name":"_cbkLandSale","type":"address"}],"name":"migrateTo_bcdf4c","outputs":[],"stateMutability":"nonpayable","type":"function"},{"inputs":[{"internalType":"address","name":"tokenAddress","type":"address"},{"internalType":"uint256","name":"amount","type":"uint256"}],"name":"recoverToken","outputs":[],"stateMutability":"nonpayable","type":"function"},{"inputs":[{"internalType":"uint256","name":"seedId","type":"uint256"},{"internalType":"uint256","name":"shieldType","type":"uint256"}],"name":"hasSeed","outputs":[{"internalType":"bool","name":"","type":"bool"}],"stateMutability":"view","type":"function"},{"inputs":[],"name":"generateShieldSeed","outputs":[],"stateMutability":"nonpayable","type":"function"},{"inputs":[],"name":"claimShield","outputs":[],"stateMutability":"nonpayable","type":"function"},{"inputs":[{"internalType":"uint256","name":"itemIndex","type":"uint256"}],"name":"getAddressOfItem","outputs":[{"internalType":"address","name":"","type":"address"}],"stateMutability":"view","type":"function"},{"inputs":[{"internalType":"uint256","name":"itemIndex","type":"uint256"}],"name":"getFlatPriceOfItem","outputs":[{"internalType":"uint256","name":"","type":"uint256"}],"stateMutability":"view","type":"function"},{"inputs":[{"internalType":"uint256","name":"itemIndex","type":"uint256"},{"internalType":"uint256","name":"seriesIndex","type":"uint256"}],"name":"getFlatPriceOfSeriesItem","outputs":[{"internalType":"uint256","name":"","type":"uint256"}],"stateMutability":"view","type":"function"},{"inputs":[{"internalType":"uint256","name":"currency","type":"uint256"}],"name":"getCurrency","outputs":[{"internalType":"address","name":"","type":"address"}],"stateMutability":"view","type":"function"},{"inputs":[{"internalType":"uint256","name":"varField","type":"uint256"}],"name":"vars","outputs":[{"internalType":"uint256","name":"","type":"uint256"}],"stateMutability":"view","type":"function"},{"inputs":[{"internalType":"uint256","name":"itemIndex","type":"uint256"},{"internalType":"address","name":"to","type":"address"}],"name":"setAddressOfItem","outputs":[],"stateMutability":"nonpayable","type":"function"},{"inputs":[{"internalType":"uint256","name":"itemIndex","type":"uint256"},{"internalType":"uint256","name":"flatWeiPrice","type":"uint256"}],"name":"setFlatPriceOfItem","outputs":[],"stateMutability":"nonpayable","type":"function"},{"inputs":[{"internalType":"uint256","name":"itemIndex","type":"uint256"},{"internalType":"uint256[]","name":"seriesIndices","type":"uint256[]"},{"internalType":"uint256[]","name":"seriesPrices","type":"uint256[]"}],"name":"setFlatPriceOfItemSeries","outputs":[],"stateMutability":"nonpayable","type":"function"},{"inputs":[{"internalType":"uint256","name":"currency","type":"uint256"},{"internalType":"address","name":"currencyAddress","type":"address"},{"internalType":"bool","name":"forced","type":"bool"}],"name":"setCurrency","outputs":[],"stateMutability":"nonpayable","type":"function"},{"inputs":[{"internalType":"uint256","name":"linkId","type":"uint256"},{"internalType":"address","name":"linkAddress","type":"address"}],"name":"setLink","outputs":[],"stateMutability":"nonpayable","type":"function"},{"inputs":[{"internalType":"uint256","name":"varField","type":"uint256"},{"internalType":"uint256","name":"value","type":"uint256"}],"name":"setVar","outputs":[],"stateMutability":"nonpayable","type":"function"},{"inputs":[{"internalType":"uint256[]","name":"varFields","type":"uint256[]"},{"internalType":"uint256[]","name":"values","type":"uint256[]"}],"name":"setVars","outputs":[],"stateMutability":"nonpayable","type":"function"},{"inputs":[{"internalType":"uint256","name":"newPrice","type":"uint256"}],"name":"setCharacterRenamePrice","outputs":[],"stateMutability":"nonpayable","type":"function"},{"inputs":[],"name":"characterRenamePrice","outputs":[{"internalType":"uint256","name":"","type":"uint256"}],"stateMutability":"view","type":"function"},{"inputs":[{"internalType":"uint256","name":"paying","type":"uint256"}],"name":"purchaseCharacterRenameTag","outputs":[],"stateMutability":"nonpayable","type":"function"},{"inputs":[{"internalType":"uint256","name":"paying","type":"uint256"}],"name":"purchaseCharacterRenameTagDeal","outputs":[],"stateMutability":"nonpayable","type":"function"},{"inputs":[{"internalType":"uint256","name":"newPrice","type":"uint256"}],"name":"setWeaponRenamePrice","outputs":[],"stateMutability":"nonpayable","type":"function"},{"inputs":[],"name":"weaponRenamePrice","outputs":[{"internalType":"uint256","name":"","type":"uint256"}],"stateMutability":"view","type":"function"},{"inputs":[{"internalType":"uint256","name":"paying","type":"uint256"}],"name":"purchaseWeaponRenameTag","outputs":[],"stateMutability":"nonpayable","type":"function"},{"inputs":[{"internalType":"uint256","name":"paying","type":"uint256"}],"name":"purchaseWeaponRenameTagDeal","outputs":[],"stateMutability":"nonpayable","type":"function"},{"inputs":[{"internalType":"uint256","name":"newPrice","type":"uint256"}],"name":"setCharacterTraitChangePrice","outputs":[],"stateMutability":"nonpayable","type":"function"},{"inputs":[],"name":"characterTraitChangePrice","outputs":[{"internalType":"uint256","name":"","type":"uint256"}],"stateMutability":"view","type":"function"},{"inputs":[{"internalType":"uint256","name":"paying","type":"uint256"}],"name":"purchaseCharacterFireTraitChange","outputs":[],"stateMutability":"nonpayable","type":"function"},{"inputs":[{"internalType":"uint256","name":"paying","type":"uint256"}],"name":"purchaseCharacterEarthTraitChange","outputs":[],"stateMutability":"nonpayable","type":"function"},{"inputs":[{"internalType":"uint256","name":"paying","type":"uint256"}],"name":"purchaseCharacterWaterTraitChange","outputs":[],"stateMutability":"nonpayable","type":"function"},{"inputs":[{"internalType":"uint256","name":"paying","type":"uint256"}],"name":"purchaseCharacterLightningTraitChange","outputs":[],"stateMutability":"nonpayable","type":"function"},{"inputs":[{"internalType":"uint32","name":"cosmetic","type":"uint32"},{"internalType":"uint256","name":"newPrice","type":"uint256"}],"name":"setWeaponCosmeticPrice","outputs":[],"stateMutability":"nonpayable","type":"function"},{"inputs":[{"internalType":"uint32","name":"cosmetic","type":"uint32"}],"name":"getWeaponCosmeticPrice","outputs":[{"internalType":"uint256","name":"","type":"uint256"}],"stateMutability":"view","type":"function"},{"inputs":[{"internalType":"uint32","name":"cosmetic","type":"uint32"},{"internalType":"uint256","name":"paying","type":"uint256"}],"name":"purchaseWeaponCosmetic","outputs":[],"stateMutability":"nonpayable","type":"function"},{"inputs":[{"internalType":"uint32","name":"cosmetic","type":"uint32"},{"internalType":"uint256","name":"newPrice","type":"uint256"}],"name":"setCharacterCosmeticPrice","outputs":[],"stateMutability":"nonpayable","type":"function"},{"inputs":[{"internalType":"uint32","name":"cosmetic","type":"uint32"}],"name":"getCharacterCosmeticPrice","outputs":[{"internalType":"uint256","name":"","type":"uint256"}],"stateMutability":"view","type":"function"},{"inputs":[{"internalType":"uint32","name":"cosmetic","type":"uint32"},{"internalType":"uint256","name":"paying","type":"uint256"}],"name":"purchaseCharacterCosmetic","outputs":[],"stateMutability":"nonpayable","type":"function"},{"inputs":[{"internalType":"uint256","name":"paying","type":"uint256"},{"internalType":"uint256","name":"currency","type":"uint256"}],"name":"purchaseT1CBKLand","outputs":[],"stateMutability":"nonpayable","type":"function"},{"inputs":[{"internalType":"uint256","name":"paying","type":"uint256"},{"internalType":"uint256","name":"chunkId","type":"uint256"},{"internalType":"uint256","name":"currency","type":"uint256"}],"name":"purchaseT2CBKLand","outputs":[],"stateMutability":"nonpayable","type":"function"},{"inputs":[{"internalType":"uint256","name":"paying","type":"uint256"},{"internalType":"uint256","name":"chunkId","type":"uint256"},{"internalType":"uint256","name":"currency","type":"uint256"}],"name":"purchaseT3CBKLand","outputs":[],"stateMutability":"nonpayable","type":"function"},{"inputs":[{"internalType":"uint256","name":"tier","type":"uint256"},{"internalType":"uint256","name":"currency","type":"uint256"}],"name":"getCBKLandPrice","outputs":[{"internalType":"uint256","name":"","type":"uint256"}],"stateMutability":"view","type":"function"},{"inputs":[{"internalType":"uint256","name":"currency","type":"uint256"}],"name":"getOracledTokenPerUSD","outputs":[{"internalType":"uint256","name":"","type":"uint256"}],"stateMutability":"view","type":"function"},{"inputs":[{"internalType":"uint256","name":"tier","type":"uint256"},{"internalType":"uint256","name":"newPrice","type":"uint256"},{"internalType":"uint256","name":"currency","type":"uint256"}],"name":"setCBKLandPrice","outputs":[],"stateMutability":"nonpayable","type":"function"}],"bytecode":"0x608060405234801561001057600080fd5b50613f1d806100206000396000f3fe608060405234801561001057600080fd5b50600436106104ac5760003560e01c806391d148541161026d578063c816a3ea11610151578063d9308bb6116100ce578063ea3584ba11610092578063ea3584ba14610e56578063eb99e86914610e5e578063ee7e079714610e7b578063f0f1b02e14610ea9578063f0f629e114610ec6578063fb218ef014610dcb576104ac565b8063d9308bb614610dcb578063d9f8322614610dd3578063e1dfd96d14610df6578063e4a0f56614610e13578063e71a136a14610e39576104ac565b8063cf90057711610115578063cf90057714610d28578063cfa58a5b14610d51578063d1dac34d14610d6e578063d547741f14610d76578063d69803eb14610da2576104ac565b8063c816a3ea14610cc3578063c833a9ae146104b1578063c9c34a9c14610ce6578063ca15c87314610cee578063cdf9b77e14610d0b576104ac565b8063af80b6df116101ea578063ba6fca57116101ae578063ba6fca5714610c02578063be12911414610c25578063bee666d814610c73578063c01cb3cb14610c7b578063c3fe3e2814610c98578063c6b2f6e014610ca0576104ac565b8063af80b6df14610781578063b29a814014610b88578063b5e60fe014610bb4578063b60b799b14610bd1578063b7e1cd8614610bfa576104ac565b8063a0c617f811610231578063a0c617f814610b53578063a217fddf146106ff578063a938636e14610b5b578063ac6dc85014610b63578063ad13ace314610b6b576104ac565b806391d1485414610aa257806393db3ce214610ae2578063965e5ee214610b055780639c6fdbf014610b285780639e00de8214610b4b576104ac565b80634203b1f31161039457806366931e03116103115780637c4baa06116102d55780637c4baa0614610a04578063881d8a4014610a215780638821ff73146104b15780638a911d7014610a5a5780638c8abf1614610a775780639010d07c14610a7f576104ac565b806366931e031461095a5780636c992a551461097d5780636dcbf2a3146109a05780637689ab0d146109df578063787b8e17146109fc576104ac565b80635e29204d116103585780635e29204d146108d25780635e71b3aa146107815780635fc86693146109065780635fdb757a1461092957806360e8cc2d14610931576104ac565b80634203b1f314610821578063485cc9551461083e57806355b197011461086c5780635818142514610889578063592c73e8146108a6576104ac565b8063248a9ca31161042d5780632f2ff15d116103f15780632f2ff15d1461075557806333050bf81461078157806336568abe146107895780633c6ce2e3146107b55780633cabbfa2146107d257806341c7468e146107f8576104ac565b8063248a9ca3146106e257806324a50754146106ff57806327730d12146107075780632b8273961461070f5780632dd4bc191461072c576104ac565b80630d753f35116104745780630d753f35146105dc5780630e5dae0d146105e457806315b3d0871461060d578063182f549a146106155780631e0da8401461061d576104ac565b806305cf9011146104b15780630601ceb2146104cb578063067ee145146104ea5780630a7501bb146105165780630c05126a146105d4575b600080fd5b6104b9610ee3565b60408051918252519081900360200190f35b6104e8600480360360208110156104e157600080fd5b5035610ee8565b005b6104e86004803603604081101561050057600080fd5b50803590602001356001600160a01b0316611008565b6104e86004803603604081101561052c57600080fd5b810190602081018135600160201b81111561054657600080fd5b82018360208201111561055857600080fd5b803590602001918460208302840111600160201b8311171561057957600080fd5b919390929091602081019035600160201b81111561059657600080fd5b8201836020820111156105a857600080fd5b803590602001918460208302840111600160201b831117156105c957600080fd5b50909250905061103e565b6104b9611096565b6104b961109b565b6104e8600480360360608110156105fa57600080fd5b50803590602081013590604001356110a0565b6104e86112b6565b6104b9611400565b6104e86004803603606081101561063357600080fd5b81359190810190604081016020820135600160201b81111561065457600080fd5b82018360208201111561066657600080fd5b803590602001918460208302840111600160201b8311171561068757600080fd5b919390929091602081019035600160201b8111156106a457600080fd5b8201836020820111156106b657600080fd5b803590602001918460208302840111600160201b831117156106d757600080fd5b509092509050611405565b6104b9600480360360208110156106f857600080fd5b5035611476565b6104b961148e565b6104b9611493565b6104e86004803603602081101561072557600080fd5b50356114af565b6104e86004803603604081101561074257600080fd5b5063ffffffff81351690602001356115ac565b6104e86004803603604081101561076b57600080fd5b50803590602001356001600160a01b0316611633565b6104b961169f565b6104e86004803603604081101561079f57600080fd5b50803590602001356001600160a01b03166116a4565b6104e8600480360360208110156107cb57600080fd5b5035611705565b6104e8600480360360208110156107e857600080fd5b50356001600160a01b03166117a4565b6104e86004803603604081101561080e57600080fd5b5063ffffffff813516906020013561180e565b6104e86004803603602081101561083757600080fd5b5035611947565b6104e86004803603604081101561085457600080fd5b506001600160a01b03813581169160200135166119b0565b6104e86004803603602081101561088257600080fd5b5035611a97565b6104b96004803603602081101561089f57600080fd5b5035611b94565b6104e8600480360360408110156108bc57600080fd5b50803590602001356001600160a01b0316611ba6565b6104e8600480360360608110156108e857600080fd5b508035906001600160a01b0360208201351690604001351515611bdc565b6104b96004803603604081101561091c57600080fd5b5080359060200135611c79565b6104b9611c96565b6104e86004803603606081101561094757600080fd5b5080359060208101359060400135611cb3565b6104e86004803603604081101561097057600080fd5b5080359060200135611e60565b6104e86004803603604081101561099357600080fd5b5080359060200135611e7a565b6109c6600480360360208110156109b657600080fd5b50356001600160a01b0316611e94565b6040805163ffffffff9092168252519081900360200190f35b6104e8600480360360208110156109f557600080fd5b5035611eac565b6104b9611f15565b6104b960048036036020811015610a1a57600080fd5b5035611f32565b610a3e60048036036020811015610a3757600080fd5b5035611f44565b604080516001600160a01b039092168252519081900360200190f35b6104e860048036036020811015610a7057600080fd5b5035611f5f565b6104e861205c565b610a3e60048036036040811015610a9557600080fd5b508035906020013561227e565b610ace60048036036040811015610ab857600080fd5b50803590602001356001600160a01b03166122a5565b604080519115158252519081900360200190f35b6104b960048036036020811015610af857600080fd5b503563ffffffff166122c3565b6104b960048036036040811015610b1b57600080fd5b50803590602001356122e8565b610ace60048036036040811015610b3e57600080fd5b5080359060200135612305565b610a3e6123cc565b6104b96123db565b6104b96123f8565b610a3e6123fd565b6104b960048036036020811015610b8157600080fd5b503561240c565b6104e860048036036040811015610b9e57600080fd5b506001600160a01b03813516906020013561241e565b6104e860048036036020811015610bca57600080fd5b5035612480565b6104e860048036036040811015610be757600080fd5b5063ffffffff813516906020013561257d565b610a3e612604565b6104b960048036036040811015610c1857600080fd5b5080359060200135612613565b6104e8600480360360c0811015610c3b57600080fd5b506001600160a01b038135811691602081013582169160408201358116916060810135821691608082013581169160a0013516612641565b610a3e612833565b6104e860048036036020811015610c9157600080fd5b5035612842565b610a3e612942565b6104b960048036036040811015610cb657600080fd5b5080359060200135612951565b6104b960048036036020811015610cd957600080fd5b503563ffffffff1661296e565b6104b9612993565b6104b960048036036020811015610d0457600080fd5b50356129b6565b610a3e60048036036020811015610d2157600080fd5b50356129cd565b6104e860048036036060811015610d3e57600080fd5b50803590602081013590604001356129e8565b6104e860048036036020811015610d6757600080fd5b5035612b7c565b6104b9612c7b565b6104e860048036036040811015610d8c57600080fd5b50803590602001356001600160a01b0316612c80565b6104e860048036036040811015610db857600080fd5b5063ffffffff8135169060200135612cd9565b6104b9612dfe565b6104e860048036036040811015610de957600080fd5b5080359060200135612e03565b610a3e60048036036020811015610e0c57600080fd5b5035612fdf565b6104e860048036036020811015610e2957600080fd5b50356001600160a01b0316612ffa565b6104b960048036036020811015610e4f57600080fd5b5035613064565b6104b9613076565b6104e860048036036020811015610e7457600080fd5b503561307b565b6104e860048036036040811015610e9157600080fd5b506001600160a01b0381358116916020013516613180565b610a3e60048036036020811015610ebf57600080fd5b50356131f6565b6104b960048036036020811015610edc57600080fd5b5035613211565b600281565b6001600052606b602052600080516020613d2b833981519152546003028114610f48576040805162461bcd60e51b815260206004820152600d60248201526c496e76616c696420707269636560981b604482015290519081900360640190fd5b60016000908152606b602052600080516020613d2b83398151915254610f739133916003029061331f565b60016000908152606a6020527ff585789965ba69220d5ce3dc1b444eb22ff546f2650694fef8fafe9c26560af954604080516309a6ea2560e31b815233600482810191909152602482015290516001600160a01b0390921692634d3751289260448084019382900301818387803b158015610fed57600080fd5b505af1158015611001573d6000803e3d6000fd5b5050505050565b61101061343f565b6000918252606a602052604090912080546001600160a01b0319166001600160a01b03909216919091179055565b61104661343f565b60005b838110156110015782828281811061105d57fe5b90506020020135606c600087878581811061107457fe5b6020908102929092013583525081019190915260400160002055600101611049565b600881565b600981565b6000611125606e60009054906101000a90046001600160a01b03166001600160a01b031663d52a37366040518163ffffffff1660e01b815260040160206040518083038186803b1580156110f357600080fd5b505afa158015611107573d6000803e3d6000fd5b505050506040513d602081101561111d57600080fd5b505183612613565b905060008411801561113657508381145b611177576040805162461bcd60e51b815260206004820152600d60248201526c496e76616c696420707269636560981b604482015290519081900360640190fd5b61118233828461331f565b606e54604080516310ea5ae360e11b81523360048201526024810186905290516001600160a01b03909216916321d4b5c69160448082019260009290919082900301818387803b1580156111d557600080fd5b505af11580156111e9573d6000803e3d6000fd5b50505050336001600160a01b03167f05b2506e8008d97a1714995cb312c9e597fe5a4d41e50d3410a28653e2065c9c606e60009054906101000a90046001600160a01b03166001600160a01b031663d52a37366040518163ffffffff1660e01b815260040160206040518083038186803b15801561126657600080fd5b505afa15801561127a573d6000803e3d6000fd5b505050506040513d602081101561129057600080fd5b50516040805191825260208201859052818101869052519081900360600190a250505050565b6009600052606b6020527f166f967450f7c49b259ac3c5610ba41d6e4162a81bccd5686ebb5f5a26afdd38546112eb57600080fd5b7fdcf345d7f6a8deb7427d0fee62009fa15100353a1c666b51bb5387b25addcfa95460096000908152606b6020527f166f967450f7c49b259ac3c5610ba41d6e4162a81bccd5686ebb5f5a26afdd38546113479133919061331f565b600360005260716020527fc44b7d8f05f19024d2a21c9d552e7ceb275bf297b5fbc3c41c0a2ac942248cd154604080516a14d21251531117d4d1515160aa1b8152905190819003600b0190206001600160a01b039091169063775eb0e29033906113b19085613489565b6040518363ffffffff1660e01b815260040180836001600160a01b03166001600160a01b0316815260200182815260200192505050600060405180830381600087803b158015610fed57600080fd5b600781565b61140d61343f565b60005b8381101561146e5782828281811061142457fe5b90506020020135606d6000888152602001908152602001600020600087878581811061144c57fe5b6020908102929092013583525081019190915260400160002055600101611410565b505050505050565b6000818152603360205260409020600201545b919050565b600081565b604080516347414d4560e01b8152905190819003600401902081565b6003600052606b602052600080516020613e2f83398151915254811461150c576040805162461bcd60e51b815260206004820152600d60248201526c496e76616c696420707269636560981b604482015290519081900360640190fd5b60036000908152606b602052600080516020613e2f833981519152546115349133919061331f565b60036000908152606a6020527f165f0fc496c6f74e1376579ffc36bcfc90ef4779c44b9232cf0d606db3cc69d154604080516309a6ea2560e31b81523360048201526001602482015290516001600160a01b0390921692634d3751289260448084019382900301818387803b158015610fed57600080fd5b6115b461343f565b60008263ffffffff161180156115ca5750600081115b61160d576040805162461bcd60e51b815260206004820152600f60248201526e1a5b9d985b1a59081c995c5d595cdd608a1b604482015290519081900360640190fd5b63ffffffff9091166000908152600080516020613db18339815191526020526040902055565b6000828152603360205260409020600201546116569061165161350f565b6122a5565b6116915760405162461bcd60e51b815260040180806020018281038252602f815260200180613cdc602f913960400191505060405180910390fd5b61169b8282613513565b5050565b600181565b6116ac61350f565b6001600160a01b0316816001600160a01b0316146116fb5760405162461bcd60e51b815260040180806020018281038252602f815260200180613eb9602f913960400191505060405180910390fd5b61169b8282613582565b61170d61343f565b60008111611752576040805162461bcd60e51b815260206004820152600d60248201526c696e76616c696420707269636560981b604482015290519081900360640190fd5b606b602052600080516020613e2f833981519152819055600080516020613d0b833981519152819055600080516020613d918339815191528190556006600052600080516020613d4b83398151915255565b6117af6000336122a5565b6117ec576040805162461bcd60e51b81526020600482015260096024820152682737ba1030b236b4b760b91b604482015290519081900360640190fd5b606e80546001600160a01b0319166001600160a01b0392909216919091179055565b60008111801561183f575063ffffffff82166000908152600080516020613e6f833981519152602052604090205481145b611880576040805162461bcd60e51b815260206004820152600d60248201526c496e76616c696420707269636560981b604482015290519081900360640190fd5b63ffffffff82166000908152600080516020613e6f83398151915260205260408120546118af9133919061331f565b60076000908152606a6020527f6f348b5cbf762421908c85f80163988839db0cf17e0afd19a09b08f2a62697c254604080516304cf925d60e21b815233600482015263ffffffff861660248201526001604482015290516001600160a01b039092169263133e49749260648084019382900301818387803b15801561193357600080fd5b505af115801561146e573d6000803e3d6000fd5b61194f61343f565b60008111611994576040805162461bcd60e51b815260206004820152600d60248201526c696e76616c696420707269636560981b604482015290519081900360640190fd5b6001600052606b602052600080516020613d2b83398151915255565b600054610100900460ff16806119c957506119c96135f1565b806119d7575060005460ff16155b611a125760405162461bcd60e51b815260040180806020018281038252602e815260200180613e01602e913960400191505060405180910390fd5b600054610100900460ff16158015611a3d576000805460ff1961ff0019909116610100171660011790555b611a45613602565b611a50600033611691565b606580546001600160a01b038086166001600160a01b03199283161790925560668054928516929091169190911790558015611a92576000805461ff00191690555b505050565b6005600052606b602052600080516020613d91833981519152548114611af4576040805162461bcd60e51b815260206004820152600d60248201526c496e76616c696420707269636560981b604482015290519081900360640190fd5b60056000908152606b602052600080516020613d9183398151915254611b1c9133919061331f565b60056000908152606a6020527fa5a863a6e87c617d261de6bc343a49a7006a56c5a168ec687d4bc4027b10d67d54604080516309a6ea2560e31b81523360048201526001602482015290516001600160a01b0390921692634d3751289260448084019382900301818387803b158015610fed57600080fd5b606c6020526000908152604090205481565b611bae61343f565b60009182526071602052604090912080546001600160a01b0319166001600160a01b03909216919091179055565b611be461343f565b600083118015611c1057508080611c1057506000838152607060205260409020546001600160a01b0316155b611c4a576040805162461bcd60e51b815260206004808301919091526024820152631d5cd95960e21b604482015290519081900360640190fd5b5060009182526070602052604090912080546001600160a01b0319166001600160a01b03909216919091179055565b606d60209081526000928352604080842090915290825290205481565b6003600052606b602052600080516020613e2f8339815191525490565b611cbb61343f565b60008211611d00576040805162461bcd60e51b815260206004820152600d60248201526c696e76616c696420707269636560981b604482015290519081900360640190fd5b606e60009054906101000a90046001600160a01b03166001600160a01b0316631928ada46040518163ffffffff1660e01b815260040160206040518083038186803b158015611d4e57600080fd5b505afa158015611d62573d6000803e3d6000fd5b505050506040513d6020811015611d7857600080fd5b50518310801590611e025750606e60009054906101000a90046001600160a01b03166001600160a01b03166334f054206040518163ffffffff1660e01b815260040160206040518083038186803b158015611dd257600080fd5b505afa158015611de6573d6000803e3d6000fd5b505050506040513d6020811015611dfc57600080fd5b50518311155b611e42576040805162461bcd60e51b815260206004820152600c60248201526b24b73b30b634b2103a34b2b960a11b604482015290519081900360640190fd5b6000908152606f602090815260408083209483529390529190912055565b611e6861343f565b6000918252606b602052604090912055565b611e8261343f565b6000918252606c602052604090912055565b60676020526000908152604090205463ffffffff1681565b611eb461343f565b60008111611ef9576040805162461bcd60e51b815260206004820152600d60248201526c696e76616c696420707269636560981b604482015290519081900360640190fd5b6002600052606b602052600080516020613e4f83398151915255565b6002600052606b602052600080516020613e4f8339815191525490565b6000908152606b602052604090205490565b6071602052600090815260409020546001600160a01b031681565b6006600052606b602052600080516020613d4b833981519152548114611fbc576040805162461bcd60e51b815260206004820152600d60248201526c496e76616c696420707269636560981b604482015290519081900360640190fd5b60066000908152606b602052600080516020613d4b83398151915254611fe49133919061331f565b60066000908152606a6020527f2bc834ff3bba3d80acb54a3bdc4d46c19ade4e4f4db21022926ce2a8be43777a54604080516309a6ea2560e31b81523360048201526001602482015290516001600160a01b0390921692634d3751289260448084019382900301818387803b158015610fed57600080fd5b6001600052606c6020527fdcf345d7f6a8deb7427d0fee62009fa15100353a1c666b51bb5387b25addcfa95480156120f7576002600052606c6020527f10c710fd141eb7b17da922e1c4c969d8a9a32bbe01938fd92b572aa39acba481546120c357600080fd5b6002600052606c6020527f10c710fd141eb7b17da922e1c4c969d8a9a32bbe01938fd92b572aa39acba48180546000190190555b6003600090815260716020527fc44b7d8f05f19024d2a21c9d552e7ceb275bf297b5fbc3c41c0a2ac942248cd154604080516a14d21251531117d4d1515160aa1b8152905190819003600b0190206001600160a01b039091169063fd4cc5c49033906121639086613489565b604080516001600160e01b031960e086901b1681526001600160a01b03909316600484015260248301919091526001604483015260006064830181905290516084808401936020939083900390910190829087803b1580156121c457600080fd5b505af11580156121d8573d6000803e3d6000fd5b505050506040513d60208110156121ee57600080fd5b505160685460408051630ab714fb60e11b8152336004820152602481018690526044810184905290519293506001600160a01b039091169163156e29f6916064808201926020929091908290030181600087803b15801561224e57600080fd5b505af1158015612262573d6000803e3d6000fd5b505050506040513d602081101561227857600080fd5b50505050565b600082815260336020526040812061229c908363ffffffff6136b416565b90505b92915050565b600082815260336020526040812061229c908363ffffffff6136c016565b63ffffffff166000908152600080516020613e6f833981519152602052604090205490565b606f60209081526000928352604080842090915290825290205481565b6003600090815260716020527fc44b7d8f05f19024d2a21c9d552e7ceb275bf297b5fbc3c41c0a2ac942248cd1546001600160a01b03166378f508493361234c8686613489565b6040518363ffffffff1660e01b815260040180836001600160a01b03166001600160a01b031681526020018281526020019250505060206040518083038186803b15801561239957600080fd5b505afa1580156123ad573d6000803e3d6000fd5b505050506040513d60208110156123c357600080fd5b50519392505050565b6068546001600160a01b031681565b6001600052606b602052600080516020613d2b8339815191525490565b600681565b606e546001600160a01b031681565b606b6020526000908152604090205481565b6124296000336122a5565b612466576040805162461bcd60e51b81526020600482015260096024820152682737ba1030b236b4b760b91b604482015290519081900360640190fd5b61169b6001600160a01b038316338363ffffffff6136d516565b6002600052606b602052600080516020613e4f8339815191525481146124dd576040805162461bcd60e51b815260206004820152600d60248201526c496e76616c696420707269636560981b604482015290519081900360640190fd5b60026000908152606b602052600080516020613e4f833981519152546125059133919061331f565b60026000908152606a6020527f18c8cb20752177317b25472820acbe91cedcc3d2bcb99162a7a3edff04a1bf3f54604080516309a6ea2560e31b81523360048201526001602482015290516001600160a01b0390921692634d3751289260448084019382900301818387803b158015610fed57600080fd5b61258561343f565b60008263ffffffff1611801561259b5750600081115b6125de576040805162461bcd60e51b815260206004820152600f60248201526e1a5b9d985b1a59081c995c5d595cdd608a1b604482015290519081900360640190fd5b63ffffffff9091166000908152600080516020613e6f8339815191526020526040902055565b6065546001600160a01b031681565b600061261e82613211565b6000838152606f6020908152604080832087845290915290205402905092915050565b61264c6000336122a5565b612689576040805162461bcd60e51b81526020600482015260096024820152682737ba1030b236b4b760b91b604482015290519081900360640190fd5b7ff585789965ba69220d5ce3dc1b444eb22ff546f2650694fef8fafe9c26560af980546001600160a01b03199081166001600160a01b03978816179091557f18c8cb20752177317b25472820acbe91cedcc3d2bcb99162a7a3edff04a1bf3f80548216978716979097179096557f165f0fc496c6f74e1376579ffc36bcfc90ef4779c44b9232cf0d606db3cc69d180548716948616949094179093557f4a9a49808009f9d4fd675708985b79ca45a9711808670d5c7929ee09c0aa2e6e80548616928516929092179091557fa5a863a6e87c617d261de6bc343a49a7006a56c5a168ec687d4bc4027b10d67d805485169184169190911790557f2bc834ff3bba3d80acb54a3bdc4d46c19ade4e4f4db21022926ce2a8be43777a80549093169116179055606b60205267016345785d8a0000600080516020613d2b833981519152819055600080516020613e4f833981519152556702c68af0bb140000600080516020613e2f833981519152819055600080516020613d0b833981519152819055600080516020613d918339815191528190556006600052600080516020613d4b83398151915255565b6066546001600160a01b031681565b6004600052606b602052600080516020613d0b83398151915254811461289f576040805162461bcd60e51b815260206004820152600d60248201526c496e76616c696420707269636560981b604482015290519081900360640190fd5b60046000908152606b602052600080516020613d0b833981519152546128c79133919061331f565b60046000818152606a6020527f4a9a49808009f9d4fd675708985b79ca45a9711808670d5c7929ee09c0aa2e6e54604080516309a6ea2560e31b8152339481019490945260016024850152516001600160a01b0390911692634d37512892604480830193919282900301818387803b158015610fed57600080fd5b6069546001600160a01b031681565b6000918252606d6020908152604080842092845291905290205490565b63ffffffff166000908152600080516020613db1833981519152602052604090205490565b604080516a14d21251531117d4d1515160aa1b8152905190819003600b01902081565b600081815260336020526040812061229f90613727565b6000908152607060205260409020546001600160a01b031690565b6000612a3b606e60009054906101000a90046001600160a01b03166001600160a01b03166334f054206040518163ffffffff1660e01b815260040160206040518083038186803b1580156110f357600080fd5b9050600084118015612a4c57508381145b612a8d576040805162461bcd60e51b815260206004820152600d60248201526c496e76616c696420707269636560981b604482015290519081900360640190fd5b612a9833828461331f565b606e54604080516361c31f7160e01b81523360048201526024810186905290516001600160a01b03909216916361c31f719160448082019260009290919082900301818387803b158015612aeb57600080fd5b505af1158015612aff573d6000803e3d6000fd5b50505050336001600160a01b03167f05b2506e8008d97a1714995cb312c9e597fe5a4d41e50d3410a28653e2065c9c606e60009054906101000a90046001600160a01b03166001600160a01b03166334f054206040518163ffffffff1660e01b815260040160206040518083038186803b15801561126657600080fd5b6001600052606b602052600080516020613d2b833981519152548114612bd9576040805162461bcd60e51b815260206004820152600d60248201526c496e76616c696420707269636560981b604482015290519081900360640190fd5b60016000908152606b602052600080516020613d2b83398151915254612c019133919061331f565b60016000818152606a6020527ff585789965ba69220d5ce3dc1b444eb22ff546f2650694fef8fafe9c26560af954604080516309a6ea2560e31b81523360048201526024810194909452516001600160a01b0390911692634d37512892604480830193919282900301818387803b158015610fed57600080fd5b600481565b600082815260336020526040902060020154612c9e9061165161350f565b6116fb5760405162461bcd60e51b8152600401808060200182810382526030815260200180613dd16030913960400191505060405180910390fd5b600081118015612d0a575063ffffffff82166000908152600080516020613db1833981519152602052604090205481145b612d4b576040805162461bcd60e51b815260206004820152600d60248201526c496e76616c696420707269636560981b604482015290519081900360640190fd5b63ffffffff82166000908152600080516020613db18339815191526020526040812054612d7a9133919061331f565b60086000908152606a6020527fb8383e69e9d31515f193f40bb66d9cbca6eb245866b7aa96b97eaabdb765ed1854604080516304cf925d60e21b815233600482015263ffffffff861660248201526001604482015290516001600160a01b039092169263133e49749260648084019382900301818387803b15801561193357600080fd5b600381565b6000612e56606e60009054906101000a90046001600160a01b03166001600160a01b0316631928ada46040518163ffffffff1660e01b815260040160206040518083038186803b1580156110f357600080fd5b9050600083118015612e6757508281145b612ea8576040805162461bcd60e51b815260206004820152600d60248201526c496e76616c696420707269636560981b604482015290519081900360640190fd5b612eb333828461331f565b606e5460408051638453f58b60e01b815233600482015290516001600160a01b0390921691638453f58b9160248082019260009290919082900301818387803b158015612eff57600080fd5b505af1158015612f13573d6000803e3d6000fd5b50505050336001600160a01b03167f05b2506e8008d97a1714995cb312c9e597fe5a4d41e50d3410a28653e2065c9c606e60009054906101000a90046001600160a01b03166001600160a01b0316631928ada46040518163ffffffff1660e01b815260040160206040518083038186803b158015612f9057600080fd5b505afa158015612fa4573d6000803e3d6000fd5b505050506040513d6020811015612fba57600080fd5b50516040805191825260208201859052818101869052519081900360600190a2505050565b6000908152606a60205260409020546001600160a01b031690565b6130056000336122a5565b613042576040805162461bcd60e51b81526020600482015260096024820152682737ba1030b236b4b760b91b604482015290519081900360640190fd5b606680546001600160a01b0319166001600160a01b0392909216919091179055565b6000908152606c602052604090205490565b600581565b6002600052606b602052600080516020613e4f8339815191525460030281146130db576040805162461bcd60e51b815260206004820152600d60248201526c496e76616c696420707269636560981b604482015290519081900360640190fd5b60026000908152606b602052600080516020613e4f833981519152546131069133916003029061331f565b60026000908152606a6020527f18c8cb20752177317b25472820acbe91cedcc3d2bcb99162a7a3edff04a1bf3f54604080516309a6ea2560e31b815233600482810191909152602482015290516001600160a01b0390921692634d3751289260448084019382900301818387803b158015610fed57600080fd5b61318b6000336122a5565b6131c8576040805162461bcd60e51b81526020600482015260096024820152682737ba1030b236b4b760b91b604482015290519081900360640190fd5b606880546001600160a01b039384166001600160a01b03199182161790915560698054929093169116179055565b606a602052600090815260409020546001600160a01b031681565b6000816132b5576001600052607160209081527f169c6be1b0e6ab5de76b532e587a77340130ac65c5591db02be822dcf1dc0ed65460408051634e8da32560e11b815290516001600160a01b0390921692639d1b464a92600480840193829003018186803b15801561328257600080fd5b505afa158015613296573d6000803e3d6000fd5b505050506040513d60208110156132ac57600080fd5b50519050611489565b6002600052607160209081527f407a0f41a795ee56754450306f8233d035a9d8585a6839c0ed097e1e0ca2dc4b5460408051634e8da32560e11b815290516001600160a01b0390921692639d1b464a92600480840193829003018186803b15801561328257600080fd5b806133ac5760695460408051630cc41c0560e21b81526001600160a01b038681166004830152602482018690529151919092169163331070149160448083019260809291908290030181600087803b15801561337a57600080fd5b505af115801561338e573d6000803e3d6000fd5b505050506040513d60808110156133a457600080fd5b50611a929050565b60008181526070602090815260408083205481516323b872dd60e01b81526001600160a01b03888116600483015230602483015260448201889052925192909116936323b872dd9360648084019491939192918390030190829087803b15801561341557600080fd5b505af1158015613429573d6000803e3d6000fd5b505050506040513d602081101561100157600080fd5b61344a6000336122a5565b613487576040805162461bcd60e51b81526020600482015260096024820152682737ba1030b236b4b760b91b604482015290519081900360640190fd5b565b604080516003808252608082019092526000916060919060208201838036833701905050905083816000815181106134bd57fe5b6020026020010181815250506001816001815181106134d857fe5b60200260200101818152505082816002815181106134f257fe5b60200260200101818152505061350781613732565b949350505050565b3390565b6000828152603360205260409020613531908263ffffffff61378f16565b1561169b5761353e61350f565b6001600160a01b0316816001600160a01b0316837f2f8788117e7eff1d82e926ec794901d17c78024a50270940304540a733656f0d60405160405180910390a45050565b60008281526033602052604090206135a0908263ffffffff6137a416565b1561169b576135ad61350f565b6001600160a01b0316816001600160a01b0316837ff6391f5c32d9c69d2a47ea670b442974b53935d1edc7fd64eb21e047a839171b60405160405180910390a45050565b60006135fc306137b9565b15905090565b600054610100900460ff168061361b575061361b6135f1565b80613629575060005460ff16155b6136645760405162461bcd60e51b815260040180806020018281038252602e815260200180613e01602e913960400191505060405180910390fd5b600054610100900460ff1615801561368f576000805460ff1961ff0019909116610100171660011790555b6136976137bf565b61369f6137bf565b80156136b1576000805461ff00191690555b50565b600061229c838361385f565b600061229c836001600160a01b0384166138c3565b604080516001600160a01b038416602482015260448082018490528251808303909101815260649091019091526020810180516001600160e01b031663a9059cbb60e01b179052611a929084906138db565b600061229f8261398c565b60008160405160200180828051906020019060200280838360005b8381101561376557818101518382015260200161374d565b505050509050019150506040516020818303038152906040528051906020012060001c9050919050565b600061229c836001600160a01b038416613990565b600061229c836001600160a01b0384166139da565b3b151590565b600054610100900460ff16806137d857506137d86135f1565b806137e6575060005460ff16155b6138215760405162461bcd60e51b815260040180806020018281038252602e815260200180613e01602e913960400191505060405180910390fd5b600054610100900460ff1615801561369f576000805460ff1961ff00199091166101001716600117905580156136b1576000805461ff001916905550565b815460009082106138a15760405162461bcd60e51b8152600401808060200182810382526022815260200180613cba6022913960400191505060405180910390fd5b8260000182815481106138b057fe5b9060005260206000200154905092915050565b60009081526001919091016020526040902054151590565b6060613930826040518060400160405280602081526020017f5361666545524332303a206c6f772d6c6576656c2063616c6c206661696c6564815250856001600160a01b0316613aa09092919063ffffffff16565b805190915015611a925780806020019051602081101561394f57600080fd5b5051611a925760405162461bcd60e51b815260040180806020018281038252602a815260200180613e8f602a913960400191505060405180910390fd5b5490565b600061399c83836138c3565b6139d25750815460018181018455600084815260208082209093018490558454848252828601909352604090209190915561229f565b50600061229f565b60008181526001830160205260408120548015613a965783546000198083019190810190600090879083908110613a0d57fe5b9060005260206000200154905080876000018481548110613a2a57fe5b600091825260208083209091019290925582815260018981019092526040902090840190558654879080613a5a57fe5b6001900381819060005260206000200160009055905586600101600087815260200190815260200160002060009055600194505050505061229f565b600091505061229f565b6060613aaf8484600085613ab9565b90505b9392505050565b606082471015613afa5760405162461bcd60e51b8152600401808060200182810382526026815260200180613d6b6026913960400191505060405180910390fd5b613b03856137b9565b613b54576040805162461bcd60e51b815260206004820152601d60248201527f416464726573733a2063616c6c20746f206e6f6e2d636f6e7472616374000000604482015290519081900360640190fd5b60006060866001600160a01b031685876040518082805190602001908083835b60208310613b935780518252601f199092019160209182019101613b74565b6001836020036101000a03801982511681845116808217855250505050505090500191505060006040518083038185875af1925050503d8060008114613bf5576040519150601f19603f3d011682016040523d82523d6000602084013e613bfa565b606091505b5091509150613c0a828286613c15565b979650505050505050565b60608315613c24575081613ab2565b825115613c345782518084602001fd5b8160405162461bcd60e51b81526004018080602001828103825283818151815260200191508051906020019080838360005b83811015613c7e578181015183820152602001613c66565b50505050905090810190601f168015613cab5780820380516001836020036101000a031916815260200191505b509250505060405180910390fdfe456e756d657261626c655365743a20696e646578206f7574206f6620626f756e6473416363657373436f6e74726f6c3a2073656e646572206d75737420626520616e2061646d696e20746f206772616e74f0ae10cbc4b7e5d41a3a6c7f530e4919b2e487e56976cad1b0bf6c5c77e67915a775687211c2b3346a0f5a2a0e7590e6c1838453e3785e6dd2a8efd6265ddf156796320b8e2c9b173941a03e2e3a92bfaece7583011e9e3f639fd17445641da7416464726573733a20696e73756666696369656e742062616c616e636520666f722063616c6c4c3f232ddb73d929a78df2f30606bfd05ea9acc478c461d082d1d84494100a58d35fb35c5ddada1fd380c631c8ea483dcb01db1ec428be98b90f130c9cf9a368416363657373436f6e74726f6c3a2073656e646572206d75737420626520616e2061646d696e20746f207265766f6b65496e697469616c697a61626c653a20636f6e747261637420697320616c726561647920696e697469616c697a65644e5c7e8f4b1f6c9808b80aae6c41bbd046930d99f67f4e24136b55524acbcb0eb507b92927105c30ff6e8afc661972d5ba73e86e28bafa70cb531ddda52bdf047cbf0039808492e2b98de94b6e6fc8c1c5c16d45085ac5be065e94b3e81d442d5361666545524332303a204552433230206f7065726174696f6e20646964206e6f742073756363656564416363657373436f6e74726f6c3a2063616e206f6e6c792072656e6f756e636520726f6c657320666f722073656c66a264697066735822122072a711de236997810a54adab6704d198f3d849c782e5f530b572265a707d171b64736f6c63430006050033","immutableReferences":{},"source":"pragma solidity ^0.6.5;\n\nimport \"@openzeppelin/contracts-upgradeable/proxy/Initializable.sol\";\nimport \"@openzeppelin/contracts-upgradeable/access/AccessControlUpgradeable.sol\";\nimport \"@openzeppelin/contracts/token/ERC20/IERC20.sol\";\nimport \"@openzeppelin/contracts/token/ERC20/SafeERC20.sol\";\nimport \"./interfaces/IPriceOracle.sol\";\nimport \"./interfaces/IRandoms.sol\";\nimport \"./shields.sol\";\nimport \"./Consumables.sol\";\nimport \"./Cosmetics.sol\";\nimport \"./weapons.sol\";\nimport \"./cryptoblades.sol\";\nimport \"./CBKLandSale.sol\";\n\ncontract Blacksmith is Initializable, AccessControlUpgradeable {\n    using SafeERC20 for IERC20;\n    /* ========== CONSTANTS ========== */\n\n    bytes32 public constant GAME = keccak256(\"GAME\");\n    bytes32 public constant SHIELD_SEED = keccak256(\"SHIELD_SEED\");\n\n    uint256 public constant ITEM_WEAPON_RENAME = 1;\n    uint256 public constant ITEM_CHARACTER_RENAME = 2;\n    uint256 public constant ITEM_CHARACTER_TRAITCHANGE_FIRE = 3;\n    uint256 public constant ITEM_CHARACTER_TRAITCHANGE_EARTH = 4;\n    uint256 public constant ITEM_CHARACTER_TRAITCHANGE_WATER = 5;\n    uint256 public constant ITEM_CHARACTER_TRAITCHANGE_LIGHTNING = 6;\n    uint256 public constant ITEM_COSMETIC_WEAPON = 7; // series\n    uint256 public constant ITEM_COSMETIC_CHARACTER = 8; // series\n    uint256 public constant ITEM_SHIELD = 9;\n\n    uint256 public constant VAR_PURCHASE_SHIELD_TYPE = 1;\n    uint256 public constant VAR_PURCHASE_SHIELD_SUPPLY = 2; // only for non-0 type shields\n\n    uint256 public constant LINK_SKILL_ORACLE_2 = 1; // technically second skill oracle (it's separate)\n    uint256 public constant LINK_KING_ORACLE = 2;\n    uint256 public constant LINK_SAFE_RANDOMS = 3;\n\n    uint256 public constant CURRENCY_SKILL = 0;\n    //uint256 public constant CURRENCY_KING = 1; // not referenced atm\n\n    /* ========== STATE VARIABLES ========== */\n\n    Weapons public weapons;\n    IRandoms public randoms;\n\n    mapping(address => uint32) public tickets;\n\n    Shields public shields;\n    CryptoBlades public game;\n\n\n    // keys: ITEM_ constant\n    mapping(uint256 => address) public itemAddresses;\n    mapping(uint256 => uint256) public itemFlatPrices;\n\n    mapping(uint256 => uint256) public numberParameters; // AKA \"vars\"\n\n    mapping(uint256 => mapping(uint256 => uint256)) public itemSeriesFlatPrices;\n    CBKLandSale public cbkLandSale;\n    // ERC20 => tier => price\n    mapping(uint256 => mapping(uint256 => uint256)) public landPrices;\n    mapping(uint256 => address) currencies;\n\n    mapping(uint256 => address) public links;\n\n    /* ========== INITIALIZERS AND MIGRATORS ========== */\n\n    function initialize(Weapons _weapons, IRandoms _randoms)\n        public\n        initializer\n    {\n        __AccessControl_init();\n\n        _setupRole(DEFAULT_ADMIN_ROLE, msg.sender);\n\n        weapons = _weapons;\n        randoms = _randoms;\n    }\n\n    function migrateRandoms(IRandoms _newRandoms) external {\n        require(hasRole(DEFAULT_ADMIN_ROLE, msg.sender), \"Not admin\");\n        randoms = _newRandoms;\n    }\n\n    function migrateTo_61c10da(Shields _shields, CryptoBlades _game) external {\n        require(hasRole(DEFAULT_ADMIN_ROLE, msg.sender), \"Not admin\");\n\n        shields = _shields;\n        game = _game;\n    }\n\n    function migrateTo_16884dd(\n        address _characterRename,\n        address _weaponRename,\n        address _charFireTraitChange,\n        address _charEarthTraitChange,\n        address _charWaterTraitChange,\n        address _charLightningTraitChange\n    ) external {\n        require(hasRole(DEFAULT_ADMIN_ROLE, msg.sender), \"Not admin\");\n        itemAddresses[ITEM_WEAPON_RENAME] = _weaponRename;\n        itemAddresses[ITEM_CHARACTER_RENAME] = _characterRename;\n        itemAddresses[ITEM_CHARACTER_TRAITCHANGE_FIRE] = _charFireTraitChange;\n        itemAddresses[ITEM_CHARACTER_TRAITCHANGE_EARTH] = _charEarthTraitChange;\n        itemAddresses[ITEM_CHARACTER_TRAITCHANGE_WATER] = _charWaterTraitChange;\n        itemAddresses[ITEM_CHARACTER_TRAITCHANGE_LIGHTNING] = _charLightningTraitChange;\n\n        itemFlatPrices[ITEM_WEAPON_RENAME] = 0.1 ether;\n        itemFlatPrices[ITEM_CHARACTER_RENAME] = 0.1 ether;\n        itemFlatPrices[ITEM_CHARACTER_TRAITCHANGE_FIRE] = 0.2 ether;\n        itemFlatPrices[ITEM_CHARACTER_TRAITCHANGE_EARTH] = 0.2 ether;\n        itemFlatPrices[ITEM_CHARACTER_TRAITCHANGE_WATER] = 0.2 ether;\n        itemFlatPrices[ITEM_CHARACTER_TRAITCHANGE_LIGHTNING] = 0.2 ether;\n    }\n\n    function migrateTo_bcdf4c(CBKLandSale _cbkLandSale) external {\n        require(hasRole(DEFAULT_ADMIN_ROLE, msg.sender), \"Not admin\");\n\n        cbkLandSale = _cbkLandSale;\n    }\n\n    /* ========== VIEWS ========== */\n\n    /* ========== MUTATIVE FUNCTIONS ========== */\n\n    function recoverToken(address tokenAddress, uint256 amount) public {\n        require(hasRole(DEFAULT_ADMIN_ROLE, msg.sender), \"Not admin\");\n\n        IERC20(tokenAddress).safeTransfer(msg.sender, amount);\n    }\n\n    function getSeed(uint seedId, uint shieldType) internal pure returns (uint256 seed) {\n        uint[] memory seeds = new uint[](3);\n        seeds[0] = seedId;\n        seeds[1] = uint(1);\n        seeds[2] = shieldType;\n        seed = RandomUtil.combineSeeds(seeds);\n    }\n\n    function hasSeed(uint seedId, uint shieldType) public view returns (bool) {\n        return SafeRandoms(links[LINK_SAFE_RANDOMS]).hasSingleSeedRequest(msg.sender, getSeed(seedId, shieldType));\n    }\n\n    function generateShieldSeed() external {\n        require(itemFlatPrices[ITEM_SHIELD] > 0);\n        uint256 shieldType = numberParameters[VAR_PURCHASE_SHIELD_TYPE];\n        payCurrency(msg.sender, itemFlatPrices[ITEM_SHIELD], CURRENCY_SKILL);\n        SafeRandoms(links[LINK_SAFE_RANDOMS]).requestSingleSeed(msg.sender, getSeed(uint(SHIELD_SEED), shieldType));\n    }\n\n    function claimShield() external {\n        uint256 shieldType = numberParameters[VAR_PURCHASE_SHIELD_TYPE];\n        if(shieldType != 0) {\n            require(numberParameters[VAR_PURCHASE_SHIELD_SUPPLY] > 0);\n            numberParameters[VAR_PURCHASE_SHIELD_SUPPLY] -= 1;\n        }\n        uint256 seed = SafeRandoms(links[LINK_SAFE_RANDOMS]).popSingleSeed(msg.sender, getSeed(uint(SHIELD_SEED), shieldType), true, false);\n        shields.mint(msg.sender, shieldType, seed);\n    }\n\n    /* ========== MODIFIERS ========== */\n\n    modifier onlyGame() {\n        require(hasRole(GAME, msg.sender), \"Only game\");\n        _;\n    }\n\n    modifier isAdmin() {\n         _isAdmin();\n        _;\n    }\n\n    function _isAdmin() internal view {\n         require(hasRole(DEFAULT_ADMIN_ROLE, msg.sender), \"Not admin\");\n    }\n\n    /* ========== Generic Getters ========== */\n\n    function getAddressOfItem(uint256 itemIndex) public view returns(address) {\n        return itemAddresses[itemIndex];\n    }\n\n    function getFlatPriceOfItem(uint256 itemIndex) public view returns(uint256) {\n        return itemFlatPrices[itemIndex];\n    }\n\n    function getFlatPriceOfSeriesItem(uint256 itemIndex, uint256 seriesIndex) public view returns(uint256) {\n        return itemSeriesFlatPrices[itemIndex][seriesIndex];\n    }\n\n    function getCurrency(uint256 currency) public view returns (address) {\n        return currencies[currency];\n    }\n\n    function vars(uint256 varField) public view returns (uint256) {\n        return numberParameters[varField];\n    }\n\n    /* ========== Generic Setters ========== */\n\n    function setAddressOfItem(uint256 itemIndex, address to) external isAdmin {\n        itemAddresses[itemIndex] = to;\n    }\n\n    function setFlatPriceOfItem(uint256 itemIndex, uint256 flatWeiPrice) external isAdmin {\n        itemFlatPrices[itemIndex] = flatWeiPrice;\n    }\n\n    function setFlatPriceOfItemSeries(uint256 itemIndex,\n        uint256[] calldata seriesIndices,\n        uint256[] calldata seriesPrices\n    ) external isAdmin {\n        for(uint i = 0; i < seriesIndices.length; i++) {\n            itemSeriesFlatPrices[itemIndex][seriesIndices[i]] = seriesPrices[i];\n        }\n    }\n\n    function setCurrency(uint256 currency, address currencyAddress, bool forced) external isAdmin {\n        require(currency > 0 && (forced || currencies[currency] == address(0)), 'used');\n        currencies[currency] = currencyAddress;\n    }\n\n    function setLink(uint256 linkId, address linkAddress) external isAdmin {\n        links[linkId] = linkAddress;\n    }\n\n    function setVar(uint256 varField, uint256 value) external isAdmin {\n        numberParameters[varField] = value;\n    }\n\n    function setVars(uint256[] calldata varFields, uint256[] calldata values) external isAdmin {\n        for(uint i = 0; i < varFields.length; i++) {\n            numberParameters[varFields[i]] = values[i];\n        }\n    }\n\n    /* ========== Character Rename ========== */\n\n    function setCharacterRenamePrice(uint256 newPrice) external isAdmin {\n        require(newPrice > 0, 'invalid price');\n        itemFlatPrices[ITEM_CHARACTER_RENAME] = newPrice;\n    }\n\n    function characterRenamePrice() public view returns (uint256){\n        return itemFlatPrices[ITEM_CHARACTER_RENAME];\n    }\n\n    function purchaseCharacterRenameTag(uint256 paying) public {\n        require(paying == itemFlatPrices[ITEM_CHARACTER_RENAME], 'Invalid price');\n        payCurrency(msg.sender, itemFlatPrices[ITEM_CHARACTER_RENAME], CURRENCY_SKILL);\n        Consumables(itemAddresses[ITEM_CHARACTER_RENAME]).giveItem(msg.sender, 1);\n    }\n\n    function purchaseCharacterRenameTagDeal(uint256 paying) public { // 4 for the price of 3\n        require(paying == itemFlatPrices[ITEM_CHARACTER_RENAME] * 3, 'Invalid price');\n        payCurrency(msg.sender, itemFlatPrices[ITEM_CHARACTER_RENAME] * 3, CURRENCY_SKILL);\n        Consumables(itemAddresses[ITEM_CHARACTER_RENAME]).giveItem(msg.sender, 4);\n    }\n\n    /* ========== Weapon Rename ========== */\n\n    function setWeaponRenamePrice(uint256 newPrice) external isAdmin {\n        require(newPrice > 0, 'invalid price');\n        itemFlatPrices[ITEM_WEAPON_RENAME] = newPrice;\n    }\n\n    function weaponRenamePrice() public view returns (uint256){\n        return itemFlatPrices[ITEM_WEAPON_RENAME];\n    }\n\n    function purchaseWeaponRenameTag(uint256 paying) public {\n        require(paying == itemFlatPrices[ITEM_WEAPON_RENAME], 'Invalid price');\n        payCurrency(msg.sender, itemFlatPrices[ITEM_WEAPON_RENAME], CURRENCY_SKILL);\n        Consumables(itemAddresses[ITEM_WEAPON_RENAME]).giveItem(msg.sender, 1);\n    }\n\n    function purchaseWeaponRenameTagDeal(uint256 paying) public { // 4 for the price of 3\n        require(paying == itemFlatPrices[ITEM_WEAPON_RENAME] * 3, 'Invalid price');\n        payCurrency(msg.sender, itemFlatPrices[ITEM_WEAPON_RENAME] * 3, CURRENCY_SKILL);\n        Consumables(itemAddresses[ITEM_WEAPON_RENAME]).giveItem(msg.sender, 4);\n    }\n\n     /* ========== Character Trait Change ========== */\n\n     function setCharacterTraitChangePrice(uint256 newPrice) external isAdmin {\n        require(newPrice > 0, 'invalid price');\n        itemFlatPrices[ITEM_CHARACTER_TRAITCHANGE_FIRE] = newPrice;\n        itemFlatPrices[ITEM_CHARACTER_TRAITCHANGE_EARTH] = newPrice;\n        itemFlatPrices[ITEM_CHARACTER_TRAITCHANGE_WATER] = newPrice;\n        itemFlatPrices[ITEM_CHARACTER_TRAITCHANGE_LIGHTNING] = newPrice;\n    }\n\n     function characterTraitChangePrice() public view returns (uint256){\n        return itemFlatPrices[ITEM_CHARACTER_TRAITCHANGE_FIRE];\n    }\n\n    function purchaseCharacterFireTraitChange(uint256 paying) public {\n        require(paying == itemFlatPrices[ITEM_CHARACTER_TRAITCHANGE_FIRE], 'Invalid price');\n        payCurrency(msg.sender, itemFlatPrices[ITEM_CHARACTER_TRAITCHANGE_FIRE], CURRENCY_SKILL);\n        Consumables(itemAddresses[ITEM_CHARACTER_TRAITCHANGE_FIRE]).giveItem(msg.sender, 1);\n    }\n\n    function purchaseCharacterEarthTraitChange(uint256 paying) public {\n        require(paying == itemFlatPrices[ITEM_CHARACTER_TRAITCHANGE_EARTH], 'Invalid price');\n        payCurrency(msg.sender, itemFlatPrices[ITEM_CHARACTER_TRAITCHANGE_EARTH], CURRENCY_SKILL);\n        Consumables(itemAddresses[ITEM_CHARACTER_TRAITCHANGE_EARTH]).giveItem(msg.sender, 1);\n    }\n\n    function purchaseCharacterWaterTraitChange(uint256 paying) public {\n        require(paying == itemFlatPrices[ITEM_CHARACTER_TRAITCHANGE_WATER], 'Invalid price');\n        payCurrency(msg.sender, itemFlatPrices[ITEM_CHARACTER_TRAITCHANGE_WATER], CURRENCY_SKILL);\n        Consumables(itemAddresses[ITEM_CHARACTER_TRAITCHANGE_WATER]).giveItem(msg.sender, 1);\n    }\n\n    function purchaseCharacterLightningTraitChange(uint256 paying) public {\n        require(paying == itemFlatPrices[ITEM_CHARACTER_TRAITCHANGE_LIGHTNING], 'Invalid price');\n        payCurrency(msg.sender, itemFlatPrices[ITEM_CHARACTER_TRAITCHANGE_LIGHTNING], CURRENCY_SKILL);\n        Consumables(itemAddresses[ITEM_CHARACTER_TRAITCHANGE_LIGHTNING]).giveItem(msg.sender, 1);\n    }\n\n\n    /* ========== Weapon cosmetics ========== */\n    function setWeaponCosmeticPrice(uint32 cosmetic, uint256 newPrice) external isAdmin {\n        require(cosmetic > 0 && newPrice > 0, 'invalid request');\n        itemSeriesFlatPrices[ITEM_COSMETIC_WEAPON][cosmetic] = newPrice;\n    }\n\n     function getWeaponCosmeticPrice(uint32 cosmetic) public view returns (uint256){\n        return itemSeriesFlatPrices[ITEM_COSMETIC_WEAPON][cosmetic];\n    }\n\n    function purchaseWeaponCosmetic(uint32 cosmetic, uint256 paying) public {\n        require(paying > 0 && paying == itemSeriesFlatPrices[ITEM_COSMETIC_WEAPON][cosmetic], 'Invalid price');\n        payCurrency(msg.sender, itemSeriesFlatPrices[ITEM_COSMETIC_WEAPON][cosmetic], CURRENCY_SKILL);\n        Cosmetics(itemAddresses[ITEM_COSMETIC_WEAPON]).giveCosmetic(msg.sender, cosmetic, 1);\n    }\n\n    /* ========== Character cosmetics ========== */\n    function setCharacterCosmeticPrice(uint32 cosmetic, uint256 newPrice) external isAdmin {\n        require(cosmetic > 0 && newPrice > 0, 'invalid request');\n        itemSeriesFlatPrices[ITEM_COSMETIC_CHARACTER][cosmetic] = newPrice;\n    }\n\n     function getCharacterCosmeticPrice(uint32 cosmetic) public view returns (uint256){\n        return itemSeriesFlatPrices[ITEM_COSMETIC_CHARACTER][cosmetic];\n    }\n\n    function purchaseCharacterCosmetic(uint32 cosmetic, uint256 paying) public {\n        require(paying > 0 && paying == itemSeriesFlatPrices[ITEM_COSMETIC_CHARACTER][cosmetic], 'Invalid price');\n        payCurrency(msg.sender, itemSeriesFlatPrices[ITEM_COSMETIC_CHARACTER][cosmetic], CURRENCY_SKILL);\n        Cosmetics(itemAddresses[ITEM_COSMETIC_CHARACTER]).giveCosmetic(msg.sender, cosmetic, 1);\n    }\n\n    /* ========== CBK Land sale ========== */\n\n    event CBKLandPurchased(address indexed owner, uint256 tier, uint256 price, uint256 currency);\n\n    function purchaseT1CBKLand(uint256 paying, uint256 currency) public {\n        uint256 price = getCBKLandPrice(cbkLandSale.TIER_ONE(), currency);\n        require(paying > 0 && price == paying, 'Invalid price');\n        payCurrency(msg.sender, price, currency);\n        cbkLandSale.giveT1Land(msg.sender);\n        emit CBKLandPurchased(msg.sender, cbkLandSale.TIER_ONE(), price, currency);\n    }\n\n    function purchaseT2CBKLand(uint256 paying, uint256 chunkId, uint256 currency) public {\n        uint256 price = getCBKLandPrice(cbkLandSale.TIER_TWO(), currency);\n        require(paying > 0 && price == paying,  'Invalid price');\n        payCurrency(msg.sender, price, currency);\n        cbkLandSale.giveT2Land(msg.sender, chunkId);\n        emit CBKLandPurchased(msg.sender, cbkLandSale.TIER_TWO(), price, currency);\n    }\n\n    function purchaseT3CBKLand(uint256 paying, uint256 chunkId, uint256 currency) public {\n        uint256 price = getCBKLandPrice(cbkLandSale.TIER_THREE(), currency);\n        require(paying > 0 && price == paying, 'Invalid price');\n        payCurrency(msg.sender, price, currency);\n        cbkLandSale.giveT3Land(msg.sender, chunkId);\n        emit CBKLandPurchased(msg.sender, cbkLandSale.TIER_THREE(), price, currency);\n    }\n\n    function getCBKLandPrice(uint256 tier, uint256 currency) public view returns (uint256){\n        return landPrices[currency][tier] * getOracledTokenPerUSD(currency);\n    }\n\n    function getOracledTokenPerUSD(uint256 currency) public view returns (uint256) {\n        if(currency == CURRENCY_SKILL) {\n            return IPriceOracle(links[LINK_SKILL_ORACLE_2]).currentPrice();\n        }\n        else {\n            return IPriceOracle(links[LINK_KING_ORACLE]).currentPrice();\n        }\n    }\n\n    function setCBKLandPrice(uint256 tier, uint256 newPrice, uint256 currency) external isAdmin {\n        require(newPrice > 0, 'invalid price');\n        require(tier >= cbkLandSale.TIER_ONE() && tier <= cbkLandSale.TIER_THREE(), \"Invalid tier\");\n        landPrices[currency][tier] = newPrice;\n    }\n\n    function payCurrency(address payer, uint256 paying, uint256 currency) internal {\n        if(currency == CURRENCY_SKILL){\n             game.payContractConvertedSupportingStaked(payer, paying);\n        }\n        else {\n            IERC20(currencies[currency]).transferFrom(payer, address(this), paying);\n        }\n    }\n}\n","sourcePath":"/home/runner/work/cryptoblades/cryptoblades/contracts/Blacksmith.sol","compiler":{"name":"solc","version":"0.6.5+commit.f956cc89.Emscripten.clang"},"schemaVersion":"3.3.4","updatedAt":"2023-07-14T16:11:43.001Z","devdoc":{"methods":{"getRoleAdmin(bytes32)":{"details":"Returns the admin role that controls `role`. See {grantRole} and {revokeRole}.     * To change a role's admin, use {_setRoleAdmin}."},"getRoleMember(bytes32,uint256)":{"details":"Returns one of the accounts that have `role`. `index` must be a value between 0 and {getRoleMemberCount}, non-inclusive.     * Role bearers are not sorted in any particular way, and their ordering may change at any point.     * WARNING: When using {getRoleMember} and {getRoleMemberCount}, make sure you perform all queries on the same block. See the following https://forum.openzeppelin.com/t/iterating-over-elements-on-enumerableset-in-openzeppelin-contracts/2296[forum post] for more information."},"getRoleMemberCount(bytes32)":{"details":"Returns the number of accounts that have `role`. Can be used together with {getRoleMember} to enumerate all bearers of a role."},"grantRole(bytes32,address)":{"details":"Grants `role` to `account`.     * If `account` had not been already granted `role`, emits a {RoleGranted} event.     * Requirements:     * - the caller must have ``role``'s admin role."},"hasRole(bytes32,address)":{"details":"Returns `true` if `account` has been granted `role`."},"renounceRole(bytes32,address)":{"details":"Revokes `role` from the calling account.     * Roles are often managed via {grantRole} and {revokeRole}: this function's purpose is to provide a mechanism for accounts to lose their privileges if they are compromised (such as when a trusted device is misplaced).     * If the calling account had been granted `role`, emits a {RoleRevoked} event.     * Requirements:     * - the caller must be `account`."},"revokeRole(bytes32,address)":{"details":"Revokes `role` from `account`.     * If `account` had been granted `role`, emits a {RoleRevoked} event.     * Requirements:     * - the caller must have ``role``'s admin role."}}},"userdoc":{"methods":{}}}