{"contractName":"Characters","abi":[{"anonymous":false,"inputs":[{"indexed":true,"internalType":"address","name":"owner","type":"address"},{"indexed":true,"internalType":"address","name":"approved","type":"address"},{"indexed":true,"internalType":"uint256","name":"tokenId","type":"uint256"}],"name":"Approval","type":"event"},{"anonymous":false,"inputs":[{"indexed":true,"internalType":"address","name":"owner","type":"address"},{"indexed":true,"internalType":"address","name":"operator","type":"address"},{"indexed":false,"internalType":"bool","name":"approved","type":"bool"}],"name":"ApprovalForAll","type":"event"},{"anonymous":false,"inputs":[{"indexed":true,"internalType":"address","name":"owner","type":"address"},{"indexed":true,"internalType":"uint256","name":"id","type":"uint256"}],"name":"Burned","type":"event"},{"anonymous":false,"inputs":[{"indexed":true,"internalType":"address","name":"owner","type":"address"},{"indexed":true,"internalType":"uint256","name":"character","type":"uint256"},{"indexed":false,"internalType":"uint16","name":"level","type":"uint16"}],"name":"LevelUp","type":"event"},{"anonymous":false,"inputs":[{"indexed":true,"internalType":"uint256","name":"character","type":"uint256"},{"indexed":true,"internalType":"address","name":"minter","type":"address"}],"name":"NewCharacter","type":"event"},{"anonymous":false,"inputs":[{"indexed":true,"internalType":"bytes32","name":"role","type":"bytes32"},{"indexed":true,"internalType":"bytes32","name":"previousAdminRole","type":"bytes32"},{"indexed":true,"internalType":"bytes32","name":"newAdminRole","type":"bytes32"}],"name":"RoleAdminChanged","type":"event"},{"anonymous":false,"inputs":[{"indexed":true,"internalType":"bytes32","name":"role","type":"bytes32"},{"indexed":true,"internalType":"address","name":"account","type":"address"},{"indexed":true,"internalType":"address","name":"sender","type":"address"}],"name":"RoleGranted","type":"event"},{"anonymous":false,"inputs":[{"indexed":true,"internalType":"bytes32","name":"role","type":"bytes32"},{"indexed":true,"internalType":"address","name":"account","type":"address"},{"indexed":true,"internalType":"address","name":"sender","type":"address"}],"name":"RoleRevoked","type":"event"},{"anonymous":false,"inputs":[{"indexed":true,"internalType":"address","name":"from","type":"address"},{"indexed":true,"internalType":"address","name":"to","type":"address"},{"indexed":true,"internalType":"uint256","name":"tokenId","type":"uint256"}],"name":"Transfer","type":"event"},{"inputs":[],"name":"DEFAULT_ADMIN_ROLE","outputs":[{"internalType":"bytes32","name":"","type":"bytes32"}],"stateMutability":"view","type":"function"},{"inputs":[],"name":"GAME_ADMIN","outputs":[{"internalType":"bytes32","name":"","type":"bytes32"}],"stateMutability":"view","type":"function"},{"inputs":[],"name":"MINTER_ROLE","outputs":[{"internalType":"bytes32","name":"","type":"bytes32"}],"stateMutability":"view","type":"function"},{"inputs":[],"name":"NFTVAR_BONUS_POWER","outputs":[{"internalType":"uint256","name":"","type":"uint256"}],"stateMutability":"view","type":"function"},{"inputs":[],"name":"NFTVAR_BUSY","outputs":[{"internalType":"uint256","name":"","type":"uint256"}],"stateMutability":"view","type":"function"},{"inputs":[],"name":"NFTVAR_EQUIPMENT_VERSION","outputs":[{"internalType":"uint256","name":"","type":"uint256"}],"stateMutability":"view","type":"function"},{"inputs":[],"name":"NFTVAR_NON_GENESIS_VERSION","outputs":[{"internalType":"uint256","name":"","type":"uint256"}],"stateMutability":"view","type":"function"},{"inputs":[],"name":"NFTVAR_POWER_DATA","outputs":[{"internalType":"uint256","name":"","type":"uint256"}],"stateMutability":"view","type":"function"},{"inputs":[],"name":"NFTVAR_REPUTATION","outputs":[{"internalType":"uint256","name":"","type":"uint256"}],"stateMutability":"view","type":"function"},{"inputs":[],"name":"NFTVAR_SIMPLEQUEST_PROGRESS","outputs":[{"internalType":"uint256","name":"","type":"uint256"}],"stateMutability":"view","type":"function"},{"inputs":[],"name":"NFTVAR_SIMPLEQUEST_TYPE","outputs":[{"internalType":"uint256","name":"","type":"uint256"}],"stateMutability":"view","type":"function"},{"inputs":[],"name":"NO_OWNED_LIMIT","outputs":[{"internalType":"bytes32","name":"","type":"bytes32"}],"stateMutability":"view","type":"function"},{"inputs":[],"name":"SIMPLEQUEST_TYPE_RAID","outputs":[{"internalType":"uint256","name":"","type":"uint256"}],"stateMutability":"view","type":"function"},{"inputs":[],"name":"VAR_EQUIPMENT_VERSION","outputs":[{"internalType":"uint256","name":"","type":"uint256"}],"stateMutability":"view","type":"function"},{"inputs":[{"internalType":"address","name":"to","type":"address"},{"internalType":"uint256","name":"tokenId","type":"uint256"}],"name":"approve","outputs":[],"stateMutability":"nonpayable","type":"function"},{"inputs":[{"internalType":"address","name":"owner","type":"address"}],"name":"balanceOf","outputs":[{"internalType":"uint256","name":"","type":"uint256"}],"stateMutability":"view","type":"function"},{"inputs":[],"name":"baseURI","outputs":[{"internalType":"string","name":"","type":"string"}],"stateMutability":"view","type":"function"},{"inputs":[],"name":"characterLimit","outputs":[{"internalType":"uint256","name":"","type":"uint256"}],"stateMutability":"view","type":"function"},{"inputs":[],"name":"garrison","outputs":[{"internalType":"contract Garrison","name":"","type":"address"}],"stateMutability":"view","type":"function"},{"inputs":[{"internalType":"uint256","name":"tokenId","type":"uint256"}],"name":"getApproved","outputs":[{"internalType":"address","name":"","type":"address"}],"stateMutability":"view","type":"function"},{"inputs":[{"internalType":"bytes32","name":"role","type":"bytes32"}],"name":"getRoleAdmin","outputs":[{"internalType":"bytes32","name":"","type":"bytes32"}],"stateMutability":"view","type":"function"},{"inputs":[{"internalType":"bytes32","name":"role","type":"bytes32"},{"internalType":"uint256","name":"index","type":"uint256"}],"name":"getRoleMember","outputs":[{"internalType":"address","name":"","type":"address"}],"stateMutability":"view","type":"function"},{"inputs":[{"internalType":"bytes32","name":"role","type":"bytes32"}],"name":"getRoleMemberCount","outputs":[{"internalType":"uint256","name":"","type":"uint256"}],"stateMutability":"view","type":"function"},{"inputs":[{"internalType":"bytes32","name":"role","type":"bytes32"},{"internalType":"address","name":"account","type":"address"}],"name":"grantRole","outputs":[],"stateMutability":"nonpayable","type":"function"},{"inputs":[{"internalType":"bytes32","name":"role","type":"bytes32"},{"internalType":"address","name":"account","type":"address"}],"name":"hasRole","outputs":[{"internalType":"bool","name":"","type":"bool"}],"stateMutability":"view","type":"function"},{"inputs":[{"internalType":"address","name":"owner","type":"address"},{"internalType":"address","name":"operator","type":"address"}],"name":"isApprovedForAll","outputs":[{"internalType":"bool","name":"","type":"bool"}],"stateMutability":"view","type":"function"},{"inputs":[{"internalType":"uint256","name":"","type":"uint256"}],"name":"lastTransferTimestamp","outputs":[{"internalType":"uint256","name":"","type":"uint256"}],"stateMutability":"view","type":"function"},{"inputs":[],"name":"maxStamina","outputs":[{"internalType":"uint256","name":"","type":"uint256"}],"stateMutability":"view","type":"function"},{"inputs":[],"name":"name","outputs":[{"internalType":"string","name":"","type":"string"}],"stateMutability":"view","type":"function"},{"inputs":[{"internalType":"uint256","name":"","type":"uint256"},{"internalType":"uint256","name":"","type":"uint256"}],"name":"nftVars","outputs":[{"internalType":"uint256","name":"","type":"uint256"}],"stateMutability":"view","type":"function"},{"inputs":[{"internalType":"uint256","name":"tokenId","type":"uint256"}],"name":"ownerOf","outputs":[{"internalType":"address","name":"","type":"address"}],"stateMutability":"view","type":"function"},{"inputs":[],"name":"promos","outputs":[{"internalType":"contract Promos","name":"","type":"address"}],"stateMutability":"view","type":"function"},{"inputs":[{"internalType":"uint256","name":"","type":"uint256"}],"name":"raidsDone","outputs":[{"internalType":"uint256","name":"","type":"uint256"}],"stateMutability":"view","type":"function"},{"inputs":[{"internalType":"uint256","name":"","type":"uint256"}],"name":"raidsWon","outputs":[{"internalType":"uint256","name":"","type":"uint256"}],"stateMutability":"view","type":"function"},{"inputs":[{"internalType":"bytes32","name":"role","type":"bytes32"},{"internalType":"address","name":"account","type":"address"}],"name":"renounceRole","outputs":[],"stateMutability":"nonpayable","type":"function"},{"inputs":[{"internalType":"bytes32","name":"role","type":"bytes32"},{"internalType":"address","name":"account","type":"address"}],"name":"revokeRole","outputs":[],"stateMutability":"nonpayable","type":"function"},{"inputs":[],"name":"secondsPerStamina","outputs":[{"internalType":"uint256","name":"","type":"uint256"}],"stateMutability":"view","type":"function"},{"inputs":[{"internalType":"address","name":"operator","type":"address"},{"internalType":"bool","name":"approved","type":"bool"}],"name":"setApprovalForAll","outputs":[],"stateMutability":"nonpayable","type":"function"},{"inputs":[{"internalType":"bytes4","name":"interfaceId","type":"bytes4"}],"name":"supportsInterface","outputs":[{"internalType":"bool","name":"","type":"bool"}],"stateMutability":"view","type":"function"},{"inputs":[],"name":"symbol","outputs":[{"internalType":"string","name":"","type":"string"}],"stateMutability":"view","type":"function"},{"inputs":[{"internalType":"uint256","name":"index","type":"uint256"}],"name":"tokenByIndex","outputs":[{"internalType":"uint256","name":"","type":"uint256"}],"stateMutability":"view","type":"function"},{"inputs":[{"internalType":"address","name":"owner","type":"address"},{"internalType":"uint256","name":"index","type":"uint256"}],"name":"tokenOfOwnerByIndex","outputs":[{"internalType":"uint256","name":"","type":"uint256"}],"stateMutability":"view","type":"function"},{"inputs":[{"internalType":"uint256","name":"tokenId","type":"uint256"}],"name":"tokenURI","outputs":[{"internalType":"string","name":"","type":"string"}],"stateMutability":"view","type":"function"},{"inputs":[],"name":"totalSupply","outputs":[{"internalType":"uint256","name":"","type":"uint256"}],"stateMutability":"view","type":"function"},{"inputs":[{"internalType":"address","name":"from","type":"address"},{"internalType":"address","name":"to","type":"address"},{"internalType":"uint256","name":"tokenId","type":"uint256"}],"name":"transferFrom","outputs":[],"stateMutability":"nonpayable","type":"function"},{"inputs":[{"internalType":"uint256","name":"","type":"uint256"}],"name":"vars","outputs":[{"internalType":"uint256","name":"","type":"uint256"}],"stateMutability":"view","type":"function"},{"inputs":[],"name":"initialize","outputs":[],"stateMutability":"nonpayable","type":"function"},{"inputs":[{"internalType":"uint256[255]","name":"_experienceTable","type":"uint256[255]"}],"name":"migrateTo_1ee400a","outputs":[],"stateMutability":"nonpayable","type":"function"},{"inputs":[],"name":"migrateTo_951a020","outputs":[],"stateMutability":"nonpayable","type":"function"},{"inputs":[{"internalType":"contract Promos","name":"_promos","type":"address"}],"name":"migrateTo_ef994e2","outputs":[],"stateMutability":"nonpayable","type":"function"},{"inputs":[],"name":"migrateTo_b627f23","outputs":[],"stateMutability":"nonpayable","type":"function"},{"inputs":[{"internalType":"contract Garrison","name":"_garrison","type":"address"}],"name":"migrateTo_1a19cbb","outputs":[],"stateMutability":"nonpayable","type":"function"},{"inputs":[{"internalType":"uint256","name":"id","type":"uint256"}],"name":"get","outputs":[{"internalType":"uint16","name":"","type":"uint16"},{"internalType":"uint8","name":"","type":"uint8"},{"internalType":"uint8","name":"","type":"uint8"},{"internalType":"uint64","name":"","type":"uint64"},{"internalType":"uint16","name":"","type":"uint16"},{"internalType":"uint16","name":"","type":"uint16"},{"internalType":"uint16","name":"","type":"uint16"},{"internalType":"uint16","name":"","type":"uint16"},{"internalType":"uint16","name":"","type":"uint16"},{"internalType":"uint16","name":"","type":"uint16"}],"stateMutability":"view","type":"function"},{"inputs":[{"internalType":"uint256","name":"id","type":"uint256"}],"name":"getCosmeticsSeed","outputs":[{"internalType":"uint256","name":"","type":"uint256"}],"stateMutability":"view","type":"function"},{"inputs":[{"internalType":"uint256[]","name":"burnIds","type":"uint256[]"}],"name":"getSoulForBurns","outputs":[{"internalType":"uint256","name":"genesisSoulAmount","type":"uint256"},{"internalType":"uint256","name":"nonGenesisSoulAmount","type":"uint256"}],"stateMutability":"view","type":"function"},{"inputs":[{"internalType":"address","name":"minter","type":"address"},{"internalType":"uint256","name":"seed","type":"uint256"}],"name":"mint","outputs":[{"internalType":"uint256","name":"tokenID","type":"uint256"}],"stateMutability":"nonpayable","type":"function"},{"inputs":[{"internalType":"address","name":"minter","type":"address"},{"internalType":"uint16","name":"xp","type":"uint16"},{"internalType":"uint8","name":"level","type":"uint8"},{"internalType":"uint8","name":"trait","type":"uint8"},{"internalType":"uint256","name":"seed","type":"uint256"},{"internalType":"uint256","name":"tokenID","type":"uint256"},{"internalType":"uint24","name":"bonusPower","type":"uint24"},{"internalType":"uint16","name":"reputation","type":"uint16"},{"internalType":"uint8","name":"version","type":"uint8"}],"name":"customMint","outputs":[{"internalType":"uint256","name":"","type":"uint256"}],"stateMutability":"nonpayable","type":"function"},{"inputs":[{"internalType":"uint256[]","name":"burnIds","type":"uint256[]"},{"internalType":"uint256","name":"targetCharId","type":"uint256"},{"internalType":"uint256","name":"burnPowerMultiplier","type":"uint256"}],"name":"burnIntoCharacter","outputs":[],"stateMutability":"nonpayable","type":"function"},{"inputs":[{"internalType":"uint256[]","name":"burnIds","type":"uint256[]"}],"name":"burnIntoSoul","outputs":[],"stateMutability":"nonpayable","type":"function"},{"inputs":[{"internalType":"uint256","name":"targetCharId","type":"uint256"},{"internalType":"uint256","name":"soulAmount","type":"uint256"},{"internalType":"bool","name":"isCharacterGenesis","type":"bool"}],"name":"upgradeWithSoul","outputs":[],"stateMutability":"nonpayable","type":"function"},{"inputs":[{"internalType":"uint256","name":"id","type":"uint256"}],"name":"getLevel","outputs":[{"internalType":"uint8","name":"","type":"uint8"}],"stateMutability":"view","type":"function"},{"inputs":[{"internalType":"uint8","name":"currentLevel","type":"uint8"}],"name":"getRequiredXpForNextLevel","outputs":[{"internalType":"uint16","name":"","type":"uint16"}],"stateMutability":"view","type":"function"},{"inputs":[{"internalType":"uint256","name":"id","type":"uint256"}],"name":"getPower","outputs":[{"internalType":"uint24","name":"","type":"uint24"}],"stateMutability":"view","type":"function"},{"inputs":[{"internalType":"uint256","name":"id","type":"uint256"}],"name":"getTotalPower","outputs":[{"internalType":"uint256","name":"","type":"uint256"}],"stateMutability":"view","type":"function"},{"inputs":[{"internalType":"uint8","name":"level","type":"uint8"}],"name":"getPowerAtLevel","outputs":[{"internalType":"uint24","name":"","type":"uint24"}],"stateMutability":"pure","type":"function"},{"inputs":[{"internalType":"uint256","name":"id","type":"uint256"}],"name":"getTrait","outputs":[{"internalType":"uint8","name":"","type":"uint8"}],"stateMutability":"view","type":"function"},{"inputs":[{"internalType":"uint256","name":"id","type":"uint256"},{"internalType":"uint8","name":"trait","type":"uint8"}],"name":"setTrait","outputs":[],"stateMutability":"nonpayable","type":"function"},{"inputs":[{"internalType":"uint256","name":"id","type":"uint256"}],"name":"getXp","outputs":[{"internalType":"uint32","name":"","type":"uint32"}],"stateMutability":"view","type":"function"},{"inputs":[{"internalType":"uint256","name":"id","type":"uint256"},{"internalType":"uint16","name":"xp","type":"uint16"}],"name":"gainXp","outputs":[],"stateMutability":"nonpayable","type":"function"},{"inputs":[{"internalType":"uint256[]","name":"chars","type":"uint256[]"},{"internalType":"uint256[]","name":"xps","type":"uint256[]"}],"name":"gainXpAll","outputs":[],"stateMutability":"nonpayable","type":"function"},{"inputs":[{"internalType":"uint256","name":"id","type":"uint256"}],"name":"getStaminaTimestamp","outputs":[{"internalType":"uint64","name":"","type":"uint64"}],"stateMutability":"view","type":"function"},{"inputs":[{"internalType":"uint256","name":"id","type":"uint256"},{"internalType":"uint64","name":"timestamp","type":"uint64"}],"name":"setStaminaTimestamp","outputs":[],"stateMutability":"nonpayable","type":"function"},{"inputs":[{"internalType":"uint256","name":"id","type":"uint256"}],"name":"getStaminaPoints","outputs":[{"internalType":"uint8","name":"","type":"uint8"}],"stateMutability":"view","type":"function"},{"inputs":[{"internalType":"uint64","name":"timestamp","type":"uint64"}],"name":"getStaminaPointsFromTimestamp","outputs":[{"internalType":"uint8","name":"","type":"uint8"}],"stateMutability":"view","type":"function"},{"inputs":[{"internalType":"uint256","name":"id","type":"uint256"}],"name":"isStaminaFull","outputs":[{"internalType":"bool","name":"","type":"bool"}],"stateMutability":"view","type":"function"},{"inputs":[],"name":"getStaminaMaxWait","outputs":[{"internalType":"uint64","name":"","type":"uint64"}],"stateMutability":"view","type":"function"},{"inputs":[{"internalType":"address","name":"fighter","type":"address"},{"internalType":"uint256","name":"id","type":"uint256"},{"internalType":"uint8","name":"amount","type":"uint8"},{"internalType":"bool","name":"allowNegativeStamina","type":"bool"},{"internalType":"uint256","name":"busyFlag","type":"uint256"}],"name":"getFightDataAndDrainStamina","outputs":[{"internalType":"uint72","name":"","type":"uint72"},{"internalType":"uint256","name":"","type":"uint256"}],"stateMutability":"nonpayable","type":"function"},{"inputs":[{"internalType":"uint256","name":"id","type":"uint256"},{"internalType":"bool","name":"won","type":"bool"},{"internalType":"uint16","name":"xp","type":"uint16"}],"name":"processRaidParticipation","outputs":[],"stateMutability":"nonpayable","type":"function"},{"inputs":[{"internalType":"uint256","name":"id","type":"uint256"}],"name":"isEquipmentReady","outputs":[{"internalType":"bool","name":"","type":"bool"}],"stateMutability":"view","type":"function"},{"inputs":[{"internalType":"address","name":"wallet","type":"address"}],"name":"getCharactersOwnedBy","outputs":[{"internalType":"uint256[]","name":"chars","type":"uint256[]"}],"stateMutability":"view","type":"function"},{"inputs":[{"internalType":"address","name":"wallet","type":"address"}],"name":"getReadyCharacters","outputs":[{"internalType":"uint256[]","name":"chars","type":"uint256[]"}],"stateMutability":"view","type":"function"},{"inputs":[{"internalType":"uint256","name":"id","type":"uint256"},{"internalType":"uint256[]","name":"fields","type":"uint256[]"},{"internalType":"uint256[]","name":"values","type":"uint256[]"}],"name":"setNFTVars","outputs":[],"stateMutability":"nonpayable","type":"function"},{"inputs":[{"internalType":"uint256","name":"id","type":"uint256"},{"internalType":"uint256[]","name":"fields","type":"uint256[]"}],"name":"getNFTVars","outputs":[{"internalType":"uint256[]","name":"values","type":"uint256[]"}],"stateMutability":"view","type":"function"},{"inputs":[{"internalType":"address","name":"from","type":"address"},{"internalType":"address","name":"to","type":"address"},{"internalType":"uint256","name":"tokenId","type":"uint256"}],"name":"safeTransferFrom","outputs":[],"stateMutability":"nonpayable","type":"function"},{"inputs":[{"internalType":"address","name":"from","type":"address"},{"internalType":"address","name":"to","type":"address"},{"internalType":"uint256","name":"tokenId","type":"uint256"},{"internalType":"bytes","name":"_data","type":"bytes"}],"name":"safeTransferFrom","outputs":[],"stateMutability":"nonpayable","type":"function"},{"inputs":[{"internalType":"uint256","name":"max","type":"uint256"}],"name":"setCharacterLimit","outputs":[],"stateMutability":"nonpayable","type":"function"},{"inputs":[{"internalType":"uint256","name":"varField","type":"uint256"},{"internalType":"uint256","name":"value","type":"uint256"}],"name":"setVar","outputs":[],"stateMutability":"nonpayable","type":"function"},{"inputs":[{"internalType":"uint256[]","name":"varFields","type":"uint256[]"},{"internalType":"uint256[]","name":"values","type":"uint256[]"}],"name":"setVars","outputs":[],"stateMutability":"nonpayable","type":"function"},{"inputs":[{"internalType":"uint256","name":"characterID","type":"uint256"},{"internalType":"uint256","name":"nftVar","type":"uint256"}],"name":"getNftVar","outputs":[{"internalType":"uint256","name":"","type":"uint256"}],"stateMutability":"view","type":"function"},{"inputs":[{"internalType":"uint256","name":"characterID","type":"uint256"},{"internalType":"uint256","name":"nftVar","type":"uint256"},{"internalType":"uint256","name":"value","type":"uint256"}],"name":"setNftVar","outputs":[],"stateMutability":"nonpayable","type":"function"},{"inputs":[{"internalType":"string","name":"baseUri","type":"string"}],"name":"setBaseURI","outputs":[],"stateMutability":"nonpayable","type":"function"},{"inputs":[{"internalType":"uint256","name":"_secondsPerStamina","type":"uint256"}],"name":"setSecondsPerStamina","outputs":[],"stateMutability":"nonpayable","type":"function"}],"bytecode":"0x608060405234801561001057600080fd5b50615afa80620000216000396000f3fe608060405234801561001057600080fd5b50600436106105045760003560e01c80637d5f8e1e11610299578063b328168411610167578063d814d4bf116100d9578063e985e9c511610092578063e985e9c514611559578063f2a7417a14611587578063f771a036146115b3578063fa5aa081146115bb578063fbb8ef7814611629578063fce9634e1461165257610504565b8063d814d4bf14611438578063da1f8e7714611440578063e168ce021461146f578063e6defc7e1461148c578063e71a136a14611534578063e9477e671461155157610504565b8063befd20c61161012b578063befd20c61461137e578063c87b56dd146113a4578063ca15c873146113c1578063d2ed7e06146113de578063d539139314611404578063d547741f1461140c57610504565b8063b3281684146111b7578063b46e6c17146111bf578063b88d4fde14611246578063bae676751461097c578063bef6ec261461130a57610504565b80639507d39a1161020b578063a22cb465116101c4578063a22cb465146110c4578063a4646669146110f2578063a93bde2f14611118578063aa3c6cfc1461113e578063acb586df14611146578063b285630b1461116357610504565b80639507d39a14610e2957806395d89b4114610eaf57806399d2c2c414610eb75780639a550fd214610f755780639d7c828b1461109f578063a217fddf146110bc57610504565b80638bb77ed41161025d5780638bb77ed414610d375780638f08d9e214610d545780639010d07c14610d5c57806391d1485414610d7f57806393272d9f14610dab5780639462fa1914610e2157610504565b80637d5f8e1e14610cb65780637d66a99914610ced5780638129fc1c14610cf5578063852b369214610cfd57806386481d4014610d1a57610504565b8063424fa66d116103d657806355f804b3116103485780636c0360eb116103015780636c0360eb14610c325780636c992a5514610c3a57806370a0823114610c5d57806372322bab14610c83578063752fde9e14610c8b578063783efb2514610c9357610504565b806355f804b314610abd5780635dba06e414610b6157806360df35d314610b6957806360eb73e714610b715780636129ca3214610ba75780636352211e14610c1557610504565b80634946e9cb1161039a5780634946e9cb146109e75780634bbd7a8414610a4f5780634f6ccce714610a5757806351e717ac14610a7457806354ec7fc014610a7c5780635504d3d214610ab557610504565b8063424fa66d1461097c5780634250b9a51461098457806342842e0e1461098c57806344678be1146109c2578063473d09f2146109df57610504565b80631b7227311161047a5780632f745c59116104335780632f745c59146108a157806330947d2a146108cd57806336568abe146108ea5780633a319b4b146109165780633c69f91f1461093357806340c10f191461095057610504565b80631b722731146107d257806323b872dd146107da578063248a9ca314610810578063262b58141461082d5780632bc136c41461084a5780632f2ff15d1461087557610504565b8063095ea7b3116104cc578063095ea7b3146106625780630a7501bb146106905780630bb185461461074e5780630fc005751461076e57806317b199a41461079557806318160ddd146107ca57610504565b8063017fe8091461050957806301ffc9a71461053e57806305d3d93a1461057957806306fdde03146105ac578063081812fc14610629575b600080fd5b6105266004803603602081101561051f57600080fd5b5035611678565b6040805162ffffff9092168252519081900360200190f35b6105656004803603602081101561055457600080fd5b50356001600160e01b0319166116ac565b604080519115158252519081900360200190f35b6105966004803603602081101561058f57600080fd5b50356116cb565b6040805160ff9092168252519081900360200190f35b6105b46116fe565b6040805160208082528351818301528351919283929083019185019080838360005b838110156105ee5781810151838201526020016105d6565b50505050905090810190601f16801561061b5780820380516001836020036101000a031916815260200191505b509250505060405180910390f35b6106466004803603602081101561063f57600080fd5b5035611795565b604080516001600160a01b039092168252519081900360200190f35b61068e6004803603604081101561067857600080fd5b506001600160a01b0381351690602001356117f7565b005b61068e600480360360408110156106a657600080fd5b810190602081018135600160201b8111156106c057600080fd5b8201836020820111156106d257600080fd5b803590602001918460208302840111600160201b831117156106f357600080fd5b919390929091602081019035600160201b81111561071057600080fd5b82018360208201111561072257600080fd5b803590602001918460208302840111600160201b8311171561074357600080fd5b5090925090506118d2565b6105266004803603602081101561076457600080fd5b503560ff16611932565b61068e6004803603604081101561078457600080fd5b508035906020013561ffff1661193d565b6107b8600480360360408110156107ab57600080fd5b5080359060200135611957565b60408051918252519081900360200190f35b6107b8611975565b6107b8611986565b61068e600480360360608110156107f057600080fd5b506001600160a01b0381358116916020810135909116906040013561198b565b6107b86004803603602081101561082657600080fd5b50356119e2565b6107b86004803603602081101561084357600080fd5b50356119f7565b61068e6004803603606081101561086057600080fd5b50803590602081013590604001351515611a41565b61068e6004803603604081101561088b57600080fd5b50803590602001356001600160a01b0316611b86565b6107b8600480360360408110156108b757600080fd5b506001600160a01b038135169060200135611bee565b610565600480360360208110156108e357600080fd5b5035611c1f565b61068e6004803603604081101561090057600080fd5b50803590602001356001600160a01b0316611c37565b6107b86004803603602081101561092c57600080fd5b5035611c98565b6107b86004803603602081101561094957600080fd5b5035611cab565b6107b86004803603604081101561096657600080fd5b506001600160a01b038135169060200135611cbe565b6107b8611f93565b6107b8611f98565b61068e600480360360608110156109a257600080fd5b506001600160a01b03813581169160208101359091169060400135611f9d565b61068e600480360360208110156109d857600080fd5b503561213d565b6107b861214b565b610a2a600480360360a08110156109fd57600080fd5b506001600160a01b038135169060208101359060ff60408201351690606081013515159060800135612150565b6040805168ffffffffffffffffff909316835260208301919091528051918290030190f35b6107b8612315565b6107b860048036036020811015610a6d57600080fd5b503561231a565b610646612336565b610a9960048036036020811015610a9257600080fd5b5035612346565b604080516001600160401b039092168252519081900360200190f35b6107b8612377565b61068e60048036036020811015610ad357600080fd5b810190602081018135600160201b811115610aed57600080fd5b820183602082011115610aff57600080fd5b803590602001918460018302840111600160201b83111715610b2057600080fd5b91908080601f016020809104026020016040519081016040528093929190818152602001838380828437600092019190915250929550612399945050505050565b6107b86123ad565b610a996123d3565b610b8e60048036036020811015610b8757600080fd5b50356123dd565b6040805163ffffffff9092168252519081900360200190f35b61068e60048036036020811015610bbd57600080fd5b810190602081018135600160201b811115610bd757600080fd5b820183602082011115610be957600080fd5b803590602001918460208302840111600160201b83111715610c0a57600080fd5b509092509050612402565b61064660048036036020811015610c2b57600080fd5b50356125cf565b6105b46125fd565b61068e60048036036040811015610c5057600080fd5b508035906020013561265e565b6107b860048036036020811015610c7357600080fd5b50356001600160a01b0316612679565b6107b86126e1565b61068e6126e6565b6107b860048036036040811015610ca957600080fd5b508035906020013561270c565b610cd660048036036020811015610ccc57600080fd5b503560ff1661272a565b6040805161ffff9092168252519081900360200190f35b6107b8612745565b61068e61274c565b61068e60048036036020811015610d1357600080fd5b503561285a565b61059660048036036020811015610d3057600080fd5b5035612868565b61056560048036036020811015610d4d57600080fd5b5035612892565b6107b86128e7565b61064660048036036040811015610d7257600080fd5b50803590602001356128ec565b61056560048036036040811015610d9557600080fd5b50803590602001356001600160a01b031661290a565b610dd160048036036020811015610dc157600080fd5b50356001600160a01b0316612928565b60408051602080825283518183015283519192839290830191858101910280838360005b83811015610e0d578181015183820152602001610df5565b505050509050019250505060405180910390f35b6106466129b5565b610e4660048036036020811015610e3f57600080fd5b50356129c5565b6040805161ffff9b8c16815260ff9a8b16602082015298909916888a01526001600160401b039096166060880152938816608087015291871660a0860152861660c0850152851660e0840152841661010083015290921661012083015251908190036101400190f35b6105b4612b1f565b61068e60048036036040811015610ecd57600080fd5b810190602081018135600160201b811115610ee757600080fd5b820183602082011115610ef957600080fd5b803590602001918460208302840111600160201b83111715610f1a57600080fd5b919390929091602081019035600160201b811115610f3757600080fd5b820183602082011115610f4957600080fd5b803590602001918460208302840111600160201b83111715610f6a57600080fd5b509092509050612b80565b61068e60048036036060811015610f8b57600080fd5b81359190810190604081016020820135600160201b811115610fac57600080fd5b820183602082011115610fbe57600080fd5b803590602001918460208302840111600160201b83111715610fdf57600080fd5b9190808060200260200160405190810160405280939291908181526020018383602002808284376000920191909152509295949360208101935035915050600160201b81111561102e57600080fd5b82018360208201111561104057600080fd5b803590602001918460208302840111600160201b8311171561106157600080fd5b919080806020026020016040519081016040528093929190818152602001838360200280828437600092019190915250929550612bc9945050505050565b6107b8600480360360208110156110b557600080fd5b5035612c3c565b6107b8612c4f565b61068e600480360360408110156110da57600080fd5b506001600160a01b0381351690602001351515612c54565b610dd16004803603602081101561110857600080fd5b50356001600160a01b0316612d59565b61068e6004803603602081101561112e57600080fd5b50356001600160a01b0316612e9b565b6107b8612ed2565b6105966004803603602081101561115c57600080fd5b5035612ed9565b61068e6004803603611fe081101561117a57600080fd5b8101908080611fe0019060ff80602002604051908101604052809291908260ff60200280828437600092019190915250919450612f049350505050565b6107b8612f25565b61122d600480360360208110156111d557600080fd5b810190602081018135600160201b8111156111ef57600080fd5b82018360208201111561120157600080fd5b803590602001918460208302840111600160201b8311171561122257600080fd5b509092509050612f2a565b6040805192835260208301919091528051918290030190f35b61068e6004803603608081101561125c57600080fd5b6001600160a01b03823581169260208101359091169160408201359190810190608081016060820135600160201b81111561129657600080fd5b8201836020820111156112a857600080fd5b803590602001918460018302840111600160201b831117156112c957600080fd5b91908080601f016020809104026020016040519081016040528093929190818152602001838380828437600092019190915250929550612fc7945050505050565b61068e6004803603606081101561132057600080fd5b810190602081018135600160201b81111561133a57600080fd5b82018360208201111561134c57600080fd5b803590602001918460208302840111600160201b8311171561136d57600080fd5b91935091508035906020013561301f565b6105966004803603602081101561139457600080fd5b50356001600160401b03166133b1565b6105b4600480360360208110156113ba57600080fd5b50356133fa565b6107b8600480360360208110156113d757600080fd5b503561367d565b61068e600480360360208110156113f457600080fd5b50356001600160a01b0316613694565b6107b86136cb565b61068e6004803603604081101561142257600080fd5b50803590602001356001600160a01b03166136ee565b6107b8613747565b61068e6004803603606081101561145657600080fd5b5080359060208101351515906040013561ffff1661374c565b6107b86004803603602081101561148557600080fd5b5035613807565b610dd1600480360360408110156114a257600080fd5b81359190810190604081016020820135600160201b8111156114c357600080fd5b8201836020820111156114d557600080fd5b803590602001918460208302840111600160201b831117156114f657600080fd5b919080806020026020016040519081016040528093929190818152602001838360200280828437600092019190915250929550613849945050505050565b6107b86004803603602081101561154a57600080fd5b50356138fa565b61068e61390d565b6105656004803603604081101561156f57600080fd5b506001600160a01b0381358116916020013516613929565b61068e6004803603604081101561159d57600080fd5b50803590602001356001600160401b0316613957565b6107b86139a2565b6107b860048036036101208110156115d257600080fd5b506001600160a01b038135169061ffff602082013581169160ff6040820135811692606083013582169260808101359260a08201359262ffffff60c0840135169260e08101359091169161010090910135166139a7565b61068e6004803603606081101561163f57600080fd5b5080359060208101359060400135613d3f565b61068e6004803603604081101561166857600080fd5b508035906020013560ff16613d64565b60006116a460c9838154811061168a57fe5b60009182526020909120015462010000900460ff16611932565b90505b919050565b6001600160e01b03191660009081526033602052604090205460ff1690565b60006116a460c983815481106116dd57fe5b600091825260209091200154600160201b90046001600160401b03166133b1565b606a8054604080516020601f600260001961010060018816150201909516949094049384018190048102820181019092528281526060939092909183018282801561178a5780601f1061175f5761010080835404028352916020019161178a565b820191906000526020600020905b81548152906001019060200180831161176d57829003601f168201915b505050505090505b90565b60006117a082613dc2565b6117db5760405162461bcd60e51b815260040180806020018281038252602c8152602001806159c0602c913960400191505060405180910390fd5b506000908152606860205260409020546001600160a01b031690565b6000611802826125cf565b9050806001600160a01b0316836001600160a01b031614156118555760405162461bcd60e51b8152600401808060200182810382526021815260200180615a446021913960400191505060405180910390fd5b806001600160a01b0316611867613dd5565b6001600160a01b03161480611888575061188881611883613dd5565b613929565b6118c35760405162461bcd60e51b81526004018080602001828103825260388152602001806158c46038913960400191505060405180910390fd5b6118cd8383613dd9565b505050565b6118da613e47565b60005b8381101561192b578282828181106118f157fe5b905060200201356101d5600087878581811061190957fe5b60209081029290920135835250810191909152604001600020556001016118dd565b5050505050565b60006116a482613ea6565b611945613e47565b611953828261ffff16613ef6565b5050565b6101d260209081526000928352604080842090915290825290205481565b60006119816066614038565b905090565b600881565b61199c611996613dd5565b82614043565b6119d75760405162461bcd60e51b8152600401808060200182810382526031815260200180615a656031913960400191505060405180910390fd5b6118cd8383836140e7565b60009081526097602052604090206002015490565b6000611a0161567c565b60ca8381548110611a0e57fe5b600091825260209182902060408051808201909152600290920201805460ff168252600101549101819052915050919050565b611a49613e47565b8015611a7a5760008381526101d2602090815260408083206003845290915290205415611a7557600080fd5b611a9f565b60008381526101d26020908152604080832060038452909152902054611a9f57600080fd5b6000611ab283600a63ffffffff61424516565b9050611acd81611ac186613807565b9063ffffffff61429e16565b611af3611ae060c9878154811061168a57fe5b60049062ffffff1663ffffffff61424516565b1015611b34576040805162461bcd60e51b815260206004820152600b60248201526a141bddd95c881b1a5b5a5d60aa1b604482015290519081900360640190fd5b60008481526101d26020908152604080832060028452909152902054611b6190829063ffffffff61429e16565b60009485526101d2602090815260408087206002885290915290942093909355505050565b600082815260976020526040902060020154611ba990611ba4613dd5565b61290a565b611be45760405162461bcd60e51b815260040180806020018281038252602f8152602001806157e3602f913960400191505060405180910390fd5b61195382826142f8565b6001600160a01b0382166000908152606560205260408120611c16908363ffffffff61436716565b90505b92915050565b600060c8611c2c836116cb565b60ff16101592915050565b611c3f613dd5565b6001600160a01b0316816001600160a01b031614611c8e5760405162461bcd60e51b815260040180806020018281038252602f815260200180615a96602f913960400191505060405180910390fd5b6119538282614373565b6101d16020526000908152604090205481565b6101d06020526000908152604090205481565b6000611cc8613e47565b5060c95460008080611cdc816003876143e2565b90506000611d01611ceb6123d3565b42906001600160401b031663ffffffff61444c16565b6040805160808101825261ffff808816825260ff80881660208085019182528883168587019081526001600160401b038089166060880190815260c9805460018181018355600092835299517f66be4f155c5ef2ebd3772b228f2f00681e4ed5826cdb3b1943cc11ad15ad1d289091018054975195519351909416600160201b026bffffffffffffffff000000001993891663010000000263ff0000001996909916620100000262ff00001992909a1661ffff1990981697909717169790971792909216949094171691909117909155835180850190945290835292935060ca92820190611df0908a906144a9565b905281546001808201845560009384526020938490208351600290930201805460ff191660ff9093169290921782559190920151910155866001600160a01b03811615801590611e4b57506001600160a01b03881661dead14155b8015611e815750604080516d1393d7d3d5d3915117d31253525560921b8152905190819003600e019020611e7f908961290a565b155b8015611e9857506101cf54611e9589612679565b10155b15611f2c57506101d354604080516330e7f10b60e21b81526001600160a01b038a811660048301526024820189905291519190921691829163c39fc42c9160448082019260009290919082900301818387803b158015611ef757600080fd5b505af1158015611f0b573d6000803e3d6000fd5b50506101d354611f2792506001600160a01b03169050876144d5565b611f36565b611f3688876144d5565b60008681526101d2602090815260408083206003845290915280822060019055516001600160a01b0383169188917f4589a3573ad46836d8192432d52ee2523357610d87f3cc4cc61da7ea362989f79190a3505050505092915050565b600181565b600481565b826001600160a01b0316611fb0826125cf565b6001600160a01b031614612031576101d35460408051631faf355f60e21b81526001600160a01b0385811660048301526024820185905291519190921691637ebcd57c91604480830192600092919082900301818387803b15801561201457600080fd5b505af1158015612028573d6000803e3d6000fd5b505050506118cd565b6001600160a01b0382161580159061205457506001600160a01b03821661dead14155b801561208a5750604080516d1393d7d3d5d3915117d31253525560921b8152905190819003600e019020612088908361290a565b155b80156120a157506101cf5461209e83612679565b10155b15612132576101d354604080516330e7f10b60e21b81526001600160a01b038581166004830152602482018590529151919092169163c39fc42c91604480830192600092919082900301818387803b1580156120fc57600080fd5b505af1158015612110573d6000803e3d6000fd5b50506101d35461212d92508591506001600160a01b03168361460f565b6118cd565b6118cd83838361460f565b612145613e47565b6101cf55565b600381565b60008061215b613e47565b612164866125cf565b6001600160a01b0316876001600160a01b0316148015612188575061218886612892565b61219157600080fd5b600060c987815481106121a057fe5b6000918252602082200180549092506121c890600160201b90046001600160401b03166133b1565b905060008160ff161180156121da5750855b806121eb57508660ff168160ff1610155b612232576040805162461bcd60e51b81526020600482015260136024820152724e6f7420656e6f756768207374616d696e612160681b604482015290519081900360640190fd5b6101d454825460ff89811690920291600160201b9091046001600160401b03169060c8908416106122a257816001600160401b031661226f6123d3565b85546001600160401b0391821642039290920116600160201b026bffffffffffffffff00000000199091161784556122d1565b83546001600160401b03600160201b80830482168501909116026bffffffffffffffff00000000199091161784555b6000998a526101d260209081526040808c2060038d52909152808b205460058c529a819020549a901b6001600160401b0391909116179a9899505050505050505050565b600281565b60008061232e60668463ffffffff61462a16565b509392505050565b6101cc546001600160a01b031681565b600060c9828154811061235557fe5b600091825260209091200154600160201b90046001600160401b031692915050565b604080516923a0a6a2afa0a226a4a760b11b8152905190819003600a01902081565b6123a1613e47565b6123aa81614646565b50565b604080516d1393d7d3d5d3915117d31253525560921b8152905190819003600e01902081565b6101d45460c80290565b600060c982815481106123ec57fe5b60009182526020909120015461ffff1692915050565b61240a613e47565b60005b818110156118cd57600061243284848481811061242657fe5b905060200201356125cf565b6101d3549091506001600160a01b0380831691161415612562576101d3546001600160a01b031663b8cae95085858581811061246a57fe5b905060200201356040518263ffffffff1660e01b81526004018082815260200191505060206040518083038186803b1580156124a557600080fd5b505afa1580156124b9573d6000803e3d6000fd5b505050506040513d60208110156124cf57600080fd5b50516101d3549091506001600160a01b03166384733163828686868181106124f357fe5b905060200201356040518363ffffffff1660e01b815260040180836001600160a01b03166001600160a01b0316815260200182815260200192505050600060405180830381600087803b15801561254957600080fd5b505af115801561255d573d6000803e3d6000fd5b505050505b61257d84848481811061257157fe5b90506020020135614659565b83838381811061258957fe5b90506020020135816001600160a01b03167f696de425f79f4a40bc6d2122ca50507f0efbeabbff86a84871b7196ab8ea8df760405160405180910390a35060010161240d565b60006116a482604051806060016040528060298152602001615926602991396066919063ffffffff61473216565b606d8054604080516020601f600260001961010060018816150201909516949094049384018190048102820181019092528281526060939092909183018282801561178a5780601f1061175f5761010080835404028352916020019161178a565b612666613e47565b60009182526101d5602052604090912055565b60006001600160a01b0382166126c05760405162461bcd60e51b815260040180806020018281038252602a8152602001806158fc602a913960400191505060405180910390fd5b6001600160a01b03821660009081526065602052604090206116a490614038565b606681565b6126f160003361290a565b6126fa57600080fd5b61270a63398b9a5d60e21b61473f565b565b60009182526101d26020908152604080842092845291905290205490565b600060cb8260ff16610100811061273d57fe5b015492915050565b6101d45481565b600054610100900460ff168061276557506127656147c3565b80612773575060005460ff16155b6127ae5760405162461bcd60e51b815260040180806020018281038252602e81526020018061594f602e913960400191505060405180910390fd5b600054610100900460ff161580156127d9576000805460ff1961ff0019909116610100171660011790555b61282c6040518060400160405280601681526020017521b93cb83a37a13630b232b99031b430b930b1ba32b960511b8152506040518060400160405280600381526020016243424360e81b8152506147d4565b612834614891565b61283f600033611be4565b61012c6101d45580156123aa576000805461ff001916905550565b612862613e47565b6101d455565b600060c9828154811061287757fe5b60009182526020909120015462010000900460ff1692915050565b7f6dec07ecf0bc862bcf8ddbfa011a2677e33200a2522c21f8166adc8988a4c6785460008281526101d26020908152604080832060048452909152812054909190811480156128e057508015155b9392505050565b60c881565b6000828152609760205260408120611c16908363ffffffff61436716565b6000828152609760205260408120611c16908363ffffffff61493216565b6060600061293583612679565b9050806001600160401b038111801561294d57600080fd5b50604051908082528060200260200182016040528015612977578160200160208202803683370190505b50915060005b818110156129ae5761298f8482611bee565b83828151811061299b57fe5b602090810291909101015260010161297d565b5050919050565b6101d3546001600160a01b031681565b6000806000806000806000806000806129dc615693565b60c98c815481106129e957fe5b600091825260209182902060408051608081018252929091015461ffff8116835262010000810460ff908116948401949094526301000000810490931690820152600160201b9091046001600160401b031660608201529050612a4a61567c565b60ca8d81548110612a5757fe5b60009182526020918290206040805180820182526002909302909101805460ff168352600190810154838501819052865194870151928701516060880151949650929391612aa79190600d614947565b612ab886602001516002602d614947565b612ac987602001516003603d614947565b612ada886020015160046029614947565b612aeb896020015160056016614947565b612afc8a6020015160066002614947565b9b509b509b509b509b509b509b509b509b509b5050509193959799509193959799565b606b8054604080516020601f600260001961010060018816150201909516949094049384018190048102820181019092528281526060939092909183018282801561178a5780601f1061175f5761010080835404028352916020019161178a565b612b88613e47565b60005b8381101561192b57612bc1858583818110612ba257fe5b90506020020135848484818110612bb557fe5b90506020020135613ef6565b600101612b8b565b612bd1613e47565b60005b8251811015612c3657818181518110612be957fe5b60200260200101516101d260008681526020019081526020016000206000858481518110612c1357fe5b602090810291909101810151825281019190915260400160002055600101612bd4565b50505050565b6101cb6020526000908152604090205481565b600081565b612c5c613dd5565b6001600160a01b0316826001600160a01b03161415612cc2576040805162461bcd60e51b815260206004820152601960248201527f4552433732313a20617070726f766520746f2063616c6c657200000000000000604482015290519081900360640190fd5b8060696000612ccf613dd5565b6001600160a01b03908116825260208083019390935260409182016000908120918716808252919093529120805460ff191692151592909217909155612d13613dd5565b60408051841515815290516001600160a01b0392909216917f17307eab39ab6107e8899845ad3d59bd9653f200f220920489ca2b5937696c319181900360200190a35050565b606080612d6583612928565b90506000805b8251811015612dc5576101d26000848381518110612d8557fe5b602002602001015181526020019081526020016000206000600181526020019081526020016000205460001415612dbd576001909101905b600101612d6b565b50806001600160401b0381118015612ddc57600080fd5b50604051908082528060200260200182016040528015612e06578160200160208202803683370190505b50925060005b8251811015612e93576101d26000848381518110612e2657fe5b602002602001015181526020019081526020016000206000600181526020019081526020016000205460001415612e8b57828181518110612e6357fe5b602002602001015184836001900393508381518110612e7e57fe5b6020026020010181815250505b600101612e0c565b505050919050565b612ea660003361290a565b612eaf57600080fd5b6101cc80546001600160a01b0319166001600160a01b0392909216919091179055565b6101cf5481565b600060c98281548110612ee857fe5b6000918252602090912001546301000000900460ff1692915050565b612f0f60003361290a565b612f1857600080fd5b61195360cb8260ff6156ba565b606581565b600080805b83811015612fbf576000612f65600a612f59888886818110612f4d57fe5b90506020020135613807565b9063ffffffff61496216565b90506101d26000878785818110612f7857fe5b9050602002013581526020019081526020016000206000600381526020019081526020016000205460001415612fb15792830192612fb6565b918201915b50600101612f2f565b509250929050565b612fd8612fd2613dd5565b83614043565b6130135760405162461bcd60e51b8152600401808060200182810382526031815260200180615a656031913960400191505060405180910390fd5b612c36848484846149c9565b613027613e47565b6000805b848110156132ed5760008481526101d260208181526040808420600385529091528220549188888581811061305c57fe5b90506020020135815260200190815260200160002060006003815260200190815260200160002054146130d6576040805162461bcd60e51b815260206004820152601a60248201527f4368617261637465722076657273696f6e206d69736d61746368000000000000604482015290519081900360640190fd5b6131476130fb60c98888858181106130ea57fe5b905060200201358154811061168a57fe5b62ffffff166101d2600089898681811061311157fe5b9050602002013581526020019081526020016000206000600281526020019081526020016000205461429e90919063ffffffff16565b82019150600061315c87878481811061242657fe5b6101d3549091506001600160a01b038083169116141561328c576101d3546001600160a01b031663b8cae95088888581811061319457fe5b905060200201356040518263ffffffff1660e01b81526004018082815260200191505060206040518083038186803b1580156131cf57600080fd5b505afa1580156131e3573d6000803e3d6000fd5b505050506040513d60208110156131f957600080fd5b50516101d3549091506001600160a01b031663847331638289898681811061321d57fe5b905060200201356040518363ffffffff1660e01b815260040180836001600160a01b03166001600160a01b0316815260200182815260200192505050600060405180830381600087803b15801561327357600080fd5b505af1158015613287573d6000803e3d6000fd5b505050505b61329b87878481811061257157fe5b8686838181106132a757fe5b90506020020135816001600160a01b03167f696de425f79f4a40bc6d2122ca50507f0efbeabbff86a84871b7196ab8ea8df760405160405180910390a35060010161302b565b506132fb81611ac185613807565b61330e611ae060c9868154811061168a57fe5b101561334f576040805162461bcd60e51b815260206004820152600b60248201526a141bddd95c881b1a5b5a5d60aa1b604482015290519081900360640190fd5b60008381526101d2602090815260408083206002845290915290205461338b90611ac1670de0b6b3a7640000612f59858763ffffffff61424516565b60009384526101d260209081526040808620600287529091529093209290925550505050565b600042826001600160401b031611156133cc575060006116a7565b60006101d454836001600160401b03164203816133e557fe5b04905060c88111156116a4575060c892915050565b606061340582613dc2565b6134405760405162461bcd60e51b815260040180806020018281038252602f815260200180615a15602f913960400191505060405180910390fd5b6000828152606c602090815260409182902080548351601f60026000196101006001861615020190931692909204918201849004840281018401909452808452606093928301828280156134d55780601f106134aa576101008083540402835291602001916134d5565b820191906000526020600020905b8154815290600101906020018083116134b857829003601f168201915b5050505050905060606134e66125fd565b90508051600014156134fa575090506116a7565b8151156135bb5780826040516020018083805190602001908083835b602083106135355780518252601f199092019160209182019101613516565b51815160209384036101000a600019018019909216911617905285519190930192850191508083835b6020831061357d5780518252601f19909201916020918201910161355e565b6001836020036101000a03801982511681845116808217855250505050505090500192505050604051602081830303815290604052925050506116a7565b806135c585614a1b565b6040516020018083805190602001908083835b602083106135f75780518252601f1990920191602091820191016135d8565b51815160209384036101000a600019018019909216911617905285519190930192850191508083835b6020831061363f5780518252601f199092019160209182019101613620565b6001836020036101000a0380198251168184511680821785525050505050509050019250505060405160208183030381529060405292505050919050565b60008181526097602052604081206116a490614038565b61369f60003361290a565b6136a857600080fd5b6101d380546001600160a01b0319166001600160a01b0392909216919091179055565b604080516a4d494e5445525f524f4c4560a81b8152905190819003600b01902081565b60008281526097602052604090206002015461370c90611ba4613dd5565b611c8e5760405162461bcd60e51b81526004018080602001828103825260308152602001806158946030913960400191505060405180910390fd5b600581565b613754613e47565b60008381526101d06020526040902080546001019055816137845760008381526101d16020526040902054613798565b60008381526101d160205260409020546001015b60008481526101d160209081526040808320939093556101d281528282206001835290522054156137c857600080fd5b6137d6838261ffff16613ef6565b60086137e384606661270c565b14156118cd5760006137f684606561270c565b6001019050612c3684606583613d3f565b60006116a461381c60c9848154811061168a57fe5b60008481526101d260209081526040808320600284529091529020549062ffffff1663ffffffff61429e16565b606081516001600160401b038111801561386257600080fd5b5060405190808252806020026020018201604052801561388c578160200160208202803683370190505b50905060005b82518110156138f3576101d2600085815260200190815260200160002060008483815181106138bd57fe5b60200260200101518152602001908152602001600020548282815181106138e057fe5b6020908102919091010152600101613892565b5092915050565b6101d56020526000908152604090205481565b61391860003361290a565b61392157600080fd5b60046101cf55565b6001600160a01b03918216600090815260696020908152604080832093909416825291909152205460ff1690565b61395f613e47565b8060c9838154811061396d57fe5b9060005260206000200160000160046101000a8154816001600160401b0302191690836001600160401b031602179055505050565b606781565b60006139b1614af5565b4285613c295760c980546040805160808101825261ffff808f16825260ff808f1660208085019182528f83168587019081526001600160401b03808b16606088019081526001808b018c5560009b8c5297517f66be4f155c5ef2ebd3772b228f2f00681e4ed5826cdb3b1943cc11ad15ad1d288b018054965194519251909316600160201b026bffffffffffffffff000000001992881663010000000263ff0000001995909816620100000262ff0000199290991661ffff19909716969096171696909617919091169390931793909316179055825180840190935293825291985060ca92909190820190613aa7908b906144a9565b905281546001808201845560009384526020938490208351600290930201805460ff191660ff90931692909217825591909201519101558a6001600160a01b03811615801590613b0257506001600160a01b038c1661dead14155b8015613b385750604080516d1393d7d3d5d3915117d31253525560921b8152905190819003600e019020613b36908d61290a565b155b8015613b4f57506101cf54613b4c8d612679565b10155b15613be357506101d354604080516330e7f10b60e21b81526001600160a01b038e81166004830152602482018a905291519190921691829163c39fc42c9160448082019260009290919082900301818387803b158015613bae57600080fd5b505af1158015613bc2573d6000803e3d6000fd5b50506101d354613bde92506001600160a01b03169050886144d5565b613bed565b613bed8c886144d5565b6040516001600160a01b0382169088907f4589a3573ad46836d8192432d52ee2523357610d87f3cc4cc61da7ea362989f790600090a350613cee565b600060c98781548110613c3857fe5b9060005260206000200190508a8160000160006101000a81548161ffff021916908361ffff160217905550898160000160026101000a81548160ff021916908360ff160217905550888160000160036101000a81548160ff021916908360ff160217905550818160000160046101000a8154816001600160401b0302191690836001600160401b03160217905550600060ca8881548110613cd557fe5b6000918252602090912060016002909202010189905550505b505060008481526101d2602090815260408083206002845290915280822062ffffff959095169094556067815283812061ffff939093169092556003825291902060ff909116905595945050505050565b613d47613e47565b60009283526101d260209081526040808520938552929052912055565b613d6c613e47565b8060c98381548110613d7a57fe5b60009182526020808320909101805460ff9490941663010000000263ff00000019909416939093179092559283526101d2815260408084206004855290915282209190915550565b60006116a460668363ffffffff614b8b16565b3390565b600081815260686020526040902080546001600160a01b0319166001600160a01b0384169081179091558190613e0e826125cf565b6001600160a01b03167f8c5be1e5ebec7d5bd14f71427d1e84f3dd0314c0f7b2291e5b200ac8c7c3b92560405160405180910390a45050565b604080516923a0a6a2afa0a226a4a760b11b8152905190819003600a019020613e70903361290a565b61270a576040805162461bcd60e51b81526020600482015260026024820152614e4160f01b604482015290519081900360640190fd5b60006116a4613ec46001611ac160ff8616600a63ffffffff61496216565b613eea613edb60ff8616600a63ffffffff61424516565b6103e89063ffffffff61429e16565b9063ffffffff61424516565b600060c98381548110613f0557fe5b6000918252602090912001805490915060ff62010000909104811610156118cd578054600090613f3f9061ffff168463ffffffff61429e16565b825490915060009060cb9062010000900460ff166101008110613f5e57fe5b015490505b80821061402257825460ff6201000080830482166001019091160262ff000019909116178355908190039084613f98816125cf565b8454604080516201000090920460ff168252516001600160a01b0392909216917f1e8ccc52fc2f78485fd47b1731bb16a4286756d20e27ba77463ba36806772372916020908290030190a3825460ff620100009091048116101561401857825460cb9062010000900460ff16610100811061400f57fe5b0154905061401d565b600091505b613f63565b50815461ffff191661ffff919091161790555050565b60006116a482614b97565b600061404e82613dc2565b6140895760405162461bcd60e51b815260040180806020018281038252602c815260200180615868602c913960400191505060405180910390fd5b6000614094836125cf565b9050806001600160a01b0316846001600160a01b031614806140cf5750836001600160a01b03166140c484611795565b6001600160a01b0316145b806140df57506140df8185613929565b949350505050565b826001600160a01b03166140fa826125cf565b6001600160a01b03161461413f5760405162461bcd60e51b81526004018080602001828103825260298152602001806159ec6029913960400191505060405180910390fd5b6001600160a01b0382166141845760405162461bcd60e51b81526004018080602001828103825260248152602001806158446024913960400191505060405180910390fd5b61418f838383614b9b565b61419a600082613dd9565b6001600160a01b03831660009081526065602052604090206141c2908263ffffffff614ce116565b506001600160a01b03821660009081526065602052604090206141eb908263ffffffff614ced16565b506141fe6066828463ffffffff614cf916565b5080826001600160a01b0316846001600160a01b03167fddf252ad1be2c89b69c2b068fc378daa952ba7f163c4a11628f55a4df523b3ef60405160405180910390a4505050565b60008261425457506000611c19565b8282028284828161426157fe5b0414611c165760405162461bcd60e51b815260040180806020018281038252602181526020018061599f6021913960400191505060405180910390fd5b600082820183811015611c16576040805162461bcd60e51b815260206004820152601b60248201527f536166654d6174683a206164646974696f6e206f766572666c6f770000000000604482015290519081900360640190fd5b6000828152609760205260409020614316908263ffffffff614d0f16565b1561195357614323613dd5565b6001600160a01b0316816001600160a01b0316837f2f8788117e7eff1d82e926ec794901d17c78024a50270940304540a733656f0d60405160405180910390a45050565b6000611c168383614d24565b6000828152609760205260409020614391908263ffffffff614d8816565b156119535761439e613dd5565b6001600160a01b0316816001600160a01b0316837ff6391f5c32d9c69d2a47ea670b442974b53935d1edc7fd64eb21e047a839171b60405160405180910390a45050565b6000806143fa6001611ac1868863ffffffff61444c16565b6040805160208082018790528251808303820181529183019092528051910120909150600090614430908363ffffffff614d9d16565b9050614442818763ffffffff61429e16565b9695505050505050565b6000828211156144a3576040805162461bcd60e51b815260206004820152601e60248201527f536166654d6174683a207375627472616374696f6e206f766572666c6f770000604482015290519081900360640190fd5b50900390565b604080516020808201949094528082019290925280518083038201815260609092019052805191012090565b6001600160a01b038216614530576040805162461bcd60e51b815260206004820181905260248201527f4552433732313a206d696e7420746f20746865207a65726f2061646472657373604482015290519081900360640190fd5b61453981613dc2565b1561458b576040805162461bcd60e51b815260206004820152601c60248201527f4552433732313a20746f6b656e20616c7265616479206d696e74656400000000604482015290519081900360640190fd5b61459760008383614b9b565b6001600160a01b03821660009081526065602052604090206145bf908263ffffffff614ced16565b506145d26066828463ffffffff614cf916565b5060405181906001600160a01b038416906000907fddf252ad1be2c89b69c2b068fc378daa952ba7f163c4a11628f55a4df523b3ef908290a45050565b6118cd83838360405180602001604052806000815250612fc7565b60008080806146398686614e04565b9097909650945050505050565b805161195390606d9060208401906156f9565b6000614664826125cf565b905061467281600084614b9b565b61467d600083613dd9565b6000828152606c602052604090205460026000196101006001841615020190911604156146bb576000828152606c602052604081206146bb91615766565b6001600160a01b03811660009081526065602052604090206146e3908363ffffffff614ce116565b506146f560668363ffffffff614e7f16565b5060405182906000906001600160a01b038416907fddf252ad1be2c89b69c2b068fc378daa952ba7f163c4a11628f55a4df523b3ef908390a45050565b60006140df848484614e8b565b6001600160e01b0319808216141561479e576040805162461bcd60e51b815260206004820152601c60248201527f4552433136353a20696e76616c696420696e7465726661636520696400000000604482015290519081900360640190fd5b6001600160e01b0319166000908152603360205260409020805460ff19166001179055565b60006147ce30614f55565b15905090565b600054610100900460ff16806147ed57506147ed6147c3565b806147fb575060005460ff16155b6148365760405162461bcd60e51b815260040180806020018281038252602e81526020018061594f602e913960400191505060405180910390fd5b600054610100900460ff16158015614861576000805460ff1961ff0019909116610100171660011790555b614869614891565b614871614f5b565b61487b8383614ff8565b80156118cd576000805461ff0019169055505050565b600054610100900460ff16806148aa57506148aa6147c3565b806148b8575060005460ff16155b6148f35760405162461bcd60e51b815260040180806020018281038252602e81526020018061594f602e913960400191505060405180910390fd5b600054610100900460ff1615801561491e576000805460ff1961ff0019909116610100171660011790555b80156123aa576000805461ff001916905550565b6000611c16836001600160a01b0384166150dd565b60006140df60008361ffff1661495d87876144a9565b6143e2565b60008082116149b8576040805162461bcd60e51b815260206004820152601a60248201527f536166654d6174683a206469766973696f6e206279207a65726f000000000000604482015290519081900360640190fd5b8183816149c157fe5b049392505050565b6149d48484846140e7565b6149e0848484846150f5565b612c365760405162461bcd60e51b81526004018080602001828103825260328152602001806158126032913960400191505060405180910390fd5b606081614a4057506040805180820190915260018152600360fc1b60208201526116a7565b8160005b8115614a5857600101600a82049150614a44565b6060816001600160401b0381118015614a7057600080fd5b506040519080825280601f01601f191660200182016040528015614a9b576020820181803683370190505b50859350905060001982015b8315614aec57600a840660300160f81b82828060019003935081518110614aca57fe5b60200101906001600160f81b031916908160001a905350600a84049350614aa7565b50949350505050565b604080516923a0a6a2afa0a226a4a760b11b8152905190819003600a019020614b1e903361290a565b80614b4e5750604080516a4d494e5445525f524f4c4560a81b8152905190819003600b019020614b4e903361290a565b61270a576040805162461bcd60e51b81526020600482015260096024820152686e6f2061636365737360b81b604482015290519081900360640190fd5b6000611c1683836150dd565b5490565b60008181526101d2602090815260408083206001845290915290205415614bc157600080fd5b60408051600280825260608083018452926020830190803683370190505090508381600081518110614bef57fe5b60200260200101906001600160a01b031690816001600160a01b0316815250508281600181518110614c1d57fe5b6001600160a01b039283166020918202929092018101919091526101cc546040805163d8138acf60e01b815260016024820181905260048201928352865160448301528651939095169463d8138acf9487949193928392606490910191868101910280838360005b83811015614c9d578181015183820152602001614c85565b505050509050019350505050600060405180830381600087803b158015614cc357600080fd5b505af1158015614cd7573d6000803e3d6000fd5b5050505050505050565b6000611c168383615275565b6000611c16838361533b565b60006140df84846001600160a01b038516615385565b6000611c16836001600160a01b03841661533b565b81546000908210614d665760405162461bcd60e51b81526004018080602001828103825260228152602001806157c16022913960400191505060405180910390fd5b826000018281548110614d7557fe5b9060005260206000200154905092915050565b6000611c16836001600160a01b038416615275565b6000808211614df3576040805162461bcd60e51b815260206004820152601860248201527f536166654d6174683a206d6f64756c6f206279207a65726f0000000000000000604482015290519081900360640190fd5b818381614dfc57fe5b069392505050565b815460009081908310614e485760405162461bcd60e51b815260040180806020018281038252602281526020018061597d6022913960400191505060405180910390fd5b6000846000018481548110614e5957fe5b906000526020600020906002020190508060000154816001015492509250509250929050565b6000611c16838361541c565b60008281526001840160205260408120548281614f265760405162461bcd60e51b81526004018080602001828103825283818151815260200191508051906020019080838360005b83811015614eeb578181015183820152602001614ed3565b50505050905090810190601f168015614f185780820380516001836020036101000a031916815260200191505b509250505060405180910390fd5b50846000016001820381548110614f3957fe5b9060005260206000209060020201600101549150509392505050565b3b151590565b600054610100900460ff1680614f745750614f746147c3565b80614f82575060005460ff16155b614fbd5760405162461bcd60e51b815260040180806020018281038252602e81526020018061594f602e913960400191505060405180910390fd5b600054610100900460ff16158015614fe8576000805460ff1961ff0019909116610100171660011790555b61491e6301ffc9a760e01b61473f565b600054610100900460ff168061501157506150116147c3565b8061501f575060005460ff16155b61505a5760405162461bcd60e51b815260040180806020018281038252602e81526020018061594f602e913960400191505060405180910390fd5b600054610100900460ff16158015615085576000805460ff1961ff0019909116610100171660011790555b825161509890606a9060208601906156f9565b5081516150ac90606b9060208501906156f9565b506150bd6380ac58cd60e01b61473f565b6150cd635b5e139f60e01b61473f565b61487b63780e9d6360e01b61473f565b60009081526001919091016020526040902054151590565b6000615109846001600160a01b0316614f55565b615115575060016140df565b606061523b630a85bd0160e11b61512a613dd5565b88878760405160240180856001600160a01b03166001600160a01b03168152602001846001600160a01b03166001600160a01b0316815260200183815260200180602001828103825283818151815260200191508051906020019080838360005b838110156151a357818101518382015260200161518b565b50505050905090810190601f1680156151d05780820380516001836020036101000a031916815260200191505b5095505050505050604051602081830303815290604052906001600160e01b0319166020820180516001600160e01b038381831617835250505050604051806060016040528060328152602001615812603291396001600160a01b038816919063ffffffff6154f016565b9050600081806020019051602081101561525457600080fd5b50516001600160e01b031916630a85bd0160e11b1492505050949350505050565b6000818152600183016020526040812054801561533157835460001980830191908101906000908790839081106152a857fe5b90600052602060002001549050808760000184815481106152c557fe5b6000918252602080832090910192909255828152600189810190925260409020908401905586548790806152f557fe5b60019003818190600052602060002001600090559055866001016000878152602001908152602001600020600090556001945050505050611c19565b6000915050611c19565b600061534783836150dd565b61537d57508154600181810184556000848152602080822090930184905584548482528286019093526040902091909155611c19565b506000611c19565b6000828152600184016020526040812054806153ea5750506040805180820182528381526020808201848152865460018181018955600089815284812095516002909302909501918255915190820155865486845281880190925292909120556128e0565b828560000160018303815481106153fd57fe5b90600052602060002090600202016001018190555060009150506128e0565b60008181526001830160205260408120548015615331578354600019808301919081019060009087908390811061544f57fe5b906000526020600020906002020190508087600001848154811061546f57fe5b6000918252602080832084546002909302019182556001938401549184019190915583548252898301905260409020908401905586548790806154ae57fe5b6000828152602080822060026000199094019384020182815560019081018390559290935588815289820190925260408220919091559450611c199350505050565b60606140df84846000858561550485614f55565b615555576040805162461bcd60e51b815260206004820152601d60248201527f416464726573733a2063616c6c20746f206e6f6e2d636f6e7472616374000000604482015290519081900360640190fd5b60006060866001600160a01b031685876040518082805190602001908083835b602083106155945780518252601f199092019160209182019101615575565b6001836020036101000a03801982511681845116808217855250505050505090500191505060006040518083038185875af1925050503d80600081146155f6576040519150601f19603f3d011682016040523d82523d6000602084013e6155fb565b606091505b509150915061560b828286615616565b979650505050505050565b606083156156255750816128e0565b8251156156355782518084602001fd5b60405162461bcd60e51b8152602060048201818152845160248401528451859391928392604401919085019080838360008315614eeb578181015183820152602001614ed3565b604080518082019091526000808252602082015290565b60408051608081018252600080825260208201819052918101829052606081019190915290565b8261010081019282156156e9579160200282015b828111156156e95782518255916020019190600101906156ce565b506156f59291506157a6565b5090565b828054600181600116156101000203166002900490600052602060002090601f016020900481019282601f1061573a57805160ff19168380011785556156e9565b828001600101855582156156e957918201828111156156e95782518255916020019190600101906156ce565b50805460018160011615610100020316600290046000825580601f1061578c57506123aa565b601f0160209004906000526020600020908101906123aa91905b61179291905b808211156156f557600081556001016157ac56fe456e756d657261626c655365743a20696e646578206f7574206f6620626f756e6473416363657373436f6e74726f6c3a2073656e646572206d75737420626520616e2061646d696e20746f206772616e744552433732313a207472616e7366657220746f206e6f6e20455243373231526563656976657220696d706c656d656e7465724552433732313a207472616e7366657220746f20746865207a65726f20616464726573734552433732313a206f70657261746f7220717565727920666f72206e6f6e6578697374656e7420746f6b656e416363657373436f6e74726f6c3a2073656e646572206d75737420626520616e2061646d696e20746f207265766f6b654552433732313a20617070726f76652063616c6c6572206973206e6f74206f776e6572206e6f7220617070726f76656420666f7220616c6c4552433732313a2062616c616e636520717565727920666f7220746865207a65726f20616464726573734552433732313a206f776e657220717565727920666f72206e6f6e6578697374656e7420746f6b656e496e697469616c697a61626c653a20636f6e747261637420697320616c726561647920696e697469616c697a6564456e756d657261626c654d61703a20696e646578206f7574206f6620626f756e6473536166654d6174683a206d756c7469706c69636174696f6e206f766572666c6f774552433732313a20617070726f76656420717565727920666f72206e6f6e6578697374656e7420746f6b656e4552433732313a207472616e73666572206f6620746f6b656e2074686174206973206e6f74206f776e4552433732314d657461646174613a2055524920717565727920666f72206e6f6e6578697374656e7420746f6b656e4552433732313a20617070726f76616c20746f2063757272656e74206f776e65724552433732313a207472616e736665722063616c6c6572206973206e6f74206f776e6572206e6f7220617070726f766564416363657373436f6e74726f6c3a2063616e206f6e6c792072656e6f756e636520726f6c657320666f722073656c66a264697066735822122002cc9373dab2c309366fcd59dc409bd3547bba7e7cd07081bff8aa333dcd761364736f6c63430006050033","immutableReferences":{},"source":"pragma solidity ^0.6.0;\n\nimport \"@openzeppelin/contracts-upgradeable/proxy/Initializable.sol\";\nimport \"@openzeppelin/contracts-upgradeable/token/ERC721/ERC721Upgradeable.sol\";\nimport \"@openzeppelin/contracts-upgradeable/access/AccessControlUpgradeable.sol\";\nimport \"@openzeppelin/contracts/math/SafeMath.sol\";\nimport \"./Promos.sol\";\nimport \"./util.sol\";\nimport \"./Garrison.sol\";\nimport \"./common.sol\";\n\ncontract Characters is Initializable, ERC721Upgradeable, AccessControlUpgradeable {\n\n    using SafeMath for uint16;\n    using SafeMath for uint8;\n\n    bytes32 public constant GAME_ADMIN = keccak256(\"GAME_ADMIN\");\n    bytes32 public constant NO_OWNED_LIMIT = keccak256(\"NO_OWNED_LIMIT\");\n\n    bytes32 public constant MINTER_ROLE = keccak256(\"MINTER_ROLE\");\n\n    // Copied from promos.sol, to avoid paying 5k gas to query a constant.\n    uint256 private constant BIT_FIRST_CHARACTER = 1;\n\n    uint256 public constant VAR_EQUIPMENT_VERSION = 1; // assert nftvar of same name is equal\n\n    function initialize () public initializer {\n        __ERC721_init(\"CryptoBlades character\", \"CBC\");\n        __AccessControl_init_unchained();\n\n        _setupRole(DEFAULT_ADMIN_ROLE, msg.sender);\n        secondsPerStamina = 300;\n    }\n\n    function migrateTo_1ee400a(uint256[255] memory _experienceTable) public {\n        require(hasRole(DEFAULT_ADMIN_ROLE, msg.sender));\n        experienceTable = _experienceTable;\n    }\n\n    function migrateTo_951a020() public {\n        require(hasRole(DEFAULT_ADMIN_ROLE, msg.sender));\n\n        // Apparently ERC165 interfaces cannot be removed in this version of the OpenZeppelin library.\n        // But if we remove the registration, then while local deployments would not register the interface ID,\n        // existing deployments on both testnet and mainnet would still be registered to handle it.\n        // That sort of inconsistency is a good way to attract bugs that only happens on some environments.\n        // Hence, we keep registering the interface despite not actually implementing the interface.\n        _registerInterface(0xe62e6974); // TransferCooldownableInterfaceId.interfaceId()\n    }\n\n    function migrateTo_ef994e2(Promos _promos) public {\n        require(hasRole(DEFAULT_ADMIN_ROLE, msg.sender));\n\n        promos = _promos;\n    }\n\n    function migrateTo_b627f23() external {\n        require(hasRole(DEFAULT_ADMIN_ROLE, msg.sender));\n\n        characterLimit = 4;\n    }\n\n    function migrateTo_1a19cbb(Garrison _garrison) external {\n        require(hasRole(DEFAULT_ADMIN_ROLE, msg.sender));\n\n        garrison = _garrison;\n    }\n\n    /*\n        visual numbers start at 0, increment values by 1\n        levels: 1-256\n        traits: 0-3 [0(fire) > 1(earth) > 2(lightning) > 3(water) > repeat]\n    */\n\n    struct Character {\n        uint16 xp; // xp to next level\n        uint8 level; // up to 256 cap\n        uint8 trait; // 2b trait, TBD\n        uint64 staminaTimestamp; // standard timestamp in seconds-resolution marking regen start from 0\n    }\n    struct CharacterCosmetics {\n        uint8 version;\n        uint256 seed;\n    }\n\n    Character[] private tokens;\n    CharacterCosmetics[] private cosmetics;\n\n    uint256 public constant maxStamina = 200;\n\n    uint256[256] private experienceTable; // fastest lookup in the west\n\n    // UNUSED; KEPT FOR UPGRADEABILITY PROXY COMPATIBILITY\n    mapping(uint256 => uint256) public lastTransferTimestamp;\n\n    Promos public promos;\n\n    uint256 private lastMintedBlock; // DEPRECATED\n    uint256 private firstMintedOfLastBlock; // DEPRECATED\n\n    uint256 public characterLimit;\n\n    mapping(uint256 => uint256) public raidsDone;\n    mapping(uint256 => uint256) public raidsWon;\n\n    uint256 public constant NFTVAR_SIMPLEQUEST_PROGRESS = 101;\n    uint256 public constant NFTVAR_SIMPLEQUEST_TYPE = 102;\n    uint256 public constant NFTVAR_REPUTATION = 103;\n\n    uint256 public constant SIMPLEQUEST_TYPE_RAID = 8;\n\n    mapping(uint256 => mapping(uint256 => uint256)) public nftVars; // nftID, fieldID, value\n    uint256 public constant NFTVAR_BUSY = 1; // value bitflags: 1 (pvp) | 2 (raid) | 4 (TBD)..\n\n    Garrison public garrison;\n\n    uint256 public constant NFTVAR_BONUS_POWER = 2;\n    uint256 public constant NFTVAR_NON_GENESIS_VERSION = 3; // 0 = genesis, 1 = v2\n    uint256 public constant NFTVAR_EQUIPMENT_VERSION = 4; // 0 = no equipment/fresh\n    /* POWER DATA:\n        pve power 24b each: vs Fire, vs Earth, vs Lightning, vs Water, base\n        pvp power 14b each tiered: vs Fire, vs Earth, vs Lightning, vs Water\n        pvp power 14b each FFA: vs Fire, vs Earth, vs Lightning, vs Water\n        level 8b\n        traits 2b each: character, weapon, shield\n        //246 bits so far\n    */\n    uint256 public constant NFTVAR_POWER_DATA = 5;\n\n    uint256 public secondsPerStamina;\n\n    mapping(uint256 => uint256) public vars;\n\n    event NewCharacter(uint256 indexed character, address indexed minter);\n    event LevelUp(address indexed owner, uint256 indexed character, uint16 level);\n    event Burned(address indexed owner, uint256 indexed id);\n\n    modifier restricted() {\n        _restricted();\n        _;\n    }\n\n    function _restricted() internal view {\n        require(hasRole(GAME_ADMIN, msg.sender), \"NA\");\n    }\n\n    modifier minterOnly() {\n        _minterOnly();\n        _;\n    }\n\n    function _minterOnly() internal view {\n        require(hasRole(GAME_ADMIN, msg.sender) || hasRole(MINTER_ROLE, msg.sender), 'no access');\n    }\n\n    function get(uint256 id) public view returns (uint16, uint8, uint8, uint64, uint16, uint16, uint16, uint16, uint16, uint16) {\n        Character memory c = tokens[id];\n        CharacterCosmetics memory cc = cosmetics[id];\n        return (c.xp, c.level, c.trait, c.staminaTimestamp,\n            getRandomCosmetic(cc.seed, 1, 13), // head\n            getRandomCosmetic(cc.seed, 2, 45), // arms\n            getRandomCosmetic(cc.seed, 3, 61), // torso\n            getRandomCosmetic(cc.seed, 4, 41), // legs\n            getRandomCosmetic(cc.seed, 5, 22), // boots\n            getRandomCosmetic(cc.seed, 6, 2) // race\n        );\n    }\n\n    function getRandomCosmetic(uint256 seed, uint256 seed2, uint16 limit) private pure returns (uint16) {\n        return uint16(RandomUtil.randomSeededMinMax(0, limit, RandomUtil.combineSeeds(seed, seed2)));\n    }\n\n    function getCosmeticsSeed(uint256 id) public view returns (uint256) {\n        CharacterCosmetics memory cc = cosmetics[id];\n        return cc.seed;\n    }\n\n    function getSoulForBurns(uint256[] calldata burnIds) external view returns (uint256 genesisSoulAmount, uint256 nonGenesisSoulAmount) {\n        for(uint i = 0; i < burnIds.length; i++) {\n            uint256 power = getTotalPower(burnIds[i]).div(10);\n            if(nftVars[burnIds[i]][NFTVAR_NON_GENESIS_VERSION] == 0) {\n                genesisSoulAmount += power;\n            }\n            else {\n                nonGenesisSoulAmount += power;\n            }\n        }\n    }\n\n    function mint(address minter, uint256 seed) public restricted returns (uint256 tokenID) {\n        tokenID = tokens.length;\n        uint16 xp = 0;\n        uint8 level = 0; // 1\n        uint8 trait = uint8(RandomUtil.randomSeededMinMax(0,3,seed));\n        uint64 staminaTimestamp = uint64(now.sub(getStaminaMaxWait()));\n\n        tokens.push(Character(xp, level, trait, staminaTimestamp));\n        cosmetics.push(CharacterCosmetics(0, RandomUtil.combineSeeds(seed, 1)));\n        address receiver = minter;\n        if(minter != address(0) && minter != address(0x000000000000000000000000000000000000dEaD) && !hasRole(NO_OWNED_LIMIT, minter) && balanceOf(minter) >= characterLimit) {\n            receiver = address(garrison);\n            garrison.redirectToGarrison(minter, tokenID);\n            _mint(address(garrison), tokenID);\n        }\n        else {\n            _mint(minter, tokenID);\n        }\n        nftVars[tokenID][NFTVAR_NON_GENESIS_VERSION] = 1;\n\n        emit NewCharacter(tokenID, receiver);\n    }\n\n    function customMint(address minter, uint16 xp, uint8 level, uint8 trait, uint256 seed, uint256 tokenID, uint24 bonusPower, uint16 reputation, uint8 version) minterOnly public returns (uint256) {\n        uint64 staminaTimestamp = uint64(now); // 0 on purpose to avoid chain jumping abuse\n\n        if(tokenID == 0){\n            tokenID = tokens.length;\n            tokens.push(Character(xp, level, trait, staminaTimestamp));\n            cosmetics.push(CharacterCosmetics(0, RandomUtil.combineSeeds(seed, 1)));\n            address receiver = minter;\n            if(minter != address(0) && minter != address(0x000000000000000000000000000000000000dEaD) && !hasRole(NO_OWNED_LIMIT, minter) && balanceOf(minter) >= characterLimit) {\n                receiver = address(garrison);\n                garrison.redirectToGarrison(minter, tokenID);\n                _mint(address(garrison), tokenID);\n            }\n            else {\n                _mint(minter, tokenID);\n            }\n            emit NewCharacter(tokenID, receiver);\n        }\n        else {\n            Character storage ch = tokens[tokenID];\n            ch.xp = xp;\n            ch.level = level;\n            ch.trait = trait;\n            ch.staminaTimestamp = staminaTimestamp;\n\n            CharacterCosmetics storage cc = cosmetics[tokenID];\n            cc.seed = seed;\n        }\n\n        nftVars[tokenID][NFTVAR_BONUS_POWER] = bonusPower;\n        nftVars[tokenID][NFTVAR_REPUTATION] = reputation;\n        nftVars[tokenID][NFTVAR_NON_GENESIS_VERSION] = version;\n\n        return tokenID;\n    }\n\n    function burnIntoCharacter(uint256[] calldata burnIds, uint256 targetCharId, uint256 burnPowerMultiplier) external restricted {\n        uint256 burnPower = 0;\n        for(uint i = 0; i < burnIds.length; i++) {\n            require(nftVars[burnIds[i]][NFTVAR_NON_GENESIS_VERSION] == nftVars[targetCharId][NFTVAR_NON_GENESIS_VERSION], \"Character version mismatch\");\n            burnPower += nftVars[burnIds[i]][NFTVAR_BONUS_POWER].add(getPowerAtLevel(tokens[burnIds[i]].level));\n            address burnOwner = ownerOf(burnIds[i]);\n            if(burnOwner == address(garrison)) {\n                burnOwner = garrison.characterOwner(burnIds[i]);\n                garrison.updateOnBurn(burnOwner, burnIds[i]);\n            }\n            _burn(burnIds[i]);\n\n            emit Burned(\n                burnOwner,\n                burnIds[i]\n            );\n        }\n        require(uint(4).mul(getPowerAtLevel(tokens[targetCharId].level)) >= getTotalPower(targetCharId).add(burnPower), \"Power limit\");\n        nftVars[targetCharId][NFTVAR_BONUS_POWER] = burnPower.mul(burnPowerMultiplier).div(1e18).add(nftVars[targetCharId][NFTVAR_BONUS_POWER]);\n    }\n\n    function burnIntoSoul(uint256[] calldata burnIds) external restricted {\n        for(uint i = 0; i < burnIds.length; i++) {\n            address burnOwner = ownerOf(burnIds[i]);\n            if(burnOwner == address(garrison)) {\n                burnOwner = garrison.characterOwner(burnIds[i]);\n                garrison.updateOnBurn(burnOwner, burnIds[i]);\n            }\n            _burn(burnIds[i]);\n\n            emit Burned(\n                burnOwner,\n                burnIds[i]\n            );\n        }\n    }\n\n    function upgradeWithSoul(uint256 targetCharId, uint256 soulAmount, bool isCharacterGenesis) external restricted {\n        if(isCharacterGenesis) {\n            require(nftVars[targetCharId][NFTVAR_NON_GENESIS_VERSION] == 0);\n        }\n        else {\n            require(nftVars[targetCharId][NFTVAR_NON_GENESIS_VERSION] > 0);\n        }\n        uint256 burnPower = soulAmount.mul(10);\n        require(uint(4).mul(getPowerAtLevel(tokens[targetCharId].level)) >= getTotalPower(targetCharId).add(burnPower), \"Power limit\");\n        nftVars[targetCharId][NFTVAR_BONUS_POWER] = burnPower.add(nftVars[targetCharId][NFTVAR_BONUS_POWER]);\n    }\n\n    function getLevel(uint256 id) public view returns (uint8) {\n        return tokens[id].level; // this is used by dataminers and it benefits us\n    }\n\n    function getRequiredXpForNextLevel(uint8 currentLevel) public view returns (uint16) {\n        return uint16(experienceTable[currentLevel]); // this is helpful to users as the array is private\n    }\n\n    function getPower(uint256 id) public view returns (uint24) {\n        return getPowerAtLevel(tokens[id].level);\n    }\n\n    function getTotalPower(uint256 id) public view returns (uint256) {\n        return nftVars[id][NFTVAR_BONUS_POWER].add(getPowerAtLevel(tokens[id].level));\n    }\n\n    function getPowerAtLevel(uint8 level) public pure returns (uint24) {\n        return Common.getPowerAtLevel(level);\n    }\n\n    function getTrait(uint256 id) public view returns (uint8) {\n        return tokens[id].trait;\n    }\n\n    function setTrait(uint256 id, uint8 trait) public restricted {\n        tokens[id].trait = trait;\n        // require a recalculation on equipment\n        nftVars[id][NFTVAR_EQUIPMENT_VERSION] = 0;\n    }\n\n    function getXp(uint256 id) public view returns (uint32) {\n        return tokens[id].xp;\n    }\n\n    function gainXp(uint256 id, uint16 xp) public restricted {\n        _gainXp(id, xp);\n    }\n\n    function _gainXp(uint256 id, uint256 xp) internal {\n        // NOTE: Levelups invalidate power data, but recalculating is optional\n        Character storage char = tokens[id];\n        if (char.level < 255) {\n            uint newXp = char.xp.add(xp);\n            uint requiredToLevel = experienceTable[char.level]; // technically next level\n            while (newXp >= requiredToLevel) {\n                newXp = newXp - requiredToLevel;\n                char.level += 1;\n                emit LevelUp(ownerOf(id), id, char.level);\n                if (char.level < 255)\n                    requiredToLevel = experienceTable[char.level];\n                else newXp = 0;\n            }\n            char.xp = uint16(newXp);\n        }\n    }\n\n    function gainXpAll(uint256[] calldata chars, uint256[] calldata xps) external restricted {\n        for(uint i = 0; i < chars.length; i++)\n            _gainXp(chars[i], xps[i]);\n    }\n\n    function getStaminaTimestamp(uint256 id) public view returns (uint64) {\n        return tokens[id].staminaTimestamp;\n    }\n\n    function setStaminaTimestamp(uint256 id, uint64 timestamp) public restricted {\n        tokens[id].staminaTimestamp = timestamp;\n    }\n\n    function getStaminaPoints(uint256 id) public view returns (uint8) {\n        return getStaminaPointsFromTimestamp(tokens[id].staminaTimestamp);\n    }\n\n    function getStaminaPointsFromTimestamp(uint64 timestamp) public view returns (uint8) {\n        if(timestamp  > now)\n            return 0;\n\n        uint256 points = (now - timestamp) / secondsPerStamina;\n        if(points > maxStamina) {\n            points = maxStamina;\n        }\n        return uint8(points);\n    }\n\n    function isStaminaFull(uint256 id) public view returns (bool) {\n        return getStaminaPoints(id) >= maxStamina;\n    }\n\n    function getStaminaMaxWait() public view returns (uint64) {\n        return uint64(maxStamina * secondsPerStamina);\n    }\n\n    function getFightDataAndDrainStamina(address fighter,\n        uint256 id, uint8 amount, bool allowNegativeStamina, uint256 busyFlag) public restricted returns(uint72, uint256) {\n        require(fighter == ownerOf(id)/* && nftVars[id][NFTVAR_BUSY] == 0*/ && isEquipmentReady(id));\n        //nftVars[id][NFTVAR_BUSY] |= busyFlag;\n\n        Character storage char = tokens[id];\n        uint8 staminaPoints = getStaminaPointsFromTimestamp(char.staminaTimestamp);\n        require((staminaPoints > 0 && allowNegativeStamina) // we allow going into negative, but not starting negative\n            || staminaPoints >= amount, \"Not enough stamina!\");\n\n        uint64 drainTime = uint64(amount * secondsPerStamina);\n        uint64 preTimestamp = char.staminaTimestamp;\n        if(staminaPoints >= maxStamina) { // if stamina full, we reset timestamp and drain from that\n            char.staminaTimestamp = uint64(now - getStaminaMaxWait() + drainTime);\n        }\n        else {\n            char.staminaTimestamp = uint64(char.staminaTimestamp + drainTime);\n        }\n        // bitwise magic to avoid stacking limitations later on\n        return (uint72(preTimestamp | (nftVars[id][NFTVAR_NON_GENESIS_VERSION] << 64)),\n            nftVars[id][NFTVAR_POWER_DATA]);//contains traits at bits 240,242,244 for char,wep,shield\n    }\n\n    function processRaidParticipation(uint256 id, bool won, uint16 xp) public restricted {\n        raidsDone[id] = raidsDone[id] + 1;\n        raidsWon[id] = won ? (raidsWon[id] + 1) : (raidsWon[id]);\n        require(nftVars[id][NFTVAR_BUSY] == 0); // raids do not apply busy flag for now\n        //nftVars[id][NFTVAR_BUSY] = 0;\n        _gainXp(id, xp);\n        if (getNftVar(id, NFTVAR_SIMPLEQUEST_TYPE) == SIMPLEQUEST_TYPE_RAID) {\n            uint currentProgress = getNftVar(id, NFTVAR_SIMPLEQUEST_PROGRESS);\n            setNftVar(id, NFTVAR_SIMPLEQUEST_PROGRESS, ++currentProgress);\n        }\n    }\n\n    function isEquipmentReady(uint256 id) public view returns (bool) {\n        uint ev = vars[VAR_EQUIPMENT_VERSION];\n        return nftVars[id][NFTVAR_EQUIPMENT_VERSION] == ev && ev != 0;\n    }\n\n    function getCharactersOwnedBy(address wallet) public view returns(uint256[] memory chars) {\n        uint256 count = balanceOf(wallet);\n        chars = new uint256[](count);\n        for(uint256 i = 0; i < count; i++)\n            chars[i] = tokenOfOwnerByIndex(wallet, i);\n    }\n\n    function getReadyCharacters(address wallet) public view returns(uint256[] memory chars) {\n        uint256[] memory owned = getCharactersOwnedBy(wallet);\n        uint256 ready = 0;\n        for(uint i = 0; i < owned.length; i++)\n            if(nftVars[owned[i]][NFTVAR_BUSY] == 0)\n                ready++;\n        chars = new uint[](ready);\n        for(uint i = 0; i < owned.length; i++)\n            if(nftVars[owned[i]][NFTVAR_BUSY] == 0)\n                chars[--ready] = owned[i];\n    }\n\n    function setNFTVars(uint256 id, uint256[] memory fields, uint256[] memory values) public restricted {\n        for(uint i = 0; i < fields.length; i++)\n            nftVars[id][fields[i]] = values[i];\n    }\n\n    function getNFTVars(uint256 id, uint256[] memory fields) public view returns(uint256[] memory values) {\n        values = new uint256[](fields.length);\n        for(uint i = 0; i < fields.length; i++)\n            values[i] = nftVars[id][fields[i]];\n    }\n\n    function _beforeTokenTransfer(address from, address to, uint256 tokenId) internal override {\n        require(nftVars[tokenId][NFTVAR_BUSY] == 0);\n        address[] memory users = new address[](2);\n        users[0] = from;\n        users[1] = to;\n        promos.setBits(users, BIT_FIRST_CHARACTER);\n    }\n\n    function safeTransferFrom(address from, address to, uint256 tokenId) override public {\n        if (ownerOf(tokenId) != from) { // if not owner, then probably garrison\n            garrison.transferFromGarrison(to, tokenId);\n        } else {\n            if (to != address(0) && to != address(0x000000000000000000000000000000000000dEaD) && !hasRole(NO_OWNED_LIMIT, to) && balanceOf(to) >= characterLimit) {\n                garrison.redirectToGarrison(to, tokenId);\n                super.safeTransferFrom(from, address(garrison), tokenId);\n            }\n            else {\n                super.safeTransferFrom(from, to, tokenId);\n            }\n        }\n    }\n\n    function setCharacterLimit(uint256 max) public restricted {\n        characterLimit = max;\n    }\n\n    function setVar(uint256 varField, uint256 value) external restricted {\n        vars[varField] = value;\n    }\n\n    function setVars(uint256[] calldata varFields, uint256[] calldata values) external restricted {\n        for(uint i = 0; i < varFields.length; i++) {\n            vars[varFields[i]] = values[i];\n        }\n    }\n\n    function getNftVar(uint256 characterID, uint256 nftVar) public view returns(uint256) {\n        return nftVars[characterID][nftVar];\n    }\n    function setNftVar(uint256 characterID, uint256 nftVar, uint256 value) public restricted {\n        nftVars[characterID][nftVar] = value;\n    }\n\n    function setBaseURI(string memory baseUri) public restricted {\n        _setBaseURI(baseUri);\n    }\n\n    function setSecondsPerStamina(uint256 _secondsPerStamina) external restricted {\n        secondsPerStamina = _secondsPerStamina;\n    }\n}\n","sourcePath":"/home/runner/work/cryptoblades/cryptoblades/contracts/characters.sol","compiler":{"name":"solc","version":"0.6.5+commit.f956cc89.Emscripten.clang"},"schemaVersion":"3.3.4","updatedAt":"2023-04-20T05:20:53.293Z","devdoc":{"methods":{"approve(address,uint256)":{"details":"See {IERC721-approve}."},"balanceOf(address)":{"details":"See {IERC721-balanceOf}."},"baseURI()":{"details":"Returns the base URI set via {_setBaseURI}. This will be automatically added as a prefix in {tokenURI} to each token's URI, or to the token ID if no specific URI is set for that token ID."},"getApproved(uint256)":{"details":"See {IERC721-getApproved}."},"getRoleAdmin(bytes32)":{"details":"Returns the admin role that controls `role`. See {grantRole} and {revokeRole}.     * To change a role's admin, use {_setRoleAdmin}."},"getRoleMember(bytes32,uint256)":{"details":"Returns one of the accounts that have `role`. `index` must be a value between 0 and {getRoleMemberCount}, non-inclusive.     * Role bearers are not sorted in any particular way, and their ordering may change at any point.     * WARNING: When using {getRoleMember} and {getRoleMemberCount}, make sure you perform all queries on the same block. See the following https://forum.openzeppelin.com/t/iterating-over-elements-on-enumerableset-in-openzeppelin-contracts/2296[forum post] for more information."},"getRoleMemberCount(bytes32)":{"details":"Returns the number of accounts that have `role`. Can be used together with {getRoleMember} to enumerate all bearers of a role."},"grantRole(bytes32,address)":{"details":"Grants `role` to `account`.     * If `account` had not been already granted `role`, emits a {RoleGranted} event.     * Requirements:     * - the caller must have ``role``'s admin role."},"hasRole(bytes32,address)":{"details":"Returns `true` if `account` has been granted `role`."},"isApprovedForAll(address,address)":{"details":"See {IERC721-isApprovedForAll}."},"name()":{"details":"See {IERC721Metadata-name}."},"ownerOf(uint256)":{"details":"See {IERC721-ownerOf}."},"renounceRole(bytes32,address)":{"details":"Revokes `role` from the calling account.     * Roles are often managed via {grantRole} and {revokeRole}: this function's purpose is to provide a mechanism for accounts to lose their privileges if they are compromised (such as when a trusted device is misplaced).     * If the calling account had been granted `role`, emits a {RoleRevoked} event.     * Requirements:     * - the caller must be `account`."},"revokeRole(bytes32,address)":{"details":"Revokes `role` from `account`.     * If `account` had been granted `role`, emits a {RoleRevoked} event.     * Requirements:     * - the caller must have ``role``'s admin role."},"safeTransferFrom(address,address,uint256,bytes)":{"details":"See {IERC721-safeTransferFrom}."},"setApprovalForAll(address,bool)":{"details":"See {IERC721-setApprovalForAll}."},"supportsInterface(bytes4)":{"details":"See {IERC165-supportsInterface}.     * Time complexity O(1), guaranteed to always use less than 30 000 gas."},"symbol()":{"details":"See {IERC721Metadata-symbol}."},"tokenByIndex(uint256)":{"details":"See {IERC721Enumerable-tokenByIndex}."},"tokenOfOwnerByIndex(address,uint256)":{"details":"See {IERC721Enumerable-tokenOfOwnerByIndex}."},"tokenURI(uint256)":{"details":"See {IERC721Metadata-tokenURI}."},"totalSupply()":{"details":"See {IERC721Enumerable-totalSupply}."},"transferFrom(address,address,uint256)":{"details":"See {IERC721-transferFrom}."}}},"userdoc":{"methods":{}}}