{"contractName":"CryptoBlades","abi":[{"anonymous":false,"inputs":[{"indexed":true,"internalType":"address","name":"owner","type":"address"},{"indexed":true,"internalType":"uint256","name":"character","type":"uint256"},{"indexed":false,"internalType":"uint256","name":"weapon","type":"uint256"},{"indexed":false,"internalType":"uint32","name":"target","type":"uint32"},{"indexed":false,"internalType":"uint24","name":"playerRoll","type":"uint24"},{"indexed":false,"internalType":"uint24","name":"enemyRoll","type":"uint24"},{"indexed":false,"internalType":"uint16","name":"xpGain","type":"uint16"},{"indexed":false,"internalType":"uint256","name":"skillGain","type":"uint256"}],"name":"FightOutcome","type":"event"},{"anonymous":false,"inputs":[{"indexed":true,"internalType":"address","name":"to","type":"address"},{"indexed":false,"internalType":"uint256","name":"skillAmount","type":"uint256"}],"name":"InGameOnlyFundsGiven","type":"event"},{"anonymous":false,"inputs":[{"indexed":true,"internalType":"bytes32","name":"role","type":"bytes32"},{"indexed":true,"internalType":"bytes32","name":"previousAdminRole","type":"bytes32"},{"indexed":true,"internalType":"bytes32","name":"newAdminRole","type":"bytes32"}],"name":"RoleAdminChanged","type":"event"},{"anonymous":false,"inputs":[{"indexed":true,"internalType":"bytes32","name":"role","type":"bytes32"},{"indexed":true,"internalType":"address","name":"account","type":"address"},{"indexed":true,"internalType":"address","name":"sender","type":"address"}],"name":"RoleGranted","type":"event"},{"anonymous":false,"inputs":[{"indexed":true,"internalType":"bytes32","name":"role","type":"bytes32"},{"indexed":true,"internalType":"address","name":"account","type":"address"},{"indexed":true,"internalType":"address","name":"sender","type":"address"}],"name":"RoleRevoked","type":"event"},{"inputs":[],"name":"DEFAULT_ADMIN_ROLE","outputs":[{"internalType":"bytes32","name":"","type":"bytes32"}],"stateMutability":"view","type":"function"},{"inputs":[],"name":"GAME_ADMIN","outputs":[{"internalType":"bytes32","name":"","type":"bytes32"}],"stateMutability":"view","type":"function"},{"inputs":[],"name":"LINK_SAFE_RANDOMS","outputs":[{"internalType":"uint256","name":"","type":"uint256"}],"stateMutability":"view","type":"function"},{"inputs":[],"name":"PAYMENT_USING_STAKED_SKILL_COST_AFTER_DISCOUNT","outputs":[{"internalType":"int128","name":"","type":"int128"}],"stateMutability":"view","type":"function"},{"inputs":[],"name":"USERVAR_CLAIM_TIMESTAMP","outputs":[{"internalType":"uint256","name":"","type":"uint256"}],"stateMutability":"view","type":"function"},{"inputs":[],"name":"USERVAR_CLAIM_WEAPON_DATA","outputs":[{"internalType":"uint256","name":"","type":"uint256"}],"stateMutability":"view","type":"function"},{"inputs":[],"name":"USERVAR_DAILY_CLAIMED_AMOUNT","outputs":[{"internalType":"uint256","name":"","type":"uint256"}],"stateMutability":"view","type":"function"},{"inputs":[],"name":"USERVAR_GEN2_UNCLAIMED","outputs":[{"internalType":"uint256","name":"","type":"uint256"}],"stateMutability":"view","type":"function"},{"inputs":[],"name":"VAR_CHARACTER_FEE_INCREASE","outputs":[{"internalType":"uint256","name":"","type":"uint256"}],"stateMutability":"view","type":"function"},{"inputs":[],"name":"VAR_CHARACTER_MINT_TIMESTAMP","outputs":[{"internalType":"uint256","name":"","type":"uint256"}],"stateMutability":"view","type":"function"},{"inputs":[],"name":"VAR_CLAIM_DEPOSIT_AMOUNT","outputs":[{"internalType":"uint256","name":"","type":"uint256"}],"stateMutability":"view","type":"function"},{"inputs":[],"name":"VAR_DAILY_MAX_CLAIM","outputs":[{"internalType":"uint256","name":"","type":"uint256"}],"stateMutability":"view","type":"function"},{"inputs":[],"name":"VAR_FIGHT_FLAT_IGO_BONUS","outputs":[{"internalType":"uint256","name":"","type":"uint256"}],"stateMutability":"view","type":"function"},{"inputs":[],"name":"VAR_GAS_OFFSET_PER_FIGHT_MULTIPLIER","outputs":[{"internalType":"uint256","name":"","type":"uint256"}],"stateMutability":"view","type":"function"},{"inputs":[],"name":"VAR_HOURLY_DISTRIBUTION","outputs":[{"internalType":"uint256","name":"","type":"uint256"}],"stateMutability":"view","type":"function"},{"inputs":[],"name":"VAR_HOURLY_FIGHTS","outputs":[{"internalType":"uint256","name":"","type":"uint256"}],"stateMutability":"view","type":"function"},{"inputs":[],"name":"VAR_HOURLY_INCOME","outputs":[{"internalType":"uint256","name":"","type":"uint256"}],"stateMutability":"view","type":"function"},{"inputs":[],"name":"VAR_HOURLY_MAX_POWER_AVERAGE","outputs":[{"internalType":"uint256","name":"","type":"uint256"}],"stateMutability":"view","type":"function"},{"inputs":[],"name":"VAR_HOURLY_PAY_PER_FIGHT","outputs":[{"internalType":"uint256","name":"","type":"uint256"}],"stateMutability":"view","type":"function"},{"inputs":[],"name":"VAR_HOURLY_POWER_AVERAGE","outputs":[{"internalType":"uint256","name":"","type":"uint256"}],"stateMutability":"view","type":"function"},{"inputs":[],"name":"VAR_HOURLY_POWER_SUM","outputs":[{"internalType":"uint256","name":"","type":"uint256"}],"stateMutability":"view","type":"function"},{"inputs":[],"name":"VAR_HOURLY_TIMESTAMP","outputs":[{"internalType":"uint256","name":"","type":"uint256"}],"stateMutability":"view","type":"function"},{"inputs":[],"name":"VAR_MINT_CHARACTER_FEE_DECREASE_SPEED","outputs":[{"internalType":"uint256","name":"","type":"uint256"}],"stateMutability":"view","type":"function"},{"inputs":[],"name":"VAR_MINT_WEAPON_FEE_DECREASE_SPEED","outputs":[{"internalType":"uint256","name":"","type":"uint256"}],"stateMutability":"view","type":"function"},{"inputs":[],"name":"VAR_MIN_CHARACTER_FEE","outputs":[{"internalType":"uint256","name":"","type":"uint256"}],"stateMutability":"view","type":"function"},{"inputs":[],"name":"VAR_MIN_WEAPON_FEE","outputs":[{"internalType":"uint256","name":"","type":"uint256"}],"stateMutability":"view","type":"function"},{"inputs":[],"name":"VAR_PARAM_DAILY_CLAIM_DEPOSIT_PERCENT","outputs":[{"internalType":"uint256","name":"","type":"uint256"}],"stateMutability":"view","type":"function"},{"inputs":[],"name":"VAR_PARAM_DAILY_CLAIM_FIGHTS_LIMIT","outputs":[{"internalType":"uint256","name":"","type":"uint256"}],"stateMutability":"view","type":"function"},{"inputs":[],"name":"VAR_PARAM_HOURLY_MAX_POWER_PERCENT","outputs":[{"internalType":"uint256","name":"","type":"uint256"}],"stateMutability":"view","type":"function"},{"inputs":[],"name":"VAR_PARAM_HOURLY_PAY_ALLOWANCE","outputs":[{"internalType":"uint256","name":"","type":"uint256"}],"stateMutability":"view","type":"function"},{"inputs":[],"name":"VAR_PARAM_MAX_FIGHT_PAYOUT","outputs":[{"internalType":"uint256","name":"","type":"uint256"}],"stateMutability":"view","type":"function"},{"inputs":[],"name":"VAR_PARAM_PAYOUT_INCOME_PERCENT","outputs":[{"internalType":"uint256","name":"","type":"uint256"}],"stateMutability":"view","type":"function"},{"inputs":[],"name":"VAR_PARAM_SIGNIFICANT_HOUR_FIGHTS","outputs":[{"internalType":"uint256","name":"","type":"uint256"}],"stateMutability":"view","type":"function"},{"inputs":[],"name":"VAR_UNCLAIMED_SKILL","outputs":[{"internalType":"uint256","name":"","type":"uint256"}],"stateMutability":"view","type":"function"},{"inputs":[],"name":"VAR_WEAPON_FEE_INCREASE","outputs":[{"internalType":"uint256","name":"","type":"uint256"}],"stateMutability":"view","type":"function"},{"inputs":[],"name":"VAR_WEAPON_MINT_TIMESTAMP","outputs":[{"internalType":"uint256","name":"","type":"uint256"}],"stateMutability":"view","type":"function"},{"inputs":[],"name":"WEAPON_SEED","outputs":[{"internalType":"bytes32","name":"","type":"bytes32"}],"stateMutability":"view","type":"function"},{"inputs":[],"name":"blacksmith","outputs":[{"internalType":"contract Blacksmith","name":"","type":"address"}],"stateMutability":"view","type":"function"},{"inputs":[],"name":"burnWeaponFee","outputs":[{"internalType":"int128","name":"","type":"int128"}],"stateMutability":"view","type":"function"},{"inputs":[],"name":"characters","outputs":[{"internalType":"contract Characters","name":"","type":"address"}],"stateMutability":"view","type":"function"},{"inputs":[],"name":"fightRewardBaseline","outputs":[{"internalType":"int128","name":"","type":"int128"}],"stateMutability":"view","type":"function"},{"inputs":[],"name":"fightRewardGasOffset","outputs":[{"internalType":"int128","name":"","type":"int128"}],"stateMutability":"view","type":"function"},{"inputs":[],"name":"fightTraitBonus","outputs":[{"internalType":"int128","name":"","type":"int128"}],"stateMutability":"view","type":"function"},{"inputs":[],"name":"fightXpGain","outputs":[{"internalType":"uint256","name":"","type":"uint256"}],"stateMutability":"view","type":"function"},{"inputs":[{"internalType":"bytes32","name":"role","type":"bytes32"}],"name":"getRoleAdmin","outputs":[{"internalType":"bytes32","name":"","type":"bytes32"}],"stateMutability":"view","type":"function"},{"inputs":[{"internalType":"bytes32","name":"role","type":"bytes32"},{"internalType":"uint256","name":"index","type":"uint256"}],"name":"getRoleMember","outputs":[{"internalType":"address","name":"","type":"address"}],"stateMutability":"view","type":"function"},{"inputs":[{"internalType":"bytes32","name":"role","type":"bytes32"}],"name":"getRoleMemberCount","outputs":[{"internalType":"uint256","name":"","type":"uint256"}],"stateMutability":"view","type":"function"},{"inputs":[{"internalType":"bytes32","name":"role","type":"bytes32"},{"internalType":"address","name":"account","type":"address"}],"name":"grantRole","outputs":[],"stateMutability":"nonpayable","type":"function"},{"inputs":[{"internalType":"bytes32","name":"role","type":"bytes32"},{"internalType":"address","name":"account","type":"address"}],"name":"hasRole","outputs":[{"internalType":"bool","name":"","type":"bool"}],"stateMutability":"view","type":"function"},{"inputs":[{"internalType":"address","name":"","type":"address"}],"name":"inGameOnlyFunds","outputs":[{"internalType":"uint256","name":"","type":"uint256"}],"stateMutability":"view","type":"function"},{"inputs":[{"internalType":"uint256","name":"","type":"uint256"}],"name":"links","outputs":[{"internalType":"address","name":"","type":"address"}],"stateMutability":"view","type":"function"},{"inputs":[],"name":"mintCharacterFee","outputs":[{"internalType":"int128","name":"","type":"int128"}],"stateMutability":"view","type":"function"},{"inputs":[],"name":"mintWeaponFee","outputs":[{"internalType":"int128","name":"","type":"int128"}],"stateMutability":"view","type":"function"},{"inputs":[],"name":"oneFrac","outputs":[{"internalType":"int128","name":"","type":"int128"}],"stateMutability":"view","type":"function"},{"inputs":[],"name":"priceOracleSkillPerUsd","outputs":[{"internalType":"contract IPriceOracle","name":"","type":"address"}],"stateMutability":"view","type":"function"},{"inputs":[],"name":"promos","outputs":[{"internalType":"contract Promos","name":"","type":"address"}],"stateMutability":"view","type":"function"},{"inputs":[],"name":"randoms","outputs":[{"internalType":"contract IRandoms","name":"","type":"address"}],"stateMutability":"view","type":"function"},{"inputs":[],"name":"refillStaminaFee","outputs":[{"internalType":"int128","name":"","type":"int128"}],"stateMutability":"view","type":"function"},{"inputs":[],"name":"reforgeWeaponFee","outputs":[{"internalType":"int128","name":"","type":"int128"}],"stateMutability":"view","type":"function"},{"inputs":[],"name":"reforgeWeaponWithDustFee","outputs":[{"internalType":"int128","name":"","type":"int128"}],"stateMutability":"view","type":"function"},{"inputs":[{"internalType":"bytes32","name":"role","type":"bytes32"},{"internalType":"address","name":"account","type":"address"}],"name":"renounceRole","outputs":[],"stateMutability":"nonpayable","type":"function"},{"inputs":[{"internalType":"bytes32","name":"role","type":"bytes32"},{"internalType":"address","name":"account","type":"address"}],"name":"revokeRole","outputs":[],"stateMutability":"nonpayable","type":"function"},{"inputs":[],"name":"skillToken","outputs":[{"internalType":"contract IERC20","name":"","type":"address"}],"stateMutability":"view","type":"function"},{"inputs":[],"name":"specialWeaponsManager","outputs":[{"internalType":"contract SpecialWeaponsManager","name":"","type":"address"}],"stateMutability":"view","type":"function"},{"inputs":[],"name":"stakeFromGameImpl","outputs":[{"internalType":"contract IStakeFromGame","name":"","type":"address"}],"stateMutability":"view","type":"function"},{"inputs":[],"name":"totalInGameOnlyFunds","outputs":[{"internalType":"uint256","name":"","type":"uint256"}],"stateMutability":"view","type":"function"},{"inputs":[],"name":"totalMintPaymentSkillRefundable","outputs":[{"internalType":"uint256","name":"","type":"uint256"}],"stateMutability":"view","type":"function"},{"inputs":[{"internalType":"address","name":"","type":"address"},{"internalType":"uint256","name":"","type":"uint256"}],"name":"userVars","outputs":[{"internalType":"uint256","name":"","type":"uint256"}],"stateMutability":"view","type":"function"},{"inputs":[{"internalType":"uint256","name":"","type":"uint256"}],"name":"vars","outputs":[{"internalType":"uint256","name":"","type":"uint256"}],"stateMutability":"view","type":"function"},{"inputs":[],"name":"weapons","outputs":[{"internalType":"contract Weapons","name":"","type":"address"}],"stateMutability":"view","type":"function"},{"inputs":[{"internalType":"contract IERC20","name":"_skillToken","type":"address"},{"internalType":"contract Characters","name":"_characters","type":"address"},{"internalType":"contract Weapons","name":"_weapons","type":"address"},{"internalType":"contract IPriceOracle","name":"_priceOracleSkillPerUsd","type":"address"},{"internalType":"contract IRandoms","name":"_randoms","type":"address"}],"name":"initialize","outputs":[],"stateMutability":"nonpayable","type":"function"},{"inputs":[{"internalType":"contract Promos","name":"_promos","type":"address"}],"name":"migrateTo_ef994e2","outputs":[],"stateMutability":"nonpayable","type":"function"},{"inputs":[{"internalType":"contract IStakeFromGame","name":"_stakeFromGame","type":"address"}],"name":"migrateTo_23b3a8b","outputs":[],"stateMutability":"nonpayable","type":"function"},{"inputs":[],"name":"migrateTo_801f279","outputs":[],"stateMutability":"nonpayable","type":"function"},{"inputs":[{"internalType":"contract Blacksmith","name":"_blacksmith","type":"address"}],"name":"migrateTo_60872c8","outputs":[],"stateMutability":"nonpayable","type":"function"},{"inputs":[],"name":"migrateTo_6a97bd1","outputs":[],"stateMutability":"nonpayable","type":"function"},{"inputs":[{"internalType":"contract SpecialWeaponsManager","name":"_swm","type":"address"}],"name":"migrateTo_e1fe97c","outputs":[],"stateMutability":"nonpayable","type":"function"},{"inputs":[{"internalType":"uint256","name":"amount","type":"uint256"}],"name":"recoverSkill","outputs":[],"stateMutability":"nonpayable","type":"function"},{"inputs":[],"name":"REWARDS_CLAIM_TAX_MAX","outputs":[{"internalType":"int128","name":"","type":"int128"}],"stateMutability":"view","type":"function"},{"inputs":[],"name":"REWARDS_CLAIM_TAX_DURATION","outputs":[{"internalType":"uint256","name":"","type":"uint256"}],"stateMutability":"view","type":"function"},{"inputs":[{"internalType":"uint256","name":"_needed","type":"uint256"},{"internalType":"uint256","name":"_available","type":"uint256"}],"name":"getSkillToSubtractSingle","outputs":[{"internalType":"uint256","name":"_used","type":"uint256"},{"internalType":"uint256","name":"_remainder","type":"uint256"}],"stateMutability":"pure","type":"function"},{"inputs":[{"internalType":"uint256","name":"_inGameOnlyFunds","type":"uint256"},{"internalType":"uint256","name":"_tokenRewards","type":"uint256"},{"internalType":"uint256","name":"_valorTokenRewards","type":"uint256"},{"internalType":"uint256","name":"_skillNeeded","type":"uint256"}],"name":"getSkillToSubtract","outputs":[{"internalType":"uint256","name":"fromInGameOnlyFunds","type":"uint256"},{"internalType":"uint256","name":"fromTokenRewards","type":"uint256"},{"internalType":"uint256","name":"fromValorTokenRewards","type":"uint256"},{"internalType":"uint256","name":"fromUserWallet","type":"uint256"}],"stateMutability":"pure","type":"function"},{"inputs":[{"internalType":"address","name":"playerAddress","type":"address"},{"internalType":"uint256","name":"skillNeeded","type":"uint256"},{"internalType":"bool","name":"allowInGameOnlyFunds","type":"bool"}],"name":"getSkillNeededFromUserWallet","outputs":[{"internalType":"uint256","name":"skillNeededFromUserWallet","type":"uint256"}],"stateMutability":"view","type":"function"},{"inputs":[{"internalType":"address","name":"fighter","type":"address"},{"internalType":"uint256","name":"char","type":"uint256"},{"internalType":"uint32","name":"target","type":"uint32"},{"internalType":"uint8","name":"fightMultiplier","type":"uint8"}],"name":"fight","outputs":[{"internalType":"uint256","name":"","type":"uint256"},{"internalType":"uint256","name":"","type":"uint256"}],"stateMutability":"nonpayable","type":"function"},{"inputs":[{"internalType":"uint24","name":"monsterPower","type":"uint24"}],"name":"getTokenGainForFight","outputs":[{"internalType":"uint256","name":"","type":"uint256"}],"stateMutability":"view","type":"function"},{"inputs":[{"internalType":"uint256","name":"char","type":"uint256"}],"name":"getTargets","outputs":[{"internalType":"uint32[4]","name":"","type":"uint32[4]"}],"stateMutability":"view","type":"function"},{"inputs":[],"name":"mintCharacter","outputs":[],"stateMutability":"nonpayable","type":"function"},{"inputs":[{"internalType":"uint32","name":"quantity","type":"uint32"},{"internalType":"uint8","name":"chosenElement","type":"uint8"},{"internalType":"uint256","name":"eventId","type":"uint256"}],"name":"generateWeaponSeed","outputs":[],"stateMutability":"nonpayable","type":"function"},{"inputs":[{"internalType":"uint32","name":"quantity","type":"uint32"},{"internalType":"uint8","name":"chosenElement","type":"uint8"},{"internalType":"uint256","name":"eventId","type":"uint256"}],"name":"generateWeaponSeedUsingStakedSkill","outputs":[],"stateMutability":"nonpayable","type":"function"},{"inputs":[],"name":"mintWeapon","outputs":[],"stateMutability":"nonpayable","type":"function"},{"inputs":[{"internalType":"contract IRandoms","name":"_newRandoms","type":"address"}],"name":"migrateRandoms","outputs":[],"stateMutability":"nonpayable","type":"function"},{"inputs":[{"internalType":"address","name":"playerAddress","type":"address"},{"internalType":"uint256","name":"convertedAmount","type":"uint256"}],"name":"payPlayerConverted","outputs":[],"stateMutability":"nonpayable","type":"function"},{"inputs":[{"internalType":"address","name":"playerAddress","type":"address"},{"internalType":"uint256","name":"convertedAmount","type":"uint256"}],"name":"payContractTokenOnly","outputs":[],"stateMutability":"nonpayable","type":"function"},{"inputs":[{"internalType":"address","name":"playerAddress","type":"address"},{"internalType":"uint256","name":"convertedAmount","type":"uint256"},{"internalType":"bool","name":"track","type":"bool"}],"name":"payContractTokenOnly","outputs":[],"stateMutability":"nonpayable","type":"function"},{"inputs":[{"internalType":"address","name":"playerAddress","type":"address"},{"internalType":"uint256","name":"convertedAmount","type":"uint256"}],"name":"payContractConvertedSupportingStaked","outputs":[{"internalType":"uint256","name":"_fromInGameOnlyFunds","type":"uint256"},{"internalType":"uint256","name":"_fromTokenRewards","type":"uint256"},{"internalType":"uint256","name":"_fromUserWallet","type":"uint256"},{"internalType":"uint256","name":"_fromStaked","type":"uint256"}],"stateMutability":"nonpayable","type":"function"},{"inputs":[{"internalType":"address","name":"playerAddress","type":"address"},{"internalType":"uint256","name":"convertedAmount","type":"uint256"}],"name":"payContractStakedOnly","outputs":[],"stateMutability":"nonpayable","type":"function"},{"inputs":[{"internalType":"uint256","name":"amount","type":"uint256"},{"internalType":"address","name":"player","type":"address"}],"name":"deductAfterPartnerClaim","outputs":[],"stateMutability":"nonpayable","type":"function"},{"inputs":[{"internalType":"uint256","name":"amount","type":"uint256"},{"internalType":"address","name":"player","type":"address"}],"name":"deductValor","outputs":[],"stateMutability":"nonpayable","type":"function"},{"inputs":[{"internalType":"uint256","name":"income","type":"uint256"}],"name":"trackIncome","outputs":[],"stateMutability":"nonpayable","type":"function"},{"inputs":[{"internalType":"uint256","name":"cents","type":"uint256"}],"name":"setCharacterMintValue","outputs":[],"stateMutability":"nonpayable","type":"function"},{"inputs":[{"internalType":"uint256","name":"cents","type":"uint256"}],"name":"setWeaponMintValue","outputs":[],"stateMutability":"nonpayable","type":"function"},{"inputs":[{"internalType":"uint8","name":"points","type":"uint8"}],"name":"setStaminaCostFight","outputs":[],"stateMutability":"nonpayable","type":"function"},{"inputs":[{"internalType":"uint8","name":"points","type":"uint8"}],"name":"setDurabilityCostFight","outputs":[],"stateMutability":"nonpayable","type":"function"},{"inputs":[{"internalType":"uint256","name":"average","type":"uint256"}],"name":"setFightXpGain","outputs":[],"stateMutability":"nonpayable","type":"function"},{"inputs":[{"internalType":"uint256","name":"_percent","type":"uint256"}],"name":"setRewardsClaimTaxMaxAsPercent","outputs":[],"stateMutability":"nonpayable","type":"function"},{"inputs":[{"internalType":"uint256","name":"_rewardsClaimTaxDuration","type":"uint256"}],"name":"setRewardsClaimTaxDuration","outputs":[],"stateMutability":"nonpayable","type":"function"},{"inputs":[{"internalType":"uint256","name":"varField","type":"uint256"},{"internalType":"uint256","name":"value","type":"uint256"}],"name":"setVar","outputs":[],"stateMutability":"nonpayable","type":"function"},{"inputs":[{"internalType":"uint256[]","name":"varFields","type":"uint256[]"},{"internalType":"uint256[]","name":"values","type":"uint256[]"}],"name":"setVars","outputs":[],"stateMutability":"nonpayable","type":"function"},{"inputs":[{"internalType":"uint256","name":"linkId","type":"uint256"},{"internalType":"address","name":"linkAddress","type":"address"}],"name":"setLink","outputs":[],"stateMutability":"nonpayable","type":"function"},{"inputs":[{"internalType":"address","name":"to","type":"address"},{"internalType":"uint256","name":"skillAmount","type":"uint256"}],"name":"giveInGameOnlyFunds","outputs":[],"stateMutability":"nonpayable","type":"function"},{"inputs":[{"internalType":"address","name":"to","type":"address"},{"internalType":"uint256","name":"skillAmount","type":"uint256"}],"name":"giveInGameOnlyFundsFromContractBalance","outputs":[],"stateMutability":"nonpayable","type":"function"},{"inputs":[{"internalType":"int128","name":"usdAmount","type":"int128"}],"name":"usdToSkill","outputs":[{"internalType":"uint256","name":"","type":"uint256"}],"stateMutability":"view","type":"function"},{"inputs":[],"name":"claimXpRewards","outputs":[],"stateMutability":"nonpayable","type":"function"},{"inputs":[{"internalType":"uint256[]","name":"chars","type":"uint256[]"}],"name":"resetXp","outputs":[],"stateMutability":"nonpayable","type":"function"},{"inputs":[],"name":"getTokenRewards","outputs":[{"internalType":"uint256","name":"","type":"uint256"}],"stateMutability":"view","type":"function"},{"inputs":[{"internalType":"uint256[]","name":"chars","type":"uint256[]"}],"name":"getXpRewards","outputs":[{"internalType":"uint256[]","name":"","type":"uint256[]"}],"stateMutability":"view","type":"function"},{"inputs":[{"internalType":"address","name":"wallet","type":"address"}],"name":"getTokenRewardsFor","outputs":[{"internalType":"uint256","name":"","type":"uint256"}],"stateMutability":"view","type":"function"},{"inputs":[{"internalType":"address","name":"wallet","type":"address"}],"name":"getTotalSkillOwnedBy","outputs":[{"internalType":"uint256","name":"","type":"uint256"}],"stateMutability":"view","type":"function"},{"inputs":[],"name":"getOwnRewardsClaimTax","outputs":[{"internalType":"int128","name":"","type":"int128"}],"stateMutability":"view","type":"function"},{"inputs":[],"name":"getMintWeaponFee","outputs":[{"internalType":"int128","name":"","type":"int128"}],"stateMutability":"view","type":"function"},{"inputs":[],"name":"getMintCharacterFee","outputs":[{"internalType":"int128","name":"","type":"int128"}],"stateMutability":"view","type":"function"}],"bytecode":"0x608060405234801561001057600080fd5b50615361806100206000396000f3fe608060405234801561001057600080fd5b50600436106107425760003560e01c806394a96ff3116103be578063c6e195ed116101ff578063e3504dfa11610125578063e9a6f23c116100b8578063f359832811610087578063f359832814611383578063f9647850146113af578063faf039f4146113d1578063fd20747e146113d957610742565b8063e9a6f23c146112fd578063eb3bd2d714611320578063ebca521f14611328578063f2a041cf1461135457610742565b8063e6c6b7f0116100f4578063e6c6b7f0146112c8578063e71a136a146112d0578063e74ee3b1146112ed578063e75eb839146112f557610742565b8063e3504dfa14611275578063e36ed9711461127d578063e3a6615a1461129a578063e4a0f566146112a257610742565b8063d88323ba1161019d578063dc88432b1161016c578063dc88432b14611139578063deabf3aa1461115f578063df210bb314611250578063df8b52341461125857610742565b8063d88323ba14611121578063d8d9d8cc14611129578063d9308bb614611129578063dbf802d91461113157610742565b8063cb7c7aa3116101d9578063cb7c7aa3146110dd578063d070bb54146110e5578063d1ebdfd3146110ed578063d547741f146110f557610742565b8063c6e195ed146110b0578063c84e3b32146110b8578063ca15c873146110c057610742565b8063b56f63f3116102e4578063be2cf13811610282578063c2f1535111610251578063c2f1535114611054578063c42a82d11461107a578063c563145a14611082578063c604af8f1461108a57610742565b8063be2cf13814611034578063be91a51a1461103c578063bee666d814611044578063c18821661461104c57610742565b8063b97ed979116102be578063b97ed97914611014578063bc67e8871461101c578063bcc0957d14611024578063bd1e5caa1461102c57610742565b8063b56f63f314610ffc578063b5a9803d14611004578063b7e1cd861461100c57610742565b8063a93bde2f1161035c578063ad75dd6c1161032b578063ad75dd6c14610f8a578063afd1e72814610f92578063b096af9a14610f9a578063b0be9f4a14610ff457610742565b8063a93bde2f14610f4c578063aa22548b14610f72578063aa66377714610f7a578063ab37e93414610f8257610742565b80639f8c964c116103985780639f8c964c14610f08578063a0074b1914610f10578063a1748fbd14610f3c578063a217fddf14610f4457610742565b806394a96ff314610e85578063988b293514610e8d5780639b826fe114610eb357610742565b80634dda63c9116105885780636c992a55116104ae5780637ecb995a1161044c5780638caf4fd31161041b5780638caf4fd314610e125780639010d07c14610e1a57806390f80c0f14610e3d57806391d1485414610e4557610742565b80637ecb995a14610d9e57806380a206c314610dd0578063881d8a4014610dd85780638c30db7914610df557610742565b806373f5e6f81161048857806373f5e6f814610c9b57806377ddeaeb14610d3c5780637998b3fd14610d705780637d3eb7d314610d9657610742565b80636c992a5514610c445780636f90720614610c67578063727d435b14610c9357610742565b806359995f551161052657806364d67868116104f557806364d6786814610bf757806367c7296e14610c1457806367c7fa7c14610c1c5780636c6302b314610c2457610742565b806359995f5514610ba45780635b99d35f14610bac5780635ecad2a014610bd2578063613f135214610bef57610742565b806353494695116105625780635349469514610b485780635504d3d214610b50578063592c73e814610b58578063599389b514610b8457610742565b80634dda63c914610b305780634f20205c14610b3857806351e717ac14610b4057610742565b80632b46a3b11161066d57806336ce9fa21161060b5780633f7e1dd5116105da5780633f7e1dd514610aec578063466cec3314610af4578063499eeeeb14610b205780634d110a9214610b2857610742565b806336ce9fa214610acc57806339c6c71f14610ad457806339ca9a3214610adc5780633f18cd5b14610ae457610742565b8063325a4fb111610647578063325a4fb114610a3e578063328da35114610a465780633310701414610a4e57806336568abe14610aa057610742565b80632b46a3b1146109d65780632eba008914610a0a5780632f2ff15d14610a1257610742565b80631208fa55116106e5578063212279b1116106b4578063212279b11461098c57806321407c4d1461099457806322a2747c146109b1578063248a9ca3146109b957610742565b80631208fa55146108ec5780631459457a14610910578063199a1071146109585780631dd8dab71461098457610742565b80630a8a9215116107215780630a8a92151461085f5780630b167d2c146108915780630dff3a10146108995780630ee90938146108ba57610742565b8062201e8b146107475780630a487cf2146107755780630a7501bb146107a1575b600080fd5b6107736004803603604081101561075d57600080fd5b506001600160a01b0381351690602001356113f6565b005b6107736004803603604081101561078b57600080fd5b50803590602001356001600160a01b031661140c565b610773600480360360408110156107b757600080fd5b810190602081018135600160201b8111156107d157600080fd5b8201836020820111156107e357600080fd5b803590602001918460208302840111600160201b8311171561080457600080fd5b919390929091602081019035600160201b81111561082157600080fd5b82018360208201111561083357600080fd5b803590602001918460208302840111600160201b8311171561085457600080fd5b509092509050611494565b61087f6004803603602081101561087557600080fd5b5035600f0b6114f3565b60408051918252519081900360200190f35b61087f611589565b6108a161158e565b60408051600f92830b90920b8252519081900360200190f35b610773600480360360608110156108d057600080fd5b5063ffffffff8135169060ff602082013516906040013561159c565b6108f461180a565b604080516001600160a01b039092168252519081900360200190f35b610773600480360360a081101561092657600080fd5b506001600160a01b03813581169160208101358216916040820135811691606081013582169160809091013516611819565b61087f6004803603604081101561096e57600080fd5b506001600160a01b038135169060200135611aa6565b61087f611ac3565b6108f4611ac8565b610773600480360360208110156109aa57600080fd5b5035611ad7565b61087f611aeb565b61087f600480360360208110156109cf57600080fd5b5035611af0565b61087f600480360360608110156109ec57600080fd5b506001600160a01b0381351690602081013590604001351515611b05565b61087f611b70565b61077360048036036040811015610a2857600080fd5b50803590602001356001600160a01b0316611b75565b610773611bdd565b61087f611c14565b610a7a60048036036040811015610a6457600080fd5b506001600160a01b038135169060200135611c28565b604080519485526020850193909352838301919091526060830152519081900360800190f35b61077360048036036040811015610ab657600080fd5b50803590602001356001600160a01b0316611c50565b61087f611cb1565b61087f611cb6565b61087f611cbb565b61087f611cc0565b6108f4611cc6565b61077360048036036040811015610b0a57600080fd5b506001600160a01b038135169060200135611cd5565b6108a1611ce9565b61087f611cf9565b61087f611cfe565b61087f611d03565b6108f4611d08565b61087f611d17565b61087f611d1d565b61077360048036036040811015610b6e57600080fd5b50803590602001356001600160a01b0316611d3f565b61077360048036036020811015610b9a57600080fd5b503560ff16611d75565b6108a1611d9d565b61087f60048036036020811015610bc257600080fd5b50356001600160a01b0316611da6565b61077360048036036020811015610be857600080fd5b5035611e4e565b61087f611e89565b61077360048036036020811015610c0d57600080fd5b5035611e8f565b61087f611ec0565b61087f611ec5565b61077360048036036020811015610c3a57600080fd5b503560ff16611eca565b61077360048036036040811015610c5a57600080fd5b5080359060200135611ee8565b61077360048036036040811015610c7d57600080fd5b506001600160a01b038135169060200135611f02565b61087f611fbf565b61077360048036036020811015610cb157600080fd5b810190602081018135600160201b811115610ccb57600080fd5b820183602082011115610cdd57600080fd5b803590602001918460208302840111600160201b83111715610cfe57600080fd5b919080806020026020016040519081016040528093929190818152602001838360200280828437600092019190915250929550611fc4945050505050565b61077360048036036060811015610d5257600080fd5b506001600160a01b038135169060208101359060400135151561200d565b61087f60048036036020811015610d8657600080fd5b50356001600160a01b0316612025565b6108a1612040565b61077360048036036060811015610db457600080fd5b5063ffffffff8135169060ff6020820135169060400135612050565b61087f612122565b6108f460048036036020811015610dee57600080fd5b5035612128565b61077360048036036020811015610e0b57600080fd5b5035612143565b61087f612182565b6108f460048036036040811015610e3057600080fd5b5080359060200135612187565b61087f6121ac565b610e7160048036036040811015610e5b57600080fd5b50803590602001356001600160a01b03166121b1565b604080519115158252519081900360200190f35b61087f6121cf565b61087f60048036036020811015610ea357600080fd5b50356001600160a01b03166121d4565b610ed060048036036020811015610ec957600080fd5b50356121e6565b6040518082608080838360005b83811015610ef5578181015183820152602001610edd565b5050505090500191505060405180910390f35b6108a1612367565b61077360048036036040811015610f2657600080fd5b50803590602001356001600160a01b0316612370565b61087f6123d8565b61087f6123dd565b61077360048036036020811015610f6257600080fd5b50356001600160a01b03166123e2565b6108a1612418565b6108a1612428565b61087f612431565b6108a1612437565b61087f61256d565b610fdb60048036036080811015610fb057600080fd5b5080356001600160a01b031690602081013590604081013563ffffffff16906060013560ff16612572565b6040805192835260208301919091528051918290030190f35b61087f6126b5565b61087f6126ba565b61087f6126bf565b6108f46126c4565b6107736126d3565b61077361276f565b6108a1612a3c565b61087f612a45565b6108a1612a4b565b61087f612a54565b6108f4612a59565b6108f4612a68565b6107736004803603602081101561106a57600080fd5b50356001600160a01b0316612a77565b61087f612aad565b6108a1612ab2565b610773600480360360208110156110a057600080fd5b50356001600160a01b0316612abe565b6108a1612af4565b6108a1612b04565b61087f600480360360208110156110d657600080fd5b5035612c1d565b61087f612c34565b6108f4612c39565b6108f4612c48565b6107736004803603604081101561110b57600080fd5b50803590602001356001600160a01b0316612c57565b61087f612cb0565b61087f612cb6565b6108a1612cbb565b6107736004803603602081101561114f57600080fd5b50356001600160a01b0316612cc4565b6112006004803603602081101561117557600080fd5b810190602081018135600160201b81111561118f57600080fd5b8201836020820111156111a157600080fd5b803590602001918460208302840111600160201b831117156111c257600080fd5b919080806020026020016040519081016040528093929190818152602001838360200280828437600092019190915250929550612cfa945050505050565b60408051602080825283518183015283519192839290830191858101910280838360005b8381101561123c578181015183820152602001611224565b505050509050019250505060405180910390f35b61087f612d9e565b6107736004803603602081101561126e57600080fd5b5035612da3565b61087f612db0565b6107736004803603602081101561129357600080fd5b5035612db5565b6108a1612dc2565b610773600480360360208110156112b857600080fd5b50356001600160a01b0316612dd2565b610773612e08565b61087f600480360360208110156112e657600080fd5b5035612ff6565b61087f613008565b61087f61300e565b610fdb6004803603604081101561131357600080fd5b5080359060200135613031565b61087f613057565b6107736004803603604081101561133e57600080fd5b506001600160a01b03813516906020013561305c565b610a7a6004803603608081101561136a57600080fd5b508035906020810135906040810135906060013561306e565b6107736004803603604081101561139957600080fd5b506001600160a01b0381351690602001356130df565b61087f600480360360208110156113c557600080fd5b503562ffffff166130f1565b61077361317d565b610773600480360360208110156113ef57600080fd5b50356135ab565b6113fe6135ea565b611408828261364c565b5050565b6114146135ea565b6001600160a01b03811660009081526072602052604090205461143d908363ffffffff6136c216565b6001600160a01b0382166000908152607260209081526040822092909255600e9052608190527f5561c867091c9193529aa25fbfddb9874c4167ddb0bf67af3f8d173fb2f7e968805483900390556114088261371f565b61149c6135ea565b60005b838110156114ec578282828181106114b357fe5b90506020020135608160008787858181106114ca57fe5b602090810292909201358352508101919091526040016000205560010161149f565b5050505050565b6000611583606860009054906101000a90046001600160a01b03166001600160a01b0316639d1b464a6040518163ffffffff1660e01b815260040160206040518083038186803b15801561154657600080fd5b505afa15801561155a573d6000803e3d6000fd5b505050506040513d602081101561157057600080fd5b5051600f84900b9063ffffffff6137a516565b92915050565b600581565b606b546101009004600f0b81565b6115a461380d565b336115ae81613847565b60008463ffffffff161180156115cb5750600a8463ffffffff1611155b6115d457600080fd5b3360009081526082602090815260408083206127138452909152902054156115fb57600080fd5b60008360ff1660641461160f576002611612565b60015b9050600061164e6116258360ff166138b5565b61163f6116378963ffffffff166138b5565b61163f612b04565b600f0b9063ffffffff6138d316565b90506116623361165d836114f3565b61390a565b505050506116758663ffffffff16613aa5565b83156116f35760835460408051630709898b60e51b81523360048201526024810187905263ffffffff8916604482015290516001600160a01b039092169163e13131609160648082019260009290919082900301818387803b1580156116da57600080fd5b505af11580156116ee573d6000803e3d6000fd5b505050505b600160005260846020527fd49cbfa4507f01c87e25887e04f87f47fddc7fa624a8e99897c8e3d0d14ad0a454604080516a15d1505413d397d4d1515160aa1b8152905190819003600b0190206001600160a01b039091169063775eb0e29033906117679063ffffffff8b1660ff8b16613b41565b6040518363ffffffff1660e01b815260040180836001600160a01b03166001600160a01b0316815260200182815260200192505050600060405180830381600087803b1580156117b657600080fd5b505af11580156117ca573d6000803e3d6000fd5b50503360009081526082602090815260408083206127138452825290912098901b67ffffffff000000001660ff9790971696909617909655505050505050565b6079546001600160a01b031681565b600054610100900460ff16806118325750611832613bc7565b80611840575060005460ff16155b61187b5760405162461bcd60e51b815260040180806020018281038252602e815260200180615284602e913960400191505060405180910390fd5b600054610100900460ff161580156118a6576000805460ff1961ff0019909116610100171660011790555b6118ae613bd8565b6118b9600033611bd3565b604080516923a0a6a2afa0a226a4a760b11b8152905190819003600a0190206118e29033611bd3565b606780546001600160a01b038089166001600160a01b0319928316179092556065805488841690831617905560668054878416908316179055606880548684169083161790556069805492851692909116919091179055606b805460ff19166028179055611952600a6001613c89565b606b60016101000a8154816001600160801b030219169083600f0b6001600160801b0316021790555061198760036001613c89565b606d8054600f9290920b6001600160801b03908116600160801b02921691909117905560206071556119b960016138b5565b60748054600f9290920b6001600160801b03166001600160801b03199092169190911790556119eb604b6103e8613c89565b607460106101000a8154816001600160801b030219169083600f0b6001600160801b03160217905550611a23615a89620186a0613c89565b606d8054600f9290920b6001600160801b03166001600160801b0319909216919091179055611a566101586103e8613c89565b606c8054600f9290920b6001600160801b03908116600160801b0292169190911790556079805460ff60a01b1916600160a01b1790558015611a9e576000805461ff00191690555b505050505050565b608260209081526000928352604080842090915290825290205481565b601b81565b6083546001600160a01b031681565b611adf6135ea565b611ae88161371f565b50565b600e81565b60009081526033602052604090206002015490565b6000808215611b2957506001600160a01b0384166000908152607560205260409020545b6001600160a01b0385166000908152607260209081526040808320546082835281842061271b855290925290912054611b649183918761306e565b98975050505050505050565b601481565b600082815260336020526040902060020154611b9890611b93613cc0565b6121b1565b611bd35760405162461bcd60e51b815260040180806020018281038252602f8152602001806151ff602f913960400191505060405180910390fd5b6114088282613cc4565b611be86000336121b1565b611bf157600080fd5b607f80546001600160801b0319166726666666666666661790556213c680608055565b336000908152607260205260409020545b90565b600080600080611c366135ea565b611c40868661390a565b9299919850965090945092505050565b611c58613cc0565b6001600160a01b0316816001600160a01b031614611ca75760405162461bcd60e51b815260040180806020018281038252602f8152602001806152fd602f913960400191505060405180910390fd5b6114088282613d33565b600a81565b601a81565b601781565b60805490565b6068546001600160a01b031681565b611cdd6135ea565b61140882826001613da2565b6000611cf433613df6565b905090565b600781565b600d81565b600381565b6077546001600160a01b031681565b607d5481565b604080516923a0a6a2afa0a226a4a760b11b8152905190819003600a01902081565b611d476135ea565b60009182526084602052604090912080546001600160a01b0319166001600160a01b03909216919091179055565b611d7d6135ea565b6079805460ff909216600160a01b0260ff60a01b19909216919091179055565b607a54600f0b81565b606754604080516370a0823160e01b81526001600160a01b038481166004830152915160009392909216916370a0823191602480820192602092909190829003018186803b158015611df757600080fd5b505afa158015611e0b573d6000803e3d6000fd5b505050506040513d6020811015611e2157600080fd5b5051611e2c83612025565b6001600160a01b03841660009081526075602052604090205401019050919050565b611e566135ea565b611e61816064613c89565b607f8054600f9290920b6001600160801b03166001600160801b031990921691909117905550565b60715481565b611e9a6000336121b1565b611ea357600080fd5b606754611ae8906001600160a01b0316338363ffffffff613e9616565b600b81565b601281565b611ed26135ea565b606b805460ff191660ff92909216919091179055565b611ef06135ea565b60009182526081602052604090912055565b611f0a6135ea565b607654611f1d908263ffffffff613ee816565b6076556001600160a01b038216600090815260756020526040902054611f49908263ffffffff613ee816565b6001600160a01b03808416600090815260756020526040902091909155606754611f7c911633308463ffffffff613f4216565b6040805182815290516001600160a01b038416917f3443ca0a6a2d7fbb0e0c0612adb07cdcbde092e281a3dddc6ed66c14c00429cd919081900360200190a25050565b601081565b611fcc6135ea565b60005b815181101561140857600060736000848481518110611fea57fe5b602090810291909101810151825281019190915260400160002055600101611fcf565b6120156135ea565b612020838383613da2565b505050565b6001600160a01b031660009081526072602052604090205490565b607454600160801b9004600f0b81565b61205861380d565b3361206281613847565b60008463ffffffff1611801561207f5750600a8463ffffffff1611155b61208857600080fd5b3360009081526082602090815260408083206127138452909152902054156120af57600080fd5b60008360ff166064146120c35760026120c6565b60015b905060006120ff6120d98360ff166138b5565b61163f6120eb8963ffffffff166138b5565b61163f67cccccccccccccccc61163f612b04565b90506121133361210e836114f3565b61364c565b6116758663ffffffff16613aa5565b61271281565b6084602052600090815260409020546001600160a01b031681565b61214b6135ea565b612156816064613c89565b606b60016101000a8154816001600160801b030219169083600f0b6001600160801b0316021790555050565b601681565b60008281526033602052604081206121a5908363ffffffff613fa216565b9392505050565b601381565b60008281526033602052604081206121a5908363ffffffff613fae16565b600c81565b60756020526000908152604090205481565b6121ee6151be565b6065546040805163d814d4bf60e01b815290516000926001600160a01b03169163783efb25918691849163d814d4bf91600480820192602092909190829003018186803b15801561223e57600080fd5b505afa158015612252573d6000803e3d6000fd5b505050506040513d602081101561226857600080fd5b5051604080516001600160e01b031960e086901b16815260048101939093526024830191909152516044808301926020929190829003018186803b1580156122af57600080fd5b505afa1580156122c3573d6000803e3d6000fd5b505050506040513d60208110156122d957600080fd5b505160655460408051630153b1ff60e61b81526004810187905290519293506121a592606085901c926001600160a01b0316916354ec7fc0916024808301926020929190829003018186803b15801561233157600080fd5b505afa158015612345573d6000803e3d6000fd5b505050506040513d602081101561235b57600080fd5b5051610e104204613fc3565b606e54600f0b81565b6123786135ea565b6001600160a01b038116600090815260826020908152604080832061271b84529091529020546123ae908363ffffffff6136c216565b6001600160a01b03909116600090815260826020908152604080832061271b845290915290205550565b600881565b600081565b6123ed6000336121b1565b6123f657600080fd5b607780546001600160a01b0319166001600160a01b0392909216919091179055565b607a54600160801b9004600f0b81565b607454600f0b81565b60765481565b60816020527fb4ee8c0de300dcb2c214776ba96af87219a562fea362afb328744743435533d854601a60009081527fb1fb30aa815caa6cda02c04923518f07e073c245613f4feecc851394c9e6c83254909182916124be916124b0916124a490429063ffffffff6136c216565b9063ffffffff61409616565b670de0b6b3a7640000613c89565b6018600090815260816020527f7fef8bbdf2b2fbea90d7eabb66e221f7b1d71143efc396add0b65b4e3f1b2df354919250906124fb906064613c89565b9050606b60019054906101000a9004600f0b600f0b82600f0b1315612523579150611c259050565b606b54600f82810b610100909204810b849003900b1215612547579150611c259050565b606b54612566906101009004600f90810b900b8363ffffffff6140ef16565b9250505090565b600981565b60008061257d6135ea565b60018360ff1610158015612595575060058360ff1611155b61259e57600080fd5b606554606b5460408051634946e9cb60e01b81526001600160a01b038a81166004830152602482018a905260ff93841688029093166044820152600060648201819052608482018190528251909485941692634946e9cb9260a4808201939182900301818787803b15801561261257600080fd5b505af1158015612626573d6000803e3d6000fd5b505050506040513d604081101561263c57600080fd5b5080516020909101519092509050606081901c6126698167ffffffffffffffff851689610e104204614122565b9650600060188863ffffffff16901c90506126a48a8a8360180260ff1686901c858c8c60408b68ffffffffffffffffff16901c60ff166141be565b955095505050505094509492505050565b601181565b600481565b601581565b6066546001600160a01b031681565b6126de6000336121b1565b6126e757600080fd5b6126f36002600a613c89565b607a8054600f9290920b6001600160801b03166001600160801b03199092169190911790556127246003600a613c89565b607a80546001600160801b03908116600160801b600f94850b831681029190911792839055606e80546001600160801b031916918404850b93850b9390930190930b16919091179055565b6065546040805163a464666960e01b815233600482015290516060926001600160a01b03169163a4646669916024808301926000929190829003018186803b1580156127ba57600080fd5b505afa1580156127ce573d6000803e3d6000fd5b505050506040513d6000823e601f3d908101601f1916820160405260208110156127f757600080fd5b8101908080516040519392919084600160201b82111561281657600080fd5b90830190602082018581111561282b57600080fd5b82518660208202830111600160201b8211171561284757600080fd5b82525081516020918201928201910280838360005b8381101561287457818101518382015260200161285c565b505050509050016040525050509050600081511161289157600080fd5b6060815167ffffffffffffffff811180156128ab57600080fd5b506040519080825280602002602001820160405280156128d5578160200160208202803683370190505b50905060005b825181101561295857607360008483815181106128f457fe5b602002602001015181526020019081526020016000205482828151811061291757fe5b60200260200101818152505060006073600085848151811061293557fe5b6020908102919091018101518252810191909152604001600020556001016128db565b5060655460408051632674b0b160e21b8152600481019182528451604482015284516001600160a01b03909316926399d2c2c49286928692829160248101916064909101906020808801910280838360005b838110156129c25781810151838201526020016129aa565b50505050905001838103825284818151815260200191508051906020019060200280838360005b83811015612a015781810151838201526020016129e9565b50505050905001945050505050600060405180830381600087803b158015612a2857600080fd5b505af1158015611a9e573d6000803e3d6000fd5b606c54600f0b81565b61271381565b606d54600f0b81565b600681565b6069546001600160a01b031681565b607b546001600160a01b031681565b612a826000336121b1565b612a8b57600080fd5b608380546001600160a01b0319166001600160a01b0392909216919091179055565b601881565b67cccccccccccccccc81565b612ac96000336121b1565b612ad257600080fd5b607b80546001600160a01b0319166001600160a01b0392909216919091179055565b606c54600160801b9004600f0b81565b60816020527f26d64b5b65fa16e59e7e8fa2545a0e0e1e8d1bc5e2e7bf41a8e852622a7b13bb54601960009081527f3f52c189a44eb41ef2007cc3e7b1a570baf245aaa1c5f4dfdf8cebe7543d481f5490918291612b71916124b0916124a490429063ffffffff6136c216565b6017600090815260816020527fd4296ed243adda4ec99647b7477525cc33925f29742804381c5755634ff555365491925090612bae906064613c89565b9050606d60109054906101000a9004600f0b600f0b82600f0b1315612bd6579150611c259050565b606d54600f82810b600160801b909204810b849003900b1215612bfc579150611c259050565b606d5461256690600160801b9004600f90810b900b8363ffffffff6140ef16565b600081815260336020526040812061158390614318565b600f81565b6065546001600160a01b031681565b6067546001600160a01b031681565b600082815260336020526040902060020154612c7590611b93613cc0565b611ca75760405162461bcd60e51b81526004018080602001828103825260308152602001806152546030913960400191505060405180910390fd5b61271b81565b600181565b607f54600f0b90565b612ccf6000336121b1565b612cd857600080fd5b607980546001600160a01b0319166001600160a01b0392909216919091179055565b8051606090818167ffffffffffffffff81118015612d1757600080fd5b50604051908082528060200260200182016040528015612d41578160200160208202803683370190505b50905060005b8451811015612d965760736000868381518110612d6057fe5b6020026020010151815260200190815260200160002054828281518110612d8357fe5b6020908102919091010152600101612d47565b509392505050565b601c81565b612dab6135ea565b608055565b600281565b612dbd6135ea565b607155565b606d54600160801b9004600f0b81565b612ddd6000336121b1565b612de657600080fd5b606980546001600160a01b0319166001600160a01b0392909216919091179055565b612e1061380d565b33612e1a81613847565b336000908152608260209081526040808320612713845282529091205460ff8116911c63ffffffff1680612e4d57600080fd5b336000818152608260209081526040808320612713845282528083208390556001835260849091527fd49cbfa4507f01c87e25887e04f87f47fddc7fa624a8e99897c8e3d0d14ad0a45481516a15d1505413d397d4d1515160aa1b8152915191829003600b0190912091926001600160a01b03919091169163fd4cc5c49190612ee09063ffffffff871660ff8916613b41565b604080516001600160e01b031960e086901b1681526001600160a01b03909316600484015260248301919091526001604483015260006064830181905290516084808401936020939083900390910190829087803b158015612f4157600080fd5b505af1158015612f55573d6000803e3d6000fd5b505050506040513d6020811015612f6b57600080fd5b505160665460408051631818a11b60e11b815233600482015263ffffffff861660248201526044810184905260ff8716606482015290519293506001600160a01b039091169163303142369160848082019260009290919082900301818387803b158015612fd857600080fd5b505af1158015612fec573d6000803e3d6000fd5b5050505050505050565b60816020526000908152604090205481565b61271181565b604080516a15d1505413d397d4d1515160aa1b8152905190819003600b01902081565b60008082841161304657508290506000613050565b5050908190039080825b9250929050565b601981565b6130646135ea565b6114088282614323565b60008060008087851161308c575083925060009150819050806130d4565b87850394508685116130a9575086925083915060009050806130d4565b86850394508585116130c6575086925085915083905060006130d4565b505050908290039050838383835b945094509450949050565b6130e76135ea565b61140882826143a3565b60816020527f91ef6162923dad82df315fc0b1d8b715267801bfc38fa830b7d98b9d34cde4fa547f315f0e1ef6ef8a722d672902d2e57165601c27ff4929498b7b7a9dbc3bc16ccb54600560009081527f13b5cb4a4d43bf965b40e08530c00814b115eb8d26c35f0489bd303e483928f5549092919062ffffff8516028161317557fe5b040192915050565b61318561380d565b3361318f81613847565b606b546000906131a6906101009004600f0b6114f3565b905060006131b860008060008561306e565b606754604080516370a0823160e01b815233600482015290519296508695506001600160a01b0390911693506370a082319250602480820192602092909190829003018186803b15801561320b57600080fd5b505afa15801561321f573d6000803e3d6000fd5b505050506040513d602081101561323557600080fd5b5051108015906132c257506077546040805163434d82a360e01b815233600482810191909152602482015290516001600160a01b039092169163434d82a391604480820192602092909190829003018186803b15801561329457600080fd5b505afa1580156132a8573d6000803e3d6000fd5b505050506040513d60208110156132be57600080fd5b5051155b6132cb57600080fd5b60006132dd6132d8612437565b6114f3565b90506132f0336000806000856001614422565b60695460408051630e20f61560e21b815233600482015290516000926001600160a01b031691633883d854916024808301926020929190829003018186803b15801561333b57600080fd5b505afa15801561334f573d6000803e3d6000fd5b505050506040513d602081101561336557600080fd5b5051606554604080516340c10f1960e01b81523360048201526024810184905290519293506000926001600160a01b03909216916340c10f199160448082019260209290919082900301818787803b1580156133c057600080fd5b505af11580156133d4573d6000803e3d6000fd5b505050506040513d60208110156133ea57600080fd5b50516000818152607360209081526040808320600190553383526082825280832061271b845290915290205490915061343e5733600090815260826020908152604080832061271b84529091529020600190555b3360009081526075602052604090205461346657336000908152607560205260409020600190555b606654604080516370a0823160e01b815233600482015290516001600160a01b03909216916370a0823191602480820192602092909190829003018186803b1580156134b157600080fd5b505afa1580156134c5573d6000803e3d6000fd5b505050506040513d60208110156134db57600080fd5b50516135a3576066546040805160001943014060208083019190915233606081901b838501528351603481850301815260548401808652815191840191909120633137ee2960e01b90915260588401919091526000607884018190526098840191909152606460b884015292516001600160a01b0390941693633137ee299360d8808501948390030190829087803b15801561357657600080fd5b505af115801561358a573d6000803e3d6000fd5b505050506040513d60208110156135a057600080fd5b50505b611a9e6145d4565b6135b36135ea565b6135be816064613c89565b606d60106101000a8154816001600160801b030219169083600f0b6001600160801b0316021790555050565b604080516923a0a6a2afa0a226a4a760b11b8152905190819003600a01902061361390336121b1565b61364a576040805162461bcd60e51b81526020600482015260036024820152624e474160e81b604482015290519081900360640190fd5b565b60795460408051631599785f60e31b81526001600160a01b038581166004830152602482018590529151919092169163accbc2f891604480830192600092919082900301818387803b1580156136a157600080fd5b505af11580156136b5573d6000803e3d6000fd5b505050506114088161371f565b600082821115613719576040805162461bcd60e51b815260206004820152601e60248201527f536166654d6174683a207375627472616374696f6e206f766572666c6f770000604482015290519081900360640190fd5b50900390565b600960005260816020527fcda20b21fb0728fcbfcf547e91ba7387a047230f705069e8f42436fa882745655461376b90829061375c906064613c89565b600f0b9063ffffffff6137a516565b600160005260816020527f872978266e5c84cf01226e34dea843fee7795bbe067d4f8fa97cd8a4a4f92ae680549091019055611ae861467d565b6000816137b457506000611583565b600083600f0b12156137c557600080fd5b600f83900b6001600160801b038316810260401c90608084901c026001600160c01b038111156137f457600080fd5b60401b811981111561380557600080fd5b019392505050565b32331461364a576040805162461bcd60e51b81526020600482015260036024820152624f4e4360e81b604482015290519081900360640190fd5b6001600160a01b0381166000908152607060205260409020544311613899576040805162461bcd60e51b815260206004820152600360248201526227a1a160e91b604482015290519081900360640190fd5b6001600160a01b03166000908152607060205260409020439055565b6000677fffffffffffffff8211156138cc57600080fd5b5060401b90565b6000600f83810b9083900b0260401d60016001607f1b03198112801590613901575060016001607f1b038113155b6121a557600080fd5b6001600160a01b03821660009081526075602090815260408083205460728352818420546082845282852061271b865290935290832054839283928392839283928392839261395a92918c61306e565b9350935093509350600080613a0583606760009054906101000a90046001600160a01b03166001600160a01b03166370a082318f6040518263ffffffff1660e01b815260040180826001600160a01b03166001600160a01b0316815260200191505060206040518083038186803b1580156139d457600080fd5b505afa1580156139e8573d6000803e3d6000fd5b505050506040513d60208110156139fe57600080fd5b5051613031565b91509150613a168c87878786614a16565b8015613a925760795460408051631599785f60e31b81526001600160a01b038f81166004830152602482018590529151919092169163accbc2f891604480830192600092919082900301818387803b158015613a7157600080fd5b505af1158015613a85573d6000803e3d6000fd5b50505050613a928161371f565b949b939a50985092965090945050505050565b601560005260816020527fbccf1c1b9e7788cfa4d9d3e4ab975be86c59d5ed87ac37064e7294c31ab230ea54613ae5906124b0908363ffffffff61409616565b613aed612b04565b606d805492909101600f0b6001600160801b03908116600160801b0292169190911790555060196000526081602052427f3f52c189a44eb41ef2007cc3e7b1a570baf245aaa1c5f4dfdf8cebe7543d481f55565b60408051600380825260808201909252600091606091906020820183803683370190505090508481600081518110613b7557fe5b6020026020010181815250508381600181518110613b8f57fe5b6020026020010181815250508281600281518110613ba957fe5b602002602001018181525050613bbe81614a25565b95945050505050565b6000613bd230614a82565b15905090565b600054610100900460ff1680613bf15750613bf1613bc7565b80613bff575060005460ff16155b613c3a5760405162461bcd60e51b815260040180806020018281038252602e815260200180615284602e913960400191505060405180910390fd5b600054610100900460ff16158015613c65576000805460ff1961ff0019909116610100171660011790555b613c6d614a88565b613c75614a88565b8015611ae8576000805461ff001916905550565b600081613c9557600080fd5b6000613ca18484614b28565b905060016001607f1b036001600160801b03821611156121a557600080fd5b3390565b6000828152603360205260409020613ce2908263ffffffff614c7116565b1561140857613cef613cc0565b6001600160a01b0316816001600160a01b0316837f2f8788117e7eff1d82e926ec794901d17c78024a50270940304540a733656f0d60405160405180910390a45050565b6000828152603360205260409020613d51908263ffffffff614c8616565b1561140857613d5e613cc0565b6001600160a01b0316816001600160a01b0316837ff6391f5c32d9c69d2a47ea670b442974b53935d1edc7fd64eb21e047a839171b60405160405180910390a45050565b6001600160a01b0383166000908152607260209081526040808320546082835281842061271b855290925282205482918291613de09183918861306e565b93509350935050611a9e86600085858589614422565b6001600160a01b038116600090815260786020526040812054421015613e1857fe5b6080546001600160a01b0383166000908152607860205260408120549091613e46919063ffffffff613ee816565b90506000613e5a824263ffffffff614c9b16565b6080549092508211159050613e6b57fe5b6000613e7982608054613c89565b607f54909150613bbe90600f90810b900b8263ffffffff6138d316565b604080516001600160a01b038416602482015260448082018490528251808303909101815260649091019091526020810180516001600160e01b031663a9059cbb60e01b179052612020908490614cbd565b6000828201838110156121a5576040805162461bcd60e51b815260206004820152601b60248201527f536166654d6174683a206164646974696f6e206f766572666c6f770000000000604482015290519081900360640190fd5b604080516001600160a01b0380861660248301528416604482015260648082018490528251808303909101815260849091019091526020810180516001600160e01b03166323b872dd60e01b179052613f9c908590614cbd565b50505050565b60006121a58383614d6e565b60006121a5836001600160a01b038416614dd2565b613fcb6151be565b613fd36151be565b60005b60048163ffffffff16101561408d576040805160c087901b6001600160c01b0319166020808301919091526028820187905260e889901b6001600160e81b031916604883015260e084901b6001600160e01b031916604b8301528251808303602f018152604f90920190925280519101206303000000601882901b1661406162ffffff891683614dea565b17838363ffffffff166004811061407457fe5b63ffffffff909216602092909202015250600101613fd6565b50949350505050565b6000826140a557506000611583565b828202828482816140b257fe5b04146121a55760405162461bcd60e51b81526004018080602001828103825260218152602001806152b26021913960400191505060405180910390fd5b6000600f82810b9084900b0360016001607f1b03198112801590613901575060016001607f1b038113156121a557600080fd5b600060048363ffffffff161061413757600080fd5b6040805160c086901b6001600160c01b0319166020808301919091526028820185905260e888901b6001600160e81b031916604883015260e086901b6001600160e01b031916604b8301528251808303602f018152604f90920190925280519101206303000000601882901b166141b362ffffff881683614dea565b179695505050505050565b60008060006141d48862ffffff168a4201614e09565b905060006141e98762ffffff168b4203614e09565b905060008660ff166141fb8a8a614e1d565b0290508660ff1661420b896130f1565b0294508493508162ffffff168362ffffff16101561422a575060009350835b60ff861615614263576001600160a01b038c16600090815260826020908152604080832061271b84529091529020805486019055614282565b6001600160a01b038c1660009081526072602052604090208054860190555b60008b8152607360209081526040808320805461ffff8616908101909155815193845262ffffff808d1693850193909352828716848301529185166060840152608083019190915260a08201879052518c916001600160a01b038f16917f7a58aac6530017822bf3210fccef7efa31f56277f19966bc887bfb11f40ca96d9181900360c00190a350505097509795505050505050565b600061158382614e3e565b6067546040805163a9059cbb60e01b81526001600160a01b038581166004830152602482018590529151919092169163a9059cbb9160448083019260209291908290030181600087803b15801561437957600080fd5b505af115801561438d573d6000803e3d6000fd5b505050506040513d6020811015613f9c57600080fd5b6001600160a01b0382166000908152607560205260409020546143cc908263ffffffff613ee816565b6001600160a01b038316600081815260756020908152604091829020939093558051848152905191927f3443ca0a6a2d7fbb0e0c0612adb07cdcbde092e281a3dddc6ed66c14c00429cd92918290030190a25050565b841561448b57846076541061444857607654614444908663ffffffff6136c216565b6076555b6001600160a01b038616600090815260756020526040902054614471908663ffffffff6136c216565b6001600160a01b0387166000908152607560205260409020555b83156144d4576001600160a01b0386166000908152607260205260409020546144ba908563ffffffff6136c216565b6001600160a01b0387166000908152607260205260409020555b8215614537576001600160a01b038616600090815260826020908152604080832061271b8452909152902054614510908463ffffffff6136c216565b6001600160a01b038716600090815260826020908152604080832061271b84529091529020555b8115611a9e57606754604080516323b872dd60e01b81526001600160a01b03898116600483015230602483015260448201869052915191909216916323b872dd9160648083019260209291908290030181600087803b15801561459957600080fd5b505af11580156145ad573d6000803e3d6000fd5b505050506040513d60208110156145c357600080fd5b50508015611a9e57611a9e8261371f565b601660005260816020527f5fd05bf8ce00055e1c149779b9ba9a9e6ec1107d16d82a279afe8b4e719352ca5461461290670de0b6b3a7640000613c89565b61461a612437565b606b805492909101600f0b6001600160801b03166101000270ffffffffffffffffffffffffffffffff0019909216919091179055601a6000526081602052427fb1fb30aa815caa6cda02c04923518f07e073c245613f4feecc851394c9e6c83255565b600660005260816020527fe82dfa8be7d86a3c33d059d48ba9f889853de0a0274c9650a066093d809fb93a54610e1042919091031061364a576081602052427fe82dfa8be7d86a3c33d059d48ba9f889853de0a0274c9650a066093d809fb93a557fc45e0b5067d7ac86d0be8d9d96f330921b6e0f688a587d37a16cf7d7ab07b20b547f872978266e5c84cf01226e34dea843fee7795bbe067d4f8fa97cd8a4a4f92ae65460126000527feb2da674f16cb5110fedac13224db66880c6dd3c710a4f80cba8c117da247eba5491019081116147585780614785565b601260005260816020527feb2da674f16cb5110fedac13224db66880c6dd3c710a4f80cba8c117da247eba545b600d60005260816020527fc45e0b5067d7ac86d0be8d9d96f330921b6e0f688a587d37a16cf7d7ab07b20b8190556147c490829063ffffffff6136c216565b60816020527f872978266e5c84cf01226e34dea843fee7795bbe067d4f8fa97cd8a4a4f92ae6557f726e9d91939b80e7c0932a3334ebea7677bbbbdb4a3aec89328b048d1fdf31985460116000527f8a557407b8ee166ba6c05540442dc5d87a15c6bdead5b6bf170f36c4957dfbf15481106148da576003600090815260816020527f13f1f3b0ad19e64ed10f97a61cc5230243cb83a4ca0771b62b8429963b3ebbcf5482908161487157fe5b600f60005260816020527fcdf32423344f5eddad864232871ad1722b5e65dde57fd19afe1135a0c7338ef45491900491508111156148d857600f60005260816020527fcdf32423344f5eddad864232871ad1722b5e65dde57fd19afe1135a0c7338ef48190555b505b60816020527fcdf32423344f5eddad864232871ad1722b5e65dde57fd19afe1135a0c7338ef45460106000527f1b53a568263eb081a47931e885d051d0f01f9cb3f0bda46879bfbcde1426286054614938919061375c906064613c89565b60816020527f315f0e1ef6ef8a722d672902d2e57165601c27ff4929498b7b7a9dbc3bc16ccb5550507f542f59c7765c387d39896325245e21828d1224c292d31c91eeb57435e848e947547f13b5cb4a4d43bf965b40e08530c00814b115eb8d26c35f0489bd303e483928f554027ff0220f1d3d3f0c193b10e6ec3c226794a75e3dc67f3a308e6589682c7289d5bd5560007f726e9d91939b80e7c0932a3334ebea7677bbbbdb4a3aec89328b048d1fdf3198819055600381527f13f1f3b0ad19e64ed10f97a61cc5230243cb83a4ca0771b62b8429963b3ebbcf55565b6114ec85858585856001614422565b60008160405160200180828051906020019060200280838360005b83811015614a58578181015183820152602001614a40565b505050509050019150506040516020818303038152906040528051906020012060001c9050919050565b3b151590565b600054610100900460ff1680614aa15750614aa1613bc7565b80614aaf575060005460ff16155b614aea5760405162461bcd60e51b815260040180806020018281038252602e815260200180615284602e913960400191505060405180910390fd5b600054610100900460ff16158015613c75576000805460ff1961ff0019909116610100171660011790558015611ae8576000805461ff001916905550565b600081614b3457600080fd5b60006001600160c01b038411614b595782604085901b81614b5157fe5b049050614c5d565b60c084811c600160201b8110614b71576020918201911c5b620100008110614b83576010918201911c5b6101008110614b94576008918201911c5b60108110614ba4576004918201911c5b60048110614bb4576002918201911c5b60028110614bc3576001820191505b60bf820360018603901c6001018260ff0387901b81614bde57fe5b0492506001600160801b03831115614bf557600080fd5b608085901c83026001600160801b038616840260c088901c604089901b82811015614c21576001820391505b608084901b92900382811015614c38576001820391505b829003608084901c8214614c4857fe5b888181614c5157fe5b04870196505050505050505b6001600160801b038111156121a557600080fd5b60006121a5836001600160a01b038416614e42565b60006121a5836001600160a01b038416614e8c565b60008083831115614cb157506000905080613050565b50600193919092039150565b6060614d12826040518060400160405280602081526020017f5361666545524332303a206c6f772d6c6576656c2063616c6c206661696c6564815250856001600160a01b0316614f529092919063ffffffff16565b80519091501561202057808060200190516020811015614d3157600080fd5b50516120205760405162461bcd60e51b815260040180806020018281038252602a8152602001806152d3602a913960400191505060405180910390fd5b81546000908210614db05760405162461bcd60e51b81526004018080602001828103825260228152602001806151dd6022913960400191505060405180910390fd5b826000018281548110614dbf57fe5b9060005260206000200154905092915050565b60009081526001919091016020526040902054151590565b6000600a8304614dfe826002830285614f69565b930390920192915050565b6000600a8304614dfe826002830285614f89565b60008262ffffff166071548362ffffff160281614e3657fe5b049392505050565b5490565b6000614e4e8383614dd2565b614e8457508154600181810184556000848152602080822090930184905584548482528286019093526040902091909155611583565b506000611583565b60008181526001830160205260408120548015614f485783546000198083019190810190600090879083908110614ebf57fe5b9060005260206000200154905080876000018481548110614edc57fe5b600091825260208083209091019290925582815260018981019092526040902090840190558654879080614f0c57fe5b60019003818190600052602060002001600090559055866001016000878152602001908152602001600020600090556001945050505050611583565b6000915050611583565b6060614f618484600085614fbe565b949350505050565b600060018484030181818481614f7b57fe5b068601925050509392505050565b6040805160208082018490528251808303820181529183019092528051910120600090600185850301908290829081614f7b57fe5b606082471015614fff5760405162461bcd60e51b815260040180806020018281038252602681526020018061522e6026913960400191505060405180910390fd5b61500885614a82565b615059576040805162461bcd60e51b815260206004820152601d60248201527f416464726573733a2063616c6c20746f206e6f6e2d636f6e7472616374000000604482015290519081900360640190fd5b60006060866001600160a01b031685876040518082805190602001908083835b602083106150985780518252601f199092019160209182019101615079565b6001836020036101000a03801982511681845116808217855250505050505090500191505060006040518083038185875af1925050503d80600081146150fa576040519150601f19603f3d011682016040523d82523d6000602084013e6150ff565b606091505b509150915061510f82828661511a565b979650505050505050565b606083156151295750816121a5565b8251156151395782518084602001fd5b8160405162461bcd60e51b81526004018080602001828103825283818151815260200191508051906020019080838360005b8381101561518357818101518382015260200161516b565b50505050905090810190601f1680156151b05780820380516001836020036101000a031916815260200191505b509250505060405180910390fd5b6040518060800160405280600490602082028036833750919291505056fe456e756d657261626c655365743a20696e646578206f7574206f6620626f756e6473416363657373436f6e74726f6c3a2073656e646572206d75737420626520616e2061646d696e20746f206772616e74416464726573733a20696e73756666696369656e742062616c616e636520666f722063616c6c416363657373436f6e74726f6c3a2073656e646572206d75737420626520616e2061646d696e20746f207265766f6b65496e697469616c697a61626c653a20636f6e747261637420697320616c726561647920696e697469616c697a6564536166654d6174683a206d756c7469706c69636174696f6e206f766572666c6f775361666545524332303a204552433230206f7065726174696f6e20646964206e6f742073756363656564416363657373436f6e74726f6c3a2063616e206f6e6c792072656e6f756e636520726f6c657320666f722073656c66a2646970667358221220620216b0fc91ed711a4f14eb05205f1e446aaa04957ab063646830170dfc486464736f6c63430006050033","immutableReferences":{},"source":"pragma solidity ^0.6.0;\n\nimport \"@openzeppelin/contracts-upgradeable/proxy/Initializable.sol\";\nimport \"@openzeppelin/contracts-upgradeable/access/AccessControlUpgradeable.sol\";\nimport \"@openzeppelin/contracts/math/SafeMath.sol\";\nimport \"abdk-libraries-solidity/ABDKMath64x64.sol\";\nimport \"@openzeppelin/contracts/token/ERC20/IERC20.sol\";\nimport \"@openzeppelin/contracts/token/ERC20/SafeERC20.sol\";\nimport \"./interfaces/IStakeFromGame.sol\";\nimport \"./interfaces/IRandoms.sol\";\nimport \"./interfaces/IPriceOracle.sol\";\nimport \"./characters.sol\";\nimport \"./Promos.sol\";\nimport \"./weapons.sol\";\nimport \"./util.sol\";\nimport \"./common.sol\";\nimport \"./Blacksmith.sol\";\nimport \"./SpecialWeaponsManager.sol\";\nimport \"./SafeRandoms.sol\";\n\ncontract CryptoBlades is Initializable, AccessControlUpgradeable {\n    using ABDKMath64x64 for int128;\n    using SafeMath for uint256;\n    using SafeMath for uint64;\n    using SafeERC20 for IERC20;\n\n    bytes32 public constant GAME_ADMIN = keccak256(\"GAME_ADMIN\");\n    bytes32 public constant WEAPON_SEED = keccak256(\"WEAPON_SEED\");\n\n    int128 public constant PAYMENT_USING_STAKED_SKILL_COST_AFTER_DISCOUNT =\n        14757395258967641292; // 0.8 in fixed-point 64x64 format\n\n    // Mapped variables (vars[]) keys, one value per key\n    // Using small numbers for now to save on contract size (3% for 13 vars vs using uint256(keccak256(\"name\"))!)\n    // Can be migrated later via setVars if needed\n    uint256 public constant VAR_HOURLY_INCOME = 1;\n    uint256 public constant VAR_HOURLY_FIGHTS = 2;\n    uint256 public constant VAR_HOURLY_POWER_SUM = 3;\n    uint256 public constant VAR_HOURLY_POWER_AVERAGE = 4;\n    uint256 public constant VAR_HOURLY_PAY_PER_FIGHT = 5;\n    uint256 public constant VAR_HOURLY_TIMESTAMP = 6;\n    uint256 public constant VAR_DAILY_MAX_CLAIM = 7;\n    uint256 public constant VAR_CLAIM_DEPOSIT_AMOUNT = 8;\n    uint256 public constant VAR_PARAM_PAYOUT_INCOME_PERCENT = 9;\n    uint256 public constant VAR_PARAM_DAILY_CLAIM_FIGHTS_LIMIT = 10;\n    uint256 public constant VAR_PARAM_DAILY_CLAIM_DEPOSIT_PERCENT = 11;\n    uint256 public constant VAR_PARAM_MAX_FIGHT_PAYOUT = 12;\n    uint256 public constant VAR_HOURLY_DISTRIBUTION = 13;\n    uint256 public constant VAR_UNCLAIMED_SKILL = 14;\n    uint256 public constant VAR_HOURLY_MAX_POWER_AVERAGE = 15;\n    uint256 public constant VAR_PARAM_HOURLY_MAX_POWER_PERCENT = 16;\n    uint256 public constant VAR_PARAM_SIGNIFICANT_HOUR_FIGHTS = 17;\n    uint256 public constant VAR_PARAM_HOURLY_PAY_ALLOWANCE = 18;\n    uint256 public constant VAR_MINT_WEAPON_FEE_DECREASE_SPEED = 19;\n    uint256 public constant VAR_MINT_CHARACTER_FEE_DECREASE_SPEED = 20;\n    uint256 public constant VAR_WEAPON_FEE_INCREASE = 21;\n    uint256 public constant VAR_CHARACTER_FEE_INCREASE = 22;\n    uint256 public constant VAR_MIN_WEAPON_FEE = 23;\n    uint256 public constant VAR_MIN_CHARACTER_FEE = 24;\n    uint256 public constant VAR_WEAPON_MINT_TIMESTAMP = 25;\n    uint256 public constant VAR_CHARACTER_MINT_TIMESTAMP = 26;\n    uint256 public constant VAR_GAS_OFFSET_PER_FIGHT_MULTIPLIER = 27;\n    uint256 public constant VAR_FIGHT_FLAT_IGO_BONUS = 28;\n\n    uint256 public constant LINK_SAFE_RANDOMS = 1;\n\n    // Mapped user variable(userVars[]) keys, one value per wallet\n    uint256 public constant USERVAR_DAILY_CLAIMED_AMOUNT = 10001;\n    uint256 public constant USERVAR_CLAIM_TIMESTAMP = 10002;\n    uint256 public constant USERVAR_CLAIM_WEAPON_DATA = 10003;\n    // RESERVED USERVAR: 10010\n    uint256 public constant USERVAR_GEN2_UNCLAIMED = 10011;\n    // RESERVED USERVARS: 10012-10019\n\n    Characters public characters;\n    Weapons public weapons;\n    IERC20 public skillToken;//0x154A9F9cbd3449AD22FDaE23044319D6eF2a1Fab;\n    IPriceOracle public priceOracleSkillPerUsd;\n    IRandoms public randoms;\n\n    function initialize(IERC20 _skillToken, Characters _characters, Weapons _weapons, IPriceOracle _priceOracleSkillPerUsd, IRandoms _randoms) public initializer {\n        __AccessControl_init();\n\n        _setupRole(DEFAULT_ADMIN_ROLE, msg.sender);\n        _setupRole(GAME_ADMIN, msg.sender);\n\n        skillToken = _skillToken;\n        characters = _characters;\n        weapons = _weapons;\n        priceOracleSkillPerUsd = _priceOracleSkillPerUsd;\n        randoms = _randoms;\n\n        staminaCostFight = 40;\n        mintCharacterFee = ABDKMath64x64.divu(10, 1);//10 usd;\n        mintWeaponFee = ABDKMath64x64.divu(3, 1);//3 usd;\n\n        // migrateTo_1ee400a\n        fightXpGain = 32;\n\n        // migrateTo_aa9da90\n        oneFrac = ABDKMath64x64.fromUInt(1);\n        fightTraitBonus = ABDKMath64x64.divu(75, 1000);\n\n        // migrateTo_7dd2a56\n        // numbers given for the curves were $4.3-aligned so they need to be multiplied\n        // additional accuracy may be in order for the setter functions for these\n        fightRewardGasOffset = ABDKMath64x64.divu(23177, 100000); // 0.0539 x 4.3\n        fightRewardBaseline = ABDKMath64x64.divu(344, 1000); // 0.08 x 4.3\n\n        // migrateTo_5e833b0\n        durabilityCostFight = 1;\n    }\n\n    function migrateTo_ef994e2(Promos _promos) public {\n        require(hasRole(DEFAULT_ADMIN_ROLE, msg.sender));\n\n        promos = _promos;\n    }\n\n    function migrateTo_23b3a8b(IStakeFromGame _stakeFromGame) external {\n        require(hasRole(DEFAULT_ADMIN_ROLE, msg.sender));\n\n        stakeFromGameImpl = _stakeFromGame;\n    }\n\n    function migrateTo_801f279() external {\n        require(hasRole(DEFAULT_ADMIN_ROLE, msg.sender));\n\n        burnWeaponFee = ABDKMath64x64.divu(2, 10);//0.2 usd;\n        reforgeWeaponWithDustFee = ABDKMath64x64.divu(3, 10);//0.3 usd;\n\n        reforgeWeaponFee = burnWeaponFee + reforgeWeaponWithDustFee;//0.5 usd;\n    }\n\n    function migrateTo_60872c8(Blacksmith _blacksmith) external {\n        require(hasRole(DEFAULT_ADMIN_ROLE, msg.sender));\n\n        blacksmith = _blacksmith;\n    }\n\n    function migrateTo_6a97bd1() external {\n        require(hasRole(DEFAULT_ADMIN_ROLE, msg.sender));\n\n        rewardsClaimTaxMax = 2767011611056432742; // = ~0.15 = ~15%\n        rewardsClaimTaxDuration = 15 days;\n    }\n\n    function migrateTo_e1fe97c(SpecialWeaponsManager _swm) external {\n        require(hasRole(DEFAULT_ADMIN_ROLE, msg.sender));\n\n        specialWeaponsManager = _swm;\n    }\n\n    // UNUSED; KEPT FOR UPGRADEABILITY PROXY COMPATIBILITY\n    uint characterLimit;\n    // config vars\n    uint8 staminaCostFight;\n\n    // prices & payouts are in USD, with 4 decimals of accuracy in 64.64 fixed point format\n    int128 public mintCharacterFee;\n    //int128 public rerollTraitFee;\n    //int128 public rerollCosmeticsFee;\n    int128 public refillStaminaFee;\n    // lvl 1 player power could be anywhere between ~909 to 1666\n    // cents per fight multiplied by monster power divided by 1000 (lv1 power)\n    int128 public fightRewardBaseline;\n    int128 public fightRewardGasOffset;\n\n    int128 public mintWeaponFee;\n    int128 public reforgeWeaponFee;\n\n    uint256 nonce;\n\n    mapping(address => uint256) lastBlockNumberCalled;\n\n    uint256 public fightXpGain; // multiplied based on power differences\n\n    mapping(address => uint256) tokenRewards; // user adress : skill wei\n    mapping(uint256 => uint256) xpRewards; // character id : xp\n\n    int128 public oneFrac; // 1.0\n    int128 public fightTraitBonus; // 7.5%\n\n    mapping(address => uint256) public inGameOnlyFunds;\n    uint256 public totalInGameOnlyFunds;\n\n    Promos public promos;\n\n    mapping(address => uint256) private _rewardsClaimTaxTimerStart;\n\n    IStakeFromGame public stakeFromGameImpl;\n\n    uint8 durabilityCostFight;\n\n    int128 public burnWeaponFee;\n    int128 public reforgeWeaponWithDustFee;\n\n    Blacksmith public blacksmith;\n\n    struct MintPayment {\n        bytes32 blockHash;\n        uint256 blockNumber;\n        address nftAddress;\n        uint count;\n    }\n\n    mapping(address => MintPayment) mintPayments;\n\n    struct MintPaymentSkillDeposited {\n        uint256 skillDepositedFromWallet;\n        uint256 skillDepositedFromRewards;\n        uint256 skillDepositedFromIgo;\n\n        uint256 skillRefundableFromWallet;\n        uint256 skillRefundableFromRewards;\n        uint256 skillRefundableFromIgo;\n\n        uint256 refundClaimableTimestamp;\n    }\n\n    uint256 public totalMintPaymentSkillRefundable;\n    mapping(address => MintPaymentSkillDeposited) mintPaymentSkillDepositeds;\n\n    int128 private rewardsClaimTaxMax;\n    uint256 private rewardsClaimTaxDuration;\n\n    mapping(uint256 => uint256) public vars;\n    mapping(address => mapping(uint256 => uint256)) public userVars;\n\n    SpecialWeaponsManager public specialWeaponsManager;\n    mapping(uint256 => address) public links;\n\n    event FightOutcome(address indexed owner, uint256 indexed character, uint256 weapon, uint32 target, uint24 playerRoll, uint24 enemyRoll, uint16 xpGain, uint256 skillGain);\n    event InGameOnlyFundsGiven(address indexed to, uint256 skillAmount);\n\n    function recoverSkill(uint256 amount) public {\n        require(hasRole(DEFAULT_ADMIN_ROLE, msg.sender));\n\n        skillToken.safeTransfer(msg.sender, amount);\n    }\n\n    function REWARDS_CLAIM_TAX_MAX() public view returns (int128) {\n        return rewardsClaimTaxMax;\n    }\n\n    function REWARDS_CLAIM_TAX_DURATION() public view returns (uint256) {\n        return rewardsClaimTaxDuration;\n    }\n\n    function getSkillToSubtractSingle(uint256 _needed, uint256 _available)\n        public\n        pure\n        returns (uint256 _used, uint256 _remainder) {\n\n        if(_needed <= _available) {\n            return (_needed, 0);\n        }\n\n        _needed -= _available;\n\n        return (_available, _needed);\n    }\n\n    function getSkillToSubtract(uint256 _inGameOnlyFunds, uint256 _tokenRewards, uint256 _valorTokenRewards, uint256 _skillNeeded)\n        public\n        pure\n        returns (uint256 fromInGameOnlyFunds, uint256 fromTokenRewards, uint256 fromValorTokenRewards, uint256 fromUserWallet) {\n\n        if(_skillNeeded <= _inGameOnlyFunds) {\n            return (_skillNeeded, 0, 0, 0);\n        }\n\n        _skillNeeded -= _inGameOnlyFunds;\n\n        if(_skillNeeded <= _tokenRewards) {\n            return (_inGameOnlyFunds, _skillNeeded, 0, 0);\n        }\n\n        _skillNeeded -= _tokenRewards;\n\n        if(_skillNeeded <= _valorTokenRewards) {\n            return (_inGameOnlyFunds, _tokenRewards, _skillNeeded, 0);\n        }\n\n        _skillNeeded -= _valorTokenRewards;\n\n        return (_inGameOnlyFunds, _tokenRewards, _valorTokenRewards, _skillNeeded);\n    }\n\n    function getSkillNeededFromUserWallet(address playerAddress, uint256 skillNeeded, bool allowInGameOnlyFunds)\n        public\n        view\n        returns (uint256 skillNeededFromUserWallet) {\n\n        uint256 inGameOnlyFundsToUse = 0;\n        if (allowInGameOnlyFunds) {\n            inGameOnlyFundsToUse = inGameOnlyFunds[playerAddress];\n        }\n        (,,, skillNeededFromUserWallet) = getSkillToSubtract(\n            inGameOnlyFundsToUse,\n            tokenRewards[playerAddress],\n            userVars[playerAddress][USERVAR_GEN2_UNCLAIMED],\n            skillNeeded\n        );\n    }\n\n    function fight(address fighter, uint256 char, uint32 target, uint8 fightMultiplier) external\n        restricted returns (uint256, uint256) {\n        require(fightMultiplier >= 1 && fightMultiplier <= 5);\n\n        (uint72 miscData, uint256 powerData) = characters.getFightDataAndDrainStamina(fighter,\n            char, staminaCostFight * fightMultiplier, false, 0);\n        \n        // dirty variable reuse to avoid stack limits (target is 0-3 atm)\n        uint24 playerBasePower = uint24(powerData >> 96);\n        target = grabTarget(\n            playerBasePower,\n            uint64(miscData & 0xFFFFFFFFFFFFFFFF),//timestamp\n            target,//passed as index (0-3)\n            now / 1 hours\n        );\n        // target is now using 24 bits for power and topmost 8bits for trait\n        uint8 targetTrait = uint8(target >> 24);\n\n        return performFight(\n            fighter,\n            char,\n            uint24(powerData >> (targetTrait*24)),//playerFightPower\n            playerBasePower,//playerBasePower\n            uint24(target),//targetPower\n            fightMultiplier,\n            uint8((miscData >> 64) & 0xFF)//characterVersion\n        );\n    }\n\n    function performFight(\n        address fighter,\n        uint256 char,\n        uint24 playerFightPower,\n        uint24 playerBasePower,\n        uint24 targetPower,\n        uint8 fightMultiplier,\n        uint8 characterVersion\n    ) private returns (uint256 tokens, uint256 expectedTokens) {\n        //now+/-char is hashed within randomUtil\n        uint24 playerRoll = uint24(RandomUtil.plusMinus10PercentSeededFast(playerFightPower,now+char));\n        uint24 monsterRoll = uint24(RandomUtil.plusMinus10PercentSeededFast(targetPower, now-char));\n\n        uint16 xp = getXpGainForFight(playerBasePower, targetPower) * fightMultiplier;\n        tokens = getTokenGainForFight(targetPower) * fightMultiplier;\n        expectedTokens = tokens;\n\n        if (playerRoll < monsterRoll) {\n            tokens = 0;\n            xp = 0;\n        }\n\n        if(characterVersion > 0) {\n            userVars[fighter][USERVAR_GEN2_UNCLAIMED] += tokens;\n        }\n        else {\n            tokenRewards[fighter] += tokens;\n        }\n        xpRewards[char] += xp;\n\n        emit FightOutcome(fighter, char, 0/*wep*/, (targetPower /*| ((uint32(data.traitsCWE) << 8) & 0xFF000000)*/), playerRoll, monsterRoll, xp, tokens);\n    }\n\n    function getTokenGainForFight(uint24 monsterPower) public view returns (uint256) {\n        // monsterPower / avgPower * payPerFight * powerMultiplier + gasoffset\n        return monsterPower * vars[VAR_HOURLY_PAY_PER_FIGHT] / vars[VAR_HOURLY_POWER_AVERAGE]\n            + vars[VAR_GAS_OFFSET_PER_FIGHT_MULTIPLIER];\n    }\n    \n    function getXpGainForFight(uint24 playerPower, uint24 monsterPower) internal view returns (uint16) {\n        return uint16(monsterPower * fightXpGain / playerPower);\n    }\n\n    function getTargets(uint256 char) public view returns (uint32[4] memory) {\n        // this is a frontend function\n        uint256 powerData = characters.getNftVar(char, characters.NFTVAR_POWER_DATA());\n\n        return getTargetsInternal(\n            uint24(powerData >> 96), // base power (target)\n            characters.getStaminaTimestamp(char),\n            now / 1 hours\n        );\n    }\n\n    function getTargetsInternal(uint24 playerPower,\n        uint64 staminaTimestamp,\n        uint256 currentHour\n    ) private pure returns (uint32[4] memory) {\n        // 4 targets, roll powers based on character + weapon power\n        // trait bonuses not accounted for\n        // targets expire on the hour\n\n        uint32[4] memory targets;\n        for(uint32 i = 0; i < targets.length; i++) {\n            // we alter seed per-index or they would be all the same\n            // this is a read only function so it's fine to pack all 4 params each iteration\n            // for the sake of target picking it needs to be the same as in grabTarget(i)\n            // even the exact type of \"i\" is important here\n            uint256 indexSeed = uint256(keccak256(abi.encodePacked(\n                staminaTimestamp, currentHour, playerPower, i\n            )));\n\n            targets[i] = uint32(\n                RandomUtil.plusMinus10PercentSeededPrehashed(playerPower, indexSeed) // power\n                | (uint32(indexSeed % 4) << 24) // trait\n            );\n        }\n\n        return targets;\n    }\n\n    function grabTarget(\n        uint24 playerPower,\n        uint64 staminaTimestamp,\n        uint32 enemyIndex,\n        uint256 currentHour\n    ) private pure returns (uint32) {\n        require(enemyIndex < 4);\n\n        uint256 enemySeed = uint256(keccak256(abi.encodePacked(\n            staminaTimestamp, currentHour, playerPower, enemyIndex\n        )));\n        return uint32(\n            RandomUtil.plusMinus10PercentSeededPrehashed(playerPower, enemySeed) // power\n            | (uint32(enemySeed % 4) << 24) // trait\n        );\n    }\n\n    function mintCharacter() public onlyNonContract oncePerBlock(msg.sender) {\n\n        uint256 skillAmount = usdToSkill(mintCharacterFee);\n        (,,, uint256 fromUserWallet) =\n            getSkillToSubtract(\n                0,\n                0,\n                0,\n                skillAmount\n            );\n        require(skillToken.balanceOf(msg.sender) >= fromUserWallet && promos.getBit(msg.sender, 4) == false);\n\n        uint256 convertedAmount = usdToSkill(getMintCharacterFee());\n        _deductPlayerSkillStandard(msg.sender, 0, 0, 0, convertedAmount, true);\n\n        uint256 seed = randoms.getRandomSeed(msg.sender);\n        uint256 id = characters.mint(msg.sender, seed);\n        xpRewards[id] = 1;\n        if(userVars[msg.sender][USERVAR_GEN2_UNCLAIMED] == 0) {\n            userVars[msg.sender][USERVAR_GEN2_UNCLAIMED] = 1;\n        }\n        if(inGameOnlyFunds[msg.sender] == 0) {\n            inGameOnlyFunds[msg.sender] = 1;\n        }\n\n        // first weapon free with a character mint, max 1 star\n        if(weapons.balanceOf(msg.sender) == 0) {\n            weapons.mintWeaponWithStars(msg.sender, 0, uint256(keccak256(abi.encodePacked(blockhash(block.number - 1), msg.sender))), 100);\n        }\n\n        _updateCharacterMintFee();\n    }\n\n    function generateWeaponSeed(uint32 quantity, uint8 chosenElement, uint256 eventId) external onlyNonContract oncePerBlock(msg.sender) {\n        require(quantity > 0 && quantity <= 10);\n        require(userVars[msg.sender][USERVAR_CLAIM_WEAPON_DATA] == 0);\n        uint8 chosenElementFee = chosenElement == 100 ? 1 : 2;\n        int128 mintWeaponFee =\n            getMintWeaponFee()\n                .mul(ABDKMath64x64.fromUInt(quantity))\n                .mul(ABDKMath64x64.fromUInt(chosenElementFee));\n        _payContractConvertedSupportingStaked(msg.sender, usdToSkill(mintWeaponFee));\n        _updateWeaponMintFee(quantity);\n        if (eventId > 0) {\n            specialWeaponsManager.addShards(msg.sender, eventId, quantity);\n        }\n        SafeRandoms(links[LINK_SAFE_RANDOMS]).requestSingleSeed(msg.sender, getSeed(uint(WEAPON_SEED), quantity, chosenElement));\n        userVars[msg.sender][USERVAR_CLAIM_WEAPON_DATA] = uint256(uint256(chosenElement) | (uint256(quantity) << 32));\n    }\n\n    function generateWeaponSeedUsingStakedSkill(uint32 quantity, uint8 chosenElement, uint256 eventId) external onlyNonContract oncePerBlock(msg.sender) {\n        require(quantity > 0 && quantity <= 10);\n        require(userVars[msg.sender][USERVAR_CLAIM_WEAPON_DATA] == 0);\n        uint8 chosenElementFee = chosenElement == 100 ? 1 : 2;\n        int128 discountedMintWeaponFee =\n            getMintWeaponFee()\n                .mul(PAYMENT_USING_STAKED_SKILL_COST_AFTER_DISCOUNT)\n                .mul(ABDKMath64x64.fromUInt(quantity))\n                .mul(ABDKMath64x64.fromUInt(chosenElementFee));\n        _payContractStakedOnly(msg.sender, usdToSkill(discountedMintWeaponFee));\n        _updateWeaponMintFee(quantity);\n        if (eventId > 0) {\n            specialWeaponsManager.addShards(msg.sender, eventId, quantity);\n        }\n        SafeRandoms(links[LINK_SAFE_RANDOMS]).requestSingleSeed(msg.sender, getSeed(uint(WEAPON_SEED), quantity, chosenElement));\n        userVars[msg.sender][USERVAR_CLAIM_WEAPON_DATA] = uint256(uint256(chosenElement) | (uint256(quantity) << 32));\n    }\n\n    function mintWeapon() external onlyNonContract oncePerBlock(msg.sender) {\n        uint8 chosenElement = uint8((userVars[msg.sender][USERVAR_CLAIM_WEAPON_DATA]) & 0xFF);\n        uint32 quantity = uint32((userVars[msg.sender][USERVAR_CLAIM_WEAPON_DATA] >> 32) & 0xFFFFFFFF);\n        require(quantity > 0);\n        userVars[msg.sender][USERVAR_CLAIM_WEAPON_DATA] = 0;\n        uint256 seed = SafeRandoms(links[LINK_SAFE_RANDOMS]).popSingleSeed(msg.sender, getSeed(uint(WEAPON_SEED), quantity, chosenElement), true, false);\n        weapons.mintN(msg.sender, quantity, seed, chosenElement);\n    }\n\n    function getSeed(uint seedId, uint quantity, uint element) internal pure returns (uint256 seed) {\n        uint[] memory seeds = new uint[](3);\n        seeds[0] = seedId;\n        seeds[1] = quantity;\n        seeds[2] = element;\n        seed = RandomUtil.combineSeeds(seeds);\n    }\n\n    function _updateWeaponMintFee(uint256 num) internal {\n        mintWeaponFee = getMintWeaponFee() + ABDKMath64x64.divu(vars[VAR_WEAPON_FEE_INCREASE].mul(num), 1e18);\n        vars[VAR_WEAPON_MINT_TIMESTAMP] = block.timestamp;\n    }\n\n    function _updateCharacterMintFee() internal {\n        mintCharacterFee = getMintCharacterFee() + ABDKMath64x64.divu(vars[VAR_CHARACTER_FEE_INCREASE], 1e18);\n        vars[VAR_CHARACTER_MINT_TIMESTAMP] = block.timestamp;\n    }\n\n    function migrateRandoms(IRandoms _newRandoms) external {\n        require(hasRole(DEFAULT_ADMIN_ROLE, msg.sender));\n        randoms = _newRandoms;\n    }\n\n    modifier onlyNonContract() {\n        _onlyNonContract();\n        _;\n    }\n\n    function _onlyNonContract() internal view {\n        require(tx.origin == msg.sender, \"ONC\");\n    }\n\n    modifier restricted() {\n        _restricted();\n        _;\n    }\n\n    function _restricted() internal view {\n        require(hasRole(GAME_ADMIN, msg.sender), \"NGA\");\n    }\n\n    modifier oncePerBlock(address user) {\n        _oncePerBlock(user);\n        _;\n    }\n\n    function _oncePerBlock(address user) internal {\n        require(lastBlockNumberCalled[user] < block.number, \"OCB\");\n        lastBlockNumberCalled[user] = block.number;\n    }\n\n    modifier isWeaponOwner(uint256 weapon) {\n        _isWeaponOwner(weapon);\n        _;\n    }\n\n    function _isWeaponOwner(uint256 weapon) internal view {\n        require(weapons.ownerOf(weapon) == msg.sender);\n    }\n\n    modifier isWeaponsOwner(uint256[] memory weaponArray) {\n        _isWeaponsOwner(weaponArray);\n        _;\n    }\n\n    function _isWeaponsOwner(uint256[] memory weaponArray) internal view {\n        for(uint i = 0; i < weaponArray.length; i++) {\n            require(weapons.ownerOf(weaponArray[i]) == msg.sender);\n        }\n    }\n\n    modifier isCharacterOwner(uint256 character) {\n        _isCharacterOwner(character);\n        _;\n    }\n\n    function _isCharacterOwner(uint256 character) internal view {\n        require(characters.ownerOf(character) == msg.sender);\n    }\n\n    function payPlayerConverted(address playerAddress, uint256 convertedAmount) public restricted {\n        _payPlayerConverted(playerAddress, convertedAmount);\n    }\n\n    function payContractTokenOnly(address playerAddress, uint256 convertedAmount) public restricted {\n        _payContractTokenOnly(playerAddress, convertedAmount, true);\n    }\n\n    function payContractTokenOnly(address playerAddress, uint256 convertedAmount, bool track) public restricted {\n        _payContractTokenOnly(playerAddress, convertedAmount, track);\n    }\n\n    function _payContractTokenOnly(address playerAddress, uint256 convertedAmount) internal {\n        _payContractTokenOnly(playerAddress, convertedAmount, true);\n    }\n\n    function _payContractTokenOnly(address playerAddress, uint256 convertedAmount, bool track) internal {\n        (, uint256 fromTokenRewards, uint256 fromValorTokenRewards, uint256 fromUserWallet) =\n            getSkillToSubtract(\n                0,\n                tokenRewards[playerAddress],\n                userVars[playerAddress][USERVAR_GEN2_UNCLAIMED],\n                convertedAmount\n            );\n\n        _deductPlayerSkillStandard(playerAddress, 0, fromTokenRewards, fromValorTokenRewards, fromUserWallet, track);\n    }\n\n    function _payContract(address playerAddress, int128 usdAmount) internal\n        returns (uint256 _fromInGameOnlyFunds, uint256 _fromTokenRewards, uint256 _fromUserWallet) {\n\n        return _payContractConverted(playerAddress, usdToSkill(usdAmount));\n    }\n\n    function _payContractConverted(address playerAddress, uint256 convertedAmount) internal\n        returns (uint256 _fromInGameOnlyFunds, uint256 _fromTokenRewards, uint256 _fromUserWallet) {\n\n        (uint256 fromInGameOnlyFunds, uint256 fromTokenRewards, uint256 fromValorTokenRewards, uint256 fromUserWallet) =\n            getSkillToSubtract(\n                inGameOnlyFunds[playerAddress],\n                tokenRewards[playerAddress],\n                userVars[playerAddress][USERVAR_GEN2_UNCLAIMED],\n                convertedAmount\n            );\n\n        require(skillToken.balanceOf(playerAddress) >= fromUserWallet,\n            string(abi.encodePacked(\"Not enough SKILL! Need \",RandomUtil.uint2str(convertedAmount))));\n\n        _deductPlayerSkillStandard(playerAddress, fromInGameOnlyFunds, fromTokenRewards, fromValorTokenRewards, fromUserWallet);\n\n        return (fromInGameOnlyFunds, fromTokenRewards, fromUserWallet);\n    }\n\n    function payContractConvertedSupportingStaked(address playerAddress, uint256 convertedAmount) external restricted\n        returns (\n            uint256 _fromInGameOnlyFunds,\n            uint256 _fromTokenRewards,\n            uint256 _fromUserWallet,\n            uint256 _fromStaked\n        ) {\n        return _payContractConvertedSupportingStaked(playerAddress, convertedAmount);\n    }\n\n    function _payContractConvertedSupportingStaked(address playerAddress, uint256 convertedAmount) internal\n        returns (\n            uint256 _fromInGameOnlyFunds,\n            uint256 _fromTokenRewards,\n            uint256 _fromUserWallet,\n            uint256 _fromStaked\n        ) {\n\n        (uint256 fromInGameOnlyFunds, uint256 fromTokenRewards, uint256 fromValorTokenRewards, uint256 _remainder) =\n            getSkillToSubtract(\n                inGameOnlyFunds[playerAddress],\n                tokenRewards[playerAddress],\n                userVars[playerAddress][USERVAR_GEN2_UNCLAIMED],\n                convertedAmount\n            );\n\n        (uint256 fromUserWallet, uint256 fromStaked) =\n            getSkillToSubtractSingle(\n                _remainder,\n                skillToken.balanceOf(playerAddress)\n            );\n\n        _deductPlayerSkillStandard(playerAddress, fromInGameOnlyFunds, fromTokenRewards, fromValorTokenRewards, fromUserWallet);\n\n        if(fromStaked > 0) {\n            stakeFromGameImpl.unstakeToGame(playerAddress, fromStaked);\n            _trackIncome(fromStaked);\n        }\n\n        return (fromInGameOnlyFunds, fromTokenRewards, fromUserWallet, fromStaked);\n    }\n\n    function _payContractStakedOnly(address playerAddress, uint256 convertedAmount) internal {\n        stakeFromGameImpl.unstakeToGame(playerAddress, convertedAmount);\n        _trackIncome(convertedAmount);\n    }\n\n    function payContractStakedOnly(address playerAddress, uint256 convertedAmount) external restricted {\n        _payContractStakedOnly(playerAddress, convertedAmount);\n    }\n\n    function _deductPlayerSkillStandard(\n        address playerAddress,\n        uint256 fromInGameOnlyFunds,\n        uint256 fromTokenRewards,\n        uint256 fromValorTokenRewards,\n        uint256 fromUserWallet\n    ) internal {\n        _deductPlayerSkillStandard(\n            playerAddress,\n            fromInGameOnlyFunds,\n            fromTokenRewards,\n            fromValorTokenRewards,\n            fromUserWallet,\n            true\n        );\n    }\n\n    function _deductPlayerSkillStandard(\n        address playerAddress,\n        uint256 fromInGameOnlyFunds,\n        uint256 fromTokenRewards,\n        uint256 fromValorTokenRewards,\n        uint256 fromUserWallet,\n        bool trackInflow\n    ) internal {\n        if(fromInGameOnlyFunds > 0) {\n            if(totalInGameOnlyFunds >= fromInGameOnlyFunds) // might revert otherwise due to .sub\n                totalInGameOnlyFunds = totalInGameOnlyFunds.sub(fromInGameOnlyFunds);\n            inGameOnlyFunds[playerAddress] = inGameOnlyFunds[playerAddress].sub(fromInGameOnlyFunds);\n        }\n\n        if(fromTokenRewards > 0) {\n            tokenRewards[playerAddress] = tokenRewards[playerAddress].sub(fromTokenRewards);\n        }\n\n        if(fromValorTokenRewards > 0) {\n            userVars[playerAddress][USERVAR_GEN2_UNCLAIMED] = userVars[playerAddress][USERVAR_GEN2_UNCLAIMED].sub(fromValorTokenRewards);\n        }\n\n        if(fromUserWallet > 0) {\n            skillToken.transferFrom(playerAddress, address(this), fromUserWallet);\n            if(trackInflow)\n                _trackIncome(fromUserWallet);\n        }\n    }\n\n    function deductAfterPartnerClaim(uint256 amount, address player) external restricted {\n        tokenRewards[player] = tokenRewards[player].sub(amount);\n        vars[VAR_UNCLAIMED_SKILL] -= amount;\n        _trackIncome(amount);\n    }\n\n    function deductValor(uint256 amount, address player) external restricted {\n        userVars[player][USERVAR_GEN2_UNCLAIMED] = userVars[player][USERVAR_GEN2_UNCLAIMED].sub(amount);\n    }\n\n    function trackIncome(uint256 income) public restricted {\n        _trackIncome(income);\n    }\n\n    function _trackIncome(uint256 income) internal {\n        vars[VAR_HOURLY_INCOME] += ABDKMath64x64.divu(vars[VAR_PARAM_PAYOUT_INCOME_PERCENT],100)\n                .mulu(income);\n        updateHourlyPayouts();\n    }\n\n    function updateHourlyPayouts() internal {\n        // Could be done by a bot instead?\n        if(now - vars[VAR_HOURLY_TIMESTAMP] >= 1 hours) {\n            vars[VAR_HOURLY_TIMESTAMP] = now;\n\n            uint256 undistributed = vars[VAR_HOURLY_INCOME] + vars[VAR_HOURLY_DISTRIBUTION];\n\n            vars[VAR_HOURLY_DISTRIBUTION] = undistributed > vars[VAR_PARAM_HOURLY_PAY_ALLOWANCE]\n                ? vars[VAR_PARAM_HOURLY_PAY_ALLOWANCE] : undistributed;\n            vars[VAR_HOURLY_INCOME] = undistributed.sub(vars[VAR_HOURLY_DISTRIBUTION]);\n\n            uint256 fights = vars[VAR_HOURLY_FIGHTS];\n            if(fights >= vars[VAR_PARAM_SIGNIFICANT_HOUR_FIGHTS]) {\n                uint256 averagePower = vars[VAR_HOURLY_POWER_SUM] / fights;\n\n                if(averagePower > vars[VAR_HOURLY_MAX_POWER_AVERAGE])\n                    vars[VAR_HOURLY_MAX_POWER_AVERAGE] = averagePower;\n            }\n            vars[VAR_HOURLY_POWER_AVERAGE] = ABDKMath64x64.divu(vars[VAR_PARAM_HOURLY_MAX_POWER_PERCENT],100)\n                .mulu(vars[VAR_HOURLY_MAX_POWER_AVERAGE]);\n\n            vars[VAR_DAILY_MAX_CLAIM] = vars[VAR_HOURLY_PAY_PER_FIGHT] * vars[VAR_PARAM_DAILY_CLAIM_FIGHTS_LIMIT];\n            vars[VAR_HOURLY_FIGHTS] = 0;\n            vars[VAR_HOURLY_POWER_SUM] = 0;\n        }\n    }\n\n    function _payPlayer(address playerAddress, int128 baseAmount) internal {\n        _payPlayerConverted(playerAddress, usdToSkill(baseAmount));\n    }\n\n    function _payPlayerConverted(address playerAddress, uint256 convertedAmount) internal {\n        skillToken.transfer(playerAddress, convertedAmount);\n    }\n\n    function setCharacterMintValue(uint256 cents) public restricted {\n        mintCharacterFee = ABDKMath64x64.divu(cents, 100);\n    }\n\n    function setWeaponMintValue(uint256 cents) public restricted {\n        mintWeaponFee = ABDKMath64x64.divu(cents, 100);\n    }\n\n    function setStaminaCostFight(uint8 points) public restricted {\n        staminaCostFight = points;\n    }\n\n    function setDurabilityCostFight(uint8 points) public restricted {\n        durabilityCostFight = points;\n    }\n\n    function setFightXpGain(uint256 average) public restricted {\n        fightXpGain = average;\n    }\n\n    function setRewardsClaimTaxMaxAsPercent(uint256 _percent) public restricted {\n        rewardsClaimTaxMax = ABDKMath64x64.divu(_percent, 100);\n    }\n\n    function setRewardsClaimTaxDuration(uint256 _rewardsClaimTaxDuration) public restricted {\n        rewardsClaimTaxDuration = _rewardsClaimTaxDuration;\n    }\n\n    function setVar(uint256 varField, uint256 value) external restricted {\n        vars[varField] = value;\n    }\n\n    function setVars(uint256[] calldata varFields, uint256[] calldata values) external restricted {\n        for(uint i = 0; i < varFields.length; i++) {\n            vars[varFields[i]] = values[i];\n        }\n    }\n\n    function setLink(uint256 linkId, address linkAddress) external restricted {\n        links[linkId] = linkAddress;\n    }\n\n    function giveInGameOnlyFunds(address to, uint256 skillAmount) external restricted {\n        totalInGameOnlyFunds = totalInGameOnlyFunds.add(skillAmount);\n        inGameOnlyFunds[to] = inGameOnlyFunds[to].add(skillAmount);\n\n        skillToken.safeTransferFrom(msg.sender, address(this), skillAmount);\n\n        emit InGameOnlyFundsGiven(to, skillAmount);\n    }\n\n    function _giveInGameOnlyFundsFromContractBalance(address to, uint256 skillAmount) internal {\n        //totalInGameOnlyFunds = totalInGameOnlyFunds.add(skillAmount);\n        inGameOnlyFunds[to] = inGameOnlyFunds[to].add(skillAmount);\n\n        emit InGameOnlyFundsGiven(to, skillAmount);\n    }\n\n    function giveInGameOnlyFundsFromContractBalance(address to, uint256 skillAmount) external restricted {\n        _giveInGameOnlyFundsFromContractBalance(to, skillAmount);\n    }\n\n    function usdToSkill(int128 usdAmount) public view returns (uint256) {\n        return usdAmount.mulu(priceOracleSkillPerUsd.currentPrice());\n    }\n\n    function claimXpRewards() public {\n        // our characters go to the tavern to rest\n        // they meditate on what they've learned\n\n        uint256[] memory chars = characters.getReadyCharacters(msg.sender);\n        require(chars.length > 0);\n        uint256[] memory xps = new uint256[](chars.length);\n        for(uint256 i = 0; i < chars.length; i++) {\n            xps[i] = xpRewards[chars[i]];\n            xpRewards[chars[i]] = 0;\n        }\n        characters.gainXpAll(chars, xps);\n    }\n\n    function resetXp(uint256[] memory chars) public restricted {\n        for(uint256 i = 0; i < chars.length; i++) {\n            xpRewards[chars[i]] = 0;\n        }\n    }\n\n    function getTokenRewards() public view returns (uint256) {\n        return tokenRewards[msg.sender];\n    }\n\n    function getXpRewards(uint256[] memory chars) public view returns (uint256[] memory) {\n        uint charsAmount = chars.length;\n        uint256[] memory xps = new uint256[](charsAmount);\n        for(uint i = 0; i < chars.length; i++) {\n            xps[i] = xpRewards[chars[i]];\n        }\n        return xps;\n    }\n\n    function getTokenRewardsFor(address wallet) public view returns (uint256) {\n        return tokenRewards[wallet];\n    }\n\n    function getTotalSkillOwnedBy(address wallet) public view returns (uint256) {\n        return inGameOnlyFunds[wallet] + getTokenRewardsFor(wallet) + skillToken.balanceOf(wallet);\n    }\n\n    function _getRewardsClaimTax(address playerAddress) internal view returns (int128) {\n        assert(_rewardsClaimTaxTimerStart[playerAddress] <= block.timestamp);\n\n        uint256 rewardsClaimTaxTimerEnd = _rewardsClaimTaxTimerStart[playerAddress].add(rewardsClaimTaxDuration);\n\n        (, uint256 durationUntilNoTax) = rewardsClaimTaxTimerEnd.trySub(block.timestamp);\n\n        assert(0 <= durationUntilNoTax && durationUntilNoTax <= rewardsClaimTaxDuration);\n\n        int128 frac = ABDKMath64x64.divu(durationUntilNoTax, rewardsClaimTaxDuration);\n\n        return rewardsClaimTaxMax.mul(frac);\n    }\n\n    function getOwnRewardsClaimTax() public view returns (int128) {\n        return _getRewardsClaimTax(msg.sender);\n    }\n\n    function getMintWeaponFee() public view returns (int128) {\n        int128 decrease = ABDKMath64x64.divu(block.timestamp.sub(vars[VAR_WEAPON_MINT_TIMESTAMP]).mul(vars[VAR_MINT_WEAPON_FEE_DECREASE_SPEED]), 1e18);\n        int128 weaponFeeMin = ABDKMath64x64.divu(vars[VAR_MIN_WEAPON_FEE], 100);\n        if(decrease > mintWeaponFee) {\n            return weaponFeeMin;\n        }\n        if(mintWeaponFee - decrease < weaponFeeMin) {\n            return weaponFeeMin;\n        }\n        return mintWeaponFee.sub(decrease);\n    }\n\n    function getMintCharacterFee() public view returns (int128) {\n        int128 decrease = ABDKMath64x64.divu(block.timestamp.sub(vars[VAR_CHARACTER_MINT_TIMESTAMP]).mul(vars[VAR_MINT_CHARACTER_FEE_DECREASE_SPEED]), 1e18);\n        int128 characterFeeMin = ABDKMath64x64.divu(vars[VAR_MIN_CHARACTER_FEE], 100);\n        if(decrease > mintCharacterFee) {\n            return characterFeeMin;\n        }\n        if(mintCharacterFee - decrease < characterFeeMin) {\n            return characterFeeMin;\n        }\n        return mintCharacterFee.sub(decrease);\n    }\n\n}\n","sourcePath":"/home/runner/work/cryptoblades/cryptoblades/contracts/cryptoblades.sol","compiler":{"name":"solc","version":"0.6.5+commit.f956cc89.Emscripten.clang"},"schemaVersion":"3.3.4","updatedAt":"2023-03-29T09:16:01.242Z","devdoc":{"methods":{"getRoleAdmin(bytes32)":{"details":"Returns the admin role that controls `role`. See {grantRole} and {revokeRole}.     * To change a role's admin, use {_setRoleAdmin}."},"getRoleMember(bytes32,uint256)":{"details":"Returns one of the accounts that have `role`. `index` must be a value between 0 and {getRoleMemberCount}, non-inclusive.     * Role bearers are not sorted in any particular way, and their ordering may change at any point.     * WARNING: When using {getRoleMember} and {getRoleMemberCount}, make sure you perform all queries on the same block. See the following https://forum.openzeppelin.com/t/iterating-over-elements-on-enumerableset-in-openzeppelin-contracts/2296[forum post] for more information."},"getRoleMemberCount(bytes32)":{"details":"Returns the number of accounts that have `role`. Can be used together with {getRoleMember} to enumerate all bearers of a role."},"grantRole(bytes32,address)":{"details":"Grants `role` to `account`.     * If `account` had not been already granted `role`, emits a {RoleGranted} event.     * Requirements:     * - the caller must have ``role``'s admin role."},"hasRole(bytes32,address)":{"details":"Returns `true` if `account` has been granted `role`."},"renounceRole(bytes32,address)":{"details":"Revokes `role` from the calling account.     * Roles are often managed via {grantRole} and {revokeRole}: this function's purpose is to provide a mechanism for accounts to lose their privileges if they are compromised (such as when a trusted device is misplaced).     * If the calling account had been granted `role`, emits a {RoleRevoked} event.     * Requirements:     * - the caller must be `account`."},"revokeRole(bytes32,address)":{"details":"Revokes `role` from `account`.     * If `account` had been granted `role`, emits a {RoleRevoked} event.     * Requirements:     * - the caller must have ``role``'s admin role."}}},"userdoc":{"methods":{}}}