{"contractName":"Raid1","abi":[{"anonymous":false,"inputs":[{"indexed":true,"internalType":"uint256","name":"raidIndex","type":"uint256"},{"indexed":false,"internalType":"uint8","name":"outcome","type":"uint8"},{"indexed":false,"internalType":"uint256","name":"bossRoll","type":"uint256"},{"indexed":false,"internalType":"uint256","name":"playerRoll","type":"uint256"}],"name":"RaidCompleted","type":"event"},{"anonymous":false,"inputs":[{"indexed":false,"internalType":"uint256","name":"raidIndex","type":"uint256"},{"indexed":true,"internalType":"address","name":"user","type":"address"},{"indexed":true,"internalType":"uint256","name":"character","type":"uint256"},{"indexed":true,"internalType":"uint256","name":"weapon","type":"uint256"},{"indexed":false,"internalType":"uint256","name":"skillPaid","type":"uint256"}],"name":"RaidJoined","type":"event"},{"anonymous":false,"inputs":[{"indexed":true,"internalType":"uint256","name":"raidIndex","type":"uint256"},{"indexed":false,"internalType":"uint8","name":"bossTrait","type":"uint8"},{"indexed":false,"internalType":"uint256","name":"bossPower","type":"uint256"},{"indexed":false,"internalType":"uint256","name":"endTime","type":"uint256"}],"name":"RaidStarted","type":"event"},{"anonymous":false,"inputs":[{"indexed":true,"internalType":"uint256","name":"raidIndex","type":"uint256"},{"indexed":true,"internalType":"address","name":"user","type":"address"},{"indexed":false,"internalType":"uint256","name":"characterCount","type":"uint256"}],"name":"RewardClaimed","type":"event"},{"anonymous":false,"inputs":[{"indexed":true,"internalType":"uint256","name":"raidIndex","type":"uint256"},{"indexed":true,"internalType":"address","name":"user","type":"address"},{"indexed":false,"internalType":"uint32","name":"amount","type":"uint32"}],"name":"RewardedDust4B","type":"event"},{"anonymous":false,"inputs":[{"indexed":true,"internalType":"uint256","name":"raidIndex","type":"uint256"},{"indexed":true,"internalType":"address","name":"user","type":"address"},{"indexed":false,"internalType":"uint32","name":"amount","type":"uint32"}],"name":"RewardedDust5B","type":"event"},{"anonymous":false,"inputs":[{"indexed":true,"internalType":"uint256","name":"raidIndex","type":"uint256"},{"indexed":true,"internalType":"address","name":"user","type":"address"},{"indexed":false,"internalType":"uint32","name":"amount","type":"uint32"}],"name":"RewardedDustLB","type":"event"},{"anonymous":false,"inputs":[{"indexed":true,"internalType":"uint256","name":"raidIndex","type":"uint256"},{"indexed":true,"internalType":"address","name":"user","type":"address"},{"indexed":false,"internalType":"uint8","name":"stars","type":"uint8"},{"indexed":true,"internalType":"uint256","name":"tokenID","type":"uint256"}],"name":"RewardedJunk","type":"event"},{"anonymous":false,"inputs":[{"indexed":true,"internalType":"uint256","name":"raidIndex","type":"uint256"},{"indexed":true,"internalType":"address","name":"user","type":"address"},{"indexed":true,"internalType":"uint256","name":"tokenID","type":"uint256"}],"name":"RewardedKeyBox","type":"event"},{"anonymous":false,"inputs":[{"indexed":true,"internalType":"uint256","name":"raidIndex","type":"uint256"},{"indexed":true,"internalType":"address","name":"user","type":"address"},{"indexed":false,"internalType":"uint8","name":"stars","type":"uint8"},{"indexed":false,"internalType":"uint256","name":"effect","type":"uint256"},{"indexed":true,"internalType":"uint256","name":"tokenID","type":"uint256"}],"name":"RewardedTrinket","type":"event"},{"anonymous":false,"inputs":[{"indexed":true,"internalType":"uint256","name":"raidIndex","type":"uint256"},{"indexed":true,"internalType":"address","name":"user","type":"address"},{"indexed":false,"internalType":"uint8","name":"stars","type":"uint8"},{"indexed":true,"internalType":"uint256","name":"tokenID","type":"uint256"}],"name":"RewardedWeapon","type":"event"},{"anonymous":false,"inputs":[{"indexed":true,"internalType":"uint256","name":"raidIndex","type":"uint256"},{"indexed":true,"internalType":"address","name":"user","type":"address"},{"indexed":true,"internalType":"uint256","name":"charID","type":"uint256"},{"indexed":false,"internalType":"uint16","name":"amount","type":"uint16"}],"name":"RewardedXpBonus","type":"event"},{"anonymous":false,"inputs":[{"indexed":true,"internalType":"bytes32","name":"role","type":"bytes32"},{"indexed":true,"internalType":"bytes32","name":"previousAdminRole","type":"bytes32"},{"indexed":true,"internalType":"bytes32","name":"newAdminRole","type":"bytes32"}],"name":"RoleAdminChanged","type":"event"},{"anonymous":false,"inputs":[{"indexed":true,"internalType":"bytes32","name":"role","type":"bytes32"},{"indexed":true,"internalType":"address","name":"account","type":"address"},{"indexed":true,"internalType":"address","name":"sender","type":"address"}],"name":"RoleGranted","type":"event"},{"anonymous":false,"inputs":[{"indexed":true,"internalType":"bytes32","name":"role","type":"bytes32"},{"indexed":true,"internalType":"address","name":"account","type":"address"},{"indexed":true,"internalType":"address","name":"sender","type":"address"}],"name":"RoleRevoked","type":"event"},{"inputs":[],"name":"DEFAULT_ADMIN_ROLE","outputs":[{"internalType":"bytes32","name":"","type":"bytes32"}],"stateMutability":"view","type":"function"},{"inputs":[],"name":"GAME_ADMIN","outputs":[{"internalType":"bytes32","name":"","type":"bytes32"}],"stateMutability":"view","type":"function"},{"inputs":[],"name":"LINK_EQUIPMENT_MANAGER","outputs":[{"internalType":"uint256","name":"","type":"uint256"}],"stateMutability":"view","type":"function"},{"inputs":[],"name":"LINK_JUNK","outputs":[{"internalType":"uint256","name":"","type":"uint256"}],"stateMutability":"view","type":"function"},{"inputs":[],"name":"LINK_KEYBOX","outputs":[{"internalType":"uint256","name":"","type":"uint256"}],"stateMutability":"view","type":"function"},{"inputs":[],"name":"LINK_TRINKET","outputs":[{"internalType":"uint256","name":"","type":"uint256"}],"stateMutability":"view","type":"function"},{"inputs":[],"name":"NUMBERPARAMETER_AUTO_BOSSPOWER_PERCENT","outputs":[{"internalType":"uint256","name":"","type":"uint256"}],"stateMutability":"view","type":"function"},{"inputs":[],"name":"NUMBERPARAMETER_AUTO_DURATION","outputs":[{"internalType":"uint256","name":"","type":"uint256"}],"stateMutability":"view","type":"function"},{"inputs":[],"name":"STATUS_LOST","outputs":[{"internalType":"uint8","name":"","type":"uint8"}],"stateMutability":"view","type":"function"},{"inputs":[],"name":"STATUS_PAUSED","outputs":[{"internalType":"uint8","name":"","type":"uint8"}],"stateMutability":"view","type":"function"},{"inputs":[],"name":"STATUS_STARTED","outputs":[{"internalType":"uint8","name":"","type":"uint8"}],"stateMutability":"view","type":"function"},{"inputs":[],"name":"STATUS_UNSTARTED","outputs":[{"internalType":"uint8","name":"","type":"uint8"}],"stateMutability":"view","type":"function"},{"inputs":[],"name":"STATUS_WON","outputs":[{"internalType":"uint8","name":"","type":"uint8"}],"stateMutability":"view","type":"function"},{"inputs":[],"name":"characters","outputs":[{"internalType":"contract Characters","name":"","type":"address"}],"stateMutability":"view","type":"function"},{"inputs":[],"name":"durabilityCost","outputs":[{"internalType":"uint64","name":"","type":"uint64"}],"stateMutability":"view","type":"function"},{"inputs":[],"name":"game","outputs":[{"internalType":"contract CryptoBlades","name":"","type":"address"}],"stateMutability":"view","type":"function"},{"inputs":[{"internalType":"bytes32","name":"role","type":"bytes32"}],"name":"getRoleAdmin","outputs":[{"internalType":"bytes32","name":"","type":"bytes32"}],"stateMutability":"view","type":"function"},{"inputs":[{"internalType":"bytes32","name":"role","type":"bytes32"},{"internalType":"uint256","name":"index","type":"uint256"}],"name":"getRoleMember","outputs":[{"internalType":"address","name":"","type":"address"}],"stateMutability":"view","type":"function"},{"inputs":[{"internalType":"bytes32","name":"role","type":"bytes32"}],"name":"getRoleMemberCount","outputs":[{"internalType":"uint256","name":"","type":"uint256"}],"stateMutability":"view","type":"function"},{"inputs":[{"internalType":"bytes32","name":"role","type":"bytes32"},{"internalType":"address","name":"account","type":"address"}],"name":"grantRole","outputs":[],"stateMutability":"nonpayable","type":"function"},{"inputs":[{"internalType":"bytes32","name":"role","type":"bytes32"},{"internalType":"address","name":"account","type":"address"}],"name":"hasRole","outputs":[{"internalType":"bool","name":"","type":"bool"}],"stateMutability":"view","type":"function"},{"inputs":[],"name":"joinCost","outputs":[{"internalType":"int128","name":"","type":"int128"}],"stateMutability":"view","type":"function"},{"inputs":[{"internalType":"uint256","name":"","type":"uint256"}],"name":"links","outputs":[{"internalType":"address","name":"","type":"address"}],"stateMutability":"view","type":"function"},{"inputs":[{"internalType":"uint256","name":"","type":"uint256"}],"name":"numberParameters","outputs":[{"internalType":"uint256","name":"","type":"uint256"}],"stateMutability":"view","type":"function"},{"inputs":[],"name":"promos","outputs":[{"internalType":"contract Promos","name":"","type":"address"}],"stateMutability":"view","type":"function"},{"inputs":[{"internalType":"uint256","name":"","type":"uint256"}],"name":"raidBossPower","outputs":[{"internalType":"uint256","name":"","type":"uint256"}],"stateMutability":"view","type":"function"},{"inputs":[{"internalType":"uint256","name":"","type":"uint256"}],"name":"raidBossTrait","outputs":[{"internalType":"uint8","name":"","type":"uint8"}],"stateMutability":"view","type":"function"},{"inputs":[{"internalType":"uint256","name":"","type":"uint256"}],"name":"raidEndTime","outputs":[{"internalType":"uint256","name":"","type":"uint256"}],"stateMutability":"view","type":"function"},{"inputs":[],"name":"raidIndex","outputs":[{"internalType":"uint256","name":"","type":"uint256"}],"stateMutability":"view","type":"function"},{"inputs":[{"internalType":"uint256","name":"","type":"uint256"},{"internalType":"address","name":"","type":"address"},{"internalType":"uint256","name":"","type":"uint256"}],"name":"raidParticipantIndices","outputs":[{"internalType":"uint256","name":"","type":"uint256"}],"stateMutability":"view","type":"function"},{"inputs":[{"internalType":"uint256","name":"","type":"uint256"},{"internalType":"uint256","name":"","type":"uint256"}],"name":"raidParticipants","outputs":[{"internalType":"address","name":"owner","type":"address"},{"internalType":"uint256","name":"charID","type":"uint256"},{"internalType":"uint256","name":"wepID","type":"uint256"},{"internalType":"uint24","name":"power","type":"uint24"},{"internalType":"uint24","name":"traitsCWS","type":"uint24"}],"stateMutability":"view","type":"function"},{"inputs":[{"internalType":"uint256","name":"","type":"uint256"}],"name":"raidPlayerPower","outputs":[{"internalType":"uint256","name":"","type":"uint256"}],"stateMutability":"view","type":"function"},{"inputs":[{"internalType":"uint256","name":"","type":"uint256"},{"internalType":"address","name":"","type":"address"}],"name":"raidRewardClaimed","outputs":[{"internalType":"bool","name":"","type":"bool"}],"stateMutability":"view","type":"function"},{"inputs":[{"internalType":"uint256","name":"","type":"uint256"}],"name":"raidSeed","outputs":[{"internalType":"uint256","name":"","type":"uint256"}],"stateMutability":"view","type":"function"},{"inputs":[{"internalType":"uint256","name":"","type":"uint256"}],"name":"raidStatus","outputs":[{"internalType":"uint8","name":"","type":"uint8"}],"stateMutability":"view","type":"function"},{"inputs":[{"internalType":"bytes32","name":"role","type":"bytes32"},{"internalType":"address","name":"account","type":"address"}],"name":"renounceRole","outputs":[],"stateMutability":"nonpayable","type":"function"},{"inputs":[{"internalType":"bytes32","name":"role","type":"bytes32"},{"internalType":"address","name":"account","type":"address"}],"name":"revokeRole","outputs":[],"stateMutability":"nonpayable","type":"function"},{"inputs":[],"name":"staminaCost","outputs":[{"internalType":"uint64","name":"","type":"uint64"}],"stateMutability":"view","type":"function"},{"inputs":[],"name":"weapons","outputs":[{"internalType":"contract Weapons","name":"","type":"address"}],"stateMutability":"view","type":"function"},{"inputs":[],"name":"xpReward","outputs":[{"internalType":"uint16","name":"","type":"uint16"}],"stateMutability":"view","type":"function"},{"inputs":[{"internalType":"address","name":"gameContract","type":"address"}],"name":"initialize","outputs":[],"stateMutability":"nonpayable","type":"function"},{"inputs":[],"name":"doRaidAuto","outputs":[],"stateMutability":"nonpayable","type":"function"},{"inputs":[{"internalType":"uint256","name":"bossPower","type":"uint256"},{"internalType":"uint8","name":"bossTrait","type":"uint8"},{"internalType":"uint256","name":"durationMinutes","type":"uint256"}],"name":"doRaid","outputs":[],"stateMutability":"nonpayable","type":"function"},{"inputs":[{"internalType":"uint256","name":"bossPower","type":"uint256"},{"internalType":"uint8","name":"bossTrait","type":"uint8"},{"internalType":"uint256","name":"durationMinutes","type":"uint256"},{"internalType":"uint256","name":"seed","type":"uint256"}],"name":"doRaidWithSeed","outputs":[],"stateMutability":"nonpayable","type":"function"},{"inputs":[{"internalType":"uint256","name":"bossPower","type":"uint256"},{"internalType":"uint8","name":"bossTrait","type":"uint8"},{"internalType":"uint256","name":"durationMinutes","type":"uint256"}],"name":"startRaid","outputs":[],"stateMutability":"nonpayable","type":"function"},{"inputs":[{"internalType":"uint256","name":"characterID","type":"uint256"}],"name":"joinRaid","outputs":[],"stateMutability":"nonpayable","type":"function"},{"inputs":[{"internalType":"uint256","name":"index","type":"uint256"},{"internalType":"uint8","name":"status","type":"uint8"}],"name":"setRaidStatus","outputs":[],"stateMutability":"nonpayable","type":"function"},{"inputs":[],"name":"completeRaid","outputs":[],"stateMutability":"nonpayable","type":"function"},{"inputs":[{"internalType":"uint192","name":"playerData","type":"uint192"}],"name":"unpackFightData","outputs":[{"internalType":"uint16","name":"charTraitAndVersion","type":"uint16"},{"internalType":"uint24","name":"basePowerLevel","type":"uint24"},{"internalType":"uint64","name":"timestamp","type":"uint64"}],"stateMutability":"pure","type":"function"},{"inputs":[{"internalType":"uint24","name":"playerPower","type":"uint24"},{"internalType":"uint8","name":"charTrait","type":"uint8"},{"internalType":"uint8","name":"bossTrait","type":"uint8"}],"name":"getPlayerFinalPower","outputs":[{"internalType":"uint24","name":"","type":"uint24"}],"stateMutability":"pure","type":"function"},{"inputs":[{"internalType":"uint256","name":"claimRaidIndex","type":"uint256"}],"name":"claimReward","outputs":[],"stateMutability":"nonpayable","type":"function"},{"inputs":[{"internalType":"address","name":"addr","type":"address"},{"internalType":"uint256","name":"index","type":"uint256"}],"name":"registerLink","outputs":[],"stateMutability":"nonpayable","type":"function"},{"inputs":[{"internalType":"uint8","name":"points","type":"uint8"}],"name":"setStaminaPointCost","outputs":[],"stateMutability":"nonpayable","type":"function"},{"inputs":[{"internalType":"uint8","name":"points","type":"uint8"}],"name":"setDurabilityPointCost","outputs":[],"stateMutability":"nonpayable","type":"function"},{"inputs":[{"internalType":"uint256","name":"cents","type":"uint256"}],"name":"setJoinCostInCents","outputs":[],"stateMutability":"nonpayable","type":"function"},{"inputs":[],"name":"getJoinCostInSkill","outputs":[{"internalType":"uint256","name":"","type":"uint256"}],"stateMutability":"view","type":"function"},{"inputs":[{"internalType":"uint16","name":"xp","type":"uint16"}],"name":"setXpReward","outputs":[],"stateMutability":"nonpayable","type":"function"},{"inputs":[{"internalType":"uint256","name":"paramIndex","type":"uint256"},{"internalType":"uint256","name":"value","type":"uint256"}],"name":"setNumberParameter","outputs":[],"stateMutability":"nonpayable","type":"function"},{"inputs":[{"internalType":"uint256","name":"paramIndex","type":"uint256"}],"name":"getNumberParameter","outputs":[{"internalType":"uint256","name":"","type":"uint256"}],"stateMutability":"view","type":"function"},{"inputs":[{"internalType":"uint256","name":"index","type":"uint256"}],"name":"getRaidStatus","outputs":[{"internalType":"uint8","name":"","type":"uint8"}],"stateMutability":"view","type":"function"},{"inputs":[{"internalType":"uint256","name":"index","type":"uint256"}],"name":"getRaidEndTime","outputs":[{"internalType":"uint256","name":"","type":"uint256"}],"stateMutability":"view","type":"function"},{"inputs":[{"internalType":"uint256","name":"index","type":"uint256"}],"name":"getRaidBossTrait","outputs":[{"internalType":"uint8","name":"","type":"uint8"}],"stateMutability":"view","type":"function"},{"inputs":[{"internalType":"uint256","name":"index","type":"uint256"}],"name":"getRaidBossPower","outputs":[{"internalType":"uint256","name":"","type":"uint256"}],"stateMutability":"view","type":"function"},{"inputs":[{"internalType":"uint256","name":"index","type":"uint256"}],"name":"getRaidPlayerPower","outputs":[{"internalType":"uint256","name":"","type":"uint256"}],"stateMutability":"view","type":"function"},{"inputs":[{"internalType":"uint256","name":"index","type":"uint256"}],"name":"getRaidParticipantCount","outputs":[{"internalType":"uint256","name":"","type":"uint256"}],"stateMutability":"view","type":"function"},{"inputs":[{"internalType":"uint256","name":"startIndex","type":"uint256"},{"internalType":"uint256","name":"endIndex","type":"uint256"}],"name":"getEligibleRewardIndexes","outputs":[{"internalType":"uint256[]","name":"","type":"uint256[]"}],"stateMutability":"view","type":"function"},{"inputs":[{"internalType":"uint256","name":"index","type":"uint256"}],"name":"isEligibleForReward","outputs":[{"internalType":"bool","name":"","type":"bool"}],"stateMutability":"view","type":"function"},{"inputs":[],"name":"getParticipatingCharacters","outputs":[{"internalType":"uint256[]","name":"","type":"uint256[]"}],"stateMutability":"view","type":"function"},{"inputs":[],"name":"getParticipatingWeapons","outputs":[{"internalType":"uint256[]","name":"","type":"uint256[]"}],"stateMutability":"view","type":"function"},{"inputs":[{"internalType":"uint256","name":"index","type":"uint256"}],"name":"getAccountsRaiderIndexes","outputs":[{"internalType":"uint256[]","name":"","type":"uint256[]"}],"stateMutability":"view","type":"function"},{"inputs":[{"internalType":"uint256","name":"index","type":"uint256"}],"name":"getAccountsPower","outputs":[{"internalType":"uint256","name":"","type":"uint256"}],"stateMutability":"view","type":"function"},{"inputs":[{"internalType":"uint256","name":"characterID","type":"uint256"}],"name":"canJoinRaid","outputs":[{"internalType":"bool","name":"","type":"bool"}],"stateMutability":"view","type":"function"},{"inputs":[{"internalType":"uint256","name":"characterID","type":"uint256"}],"name":"haveEnoughEnergy","outputs":[{"internalType":"bool","name":"","type":"bool"}],"stateMutability":"view","type":"function"},{"inputs":[],"name":"isRaidStarted","outputs":[{"internalType":"bool","name":"","type":"bool"}],"stateMutability":"view","type":"function"},{"inputs":[{"internalType":"uint256","name":"weaponID","type":"uint256"}],"name":"isWeaponRaiding","outputs":[{"internalType":"bool","name":"","type":"bool"}],"stateMutability":"view","type":"function"},{"inputs":[{"internalType":"uint256","name":"characterID","type":"uint256"}],"name":"isCharacterRaiding","outputs":[{"internalType":"bool","name":"","type":"bool"}],"stateMutability":"view","type":"function"},{"inputs":[{"internalType":"uint256","name":"linkIndex","type":"uint256"}],"name":"getLinkAddress","outputs":[{"internalType":"address","name":"","type":"address"}],"stateMutability":"view","type":"function"},{"inputs":[],"name":"getRaidData","outputs":[{"internalType":"uint256","name":"index","type":"uint256"},{"internalType":"uint256","name":"endTime","type":"uint256"},{"internalType":"uint256","name":"raiderCount","type":"uint256"},{"internalType":"uint256","name":"playerPower","type":"uint256"},{"internalType":"uint256","name":"bossPower","type":"uint256"},{"internalType":"uint8","name":"trait","type":"uint8"},{"internalType":"uint8","name":"status","type":"uint8"},{"internalType":"uint256","name":"joinSkill","type":"uint256"},{"internalType":"uint64","name":"stamina","type":"uint64"},{"internalType":"uint64","name":"durability","type":"uint64"},{"internalType":"uint64","name":"xp","type":"uint64"},{"internalType":"uint256","name":"accountPower","type":"uint256"}],"stateMutability":"view","type":"function"}],"bytecode":"0x608060405234801561001057600080fd5b50614272806100206000396000f3fe608060405234801561001057600080fd5b506004361061046a5760003560e01c80638257e6c91161024c578063c3fe3e2811610146578063d9d453bc116100c3578063e969370611610087578063e969370614610d3b578063f1bcb5c614610d5c578063f76f2b6814610db3578063ff33bf4314610846578063ff71891814610dbb5761046a565b8063d9d453bc14610caa578063e0fb078d14610cc7578063e2511dde14610ce4578063e2c85d9314610d01578063e8d554c914610d1e5761046a565b8063c947f00e1161010a578063c947f00e14610bf1578063ca15c87314610c51578063d054fe0014610c6e578063d070bb5414610c76578063d547741f14610c7e5761046a565b8063c3fe3e2814610b96578063c4941d6014610b9e578063c4d66de814610ba6578063c6fd469014610bcc578063c85a85b714610bd45761046a565b8063a0f30b88116101d4578063ae169a5011610198578063ae169a5014610b11578063b6585e4514610b2e578063b7e1cd8614610b54578063b81241fc14610b5c578063c1be6bda14610b795761046a565b8063a0f30b8814610abd578063a217fddf14610ac5578063a28b9c0914610acd578063a320707314610aec578063aca4828614610af45761046a565b80639010d07c1161021b5780639010d07c14610a3b57806391d1485414610a5e57806392beb91c14610a8a578063934b57d614610aad578063a0bd604014610ab55761046a565b80638257e6c9146109dc578063881d8a40146109f95780638d31c41c14610a165780638e3dc0cf14610a1e5761046a565b8063428d9df91161036857806357d9c95b116102e55780636efbe8bf116102a95780636efbe8bf1461093257806370405c5d1461097d578063736c6dbd1461099a57806378b76e24146109b75780637a597ebd146109bf5761046a565b806357d9c95b1461087b5780635818142514610883578063618f1f85146108a05780636850a6ce146108d257806369318389146108da5761046a565b80634b3521e01161032c5780634b3521e0146108255780634c9f7f2f1461084657806351e717ac1461084e57806353e18e7c146108565780635504d3d2146108735761046a565b8063428d9df91461070657806343fd09041461072657806348437e541461075257806348ea70021461078b5780634a0b4ce4146108085761046a565b806325a153b5116103f657806336568abe116103ba57806336568abe1461066057806336a4535d1461068c57806338616182146106a957806338d785ad146106c65780633aff35c4146106e95761046a565b806325a153b51461059c57806329f83e64146105c85780632d3bc524146105fb5780632f2ff15d1461062c5780633158ad6a146106585761046a565b806313871f0e1161043d57806313871f0e146104f15780631a14506814610516578063242e7bf6146105335780632437322a1461055f578063248a9ca31461057f5761046a565b8063044ca3021461046f5780630828c5211461049d578063087d43f9146104b75780630bffe8fc146104e9575b600080fd5b61049b6004803603606081101561048557600080fd5b5080359060ff6020820135169060400135610dc3565b005b6104a5610e70565b60408051918252519081900360200190f35b6104a5600480360360608110156104cd57600080fd5b508035906001600160a01b036020820135169060400135610e75565b61049b610eb0565b6104f9610f92565b6040805167ffffffffffffffff9092168252519081900360200190f35b6104a56004803603602081101561052c57600080fd5b5035610fa2565b61049b6004803603604081101561054957600080fd5b506001600160a01b038135169060200135610fb7565b61049b6004803603602081101561057557600080fd5b503560ff16610fed565b6104a56004803603602081101561059557600080fd5b5035611011565b61049b600480360360608110156105b257600080fd5b5080359060ff6020820135169060400135611026565b6105e5600480360360208110156105de57600080fd5b503561106c565b6040805160ff9092168252519081900360200190f35b6106186004803603602081101561061157600080fd5b5035611081565b604080519115158252519081900360200190f35b61049b6004803603604081101561064257600080fd5b50803590602001356001600160a01b0316611108565b6104a5611174565b61049b6004803603604081101561067657600080fd5b50803590602001356001600160a01b031661119d565b6105e5600480360360208110156106a257600080fd5b50356111fe565b6104a5600480360360208110156106bf57600080fd5b5035611213565b61049b600480360360408110156106dc57600080fd5b5080359060200135611225565b610618600480360360208110156106ff57600080fd5b503561123f565b61049b6004803603602081101561071c57600080fd5b503560ff1661131c565b6106186004803603604081101561073c57600080fd5b50803590602001356001600160a01b031661134a565b61076f6004803603602081101561076857600080fd5b503561136a565b604080516001600160a01b039092168252519081900360200190f35b610793611385565b604080519c8d5260208d019b909b528b8b019990995260608b019790975260808a019590955260ff93841660a08a01529190921660c088015260e087019190915267ffffffffffffffff9081166101008701529081166101208601521661014084015261016083015251908190036101800190f35b6106186004803603602081101561081e57600080fd5b5035611434565b61082d6114a9565b60408051600f92830b90920b8252519081900360200190f35b6104a56114b9565b61076f6114be565b6104a56004803603602081101561086c57600080fd5b50356114cd565b6104a56114df565b6105e56114b9565b6104a56004803603602081101561089957600080fd5b5035611501565b61049b600480360360808110156108b657600080fd5b5080359060ff6020820135169060408101359060600135611513565b61049b6115c0565b6108e26115fa565b60408051602080825283518183015283519192839290830191858101910280838360005b8381101561091e578181015183820152602001610906565b505050509050019250505060405180910390f35b6109656004803603606081101561094857600080fd5b5062ffffff8135169060ff60208201358116916040013516611723565b6040805162ffffff9092168252519081900360200190f35b6104a56004803603602081101561099357600080fd5b503561175a565b610618600480360360208110156109b057600080fd5b503561176c565b610618611868565b61049b600480360360208110156109d557600080fd5b50356118a1565b6108e2600480360360208110156109f257600080fd5b50356118e0565b61076f60048036036020811015610a0f57600080fd5b503561194a565b6108e2611965565b6104a560048036036020811015610a3457600080fd5b5035611a87565b61076f60048036036040811015610a5157600080fd5b5080359060200135611a99565b61061860048036036040811015610a7457600080fd5b50803590602001356001600160a01b0316611ac0565b6108e260048036036040811015610aa057600080fd5b5080359060200135611ade565b6105e5610e70565b6105e5611b9b565b6105e5611ba0565b6104a5611ba5565b610ad5611baa565b6040805161ffff9092168252519081900360200190f35b6105e5611ba5565b6104a560048036036020811015610b0a57600080fd5b5035611bbb565b61049b60048036036020811015610b2757600080fd5b5035611bcd565b61049b60048036036040811015610b4457600080fd5b508035906020013560ff16611fce565b61076f611ff8565b61049b60048036036020811015610b7257600080fd5b5035612007565b61061860048036036020811015610b8f57600080fd5b5035612607565b61076f6126da565b6104a5611ba0565b61049b60048036036020811015610bbc57600080fd5b50356001600160a01b03166126e9565b6104a5611b9b565b6105e560048036036020811015610bea57600080fd5b50356129c5565b610c1460048036036040811015610c0757600080fd5b50803590602001356129da565b604080516001600160a01b03909616865260208601949094528484019290925262ffffff9081166060850152166080830152519081900360a00190f35b6104a560048036036020811015610c6757600080fd5b5035612a37565b6104f9612a4e565b61076f612a65565b61049b60048036036040811015610c9457600080fd5b50803590602001356001600160a01b0316612a74565b6104a560048036036020811015610cc057600080fd5b5035612acd565b6104a560048036036020811015610cdd57600080fd5b5035612adf565b6104a560048036036020811015610cfa57600080fd5b5035612af1565b6104a560048036036020811015610d1757600080fd5b5035612b03565b6105e560048036036020811015610d3457600080fd5b5035612b7c565b61049b60048036036020811015610d5157600080fd5b503561ffff16612b91565b610d8260048036036020811015610d7257600080fd5b50356001600160c01b0316612bbb565b6040805161ffff909416845262ffffff909216602084015267ffffffffffffffff1682820152519081900360600190f35b6104a5612bdc565b6104a5612c6a565b610dcb612c70565b606a80546000908152606b60209081526040808320805460ff1990811660011790915584548452606f835281842088905584548452606e8352818420805460ff891692168217905584548452606c83529281902042603c87020190819055935481519384529183018790528281018490525190917f88b3d009b82cefd3c4b19ccc376acc25d432469fca3c5a3effaa101e8997dd15919081900360600190a250505050565b600481565b60726020528260005260406000206020528160005260406000208181548110610e9a57fe5b9060005260206000200160009250925050505481565b610eb8612c70565b60408051600019430140602080830191909152825180830382018152828401808552815191830191909120606a5460009081526070845285812054701093d4d4d413d5d15497d4115490d15395607a1b90935285519485900360510190942084526075909252928220549092610f4291610f33906064612cdb565b600f0b9063ffffffff612d1216565b600160005260756020527feb79622860583465ba0fa298cf2c34dc562a8c4a7eddc9cb6176342e350cc83954909150600383169080610f8057506101e05b610f8c83838387611513565b50505050565b60695467ffffffffffffffff1681565b6000818152607560205260409020545b919050565b610fbf612c70565b600090815260746020526040902080546001600160a01b0319166001600160a01b0392909216919091179055565b610ff5612c70565b6069805467ffffffffffffffff191660ff909216919091179055565b60009081526033602052604090206002015490565b61102e612c70565b6110678383836001430340604051602001808281526020019150506040516020818303038152906040528051906020012060001c611513565b505050565b6000908152606e602052604090205460ff1690565b606654604080516302e9ec9d60e11b815260048101849052905160009283926001600160a01b03909116916305d3d93a91602480820192602092909190829003018186803b1580156110d257600080fd5b505afa1580156110e6573d6000803e3d6000fd5b505050506040513d60208110156110fc57600080fd5b505160ff161192915050565b60008281526033602052604090206002015461112b90611126612d7a565b611ac0565b6111665760405162461bcd60e51b815260040180806020018281038252602f8152602001806140ee602f913960400191505060405180910390fd5b6111708282612d7e565b5050565b60408051701093d4d4d413d5d15497d4115490d15395607a1b8152905190819003601101902081565b6111a5612d7a565b6001600160a01b0316816001600160a01b0316146111f45760405162461bcd60e51b815260040180806020018281038252602f81526020018061420e602f913960400191505060405180910390fd5b6111708282612ded565b606e6020526000908152604090205460ff1681565b60706020526000908152604090205481565b61122d612c70565b60009182526075602052604090912055565b606a5460009081526072602090815260408083203384528252808320805482518185028101850190935280835260609383018282801561129e57602002820191906000526020600020905b81548152602001906001019080831161128a575b50939450600093505050505b8151811015611312578360716000606a5481526020019081526020016000208383815181106112d557fe5b6020026020010151815481106112e757fe5b906000526020600020906004020160010154141561130a57600192505050610fb2565b6001016112aa565b5060009392505050565b611324612c70565b6068805467ffffffffffffffff60a01b191660ff92909216600160a01b02919091179055565b607360209081526000928352604080842090915290825290205460ff1681565b6000908152607460205260409020546001600160a01b031690565b606a546000818152606c6020526040812054908080808080808080806113aa8c61175a565b99506113b7606a54612af1565b98506113c4606a54611bbb565b97506113d1606a5461106c565b96506113de606a54612b7c565b95506113e8612bdc565b606854606954606a54929750600160a01b90910467ffffffffffffffff908116965081169450600160c01b900461ffff16925061142490612b03565b9050909192939495969798999a9b565b6000818152606b602052604081205460ff166002811480611458575060ff81166003145b801561147c5750600083815260726020908152604080832033845290915290205415155b80156114a25750600083815260736020908152604080832033845290915290205460ff16155b9392505050565b606954600160401b9004600f0b81565b600181565b6068546001600160a01b031681565b606c6020526000908152604090205481565b604080516923a0a6a2afa0a226a4a760b11b8152905190819003600a01902081565b60756020526000908152604090205481565b61151b612c70565b606a546000908152606b602052604090205460ff1660041415611573576040805162461bcd60e51b815260206004820152600b60248201526a14985a59081c185d5cd95960aa1b604482015290519081900360640190fd5b606a546000908152606b602052604090205460ff1660011480156115a75750606a5460009081526071602052604090205415155b156115b5576115b581612e5c565b610f8c848484610dc3565b6115c8612c70565b6040805160001943014060208083019190915282518083038201815291830190925280519101206115f890612e5c565b565b606a546000908152607260209081526040808320338452825291829020805483518184028101840190945280845260609384939092919083018282801561166057602002820191906000526020600020905b81548152602001906001019080831161164c575b505050505090506060815167ffffffffffffffff8111801561168157600080fd5b506040519080825280602002602001820160405280156116ab578160200160208202803683370190505b50905060005b825181101561171c57606a54600090815260716020526040902083518490839081106116d957fe5b6020026020010151815481106116eb57fe5b90600052602060002090600402016002015482828151811061170957fe5b60209081029190910101526001016116b1565b5091505090565b600061172f83836130e7565b156117525761174b8462ffffff16610f336104336103e8612cdb565b90506114a2565b509192915050565b60009081526071602052604090205490565b60046000818152607460209081527fc936dcc6265b75bdc3b2c477a81ee1e9fc72332de4bacee98f527df3e3a9e833546066546040805163695d4da560e01b81526001600160a01b039283169681019690965260248601879052600160448701525193948594919092169263695d4da59260648082019391829003018186803b1580156117f857600080fd5b505afa15801561180c573d6000803e3d6000fd5b505050506040513d602081101561182257600080fd5b5051905061182e611868565b801561183e575061183e83611081565b8015611850575061184e8361123f565b155b80156114a2575061186081612607565b159392505050565b606a546000908152606b602052604081205460ff16600114801561189c5750606a546000908152606c602052604090205442105b905090565b6118a9612c70565b6118b4816064612cdb565b606960086101000a8154816001600160801b030219169083600f0b6001600160801b0316021790555050565b600081815260726020908152604080832033845282529182902080548351818402810184019094528084526060939283018282801561193e57602002820191906000526020600020905b81548152602001906001019080831161192a575b50505050509050919050565b6074602052600090815260409020546001600160a01b031681565b606a54600090815260726020908152604080832033845282529182902080548351818402810184019094528084526060938493909291908301828280156119cb57602002820191906000526020600020905b8154815260200190600101908083116119b7575b505050505090506060815167ffffffffffffffff811180156119ec57600080fd5b50604051908082528060200260200182016040528015611a16578160200160208202803683370190505b50905060005b825181101561171c57606a5460009081526071602052604090208351849083908110611a4457fe5b602002602001015181548110611a5657fe5b906000526020600020906004020160010154828281518110611a7457fe5b6020908102919091010152600101611a1c565b606f6020526000908152604090205481565b6000828152603360205260408120611ab7908363ffffffff61310a16565b90505b92915050565b6000828152603360205260408120611ab7908363ffffffff61311616565b60606000835b838111611b0857611af481611434565b15611b00576001909101905b600101611ae4565b5060608167ffffffffffffffff81118015611b2257600080fd5b50604051908082528060200260200182016040528015611b4c578160200160208202803683370190505b5090506000855b858111611b9057611b6381611434565b15611b885780838380600101945081518110611b7b57fe5b6020026020010181815250505b600101611b53565b509095945050505050565b600381565b600281565b600081565b606954600160c01b900461ffff1681565b6000908152606f602052604090205490565b6000818152606b602052604090205460ff166002148080611bff57506000828152606b602052604090205460ff166003145b611c40576040805162461bcd60e51b815260206004820152600d60248201526c2930b4b2103737ba1037bb32b960991b604482015290519081900360640190fd5b600082815260736020908152604080832033845290915290205460ff1615611ca1576040805162461bcd60e51b815260206004820152600f60248201526e105b1c9958591e4818db185a5b5959608a1b604482015290519081900360640190fd5b6000828152607260209081526040808320338452825291829020805483518184028101840190945280845260609392830182828015611cff57602002820191906000526020600020905b815481526020019060010190808311611ceb575b505050505090506000815111611d465760405162461bcd60e51b81526004018080602001828103825260248152602001806141446024913960400191505060405180910390fd5b60008381526071602052604081205460029004600101905b8251811015611f6d576000838281518110611d7557fe5b60200260200101519050611d8761409d565b6000878152607160205260409020805483908110611da157fe5b600091825260208083206040805160a081018252600490940290910180546001600160a01b031684526001810154928401929092526002820154908301526003015462ffffff808216606084015263010000009091041660808201529150611e61858410611e1857611e13600061312b565b611e48565b611e48611e2d8588038863ffffffff612cdb16565b611e396001600a612cdb565b600f0b9063ffffffff61314916565b611e52600161312b565b600f0b9063ffffffff61318016565b90508615611ebd57611ebd8884611eb8611e90866060015162ffffff1686600f0b612d1290919063ffffffff16565b60008d81526071602090815260408083205460709092529091205481611eb257fe5b04612cdb565b6131b3565b60665460208301516069546001600160a01b039092169163da1f8e7791908a90611ef790600f87900b90600160c01b900461ffff16612d12565b604080516001600160e01b031960e087901b1681526004810194909452911515602484015261ffff16604483015251606480830192600092919082900301818387803b158015611f4657600080fd5b505af1158015611f5a573d6000803e3d6000fd5b505060019095019450611d5e9350505050565b5060008481526073602090815260408083203380855290835292819020805460ff1916600117905584518151908152905187927f24b5efa61dd1cfc659205a97fb8ed868f3cb8c81922bab2b96423e5de1de2cb7928290030190a350505050565b611fd6612c70565b6000918252606b6020526040909120805460ff191660ff909216919091179055565b6067546001600160a01b031681565b606a546000908152606b602052604090205460ff16600114612070576040805162461bcd60e51b815260206004820152601b60248201527f43616e6e6f74206a6f696e2072616964207269676874206e6f77210000000000604482015290519081900360640190fd5b606a546000908152606c602052604090205442106120bf5760405162461bcd60e51b81526004018080602001828103825260218152602001806141ed6021913960400191505060405180910390fd5b60046000818152607460209081527fc936dcc6265b75bdc3b2c477a81ee1e9fc72332de4bacee98f527df3e3a9e833546066546040805163695d4da560e01b81526001600160a01b0392831696810196909652602486018790526001604487015251939491169263695d4da592606480840193919291829003018186803b15801561214957600080fd5b505afa15801561215d573d6000803e3d6000fd5b505050506040513d602081101561217357600080fd5b5051606a546000908152607260209081526040808320338452825291829020805483518184028101840190945280845293945060609390918301828280156121da57602002820191906000526020600020905b8154815260200190600101908083116121c6575b50939450600093505050505b81518110156122fd578260716000606a54815260200190815260200160002083838151811061221157fe5b60200260200101518154811061222357fe5b90600052602060002090600402016002015414156122725760405162461bcd60e51b815260040180806020018281038252602781526020018061411d6027913960400191505060405180910390fd5b8360716000606a54815260200190815260200160002083838151811061229457fe5b6020026020010151815481106122a657fe5b90600052602060002090600402016001015414156122f55760405162461bcd60e51b81526004018080602001828103825260278152602001806141986027913960400191505060405180910390fd5b6001016121e6565b5060665460685460408051634946e9cb60e01b815233600482015260248101879052600160a01b90920460ff16604483015260016064830152600060848301819052815190936001600160a01b031692634946e9cb9260a480830193919282900301818787803b15801561237057600080fd5b505af1158015612384573d6000803e3d6000fd5b505050506040513d604081101561239a57600080fd5b50602090810151606a80546000908152606e845260408082205460708652818320805462ffffff60ff90931687901c83811691820190925585548086526072895284862033808852908a5285872091875260718a52858720548254600181810185559389528b8920015596548652848620855160a081018752978852878a018e81529588018d81526060890193845260808901888152825480850184559289529a88209851600490920290980180546001600160a01b03929092166001600160a01b0319909216919091178155945190850155945160028401559351600390920180549651821663010000000265ffffff000000199390921662ffffff199097169690961791909116179093556069549193509190600160401b9004600f90810b900b8112156125bc5760655460695460408051630a8a921560e01b8152600160401b909204600f90810b810b900b6004830152516001600160a01b0390921691630a8a921591602480820192602092909190829003018186803b15801561252157600080fd5b505afa158015612535573d6000803e3d6000fd5b505050506040513d602081101561254b57600080fd5b50516065546040805163466cec3360e01b81523360048201526024810184905290519293506001600160a01b039091169163466cec339160448082019260009290919082900301818387803b1580156125a357600080fd5b505af11580156125b7573d6000803e3d6000fd5b505050505b606a54604080519182526020820183905280518792899233927fb263b1196da723ec972d211488cb0e401e4eb791510c0d48550166d2f5b2e1b29281900390910190a4505050505050565b606a5460009081526072602090815260408083203384528252808320805482518185028101850190935280835260609383018282801561266657602002820191906000526020600020905b815481526020019060010190808311612652575b50939450600093505050505b8151811015611312578360716000606a54815260200190815260200160002083838151811061269d57fe5b6020026020010151815481106126af57fe5b90600052602060002090600402016002015414156126d257600192505050610fb2565b600101612672565b6065546001600160a01b031681565b600054610100900460ff168061270257506127026134e5565b80612710575060005460ff16155b61274b5760405162461bcd60e51b815260040180806020018281038252602e8152602001806141bf602e913960400191505060405180910390fd5b600054610100900460ff16158015612776576000805460ff1961ff0019909116610100171660011790555b61277e6134f6565b612789600033611166565b604080516923a0a6a2afa0a226a4a760b11b8152905190819003600a0190206127b29033611166565b606580546001600160a01b0319166001600160a01b0384811691909117918290556040805163341c2ed560e21b81529051929091169163d070bb5491600480820192602092909190829003018186803b15801561280e57600080fd5b505afa158015612822573d6000803e3d6000fd5b505050506040513d602081101561283857600080fd5b5051606680546001600160a01b0319166001600160a01b0392831617905560655460408051635bf0e6c360e11b81529051919092169163b7e1cd86916004808301926020929190829003018186803b15801561289357600080fd5b505afa1580156128a7573d6000803e3d6000fd5b505050506040513d60208110156128bd57600080fd5b5051606780546001600160a01b0319166001600160a01b0392831617905560655460408051631479c5eb60e21b8152905191909216916351e717ac916004808301926020929190829003018186803b15801561291857600080fd5b505afa15801561292c573d6000803e3d6000fd5b505050506040513d602081101561294257600080fd5b5051606880546001600160a01b0319166001600160a01b039092169190911767ffffffffffffffff60a01b1916601960a31b17905560698054601467ffffffffffffffff199091161779ffffffffffffffffffffffffffffffffffff00000000000000001916600160c81b1790558015611170576000805461ff00191690555050565b606b6020526000908152604090205460ff1681565b607160205281600052604060002081815481106129f357fe5b600091825260209091206004909102018054600182015460028301546003909301546001600160a01b039092169450925062ffffff80821691630100000090041685565b6000818152603360205260408120611aba90613598565b606854600160a01b900467ffffffffffffffff1681565b6066546001600160a01b031681565b600082815260336020526040902060020154612a9290611126612d7a565b6111f45760405162461bcd60e51b81526004018080602001828103825260308152602001806141686030913960400191505060405180910390fd5b6000908152606c602052604090205490565b606d6020526000908152604090205481565b60009081526070602052604090205490565b6000806060612b11846118e0565b905060005b8151811015612b735760008581526071602052604090208251839083908110612b3b57fe5b602002602001015181548110612b4d57fe5b600091825260209091206003600490920201015462ffffff169290920191600101612b16565b50909392505050565b6000908152606b602052604090205460ff1690565b612b99612c70565b6069805461ffff909216600160c01b0261ffff60c01b19909216919091179055565b61ffff811691601082901c62ffffff169160281c67ffffffffffffffff1690565b60655460695460408051630a8a921560e01b8152600160401b909204600f90810b810b900b6004830152516000926001600160a01b031691630a8a9215916024808301926020929190829003018186803b158015612c3957600080fd5b505afa158015612c4d573d6000803e3d6000fd5b505050506040513d6020811015612c6357600080fd5b5051905090565b606a5481565b604080516923a0a6a2afa0a226a4a760b11b8152905190819003600a019020612c999033611ac0565b6115f8576040805162461bcd60e51b815260206004820152600e60248201526d2737ba1033b0b6b29030b236b4b760911b604482015290519081900360640190fd5b600081612ce757600080fd5b6000612cf384846135a3565b905060016001607f1b036001600160801b0382161115611ab757600080fd5b600081612d2157506000611aba565b600083600f0b1215612d3257600080fd5b600f83900b6001600160801b038316810260401c90608084901c026001600160c01b03811115612d6157600080fd5b60401b8119811115612d7257600080fd5b019392505050565b3390565b6000828152603360205260409020612d9c908263ffffffff6136ed16565b1561117057612da9612d7a565b6001600160a01b0316816001600160a01b0316837f2f8788117e7eff1d82e926ec794901d17c78024a50270940304540a733656f0d60405160405180910390a45050565b6000828152603360205260409020612e0b908263ffffffff61370216565b1561117057612e18612d7a565b6001600160a01b0316816001600160a01b0316837ff6391f5c32d9c69d2a47ea670b442974b53935d1edc7fd64eb21e047a839171b60405160405180910390a45050565b606a80546000908152606d6020908152604080832085905583548352606c825280832042905592548252606f815282822054607090915291812054612ea5908290840185613717565b9050600082821015612eb8576003612ebb565b60025b606a546000908152606b60205260409020805460ff191660ff83169081179091559091506002141561309257612eef61409d565b606a54600090815260716020526040902080548681612f0a57fe5b0681548110612f1557fe5b600091825260208083206040805160a081018252600490940290910180546001600160a01b031684526001810154928401929092526002820154908301526003015462ffffff808216606084015263010000009091041660808201529150612f7c8661378d565b60016000908152607460209081527ff83d01c2b52626dc3c2e1555c273eea8900424c2c33f28b73359c960ee7130c154855160408051632769c3d960e11b81526001600160a01b03928316600482015260ff87166024820152604481018d905290519596509394911692634ed387b292606480830193919282900301818787803b15801561300957600080fd5b505af115801561301d573d6000803e3d6000fd5b505050506040513d602081101561303357600080fd5b50518351606a546040805160ff87168152600560648d04066020820181905282519596509486946001600160a01b031693927ff1ad1849e77903836653f1a4bb1d699f530d41fc80964d9d89223ac3ffae72ca928290030190a4505050505b606a546040805160ff841681526020810186905280820185905290517f1a2d794b0b12d2a72c8e17e61187bd8d9dffbe923238d8119def782a90b368af9181900360600190a25050606a805460010190555050565b60008160ff1660048460010160ff16816130fd57fe5b0660ff1614905092915050565b6000611ab783836137e9565b6000611ab7836001600160a01b03841661384d565b6000677fffffffffffffff82111561314257600080fd5b5060401b90565b6000600f83810b9083900b0260401d60016001607f1b03198112801590613177575060016001607f1b038113155b611ab757600080fd5b6000600f83810b9083900b0160016001607f1b03198112801590613177575060016001607f1b03811315611ab757600080fd5b6000838152606d6020908152604080832054815180840191909152808201869052336060808301919091528251808303909101815260809091019091528051910120906132196001613210600f86900b605563ffffffff612d1216565b600f0184613717565b905060148111156132bb57600a820660028110156132425761323d33876000613865565b6132b9565b60048110156132575761323d33876001613865565b600681101561326d5761323d338785600161395f565b80600614156132825761323d33876002613865565b80600714156132975761323d33876001613a43565b80600814156132ac5761323d33876002613a43565b6132b9338785600261395f565b505b60006132e460016132d7600f87900b603263ffffffff612d1216565b6103b60185600101613717565b90506103b6811115613388576014600a840406600881101561330f5761330a3388613b0c565b613386565b80600814156133255761330a338886600461395f565b806009141561333a5761330a33886004613865565b600e8110156133505761330a338886600361395f565b80600e14156133655761330a33886001613bef565b80600f141561337a5761330a33886001613cb8565b61338633886003613865565b505b600061339b60016107d086600201613717565b9050606481116134dc5760328111156133e2576133dd3388886133d8606960189054906101000a900461ffff1661ffff16610f3360196064612cdb565b613d81565b6134dc565b6014811115613415576133dd3388886133d8606960189054906101000a900461ffff1661ffff16610f3360966064612cdb565b600a811115613449576133dd3388886133d8606960189054906101000a900461ffff1661ffff16610f336101136064612cdb565b600481111561347d576133dd3388886133d8606960189054906101000a900461ffff1661ffff16610f3361020d6064612cdb565b60018111156134b1576133dd3388886133d8606960189054906101000a900461ffff1661ffff16610f3361047e6064612cdb565b6134dc3388886133d8606960189054906101000a900461ffff1661ffff16610f336109606064612cdb565b50505050505050565b60006134f030613e65565b15905090565b600054610100900460ff168061350f575061350f6134e5565b8061351d575060005460ff16155b6135585760405162461bcd60e51b815260040180806020018281038252602e8152602001806141bf602e913960400191505060405180910390fd5b600054610100900460ff16158015613583576000805460ff1961ff0019909116610100171660011790555b8015613595576000805461ff00191690555b50565b6000611aba82613e6b565b6000816135af57600080fd5b60006001600160c01b0384116135d45782604085901b816135cc57fe5b0490506136d9565b60c084811c64010000000081106135ed576020918201911c5b6201000081106135ff576010918201911c5b6101008110613610576008918201911c5b60108110613620576004918201911c5b60048110613630576002918201911c5b6002811061363f576001820191505b60bf820360018603901c6001018260ff0387901b8161365a57fe5b0492506001600160801b0383111561367157600080fd5b608085901c83026001600160801b038616840260c088901c604089901b8281101561369d576001820391505b608084901b929003828110156136b4576001820391505b829003608084901c82146136c457fe5b8881816136cd57fe5b04870196505050505050505b6001600160801b03811115611ab757600080fd5b6000611ab7836001600160a01b038416613e6f565b6000611ab7836001600160a01b038416613eb9565b60008061373b600161372f868863ffffffff613f7f16565b9063ffffffff613fdc16565b6040805160208082018790528251808303820181529183019092528051910120909150600090613771908363ffffffff61403616565b9050613783818763ffffffff613fdc16565b9695505050505050565b60006064820660018110156137a6576004915050610fb2565b60068110156137b9576003915050610fb2565b60158110156137cc576002915050610fb2565b60388110156137df576001915050610fb2565b6000915050610fb2565b8154600090821061382b5760405162461bcd60e51b81526004018080602001828103825260228152602001806140cc6022913960400191505060405180910390fd5b82600001828154811061383a57fe5b9060005260206000200154905092915050565b60009081526001919091016020526040902054151590565b60036000908152607460209081527f2727f07e5197d97fe18fb9ccc0d66458914dc7168b5c9ef06b237a6115a2dc1d5460408051630348ab1560e51b81526001600160a01b03888116600483015260ff871660248301529151919092169263691562a0926044808201939182900301818787803b1580156138e557600080fd5b505af11580156138f9573d6000803e3d6000fd5b505050506040513d602081101561390f57600080fd5b50516040805160ff85168152905191925082916001600160a01b0387169186917f744138229824ee73e48cb7b6282b7bcd02edd1b2deb5f2c587086a06166b58679181900360200190a450505050565b60675460408051633137ee2960e01b81526001600160a01b03878116600483015260ff85166024830152606480870460448401528281015291516000939290921691633137ee299160848082019260209290919082900301818787803b1580156139c857600080fd5b505af11580156139dc573d6000803e3d6000fd5b505050506040513d60208110156139f257600080fd5b50516040805160ff85168152905191925082916001600160a01b0388169187917f73e022bb57f8f9bfe6397d0dad77344f8d24bf4c7fd0a43dc6e7befb74ac13d99181900360200190a45050505050565b60675460408051637a39589360e01b81526001600160a01b03868116600483015263ffffffff85166024830152600060448301819052606483018190529251931692637a3958939260848084019391929182900301818387803b158015613aa957600080fd5b505af1158015613abd573d6000803e3d6000fd5b50506040805163ffffffff8516815290516001600160a01b03871693508592507fe2d75320517b658d92614beed8079f77d8005b938408da68a0980f9a17443e679181900360200190a3505050565b60026000908152607460209081527f6682ec7d01f27599ce789688f09278cfefbe231146e0a71df5d9a69d5a0414f954604080516335313c2160e11b81526001600160a01b03878116600483015291519190921692636a627842926024808201939182900301818787803b158015613b8357600080fd5b505af1158015613b97573d6000803e3d6000fd5b505050506040513d6020811015613bad57600080fd5b505160405190915081906001600160a01b0385169084907f4f2411592d74df10f92c656a55658c50df2ee0548c0a485fc35cdd1e723235be90600090a4505050565b60675460408051637a39589360e01b81526001600160a01b03868116600483015260006024830181905263ffffffff86166044840152606483018190529251931692637a3958939260848084019391929182900301818387803b158015613c5557600080fd5b505af1158015613c69573d6000803e3d6000fd5b50506040805163ffffffff8516815290516001600160a01b03871693508592507f67527fae1161e68eac66de51f5914708c054438e99db574d2f213ce554c35fd79181900360200190a3505050565b60675460408051637a39589360e01b81526001600160a01b0386811660048301526000602483018190526044830181905263ffffffff861660648401529251931692637a3958939260848084019391929182900301818387803b158015613d1e57600080fd5b505af1158015613d32573d6000803e3d6000fd5b50506040805163ffffffff8516815290516001600160a01b03871693508592507ff4c339fde59e20da6a3d53f483bece04a188f406c5c26dbc1ab6361d8cee173e9181900360200190a3505050565b6000838152607160205260408120805484908110613d9b57fe5b6000918252602082206004918202016001015460665460408051630fc0057560e01b815293840183905261ffff87166024850152519194506001600160a01b031692630fc00575926044808201939182900301818387803b158015613dff57600080fd5b505af1158015613e13573d6000803e3d6000fd5b50506040805161ffff8616815290518493506001600160a01b038916925087917f49a4c899cf558cf38f474066c410dbb59a1a5950a13df9a79eeb884144eeaa40919081900360200190a45050505050565b3b151590565b5490565b6000613e7b838361384d565b613eb157508154600181810184556000848152602080822090930184905584548482528286019093526040902091909155611aba565b506000611aba565b60008181526001830160205260408120548015613f755783546000198083019190810190600090879083908110613eec57fe5b9060005260206000200154905080876000018481548110613f0957fe5b600091825260208083209091019290925582815260018981019092526040902090840190558654879080613f3957fe5b60019003818190600052602060002001600090559055866001016000878152602001908152602001600020600090556001945050505050611aba565b6000915050611aba565b600082821115613fd6576040805162461bcd60e51b815260206004820152601e60248201527f536166654d6174683a207375627472616374696f6e206f766572666c6f770000604482015290519081900360640190fd5b50900390565b600082820183811015611ab7576040805162461bcd60e51b815260206004820152601b60248201527f536166654d6174683a206164646974696f6e206f766572666c6f770000000000604482015290519081900360640190fd5b600080821161408c576040805162461bcd60e51b815260206004820152601860248201527f536166654d6174683a206d6f64756c6f206279207a65726f0000000000000000604482015290519081900360640190fd5b81838161409557fe5b069392505050565b6040805160a0810182526000808252602082018190529181018290526060810182905260808101919091529056fe456e756d657261626c655365743a20696e646578206f7574206f6620626f756e6473416363657373436f6e74726f6c3a2073656e646572206d75737420626520616e2061646d696e20746f206772616e745468697320776561706f6e20697320616c7265616479207573656420696e2074686520726169644e6f6e65206f6620796f7572206368617261637465727320706172746963697061746564416363657373436f6e74726f6c3a2073656e646572206d75737420626520616e2061646d696e20746f207265766f6b65546869732063686172616374657220697320616c72656164792070617274696369706174696e67496e697469616c697a61626c653a20636f6e747261637420697320616c726561647920696e697469616c697a6564497420697320746f6f206c61746520746f206a6f696e2074686973207261696421416363657373436f6e74726f6c3a2063616e206f6e6c792072656e6f756e636520726f6c657320666f722073656c66a2646970667358221220174b843e74df7a7eff19ac3a588523258d4427e2f588d27e123ba23b8f439b4964736f6c63430006050033","immutableReferences":{},"source":"pragma solidity ^0.6.0;\n\nimport \"@openzeppelin/contracts-upgradeable/proxy/Initializable.sol\";\nimport \"@openzeppelin/contracts-upgradeable/access/AccessControlUpgradeable.sol\";\nimport \"./cryptoblades.sol\";\nimport \"./characters.sol\";\nimport \"./weapons.sol\";\nimport \"./Promos.sol\";\nimport \"./util.sol\";\nimport \"./items/RaidTrinket.sol\";\nimport \"./items/KeyLootbox.sol\";\nimport \"./items/Junk.sol\";\nimport \"./common.sol\";\nimport \"./EquipmentManager.sol\";\n\n\ncontract Raid1 is Initializable, AccessControlUpgradeable {\n\n    /*\n        Actual raids reimplementation\n        Figured the old contract may have a lot of redundant variables and it's already deployed\n        Maybe the raid interface isn't the way to go\n        Either way it's probably fine to lay out the new one in a single file and compare\n        The idea is to store all participants and raid details using an indexed mapping system\n        And players get to claim their rewards as a derivative of a raid completion seed that\n            a safe verifiable random source will provide (ideally)\n        It may be better to convert the mappings using raidIndex into a struct\n        Need to test gas impact or if stack limits are any different\n    */\n\n    using ABDKMath64x64 for int128;\n    using ABDKMath64x64 for uint256;\n\n    bytes32 public constant GAME_ADMIN = keccak256(\"GAME_ADMIN\");\n\n    uint8 public constant STATUS_UNSTARTED = 0;\n    uint8 public constant STATUS_STARTED = 1;\n    uint8 public constant STATUS_WON = 2;\n    uint8 public constant STATUS_LOST = 3;\n    uint8 public constant STATUS_PAUSED = 4; // in case of emergency\n\n    // leaving link 0 empty intentionally\n    uint256 public constant LINK_TRINKET = 1;\n    uint256 public constant LINK_KEYBOX = 2;\n    uint256 public constant LINK_JUNK = 3;\n    uint256 public constant LINK_EQUIPMENT_MANAGER = 4;\n\n    uint256 public constant NUMBERPARAMETER_AUTO_DURATION = 1;\n    uint256 public constant NUMBERPARAMETER_AUTO_BOSSPOWER_PERCENT = uint256(keccak256(\"BOSSPOWER_PERCENT\"));\n\n    CryptoBlades public game;\n    Characters public characters;\n    Weapons public weapons;\n    Promos public promos;\n\n    struct Raider {\n        address owner;\n        uint256 charID;\n        uint256 wepID;\n        uint24 power;\n        uint24 traitsCWS;//char trait, wep trait, wep statpattern, unused for now\n    }\n\n    uint64 public staminaCost;\n    uint64 public durabilityCost;\n    int128 public joinCost;\n    uint16 public xpReward;\n\n    uint256 public raidIndex;\n    // all (first) keys are raidIndex\n    mapping(uint256 => uint8) public raidStatus;\n    mapping(uint256 => uint256) public raidEndTime;\n    mapping(uint256 => uint256) public raidSeed;\n    mapping(uint256 => uint8) public raidBossTrait;\n    mapping(uint256 => uint256) public raidBossPower;\n    mapping(uint256 => uint256) public raidPlayerPower;\n    mapping(uint256 => Raider[]) public raidParticipants;\n    mapping(uint256 => mapping(address => uint256[])) public raidParticipantIndices;\n    mapping(uint256 => mapping(address => bool)) public raidRewardClaimed;\n\n    // link interface\n    // the idea is to avoid littering the contract with variables for each type of reward\n    mapping(uint256 => address) public links;\n    // parameters to avoid littering the contract with more state vars\n    mapping(uint256 => uint256) public numberParameters;\n\n    event RaidStarted(uint256 indexed raidIndex,\n        uint8 bossTrait,\n        uint256 bossPower,\n        uint256 endTime);\n    event RaidJoined(uint256 raidIndex,\n        address indexed user,\n        uint256 indexed character,\n        uint256 indexed weapon,\n        uint256 skillPaid);\n    event RaidCompleted(uint256 indexed raidIndex,\n        uint8 outcome,\n        uint256 bossRoll,\n        uint256 playerRoll);\n\n    // reward specific events for analytics\n    event RewardClaimed(uint256 indexed raidIndex, address indexed user, uint256 characterCount);\n    event RewardedXpBonus(uint256 indexed raidIndex, address indexed user, uint256 indexed charID, uint16 amount);\n    event RewardedDustLB(uint256 indexed raidIndex, address indexed user, uint32 amount);\n    event RewardedDust4B(uint256 indexed raidIndex, address indexed user, uint32 amount);\n    event RewardedDust5B(uint256 indexed raidIndex, address indexed user, uint32 amount);\n    event RewardedWeapon(uint256 indexed raidIndex, address indexed user, uint8 stars, uint256 indexed tokenID);\n    event RewardedJunk(uint256 indexed raidIndex, address indexed user, uint8 stars, uint256 indexed tokenID);\n    event RewardedTrinket(uint256 indexed raidIndex, address indexed user, uint8 stars, uint256 effect, uint256 indexed tokenID);\n    event RewardedKeyBox(uint256 indexed raidIndex, address indexed user, uint256 indexed tokenID);\n\n    function initialize(address gameContract) public initializer {\n\n        __AccessControl_init_unchained();\n        _setupRole(DEFAULT_ADMIN_ROLE, msg.sender);\n        _setupRole(GAME_ADMIN, msg.sender);\n\n        game = CryptoBlades(gameContract);\n        characters = Characters(game.characters());\n        weapons = Weapons(game.weapons());\n        promos = Promos(game.promos());\n\n        staminaCost = 200; // 5 mins each, or 16.666 hours\n        durabilityCost = 20; // 50 mins each, or 16.666 hours\n        joinCost = 0;// free (was going to be 10 USD)\n        xpReward = 128 * 2; // 13 hour 20 min worth of fight xp, but we had double xp active on launch\n    }\n\n    modifier restricted() {\n        _restricted();\n        _;\n    }\n\n    function _restricted() internal view {\n        require(hasRole(GAME_ADMIN, msg.sender), \"Not game admin\");\n    }\n\n    function doRaidAuto() public restricted {\n        uint256 seed = uint256(keccak256(abi.encodePacked(blockhash(block.number - 1))));\n        uint256 power = ABDKMath64x64.divu(numberParameters[NUMBERPARAMETER_AUTO_BOSSPOWER_PERCENT],100)\n            .mulu(raidPlayerPower[raidIndex]);\n        uint8 trait = uint8(seed % 4);\n        uint256 duration = numberParameters[NUMBERPARAMETER_AUTO_DURATION];\n        if(duration == 0) {\n            duration = 480; // 8 hrs\n        }\n        doRaidWithSeed(power, trait, duration, seed);\n    }\n\n    function doRaid(uint256 bossPower, uint8 bossTrait, uint256 durationMinutes) public restricted {\n        doRaidWithSeed(bossPower, bossTrait, durationMinutes, uint256(keccak256(abi.encodePacked(blockhash(block.number - 1)))));\n    }\n\n    function doRaidWithSeed(uint256 bossPower, uint8 bossTrait, uint256 durationMinutes, uint256 seed) public restricted {\n        require(raidStatus[raidIndex] != STATUS_PAUSED, \"Raid paused\");\n\n        if(raidStatus[raidIndex] == STATUS_STARTED\n        && raidParticipants[raidIndex].length > 0) {\n            completeRaidWithSeed(seed);\n        }\n        startRaid(bossPower, bossTrait, durationMinutes);\n    }\n\n    function startRaid(uint256 bossPower, uint8 bossTrait, uint256 durationMinutes) public restricted {\n        raidStatus[raidIndex] = STATUS_STARTED;\n        raidBossPower[raidIndex] = bossPower;\n        raidBossTrait[raidIndex] = bossTrait;\n\n        uint256 endTime = now + (durationMinutes * 1 minutes);\n        raidEndTime[raidIndex] = endTime;\n\n        emit RaidStarted(raidIndex, bossTrait, bossPower, endTime);\n    }\n\n    function joinRaid(uint256 characterID) public {\n        // owner and stamina/durability checks in the fightdata functions\n        require(raidStatus[raidIndex] == STATUS_STARTED, \"Cannot join raid right now!\");\n        require(raidEndTime[raidIndex] > now, \"It is too late to join this raid!\");\n\n        uint256 weaponID = EquipmentManager(links[LINK_EQUIPMENT_MANAGER]).equippedSlotID(address(characters), characterID, 1);\n\n        uint256[] memory raiderIndices = raidParticipantIndices[raidIndex][msg.sender];\n        for(uint i = 0; i < raiderIndices.length; i++) {\n            require(raidParticipants[raidIndex][raiderIndices[i]].wepID != weaponID,\n                \"This weapon is already used in the raid\");\n            require(raidParticipants[raidIndex][raiderIndices[i]].charID != characterID,\n                \"This character is already participating\");\n        }\n\n        (/*uint72 miscData*/, uint256 powerData) = characters.getFightDataAndDrainStamina(msg.sender,\n            characterID, uint8(staminaCost), true, 0);\n        \n        uint24 power = uint24(powerData >> raidBossTrait[raidIndex]);\n        raidPlayerPower[raidIndex] += power;\n\n        //uint8 wepStatPattern = weapons.getStatPattern(weaponID);\n        raidParticipantIndices[raidIndex][msg.sender].push(raidParticipants[raidIndex].length);\n        raidParticipants[raidIndex].push(Raider(\n            msg.sender,\n            characterID,\n            weaponID,\n            power,\n            0//uint24(charTrait) | (uint24(weaponTrait) << 8) | ((uint24(wepStatPattern)) << 16)//traitCWS\n        ));\n\n        uint256 joinCostPaid = 0;\n        if(joinCost > 0) {\n            joinCostPaid = game.usdToSkill(joinCost);\n            game.payContractTokenOnly(msg.sender, joinCostPaid);\n        }\n        emit RaidJoined(raidIndex,\n            msg.sender,\n            characterID,\n            weaponID,\n            joinCostPaid);\n    }\n\n    function setRaidStatus(uint256 index, uint8 status) public restricted {\n        // only use if absolutely necessary\n        raidStatus[index] = status;\n    }\n\n    function completeRaid() public restricted {\n        completeRaidWithSeed(uint256(keccak256(abi.encodePacked(blockhash(block.number - 1)))));\n    }\n\n    function completeRaidWithSeed(uint256 seed) internal {\n\n        raidSeed[raidIndex] = seed;\n        raidEndTime[raidIndex] = now;\n\n        uint256 bossPower = raidBossPower[raidIndex];\n        // we could also not include bossPower in the roll to have slightly higher chances of failure\n        // with bosspower added to roll ceiling the likelyhood of a win is: playerPower / bossPower\n        uint256 roll = RandomUtil.randomSeededMinMax(0,raidPlayerPower[raidIndex]+bossPower, seed);\n        uint8 outcome = roll >= bossPower ? STATUS_WON : STATUS_LOST;\n        raidStatus[raidIndex] = outcome;\n\n        if(outcome == STATUS_WON) {\n            // since we pay out exactly one trinket per raid, we might as well do it here\n            Raider memory trinketWinner = raidParticipants[raidIndex][seed % raidParticipants[raidIndex].length];\n            uint8 trinketStars = getTrinketStarsFromSeed(seed);\n            uint tokenID =\n                RaidTrinket(links[LINK_TRINKET]).mint(\n                    trinketWinner.owner, trinketStars, seed\n                );\n            uint256 trinketEffect = (seed / 100) % 5;\n            emit RewardedTrinket(raidIndex, trinketWinner.owner, trinketStars, trinketEffect, tokenID);\n        }\n        emit RaidCompleted(raidIndex, outcome, bossPower, roll);\n        raidIndex++;\n    }\n\n    function getTrinketStarsFromSeed(uint256 seed) private pure returns(uint8 stars) {\n        uint256 roll = seed % 100;\n        if(roll < 1) {\n            return 4; // 5* at 1%\n        }\n        else if(roll < 6) { // 4* at 5%\n            return 3;\n        }\n        else if(roll < 21) { // 3* at 15%\n            return 2;\n        }\n        else if(roll < 56) { // 2* at 35%\n            return 1;\n        }\n        else {\n            return 0; // 1* at 44%\n        }\n    }\n\n    function unpackFightData(uint192 playerData)\n        public pure returns (uint16 charTraitAndVersion, uint24 basePowerLevel, uint64 timestamp) {\n\n        charTraitAndVersion = uint16(playerData & 0xFFFF);\n        basePowerLevel = uint24((playerData >> 16) & 0xFFFFFF);\n        timestamp = uint64((playerData >> 40) & 0xFFFFFFFFFFFFFFFF);\n    }\n\n    function getPlayerFinalPower(uint24 playerPower, uint8 charTrait, uint8 bossTrait) public pure returns(uint24) {\n        if(Common.isTraitEffectiveAgainst(charTrait, bossTrait))\n            return uint24(ABDKMath64x64.divu(1075,1000).mulu(uint256(playerPower)));\n        return playerPower;\n    }\n\n    function claimReward(uint256 claimRaidIndex) public {\n        // NOTE: this function is stack limited\n        //claimRaidIndex can act as a version integer if future rewards change\n        bool victory = raidStatus[claimRaidIndex] == STATUS_WON;\n        require(victory || raidStatus[claimRaidIndex] == STATUS_LOST, \"Raid not over\");\n        require(raidRewardClaimed[claimRaidIndex][msg.sender] == false, \"Already claimed\");\n\n        uint256[] memory raiderIndices = raidParticipantIndices[claimRaidIndex][msg.sender];\n        require(raiderIndices.length > 0, \"None of your characters participated\");\n\n        uint256 earlyBonusCutoff = raidParticipants[claimRaidIndex].length/2+1; // first half of players\n        // we grab raider info (power) and give out xp and raid stats\n        for(uint i = 0; i < raiderIndices.length; i++) {\n            uint256 raiderIndex = raiderIndices[i];\n            Raider memory raider = raidParticipants[claimRaidIndex][raiderIndex];\n            int128 earlyMultiplier = ABDKMath64x64.fromUInt(1).add(\n                raiderIndex < earlyBonusCutoff ?\n                    ABDKMath64x64.divu(1,10).mul( // early bonus, 10%\n                        (earlyBonusCutoff-raiderIndex).divu(earlyBonusCutoff)\n                    )\n                    : ABDKMath64x64.fromUInt(0)\n            );\n            if(victory) {\n                distributeRewards(\n                    claimRaidIndex,\n                    raiderIndex,\n                    ABDKMath64x64.divu(earlyMultiplier.mulu(raider.power),\n                        raidPlayerPower[claimRaidIndex]/raidParticipants[claimRaidIndex].length)\n                );\n            }\n            //weapons.setNftVar(raider.wepID, 1, 0); // NFTVAR_BUSY // no busy flag for raids for now\n            characters.processRaidParticipation(raider.charID, victory, uint16(earlyMultiplier.mulu(xpReward)));\n        }\n\n        raidRewardClaimed[claimRaidIndex][msg.sender] = true;\n        emit RewardClaimed(claimRaidIndex, msg.sender, raiderIndices.length);\n    }\n\n    function distributeRewards(\n        uint256 claimRaidIndex,\n        uint256 raiderIndex,\n        int128 comparedToAverage\n    ) private {\n        // at most 2 types of rewards\n        // common: Lb dust, 1-3 star junk, 3 star wep\n        // rare: 4-5b dust, 4-5 star wep, 4-5 star junk, keybox\n        // chances are a bit generous compared to weapon mints because stamina cost equals lost skill\n        // That being said these rates stink if the oracle is 3x lower than real value.\n        uint256 seed = uint256(keccak256(abi.encodePacked(raidSeed[claimRaidIndex], raiderIndex, uint256(msg.sender))));\n\n        uint256 commonRoll = RandomUtil.randomSeededMinMax(1, 15 + comparedToAverage.mulu(85), seed);\n        if(commonRoll > 20) { // Expected: ~75% (at least 25% at bottom, 90+% past 65% power)\n            uint mod = seed % 10;\n            if(mod < 2) { // 1 star junk, 2 out of 10 (20%)\n                distributeJunk(msg.sender, claimRaidIndex, 0);\n            }\n            else if(mod < 4) { // 2 star junk, 2 out of 10 (20%)\n                distributeJunk(msg.sender, claimRaidIndex, 1);\n            }\n            else if(mod < 6) { // 2 star weapon, 2 out of 10 (20%)\n                distributeWeapon(msg.sender, claimRaidIndex, seed, 1);\n            }\n            else if(mod == 6) { // 3 star junk, 1 out of 10 (10%)\n                distributeJunk(msg.sender, claimRaidIndex, 2);\n            }\n            else if(mod == 7) { // 1x LB Dust, 1 out of 10 (10%)\n                distributeLBDust(msg.sender, claimRaidIndex, 1);\n            }\n            else if(mod == 8) { // 2x LB Dust, 1 out of 10 (10%)\n                distributeLBDust(msg.sender, claimRaidIndex, 2);\n            }\n            else { // 3 star weapon, 1 out of 10 (10%)\n                distributeWeapon(msg.sender, claimRaidIndex, seed, 2);\n            }\n        }\n\n        uint256 rareRoll = RandomUtil.randomSeededMinMax(1, 950 + comparedToAverage.mulu(50), seed + 1);\n        if(rareRoll > 950) { // Expected: ~5% (0.72% at bottom, 15% at top, 8.43% middle)\n            uint mod = (seed / 10) % 20;\n            if(mod < 8) { // key box, 8 out of 20 (40%)\n                distributeKeyBox(msg.sender, claimRaidIndex);\n            }\n            else if(mod == 8) { // 5 star sword, 1 out of 20 (5%)\n                distributeWeapon(msg.sender, claimRaidIndex, seed, 4);\n            }\n            else if(mod == 9) { // 5 star junk, 1 out of 20 (5%)\n                distributeJunk(msg.sender, claimRaidIndex, 4);\n            }\n            else if(mod < 14) { // 4 star sword, 4 out of 20 (20%)\n                distributeWeapon(msg.sender, claimRaidIndex, seed, 3);\n            }\n            else if(mod == 14) { // 1x 4B Dust, 1 out of 20 (5%)\n                distribute4BDust(msg.sender, claimRaidIndex, 1);\n            }\n            else if(mod == 15) { // 1x 5B Dust, 1 out of 20 (5%)\n                distribute5BDust(msg.sender, claimRaidIndex, 1);\n            }\n            else { // 4 star junk, 4 out of 20 (20%)\n                distributeJunk(msg.sender, claimRaidIndex, 3);\n            }\n        }\n\n        uint256 bonusXpRoll = RandomUtil.randomSeededMinMax(1, 2000, seed + 2); // 0.05% per point\n        if(bonusXpRoll <= 100) { // 5% for any bonus xp result\n            if(bonusXpRoll > 50) { // 2.5% for +25% xp\n                distributeBonusXp(msg.sender, claimRaidIndex, raiderIndex, uint16(ABDKMath64x64.divu(25,100).mulu(xpReward)));\n            }\n            else if(bonusXpRoll > 20) { // 1.5% for +150% xp\n                distributeBonusXp(msg.sender, claimRaidIndex, raiderIndex, uint16(ABDKMath64x64.divu(150,100).mulu(xpReward)));\n            }\n            else if(bonusXpRoll > 10) { // 0.5% for +275% xp\n                distributeBonusXp(msg.sender, claimRaidIndex, raiderIndex, uint16(ABDKMath64x64.divu(275,100).mulu(xpReward)));\n            }\n            else if(bonusXpRoll > 4) { // 0.3% for +525% xp\n                distributeBonusXp(msg.sender, claimRaidIndex, raiderIndex, uint16(ABDKMath64x64.divu(525,100).mulu(xpReward)));\n            }\n            else if(bonusXpRoll > 1) { // 0.15% for +1150% xp\n                distributeBonusXp(msg.sender, claimRaidIndex, raiderIndex, uint16(ABDKMath64x64.divu(1150,100).mulu(xpReward)));\n            }\n            else { // 0.05% for +2400% xp\n                distributeBonusXp(msg.sender, claimRaidIndex, raiderIndex, uint16(ABDKMath64x64.divu(2400,100).mulu(xpReward)));\n            }\n        }\n    }\n\n    function distributeBonusXp(address claimant, uint256 claimRaidIndex, uint256 raiderIndex, uint16 amount) private {\n        uint256 charID = raidParticipants[claimRaidIndex][raiderIndex].charID;\n        characters.gainXp(charID, amount);\n        emit RewardedXpBonus(claimRaidIndex, claimant, charID, amount);\n    }\n\n    function distributeKeyBox(address claimant, uint256 claimRaidIndex) private {\n        uint tokenID = KeyLootbox(links[LINK_KEYBOX]).mint(claimant);\n        emit RewardedKeyBox(claimRaidIndex, claimant, tokenID);\n    }\n\n    function distributeJunk(address claimant, uint256 claimRaidIndex, uint8 stars) private {\n        uint tokenID = Junk(links[LINK_JUNK]).mint(claimant, stars);\n        emit RewardedJunk(claimRaidIndex, claimant, stars, tokenID);\n    }\n\n    function distributeWeapon(address claimant, uint256 claimRaidIndex, uint256 seed, uint8 stars) private {\n        uint tokenID = weapons.mintWeaponWithStars(claimant, stars, seed / 100, 100);\n        emit RewardedWeapon(claimRaidIndex, claimant, stars, tokenID);\n    }\n\n    function distributeLBDust(address claimant, uint256 claimRaidIndex, uint32 amount) private {\n        weapons.incrementDustSupplies(claimant, amount, 0, 0);\n        emit RewardedDustLB(claimRaidIndex, claimant, amount);\n    }\n\n    function distribute4BDust(address claimant, uint256 claimRaidIndex, uint32 amount) private {\n        weapons.incrementDustSupplies(claimant, 0, amount, 0);\n        emit RewardedDust4B(claimRaidIndex, claimant, amount);\n    }\n\n    function distribute5BDust(address claimant, uint256 claimRaidIndex, uint32 amount) private {\n        weapons.incrementDustSupplies(claimant, 0, 0, amount);\n        emit RewardedDust5B(claimRaidIndex, claimant, amount);\n    }\n\n    function registerLink(address addr, uint256 index) public restricted {\n        links[index] = addr;\n    }\n\n    function setStaminaPointCost(uint8 points) public restricted {\n        staminaCost = points;\n    }\n\n    function setDurabilityPointCost(uint8 points) public restricted {\n        durabilityCost = points;\n    }\n\n    function setJoinCostInCents(uint256 cents) public restricted {\n        joinCost = ABDKMath64x64.divu(cents, 100);\n    }\n\n    function getJoinCostInSkill() public view returns(uint256) {\n        return game.usdToSkill(joinCost);\n    }\n\n    function setXpReward(uint16 xp) public restricted {\n        xpReward = xp;\n    }\n\n    function setNumberParameter(uint256 paramIndex, uint256 value) public restricted {\n        numberParameters[paramIndex] = value;\n    }\n\n    function getNumberParameter(uint256 paramIndex) public view returns(uint256) {\n        return numberParameters[paramIndex];\n    }\n\n    function getRaidStatus(uint256 index) public view returns(uint8) {\n        return raidStatus[index];\n    }\n\n    function getRaidEndTime(uint256 index) public view returns(uint256) {\n        return raidEndTime[index];\n    }\n\n    function getRaidBossTrait(uint256 index) public view returns(uint8) {\n        return raidBossTrait[index];\n    }\n\n    function getRaidBossPower(uint256 index) public view returns(uint256) {\n        return raidBossPower[index];\n    }\n\n    function getRaidPlayerPower(uint256 index) public view returns(uint256) {\n        return raidPlayerPower[index];\n    }\n\n    function getRaidParticipantCount(uint256 index) public view returns(uint256) {\n        return raidParticipants[index].length;\n    }\n\n    function getEligibleRewardIndexes(uint256 startIndex, uint256 endIndex) public view returns(uint256[] memory) {\n        uint indexCount = 0;\n        for(uint i = startIndex; i <= endIndex; i++) {\n            if(isEligibleForReward(i)) {\n                indexCount++;\n            }\n        }\n        uint256[] memory result = new uint256[](indexCount);\n        uint currentIndex = 0;\n        for(uint i = startIndex; i <= endIndex; i++) {\n            if(isEligibleForReward(i)) {\n                result[currentIndex++] = i;\n            }\n        }\n        return result;\n    }\n\n    function isEligibleForReward(uint256 index) public view returns(bool) {\n        uint8 status = raidStatus[index];\n        return (status == STATUS_WON || status == STATUS_LOST)\n            && raidParticipantIndices[index][msg.sender].length > 0\n            && raidRewardClaimed[index][msg.sender] == false;\n    }\n\n    function getParticipatingCharacters() public view returns(uint256[] memory) {\n        uint256[] memory indices = raidParticipantIndices[raidIndex][msg.sender];\n        uint256[] memory chars = new uint256[](indices.length);\n        for(uint i = 0; i < indices.length; i++) {\n            chars[i] = raidParticipants[raidIndex][indices[i]].charID;\n        }\n        return chars;\n    }\n\n    function getParticipatingWeapons() public view returns(uint256[] memory) {\n        uint256[] memory indices = raidParticipantIndices[raidIndex][msg.sender];\n        uint256[] memory weps = new uint256[](indices.length);\n        for(uint i = 0; i < indices.length; i++) {\n            weps[i] = raidParticipants[raidIndex][indices[i]].wepID;\n        }\n        return weps;\n    }\n\n    function getAccountsRaiderIndexes(uint256 index) public view returns(uint256[] memory){\n        return raidParticipantIndices[index][msg.sender];\n    }\n\n    function getAccountsPower(uint256 index) public view returns(uint256) {\n        uint256 totalAccountPower = 0;\n        uint256[] memory raiderIndexes = getAccountsRaiderIndexes(index);\n        for(uint256 i = 0; i < raiderIndexes.length; i++) {\n            totalAccountPower += raidParticipants[index][raiderIndexes[i]].power;\n        }\n        return totalAccountPower;\n    }\n\n    function canJoinRaid(uint256 characterID) public view returns(bool) {\n        uint256 weaponID = EquipmentManager(links[LINK_EQUIPMENT_MANAGER]).equippedSlotID(address(characters), characterID, 1);\n        return isRaidStarted()\n            && haveEnoughEnergy(characterID)\n            && !isCharacterRaiding(characterID)\n            && !isWeaponRaiding(weaponID);\n    }\n\n    function haveEnoughEnergy(uint256 characterID) public view returns(bool) {\n        return characters.getStaminaPoints(characterID) > 0;\n    }\n\n    function isRaidStarted() public view returns(bool) {\n        return raidStatus[raidIndex] == STATUS_STARTED && raidEndTime[raidIndex] > now;\n    }\n\n    function isWeaponRaiding(uint256 weaponID) public view returns(bool) {\n        uint256[] memory raiderIndices = raidParticipantIndices[raidIndex][msg.sender];\n        for(uint i = 0; i < raiderIndices.length; i++) {\n            if(raidParticipants[raidIndex][raiderIndices[i]].wepID == weaponID) {\n                return true;\n            }\n        }\n\n        return false;\n    }\n\n    function isCharacterRaiding(uint256 characterID) public view returns(bool) {\n        uint256[] memory raiderIndices = raidParticipantIndices[raidIndex][msg.sender];\n        for(uint i = 0; i < raiderIndices.length; i++) {\n            if(raidParticipants[raidIndex][raiderIndices[i]].charID == characterID) {\n                return true;\n            }\n        }\n\n        return false;\n    }\n\n    function getLinkAddress(uint256 linkIndex) public view returns (address) {\n        return links[linkIndex];\n    }\n\n    function getRaidData() public view returns(\n        uint256 index, uint256 endTime, uint256 raiderCount, uint256 playerPower, uint256 bossPower,\n        uint8 trait, uint8 status, uint256 joinSkill, uint64 stamina, uint64 durability, uint64 xp, uint256 accountPower\n    ) {\n        index = raidIndex;\n        endTime = raidEndTime[raidIndex];\n        raiderCount = getRaidParticipantCount(raidIndex);\n        playerPower = getRaidPlayerPower(raidIndex);\n        bossPower = getRaidBossPower(raidIndex);\n        trait = getRaidBossTrait(raidIndex);\n        status = getRaidStatus(raidIndex);\n        joinSkill = getJoinCostInSkill();\n        stamina = staminaCost;\n        durability = durabilityCost;\n        xp = xpReward;\n        accountPower = getAccountsPower(raidIndex);\n    }\n}\n","sourcePath":"/home/runner/work/cryptoblades/cryptoblades/contracts/raid1.sol","compiler":{"name":"solc","version":"0.6.5+commit.f956cc89.Emscripten.clang"},"schemaVersion":"3.3.4","updatedAt":"2023-04-20T05:20:53.481Z","devdoc":{"methods":{"getRoleAdmin(bytes32)":{"details":"Returns the admin role that controls `role`. See {grantRole} and {revokeRole}.     * To change a role's admin, use {_setRoleAdmin}."},"getRoleMember(bytes32,uint256)":{"details":"Returns one of the accounts that have `role`. `index` must be a value between 0 and {getRoleMemberCount}, non-inclusive.     * Role bearers are not sorted in any particular way, and their ordering may change at any point.     * WARNING: When using {getRoleMember} and {getRoleMemberCount}, make sure you perform all queries on the same block. See the following https://forum.openzeppelin.com/t/iterating-over-elements-on-enumerableset-in-openzeppelin-contracts/2296[forum post] for more information."},"getRoleMemberCount(bytes32)":{"details":"Returns the number of accounts that have `role`. Can be used together with {getRoleMember} to enumerate all bearers of a role."},"grantRole(bytes32,address)":{"details":"Grants `role` to `account`.     * If `account` had not been already granted `role`, emits a {RoleGranted} event.     * Requirements:     * - the caller must have ``role``'s admin role."},"hasRole(bytes32,address)":{"details":"Returns `true` if `account` has been granted `role`."},"renounceRole(bytes32,address)":{"details":"Revokes `role` from the calling account.     * Roles are often managed via {grantRole} and {revokeRole}: this function's purpose is to provide a mechanism for accounts to lose their privileges if they are compromised (such as when a trusted device is misplaced).     * If the calling account had been granted `role`, emits a {RoleRevoked} event.     * Requirements:     * - the caller must be `account`."},"revokeRole(bytes32,address)":{"details":"Revokes `role` from `account`.     * If `account` had been granted `role`, emits a {RoleRevoked} event.     * Requirements:     * - the caller must have ``role``'s admin role."}}},"userdoc":{"methods":{}}}