{"contractName":"Shields","abi":[{"anonymous":false,"inputs":[{"indexed":true,"internalType":"address","name":"owner","type":"address"},{"indexed":true,"internalType":"address","name":"approved","type":"address"},{"indexed":true,"internalType":"uint256","name":"tokenId","type":"uint256"}],"name":"Approval","type":"event"},{"anonymous":false,"inputs":[{"indexed":true,"internalType":"address","name":"owner","type":"address"},{"indexed":true,"internalType":"address","name":"operator","type":"address"},{"indexed":false,"internalType":"bool","name":"approved","type":"bool"}],"name":"ApprovalForAll","type":"event"},{"anonymous":false,"inputs":[{"indexed":true,"internalType":"uint256","name":"shield","type":"uint256"},{"indexed":true,"internalType":"address","name":"burner","type":"address"}],"name":"Burned","type":"event"},{"anonymous":false,"inputs":[{"indexed":true,"internalType":"uint256","name":"shield","type":"uint256"},{"indexed":true,"internalType":"address","name":"minter","type":"address"}],"name":"NewShield","type":"event"},{"anonymous":false,"inputs":[{"indexed":true,"internalType":"bytes32","name":"role","type":"bytes32"},{"indexed":true,"internalType":"bytes32","name":"previousAdminRole","type":"bytes32"},{"indexed":true,"internalType":"bytes32","name":"newAdminRole","type":"bytes32"}],"name":"RoleAdminChanged","type":"event"},{"anonymous":false,"inputs":[{"indexed":true,"internalType":"bytes32","name":"role","type":"bytes32"},{"indexed":true,"internalType":"address","name":"account","type":"address"},{"indexed":true,"internalType":"address","name":"sender","type":"address"}],"name":"RoleGranted","type":"event"},{"anonymous":false,"inputs":[{"indexed":true,"internalType":"bytes32","name":"role","type":"bytes32"},{"indexed":true,"internalType":"address","name":"account","type":"address"},{"indexed":true,"internalType":"address","name":"sender","type":"address"}],"name":"RoleRevoked","type":"event"},{"anonymous":false,"inputs":[{"indexed":true,"internalType":"address","name":"from","type":"address"},{"indexed":true,"internalType":"address","name":"to","type":"address"},{"indexed":true,"internalType":"uint256","name":"tokenId","type":"uint256"}],"name":"Transfer","type":"event"},{"inputs":[],"name":"DEFAULT_ADMIN_ROLE","outputs":[{"internalType":"bytes32","name":"","type":"bytes32"}],"stateMutability":"view","type":"function"},{"inputs":[],"name":"GAME_ADMIN","outputs":[{"internalType":"bytes32","name":"","type":"bytes32"}],"stateMutability":"view","type":"function"},{"inputs":[],"name":"NFTVAR_BUSY","outputs":[{"internalType":"uint256","name":"","type":"uint256"}],"stateMutability":"view","type":"function"},{"inputs":[],"name":"NFTVAR_SHIELD_TYPE","outputs":[{"internalType":"uint256","name":"","type":"uint256"}],"stateMutability":"view","type":"function"},{"inputs":[{"internalType":"address","name":"to","type":"address"},{"internalType":"uint256","name":"tokenId","type":"uint256"}],"name":"approve","outputs":[],"stateMutability":"nonpayable","type":"function"},{"inputs":[{"internalType":"address","name":"owner","type":"address"}],"name":"balanceOf","outputs":[{"internalType":"uint256","name":"","type":"uint256"}],"stateMutability":"view","type":"function"},{"inputs":[],"name":"baseURI","outputs":[{"internalType":"string","name":"","type":"string"}],"stateMutability":"view","type":"function"},{"inputs":[],"name":"defenseMultPerPointBasic","outputs":[{"internalType":"int128","name":"","type":"int128"}],"stateMutability":"view","type":"function"},{"inputs":[],"name":"defenseMultPerPointDEF","outputs":[{"internalType":"int128","name":"","type":"int128"}],"stateMutability":"view","type":"function"},{"inputs":[],"name":"defenseMultPerPointMatching","outputs":[{"internalType":"int128","name":"","type":"int128"}],"stateMutability":"view","type":"function"},{"inputs":[{"internalType":"uint256","name":"tokenId","type":"uint256"}],"name":"getApproved","outputs":[{"internalType":"address","name":"","type":"address"}],"stateMutability":"view","type":"function"},{"inputs":[{"internalType":"bytes32","name":"role","type":"bytes32"}],"name":"getRoleAdmin","outputs":[{"internalType":"bytes32","name":"","type":"bytes32"}],"stateMutability":"view","type":"function"},{"inputs":[{"internalType":"bytes32","name":"role","type":"bytes32"},{"internalType":"uint256","name":"index","type":"uint256"}],"name":"getRoleMember","outputs":[{"internalType":"address","name":"","type":"address"}],"stateMutability":"view","type":"function"},{"inputs":[{"internalType":"bytes32","name":"role","type":"bytes32"}],"name":"getRoleMemberCount","outputs":[{"internalType":"uint256","name":"","type":"uint256"}],"stateMutability":"view","type":"function"},{"inputs":[{"internalType":"bytes32","name":"role","type":"bytes32"},{"internalType":"address","name":"account","type":"address"}],"name":"grantRole","outputs":[],"stateMutability":"nonpayable","type":"function"},{"inputs":[{"internalType":"bytes32","name":"role","type":"bytes32"},{"internalType":"address","name":"account","type":"address"}],"name":"hasRole","outputs":[{"internalType":"bool","name":"","type":"bool"}],"stateMutability":"view","type":"function"},{"inputs":[{"internalType":"address","name":"owner","type":"address"},{"internalType":"address","name":"operator","type":"address"}],"name":"isApprovedForAll","outputs":[{"internalType":"bool","name":"","type":"bool"}],"stateMutability":"view","type":"function"},{"inputs":[],"name":"maxDurability","outputs":[{"internalType":"uint256","name":"","type":"uint256"}],"stateMutability":"view","type":"function"},{"inputs":[],"name":"name","outputs":[{"internalType":"string","name":"","type":"string"}],"stateMutability":"view","type":"function"},{"inputs":[{"internalType":"uint256","name":"","type":"uint256"},{"internalType":"uint256","name":"","type":"uint256"}],"name":"nftVars","outputs":[{"internalType":"uint256","name":"","type":"uint256"}],"stateMutability":"view","type":"function"},{"inputs":[{"internalType":"uint256","name":"tokenId","type":"uint256"}],"name":"ownerOf","outputs":[{"internalType":"address","name":"","type":"address"}],"stateMutability":"view","type":"function"},{"inputs":[],"name":"promos","outputs":[{"internalType":"contract Promos","name":"","type":"address"}],"stateMutability":"view","type":"function"},{"inputs":[{"internalType":"bytes32","name":"role","type":"bytes32"},{"internalType":"address","name":"account","type":"address"}],"name":"renounceRole","outputs":[],"stateMutability":"nonpayable","type":"function"},{"inputs":[{"internalType":"bytes32","name":"role","type":"bytes32"},{"internalType":"address","name":"account","type":"address"}],"name":"revokeRole","outputs":[],"stateMutability":"nonpayable","type":"function"},{"inputs":[{"internalType":"address","name":"from","type":"address"},{"internalType":"address","name":"to","type":"address"},{"internalType":"uint256","name":"tokenId","type":"uint256"}],"name":"safeTransferFrom","outputs":[],"stateMutability":"nonpayable","type":"function"},{"inputs":[{"internalType":"address","name":"from","type":"address"},{"internalType":"address","name":"to","type":"address"},{"internalType":"uint256","name":"tokenId","type":"uint256"},{"internalType":"bytes","name":"_data","type":"bytes"}],"name":"safeTransferFrom","outputs":[],"stateMutability":"nonpayable","type":"function"},{"inputs":[],"name":"secondsPerDurability","outputs":[{"internalType":"uint256","name":"","type":"uint256"}],"stateMutability":"view","type":"function"},{"inputs":[{"internalType":"address","name":"operator","type":"address"},{"internalType":"bool","name":"approved","type":"bool"}],"name":"setApprovalForAll","outputs":[],"stateMutability":"nonpayable","type":"function"},{"inputs":[],"name":"shieldBaseMultiplier","outputs":[{"internalType":"int128","name":"","type":"int128"}],"stateMutability":"view","type":"function"},{"inputs":[{"internalType":"bytes4","name":"interfaceId","type":"bytes4"}],"name":"supportsInterface","outputs":[{"internalType":"bool","name":"","type":"bool"}],"stateMutability":"view","type":"function"},{"inputs":[],"name":"symbol","outputs":[{"internalType":"string","name":"","type":"string"}],"stateMutability":"view","type":"function"},{"inputs":[{"internalType":"uint256","name":"index","type":"uint256"}],"name":"tokenByIndex","outputs":[{"internalType":"uint256","name":"","type":"uint256"}],"stateMutability":"view","type":"function"},{"inputs":[{"internalType":"address","name":"owner","type":"address"},{"internalType":"uint256","name":"index","type":"uint256"}],"name":"tokenOfOwnerByIndex","outputs":[{"internalType":"uint256","name":"","type":"uint256"}],"stateMutability":"view","type":"function"},{"inputs":[{"internalType":"uint256","name":"tokenId","type":"uint256"}],"name":"tokenURI","outputs":[{"internalType":"string","name":"","type":"string"}],"stateMutability":"view","type":"function"},{"inputs":[],"name":"totalSupply","outputs":[{"internalType":"uint256","name":"","type":"uint256"}],"stateMutability":"view","type":"function"},{"inputs":[{"internalType":"address","name":"from","type":"address"},{"internalType":"address","name":"to","type":"address"},{"internalType":"uint256","name":"tokenId","type":"uint256"}],"name":"transferFrom","outputs":[],"stateMutability":"nonpayable","type":"function"},{"inputs":[],"name":"initialize","outputs":[],"stateMutability":"nonpayable","type":"function"},{"inputs":[{"internalType":"contract Promos","name":"_promos","type":"address"}],"name":"migrateTo_surprise","outputs":[],"stateMutability":"nonpayable","type":"function"},{"inputs":[{"internalType":"uint256","name":"id","type":"uint256"}],"name":"get","outputs":[{"internalType":"uint16","name":"_properties","type":"uint16"},{"internalType":"uint16","name":"_stat1","type":"uint16"},{"internalType":"uint16","name":"_stat2","type":"uint16"},{"internalType":"uint16","name":"_stat3","type":"uint16"}],"stateMutability":"view","type":"function"},{"inputs":[],"name":"getOwned","outputs":[{"internalType":"uint256[]","name":"","type":"uint256[]"}],"stateMutability":"view","type":"function"},{"inputs":[{"internalType":"address","name":"owner","type":"address"}],"name":"getOwnedBy","outputs":[{"internalType":"uint256[]","name":"","type":"uint256[]"}],"stateMutability":"view","type":"function"},{"inputs":[{"internalType":"uint256","name":"id","type":"uint256"}],"name":"getCosmeticsSeed","outputs":[{"internalType":"uint256","name":"","type":"uint256"}],"stateMutability":"view","type":"function"},{"inputs":[{"internalType":"address","name":"minter","type":"address"},{"internalType":"uint256","name":"shieldType","type":"uint256"},{"internalType":"uint256","name":"seed","type":"uint256"}],"name":"mint","outputs":[{"internalType":"uint256","name":"","type":"uint256"}],"stateMutability":"nonpayable","type":"function"},{"inputs":[{"internalType":"uint256","name":"tokenID","type":"uint256"}],"name":"burn","outputs":[],"stateMutability":"nonpayable","type":"function"},{"inputs":[{"internalType":"uint256[]","name":"tokenIDs","type":"uint256[]"}],"name":"burn","outputs":[],"stateMutability":"nonpayable","type":"function"},{"inputs":[{"internalType":"address","name":"minter","type":"address"},{"internalType":"uint256","name":"stars","type":"uint256"},{"internalType":"uint256","name":"shieldType","type":"uint256"},{"internalType":"uint256","name":"seed","type":"uint256"}],"name":"mintShieldWithStars","outputs":[{"internalType":"uint256","name":"","type":"uint256"}],"stateMutability":"nonpayable","type":"function"},{"inputs":[{"internalType":"address","name":"minter","type":"address"},{"internalType":"uint256","name":"stars","type":"uint256"},{"internalType":"uint256","name":"shieldType","type":"uint256"},{"internalType":"uint32","name":"amount","type":"uint32"},{"internalType":"uint256","name":"seed","type":"uint256"}],"name":"mintShieldsWithStars","outputs":[{"internalType":"uint256[]","name":"tokenIDs","type":"uint256[]"}],"stateMutability":"nonpayable","type":"function"},{"inputs":[{"internalType":"address","name":"minter","type":"address"},{"internalType":"uint256","name":"shieldType","type":"uint256"},{"internalType":"uint16","name":"properties","type":"uint16"},{"internalType":"uint16","name":"stat1","type":"uint16"},{"internalType":"uint16","name":"stat2","type":"uint16"},{"internalType":"uint16","name":"stat3","type":"uint16"},{"internalType":"uint256","name":"cosmeticSeed","type":"uint256"}],"name":"performMintShield","outputs":[{"internalType":"uint256","name":"tokenID","type":"uint256"}],"stateMutability":"nonpayable","type":"function"},{"inputs":[{"internalType":"address","name":"minter","type":"address"},{"internalType":"uint256","name":"metaData","type":"uint256"},{"internalType":"uint256","name":"cosmeticSeed","type":"uint256"},{"internalType":"uint256","name":"tokenID","type":"uint256"}],"name":"performMintShieldDetailed","outputs":[{"internalType":"uint256","name":"","type":"uint256"}],"stateMutability":"nonpayable","type":"function"},{"inputs":[{"internalType":"address","name":"to","type":"address"},{"internalType":"uint256","name":"stars","type":"uint256"},{"internalType":"uint256","name":"shieldType","type":"uint256"}],"name":"mintGiveawayShield","outputs":[{"internalType":"uint256","name":"","type":"uint256"}],"stateMutability":"nonpayable","type":"function"},{"inputs":[{"internalType":"uint256","name":"stars","type":"uint256"},{"internalType":"uint256","name":"seed","type":"uint256"}],"name":"getRandomProperties","outputs":[{"internalType":"uint16","name":"","type":"uint16"}],"stateMutability":"pure","type":"function"},{"inputs":[{"internalType":"uint16","name":"minRoll","type":"uint16"},{"internalType":"uint16","name":"maxRoll","type":"uint16"},{"internalType":"uint256","name":"seed","type":"uint256"},{"internalType":"uint256","name":"seed2","type":"uint256"}],"name":"getRandomStat","outputs":[{"internalType":"uint16","name":"","type":"uint16"}],"stateMutability":"pure","type":"function"},{"inputs":[{"internalType":"uint256","name":"seed","type":"uint256"},{"internalType":"uint256","name":"seed2","type":"uint256"},{"internalType":"uint8","name":"limit","type":"uint8"}],"name":"getRandomCosmetic","outputs":[{"internalType":"uint8","name":"","type":"uint8"}],"stateMutability":"pure","type":"function"},{"inputs":[{"internalType":"uint256","name":"stars","type":"uint256"}],"name":"getStatMinRoll","outputs":[{"internalType":"uint16","name":"","type":"uint16"}],"stateMutability":"pure","type":"function"},{"inputs":[{"internalType":"uint256","name":"stars","type":"uint256"}],"name":"getStatMaxRoll","outputs":[{"internalType":"uint16","name":"","type":"uint16"}],"stateMutability":"pure","type":"function"},{"inputs":[{"internalType":"uint256","name":"stars","type":"uint256"}],"name":"getStatCount","outputs":[{"internalType":"uint8","name":"","type":"uint8"}],"stateMutability":"pure","type":"function"},{"inputs":[{"internalType":"uint256","name":"id","type":"uint256"}],"name":"getProperties","outputs":[{"internalType":"uint16","name":"","type":"uint16"}],"stateMutability":"view","type":"function"},{"inputs":[{"internalType":"uint256[]","name":"ids","type":"uint256[]"}],"name":"getStars","outputs":[{"internalType":"uint8[]","name":"","type":"uint8[]"}],"stateMutability":"view","type":"function"},{"inputs":[{"internalType":"uint256","name":"id","type":"uint256"}],"name":"getStars","outputs":[{"internalType":"uint8","name":"","type":"uint8"}],"stateMutability":"view","type":"function"},{"inputs":[{"internalType":"uint16","name":"properties","type":"uint16"}],"name":"getStarsFromProperties","outputs":[{"internalType":"uint8","name":"","type":"uint8"}],"stateMutability":"pure","type":"function"},{"inputs":[{"internalType":"uint256","name":"id","type":"uint256"}],"name":"getTrait","outputs":[{"internalType":"uint8","name":"","type":"uint8"}],"stateMutability":"view","type":"function"},{"inputs":[{"internalType":"uint16","name":"properties","type":"uint16"}],"name":"getTraitFromProperties","outputs":[{"internalType":"uint8","name":"","type":"uint8"}],"stateMutability":"pure","type":"function"},{"inputs":[{"internalType":"uint256","name":"id","type":"uint256"}],"name":"getStatPattern","outputs":[{"internalType":"uint8","name":"","type":"uint8"}],"stateMutability":"view","type":"function"},{"inputs":[{"internalType":"uint16","name":"properties","type":"uint16"}],"name":"getStatPatternFromProperties","outputs":[{"internalType":"uint8","name":"","type":"uint8"}],"stateMutability":"pure","type":"function"},{"inputs":[{"internalType":"uint8","name":"statPattern","type":"uint8"}],"name":"getStat1Trait","outputs":[{"internalType":"uint8","name":"","type":"uint8"}],"stateMutability":"pure","type":"function"},{"inputs":[{"internalType":"uint8","name":"statPattern","type":"uint8"}],"name":"getStat2Trait","outputs":[{"internalType":"uint8","name":"","type":"uint8"}],"stateMutability":"pure","type":"function"},{"inputs":[{"internalType":"uint8","name":"statPattern","type":"uint8"}],"name":"getStat3Trait","outputs":[{"internalType":"uint8","name":"","type":"uint8"}],"stateMutability":"pure","type":"function"},{"inputs":[{"internalType":"uint256","name":"id","type":"uint256"}],"name":"getStat1","outputs":[{"internalType":"uint16","name":"","type":"uint16"}],"stateMutability":"view","type":"function"},{"inputs":[{"internalType":"uint256","name":"id","type":"uint256"}],"name":"getStat2","outputs":[{"internalType":"uint16","name":"","type":"uint16"}],"stateMutability":"view","type":"function"},{"inputs":[{"internalType":"uint256","name":"id","type":"uint256"}],"name":"getStat3","outputs":[{"internalType":"uint16","name":"","type":"uint16"}],"stateMutability":"view","type":"function"},{"inputs":[{"internalType":"uint256","name":"id","type":"uint256"}],"name":"getDefenseMultiplier","outputs":[{"internalType":"int128","name":"","type":"int128"}],"stateMutability":"view","type":"function"},{"inputs":[{"internalType":"uint16","name":"properties","type":"uint16"},{"internalType":"uint16","name":"stat1","type":"uint16"},{"internalType":"uint16","name":"stat2","type":"uint16"},{"internalType":"uint16","name":"stat3","type":"uint16"},{"internalType":"uint8","name":"trait","type":"uint8"}],"name":"getDefenseMultiplierForTrait","outputs":[{"internalType":"int128","name":"","type":"int128"}],"stateMutability":"view","type":"function"},{"inputs":[{"internalType":"uint256","name":"id","type":"uint256"},{"internalType":"uint8","name":"trait","type":"uint8"}],"name":"getDefenseMultiplierForTrait","outputs":[{"internalType":"int128","name":"","type":"int128"}],"stateMutability":"view","type":"function"},{"inputs":[{"internalType":"uint256","name":"id","type":"uint256"},{"internalType":"uint8","name":"charTrait","type":"uint8"}],"name":"getFightData","outputs":[{"internalType":"int128","name":"","type":"int128"},{"internalType":"int128","name":"","type":"int128"},{"internalType":"uint24","name":"","type":"uint24"},{"internalType":"uint8","name":"","type":"uint8"}],"stateMutability":"view","type":"function"},{"inputs":[{"internalType":"uint256","name":"id","type":"uint256"},{"internalType":"uint8","name":"charTrait","type":"uint8"},{"internalType":"uint8","name":"drainAmount","type":"uint8"}],"name":"getFightDataAndDrainDurability","outputs":[{"internalType":"int128","name":"","type":"int128"},{"internalType":"int128","name":"","type":"int128"},{"internalType":"uint24","name":"","type":"uint24"},{"internalType":"uint8","name":"","type":"uint8"}],"stateMutability":"nonpayable","type":"function"},{"inputs":[{"internalType":"uint256","name":"id","type":"uint256"},{"internalType":"uint8","name":"amount","type":"uint8"}],"name":"drainDurability","outputs":[],"stateMutability":"nonpayable","type":"function"},{"inputs":[{"internalType":"uint256","name":"id","type":"uint256"}],"name":"getDurabilityTimestamp","outputs":[{"internalType":"uint64","name":"","type":"uint64"}],"stateMutability":"view","type":"function"},{"inputs":[{"internalType":"uint256","name":"id","type":"uint256"},{"internalType":"uint64","name":"timestamp","type":"uint64"}],"name":"setDurabilityTimestamp","outputs":[],"stateMutability":"nonpayable","type":"function"},{"inputs":[{"internalType":"uint256","name":"id","type":"uint256"}],"name":"getDurabilityPoints","outputs":[{"internalType":"uint8","name":"","type":"uint8"}],"stateMutability":"view","type":"function"},{"inputs":[{"internalType":"uint64","name":"timestamp","type":"uint64"}],"name":"getDurabilityPointsFromTimestamp","outputs":[{"internalType":"uint8","name":"","type":"uint8"}],"stateMutability":"view","type":"function"},{"inputs":[{"internalType":"uint256","name":"id","type":"uint256"}],"name":"isDurabilityFull","outputs":[{"internalType":"bool","name":"","type":"bool"}],"stateMutability":"view","type":"function"},{"inputs":[],"name":"getDurabilityMaxWait","outputs":[{"internalType":"uint64","name":"","type":"uint64"}],"stateMutability":"pure","type":"function"},{"inputs":[{"internalType":"uint256","name":"shieldID","type":"uint256"},{"internalType":"uint256","name":"nftVar","type":"uint256"}],"name":"getNftVar","outputs":[{"internalType":"uint256","name":"","type":"uint256"}],"stateMutability":"view","type":"function"},{"inputs":[{"internalType":"uint256","name":"shieldID","type":"uint256"},{"internalType":"uint256","name":"nftVar","type":"uint256"},{"internalType":"uint256","name":"value","type":"uint256"}],"name":"setNftVar","outputs":[],"stateMutability":"nonpayable","type":"function"},{"inputs":[{"internalType":"uint256[]","name":"ids","type":"uint256[]"},{"internalType":"uint256","name":"nftVar","type":"uint256"},{"internalType":"uint256","name":"value","type":"uint256"}],"name":"setNftVars","outputs":[],"stateMutability":"nonpayable","type":"function"},{"inputs":[{"internalType":"string","name":"baseUri","type":"string"}],"name":"setBaseURI","outputs":[],"stateMutability":"nonpayable","type":"function"}],"bytecode":"0x608060405234801561001057600080fd5b5061507e806100206000396000f3fe608060405234801561001057600080fd5b50600436106104c25760003560e01c806380aa68cd11610278578063c30275251161015c578063e06efad8116100ce578063ecd4738b11610092578063ecd4738b1461130d578063f5de8f4b14611339578063f8e678a71461135f578063fa9b6e8714611367578063fa9e839814611384578063fbb8ef78146113a1576104c2565b8063e06efad81461126e578063e07608861461128b578063e291298f146112b1578063e985e9c5146112d7578063eacd7df714611305576104c2565b8063d3f6797c11610120578063d3f6797c1461119b578063d547741f146111b8578063d58227c8146111e4578063d7af7ad21461120a578063d9514cb314611230578063dfd371291461124d576104c2565b8063c302752514611115578063c366620b1461111d578063c6a5108814611141578063c87b56dd14611161578063ca15c8731461117e576104c2565b806395d89b41116101f5578063adf04f20116101b9578063adf04f2014610f3e578063af8a29bf14610f5b578063b07f67b014610f63578063b80f55c914610f6b578063b88d4fde1461100c578063baa049f4146110d0576104c2565b806395d89b4114610eb157806395fc2f9214610eb9578063a217fddf14610eeb578063a22cb46514610ef3578063acb586df14610f21576104c2565b80638cfd4e2d1161023c5780638cfd4e2d14610ded5780639010d07c14610df557806391d1485414610e185780639507d39a14610e4457806395d06a0f14610e90576104c2565b806380aa68cd14610d615780638129fc1c14610d84578063821715f314610d8c5780638b9b57bf14610dc45780638c7f724214610de5576104c2565b8063316a7ba5116103aa5780634fbff6a21161031c5780636352211e116102e05780636352211e14610c295780636c0360eb14610c4657806370a0823114610c4e57806372f9360014610c74578063783efb2514610cca5780637f3c8a2814610ced576104c2565b80634fbff6a214610b3857806351e717ac14610b5857806352bc59ea14610b605780635504d3d214610b7d57806355f804b314610b85576104c2565b8063424fa66d1161036e578063424fa66d14610a2357806342842e0e14610a2b57806342966c6814610a6157806344d59e0a14610a7e57806348b1b41c14610ae35780634f6ccce714610b1b576104c2565b8063316a7ba51461086e5780633381c7f41461088b57806336568abe1461091f57806338b003541461094b5780633e68b604146109ec576104c2565b80631b8ca2171161044357806327cd91de1161040757806327cd91de146107935780632a9f22f2146107b05780632c3048a2146107cd5780632c3fc619146107ea5780632f2ff15d146108165780632f745c5914610842576104c2565b80631b8ca217146106d257806323b872dd14610706578063248a9ca31461073c57806324f7bb1b14610759578063262b581414610776576104c2565b80630a724cff1161048a5780630a724cff1461061d578063156e29f61461063d57806316f1daf61461068157806317b199a4146106a757806318160ddd146106ca576104c2565b806301ffc9a7146104c757806306fdde0314610502578063081812fc1461057f578063095ea7b3146105b85780630a583a93146105e6575b600080fd5b6104ee600480360360208110156104dd57600080fd5b50356001600160e01b0319166113ca565b604080519115158252519081900360200190f35b61050a6113ed565b6040805160208082528351818301528351919283929083019185019080838360005b8381101561054457818101518382015260200161052c565b50505050905090810190601f1680156105715780820380516001836020036101000a031916815260200191505b509250505060405180910390f35b61059c6004803603602081101561059557600080fd5b5035611484565b604080516001600160a01b039092168252519081900360200190f35b6105e4600480360360408110156105ce57600080fd5b506001600160a01b0381351690602001356114e6565b005b610607600480360360208110156105fc57600080fd5b503561ffff166115c1565b6040805160ff9092168252519081900360200190f35b6106076004803603602081101561063357600080fd5b503560ff166115c7565b61066f6004803603606081101561065357600080fd5b506001600160a01b0381351690602081013590604001356115e7565b60408051918252519081900360200190f35b6106076004803603602081101561069757600080fd5b50356001600160401b031661165c565b61066f600480360360408110156106bd57600080fd5b508035906020013561169a565b61066f6116b7565b6106ef600480360360208110156106e857600080fd5b50356116c8565b6040805161ffff9092168252519081900360200190f35b6105e46004803603606081101561071c57600080fd5b506001600160a01b038135811691602081013590911690604001356116ed565b61066f6004803603602081101561075257600080fd5b5035611744565b6106076004803603602081101561076f57600080fd5b5035611759565b61066f6004803603602081101561078c57600080fd5b503561176c565b6106ef600480360360208110156107a957600080fd5b50356117b6565b610607600480360360208110156107c657600080fd5b50356117e2565b6106ef600480360360208110156107e357600080fd5b50356117fd565b6105e46004803603604081101561080057600080fd5b50803590602001356001600160401b0316611828565b6105e46004803603604081101561082c57600080fd5b50803590602001356001600160a01b031661185f565b61066f6004803603604081101561085857600080fd5b506001600160a01b0381351690602001356118cb565b6106ef6004803603602081101561088457600080fd5b50356118f3565b6108cf600480360360a08110156108a157600080fd5b506001600160a01b038135169060208101359060408101359063ffffffff606082013516906080013561193f565b60408051602080825283518183015283519192839290830191858101910280838360005b8381101561090b5781810151838201526020016108f3565b505050509050019250505060405180910390f35b6105e46004803603604081101561093557600080fd5b50803590602001356001600160a01b0316611a24565b6108cf6004803603602081101561096157600080fd5b810190602081018135600160201b81111561097b57600080fd5b82018360208201111561098d57600080fd5b803590602001918460208302840111600160201b831117156109ae57600080fd5b919080806020026020016040519081016040528093929190818152602001838360200280828437600092019190915250929550611a85945050505050565b6106ef60048036036080811015610a0257600080fd5b5061ffff813581169160208101359091169060408101359060600135611b21565b61066f611b4a565b6105e460048036036060811015610a4157600080fd5b506001600160a01b03813581169160208101359091169060400135611b4f565b6105e460048036036020811015610a7757600080fd5b5035611b6a565b610aac60048036036060811015610a9457600080fd5b5080359060ff60208201358116916040013516611bc2565b60408051600f95860b860b815293850b90940b602084015262ffffff9091168284015260ff16606082015290519081900360800190f35b61066f60048036036080811015610af957600080fd5b506001600160a01b038135169060208101359060408101359060600135611e10565b61066f60048036036020811015610b3157600080fd5b5035611f26565b61060760048036036020811015610b4e57600080fd5b503560ff16611f42565b61059c611f54565b61060760048036036020811015610b7657600080fd5b5035611f63565b61066f611f84565b6105e460048036036020811015610b9b57600080fd5b810190602081018135600160201b811115610bb557600080fd5b820183602082011115610bc757600080fd5b803590602001918460018302840111600160201b83111715610be857600080fd5b91908080601f016020809104026020016040519081016040528093929190818152602001838380828437600092019190915250929550611fa6945050505050565b61059c60048036036020811015610c3f57600080fd5b5035611fba565b61050a611fe8565b61066f60048036036020811015610c6457600080fd5b50356001600160a01b0316612049565b61066f600480360360e0811015610c8a57600080fd5b506001600160a01b038135169060208101359061ffff60408201358116916060810135821691608082013581169160a08101359091169060c001356120b1565b61066f60048036036040811015610ce057600080fd5b50803590602001356122b0565b6105e460048036036060811015610d0357600080fd5b810190602081018135600160201b811115610d1d57600080fd5b820183602082011115610d2f57600080fd5b803590602001918460208302840111600160201b83111715610d5057600080fd5b9193509150803590602001356122cd565b6106ef60048036036040811015610d7757600080fd5b5080359060200135612327565b6105e4612369565b61066f60048036036080811015610da257600080fd5b506001600160a01b03813516906020810135906040810135906060013561253e565b610dcc6125ca565b60408051600f92830b90920b8252519081900360200190f35b61066f6125da565b610dcc6125e0565b61059c60048036036040811015610e0b57600080fd5b50803590602001356125e9565b6104ee60048036036040811015610e2e57600080fd5b50803590602001356001600160a01b0316612607565b610e6160048036036020811015610e5a57600080fd5b5035612625565b6040805161ffff9586168152938516602085015291841683830152909216606082015290519081900360800190f35b61060760048036036020811015610ea657600080fd5b503561ffff16612643565b61050a61264c565b61066f60048036036060811015610ecf57600080fd5b506001600160a01b0381351690602081013590604001356126ad565b61066f61274f565b6105e460048036036040811015610f0957600080fd5b506001600160a01b0381351690602001351515612754565b61060760048036036020811015610f3757600080fd5b5035612859565b61060760048036036020811015610f5457600080fd5b503561286c565b610dcc61287f565b610dcc61288f565b6105e460048036036020811015610f8157600080fd5b810190602081018135600160201b811115610f9b57600080fd5b820183602082011115610fad57600080fd5b803590602001918460208302840111600160201b83111715610fce57600080fd5b919080806020026020016040519081016040528093929190818152602001838360200280828437600092019190915250929550612898945050505050565b6105e46004803603608081101561102257600080fd5b6001600160a01b03823581169260208101359091169160408201359190810190608081016060820135600160201b81111561105c57600080fd5b82018360208201111561106e57600080fd5b803590602001918460018302840111600160201b8311171561108f57600080fd5b91908080601f0160208091040260200160405190810160405280939291908181526020018383808284376000920191909152509295506128d0945050505050565b610dcc600480360360a08110156110e657600080fd5b50803561ffff90811691602081013582169160408201358116916060810135909116906080013560ff1661292e565b6108cf612b27565b611125612b32565b604080516001600160401b039092168252519081900360200190f35b6106076004803603602081101561115757600080fd5b503560ff16612b38565b61050a6004803603602081101561117757600080fd5b5035612b45565b61066f6004803603602081101561119457600080fd5b5035612dc8565b610dcc600480360360208110156111b157600080fd5b5035612ddf565b6105e4600480360360408110156111ce57600080fd5b50803590602001356001600160a01b0316612ecc565b610aac600480360360408110156111fa57600080fd5b508035906020013560ff16612f25565b6105e46004803603602081101561122057600080fd5b50356001600160a01b0316612fd1565b6111256004803603602081101561124657600080fd5b503561303b565b6106076004803603602081101561126357600080fd5b503561ffff16613056565b6106ef6004803603602081101561128457600080fd5b503561305f565b6105e4600480360360408110156112a157600080fd5b508035906020013560ff1661308b565b6108cf600480360360208110156112c757600080fd5b50356001600160a01b031661319e565b6104ee600480360360408110156112ed57600080fd5b506001600160a01b0381358116916020013516613221565b61066f61324f565b6106076004803603606081101561132357600080fd5b508035906020810135906040013560ff16613254565b610dcc6004803603604081101561134f57600080fd5b508035906020013560ff16613269565b61066f6132b5565b6104ee6004803603602081101561137d57600080fd5b50356132ba565b6106ef6004803603602081101561139a57600080fd5b50356132d2565b6105e4600480360360608110156113b757600080fd5b50803590602081013590604001356132fd565b6001600160e01b0319811660009081526033602052604090205460ff165b919050565b606a8054604080516020601f60026000196101006001881615020190951694909404938401819004810282018101909252828152606093909290918301828280156114795780601f1061144e57610100808354040283529160200191611479565b820191906000526020600020905b81548152906001019060200180831161145c57829003601f168201915b505050505090505b90565b600061148f82613321565b6114ca5760405162461bcd60e51b815260040180806020018281038252602c815260200180614f44602c913960400191505060405180910390fd5b506000908152606860205260409020546001600160a01b031690565b60006114f182611fba565b9050806001600160a01b0316836001600160a01b031614156115445760405162461bcd60e51b8152600401808060200182810382526021815260200180614fc86021913960400191505060405180910390fd5b806001600160a01b0316611556613334565b6001600160a01b03161480611577575061157781611572613334565b613221565b6115b25760405162461bcd60e51b8152600401808060200182810382526038815260200180614e696038913960400191505060405180910390fd5b6115bc8383613338565b505050565b60071690565b600060056115d98360ff1660196133a6565b816115e057fe5b0692915050565b60006115f161340d565b60006064830660018110156116095760049150611644565b600681101561161b5760039150611644565b601581101561162d5760029150611644565b603881101561163f5760019150611644565b600091505b6116508683878761253e565b925050505b9392505050565b600042826001600160401b03161115611677575060006113e8565b610bb86001600160401b0383164203046014811115611694575060145b92915050565b60d160209081526000928352604080842090915290825290205481565b60006116c3606661347a565b905090565b600060c982815481106116d757fe5b60009182526020909120015461ffff1692915050565b6116fe6116f8613334565b82613485565b6117395760405162461bcd60e51b8152600401808060200182810382526031815260200180614fe96031913960400191505060405180910390fd5b6115bc838383613521565b60009081526097602052604090206002015490565b6000611694611767836116c8565b613056565b6000611776614c2a565b60ca838154811061178357fe5b600091825260209182902060408051808201909152600290920201805460ff168252600101549101819052915050919050565b600060c982815481106117c557fe5b600091825260209091200154600160301b900461ffff1692915050565b600060038210156117f5575060016113e8565b506000190190565b600060c9828154811061180c57fe5b60009182526020909120015462010000900461ffff1692915050565b61183061340d565b600091825260cf6020526040909120805467ffffffffffffffff19166001600160401b03909216919091179055565b6000828152609760205260409020600201546118829061187d613334565b612607565b6118bd5760405162461bcd60e51b815260040180806020018281038252602f815260200180614d88602f913960400191505060405180910390fd5b6118c7828261367f565b5050565b6001600160a01b0382166000908152606560205260408120611655908363ffffffff6136ee16565b600081611902575060046113e8565b8160011415611913575060b46113e8565b816002141561192557506101186113e8565b8160031415611936575060c86113e8565b5061010c919050565b606061194961340d565b600885106119885760405162461bcd60e51b8152600401808060200182810382526021815260200180614d456021913960400191505060405180910390fd5b8263ffffffff166001600160401b03811180156119a457600080fd5b506040519080825280602002602001820160405280156119ce578160200160208202803683370190505b50905060005b8363ffffffff16811015611a1a576119ee8787878661253e565b8282815181106119fa57fe5b602002602001018181525050611a1083826136fa565b92506001016119d4565b5095945050505050565b611a2c613334565b6001600160a01b0316816001600160a01b031614611a7b5760405162461bcd60e51b815260040180806020018281038252602f81526020018061501a602f913960400191505060405180910390fd5b6118c78282613726565b60608082516001600160401b0381118015611a9f57600080fd5b50604051908082528060200260200182016040528015611ac9578160200160208202803683370190505b50905060005b8351811015611b1a57611af4848281518110611ae757fe5b602002602001015161286c565b828281518110611b0057fe5b60ff90921660209283029190910190910152600101611acf565b5092915050565b6000611b3f8561ffff168561ffff16611b3a86866136fa565b613795565b90505b949350505050565b600181565b6115bc838383604051806020016040528060008152506128d0565b611b7261340d565b6000611b7d82611fba565b9050611b8882613801565b6040516001600160a01b0382169083907fe861e0b12c283de7ca3f4d68d33f3bfc6fc01e4896cddf05e52b8f2a1e548e2490600090a35050565b600080600080611bd061340d565b600087815260d1602090815260408083206001845290915290205415611c2e576040805162461bcd60e51b815260206004820152600e60248201526d536869656c64206973206275737960901b604482015290519081900360640190fd5b600087815260cf6020526040812054611c4f906001600160401b031661165c565b90508560ff168160ff161015611ca5576040805162461bcd60e51b81526020600482015260166024820152754e6f7420656e6f756768206475726162696c6974792160501b604482015290519081900360640190fd5b60ff808716610bb80290601490831610611d0557806001600160401b0316611ccb612b32565b60008b815260cf60205260409020805467ffffffffffffffff19166001600160401b03928316420393909301909116919091179055611d34565b600089815260cf6020526040902080546001600160401b0380821684011667ffffffffffffffff199091161790555b600060c98a81548110611d4357fe5b60009182526020909120018054909150611dbc90611da690611d899062010000810461ffff908116600160201b8304821601600160301b909204811691909101166138da565b60cb54600160801b9004600f90810b900b9063ffffffff6138f816565b60cb54600f90810b900b9063ffffffff61392f16565b8154611dea9061ffff80821691620100008104821691600160201b8204811691600160301b9004168e61292e565b8254600090611dfc9061ffff16612643565b929d919c509a509098509650505050505050565b6000611e1a61340d565b61ffff601085901c811690602086901c811690603087901c811690604088901c1660ff881686611e5e57611e578a8260ff168486888a60006120b1565b9650611ec8565b600060c98881548110611e6d57fe5b6000918252602090912001805461ffff191661ffff8581169190911763ffff0000191662010000878316021765ffff000000001916600160201b888316021767ffff0000000000001916600160301b91891691909102179055505b600060ca8881548110611ed757fe5b600091825260208083206002929092029091016001019a909a5588815260cf90995250506040909620805467ffffffffffffffff1916426001600160401b031617905550929695505050505050565b600080611f3a60668463ffffffff61396216565b509392505050565b600060056115d98360ff1660056133a6565b60d0546001600160a01b031681565b600081815260cf6020526040812054611694906001600160401b031661165c565b604080516923a0a6a2afa0a226a4a760b11b8152905190819003600a01902081565b611fae61340d565b611fb78161397e565b50565b600061169482604051806060016040528060298152602001614ecb602991396066919063ffffffff61399116565b606d8054604080516020601f60026000196101006001881615020190951694909404938401819004810282018101909252828152606093909290918301828280156114795780601f1061144e57610100808354040283529160200191611479565b60006001600160a01b0382166120905760405162461bcd60e51b815260040180806020018281038252602a815260200180614ea1602a913960400191505060405180910390fd5b6001600160a01b03821660009081526065602052604090206116949061347a565b60006120bb61340d565b5060c980546040805160808101825261ffff898116825288811660208084019182528983168486019081528984166060860190815260018089018a556000998a5295517f66be4f155c5ef2ebd3772b228f2f00681e4ed5826cdb3b1943cc11ad15ad1d288901805495519351925161ffff199096169187169190911763ffff0000191662010000938716939093029290921765ffff000000001916600160201b918616919091021767ffff0000000000001916600160301b93909416929092029290921790558251808401909352848352820185815260ca8054928301815590945290517f42d72674974f694b5f5159593243114d38a5c39c89d6b62fee061ff523240ee16002909202918201805460ff191660ff90921691909117905591517f42d72674974f694b5f5159593243114d38a5c39c89d6b62fee061ff523240ee29092019190915561220d888261399e565b61222e612218612b32565b42906001600160401b031663ffffffff613ad816565b600082815260cf60209081526040808320805467ffffffffffffffff19166001600160401b03959095169490941790935560d1815282822060028352905281812089905590516001600160a01b038a169183917f9f6c6fa7de67d487c8373360cc88ddcf9b3c5a0416d887ede5b0358fad1c71689190a3979650505050505050565b600091825260d16020908152604080842092845291905290205490565b6122d561340d565b60005b83811015612320578160d160008787858181106122f157fe5b6020908102929092013583525081810192909252604090810160009081208782529092529020556001016122d8565b5050505050565b6000600561233d6000607c611b3a8660026136fa565b607f16901b600361235660006003611b3a8760016136fa565b600316901b846007161717905092915050565b600054610100900460ff16806123825750612382613b35565b80612390575060005460ff16155b6123cb5760405162461bcd60e51b815260040180806020018281038252602e815260200180614ef4602e913960400191505060405180910390fd5b600054610100900460ff161580156123f6576000805460ff1961ff0019909116610100171660011790555b6124466040518060400160405280601381526020017210dc9e5c1d1bd09b1859195cc81cda1a595b19606a1b8152506040518060400160405280600381526020016243425360e81b815250613b46565b61244e613c03565b6124596000336118bd565b61246360016138da565b60cb8054600f9290920b6001600160801b03166001600160801b03199092169190911790556124956001610190613ca4565b60cb60106101000a8154816001600160801b030219169083600f0b6001600160801b031602179055506124cd611d8960676064613ca4565b60cc8054600f9290920b6001600160801b03166001600160801b0319909216919091179055612501611d89606b6064613ca4565b60cc60106101000a8154816001600160801b030219169083600f0b6001600160801b031602179055508015611fb7576000805461ff001916905550565b600061254861340d565b600884106125875760405162461bcd60e51b8152600401808060200182810382526021815260200180614d456021913960400191505060405180910390fd5b60008060006125968786613cdb565b9250925092506125be88876125ab8a89612327565b8686866125b98c60036136fa565b6120b1565b98975050505050505050565b60cc54600160801b9004600f0b81565b610bb881565b60cb54600f0b81565b6000828152609760205260408120611655908363ffffffff6136ee16565b6000828152609760205260408120611655908363ffffffff613d6316565b60008060008061263485613d78565b93509350935093509193509193565b600390811c1690565b606b8054604080516020601f60026000196101006001881615020190951694909404938401819004810282018101909252828152606093909290918301828280156114795780601f1061144e57610100808354040283529160200191611479565b60006126b761340d565b816001141561270d576040805162461bcd60e51b815260206004820152601a60248201527f43616e2774206d696e7420666f756e6465727320736869656c64000000000000604482015290519081900360640190fd5b611b428484844260c98054905060405160200180838152602001828152602001925050506040516020818303038152906040528051906020012060001c61253e565b600081565b61275c613334565b6001600160a01b0316826001600160a01b031614156127c2576040805162461bcd60e51b815260206004820152601960248201527f4552433732313a20617070726f766520746f2063616c6c657200000000000000604482015290519081900360640190fd5b80606960006127cf613334565b6001600160a01b03908116825260208083019390935260409182016000908120918716808252919093529120805460ff191692151592909217909155612813613334565b60408051841515815290516001600160a01b0392909216917f17307eab39ab6107e8899845ad3d59bd9653f200f220920489ca2b5937696c319181900360200190a35050565b6000611694612867836116c8565b612643565b600061169461287a836116c8565b6115c1565b60cb54600160801b9004600f0b81565b60cc54600f0b81565b6128a061340d565b60005b81518110156118c7576128c88282815181106128bb57fe5b6020026020010151611b6a565b6001016128a3565b6128e16128db613334565b83613485565b61291c5760405162461bcd60e51b8152600401808060200182810382526031815260200180614fe96031913960400191505060405180910390fd5b61292884848484613d87565b50505050565b60008061293a87613056565b60cb54909150600f0b60ff841661295083612b38565b60ff1614156129a25760cc5461299b9061298a90600160801b9004600f0b61297b61ffff8b166138da565b600f0b9063ffffffff6138f816565b600f83900b9063ffffffff61392f16565b90506129f6565b6129ab82612b38565b60ff16600414156129d15760cc5461299b9061298a90600f0b61297b61ffff8b166138da565b60cb546129f39061298a90600160801b9004600f0b61297b61ffff8b166138da565b90505b8360ff16612a0383611f42565b60ff161415612a355760cc54612a2e9061298a90600160801b9004600f0b61297b61ffff8a166138da565b9050612a89565b612a3e82611f42565b60ff1660041415612a645760cc54612a2e9061298a90600f0b61297b61ffff8a166138da565b60cb54612a869061298a90600160801b9004600f0b61297b61ffff8a166138da565b90505b8360ff16612a96836115c7565b60ff161415612ac85760cc54612ac19061298a90600160801b9004600f0b61297b61ffff89166138da565b9050612b1c565b612ad1826115c7565b60ff1660041415612af75760cc54612ac19061298a90600f0b61297b61ffff89166138da565b60cb54612b199061298a90600160801b9004600f0b61297b61ffff89166138da565b90505b979650505050505050565b60606116c33361319e565b61ea6090565b6000600560ff83166115e0565b6060612b5082613321565b612b8b5760405162461bcd60e51b815260040180806020018281038252602f815260200180614f99602f913960400191505060405180910390fd5b6000828152606c602090815260409182902080548351601f6002600019610100600186161502019093169290920491820184900484028101840190945280845260609392830182828015612c205780601f10612bf557610100808354040283529160200191612c20565b820191906000526020600020905b815481529060010190602001808311612c0357829003601f168201915b505050505090506060612c31611fe8565b9050805160001415612c45575090506113e8565b815115612d065780826040516020018083805190602001908083835b60208310612c805780518252601f199092019160209182019101612c61565b51815160209384036101000a600019018019909216911617905285519190930192850191508083835b60208310612cc85780518252601f199092019160209182019101612ca9565b6001836020036101000a03801982511681845116808217855250505050505090500192505050604051602081830303815290604052925050506113e8565b80612d1085613dd9565b6040516020018083805190602001908083835b60208310612d425780518252601f199092019160209182019101612d23565b51815160209384036101000a600019018019909216911617905285519190930192850191508083835b60208310612d8a5780518252601f199092019160209182019101612d6b565b6001836020036101000a0380198251168184511680821785525050505050509050019250505060405160208183030381529060405292505050919050565b60008181526097602052604081206116949061347a565b6000612de9614c41565b60c98381548110612df657fe5b6000918252602080832060408051608081018252939091015461ffff80821685526201000082048116938501849052600160201b8204811692850192909252600160301b900416606083015260cb54919350600160801b909104600f0b9190612e6490839061297b906138da565b90506000612e7d8361297b866040015161ffff166138da565b90506000612e968461297b876060015161ffff166138da565b60cb54909150612b1c908290612ebd9085908290600f90810b900b8863ffffffff61392f16565b600f0b9063ffffffff61392f16565b600082815260976020526040902060020154612eea9061187d613334565b611a7b5760405162461bcd60e51b8152600401808060200182810382526030815260200180614e396030913960400191505060405180910390fd5b600080600080600060c98781548110612f3a57fe5b60009182526020909120018054909150612f8090611da690611d899062010000810461ffff908116600160201b8304821601600160301b909204811691909101166138da565b8154612fae9061ffff80821691620100008104821691600160201b8204811691600160301b9004168b61292e565b8254600090612fc09061ffff16612643565b929a91995097509095509350505050565b612fdc600033612607565b613019576040805162461bcd60e51b81526020600482015260096024820152682737ba1030b236b4b760b91b604482015290519081900360640190fd5b60d080546001600160a01b0319166001600160a01b0392909216919091179055565b600090815260cf60205260409020546001600160401b031690565b60051c607f1690565b600060c9828154811061306e57fe5b600091825260209091200154600160201b900461ffff1692915050565b61309361340d565b600082815260cf60205260408120546130b4906001600160401b031661165c565b90508160ff168160ff16101561310a576040805162461bcd60e51b81526020600482015260166024820152754e6f7420656e6f756768206475726162696c6974792160501b604482015290519081900360640190fd5b60ff808316610bb8029060149083161061316a57806001600160401b0316613130612b32565b600086815260cf60205260409020805467ffffffffffffffff19166001600160401b03928316420393909301909116919091179055612928565b600084815260cf6020526040902080546001600160401b0380821684011667ffffffffffffffff1990911617905550505050565b6060806131aa83612049565b6001600160401b03811180156131bf57600080fd5b506040519080825280602002602001820160405280156131e9578160200160208202803683370190505b50905060005b8151811015611b1a5761320284826118cb565b82828151811061320e57fe5b60209081029190910101526001016131ef565b6001600160a01b03918216600090815260696020908152604080832093909416825291909152205460ff1690565b600281565b6000611b4260008360ff16611b3a87876136fa565b60008060c9848154811061327957fe5b60009182526020909120018054909150611b429061ffff80821691620100008104821691600160201b8204811691600160301b9004168761292e565b601481565b600060146132c783611f63565b60ff16101592915050565b600060018211156132e657506101906113e8565b81156132f5575061012c6113e8565b5060c8919050565b61330561340d565b600092835260d160209081526040808520938552929052912055565b600061169460668363ffffffff613eb316565b3390565b600081815260686020526040902080546001600160a01b0319166001600160a01b038416908117909155819061336d82611fba565b6001600160a01b03167f8c5be1e5ebec7d5bd14f71427d1e84f3dd0314c0f7b2291e5b200ac8c7c3b92560405160405180910390a45050565b60008082116133fc576040805162461bcd60e51b815260206004820152601a60248201527f536166654d6174683a206469766973696f6e206279207a65726f000000000000604482015290519081900360640190fd5b81838161340557fe5b049392505050565b604080516923a0a6a2afa0a226a4a760b11b8152905190819003600a0190206134369033612607565b613478576040805162461bcd60e51b815260206004820152600e60248201526d2737ba1033b0b6b29030b236b4b760911b604482015290519081900360640190fd5b565b600061169482613ebf565b600061349082613321565b6134cb5760405162461bcd60e51b815260040180806020018281038252602c815260200180614e0d602c913960400191505060405180910390fd5b60006134d683611fba565b9050806001600160a01b0316846001600160a01b031614806135115750836001600160a01b031661350684611484565b6001600160a01b0316145b80611b425750611b428185613221565b826001600160a01b031661353482611fba565b6001600160a01b0316146135795760405162461bcd60e51b8152600401808060200182810382526029815260200180614f706029913960400191505060405180910390fd5b6001600160a01b0382166135be5760405162461bcd60e51b8152600401808060200182810382526024815260200180614de96024913960400191505060405180910390fd5b6135c9838383613ec3565b6135d4600082613338565b6001600160a01b03831660009081526065602052604090206135fc908263ffffffff613ffe16565b506001600160a01b0382166000908152606560205260409020613625908263ffffffff61400a16565b506136386066828463ffffffff61401616565b5080826001600160a01b0316846001600160a01b03167fddf252ad1be2c89b69c2b068fc378daa952ba7f163c4a11628f55a4df523b3ef60405160405180910390a4505050565b600082815260976020526040902061369d908263ffffffff61402c16565b156118c7576136aa613334565b6001600160a01b0316816001600160a01b0316837f2f8788117e7eff1d82e926ec794901d17c78024a50270940304540a733656f0d60405160405180910390a45050565b60006116558383614041565b604080516020808201949094528082019290925280518083038201815260609092019052805191012090565b6000828152609760205260409020613744908263ffffffff6140a516565b156118c757613751613334565b6001600160a01b0316816001600160a01b0316837ff6391f5c32d9c69d2a47ea670b442974b53935d1edc7fd64eb21e047a839171b60405160405180910390a45050565b6000806137b960016137ad868863ffffffff613ad816565b9063ffffffff6140ba16565b60408051602080820187905282518083038201815291830190925280519101209091506000906137ef908363ffffffff61411416565b9050611650818763ffffffff6140ba16565b600061380c82611fba565b905061381a81600084613ec3565b613825600083613338565b6000828152606c60205260409020546002600019610100600184161502019091160415613863576000828152606c6020526040812061386391614c68565b6001600160a01b038116600090815260656020526040902061388b908363ffffffff613ffe16565b5061389d60668363ffffffff61417b16565b5060405182906000906001600160a01b038416907fddf252ad1be2c89b69c2b068fc378daa952ba7f163c4a11628f55a4df523b3ef908390a45050565b6000677fffffffffffffff8211156138f157600080fd5b5060401b90565b6000600f83810b9083900b0260401d60016001607f1b03198112801590613926575060016001607f1b038113155b61165557600080fd5b6000600f83810b9083900b0160016001607f1b03198112801590613926575060016001607f1b0381131561165557600080fd5b60008080806139718686614187565b9097909650945050505050565b80516118c790606d906020840190614cac565b6000611b42848484614202565b6001600160a01b0382166139f9576040805162461bcd60e51b815260206004820181905260248201527f4552433732313a206d696e7420746f20746865207a65726f2061646472657373604482015290519081900360640190fd5b613a0281613321565b15613a54576040805162461bcd60e51b815260206004820152601c60248201527f4552433732313a20746f6b656e20616c7265616479206d696e74656400000000604482015290519081900360640190fd5b613a6060008383613ec3565b6001600160a01b0382166000908152606560205260409020613a88908263ffffffff61400a16565b50613a9b6066828463ffffffff61401616565b5060405181906001600160a01b038416906000907fddf252ad1be2c89b69c2b068fc378daa952ba7f163c4a11628f55a4df523b3ef908290a45050565b600082821115613b2f576040805162461bcd60e51b815260206004820152601e60248201527f536166654d6174683a207375627472616374696f6e206f766572666c6f770000604482015290519081900360640190fd5b50900390565b6000613b40306142cc565b15905090565b600054610100900460ff1680613b5f5750613b5f613b35565b80613b6d575060005460ff16155b613ba85760405162461bcd60e51b815260040180806020018281038252602e815260200180614ef4602e913960400191505060405180910390fd5b600054610100900460ff16158015613bd3576000805460ff1961ff0019909116610100171660011790555b613bdb613c03565b613be36142d2565b613bed838361436f565b80156115bc576000805461ff0019169055505050565b600054610100900460ff1680613c1c5750613c1c613b35565b80613c2a575060005460ff16155b613c655760405162461bcd60e51b815260040180806020018281038252602e815260200180614ef4602e913960400191505060405180910390fd5b600054610100900460ff16158015613c90576000805460ff1961ff0019909116610100171660011790555b8015611fb7576000805461ff001916905550565b600081613cb057600080fd5b6000613cbc8484614454565b905060016001607f1b036001600160801b038216111561165557600080fd5b600080600080613cea866118f3565b90506000613cf7876132d2565b90506000613d04886117e2565b90506000613d1584848a6005611b21565b9050600080600160ff85161115613d3657613d3386868c6003611b21565b91505b60028460ff161115613d5257613d4f86868c6004611b21565b90505b919750955093505050509250925092565b6000611655836001600160a01b03841661459d565b600080600080612634856145b5565b613d92848484613521565b613d9e8484848461462f565b6129285760405162461bcd60e51b8152600401808060200182810382526032815260200180614db76032913960400191505060405180910390fd5b606081613dfe57506040805180820190915260018152600360fc1b60208201526113e8565b8160005b8115613e1657600101600a82049150613e02565b6060816001600160401b0381118015613e2e57600080fd5b506040519080825280601f01601f191660200182016040528015613e59576020820181803683370190505b50859350905060001982015b8315613eaa57600a840660300160f81b82828060019003935081518110613e8857fe5b60200101906001600160f81b031916908160001a905350600a84049350613e65565b50949350505050565b6000611655838361459d565b5490565b60d0546040805163434d82a360e01b81526001600160a01b0386811660048381019190915260248301529151919092169163434d82a3916044808301926020929190829003018186803b158015613f1957600080fd5b505afa158015613f2d573d6000803e3d6000fd5b505050506040513d6020811015613f4357600080fd5b5051158015613fd1575060d0546040805163434d82a360e01b81526001600160a01b0385811660048381019190915260248301529151919092169163434d82a3916044808301926020929190829003018186803b158015613fa357600080fd5b505afa158015613fb7573d6000803e3d6000fd5b505050506040513d6020811015613fcd57600080fd5b5051155b8015613ff55750600081815260d16020908152604080832060018452909152902054155b6115bc57600080fd5b600061165583836147af565b60006116558383614875565b6000611b4284846001600160a01b0385166148bf565b6000611655836001600160a01b038416614875565b815460009082106140835760405162461bcd60e51b8152600401808060200182810382526022815260200180614d666022913960400191505060405180910390fd5b82600001828154811061409257fe5b9060005260206000200154905092915050565b6000611655836001600160a01b0384166147af565b600082820183811015611655576040805162461bcd60e51b815260206004820152601b60248201527f536166654d6174683a206164646974696f6e206f766572666c6f770000000000604482015290519081900360640190fd5b600080821161416a576040805162461bcd60e51b815260206004820152601860248201527f536166654d6174683a206d6f64756c6f206279207a65726f0000000000000000604482015290519081900360640190fd5b81838161417357fe5b069392505050565b60006116558383614956565b8154600090819083106141cb5760405162461bcd60e51b8152600401808060200182810382526022815260200180614f226022913960400191505060405180910390fd5b60008460000184815481106141dc57fe5b906000526020600020906002020190508060000154816001015492509250509250929050565b6000828152600184016020526040812054828161429d5760405162461bcd60e51b81526004018080602001828103825283818151815260200191508051906020019080838360005b8381101561426257818101518382015260200161424a565b50505050905090810190601f16801561428f5780820380516001836020036101000a031916815260200191505b509250505060405180910390fd5b508460000160018203815481106142b057fe5b9060005260206000209060020201600101549150509392505050565b3b151590565b600054610100900460ff16806142eb57506142eb613b35565b806142f9575060005460ff16155b6143345760405162461bcd60e51b815260040180806020018281038252602e815260200180614ef4602e913960400191505060405180910390fd5b600054610100900460ff1615801561435f576000805460ff1961ff0019909116610100171660011790555b613c906301ffc9a760e01b614a2a565b600054610100900460ff16806143885750614388613b35565b80614396575060005460ff16155b6143d15760405162461bcd60e51b815260040180806020018281038252602e815260200180614ef4602e913960400191505060405180910390fd5b600054610100900460ff161580156143fc576000805460ff1961ff0019909116610100171660011790555b825161440f90606a906020860190614cac565b50815161442390606b906020850190614cac565b506144346380ac58cd60e01b614a2a565b614444635b5e139f60e01b614a2a565b613bed63780e9d6360e01b614a2a565b60008161446057600080fd5b60006001600160c01b0384116144855782604085901b8161447d57fe5b049050614589565b60c084811c600160201b811061449d576020918201911c5b6201000081106144af576010918201911c5b61010081106144c0576008918201911c5b601081106144d0576004918201911c5b600481106144e0576002918201911c5b600281106144ef576001820191505b60bf820360018603901c6001018260ff0387901b8161450a57fe5b0492506001600160801b0383111561452157600080fd5b608085901c83026001600160801b038616840260c088901c604089901b8281101561454d576001820391505b608084901b92900382811015614564576001820391505b829003608084901c821461457457fe5b88818161457d57fe5b04870196505050505050505b6001600160801b0381111561165557600080fd5b60009081526001919091016020526040902054151590565b6000806000806145c3614c41565b60c986815481106145d057fe5b600091825260209182902060408051608081018252929091015461ffff8082168085526201000083048216958501869052600160201b83048216938501849052600160301b909204166060909301839052999298509650945092505050565b6000614643846001600160a01b03166142cc565b61464f57506001611b42565b6060614775630a85bd0160e11b614664613334565b88878760405160240180856001600160a01b03166001600160a01b03168152602001846001600160a01b03166001600160a01b0316815260200183815260200180602001828103825283818151815260200191508051906020019080838360005b838110156146dd5781810151838201526020016146c5565b50505050905090810190601f16801561470a5780820380516001836020036101000a031916815260200191505b5095505050505050604051602081830303815290604052906001600160e01b0319166020820180516001600160e01b038381831617835250505050604051806060016040528060328152602001614db7603291396001600160a01b038816919063ffffffff614aae16565b9050600081806020019051602081101561478e57600080fd5b50516001600160e01b031916630a85bd0160e11b1492505050949350505050565b6000818152600183016020526040812054801561486b57835460001980830191908101906000908790839081106147e257fe5b90600052602060002001549050808760000184815481106147ff57fe5b60009182526020808320909101929092558281526001898101909252604090209084019055865487908061482f57fe5b60019003818190600052602060002001600090559055866001016000878152602001908152602001600020600090556001945050505050611694565b6000915050611694565b6000614881838361459d565b6148b757508154600181810184556000848152602080822090930184905584548482528286019093526040902091909155611694565b506000611694565b600082815260018401602052604081205480614924575050604080518082018252838152602080820184815286546001818101895560008981528481209551600290930290950191825591519082015586548684528188019092529290912055611655565b8285600001600183038154811061493757fe5b9060005260206000209060020201600101819055506000915050611655565b6000818152600183016020526040812054801561486b578354600019808301919081019060009087908390811061498957fe5b90600052602060002090600202019050808760000184815481106149a957fe5b6000918252602080832084546002909302019182556001938401549184019190915583548252898301905260409020908401905586548790806149e857fe5b60008281526020808220600260001990940193840201828155600190810183905592909355888152898201909252604082209190915594506116949350505050565b6001600160e01b03198082161415614a89576040805162461bcd60e51b815260206004820152601c60248201527f4552433136353a20696e76616c696420696e7465726661636520696400000000604482015290519081900360640190fd5b6001600160e01b0319166000908152603360205260409020805460ff19166001179055565b6060611b42848460008585614ac2856142cc565b614b13576040805162461bcd60e51b815260206004820152601d60248201527f416464726573733a2063616c6c20746f206e6f6e2d636f6e7472616374000000604482015290519081900360640190fd5b60006060866001600160a01b031685876040518082805190602001908083835b60208310614b525780518252601f199092019160209182019101614b33565b6001836020036101000a03801982511681845116808217855250505050505090500191505060006040518083038185875af1925050503d8060008114614bb4576040519150601f19603f3d011682016040523d82523d6000602084013e614bb9565b606091505b5091509150612b1c82828660608315614bd3575081611655565b825115614be35782518084602001fd5b60405162461bcd60e51b815260206004820181815284516024840152845185939192839260440191908501908083836000831561426257818101518382015260200161424a565b604080518082019091526000808252602082015290565b60408051608081018252600080825260208201819052918101829052606081019190915290565b50805460018160011615610100020316600290046000825580601f10614c8e5750611fb7565b601f016020900490600052602060002090810190611fb79190614d2a565b828054600181600116156101000203166002900490600052602060002090601f016020900481019282601f10614ced57805160ff1916838001178555614d1a565b82800160010185558215614d1a579182015b82811115614d1a578251825591602001919060010190614cff565b50614d26929150614d2a565b5090565b61148191905b80821115614d265760008155600101614d3056fe537461727320706172616d6574657220746f6f20686967682120286d6178203729456e756d657261626c655365743a20696e646578206f7574206f6620626f756e6473416363657373436f6e74726f6c3a2073656e646572206d75737420626520616e2061646d696e20746f206772616e744552433732313a207472616e7366657220746f206e6f6e20455243373231526563656976657220696d706c656d656e7465724552433732313a207472616e7366657220746f20746865207a65726f20616464726573734552433732313a206f70657261746f7220717565727920666f72206e6f6e6578697374656e7420746f6b656e416363657373436f6e74726f6c3a2073656e646572206d75737420626520616e2061646d696e20746f207265766f6b654552433732313a20617070726f76652063616c6c6572206973206e6f74206f776e6572206e6f7220617070726f76656420666f7220616c6c4552433732313a2062616c616e636520717565727920666f7220746865207a65726f20616464726573734552433732313a206f776e657220717565727920666f72206e6f6e6578697374656e7420746f6b656e496e697469616c697a61626c653a20636f6e747261637420697320616c726561647920696e697469616c697a6564456e756d657261626c654d61703a20696e646578206f7574206f6620626f756e64734552433732313a20617070726f76656420717565727920666f72206e6f6e6578697374656e7420746f6b656e4552433732313a207472616e73666572206f6620746f6b656e2074686174206973206e6f74206f776e4552433732314d657461646174613a2055524920717565727920666f72206e6f6e6578697374656e7420746f6b656e4552433732313a20617070726f76616c20746f2063757272656e74206f776e65724552433732313a207472616e736665722063616c6c6572206973206e6f74206f776e6572206e6f7220617070726f766564416363657373436f6e74726f6c3a2063616e206f6e6c792072656e6f756e636520726f6c657320666f722073656c66a2646970667358221220b21b24396c65aa3fe89889df3b4a525c7d7bd573907d88fafcb053a54554f44564736f6c63430006050033","immutableReferences":{},"source":"pragma solidity ^0.6.0;\n\nimport \"@openzeppelin/contracts-upgradeable/proxy/Initializable.sol\";\nimport \"@openzeppelin/contracts-upgradeable/token/ERC721/ERC721Upgradeable.sol\";\nimport \"@openzeppelin/contracts-upgradeable/access/AccessControlUpgradeable.sol\";\nimport \"@openzeppelin/contracts/math/SafeMath.sol\";\nimport \"abdk-libraries-solidity/ABDKMath64x64.sol\";\nimport \"./Promos.sol\";\nimport \"./util.sol\";\n\ncontract Shields is Initializable, ERC721Upgradeable, AccessControlUpgradeable {\n\n    using ABDKMath64x64 for int128;\n    using ABDKMath64x64 for uint16;\n\n    bytes32 public constant GAME_ADMIN = keccak256(\"GAME_ADMIN\");\n\n    function initialize () public initializer {\n        __ERC721_init(\"CryptoBlades shield\", \"CBS\");\n        __AccessControl_init_unchained();\n\n        _setupRole(DEFAULT_ADMIN_ROLE, msg.sender);\n\n        shieldBaseMultiplier = ABDKMath64x64.fromUInt(1);\n        defenseMultPerPointBasic =  ABDKMath64x64.divu(1, 400); // 0.25%\n        defenseMultPerPointDEF = defenseMultPerPointBasic.mul(ABDKMath64x64.divu(103, 100)); // 0.2575% (+3%)\n        defenseMultPerPointMatching = defenseMultPerPointBasic.mul(ABDKMath64x64.divu(107, 100)); // 0.2675% (+7%)\n    }\n\n    function migrateTo_surprise(Promos _promos) public {\n        require(hasRole(DEFAULT_ADMIN_ROLE, msg.sender), \"Not admin\");\n\n        promos = _promos;\n    }\n\n    /*\n        visual numbers start at 0, increment values by 1\n        stars: 1-5 (1,2,3: primary only, 4: one secondary, 5: two secondaries)\n        traits: 0-3 [0(fire) > 1(earth) > 2(lightning) > 3(water) > repeat]\n        stats: STR(fire), DEX(earth), CHA(lightning), INT(water), BLK(traitless)\n        base stat rolls: 1*(1-50), 2*(45-75), 3*(70-100), 4*(50-100), 5*(66-100, main is 68-100)\n        defense: each point contributes .25% to fight defense\n        cosmetics: 0-255, to be used for future display purposes\n    */\n\n    struct Shield {\n        uint16 properties; // right to left: 3b stars, 2b trait, 7b stat pattern, 4b EMPTY\n        // stats (each point refers to .25% improvement)\n        uint16 stat1;\n        uint16 stat2;\n        uint16 stat3;\n    }\n\n    struct ShieldCosmetics {\n        uint8 version;\n        uint256 seed;\n    }\n\n    Shield[] private tokens;\n    ShieldCosmetics[] private cosmetics;\n\n    int128 public shieldBaseMultiplier; // 1.0\n    int128 public defenseMultPerPointBasic; // 0.25%\n    int128 public defenseMultPerPointDEF; // 0.2575% (+3%)\n    int128 public defenseMultPerPointMatching; // 0.2675% (+7%)\n\n    uint256 private lastMintedBlock; // DEPRECATED\n    uint256 private firstMintedOfLastBlock; // DEPRECATED\n\n    mapping(uint256 => uint64) durabilityTimestamp;\n\n    uint256 public constant maxDurability = 20;\n    uint256 public constant secondsPerDurability = 3000; //50 * 60\n\n    Promos public promos;\n\n    mapping(uint256 => mapping(uint256 => uint256)) public nftVars;//KEYS: NFTID, VARID\n    uint256 public constant NFTVAR_BUSY = 1; // value bitflags: 1 (pvp) | 2 (raid) | 4 (TBD)..\n    uint256 public constant NFTVAR_SHIELD_TYPE = 2; // 0 = normal, 1 = founders, 2 = legendary defender\n\n    event NewShield(uint256 indexed shield, address indexed minter);\n    event Burned(uint256 indexed shield, address indexed burner);\n\n    modifier restricted() {\n        _restricted();\n        _;\n    }\n\n    function _restricted() internal view {\n        require(hasRole(GAME_ADMIN, msg.sender), \"Not game admin\");\n    }\n\n    function getStats(uint256 id) internal view\n        returns (uint16 _properties, uint16 _stat1, uint16 _stat2, uint16 _stat3) {\n        Shield memory s = tokens[id];\n        return (s.properties, s.stat1, s.stat2, s.stat3);\n    }\n\n    function get(uint256 id) public view returns (uint16 _properties, uint16 _stat1, uint16 _stat2, uint16 _stat3) {\n        return _get(id);\n    }\n\n    function _get(uint256 id) internal view returns (uint16 _properties, uint16 _stat1, uint16 _stat2, uint16 _stat3) {\n        return getStats(id);\n    }\n\n    function getOwned() public view returns(uint256[] memory) {\n        return getOwnedBy(msg.sender);\n    }\n\n    function getOwnedBy(address owner) public view returns(uint256[] memory) {\n        uint256[] memory tokens = new uint256[](balanceOf(owner));\n        for(uint256 i = 0; i < tokens.length; i++) {\n            tokens[i] = tokenOfOwnerByIndex(owner, i);\n        }\n        return tokens;\n    }\n\n    function getCosmeticsSeed(uint256 id) public view returns (uint256) {\n        ShieldCosmetics memory sc = cosmetics[id];\n        return sc.seed;\n    }\n\n    function mint(address minter, uint256 shieldType, uint256 seed) public restricted returns(uint256) {\n        uint256 stars;\n        uint256 roll = seed % 100;\n        // will need revision, possibly manual configuration if we support more than 5 stars\n        if(roll < 1) {\n            stars = 4; // 5* at 1%\n        }\n        else if(roll < 6) { // 4* at 5%\n            stars = 3;\n        }\n        else if(roll < 21) { // 3* at 15%\n            stars = 2;\n        }\n        else if(roll < 56) { // 2* at 35%\n            stars = 1;\n        }\n        else {\n            stars = 0; // 1* at 44%\n        }\n\n        return mintShieldWithStars(minter, stars, shieldType, seed);\n    }\n\n    function burn(uint256 tokenID) public restricted {\n        address burner = ownerOf(tokenID);\n        _burn(tokenID);\n        emit Burned(tokenID, burner);\n    }\n\n    function burn(uint256[] memory tokenIDs) public restricted {\n        for(uint i = 0; i < tokenIDs.length; i++) {\n            burn(tokenIDs[i]);\n        }\n    }\n\n    function mintShieldWithStars(address minter, uint256 stars, uint256 shieldType, uint256 seed) public restricted returns(uint256) {\n        require(stars < 8, \"Stars parameter too high! (max 7)\");\n        (uint16 stat1, uint16 stat2, uint16 stat3) = getStatRolls(stars, seed);\n\n        return performMintShield(minter,\n            shieldType,\n            getRandomProperties(stars, seed),\n            stat1,\n            stat2,\n            stat3,\n            RandomUtil.combineSeeds(seed,3)\n        );\n    }\n\n    function mintShieldsWithStars(address minter, uint256 stars, uint256 shieldType, uint32 amount, uint256 seed) public restricted returns(uint256[] memory tokenIDs) {\n        require(stars < 8, \"Stars parameter too high! (max 7)\");\n        tokenIDs = new uint256[](amount);\n        for(uint i = 0; i < amount; i++) {\n            tokenIDs[i] = mintShieldWithStars(minter, stars, shieldType, seed);\n            seed = RandomUtil.combineSeeds(seed,i);\n        }\n    }\n\n    function performMintShield(address minter,\n        uint256 shieldType,\n        uint16 properties,\n        uint16 stat1, uint16 stat2, uint16 stat3,\n        uint256 cosmeticSeed\n    ) public restricted returns(uint256 tokenID) {\n        tokenID = tokens.length;\n        tokens.push(Shield(properties, stat1, stat2, stat3));\n        cosmetics.push(ShieldCosmetics(0, cosmeticSeed));\n        _mint(minter, tokenID);\n        durabilityTimestamp[tokenID] = uint64(now.sub(getDurabilityMaxWait()));\n        nftVars[tokenID][NFTVAR_SHIELD_TYPE] = shieldType;\n\n        emit NewShield(tokenID, minter);\n    }\n\n    function performMintShieldDetailed(address minter,\n        uint256 metaData,\n        uint256 cosmeticSeed, uint256 tokenID\n    ) public restricted returns(uint256) {\n\n        // uint256(uint256(0)) | uint256(stat3) << 16| (uint256(stat2) << 32) | (uint256(stat1) << 48) | (uint256(properties) << 64) | (uint256(appliedCosmetic) << 80);\n\n        uint16 stat3 = uint16((metaData >> 16) & 0xFFFF);\n        uint16 stat2 = uint16((metaData >> 32) & 0xFFFF);\n        uint16 stat1 = uint16((metaData >> 48) & 0xFFFF);\n        uint16 properties = uint16((metaData >> 64) & 0xFFFF);\n        //cosmetics >> 80\n        uint8 shieldType = uint8(metaData & 0xFF);\n\n        if(tokenID == 0){\n            tokenID = performMintShield(minter, shieldType, properties, stat1, stat2, stat3, 0);\n        }\n        else {\n            Shield storage sh = tokens[tokenID];\n            sh.properties = properties;\n            sh.stat1 = stat1;\n            sh.stat2 = stat2;\n            sh.stat3 = stat3;\n        }\n        ShieldCosmetics storage sc = cosmetics[tokenID];\n        sc.seed = cosmeticSeed;\n\n        durabilityTimestamp[tokenID] = uint64(now); // avoid chain jumping abuse\n\n        return tokenID;\n    }\n\n    function mintGiveawayShield(address to, uint256 stars, uint256 shieldType) external restricted returns(uint256) {\n        require(shieldType != 1, \"Can't mint founders shield\");\n        // MANUAL USE ONLY; DO NOT USE IN CONTRACTS!\n        return mintShieldWithStars(to, stars, shieldType, uint256(keccak256(abi.encodePacked(now, tokens.length))));\n    }\n\n    function getRandomProperties(uint256 stars, uint256 seed) public pure returns (uint16) {\n        return uint16((stars & 0x7) // stars aren't randomized here!\n            | ((RandomUtil.randomSeededMinMax(0,3,RandomUtil.combineSeeds(seed,1)) & 0x3) << 3) // trait\n            | ((RandomUtil.randomSeededMinMax(0,124,RandomUtil.combineSeeds(seed,2)) & 0x7F) << 5)); // statPattern\n    }\n\n    function getStatRolls(uint256 stars, uint256 seed) private pure returns (uint16, uint16, uint16) {\n        uint16 minRoll = getStatMinRoll(stars);\n        uint16 maxRoll = getStatMaxRoll(stars);\n        uint8 statCount = getStatCount(stars);\n\n        uint16 stat1 = getRandomStat(minRoll, maxRoll, seed, 5);\n        uint16 stat2 = 0;\n        uint16 stat3 = 0;\n        if(statCount > 1) {\n            stat2 = getRandomStat(minRoll, maxRoll, seed, 3);\n        }\n        if(statCount > 2) {\n            stat3 = getRandomStat(minRoll, maxRoll, seed, 4);\n        }\n        return (stat1, stat2, stat3);\n    }\n\n    function getRandomStat(uint16 minRoll, uint16 maxRoll, uint256 seed, uint256 seed2) public pure returns (uint16) {\n        return uint16(RandomUtil.randomSeededMinMax(minRoll, maxRoll,RandomUtil.combineSeeds(seed, seed2)));\n    }\n\n    function getRandomCosmetic(uint256 seed, uint256 seed2, uint8 limit) public pure returns (uint8) {\n        return uint8(RandomUtil.randomSeededMinMax(0, limit, RandomUtil.combineSeeds(seed, seed2)));\n    }\n\n    function getStatMinRoll(uint256 stars) public pure returns (uint16) {\n        // 1 star\n        if (stars == 0) return 4;\n        // 2 star\n        if (stars == 1) return 180;\n        // 3 star\n        if (stars == 2) return 280;\n        // 4 star\n        if (stars == 3) return 200;\n        // 5+ star\n        return 268;\n    }\n\n    function getStatMaxRoll(uint256 stars) public pure returns (uint16) {\n        // 3+ star\n        if (stars > 1) return 400;\n        // 2 star\n        if (stars > 0) return 300;\n        // 1 star\n        return 200;\n    }\n\n    function getStatCount(uint256 stars) public pure returns (uint8) {\n        // 1-2 star\n        if (stars < 3) return 1;\n        // 3+ star\n        return uint8(stars)-1;\n    }\n\n    function getProperties(uint256 id) public view returns (uint16) {\n        return tokens[id].properties;\n    }\n\n    function getStars(uint256 id) public view returns (uint8) {\n        return getStarsFromProperties(getProperties(id));\n    }\n\n    function getStars(uint256[] memory ids) public view returns (uint8[] memory) {\n        uint8[] memory stars = new uint8[](ids.length);\n        for(uint256 i = 0; i < ids.length; i++) {\n            stars[i] = getStars(ids[i]);\n        }\n        return stars;\n    }\n\n    function getStarsFromProperties(uint16 properties) public pure returns (uint8) {\n        return uint8(properties & 0x7); // first two bits for stars\n    }\n\n    function getTrait(uint256 id) public view returns (uint8) {\n        return getTraitFromProperties(getProperties(id));\n    }\n\n    function getTraitFromProperties(uint16 properties) public pure returns (uint8) {\n        return uint8((properties >> 3) & 0x3); // two bits after star bits (3)\n    }\n\n    function getStatPattern(uint256 id) public view returns (uint8) {\n        return getStatPatternFromProperties(getProperties(id));\n    }\n\n    function getStatPatternFromProperties(uint16 properties) public pure returns (uint8) {\n        return uint8((properties >> 5) & 0x7F); // 7 bits after star(3) and trait(2) bits\n    }\n\n    function getStat1Trait(uint8 statPattern) public pure returns (uint8) {\n        return uint8(uint256(statPattern) % 5); // 0-3 regular traits, 4 = traitless (DEF)\n    }\n\n    function getStat2Trait(uint8 statPattern) public pure returns (uint8) {\n        return uint8(SafeMath.div(statPattern, 5) % 5); // 0-3 regular traits, 4 = traitless (DEF)\n    }\n\n    function getStat3Trait(uint8 statPattern) public pure returns (uint8) {\n        return uint8(SafeMath.div(statPattern, 25) % 5); // 0-3 regular traits, 4 = traitless (DEF)\n    }\n\n    function getStat1(uint256 id) public view returns (uint16) {\n        return tokens[id].stat1;\n    }\n\n    function getStat2(uint256 id) public view returns (uint16) {\n        return tokens[id].stat2;\n    }\n\n    function getStat3(uint256 id) public view returns (uint16) {\n        return tokens[id].stat3;\n    }\n\n    function getDefenseMultiplier(uint256 id) public view returns (int128) {\n        // returns a 64.64 fixed point number for defense multiplier\n        // this function does not account for traits\n        // it is used to calculate base enemy defenses for targeting\n        Shield memory shd = tokens[id];\n        int128 defensePerPoint = defenseMultPerPointBasic;\n        int128 stat1 = shd.stat1.fromUInt().mul(defensePerPoint);\n        int128 stat2 = shd.stat2.fromUInt().mul(defensePerPoint);\n        int128 stat3 = shd.stat3.fromUInt().mul(defensePerPoint);\n        return shieldBaseMultiplier.add(stat1).add(stat2).add(stat3);\n    }\n\n    function getDefenseMultiplierForTrait(\n        uint16 properties,\n        uint16 stat1,\n        uint16 stat2,\n        uint16 stat3,\n        uint8 trait\n    ) public view returns(int128) {\n        // Does not include character trait to shield trait match\n        // Only counts arbitrary trait to shield stat trait\n        // This function can be used by frontend to get expected % bonus for each type\n        // Making it easy to see on the market how useful it will be to you\n        uint8 statPattern = getStatPatternFromProperties(properties);\n        int128 result = shieldBaseMultiplier;\n\n        if(getStat1Trait(statPattern) == trait)\n            result = result.add(stat1.fromUInt().mul(defenseMultPerPointMatching));\n        else if(getStat1Trait(statPattern) == 4) // DEF, traitless\n            result = result.add(stat1.fromUInt().mul(defenseMultPerPointDEF));\n        else\n            result = result.add(stat1.fromUInt().mul(defenseMultPerPointBasic));\n\n        if(getStat2Trait(statPattern) == trait)\n            result = result.add(stat2.fromUInt().mul(defenseMultPerPointMatching));\n        else if(getStat2Trait(statPattern) == 4) // DEF, traitless\n            result = result.add(stat2.fromUInt().mul(defenseMultPerPointDEF));\n        else\n            result = result.add(stat2.fromUInt().mul(defenseMultPerPointBasic));\n\n        if(getStat3Trait(statPattern) == trait)\n            result = result.add(stat3.fromUInt().mul(defenseMultPerPointMatching));\n        else if(getStat3Trait(statPattern) == 4) // DEF, traitless\n            result = result.add(stat3.fromUInt().mul(defenseMultPerPointDEF));\n        else\n            result = result.add(stat3.fromUInt().mul(defenseMultPerPointBasic));\n\n        return result;\n    }\n\n    function getDefenseMultiplierForTrait(uint256 id, uint8 trait) public view returns(int128) {\n        Shield storage shd = tokens[id];\n        return getDefenseMultiplierForTrait(shd.properties, shd.stat1, shd.stat2, shd.stat3, trait);\n    }\n\n    function getFightData(uint256 id, uint8 charTrait) public view returns (int128, int128, uint24, uint8) {\n        Shield storage shd = tokens[id];\n        return (\n            shieldBaseMultiplier.add(defenseMultPerPointBasic.mul(\n                    ABDKMath64x64.fromUInt(\n                        shd.stat1 + shd.stat2 + shd.stat3\n                    )\n            )),//targetMult\n            getDefenseMultiplierForTrait(shd.properties, shd.stat1, shd.stat2, shd.stat3, charTrait),\n            // Bonus defense support intended in future.\n            0,\n            getTraitFromProperties(shd.properties)\n        );\n    }\n\n    function getFightDataAndDrainDurability(uint256 id, uint8 charTrait, uint8 drainAmount) public restricted returns (int128, int128, uint24, uint8) {\n        require(nftVars[id][NFTVAR_BUSY] == 0, \"Shield is busy\");\n        uint8 durabilityPoints = getDurabilityPointsFromTimestamp(durabilityTimestamp[id]);\n        require(durabilityPoints >= drainAmount, \"Not enough durability!\");\n\n        uint64 drainTime = uint64(drainAmount * secondsPerDurability);\n        if(durabilityPoints >= maxDurability) { // if durability full, we reset timestamp and drain from that\n            durabilityTimestamp[id] = uint64(now - getDurabilityMaxWait() + drainTime);\n        }\n        else {\n            durabilityTimestamp[id] = uint64(durabilityTimestamp[id] + drainTime);\n        }\n\n        Shield storage shd = tokens[id];\n        return (\n            shieldBaseMultiplier.add(defenseMultPerPointBasic.mul(\n                    ABDKMath64x64.fromUInt(\n                        shd.stat1 + shd.stat2 + shd.stat3\n                    )\n            )),//targetMult\n            getDefenseMultiplierForTrait(shd.properties, shd.stat1, shd.stat2, shd.stat3, charTrait),\n            // Bonus defense support intended in future.\n            0,\n            getTraitFromProperties(shd.properties)\n        );\n    }\n\n    function drainDurability(uint256 id, uint8 amount) public restricted {\n        uint8 durabilityPoints = getDurabilityPointsFromTimestamp(durabilityTimestamp[id]);\n        require(durabilityPoints >= amount, \"Not enough durability!\");\n\n        uint64 drainTime = uint64(amount * secondsPerDurability);\n        if(durabilityPoints >= maxDurability) { // if durability full, we reset timestamp and drain from that\n            durabilityTimestamp[id] = uint64(now - getDurabilityMaxWait() + drainTime);\n        }\n        else {\n            durabilityTimestamp[id] = uint64(durabilityTimestamp[id] + drainTime);\n        }\n    }\n\n    function getDurabilityTimestamp(uint256 id) public view returns (uint64) {\n        return durabilityTimestamp[id];\n    }\n\n    function setDurabilityTimestamp(uint256 id, uint64 timestamp) public restricted {\n        durabilityTimestamp[id] = timestamp;\n    }\n\n    function getDurabilityPoints(uint256 id) public view returns (uint8) {\n        return getDurabilityPointsFromTimestamp(durabilityTimestamp[id]);\n    }\n\n    function getDurabilityPointsFromTimestamp(uint64 timestamp) public view returns (uint8) {\n        if(timestamp  > now)\n            return 0;\n\n        uint256 points = (now - timestamp) / secondsPerDurability;\n        if(points > maxDurability) {\n            points = maxDurability;\n        }\n        return uint8(points);\n    }\n\n    function isDurabilityFull(uint256 id) public view returns (bool) {\n        return getDurabilityPoints(id) >= maxDurability;\n    }\n\n    function getDurabilityMaxWait() public pure returns (uint64) {\n        return uint64(maxDurability * secondsPerDurability);\n    }\n\n    function getNftVar(uint256 shieldID, uint256 nftVar) public view returns(uint256) {\n        return nftVars[shieldID][nftVar];\n    }\n    function setNftVar(uint256 shieldID, uint256 nftVar, uint256 value) public restricted {\n        nftVars[shieldID][nftVar] = value;\n    }\n    function setNftVars(uint256[] calldata ids, uint256 nftVar, uint256 value) external restricted {\n        for(uint i = 0; i < ids.length; i++)\n            nftVars[ids[i]][nftVar] = value;\n    }\n\n    function _beforeTokenTransfer(address from, address to, uint256 tokenId) internal override {\n        require(promos.getBit(from, 4) == false && promos.getBit(to, 4) == false\n            && nftVars[tokenId][NFTVAR_BUSY] == 0);\n    }\n\n    function setBaseURI(string memory baseUri) public restricted {\n        _setBaseURI(baseUri);\n    }\n}\n","sourcePath":"/home/runner/work/cryptoblades/cryptoblades/contracts/shields.sol","compiler":{"name":"solc","version":"0.6.5+commit.f956cc89.Emscripten.clang"},"schemaVersion":"3.3.4","updatedAt":"2023-04-20T05:20:53.559Z","devdoc":{"methods":{"approve(address,uint256)":{"details":"See {IERC721-approve}."},"balanceOf(address)":{"details":"See {IERC721-balanceOf}."},"baseURI()":{"details":"Returns the base URI set via {_setBaseURI}. This will be automatically added as a prefix in {tokenURI} to each token's URI, or to the token ID if no specific URI is set for that token ID."},"getApproved(uint256)":{"details":"See {IERC721-getApproved}."},"getRoleAdmin(bytes32)":{"details":"Returns the admin role that controls `role`. See {grantRole} and {revokeRole}.     * To change a role's admin, use {_setRoleAdmin}."},"getRoleMember(bytes32,uint256)":{"details":"Returns one of the accounts that have `role`. `index` must be a value between 0 and {getRoleMemberCount}, non-inclusive.     * Role bearers are not sorted in any particular way, and their ordering may change at any point.     * WARNING: When using {getRoleMember} and {getRoleMemberCount}, make sure you perform all queries on the same block. See the following https://forum.openzeppelin.com/t/iterating-over-elements-on-enumerableset-in-openzeppelin-contracts/2296[forum post] for more information."},"getRoleMemberCount(bytes32)":{"details":"Returns the number of accounts that have `role`. Can be used together with {getRoleMember} to enumerate all bearers of a role."},"grantRole(bytes32,address)":{"details":"Grants `role` to `account`.     * If `account` had not been already granted `role`, emits a {RoleGranted} event.     * Requirements:     * - the caller must have ``role``'s admin role."},"hasRole(bytes32,address)":{"details":"Returns `true` if `account` has been granted `role`."},"isApprovedForAll(address,address)":{"details":"See {IERC721-isApprovedForAll}."},"name()":{"details":"See {IERC721Metadata-name}."},"ownerOf(uint256)":{"details":"See {IERC721-ownerOf}."},"renounceRole(bytes32,address)":{"details":"Revokes `role` from the calling account.     * Roles are often managed via {grantRole} and {revokeRole}: this function's purpose is to provide a mechanism for accounts to lose their privileges if they are compromised (such as when a trusted device is misplaced).     * If the calling account had been granted `role`, emits a {RoleRevoked} event.     * Requirements:     * - the caller must be `account`."},"revokeRole(bytes32,address)":{"details":"Revokes `role` from `account`.     * If `account` had been granted `role`, emits a {RoleRevoked} event.     * Requirements:     * - the caller must have ``role``'s admin role."},"safeTransferFrom(address,address,uint256)":{"details":"See {IERC721-safeTransferFrom}."},"safeTransferFrom(address,address,uint256,bytes)":{"details":"See {IERC721-safeTransferFrom}."},"setApprovalForAll(address,bool)":{"details":"See {IERC721-setApprovalForAll}."},"supportsInterface(bytes4)":{"details":"See {IERC165-supportsInterface}.     * Time complexity O(1), guaranteed to always use less than 30 000 gas."},"symbol()":{"details":"See {IERC721Metadata-symbol}."},"tokenByIndex(uint256)":{"details":"See {IERC721Enumerable-tokenByIndex}."},"tokenOfOwnerByIndex(address,uint256)":{"details":"See {IERC721Enumerable-tokenOfOwnerByIndex}."},"tokenURI(uint256)":{"details":"See {IERC721Metadata-tokenURI}."},"totalSupply()":{"details":"See {IERC721Enumerable-totalSupply}."},"transferFrom(address,address,uint256)":{"details":"See {IERC721-transferFrom}."}}},"userdoc":{"methods":{}}}