{"contractName":"SimpleQuests","abi":[{"anonymous":false,"inputs":[{"indexed":true,"internalType":"uint256","name":"questID","type":"uint256"},{"indexed":true,"internalType":"uint256","name":"characterID","type":"uint256"}],"name":"QuestAssigned","type":"event"},{"anonymous":false,"inputs":[{"indexed":true,"internalType":"uint256","name":"questID","type":"uint256"},{"indexed":true,"internalType":"uint256","name":"characterID","type":"uint256"}],"name":"QuestComplete","type":"event"},{"anonymous":false,"inputs":[{"indexed":true,"internalType":"uint256","name":"questID","type":"uint256"},{"indexed":true,"internalType":"uint256","name":"characterID","type":"uint256"}],"name":"QuestProgressed","type":"event"},{"anonymous":false,"inputs":[{"indexed":true,"internalType":"uint256","name":"questID","type":"uint256"},{"indexed":true,"internalType":"uint256","name":"characterID","type":"uint256"},{"indexed":false,"internalType":"uint256[]","name":"rewards","type":"uint256[]"}],"name":"QuestRewarded","type":"event"},{"anonymous":false,"inputs":[{"indexed":true,"internalType":"uint256","name":"questID","type":"uint256"},{"indexed":true,"internalType":"uint256","name":"characterID","type":"uint256"}],"name":"QuestSkipped","type":"event"},{"anonymous":false,"inputs":[{"indexed":true,"internalType":"uint256","name":"rewardID","type":"uint256"}],"name":"RewardAdded","type":"event"},{"anonymous":false,"inputs":[{"indexed":true,"internalType":"bytes32","name":"role","type":"bytes32"},{"indexed":true,"internalType":"bytes32","name":"previousAdminRole","type":"bytes32"},{"indexed":true,"internalType":"bytes32","name":"newAdminRole","type":"bytes32"}],"name":"RoleAdminChanged","type":"event"},{"anonymous":false,"inputs":[{"indexed":true,"internalType":"bytes32","name":"role","type":"bytes32"},{"indexed":true,"internalType":"address","name":"account","type":"address"},{"indexed":true,"internalType":"address","name":"sender","type":"address"}],"name":"RoleGranted","type":"event"},{"anonymous":false,"inputs":[{"indexed":true,"internalType":"bytes32","name":"role","type":"bytes32"},{"indexed":true,"internalType":"address","name":"account","type":"address"},{"indexed":true,"internalType":"address","name":"sender","type":"address"}],"name":"RoleRevoked","type":"event"},{"anonymous":false,"inputs":[{"indexed":true,"internalType":"uint256","name":"questID","type":"uint256"},{"indexed":true,"internalType":"address","name":"wallet","type":"address"}],"name":"WalletQuestComplete","type":"event"},{"anonymous":false,"inputs":[{"indexed":true,"internalType":"uint256","name":"questID","type":"uint256"},{"indexed":true,"internalType":"address","name":"wallet","type":"address"}],"name":"WalletQuestProgressed","type":"event"},{"anonymous":false,"inputs":[{"indexed":true,"internalType":"uint256","name":"questID","type":"uint256"},{"indexed":true,"internalType":"address","name":"wallet","type":"address"},{"indexed":false,"internalType":"uint256[]","name":"rewards","type":"uint256[]"}],"name":"WalletQuestRewarded","type":"event"},{"anonymous":false,"inputs":[{"indexed":false,"internalType":"address","name":"user","type":"address"},{"indexed":true,"internalType":"uint256","name":"rewardID","type":"uint256"},{"indexed":false,"internalType":"uint256[]","name":"rewards","type":"uint256[]"}],"name":"WeeklyRewardClaimed","type":"event"},{"anonymous":false,"inputs":[{"indexed":true,"internalType":"uint256","name":"rewardID","type":"uint256"},{"indexed":true,"internalType":"uint256","name":"week","type":"uint256"}],"name":"WeeklyRewardSet","type":"event"},{"inputs":[],"name":"DEFAULT_ADMIN_ROLE","outputs":[{"internalType":"bytes32","name":"","type":"bytes32"}],"stateMutability":"view","type":"function"},{"inputs":[],"name":"GAME_ADMIN","outputs":[{"internalType":"bytes32","name":"","type":"bytes32"}],"stateMutability":"view","type":"function"},{"inputs":[],"name":"VAR_COMMON_TIER","outputs":[{"internalType":"uint8","name":"","type":"uint8"}],"stateMutability":"view","type":"function"},{"inputs":[],"name":"VAR_CONTRACT_ENABLED","outputs":[{"internalType":"uint8","name":"","type":"uint8"}],"stateMutability":"view","type":"function"},{"inputs":[],"name":"VAR_EPIC_TIER","outputs":[{"internalType":"uint8","name":"","type":"uint8"}],"stateMutability":"view","type":"function"},{"inputs":[],"name":"VAR_LEGENDARY_TIER","outputs":[{"internalType":"uint8","name":"","type":"uint8"}],"stateMutability":"view","type":"function"},{"inputs":[],"name":"VAR_RARE_TIER","outputs":[{"internalType":"uint8","name":"","type":"uint8"}],"stateMutability":"view","type":"function"},{"inputs":[],"name":"VAR_REPUTATION_LEVEL_2","outputs":[{"internalType":"uint8","name":"","type":"uint8"}],"stateMutability":"view","type":"function"},{"inputs":[],"name":"VAR_REPUTATION_LEVEL_3","outputs":[{"internalType":"uint8","name":"","type":"uint8"}],"stateMutability":"view","type":"function"},{"inputs":[],"name":"VAR_REPUTATION_LEVEL_4","outputs":[{"internalType":"uint8","name":"","type":"uint8"}],"stateMutability":"view","type":"function"},{"inputs":[],"name":"VAR_REPUTATION_LEVEL_5","outputs":[{"internalType":"uint8","name":"","type":"uint8"}],"stateMutability":"view","type":"function"},{"inputs":[],"name":"VAR_SKIP_QUEST_STAMINA_COST","outputs":[{"internalType":"uint8","name":"","type":"uint8"}],"stateMutability":"view","type":"function"},{"inputs":[],"name":"VAR_UNCOMMON_TIER","outputs":[{"internalType":"uint8","name":"","type":"uint8"}],"stateMutability":"view","type":"function"},{"inputs":[],"name":"burningManager","outputs":[{"internalType":"contract BurningManager","name":"","type":"address"}],"stateMutability":"view","type":"function"},{"inputs":[{"internalType":"uint256","name":"","type":"uint256"}],"name":"characterQuest","outputs":[{"internalType":"uint256","name":"","type":"uint256"}],"stateMutability":"view","type":"function"},{"inputs":[],"name":"characters","outputs":[{"internalType":"contract Characters","name":"","type":"address"}],"stateMutability":"view","type":"function"},{"inputs":[{"internalType":"bytes32","name":"role","type":"bytes32"}],"name":"getRoleAdmin","outputs":[{"internalType":"bytes32","name":"","type":"bytes32"}],"stateMutability":"view","type":"function"},{"inputs":[{"internalType":"bytes32","name":"role","type":"bytes32"},{"internalType":"uint256","name":"index","type":"uint256"}],"name":"getRoleMember","outputs":[{"internalType":"address","name":"","type":"address"}],"stateMutability":"view","type":"function"},{"inputs":[{"internalType":"bytes32","name":"role","type":"bytes32"}],"name":"getRoleMemberCount","outputs":[{"internalType":"uint256","name":"","type":"uint256"}],"stateMutability":"view","type":"function"},{"inputs":[{"internalType":"bytes32","name":"role","type":"bytes32"},{"internalType":"address","name":"account","type":"address"}],"name":"grantRole","outputs":[],"stateMutability":"nonpayable","type":"function"},{"inputs":[{"internalType":"bytes32","name":"role","type":"bytes32"},{"internalType":"address","name":"account","type":"address"}],"name":"hasRole","outputs":[{"internalType":"bool","name":"","type":"bool"}],"stateMutability":"view","type":"function"},{"inputs":[],"name":"junk","outputs":[{"internalType":"contract Junk","name":"","type":"address"}],"stateMutability":"view","type":"function"},{"inputs":[{"internalType":"uint256","name":"","type":"uint256"}],"name":"lastFreeSkipUsage","outputs":[{"internalType":"uint256","name":"","type":"uint256"}],"stateMutability":"view","type":"function"},{"inputs":[],"name":"nextQuestID","outputs":[{"internalType":"uint256","name":"","type":"uint256"}],"stateMutability":"view","type":"function"},{"inputs":[],"name":"nextRewardID","outputs":[{"internalType":"uint256","name":"","type":"uint256"}],"stateMutability":"view","type":"function"},{"inputs":[],"name":"partnerVault","outputs":[{"internalType":"contract PartnerVault","name":"","type":"address"}],"stateMutability":"view","type":"function"},{"inputs":[{"internalType":"address","name":"","type":"address"},{"internalType":"uint256","name":"","type":"uint256"}],"name":"questCompletions","outputs":[{"internalType":"uint256","name":"","type":"uint256"}],"stateMutability":"view","type":"function"},{"inputs":[{"internalType":"uint256","name":"","type":"uint256"}],"name":"questDeadlines","outputs":[{"internalType":"uint256","name":"","type":"uint256"}],"stateMutability":"view","type":"function"},{"inputs":[{"internalType":"uint256","name":"","type":"uint256"}],"name":"questIndexes","outputs":[{"internalType":"uint256","name":"","type":"uint256"}],"stateMutability":"view","type":"function"},{"inputs":[{"internalType":"uint256","name":"","type":"uint256"}],"name":"questSupplies","outputs":[{"internalType":"uint256","name":"","type":"uint256"}],"stateMutability":"view","type":"function"},{"inputs":[{"internalType":"uint256","name":"","type":"uint256"},{"internalType":"uint256","name":"","type":"uint256"}],"name":"questTemplates","outputs":[{"internalType":"uint256","name":"","type":"uint256"}],"stateMutability":"view","type":"function"},{"inputs":[{"internalType":"uint256","name":"","type":"uint256"}],"name":"quests","outputs":[{"internalType":"uint256","name":"id","type":"uint256"},{"internalType":"enum SimpleQuests.Rarity","name":"tier","type":"uint8"},{"internalType":"enum SimpleQuests.ItemType","name":"requirementType","type":"uint8"},{"internalType":"uint256","name":"requirementRarity","type":"uint256"},{"internalType":"uint256","name":"requirementAmount","type":"uint256"},{"internalType":"address","name":"requirementExternalAddress","type":"address"},{"internalType":"enum SimpleQuests.ItemType","name":"rewardType","type":"uint8"},{"internalType":"uint256","name":"rewardRarity","type":"uint256"},{"internalType":"uint256","name":"rewardAmount","type":"uint256"},{"internalType":"address","name":"rewardExternalAddress","type":"address"},{"internalType":"uint256","name":"reputationAmount","type":"uint256"}],"stateMutability":"view","type":"function"},{"inputs":[{"internalType":"bytes32","name":"role","type":"bytes32"},{"internalType":"address","name":"account","type":"address"}],"name":"renounceRole","outputs":[],"stateMutability":"nonpayable","type":"function"},{"inputs":[{"internalType":"bytes32","name":"role","type":"bytes32"},{"internalType":"address","name":"account","type":"address"}],"name":"revokeRole","outputs":[],"stateMutability":"nonpayable","type":"function"},{"inputs":[{"internalType":"uint256","name":"","type":"uint256"}],"name":"rewards","outputs":[{"internalType":"uint256","name":"id","type":"uint256"},{"internalType":"enum SimpleQuests.ItemType","name":"rewardType","type":"uint8"},{"internalType":"uint256","name":"rewardRarity","type":"uint256"},{"internalType":"uint256","name":"rewardAmount","type":"uint256"},{"internalType":"address","name":"rewardExternalAddress","type":"address"},{"internalType":"uint256","name":"reputationAmount","type":"uint256"}],"stateMutability":"view","type":"function"},{"inputs":[],"name":"safeRandoms","outputs":[{"internalType":"contract SafeRandoms","name":"","type":"address"}],"stateMutability":"view","type":"function"},{"inputs":[],"name":"shields","outputs":[{"internalType":"contract Shields","name":"","type":"address"}],"stateMutability":"view","type":"function"},{"inputs":[{"internalType":"uint256","name":"","type":"uint256"},{"internalType":"uint256","name":"","type":"uint256"}],"name":"tierChances","outputs":[{"internalType":"uint256","name":"","type":"uint256"}],"stateMutability":"view","type":"function"},{"inputs":[],"name":"trinket","outputs":[{"internalType":"contract RaidTrinket","name":"","type":"address"}],"stateMutability":"view","type":"function"},{"inputs":[{"internalType":"uint256","name":"","type":"uint256"}],"name":"vars","outputs":[{"internalType":"uint256","name":"","type":"uint256"}],"stateMutability":"view","type":"function"},{"inputs":[{"internalType":"address","name":"","type":"address"},{"internalType":"uint256","name":"","type":"uint256"}],"name":"walletQuestProgress","outputs":[{"internalType":"uint256","name":"","type":"uint256"}],"stateMutability":"view","type":"function"},{"inputs":[],"name":"weapons","outputs":[{"internalType":"contract Weapons","name":"","type":"address"}],"stateMutability":"view","type":"function"},{"inputs":[{"internalType":"address","name":"","type":"address"},{"internalType":"uint256","name":"","type":"uint256"}],"name":"weeklyCompletions","outputs":[{"internalType":"uint256","name":"","type":"uint256"}],"stateMutability":"view","type":"function"},{"inputs":[{"internalType":"uint256","name":"","type":"uint256"}],"name":"weeklyCompletionsGoal","outputs":[{"internalType":"uint256","name":"","type":"uint256"}],"stateMutability":"view","type":"function"},{"inputs":[{"internalType":"address","name":"","type":"address"},{"internalType":"uint256","name":"","type":"uint256"}],"name":"weeklyRewardClaimed","outputs":[{"internalType":"bool","name":"","type":"bool"}],"stateMutability":"view","type":"function"},{"inputs":[{"internalType":"contract Characters","name":"_characters","type":"address"},{"internalType":"contract Weapons","name":"_weapons","type":"address"},{"internalType":"contract Junk","name":"_junk","type":"address"},{"internalType":"contract RaidTrinket","name":"_trinket","type":"address"},{"internalType":"contract Shields","name":"_shields","type":"address"},{"internalType":"contract BurningManager","name":"_burningManager","type":"address"},{"internalType":"contract SafeRandoms","name":"_safeRandoms","type":"address"},{"internalType":"contract PartnerVault","name":"_partnerVault","type":"address"}],"name":"initialize","outputs":[],"stateMutability":"nonpayable","type":"function"},{"inputs":[{"internalType":"uint256","name":"characterID","type":"uint256"}],"name":"generateRequestQuestSeed","outputs":[],"stateMutability":"nonpayable","type":"function"},{"inputs":[{"internalType":"uint256","name":"characterID","type":"uint256"}],"name":"requestQuest","outputs":[{"internalType":"uint256","name":"","type":"uint256"}],"stateMutability":"nonpayable","type":"function"},{"inputs":[{"internalType":"uint256","name":"characterID","type":"uint256"},{"internalType":"uint256","name":"questID","type":"uint256"}],"name":"requestPickableQuest","outputs":[{"internalType":"uint256","name":"","type":"uint256"}],"stateMutability":"nonpayable","type":"function"},{"inputs":[{"internalType":"uint256","name":"characterID","type":"uint256"}],"name":"skipQuest","outputs":[{"internalType":"uint256","name":"","type":"uint256"}],"stateMutability":"nonpayable","type":"function"},{"inputs":[{"internalType":"uint256","name":"characterID","type":"uint256"},{"internalType":"uint256","name":"pickedQuestID","type":"uint256"}],"name":"skipQuest","outputs":[{"internalType":"uint256","name":"","type":"uint256"}],"stateMutability":"nonpayable","type":"function"},{"inputs":[{"internalType":"uint256","name":"characterID","type":"uint256"},{"internalType":"uint256","name":"pickedQuestID","type":"uint256"}],"name":"completeQuest","outputs":[{"internalType":"uint256[]","name":"questRewards","type":"uint256[]"}],"stateMutability":"nonpayable","type":"function"},{"inputs":[{"internalType":"uint256","name":"characterID","type":"uint256"}],"name":"completeQuest","outputs":[{"internalType":"uint256[]","name":"questRewards","type":"uint256[]"}],"stateMutability":"nonpayable","type":"function"},{"inputs":[{"internalType":"uint256","name":"questID","type":"uint256"}],"name":"completeWalletQuest","outputs":[{"internalType":"uint256[]","name":"questRewards","type":"uint256[]"}],"stateMutability":"nonpayable","type":"function"},{"inputs":[{"internalType":"uint256","name":"characterID","type":"uint256"}],"name":"generateRewardQuestSeed","outputs":[],"stateMutability":"nonpayable","type":"function"},{"inputs":[{"internalType":"uint256","name":"rewardID","type":"uint256"}],"name":"generateRewardWeeklySeed","outputs":[],"stateMutability":"nonpayable","type":"function"},{"inputs":[],"name":"claimWeeklyReward","outputs":[{"internalType":"uint256[]","name":"weeklyRewardIDs","type":"uint256[]"}],"stateMutability":"nonpayable","type":"function"},{"inputs":[{"internalType":"uint256","name":"characterID","type":"uint256"},{"internalType":"uint256[]","name":"tokenIds","type":"uint256[]"}],"name":"submitProgress","outputs":[],"stateMutability":"nonpayable","type":"function"},{"inputs":[{"internalType":"uint256","name":"questID","type":"uint256"},{"internalType":"uint256[]","name":"tokenIds","type":"uint256[]"}],"name":"submitWalletProgress","outputs":[],"stateMutability":"nonpayable","type":"function"},{"inputs":[{"internalType":"uint256","name":"characterID","type":"uint256"},{"internalType":"uint256","name":"amount","type":"uint256"}],"name":"submitProgressAmount","outputs":[],"stateMutability":"nonpayable","type":"function"},{"inputs":[{"internalType":"uint256","name":"questID","type":"uint256"},{"internalType":"uint256","name":"amount","type":"uint256"}],"name":"submitWalletProgressAmount","outputs":[],"stateMutability":"nonpayable","type":"function"},{"inputs":[{"internalType":"uint256","name":"characterID","type":"uint256"}],"name":"hasRandomQuestSeedRequested","outputs":[{"internalType":"bool","name":"","type":"bool"}],"stateMutability":"view","type":"function"},{"inputs":[{"internalType":"uint256","name":"characterID","type":"uint256"}],"name":"hasRandomQuestRewardSeedRequested","outputs":[{"internalType":"bool","name":"","type":"bool"}],"stateMutability":"view","type":"function"},{"inputs":[{"internalType":"uint256","name":"questID","type":"uint256"}],"name":"hasRandomWalletQuestRewardSeedRequested","outputs":[{"internalType":"bool","name":"","type":"bool"}],"stateMutability":"view","type":"function"},{"inputs":[{"internalType":"uint256","name":"rewardID","type":"uint256"}],"name":"hasRandomWeeklyRewardSeedRequested","outputs":[{"internalType":"bool","name":"","type":"bool"}],"stateMutability":"view","type":"function"},{"inputs":[{"internalType":"uint256[]","name":"varFields","type":"uint256[]"}],"name":"getVars","outputs":[{"internalType":"uint256[]","name":"","type":"uint256[]"}],"stateMutability":"view","type":"function"},{"inputs":[{"internalType":"uint256","name":"reputationLevel","type":"uint256"}],"name":"getTierChances","outputs":[{"internalType":"uint256[4]","name":"","type":"uint256[4]"}],"stateMutability":"view","type":"function"},{"inputs":[{"internalType":"uint8","name":"tier","type":"uint8"}],"name":"getQuestTemplates","outputs":[{"internalType":"uint256[]","name":"","type":"uint256[]"}],"stateMutability":"view","type":"function"},{"inputs":[{"internalType":"uint256","name":"characterID","type":"uint256"}],"name":"getCharacterQuestData","outputs":[{"internalType":"uint256[]","name":"","type":"uint256[]"}],"stateMutability":"view","type":"function"},{"inputs":[{"internalType":"uint256","name":"characterID","type":"uint256"}],"name":"hasFreeSkip","outputs":[{"internalType":"bool","name":"","type":"bool"}],"stateMutability":"view","type":"function"},{"inputs":[],"name":"nextWeeklyQuestCompletionGoalReset","outputs":[{"internalType":"uint256","name":"","type":"uint256"}],"stateMutability":"view","type":"function"},{"inputs":[],"name":"nextFreeSkip","outputs":[{"internalType":"uint256","name":"","type":"uint256"}],"stateMutability":"view","type":"function"},{"inputs":[{"internalType":"address","name":"user","type":"address"}],"name":"getWeeklyCompletions","outputs":[{"internalType":"uint256","name":"","type":"uint256"}],"stateMutability":"view","type":"function"},{"inputs":[],"name":"getWeekNumber","outputs":[{"internalType":"uint256","name":"","type":"uint256"}],"stateMutability":"view","type":"function"},{"inputs":[{"internalType":"uint256","name":"varField","type":"uint256"},{"internalType":"uint256","name":"value","type":"uint256"}],"name":"setVar","outputs":[],"stateMutability":"nonpayable","type":"function"},{"inputs":[{"internalType":"uint256[]","name":"varFields","type":"uint256[]"},{"internalType":"uint256[]","name":"values","type":"uint256[]"}],"name":"setVars","outputs":[],"stateMutability":"nonpayable","type":"function"},{"inputs":[{"internalType":"uint256","name":"tier","type":"uint256"},{"internalType":"uint256[4]","name":"chances","type":"uint256[4]"}],"name":"setTierChances","outputs":[],"stateMutability":"nonpayable","type":"function"},{"inputs":[{"internalType":"uint8","name":"tier","type":"uint8"},{"internalType":"enum SimpleQuests.ItemType","name":"requirementType","type":"uint8"},{"internalType":"uint256","name":"requirementRarity","type":"uint256"},{"internalType":"uint256","name":"requirementAmount","type":"uint256"},{"internalType":"address","name":"requirementExternalAddress","type":"address"},{"internalType":"enum SimpleQuests.ItemType","name":"rewardType","type":"uint8"},{"internalType":"uint256","name":"rewardRarity","type":"uint256"},{"internalType":"uint256","name":"rewardAmount","type":"uint256"},{"internalType":"address","name":"rewardExternalAddress","type":"address"},{"internalType":"uint256","name":"reputationAmount","type":"uint256"},{"internalType":"uint256","name":"supply","type":"uint256"},{"internalType":"uint256","name":"deadline","type":"uint256"}],"name":"addNewQuestTemplate","outputs":[],"stateMutability":"nonpayable","type":"function"},{"inputs":[{"internalType":"enum SimpleQuests.ItemType","name":"rewardType","type":"uint8"},{"internalType":"uint256","name":"rewardRarity","type":"uint256"},{"internalType":"uint256","name":"rewardAmount","type":"uint256"},{"internalType":"address","name":"rewardExternalAddress","type":"address"},{"internalType":"uint256","name":"reputationAmount","type":"uint256"},{"internalType":"uint256","name":"weekNumber","type":"uint256"},{"internalType":"uint256","name":"completionsGoal","type":"uint256"}],"name":"setWeeklyReward","outputs":[],"stateMutability":"nonpayable","type":"function"},{"inputs":[{"internalType":"uint256","name":"tier","type":"uint256"},{"internalType":"uint256","name":"questID","type":"uint256"}],"name":"deleteQuestTemplate","outputs":[],"stateMutability":"nonpayable","type":"function"}],"bytecode":"0x608060405234801561001057600080fd5b50615eaa80620000216000396000f3fe608060405234801561001057600080fd5b50600436106104805760003560e01c80637e49ceb211610257578063be7c283711610146578063dd4e98ea116100c3578063ec8ed62511610087578063ec8ed62514610fee578063eef7e7a314611043578063f301af421461104b578063f6e27f9c146110b8578063fb2a3bdc146110e457610480565b8063dd4e98ea14610ec2578063e085f98014610edf578063e636b20814610f9d578063e71a136a14610fc9578063e9cb34f214610fe657610480565b8063ca316d701161010a578063ca316d7014610e31578063d070bb5414610e4e578063d129c75514610e56578063d547741f14610e79578063da396a7114610ea557610480565b8063be7c283714610dac578063bf0b9d3514610dc9578063c0af959014610def578063c2a7410314610e0c578063ca15c87314610e1457610480565b80639456747d116101d4578063a4b1d7ca11610198578063a4b1d7ca14610cfd578063a6bd920514610d05578063b352abd814610d22578063b5e5391e14610d9c578063b7e1cd8614610da457610480565b80639456747d14610cba5780639df8960514610cdd5780639e00de8214610ce55780639f4c87b914610ced578063a217fddf14610cf557610480565b80638bcd28631161021b5780638bcd286314610bcf5780638bfd267114610c255780638d6e208514610c485780639010d07c14610c6b57806391d1485414610c8e57610480565b80637e49ceb214610b26578063824deaff14610b43578063827111ec14610b4b578063881c287114610b685780638a29e2de14610b7057610480565b80633b2f3373116103735780635504d3d2116102f05780636870f3e0116102b45780636870f3e014610a2b57806369aa9c1a14610a4b5780636a632ed214610a535780636c992a5514610afb5780636df087b914610b1e57610480565b80635504d3d2146109be57806356329ee6146109c65780635dbf0cc7146109ce578063638c7897146109eb578063642fe7e614610a0857610480565b80634f1126bc116103375780634f1126bc1461093c578063514f567b14610944578063528be0a914610967578063540c24191461098457806354f48fe6146109a157610480565b80633b2f33731461088a5780633c6fce11146108925780633e8bde3b1461090057806342ba36e6146109085780634c3555531461091057610480565b80631c928e361161040157806326031c24116103c557806326031c24146107c157806328203710146107f25780632f2ff15d1461081557806336568abe1461084157806339e0ebc11461086d57610480565b80631c928e36146106905780631e3e966c146106bc57806322cc2243146106d9578063248a9ca3146106fc57806325d0f6b71461071957610480565b8063148085991161044857806314808599146105a857806316a71cfc146105c657806317441d4c146105ce57806318524f61146105d65780631c25cca61461062357610480565b806305120dee1461048557806306f57add1461049f5780630a7501bb146104a75780630ed7d45714610567578063118917e314610584575b600080fd5b61048d611101565b60408051918252519081900360200190f35b61048d611107565b610565600480360360408110156104bd57600080fd5b810190602081018135600160201b8111156104d757600080fd5b8201836020820111156104e957600080fd5b803590602001918460208302840111600160201b8311171561050a57600080fd5b919390929091602081019035600160201b81111561052757600080fd5b82018360208201111561053957600080fd5b803590602001918460208302840111600160201b8311171561055a57600080fd5b509092509050611117565b005b6105656004803603602081101561057d57600080fd5b5035611176565b61058c61123a565b604080516001600160a01b039092168252519081900360200190f35b6105b0611249565b6040805160ff9092168252519081900360200190f35b61058c61124e565b6105b061125d565b610565600480360360e08110156105ec57600080fd5b5060ff813516906020810135906040810135906001600160a01b036060820135169060808101359060a08101359060c00135611262565b6106406004803603602081101561063957600080fd5b503561136d565b60408051602080825283518183015283519192839290830191858101910280838360005b8381101561067c578181015183820152602001610664565b505050509050019250505060405180910390f35b61048d600480360360408110156106a657600080fd5b506001600160a01b038135169060200135611543565b61048d600480360360208110156106d257600080fd5b5035611560565b610640600480360360408110156106ef57600080fd5b5080359060200135611573565b61048d6004803603602081101561071257600080fd5b5035611825565b6105656004803603604081101561072f57600080fd5b81359190810190604081016020820135600160201b81111561075057600080fd5b82018360208201111561076257600080fd5b803590602001918460208302840111600160201b8311171561078357600080fd5b91908080602002602001604051908101604052809392919081815260200183836020028082843760009201919091525092955061183a945050505050565b6107de600480360360208110156107d757600080fd5b503561186c565b604080519115158252519081900360200190f35b6105656004803603604081101561080857600080fd5b508035906020013561188e565b6105656004803603604081101561082b57600080fd5b50803590602001356001600160a01b03166118a4565b6105656004803603604081101561085757600080fd5b50803590602001356001600160a01b031661190c565b6107de6004803603602081101561088357600080fd5b503561196d565b6105b0611a34565b610640600480360360208110156108a857600080fd5b810190602081018135600160201b8111156108c257600080fd5b8201836020820111156108d457600080fd5b803590602001918460208302840111600160201b831117156108f557600080fd5b509092509050611a39565b6105b0611ad8565b61048d611add565b6107de6004803603604081101561092657600080fd5b506001600160a01b038135169060200135611aeb565b6105b0611b0b565b61048d6004803603604081101561095a57600080fd5b5080359060200135611b10565b6106406004803603602081101561097d57600080fd5b5035611b32565b6106406004803603602081101561099a57600080fd5b5035611b3f565b61048d600480360360208110156109b757600080fd5b5035611d27565b61048d611d39565b61048d611d5b565b61048d600480360360208110156109e457600080fd5b5035611d61565b61048d60048036036020811015610a0157600080fd5b5035611d73565b61048d60048036036040811015610a1e57600080fd5b5080359060200135611d85565b61064060048036036020811015610a4157600080fd5b503560ff16611db3565b6105b0611e19565b61056560048036036040811015610a6957600080fd5b81359190810190604081016020820135600160201b811115610a8a57600080fd5b820183602082011115610a9c57600080fd5b803590602001918460208302840111600160201b83111715610abd57600080fd5b919080806020026020016040519081016040528093929190818152602001838360200280828437600092019190915250929550611e1e945050505050565b61056560048036036040811015610b1157600080fd5b5080359060200135611e33565b610640611e4d565b61048d60048036036020811015610b3c57600080fd5b5035611f27565b61058c611f39565b6107de60048036036020811015610b6157600080fd5b5035611f48565b6105b0611f90565b6105656004803603610100811015610b8757600080fd5b506001600160a01b038135811691602081013582169160408201358116916060810135821691608082013581169160a081013582169160c082013581169160e0013516611f95565b610565600480360360a0811015610be557600080fd5b604080516080818101909252833593928301929160a083019190602084019060049083908390808284376000920191909152509194506120ff9350505050565b61056560048036036040811015610c3b57600080fd5b5080359060200135612126565b61048d60048036036040811015610c5e57600080fd5b508035906020013561215c565b61058c60048036036040811015610c8157600080fd5b5080359060200135612230565b6107de60048036036040811015610ca457600080fd5b50803590602001356001600160a01b0316612255565b61056560048036036040811015610cd057600080fd5b5080359060200135612273565b61058c6122a5565b61058c6122b4565b6105b06122c3565b61048d6122c3565b61058c6122c8565b61048d60048036036020811015610d1b57600080fd5b50356122d7565b6105656004803603610180811015610d3957600080fd5b5060ff813581169160208101358216916040820135916060810135916001600160a01b03608083013581169260a08101359092169160c08101359160e08201359161010081013590911690610120810135906101408101359061016001356122ff565b6105b0612642565b61058c612647565b61048d60048036036020811015610dc257600080fd5b5035612656565b61048d60048036036020811015610ddf57600080fd5b50356001600160a01b0316612668565b61056560048036036020811015610e0557600080fd5b5035612693565b6105b0612709565b61048d60048036036020811015610e2a57600080fd5b503561270e565b61056560048036036020811015610e4757600080fd5b5035612725565b61058c61277f565b61048d60048036036040811015610e6c57600080fd5b508035906020013561278e565b61056560048036036040811015610e8f57600080fd5b50803590602001356001600160a01b03166128d5565b6107de60048036036020811015610ebb57600080fd5b503561292e565b61048d60048036036020811015610ed857600080fd5b5035612970565b610efc60048036036020811015610ef557600080fd5b5035612982565b604051808c81526020018b6004811115610f1257fe5b60ff1681526020018a600c811115610f2657fe5b60ff168152602001898152602001888152602001876001600160a01b03166001600160a01b0316815260200186600c811115610f5e57fe5b60ff1681526020810195909552506040808501939093526001600160a01b0390911660608401526080830152519081900360a001975095505050505050f35b61048d60048036036040811015610fb357600080fd5b506001600160a01b0381351690602001356129ec565b61048d60048036036020811015610fdf57600080fd5b5035612a09565b61048d612a1b565b61100b6004803603602081101561100457600080fd5b5035612a29565b6040518082608080838360005b83811015611030578181015183820152602001611018565b5050505090500191505060405180910390f35b6105b0612a74565b6110686004803603602081101561106157600080fd5b5035612a79565b6040518087815260200186600c81111561107e57fe5b60ff1681526020810195909552506040808501939093526001600160a01b0390911660608401526080830152519081900360a00192509050f35b61048d600480360360408110156110ce57600080fd5b506001600160a01b038135169060200135612abe565b6107de600480360360208110156110fa57600080fd5b5035612adb565b606d5481565b6001603562093a80420406015b90565b61111f612b24565b60005b8381101561116f5782828281811061113657fe5b905060200201356076600087878581811061114d57fe5b6020908102929092013583525081019190915260400160002055600101611122565b5050505050565b61117e612b85565b8061118881612bf7565b606b54604080517014d1515117d490539113d357d4555154d5607a1b815290519081900360110190206001600160a01b039091169063775eb0e29030906111cf9086612cc2565b6040518363ffffffff1660e01b815260040180836001600160a01b03166001600160a01b0316815260200182815260200192505050600060405180830381600087803b15801561121e57600080fd5b505af1158015611232573d6000803e3d6000fd5b505050505050565b606c546001600160a01b031681565b600481565b606a546001600160a01b031681565b601e81565b61126a612b24565b6040518060c0016040528083815260200188600c81111561128757fe5b8152602080820189905260408083018990526001600160a01b038816606084015260809092018690526000858152607a825291909120825181559082015160018083018054909160ff199091169083600c8111156112e157fe5b021790555060408281015160028301556060830151600383015560808301516004830180546001600160a01b0319166001600160a01b0390921691909117905560a0909201516005909101556000838152607c602052818120839055905183917fde88a922e0d3b88b24e9623efeb464919c6bf9f66857a65e2bfcf2ce87a9433d91a250505050505050565b604080516003808252608082019092526060918291906020820183803683370190505090506065816000815181106113a157fe5b6020026020010181815250506066816001815181106113bc57fe5b6020026020010181815250506067816002815181106113d757fe5b6020908102919091018101919091526065546040805163736f7e3f60e11b815260048101878152602482019283528551604483015285516001600160a01b039094169463e6defc7e94899488949092606490910191858201910280838360005b8381101561144f578181015183820152602001611437565b50505050905001935050505060006040518083038186803b15801561147357600080fd5b505afa158015611487573d6000803e3d6000fd5b505050506040513d6000823e601f3d908101601f1916820160405260208110156114b057600080fd5b8101908080516040519392919084600160201b8211156114cf57600080fd5b9083019060208201858111156114e457600080fd5b82518660208202830111600160201b8211171561150057600080fd5b82525081516020918201928201910280838360005b8381101561152d578181015183820152602001611515565b505050509050016040525050509150505b919050565b607d60209081526000928352604080842090915290825290205481565b600061156d82600061278e565b92915050565b606061157d612b85565b8261158781612bf7565b8360016115948282612cee565b606061159f8761136d565b600088815260746020908152604080832054835260709091528120600301548251929350918391906115cd57fe5b60200260200101511015611618576040805162461bcd60e51b815260206004820152600d60248201526c139bdd0818dbdb5c1b195d1959609a1b604482015290519081900360640190fd5b600087815260746020908152604080832054808452607290925290912054158061165057506000818152607260205260409020544211155b61169d576040805162461bcd60e51b8152602060048201526019602482015278145d595cdd08191958591b1a5b99481a185cc81c185cdcd959603a1b604482015290519081900360640190fd5b6000826002815181106116ac57fe5b602002602001015190506116c0828a612d4a565b965088827fc8427f15d54209e9691dce5b2415c5f2a10ceff9ecb9c175fff348a54447f6b5896040518080602001828103825283818151815260200191508051906020019060200280838360005b8381101561172657818101518382015260200161170e565b505050509050019250505060405180910390a3606554600083815260706020526040808220600801548151631f771def60e31b8152600481018e905260676024820152908501604482015290516001600160a01b039093169263fbb8ef789260648084019391929182900301818387803b1580156117a357600080fd5b505af11580156117b7573d6000803e3d6000fd5b50506040518b92508491507f6e58b9f6dc1e040be5951c2cd88cef3786c6cafdf8d62e229336fd558518f51190600090a333600090815260786020908152604080832062093a80420484529091529020805460010190556118188989612f2f565b5050505050505092915050565b60009081526033602052604090206002015490565b8160016118478282612cee565b6000848152607460205260409020546118608185612fa5565b61116f85828651613c1b565b6000818152607760205260408120546201518090046201518042041192915050565b611896612b24565b6118a08282613dba565b5050565b6000828152603360205260409020600201546118c7906118c2613e63565b612255565b6119025760405162461bcd60e51b815260040180806020018281038252602f815260200180615d99602f913960400191505060405180910390fd5b6118a08282613e67565b611914613e63565b6001600160a01b0316816001600160a01b0316146119635760405162461bcd60e51b815260040180806020018281038252602f815260200180615e46602f913960400191505060405180910390fd5b6118a08282613ed6565b606b54604080517014d1515117d490539113d357d4555154d5607a1b815290519081900360110190206000916001600160a01b0316906378f508499030906119b59086612cc2565b6040518363ffffffff1660e01b815260040180836001600160a01b03166001600160a01b031681526020018281526020019250505060206040518083038186803b158015611a0257600080fd5b505afa158015611a16573d6000803e3d6000fd5b505050506040513d6020811015611a2c57600080fd5b505192915050565b600181565b6060808267ffffffffffffffff81118015611a5357600080fd5b50604051908082528060200260200182016040528015611a7d578160200160208202803683370190505b50905060005b83811015611ad05760766000868684818110611a9b57fe5b90506020020135815260200190815260200160002054828281518110611abd57fe5b6020908102919091010152600101611a83565b509392505050565b601681565b620151804281810690030190565b607960209081526000928352604080842090915290825290205460ff1681565b601481565b60756020528160005260406000208160048110611b2957fe5b01549150829050565b606061156d826000611573565b6060611b49612b85565b600082815260706020908152604080832060030154338452607d8352818420868552909252909120541015611bb5576040805162461bcd60e51b815260206004820152600d60248201526c139bdd0818dbdb5c1b195d1959609a1b604482015290519081900360640190fd5b6000828152607260205260409020541580611bde57506000828152607260205260409020544211155b611c2b576040805162461bcd60e51b8152602060048201526019602482015278145d595cdd08191958591b1a5b99481a185cc81c185cdcd959603a1b604482015290519081900360640190fd5b611c3482613f45565b9050336001600160a01b0316827f52790295db8a9172d05ce63d6a89c332757ae1a1760f64d9543133b0efcc623f836040518080602001828103825283818151815260200191508051906020019060200280838360005b83811015611ca3578181015183820152602001611c8b565b505050509050019250505060405180910390a3604051339083907f645b576ea1b70b2a340735005c6d0c3302b40b8079e0cc149f1db4d606be382d90600090a333600081815260786020908152604080832062093a8042048452825280832080546001019055928252607d815282822085835290529081205561153e601e83614081565b60776020526000908152604090205481565b604080516923a0a6a2afa0a226a4a760b11b8152905190819003600a01902081565b606e5481565b60716020526000908152604090205481565b60736020526000908152604090205481565b606f6020528160005260406000208181548110611d9e57fe5b90600052602060002001600091509150505481565b60ff81166000908152606f6020908152604091829020805483518184028101840190945280845260609392830182828015611e0d57602002820191906000526020600020905b815481526020019060010190808311611df9575b50505050509050919050565b600381565b611e288282612fa5565b6118a08282516140bb565b611e3b612b24565b60009182526076602052604090912055565b6060611e57612b85565b33611e61816141e3565b6000611e6b611107565b9050611e76816142d1565b33600081815260796020908152604080832062093a80420484528252808320805460ff191660011790558051848152808301828152865192820192909252855195985086957f634fa0b18fc7fcc1061e134b54dfca10a684d7a83b313b6336064774ae5b74df95948a949293926060850192868201929102908190849084905b83811015611f0e578181015183820152602001611ef6565b50505050905001935050505060405180910390a2505090565b607c6020526000908152604090205481565b6068546001600160a01b031681565b606b54604080517014d1515117d49155d0549117d4555154d5607a1b815290519081900360110190206000916001600160a01b0316906378f508499030906119b59086612cc2565b600281565b600054610100900460ff1680611fae5750611fae614455565b80611fbc575060005460ff16155b611ff75760405162461bcd60e51b815260040180806020018281038252602e815260200180615df8602e913960400191505060405180910390fd5b600054610100900460ff16158015612022576000805460ff1961ff0019909116610100171660011790555b61202a614466565b612035600033611902565b604080516923a0a6a2afa0a226a4a760b11b8152905190819003600a01902061205e9033611902565b606580546001600160a01b03199081166001600160a01b038c8116919091179092556066805482168b84161790556067805482168a8416179055606880548216898416179055606980548216888416179055606a80548216878416179055606b80548216868416179055606c80549091169184169190911790556001606d819055606e5580156120f4576000805461ff00191690555b505050505050505050565b612107612b24565b600082815260756020526040902061212190826004615c82565b505050565b60408051600080516020615e268339815191528152905190819003601801902061215290839083614507565b6118a082826140bb565b6000612166612b85565b8261217081612bf7565b83600061217d8282612cee565b6000858152607360205260409020547f5675add1d3f57e079f04f4d3ee4a9ca6a807a5db488f114c93dc2e66105da720805490919081106121ba57fe5b906000526020600020015485146121d057600080fd5b6000858152607360205260409020547f5675add1d3f57e079f04f4d3ee4a9ca6a807a5db488f114c93dc2e66105da7208054612226928992601492909190811061221657fe5b9060005260206000200154614967565b9695505050505050565b600082815260336020526040812061224e908363ffffffff614b8516565b9392505050565b600082815260336020526040812061224e908363ffffffff614b9116565b8160016122808282612cee565b60008481526074602052604090205461229a818686614507565b61116f858286613c1b565b6067546001600160a01b031681565b6069546001600160a01b031681565b600081565b606b546001600160a01b031681565b60006122e1612b85565b8160006122ee8282612cee565b6122f784614ba6565b949350505050565b612307612b24565b6000606d6000815480929190600101919050559050604051806101600160405280828152602001600a8f60ff168161233b57fe5b0660ff16600481111561234a57fe5b600481111561235557fe5b81526020018d600c81111561236657fe5b81526020018c81526020018b81526020018a6001600160a01b0316815260200189600c81111561239257fe5b815260208082018a905260408083018a90526001600160a01b0389166060840152608090920187905260008481526070825291909120825181559082015160018083018054909160ff19909116908360048111156123ec57fe5b0217905550604082015160018201805461ff00191661010083600c81111561241057fe5b0217905550606082015160028201556080820151600382015560a08201516004820180546001600160a01b0319166001600160a01b039092169190911780825560c0840151919060ff60a01b1916600160a01b83600c81111561246f57fe5b021790555060e0820151600582015561010082015160068201556101208201516007820180546001600160a01b0319166001600160a01b039092169190911790556101409091015160089091015560ff8d166000908152606f6020908152604080832080546001810182558185528385200185905554848452607390925290912060001991909101905582156125665760008211612547576040805162461bcd60e51b815260206004820152601060248201526f4d697373696e6720646561646c696e6560801b604482015290519081900360640190fd5b6000818152607160209081526040808320869055607290915290208290555b601e8d60ff1614156126335760068c600c81111561258057fe5b1415801561259a575060088c600c81111561259757fe5b14155b6125d9576040805162461bcd60e51b815260206004820152600b60248201526a15dc9bdb99c81a5b9c1d5d60aa1b604482015290519081900360640190fd5b831580156125f35750600988600c8111156125f057fe5b14155b612633576040805162461bcd60e51b815260206004820152600c60248201526b15dc9bdb99c81c995dd85c9960a21b604482015290519081900360640190fd5b50505050505050505050505050565b601781565b6066546001600160a01b031681565b60726020526000908152604090205481565b6001600160a01b0316600090815260786020908152604080832062093a804204845290915290205490565b61269b612b85565b806126a581612bf7565b8160016126b28282612cee565b60606126bd8561136d565b600086815260746020908152604080832054835260709091528120600301548251929350918391906126eb57fe5b602002602001015110156126fe57600080fd5b61116f856000614fa4565b600981565b600081815260336020526040812061156d90615046565b61272d612b85565b33612737816141e3565b606b546040805171534545445f5245574152445f5745454b4c5960701b815290519081900360120190206001600160a01b039091169063775eb0e29033906111cf9086612cc2565b6065546001600160a01b031681565b6000612798612b85565b8260016127a58282612cee565b846127af81612bf7565b6127b88661186c565b156127d3576000868152607760205260409020429055612894565b606554601e600090815260766020527f98c0262480d37137dbea123b8bfcfc0b9025cfbfeb22c53caaf0ad688ae455215460408051634946e9cb60e01b8152336004820152602481018b905260ff9092166044830152606482018390526084820183905280516001600160a01b0390941693634946e9cb9360a4808501948390030190829087803b15801561286757600080fd5b505af115801561287b573d6000803e3d6000fd5b505050506040513d604081101561289157600080fd5b50505b60008681526074602052604080822054905188927f370ed3b7a6872b2d0787e32fb5cd7dcf00b53eac3b0536bc20d4178c7504209191a36122268686612f2f565b6000828152603360205260409020600201546128f3906118c2613e63565b6119635760405162461bcd60e51b8152600401808060200182810382526030815260200180615dc86030913960400191505060405180910390fd5b606b5460408051600080516020615e26833981519152815290519081900360180190206000916001600160a01b0316906378f508499033906119b59086612cc2565b60746020526000908152604090205481565b607060205260009081526040902080546001820154600283015460038401546004850154600586015460068701546007880154600890980154969760ff808816986101009098048116976001600160a01b0380871696600160a01b9004909216949392909116908b565b607860209081526000928352604080842090915290825290205481565b60766020526000908152604090205481565b62093a804281810690030190565b612a31615cc0565b600082815260756020526040908190208151608081019092526004828282602002820191815481526020019060010190808311611df95750505050509050919050565b601581565b607a60205260009081526040902080546001820154600283015460038401546004850154600590950154939460ff90931693919290916001600160a01b039091169086565b607e60209081526000928352604080842090915290825290205481565b606b546040805171534545445f5245574152445f5745454b4c5960701b815290519081900360120190206000916001600160a01b0316906378f508499033906119b59086612cc2565b604080516923a0a6a2afa0a226a4a760b11b8152905190819003600a019020612b4d9033612255565b612b83576040805162461bcd60e51b81526020600482015260026024820152614e4160f01b604482015290519081900360640190fd5b565b600960005260766020527fe6cb35c43c3b4175983aaa0fac5294e286cf164f8070fa10bee8ab33c7e331b654600114612b83576040805162461bcd60e51b815260206004820152600f60248201526e145d595cdd1cc8191a5cd8589b1959608a1b604482015290519081900360640190fd5b606554604080516331a9108f60e11b815260048101849052905133926001600160a01b031691636352211e916024808301926020929190829003018186803b158015612c4257600080fd5b505afa158015612c56573d6000803e3d6000fd5b505050506040513d6020811015612c6c57600080fd5b50516001600160a01b031614612cbf576040805162461bcd60e51b81526020600482015260136024820152722737ba1031b430b930b1ba32b91037bbb732b960691b604482015290519081900360640190fd5b50565b604080516020808201949094528082019290925280518083038201815260609092019052805191012090565b6000828152607460205260409020541515811515146118a0576040805162461bcd60e51b8152602060048201526013602482015272496e76616c696420717565737420737461746560681b604482015290519081900360640190fd5b606b54604080517014d1515117d49155d0549117d4555154d5607a1b815290519081900360110190206060916000916001600160a01b039091169063fd4cc5c4903090612d979087612cc2565b604080516001600160e01b031960e086901b1681526001600160a01b03909316600484015260248301919091526001604483015260006064830181905290516084808401936020939083900390910190829087803b158015612df857600080fd5b505af1158015612e0c573d6000803e3d6000fd5b505050506040513d6020811015612e2257600080fd5b5051600085815260706020908152604091829020825161016081019093528054835260018101549394506122f793612f28939283019060ff166004811115612e6657fe5b6004811115612e7157fe5b81526020016001820160019054906101000a900460ff16600c811115612e9357fe5b600c811115612e9e57fe5b8152600282015460208201526003820154604082015260048201546001600160a01b0381166060830152608090910190600160a01b900460ff16600c811115612ee357fe5b600c811115612eee57fe5b8152600582015460208201526006820154604082015260078201546001600160a01b03166060820152600890910154608090910152615051565b84836150bc565b600081612f4657612f3f83614ba6565b905061156d565b6000828152607360205260409020547f5675add1d3f57e079f04f4d3ee4a9ca6a807a5db488f114c93dc2e66105da72080549091908110612f8357fe5b90600052602060002001548214612f9957600080fd5b612f3f83601484614967565b612fad612b85565b8051612fee576040805162461bcd60e51b815260206004820152600b60248201526a4e6f20746f6b656e49647360a81b604482015290519081900360640190fd5b612ff6615cde565b60008381526070602090815260409182902082516101608101909352805483526001810154909183019060ff16600481111561302e57fe5b600481111561303957fe5b81526020016001820160019054906101000a900460ff16600c81111561305b57fe5b600c81111561306657fe5b8152600282015460208201526003820154604082015260048201546001600160a01b0381166060830152608090910190600160a01b900460ff16600c8111156130ab57fe5b600c8111156130b657fe5b8152600582015460208201526006820154604082015260078201546001600160a01b03166060820152600890910154608090910152905060018160400151600c8111156130ff57fe5b141561337b5760005b82518110156132d857600083828151811061311f57fe5b60200260200101519050336001600160a01b0316606660009054906101000a90046001600160a01b03166001600160a01b0316636352211e836040518263ffffffff1660e01b81526004018082815260200191505060206040518083038186803b15801561318c57600080fd5b505afa1580156131a0573d6000803e3d6000fd5b505050506040513d60208110156131b657600080fd5b50516001600160a01b031614613206576040805162461bcd60e51b815260206004820152601060248201526f2737ba103bb2b0b837b71037bbb732b960811b604482015290519081900360640190fd5b60608301516066546040805163056f827960e51b81526004810185905290516001600160a01b039092169163adf04f2091602480820192602092909190829003018186803b15801561325757600080fd5b505afa15801561326b573d6000803e3d6000fd5b505050506040513d602081101561328157600080fd5b505160ff1610156132cf576040805162461bcd60e51b815260206004820152601360248201527257726f6e6720776561706f6e2072617269747960681b604482015290519081900360640190fd5b50600101613108565b506066546040516254b2bd60e81b81526020600482018181528551602484015285516001600160a01b03909416936354b2bd009387938392604490920191818601910280838360005b83811015613339578181015183820152602001613321565b5050505090500192505050600060405180830381600087803b15801561335e57600080fd5b505af1158015613372573d6000803e3d6000fd5b50505050612121565b60028160400151600c81111561338d57fe5b14156135c15760005b82518110156135625760008382815181106133ad57fe5b60200260200101519050336001600160a01b0316606760009054906101000a90046001600160a01b03166001600160a01b0316636352211e836040518263ffffffff1660e01b81526004018082815260200191505060206040518083038186803b15801561341a57600080fd5b505afa15801561342e573d6000803e3d6000fd5b505050506040513d602081101561344457600080fd5b50516001600160a01b031614613492576040805162461bcd60e51b815260206004820152600e60248201526d2737ba10353ab7359037bbb732b960911b604482015290519081900360640190fd5b606083015160675460408051630e7dbbbf60e11b81526004810185905290516001600160a01b0390921691631cfb777e91602480820192602092909190829003018186803b1580156134e357600080fd5b505afa1580156134f7573d6000803e3d6000fd5b505050506040513d602081101561350d57600080fd5b505160ff161015613559576040805162461bcd60e51b815260206004820152601160248201527057726f6e67206a756e6b2072617269747960781b604482015290519081900360640190fd5b50600101613396565b5060675460405163b80f55c960e01b81526020600482018181528551602484015285516001600160a01b039094169363b80f55c99387938392604490920191858201910280838360008315613339578181015183820152602001613321565b60048160400151600c8111156135d357fe5b141561380d5760005b82518110156137ae5760008382815181106135f357fe5b60200260200101519050336001600160a01b0316606860009054906101000a90046001600160a01b03166001600160a01b0316636352211e836040518263ffffffff1660e01b81526004018082815260200191505060206040518083038186803b15801561366057600080fd5b505afa158015613674573d6000803e3d6000fd5b505050506040513d602081101561368a57600080fd5b50516001600160a01b0316146136db576040805162461bcd60e51b81526020600482015260116024820152702737ba103a3934b735b2ba1037bbb732b960791b604482015290519081900360640190fd5b606083015160685460408051630e7dbbbf60e11b81526004810185905290516001600160a01b0390921691631cfb777e91602480820192602092909190829003018186803b15801561372c57600080fd5b505afa158015613740573d6000803e3d6000fd5b505050506040513d602081101561375657600080fd5b505160ff1610156137a5576040805162461bcd60e51b815260206004820152601460248201527357726f6e67207472696e6b65742072617269747960601b604482015290519081900360640190fd5b506001016135dc565b5060685460405163b80f55c960e01b81526020600482018181528551602484015285516001600160a01b039094169363b80f55c99387938392604490920191858201910280838360008315613339578181015183820152602001613321565b60058160400151600c81111561381f57fe5b1415613a575760005b82518110156139f857600083828151811061383f57fe5b60200260200101519050336001600160a01b0316606960009054906101000a90046001600160a01b03166001600160a01b0316636352211e836040518263ffffffff1660e01b81526004018082815260200191505060206040518083038186803b1580156138ac57600080fd5b505afa1580156138c0573d6000803e3d6000fd5b505050506040513d60208110156138d657600080fd5b50516001600160a01b031614613926576040805162461bcd60e51b815260206004820152601060248201526f2737ba1039b434b2b6321037bbb732b960811b604482015290519081900360640190fd5b60608301516069546040805163056f827960e51b81526004810185905290516001600160a01b039092169163adf04f2091602480820192602092909190829003018186803b15801561397757600080fd5b505afa15801561398b573d6000803e3d6000fd5b505050506040513d60208110156139a157600080fd5b505160ff1610156139ef576040805162461bcd60e51b815260206004820152601360248201527257726f6e6720736869656c642072617269747960681b604482015290519081900360640190fd5b50600101613828565b5060695460405163b80f55c960e01b81526020600482018181528551602484015285516001600160a01b039094169363b80f55c99387938392604490920191858201910280838360008315613339578181015183820152602001613321565b600a8160400151600c811115613a6957fe5b1415613b0857606c5460a0820151604080516327665fed60e21b81526001600160a01b0383811660048301908152602483019384528751604484015287519190951694639d997fb49493889391929091606401906020808601910280838360005b83811015613ae2578181015183820152602001613aca565b505050509050019350505050600060405180830381600087803b15801561335e57600080fd5b600b8160400151600c811115613b1a57fe5b1415613bce57606c5460a08201516040516340b4180f60e01b81526001600160a01b038281166004830190815233604484018190526064840189905260806024850190815288516084860152885193909616956340b4180f9594899492938b9390929160a401906020808801910280838360005b83811015613ba6578181015183820152602001613b8e565b5050505090500195505050505050600060405180830381600087803b15801561335e57600080fd5b6040805162461bcd60e51b815260206004820152601860248201527f556e6b6e6f776e20726571756972656d656e7420747970650000000000000000604482015290519081900360640190fd5b60008111613c2857600080fd5b606580546040805163783efb2560e01b81526004810187905260248101939093525160009284926001600160a01b03169163783efb2591604480820192602092909190829003018186803b158015613c7f57600080fd5b505afa158015613c93573d6000803e3d6000fd5b505050506040513d6020811015613ca957600080fd5b50516065805460408051631f771def60e31b8152600481018a90526024810193909352939092016044820181905292519293506001600160a01b039091169163fbb8ef789160648082019260009290919082900301818387803b158015613d0f57600080fd5b505af1158015613d23573d6000803e3d6000fd5b50506040518692508591507fe05374a9a02cb9f0013576c75bd0ef3171b55317ebdff7f2b9fbdf20210d9bd090600090a360008481526074602090815260408083205483526070909152902060030154613d83908263ffffffff61586a16565b613db457613d92846001614fa4565b326000908152607e602090815260408083208684529091529020805460010190555b50505050565b600081815260736020908152604080832054858452606f909252822080549192916000198101908110613de957fe5b9060005260206000200154905080606f60008681526020019081526020016000208381548110613e1557fe5b6000918252602080832090910192909255828152607382526040808220859055868252606f90925220805480613e4757fe5b6001900381819060005260206000200160009055905550505050565b3390565b6000828152603360205260409020613e85908263ffffffff6158c716565b156118a057613e92613e63565b6001600160a01b0316816001600160a01b0316837f2f8788117e7eff1d82e926ec794901d17c78024a50270940304540a733656f0d60405160405180910390a45050565b6000828152603360205260409020613ef4908263ffffffff6158dc16565b156118a057613f01613e63565b6001600160a01b0316816001600160a01b0316837ff6391f5c32d9c69d2a47ea670b442974b53935d1edc7fd64eb21e047a839171b60405160405180910390a45050565b606b5460408051600080516020615e26833981519152815290519081900360180190206060916000916001600160a01b039091169063fd4cc5c4903390613f8c9087612cc2565b604080516001600160e01b031960e086901b1681526001600160a01b03909316600484015260248301919091526001604483015260006064830181905290516084808401936020939083900390910190829087803b158015613fed57600080fd5b505af1158015614001573d6000803e3d6000fd5b505050506040513d602081101561401757600080fd5b50516000848152607060209081526040918290208251610160810190935280548352600181015493945061224e9361405b939283019060ff166004811115612e6657fe5b60408051600080516020615e2683398151915281529051908190036018019020836150bc565b600081815260716020526040902054156118a0576000818152607160205260409020805460001901908190556118a0576118a08282613dba565b600081116140c857600080fd5b6000828152607360205260409020547f195e19cb32a53c757f6379b7cb54dce9dce21c29098aa0d909eed412f26b46d48054909190811061410557fe5b9060005260206000200154821461411b57600080fd5b326000908152607e602090815260408083208584529091529020541561414057600080fd5b336000818152607d602090815260408083208684529091528082208054850190819055905190929185917f3a75beb9093482f20af9201d383d16205421572864f41cae38bb6ba6328efe759190a36000838152607060205260409020600301546141b0908263ffffffff61586a16565b612121576141bf8360016158f1565b5050326000908152607e602090815260408083209383529290522080546001019055565b6001600160a01b038116600090815260796020908152604080832062093a804204845290915290205460ff161561425a576040805162461bcd60e51b815260206004820152601660248201527514995dd85c9908185b1c9958591e4818db185a5b595960521b604482015290519081900360640190fd5b607c6000614266611107565b81526020019081526020016000205461427e82612668565b1015612cbf576040805162461bcd60e51b815260206004820152601d60248201527f4e6f7420656e6f756768207765656b6c7920636f6d706c6574696f6e73000000604482015290519081900360640190fd5b606b546040805171534545445f5245574152445f5745454b4c5960701b815290519081900360120190206060916000916001600160a01b039091169063fd4cc5c490329061431f9087612cc2565b604080516001600160e01b031960e086901b1681526001600160a01b039093166004840152602483019190915260016044830181905260648301525160848083019260209291908290030181600087803b15801561437c57600080fd5b505af1158015614390573d6000803e3d6000fd5b505050506040513d60208110156143a657600080fd5b50516000848152607a6020908152604091829020825160c0810190935280548352600181015493945061224e93909183019060ff16600c8111156143e657fe5b600c8111156143f157fe5b815260028201546020820152600382015460408083019190915260048301546001600160a01b03166060830152600590920154608090910152805171534545445f5245574152445f5745454b4c5960701b81529051908190036012019020836150bc565b600061446030615932565b15905090565b600054610100900460ff168061447f575061447f614455565b8061448d575060005460ff16155b6144c85760405162461bcd60e51b815260040180806020018281038252602e815260200180615df8602e913960400191505060405180910390fd5b600054610100900460ff161580156144f3576000805460ff1961ff0019909116610100171660011790555b8015612cbf576000805461ff001916905550565b61450f612b85565b614517615cde565b60008481526070602090815260409182902082516101608101909352805483526001810154909183019060ff16600481111561454f57fe5b600481111561455a57fe5b81526020016001820160019054906101000a900460ff16600c81111561457c57fe5b600c81111561458757fe5b8152600282015460208201526003820154604082015260048201546001600160a01b0381166060830152608090910190600160a01b900460ff16600c8111156145cc57fe5b600c8111156145d757fe5b815260058201546020820152600680830154604083015260078301546001600160a01b031660608301526008909201546080909101529091508160400151600c81111561462057fe5b14156147185760ff82111561467c576040805162461bcd60e51b815260206004820152601760248201527f496e636f7272656374207374616d696e612076616c7565000000000000000000604482015290519081900360640190fd5b60655460408051634946e9cb60e01b81523360048201526024810186905260ff851660448201526000606482018190526084820181905282516001600160a01b0390941693634946e9cb9360a4808501949193918390030190829087803b1580156146e657600080fd5b505af11580156146fa573d6000803e3d6000fd5b505050506040513d604081101561471057600080fd5b50613db49050565b60038160400151600c81111561472a57fe5b141561486d5760408051600380825260808201909252606091602082018380368337019050509050828183606001518151811061476357fe5b63ffffffff9092166020928302919091019091015260665481516001600160a01b03909116906306d382cb903390849060009061479c57fe5b6020026020010151846001815181106147b157fe5b6020026020010151856002815181106147c657fe5b60200260200101516040518563ffffffff1660e01b815260040180856001600160a01b03166001600160a01b031681526020018463ffffffff1663ffffffff1681526020018363ffffffff1663ffffffff1681526020018263ffffffff1663ffffffff168152602001945050505050600060405180830381600087803b15801561484f57600080fd5b505af1158015614863573d6000803e3d6000fd5b5050505050613db4565b60078160400151600c81111561487f57fe5b14156148f557606a5460408051633e49da5760e21b81523360048201526024810185905290516001600160a01b039092169163f927695c9160448082019260009290919082900301818387803b1580156148d857600080fd5b505af11580156148ec573d6000803e3d6000fd5b50505050613db4565b600a8160400151600c81111561490757fe5b1415613bce57606c5460a082015160408051632f4d2a7360e21b81526001600160a01b039283166004820152602481018690529051919092169163bd34a9cc91604480830192600092919082900301818387803b1580156148d857600080fd5b60006149738383614081565b600084815260746020526040908190208390558051600280825260608281019093528160200160208202803683370190505090506065816000815181106149b657fe5b6020026020010181815250506066816001815181106149d157fe5b60209081029190910101526040805160028082526060828101909352816020016020820280368337019050509050600081600081518110614a0e57fe5b602090810291909101810191909152600085815260709091526040902060010154610100900460ff16600c811115614a4257fe5b81600181518110614a4f57fe5b602090810291909101810191909152606554604051634d2a87e960e11b8152600481018981526060602483019081528651606484015286516001600160a01b0390941694639a550fd2948c948994899490939092604483019260840191878101910280838360005b83811015614acf578181015183820152602001614ab7565b50505050905001838103825284818151815260200191508051906020019060200280838360005b83811015614b0e578181015183820152602001614af6565b5050505090500195505050505050600060405180830381600087803b158015614b3657600080fd5b505af1158015614b4a573d6000803e3d6000fd5b50506040518892508691507f59bee3445660d9e7f2716c215c531d52fe1e78778d7a3bc0e519b23484cb1f8490600090a35091949350505050565b600061224e8383615938565b600061224e836001600160a01b03841661599c565b606b54604080517014d1515117d490539113d357d4555154d5607a1b8152905190819003601101902060009182916001600160a01b039091169063fd4cc5c4903090614bf29087612cc2565b604080516001600160e01b031960e086901b1681526001600160a01b039093166004840152602483019190915260016044830181905260648301525160848083019260209291908290030181600087803b158015614c4f57600080fd5b505af1158015614c63573d6000803e3d6000fd5b505050506040513d6020811015614c7957600080fd5b50516065546040805163783efb2560e01b8152600481018790526067602482015290519293506000926001600160a01b039092169163783efb2591604480820192602092909190829003018186803b158015614cd457600080fd5b505afa158015614ce8573d6000803e3d6000fd5b505050506040513d6020811015614cfe57600080fd5b50516017600090815260766020527f46d25b3f2e48c75f68abf5b8aa648dd84971beda658424d676989998e14991ed5491925090821115614d4157506004614df6565b601660005260766020527fc78680dadd4a95dc7fc73963efd60ecab3510cbb569b291b8e53ec8a98bb0c8554821115614d7c57506003614df6565b601560005260766020527f8352081bf01eebfba03bd34fb597472a7ffa1ffc3c933e4406a8702a5e0a207154821115614db757506002614df6565b601460005260766020527fb034f5741575989cdeb2fc83e8ee6f74baf08b9664ee3046655e161cff5cc06b54821115614df257506001614df6565b5060005b614dfe615cc0565b60008281526075602052604090819020815160808101928390529160049082845b815481526020019060010190808311614e1f57505050505090506000614e4860016064876159b4565b9050614e55856001612cc2565b945060008260036020020151821115614e9a5750600460005260766020527f5f873e95a7ca70fa34edd6182710b4779c3ee230d5f7e3c59b459bfaf33ba05154614f7e565b6040830151821115614ed85750600360005260766020527facb4e4a59426d7037052eff5f0338f24c5f87cd7d68a1b71a964d8a19961a67f54614f7e565b6020830151821115614f165750600260005260766020527ffdc9405d8875f0a6865ab7995c08833fbd74897223d6ff5e71245fb6bf94598b54614f7e565b8251821115614f515750600160005260766020527fc5f02c1f30a8261d7972547af25a0fdd1ec626a841920af1fd0cd13075f391ba54614f7e565b506000805260766020527fafbc767fed27552cbeceb3d11150dacedabc53b0cc52ac5aa6285a747a181958545b6000614f8a8288615a20565b9050614f97898383614967565b9998505050505050505050565b606b54604080517014d1515117d49155d0549117d4555154d5607a1b815290519081900360110190206001600160a01b03909116906349e9e07e903090614feb9086612cc2565b846040518463ffffffff1660e01b815260040180846001600160a01b03166001600160a01b03168152602001838152602001821515151581526020019350505050600060405180830381600087803b15801561121e57600080fd5b600061156d82615aad565b615059615d42565b6040518060c00160405280836000015181526020018360c00151600c81111561507e57fe5b81526020018360e00151815260200183610100015181526020018361012001516001600160a01b031681526020018361014001518152509050919050565b606060018460200151600c8111156150d057fe5b1415615200576060846060015167ffffffffffffffff811180156150f357600080fd5b5060405190808252806020026020018201604052801561511d578160200160208202803683370190505b50905060005b85606001518160ff1610156151f8576066546040808801518151633137ee2960e01b815233600482015260248101919091526044810187905260648181015290516001600160a01b0390921691633137ee29916084808201926020929091908290030181600087803b15801561519857600080fd5b505af11580156151ac573d6000803e3d6000fd5b505050506040513d60208110156151c257600080fd5b50518251839060ff84169081106151d557fe5b6020026020010181815250506151ee848260ff16612cc2565b9350600101615123565b50905061224e565b60028460200151600c81111561521257fe5b14156153505760675460408086015160608701518251630955886360e01b815233600482015260ff909216602483015263ffffffff16604482015290516001600160a01b039092169163095588639160648082019260009290919082900301818387803b15801561528257600080fd5b505af1158015615296573d6000803e3d6000fd5b505050506040513d6000823e601f3d908101601f1916820160405260208110156152bf57600080fd5b8101908080516040519392919084600160201b8211156152de57600080fd5b9083019060208201858111156152f357600080fd5b82518660208202830111600160201b8211171561530f57600080fd5b82525081516020918201928201910280838360005b8381101561533c578181015183820152602001615324565b50505050905001604052505050905061224e565b60048460200151600c81111561536257fe5b14156153d9576068546040808601516060870151825163615ce1c960e01b815233600482015260ff909216602483015263ffffffff1660448201526064810185905290516001600160a01b039092169163615ce1c99160848082019260009290919082900301818387803b15801561528257600080fd5b60058460200151600c8111156153eb57fe5b141561546a5760695460408086015160608701518251630ce071fd60e21b815233600482015260ff909216602483015260006044830181905263ffffffff90911660648301526084820186905291516001600160a01b0390931692633381c7f49260a48084019391929182900301818387803b15801561528257600080fd5b60038460200151600c81111561547c57fe5b14156155c357604080516003808252608082019092526060916020820183803683370190505090508460600151818660400151815181106154b957fe5b63ffffffff9092166020928302919091019091015260665481516001600160a01b0390911690637a39589390339084906000906154f257fe5b60200260200101518460018151811061550757fe5b60200260200101518560028151811061551c57fe5b60200260200101516040518563ffffffff1660e01b815260040180856001600160a01b03166001600160a01b031681526020018463ffffffff1663ffffffff1681526020018363ffffffff1663ffffffff1681526020018263ffffffff1663ffffffff168152602001945050505050600060405180830381600087803b1580156155a557600080fd5b505af11580156155b9573d6000803e3d6000fd5b5050505050615853565b60098460200151600c8111156155d557fe5b141561565457606554606085015160408051630fc0057560e01b81526004810187905261ffff9092166024830152516001600160a01b0390921691630fc005759160448082019260009290919082900301818387803b15801561563757600080fd5b505af115801561564b573d6000803e3d6000fd5b50505050615853565b60078460200151600c81111561566657fe5b14156156c457606a546060850151604080516309b4ca2160e41b81523360048201526024810192909252516001600160a01b0390921691639b4ca2109160448082019260009290919082900301818387803b15801561563757600080fd5b600a8460200151600c8111156156d657fe5b141561574857606c5460808501516060860151604080516335958b7160e21b81526001600160a01b03938416600482015233602482015260448101929092526064820186905251919092169163d6562dc491608480830192600092919082900301818387803b15801561563757600080fd5b600c8460200151600c81111561575a57fe5b14156158105760005b84606001518160ff16101561580a57606554604080516340c10f1960e01b81523360048201526024810186905290516001600160a01b03909216916340c10f19916044808201926020929091908290030181600087803b1580156157c657600080fd5b505af11580156157da573d6000803e3d6000fd5b505050506040513d60208110156157f057600080fd5b5061580090508360ff8316612cc2565b9250600101615763565b50615853565b6040805162461bcd60e51b8152602060048201526013602482015272556e6b6e6f776e20726577617264207479706560681b604482015290519081900360640190fd5b505060408051600081526020810190915292915050565b6000828211156158c1576040805162461bcd60e51b815260206004820152601e60248201527f536166654d6174683a207375627472616374696f6e206f766572666c6f770000604482015290519081900360640190fd5b50900390565b600061224e836001600160a01b038416615ab1565b600061224e836001600160a01b038416615afb565b606b5460408051600080516020615e26833981519152815290519081900360180190206001600160a01b03909116906349e9e07e903390614feb9086612cc2565b3b151590565b8154600090821061597a5760405162461bcd60e51b8152600401808060200182810382526022815260200180615d776022913960400191505060405180910390fd5b82600001828154811061598957fe5b9060005260206000200154905092915050565b60009081526001919091016020526040902054151590565b6000806159d860016159cc868863ffffffff61586a16565b9063ffffffff615bc116565b6040805160208082018790528251808303820181529183019092528051910120909150600090615a0e908363ffffffff615c1b16565b9050612226818763ffffffff615bc116565b6000828152606f602090815260408083208054825181850281018501909352808352606093830182828015615a7457602002820191906000526020600020905b815481526020019060010190808311615a60575b505050505090506000615a8d60006001845103866159b4565b9050818181518110615a9b57fe5b60200260200101519250505092915050565b5490565b6000615abd838361599c565b615af35750815460018181018455600084815260208082209093018490558454848252828601909352604090209190915561156d565b50600061156d565b60008181526001830160205260408120548015615bb75783546000198083019190810190600090879083908110615b2e57fe5b9060005260206000200154905080876000018481548110615b4b57fe5b600091825260208083209091019290925582815260018981019092526040902090840190558654879080615b7b57fe5b6001900381819060005260206000200160009055905586600101600087815260200190815260200160002060009055600194505050505061156d565b600091505061156d565b60008282018381101561224e576040805162461bcd60e51b815260206004820152601b60248201527f536166654d6174683a206164646974696f6e206f766572666c6f770000000000604482015290519081900360640190fd5b6000808211615c71576040805162461bcd60e51b815260206004820152601860248201527f536166654d6174683a206d6f64756c6f206279207a65726f0000000000000000604482015290519081900360640190fd5b818381615c7a57fe5b069392505050565b8260048101928215615cb0579160200282015b82811115615cb0578251825591602001919060010190615c95565b50615cbc929150615d5c565b5090565b60405180608001604052806004906020820280368337509192915050565b6040805161016081018252600080825260208201819052918101829052606081018290526080810182905260a081018290529060c08201905b8152602001600081526020016000815260200160006001600160a01b03168152602001600081525090565b6040805160c0810190915260008082526020820190615d17565b61111491905b80821115615cbc5760008155600101615d6256fe456e756d657261626c655365743a20696e646578206f7574206f6620626f756e6473416363657373436f6e74726f6c3a2073656e646572206d75737420626520616e2061646d696e20746f206772616e74416363657373436f6e74726f6c3a2073656e646572206d75737420626520616e2061646d696e20746f207265766f6b65496e697469616c697a61626c653a20636f6e747261637420697320616c726561647920696e697469616c697a6564534545445f5245574152445f57414c4c45545f51554553540000000000000000416363657373436f6e74726f6c3a2063616e206f6e6c792072656e6f756e636520726f6c657320666f722073656c66a26469706673582212206e9bdba5a2fc734a763bb2c85e6577a97dd1885fce620922377d9a8f5052e59d64736f6c63430006050033","immutableReferences":{},"source":"pragma solidity ^0.6.0;\n\nimport \"@openzeppelin/contracts-upgradeable/proxy/Initializable.sol\";\nimport \"@openzeppelin/contracts-upgradeable/access/AccessControlUpgradeable.sol\";\nimport \"@openzeppelin/contracts/math/SafeMath.sol\";\nimport \"./cryptoblades.sol\";\nimport \"./characters.sol\";\nimport \"./weapons.sol\";\nimport \"./shields.sol\";\nimport \"./Promos.sol\";\nimport \"./util.sol\";\nimport \"./items/Junk.sol\";\nimport \"./items/RaidTrinket.sol\";\nimport \"./SafeRandoms.sol\";\nimport \"./BurningManager.sol\";\nimport \"./PartnerVault.sol\";\n\ncontract SimpleQuests is Initializable, AccessControlUpgradeable {\n\n    using ABDKMath64x64 for int128;\n    using ABDKMath64x64 for uint256;\n    using SafeMath for uint256;\n\n    bytes32 public constant GAME_ADMIN = keccak256(\"GAME_ADMIN\");\n    uint256 internal constant SEED_RANDOM_QUEST = uint(keccak256(\"SEED_RANDOM_QUEST\"));\n    uint256 internal constant SEED_REWARD_QUEST = uint(keccak256(\"SEED_REWARD_QUEST\"));\n    uint256 internal constant SEED_REWARD_WALLET_QUEST = uint(keccak256(\"SEED_REWARD_WALLET_QUEST\"));\n    uint256 internal constant SEED_REWARD_WEEKLY = uint(keccak256(\"SEED_REWARD_WEEKLY\"));\n\n    /* Quest rarities\n    *   Quests templates rarities on (0 - common, 1 - uncommon, 2 - rare, 3 - epic, 4 - legendary)\n    *   Promo quests arrays are accordingly (10 - common, 11 - uncommon, 12 - rare, 13 - epic, 14 - legendary)\n    *   Pickable quests on 20\n    */\n\n    /* Promo quest templates\n    *   Use promo quests flag in order to use promo quest templates, when it's true, it will\n    *   use promo quest templates, when it's false, it will use regular quest templates\n    */\n\n    Characters public characters;\n    Weapons public weapons;\n    Junk public junk;\n    RaidTrinket public trinket;\n    Shields public shields;\n    BurningManager public burningManager;\n    SafeRandoms public safeRandoms;\n    PartnerVault public partnerVault;\n\n    uint8 public constant VAR_COMMON_TIER = 0;\n    uint8 public constant VAR_UNCOMMON_TIER = 1;\n    uint8 public constant VAR_RARE_TIER = 2;\n    uint8 public constant VAR_EPIC_TIER = 3;\n    uint8 public constant VAR_LEGENDARY_TIER = 4;\n    uint8 public constant VAR_CONTRACT_ENABLED = 9;\n    uint8 public constant VAR_REPUTATION_LEVEL_2 = 20;\n    uint8 public constant VAR_REPUTATION_LEVEL_3 = 21;\n    uint8 public constant VAR_REPUTATION_LEVEL_4 = 22;\n    uint8 public constant VAR_REPUTATION_LEVEL_5 = 23;\n    uint8 public constant VAR_SKIP_QUEST_STAMINA_COST = 30;\n//    uint8 public constant VAR_WEEKLY_COMPLETIONS_GOAL = 31;\n    uint256 internal constant NFTVAR_SIMPLEQUEST_PROGRESS = 101;\n    uint256 internal constant NFTVAR_SIMPLEQUEST_TYPE = 102;\n    uint256 internal constant NFTVAR_REPUTATION = 103;\n\n    struct Quest {\n        uint256 id;\n        Rarity tier;\n        ItemType requirementType;\n        uint256 requirementRarity;\n        uint256 requirementAmount;\n        address requirementExternalAddress;\n        ItemType rewardType;\n        uint256 rewardRarity;\n        uint256 rewardAmount;\n        address rewardExternalAddress;\n        uint256 reputationAmount;\n    }\n\n    struct Reward {\n        uint256 id;\n        ItemType rewardType;\n        uint256 rewardRarity;\n        uint256 rewardAmount;\n        address rewardExternalAddress;\n        uint256 reputationAmount;\n    }\n\n    enum ItemType{NONE, WEAPON, JUNK, DUST, TRINKET, SHIELD, STAMINA, SOUL, RAID, EXPERIENCE, EXTERNAL, EXTERNAL_HOLD, CHARACTER}\n    enum Rarity{COMMON, UNCOMMON, RARE, EPIC, LEGENDARY}\n\n    uint256 public nextQuestID;\n    uint256 public nextRewardID;\n\n    mapping(uint256 => uint256[]) public questTemplates;\n    mapping(uint256 => Quest) public quests;\n    mapping(uint256 => uint256) public questSupplies;\n    mapping(uint256 => uint256) public questDeadlines;\n    mapping(uint256 => uint256) public questIndexes;\n    mapping(uint256 => uint256) public characterQuest;\n    mapping(uint256 => uint256[4]) public tierChances;\n    mapping(uint256 => uint256) public vars;\n    mapping(uint256 => uint256) public lastFreeSkipUsage;\n    mapping(address => mapping(uint256 => uint256)) public weeklyCompletions; //user to week to completions\n    mapping(address => mapping(uint256 => bool)) public weeklyRewardClaimed;\n    mapping(uint256 => Reward) public rewards;\n    mapping(uint256 => uint256) private weeklyRewards; //unused\n    mapping(uint256 => uint256) public weeklyCompletionsGoal;\n    mapping(address => mapping(uint256 => uint256)) public walletQuestProgress; // wallet, questID, progress\n    mapping(address => mapping(uint256 => uint256)) public questCompletions; // wallet, questID, timesCompleted\n    uint constant maxWeeksInAYear = 53;\n    uint constant pickableTier = 20;\n    uint constant walletTier = 30;\n\n    event QuestAssigned(uint256 indexed questID, uint256 indexed characterID);\n    event QuestProgressed(uint256 indexed questID, uint256 indexed characterID);\n    event QuestComplete(uint256 indexed questID, uint256 indexed characterID);\n    event QuestRewarded(uint256 indexed questID, uint256 indexed characterID, uint256[] rewards);\n    event QuestSkipped(uint256 indexed questID, uint256 indexed characterID);\n    event WeeklyRewardClaimed(address user, uint256 indexed rewardID, uint256[] rewards);\n    event RewardAdded(uint256 indexed rewardID);\n    event WeeklyRewardSet(uint256 indexed rewardID, uint256 indexed week);\n    event WalletQuestProgressed(uint256 indexed questID, address indexed wallet);\n    event WalletQuestComplete(uint256 indexed questID, address indexed wallet);\n    event WalletQuestRewarded(uint256 indexed questID, address indexed wallet, uint256[] rewards);\n\n    function initialize(Characters _characters, Weapons _weapons, Junk _junk, RaidTrinket _trinket, Shields _shields, BurningManager _burningManager, SafeRandoms _safeRandoms, PartnerVault _partnerVault) public initializer {\n        __AccessControl_init_unchained();\n        _setupRole(DEFAULT_ADMIN_ROLE, msg.sender);\n        _setupRole(GAME_ADMIN, msg.sender);\n\n        characters = _characters;\n        weapons = _weapons;\n        junk = _junk;\n        trinket = _trinket;\n        shields = _shields;\n        burningManager = _burningManager;\n        safeRandoms = _safeRandoms;\n        partnerVault = _partnerVault;\n        nextQuestID = 1;\n        nextRewardID = 1;\n    }\n\n    modifier restricted() {\n        _restricted();\n        _;\n    }\n\n    function _restricted() internal view {\n        require(hasRole(GAME_ADMIN, msg.sender), \"NA\");\n    }\n\n    modifier assertQuestsEnabled() {\n        _assertQuestsEnabled();\n        _;\n    }\n\n    function _assertQuestsEnabled() internal view {\n        require(vars[VAR_CONTRACT_ENABLED] == 1, \"Quests disabled\");\n    }\n\n    modifier assertOnQuest(uint256 characterID, bool onQuest) {\n        _assertOnQuest(characterID, onQuest);\n        _;\n    }\n\n    function _assertOnQuest(uint256 characterID, bool onQuest) internal view {\n        require((characterQuest[characterID] != 0) == onQuest, \"Invalid quest state\");\n    }\n\n    modifier assertOwnsCharacter(uint256 characterID) {\n        _assertOwnsCharacter(characterID);\n        _;\n    }\n\n    function _assertOwnsCharacter(uint256 characterID) internal view {\n        require(characters.ownerOf(characterID) == msg.sender, \"Not character owner\");\n    }\n\n    modifier assertCanClaimWeeklyReward(address user) {\n        _assertCanClaimWeeklyReward(user);\n        _;\n    }\n\n    function _assertCanClaimWeeklyReward(address user) internal view {\n        require(weeklyRewardClaimed[user][now / 1 weeks] == false, \"Reward already claimed\");\n        require(getWeeklyCompletions(user) >= weeklyCompletionsGoal[getWeekNumber()], \"Not enough weekly completions\");\n    }\n\n    // FUNCTIONS\n\n    function generateRequestQuestSeed(uint256 characterID) assertQuestsEnabled assertOwnsCharacter(characterID) public {\n        safeRandoms.requestSingleSeed(address(this), RandomUtil.combineSeeds(SEED_RANDOM_QUEST, characterID));\n    }\n\n    function requestQuest(uint256 characterID) public assertQuestsEnabled assertOnQuest(characterID, false) returns (uint256) {\n        return assignNewQuest(characterID);\n    }\n\n    function requestPickableQuest(uint256 characterID, uint256 questID) public assertQuestsEnabled assertOwnsCharacter(characterID) assertOnQuest(characterID, false) returns (uint256) {\n        require(questID == questTemplates[pickableTier][questIndexes[questID]]); // pickable quest tier check\n        return setCharacterQuest(characterID, pickableTier, questTemplates[pickableTier][questIndexes[questID]]);\n    }\n\n    function assignNewQuest(uint256 characterID) private returns (uint256) {\n        uint256 seed = safeRandoms.popSingleSeed(address(this), RandomUtil.combineSeeds(SEED_RANDOM_QUEST, characterID), true, true);\n        uint256 currentReputation = characters.getNftVar(characterID, NFTVAR_REPUTATION);\n        uint256 reputationTier;\n        if (currentReputation > vars[VAR_REPUTATION_LEVEL_5]) {\n            reputationTier = 4;\n        } else if (currentReputation > vars[VAR_REPUTATION_LEVEL_4]) {\n            reputationTier = 3;\n        } else if (currentReputation > vars[VAR_REPUTATION_LEVEL_3]) {\n            reputationTier = 2;\n        } else if (currentReputation > vars[VAR_REPUTATION_LEVEL_2]) {\n            reputationTier = 1;\n        } else {\n            reputationTier = 0;\n        }\n        uint256[4] memory chances = tierChances[reputationTier];\n        uint256 tierRoll = RandomUtil.randomSeededMinMax(1, 100, seed);\n        seed = RandomUtil.combineSeeds(seed, 1);\n\n        uint256 tier;\n        if (tierRoll > chances[3]) {\n            tier = vars[VAR_LEGENDARY_TIER];\n        }\n        else if (tierRoll > chances[2]) {\n            tier = vars[VAR_EPIC_TIER];\n        }\n        else if (tierRoll > chances[1]) {\n            tier = vars[VAR_RARE_TIER];\n        }\n        else if (tierRoll > chances[0]) {\n            tier = vars[VAR_UNCOMMON_TIER];\n        }\n        else {\n            tier = vars[VAR_COMMON_TIER];\n        }\n        uint256 questID = generateNewQuest(tier, seed);\n        return setCharacterQuest(characterID, tier, questID);\n    }\n\n    function setCharacterQuest(uint256 characterID, uint256 tier, uint256 questID) private returns (uint256) {\n        decrementQuestSupply(tier, questID);\n        characterQuest[characterID] = questID;\n        uint256[] memory fields = new uint256[](2);\n        fields[0] = NFTVAR_SIMPLEQUEST_PROGRESS;\n        fields[1] = NFTVAR_SIMPLEQUEST_TYPE;\n        uint256[] memory values = new uint256[](2);\n        values[0] = 0;\n        values[1] = uint256(quests[questID].requirementType);\n        characters.setNFTVars(characterID, fields, values);\n        emit QuestAssigned(questID, characterID);\n        return questID;\n    }\n\n    function decrementQuestSupply(uint256 tier, uint256 questID) private {\n        if (questSupplies[questID] > 0) {\n            questSupplies[questID]--;\n            if (questSupplies[questID] == 0) {\n                _deleteQuestTemplate(tier, questID);\n            }\n        }\n    }\n\n    function generateNewQuest(uint256 tier, uint256 seed) private view returns (uint256) {\n        uint256[] memory tierQuestTemplates = questTemplates[tier];\n        uint256 index = RandomUtil.randomSeededMinMax(0, tierQuestTemplates.length - 1, seed);\n        return tierQuestTemplates[index];\n    }\n\n    function skipQuest(uint256 characterID) public returns (uint256) {\n        return skipQuest(characterID, 0);\n    }\n\n    function skipQuest(uint256 characterID, uint256 pickedQuestID) public assertQuestsEnabled assertOnQuest(characterID, true) assertOwnsCharacter(characterID) returns (uint256) {\n        if (hasFreeSkip(characterID)) {\n            lastFreeSkipUsage[characterID] = now;\n        } else {\n            characters.getFightDataAndDrainStamina(msg.sender, characterID, uint8(vars[VAR_SKIP_QUEST_STAMINA_COST]), false, 0);\n        }\n        emit QuestSkipped(characterQuest[characterID], characterID);\n        return _assignNextQuest(characterID, pickedQuestID);\n    }\n\n    function completeQuest(uint256 characterID) public returns (uint256[] memory questRewards) {\n        return completeQuest(characterID, 0);\n    }\n\n    function completeQuest(uint256 characterID, uint256 pickedQuestID) public assertQuestsEnabled assertOwnsCharacter(characterID) assertOnQuest(characterID, true) returns (uint256[] memory questRewards) {\n        uint256[] memory questData = getCharacterQuestData(characterID);\n        require(questData[0] >= quests[characterQuest[characterID]].requirementAmount, \"Not completed\");\n        uint256 questID = characterQuest[characterID];\n        require(questDeadlines[questID] == 0 || questDeadlines[questID] >= now, \"Quest deadline has passed\");\n        uint256 currentReputation = questData[2];\n        questRewards = rewardCharacterQuest(questID, characterID);\n        emit QuestRewarded(questID, characterID, questRewards);\n        characters.setNftVar(characterID, NFTVAR_REPUTATION, currentReputation + quests[questID].reputationAmount);\n        emit QuestComplete(questID, characterID);\n        weeklyCompletions[msg.sender][now / 1 weeks] += 1;\n        _assignNextQuest(characterID, pickedQuestID);\n    }\n\n    function completeWalletQuest(uint256 questID) public assertQuestsEnabled returns (uint256[] memory questRewards) {\n        require(walletQuestProgress[msg.sender][questID] >= quests[questID].requirementAmount, \"Not completed\");\n        require(questDeadlines[questID] == 0 || questDeadlines[questID] >= now, \"Quest deadline has passed\");\n        questRewards = rewardWalletQuest(questID);\n        emit WalletQuestRewarded(questID, msg.sender, questRewards);\n        emit WalletQuestComplete(questID, msg.sender);\n        weeklyCompletions[msg.sender][now / 1 weeks] += 1;\n        walletQuestProgress[msg.sender][questID] = 0;\n        decrementQuestSupply(walletTier, questID);\n    }\n\n    function _assignNextQuest(uint256 characterID, uint256 pickedQuestID) internal returns (uint256) {\n        if(pickedQuestID == 0) // random quest\n            return assignNewQuest(characterID);\n        else {\n            require(pickedQuestID == questTemplates[pickableTier][questIndexes[pickedQuestID]]); // pickable quest tier check\n            return setCharacterQuest(characterID, pickableTier, pickedQuestID);\n        }\n    }\n\n    function generateRewardQuestSeed(uint256 characterID) assertQuestsEnabled assertOwnsCharacter(characterID) assertOnQuest(characterID, true) public {\n        uint256[] memory questData = getCharacterQuestData(characterID);\n        require(questData[0] >= quests[characterQuest[characterID]].requirementAmount);\n        _generateRewardQuestSeed(characterID, false);\n    }\n\n    function _generateRewardQuestSeed(uint256 characterID, bool forced) internal {\n        safeRandoms.requestSingleSeed(address(this), RandomUtil.combineSeeds(SEED_REWARD_QUEST, characterID), forced);\n    }\n\n    function _generateRewardWalletQuestSeed(uint256 questID, bool forced) internal {\n        safeRandoms.requestSingleSeed(msg.sender, RandomUtil.combineSeeds(SEED_REWARD_WALLET_QUEST, questID), forced);\n    }\n\n    function rewardCharacterQuest(uint256 questID, uint256 characterID) private returns (uint256[] memory) {\n        uint256 seed = safeRandoms.popSingleSeed(address(this), RandomUtil.combineSeeds(SEED_REWARD_QUEST, characterID), true, false);\n        return rewardQuest(getQuestReward(quests[questID]), characterID, seed);\n    }\n\n    function rewardWalletQuest(uint256 questID) private returns (uint256[] memory) {\n        uint256 seed = safeRandoms.popSingleSeed(msg.sender, RandomUtil.combineSeeds(SEED_REWARD_WALLET_QUEST, questID), true, false);\n        return rewardQuest(getQuestReward(quests[questID]), SEED_REWARD_WALLET_QUEST/*hack number to avoid bumping 0 accidentally*/, seed);\n    }\n\n    function rewardQuest(Reward memory reward, uint256 characterID, uint256 seed) private returns (uint256[] memory) {\n        //reward.id is questID for quests and weekNumber for weekly rewards!\n        if (reward.rewardType == ItemType.WEAPON) {\n            uint256[] memory tokenIDs = new uint256[](reward.rewardAmount);\n            for (uint8 i = 0; i < reward.rewardAmount; i++) {\n                tokenIDs[i] = weapons.mintWeaponWithStars(msg.sender, reward.rewardRarity, seed, 100);\n                seed = RandomUtil.combineSeeds(seed, i);\n            }\n            return tokenIDs;\n        } else if (reward.rewardType == ItemType.JUNK) {\n            return junk.mintN(msg.sender, uint8(reward.rewardRarity), uint32(reward.rewardAmount));\n        } else if (reward.rewardType == ItemType.TRINKET) {\n            return trinket.mintN(msg.sender, uint8(reward.rewardRarity), uint32(reward.rewardAmount), seed);\n        } else if (reward.rewardType == ItemType.SHIELD) {\n            //0 is NORMAL SHIELD TYPE\n            return shields.mintShieldsWithStars(msg.sender, uint8(reward.rewardRarity), 0, uint32(reward.rewardAmount), seed);\n        } else if (reward.rewardType == ItemType.DUST) {\n            uint32[] memory incrementDustSupplies = new uint32[](3);\n            incrementDustSupplies[uint256(reward.rewardRarity)] = uint32(reward.rewardAmount);\n            weapons.incrementDustSupplies(msg.sender, incrementDustSupplies[0], incrementDustSupplies[1], incrementDustSupplies[2]);\n        } else if (reward.rewardType == ItemType.EXPERIENCE) {\n            characters.gainXp(characterID, uint16(reward.rewardAmount));\n        } else if (reward.rewardType == ItemType.SOUL) {\n            burningManager.giveAwaySoul(msg.sender, reward.rewardAmount);\n        } else if (reward.rewardType == ItemType.EXTERNAL) {\n            partnerVault.transferReward(reward.rewardExternalAddress, msg.sender, reward.rewardAmount, seed);\n        } else if (reward.rewardType == ItemType.CHARACTER) {\n            for (uint8 i = 0; i < reward.rewardAmount; i++) {\n                characters.mint(msg.sender, seed);\n                seed = RandomUtil.combineSeeds(seed, i);\n            }\n        }\n        else {\n            revert(\"Unknown reward type\");\n        }\n        return new uint256[](0);\n    }\n\n    function generateRewardWeeklySeed(uint256 rewardID) assertQuestsEnabled assertCanClaimWeeklyReward(msg.sender) public {\n        safeRandoms.requestSingleSeed(msg.sender, RandomUtil.combineSeeds(SEED_REWARD_WEEKLY, rewardID));\n    }\n\n    function claimWeeklyReward() assertQuestsEnabled assertCanClaimWeeklyReward(msg.sender) public returns (uint256[] memory weeklyRewardIDs) {\n        uint256 rewardID = getWeekNumber();\n        weeklyRewardIDs = rewardWeekly(rewardID);\n        weeklyRewardClaimed[msg.sender][now / 1 weeks] = true;\n        emit WeeklyRewardClaimed(msg.sender, rewardID, weeklyRewardIDs);\n    }\n\n    function rewardWeekly(uint256 rewardID) private returns (uint256[] memory) {\n        uint256 seed = safeRandoms.popSingleSeed(tx.origin, RandomUtil.combineSeeds(SEED_REWARD_WEEKLY, rewardID), true, true);\n        return rewardQuest(rewards[rewardID], SEED_REWARD_WEEKLY/*hack number to avoid bumping 0 accidentally*/, seed);\n    }\n\n    // SUBMITTING PROGRESS\n\n    function submitProgress(uint256 characterID, uint256[] memory tokenIds) public assertOnQuest(characterID, true) {\n        uint256 questID = characterQuest[characterID];\n        _submitProgress(questID, tokenIds);\n        incrementCharacterQuestProgress(characterID, questID, tokenIds.length);\n    }\n\n    function submitWalletProgress(uint256 questID, uint256[] memory tokenIds) public {\n        _submitProgress(questID, tokenIds);\n        incrementWalletQuestProgress(questID, tokenIds.length);\n    }\n\n    function _submitProgress(uint256 questID, uint256[] memory tokenIds) private assertQuestsEnabled {\n        require(tokenIds.length != 0, \"No tokenIds\");\n        Quest memory quest = quests[questID];\n        if (quest.requirementType == ItemType.WEAPON) {\n            for (uint256 i = 0; i < tokenIds.length; i++) {\n                uint256 tokenID = tokenIds[i];\n                require(weapons.ownerOf(tokenID) == msg.sender, \"Not weapon owner\");\n                require(weapons.getStars(tokenID) >= quest.requirementRarity, \"Wrong weapon rarity\");\n            }\n            weapons.burnWithoutDust(tokenIds);\n        } else if (quest.requirementType == ItemType.JUNK) {\n            for (uint256 i = 0; i < tokenIds.length; i++) {\n                uint256 tokenID = tokenIds[i];\n                require(junk.ownerOf(tokenID) == msg.sender, \"Not junk owner\");\n                require(junk.tokenStars(tokenID) >= quest.requirementRarity, \"Wrong junk rarity\");\n            }\n            junk.burn(tokenIds);\n        } else if (quest.requirementType == ItemType.TRINKET) {\n            for (uint256 i = 0; i < tokenIds.length; i++) {\n                uint256 tokenID = tokenIds[i];\n                require(trinket.ownerOf(tokenID) == msg.sender, \"Not trinket owner\");\n                require(trinket.tokenStars(tokenID) >= quest.requirementRarity, \"Wrong trinket rarity\");\n            }\n            trinket.burn(tokenIds);\n        } else if (quest.requirementType == ItemType.SHIELD) {\n            for (uint256 i = 0; i < tokenIds.length; i++) {\n                uint256 tokenID = tokenIds[i];\n                require(shields.ownerOf(tokenID) == msg.sender, \"Not shield owner\");\n                require(shields.getStars(tokenID) >= quest.requirementRarity, \"Wrong shield rarity\");\n            }\n            shields.burn(tokenIds);\n        } else if (quest.requirementType == ItemType.EXTERNAL) {\n            partnerVault.storeNfts(IERC721(quest.requirementExternalAddress), tokenIds);\n        } else if (quest.requirementType == ItemType.EXTERNAL_HOLD) {\n            partnerVault.showHeldNfts(IERC721(quest.requirementExternalAddress), tokenIds, msg.sender, questID);\n        } else {\n            revert(\"Unknown requirement type\");\n        }\n    }\n\n    function submitProgressAmount(uint256 characterID, uint256 amount) public assertOnQuest(characterID, true) {\n        uint256 questID = characterQuest[characterID];\n        _submitProgressAmount(questID, characterID, amount);\n        incrementCharacterQuestProgress(characterID, questID, amount);\n    }\n\n    function submitWalletProgressAmount(uint256 questID, uint256 amount) public {\n        _submitProgressAmount(questID, SEED_REWARD_WALLET_QUEST/*hack number to avoid bumping 0 accidentally*/, amount);\n        incrementWalletQuestProgress(questID, amount);\n    }\n\n    function _submitProgressAmount(uint256 questID, uint256 characterID, uint256 amount) private assertQuestsEnabled {\n        Quest memory quest = quests[questID];\n        if (quest.requirementType == ItemType.STAMINA) {\n            require(amount <= 255, \"Incorrect stamina value\");\n            characters.getFightDataAndDrainStamina(msg.sender, characterID, uint8(amount), false, 0);\n        } else if (quest.requirementType == ItemType.DUST) {\n            uint32[] memory decrementDustSupplies = new uint32[](3);\n            decrementDustSupplies[quest.requirementRarity] = uint32(amount);\n            weapons.decrementDustSupplies(msg.sender, decrementDustSupplies[0], decrementDustSupplies[1], decrementDustSupplies[2]);\n        } else if (quest.requirementType == ItemType.SOUL) {\n            burningManager.burnSoul(msg.sender, amount);\n        } else if (quest.requirementType == ItemType.EXTERNAL) {\n            partnerVault.storeCurrency(IERC20(quest.requirementExternalAddress), amount);\n        } else {\n            revert(\"Unknown requirement type\");\n        }\n    }\n\n    function incrementCharacterQuestProgress(uint256 characterID, uint256 questID, uint256 progress) private {\n        require(progress > 0);\n        uint totalProgress = characters.getNftVar(characterID, NFTVAR_SIMPLEQUEST_PROGRESS) + progress;\n        characters.setNftVar(characterID, NFTVAR_SIMPLEQUEST_PROGRESS, totalProgress);\n        emit QuestProgressed(questID, characterID);\n        //.sub reverts on negatives\n        if (quests[characterQuest[characterID]].requirementAmount.sub(totalProgress) == 0) {\n            _generateRewardQuestSeed(characterID, true);\n            questCompletions[tx.origin][questID] += 1;\n        }\n    }\n\n    function incrementWalletQuestProgress(uint256 questID, uint256 progress) private {\n        require(progress > 0);\n        require(questID == questTemplates[walletTier][questIndexes[questID]]); // wallet quest tier check\n        require(questCompletions[tx.origin][questID] == 0); // wallet quest completion check\n        uint totalProgress = walletQuestProgress[msg.sender][questID] + progress;\n        walletQuestProgress[msg.sender][questID] = totalProgress;\n        emit WalletQuestProgressed(questID, msg.sender);\n        //.sub reverts on negatives\n        if (quests[questID].requirementAmount.sub(totalProgress) == 0) {\n            _generateRewardWalletQuestSeed(questID, true);\n            questCompletions[tx.origin][questID] += 1;\n        }\n    }\n\n    // VIEWS\n\n    function hasRandomQuestSeedRequested(uint256 characterID) public view returns (bool) {\n        return safeRandoms.hasSingleSeedRequest(address(this), RandomUtil.combineSeeds(SEED_RANDOM_QUEST, characterID));\n    }\n\n    function hasRandomQuestRewardSeedRequested(uint256 characterID) public view returns (bool) {\n        return safeRandoms.hasSingleSeedRequest(address(this), RandomUtil.combineSeeds(SEED_REWARD_QUEST, characterID));\n    }\n\n    function hasRandomWalletQuestRewardSeedRequested(uint256 questID) public view returns (bool) {\n        return safeRandoms.hasSingleSeedRequest(msg.sender, RandomUtil.combineSeeds(SEED_REWARD_WALLET_QUEST, questID));\n    }\n\n    function hasRandomWeeklyRewardSeedRequested(uint256 rewardID) public view returns (bool) {\n        return safeRandoms.hasSingleSeedRequest(msg.sender, RandomUtil.combineSeeds(SEED_REWARD_WEEKLY, rewardID));\n    }\n\n    function getVars(uint256[] calldata varFields) external view returns (uint256[] memory) {\n        uint256[] memory result = new uint256[](varFields.length);\n        for (uint i = 0; i < varFields.length; i++) {\n            result[i] = vars[varFields[i]];\n        }\n        return result;\n    }\n\n    function getTierChances(uint256 reputationLevel) external view returns (uint256[4] memory) {\n        return tierChances[reputationLevel];\n    }\n\n    function getQuestTemplates(uint8 tier) public view returns (uint256[] memory) {\n        return questTemplates[tier];\n    }\n\n    function getCharacterQuestData(uint256 characterID) public view returns (uint256[] memory) {\n        uint256[] memory questDataKeys = new uint256[](3);\n        questDataKeys[0] = NFTVAR_SIMPLEQUEST_PROGRESS;\n        questDataKeys[1] = NFTVAR_SIMPLEQUEST_TYPE;\n        questDataKeys[2] = NFTVAR_REPUTATION;\n        return characters.getNFTVars(characterID, questDataKeys);\n    }\n\n    function getQuestReward(Quest memory quest) private pure returns (Reward memory) {\n        return Reward(quest.id, quest.rewardType, quest.rewardRarity, quest.rewardAmount, quest.rewardExternalAddress, quest.reputationAmount);\n    }\n\n    function hasFreeSkip(uint256 characterID) public view returns (bool) {\n        return now / 1 days > lastFreeSkipUsage[characterID] / 1 days;\n    }\n\n    function nextWeeklyQuestCompletionGoalReset() public view returns (uint256) {\n        return now + 1 weeks - now % 1 weeks;\n    }\n\n    function nextFreeSkip() public view returns (uint256) {\n        return now + 1 days - now % 1 days;\n    }\n\n    function getWeeklyCompletions(address user) public view returns (uint256) {\n        return weeklyCompletions[user][now / 1 weeks];\n    }\n\n    function getWeekNumber() public view returns (uint256) {\n        return now / 1 weeks % maxWeeksInAYear + 1;\n    }\n\n    // ADMIN\n\n    function setVar(uint256 varField, uint256 value) external restricted {\n        vars[varField] = value;\n    }\n\n    function setVars(uint256[] calldata varFields, uint256[] calldata values) external restricted {\n        for (uint i = 0; i < varFields.length; i++) {\n            vars[varFields[i]] = values[i];\n        }\n    }\n\n    function setTierChances(uint256 tier, uint256[4] memory chances) public restricted {\n        tierChances[tier] = chances;\n    }\n\n    function addNewQuestTemplate(uint8 tier,\n        ItemType requirementType, uint256 requirementRarity, uint256 requirementAmount, address requirementExternalAddress,\n        ItemType rewardType, uint256 rewardRarity, uint256 rewardAmount, address rewardExternalAddress,\n        uint256 reputationAmount, uint256 supply, uint256 deadline) public restricted {\n        uint256 questID = nextQuestID++;\n        quests[questID] = Quest(questID, Rarity(tier % 10),\n            requirementType, requirementRarity, requirementAmount, requirementExternalAddress,\n            rewardType, rewardRarity, rewardAmount, rewardExternalAddress,\n            reputationAmount);\n        questTemplates[tier].push(questID);\n        questIndexes[questID] = questTemplates[tier].length - 1;\n        if (supply > 0) {\n            require(deadline > 0, \"Missing deadline\");\n            questSupplies[questID] = supply;\n            questDeadlines[questID] = deadline;\n        }\n        if(tier == walletTier) {\n            require(requirementType != ItemType.STAMINA && requirementType != ItemType.RAID, \"Wrong input\");\n            require(reputationAmount == 0 && rewardType != ItemType.EXPERIENCE, \"Wrong reward\");\n        }\n    }\n\n    function setWeeklyReward(ItemType rewardType, uint256 rewardRarity, uint256 rewardAmount, address rewardExternalAddress, uint256 reputationAmount, uint256 weekNumber, uint256 completionsGoal) public restricted {\n        rewards[weekNumber] = Reward(weekNumber, rewardType, rewardRarity, rewardAmount, rewardExternalAddress, reputationAmount);\n        weeklyCompletionsGoal[weekNumber] = completionsGoal;\n        emit RewardAdded(weekNumber);\n    }\n\n    function deleteQuestTemplate(uint256 tier, uint256 questID) public restricted {\n        _deleteQuestTemplate(tier, questID);\n    }\n\n    function _deleteQuestTemplate(uint256 tier, uint256 questID) internal {\n        uint256 questIndex = questIndexes[questID];\n        uint256 lastQuestId = questTemplates[tier][questTemplates[tier].length - 1];\n        questTemplates[tier][questIndex] = lastQuestId;\n        questIndexes[lastQuestId] = questIndex;\n        questTemplates[tier].pop();\n    }\n}\n","sourcePath":"/home/runner/work/cryptoblades/cryptoblades/contracts/SimpleQuests.sol","compiler":{"name":"solc","version":"0.6.5+commit.f956cc89.Emscripten.clang"},"schemaVersion":"3.3.4","updatedAt":"2023-03-29T09:16:01.020Z","devdoc":{"methods":{"getRoleAdmin(bytes32)":{"details":"Returns the admin role that controls `role`. See {grantRole} and {revokeRole}.     * To change a role's admin, use {_setRoleAdmin}."},"getRoleMember(bytes32,uint256)":{"details":"Returns one of the accounts that have `role`. `index` must be a value between 0 and {getRoleMemberCount}, non-inclusive.     * Role bearers are not sorted in any particular way, and their ordering may change at any point.     * WARNING: When using {getRoleMember} and {getRoleMemberCount}, make sure you perform all queries on the same block. See the following https://forum.openzeppelin.com/t/iterating-over-elements-on-enumerableset-in-openzeppelin-contracts/2296[forum post] for more information."},"getRoleMemberCount(bytes32)":{"details":"Returns the number of accounts that have `role`. Can be used together with {getRoleMember} to enumerate all bearers of a role."},"grantRole(bytes32,address)":{"details":"Grants `role` to `account`.     * If `account` had not been already granted `role`, emits a {RoleGranted} event.     * Requirements:     * - the caller must have ``role``'s admin role."},"hasRole(bytes32,address)":{"details":"Returns `true` if `account` has been granted `role`."},"renounceRole(bytes32,address)":{"details":"Revokes `role` from the calling account.     * Roles are often managed via {grantRole} and {revokeRole}: this function's purpose is to provide a mechanism for accounts to lose their privileges if they are compromised (such as when a trusted device is misplaced).     * If the calling account had been granted `role`, emits a {RoleRevoked} event.     * Requirements:     * - the caller must be `account`."},"revokeRole(bytes32,address)":{"details":"Revokes `role` from `account`.     * If `account` had been granted `role`, emits a {RoleRevoked} event.     * Requirements:     * - the caller must have ``role``'s admin role."}}},"userdoc":{"methods":{}}}