{"contractName":"SkillStakingRewardsUpgradeable","abi":[{"anonymous":false,"inputs":[],"name":"FailsafeModeEnabled","type":"event"},{"anonymous":false,"inputs":[{"indexed":false,"internalType":"uint256","name":"newMinimumStakeAmount","type":"uint256"}],"name":"MinimumStakeAmountUpdated","type":"event"},{"anonymous":false,"inputs":[{"indexed":false,"internalType":"uint256","name":"newMinimumStakeTime","type":"uint256"}],"name":"MinimumStakeTimeUpdated","type":"event"},{"anonymous":false,"inputs":[{"indexed":true,"internalType":"address","name":"previousOwner","type":"address"},{"indexed":true,"internalType":"address","name":"newOwner","type":"address"}],"name":"OwnershipTransferred","type":"event"},{"anonymous":false,"inputs":[{"indexed":false,"internalType":"address","name":"account","type":"address"}],"name":"Paused","type":"event"},{"anonymous":false,"inputs":[{"indexed":false,"internalType":"address","name":"token","type":"address"},{"indexed":false,"internalType":"uint256","name":"amount","type":"uint256"}],"name":"Recovered","type":"event"},{"anonymous":false,"inputs":[{"indexed":false,"internalType":"uint256","name":"reward","type":"uint256"}],"name":"RewardAdded","type":"event"},{"anonymous":false,"inputs":[{"indexed":true,"internalType":"address","name":"user","type":"address"},{"indexed":false,"internalType":"uint256","name":"reward","type":"uint256"}],"name":"RewardPaid","type":"event"},{"anonymous":false,"inputs":[{"indexed":false,"internalType":"uint256","name":"newDuration","type":"uint256"}],"name":"RewardsDurationUpdated","type":"event"},{"anonymous":false,"inputs":[{"indexed":true,"internalType":"address","name":"user","type":"address"},{"indexed":false,"internalType":"uint256","name":"amount","type":"uint256"}],"name":"Staked","type":"event"},{"anonymous":false,"inputs":[{"indexed":false,"internalType":"address","name":"account","type":"address"}],"name":"Unpaused","type":"event"},{"anonymous":false,"inputs":[{"indexed":true,"internalType":"address","name":"user","type":"address"},{"indexed":false,"internalType":"uint256","name":"amount","type":"uint256"}],"name":"Withdrawn","type":"event"},{"inputs":[{"internalType":"address","name":"account","type":"address"}],"name":"balanceOf","outputs":[{"internalType":"uint256","name":"","type":"uint256"}],"stateMutability":"view","type":"function"},{"inputs":[{"internalType":"address","name":"account","type":"address"}],"name":"earned","outputs":[{"internalType":"uint256","name":"","type":"uint256"}],"stateMutability":"view","type":"function"},{"inputs":[],"name":"enableFailsafeMode","outputs":[],"stateMutability":"nonpayable","type":"function"},{"inputs":[],"name":"failsafeModeActive","outputs":[{"internalType":"bool","name":"","type":"bool"}],"stateMutability":"view","type":"function"},{"inputs":[],"name":"getReward","outputs":[],"stateMutability":"nonpayable","type":"function"},{"inputs":[],"name":"getRewardForDuration","outputs":[{"internalType":"uint256","name":"","type":"uint256"}],"stateMutability":"view","type":"function"},{"inputs":[],"name":"getStakeRewardDistributionTimeLeft","outputs":[{"internalType":"uint256","name":"","type":"uint256"}],"stateMutability":"view","type":"function"},{"inputs":[],"name":"getStakeUnlockTimeLeft","outputs":[{"internalType":"uint256","name":"","type":"uint256"}],"stateMutability":"view","type":"function"},{"inputs":[{"internalType":"address","name":"_owner","type":"address"},{"internalType":"address","name":"_rewardsDistribution","type":"address"},{"internalType":"address","name":"_rewardsToken","type":"address"},{"internalType":"address","name":"_stakingToken","type":"address"},{"internalType":"uint256","name":"_minimumStakeTime","type":"uint256"}],"name":"initialize","outputs":[],"stateMutability":"nonpayable","type":"function"},{"inputs":[],"name":"lastTimeRewardApplicable","outputs":[{"internalType":"uint256","name":"","type":"uint256"}],"stateMutability":"view","type":"function"},{"inputs":[],"name":"lastUpdateTime","outputs":[{"internalType":"uint256","name":"","type":"uint256"}],"stateMutability":"view","type":"function"},{"inputs":[{"internalType":"uint256","name":"_minimumStakeAmount","type":"uint256"}],"name":"migrateTo_8cb6e70","outputs":[],"stateMutability":"nonpayable","type":"function"},{"inputs":[],"name":"minimumStakeAmount","outputs":[{"internalType":"uint256","name":"","type":"uint256"}],"stateMutability":"view","type":"function"},{"inputs":[],"name":"minimumStakeTime","outputs":[{"internalType":"uint256","name":"","type":"uint256"}],"stateMutability":"view","type":"function"},{"inputs":[{"internalType":"uint256","name":"reward","type":"uint256"}],"name":"notifyRewardAmount","outputs":[],"stateMutability":"nonpayable","type":"function"},{"inputs":[],"name":"owner","outputs":[{"internalType":"address","name":"","type":"address"}],"stateMutability":"view","type":"function"},{"inputs":[],"name":"pause","outputs":[],"stateMutability":"nonpayable","type":"function"},{"inputs":[],"name":"paused","outputs":[{"internalType":"bool","name":"","type":"bool"}],"stateMutability":"view","type":"function"},{"inputs":[],"name":"periodFinish","outputs":[{"internalType":"uint256","name":"","type":"uint256"}],"stateMutability":"view","type":"function"},{"inputs":[],"name":"recoverExtraStakingTokensToOwner","outputs":[],"stateMutability":"nonpayable","type":"function"},{"inputs":[],"name":"renounceOwnership","outputs":[],"stateMutability":"nonpayable","type":"function"},{"inputs":[],"name":"rewardPerToken","outputs":[{"internalType":"uint256","name":"","type":"uint256"}],"stateMutability":"view","type":"function"},{"inputs":[],"name":"rewardPerTokenStored","outputs":[{"internalType":"uint256","name":"","type":"uint256"}],"stateMutability":"view","type":"function"},{"inputs":[],"name":"rewardRate","outputs":[{"internalType":"uint256","name":"","type":"uint256"}],"stateMutability":"view","type":"function"},{"inputs":[{"internalType":"address","name":"","type":"address"}],"name":"rewards","outputs":[{"internalType":"uint256","name":"","type":"uint256"}],"stateMutability":"view","type":"function"},{"inputs":[],"name":"rewardsDistribution","outputs":[{"internalType":"address","name":"","type":"address"}],"stateMutability":"view","type":"function"},{"inputs":[],"name":"rewardsDuration","outputs":[{"internalType":"uint256","name":"","type":"uint256"}],"stateMutability":"view","type":"function"},{"inputs":[],"name":"rewardsToken","outputs":[{"internalType":"contract IERC20","name":"","type":"address"}],"stateMutability":"view","type":"function"},{"inputs":[{"internalType":"uint256","name":"_minimumStakeAmount","type":"uint256"}],"name":"setMinimumStakeAmount","outputs":[],"stateMutability":"nonpayable","type":"function"},{"inputs":[{"internalType":"uint256","name":"_minimumStakeTime","type":"uint256"}],"name":"setMinimumStakeTime","outputs":[],"stateMutability":"nonpayable","type":"function"},{"inputs":[{"internalType":"address","name":"_rewardsDistribution","type":"address"}],"name":"setRewardsDistribution","outputs":[],"stateMutability":"nonpayable","type":"function"},{"inputs":[{"internalType":"uint256","name":"_rewardsDuration","type":"uint256"}],"name":"setRewardsDuration","outputs":[],"stateMutability":"nonpayable","type":"function"},{"inputs":[],"name":"stakingToken","outputs":[{"internalType":"contract IERC20","name":"","type":"address"}],"stateMutability":"view","type":"function"},{"inputs":[],"name":"totalSupply","outputs":[{"internalType":"uint256","name":"","type":"uint256"}],"stateMutability":"view","type":"function"},{"inputs":[{"internalType":"address","name":"newOwner","type":"address"}],"name":"transferOwnership","outputs":[],"stateMutability":"nonpayable","type":"function"},{"inputs":[],"name":"unpause","outputs":[],"stateMutability":"nonpayable","type":"function"},{"inputs":[{"internalType":"uint256","name":"timestamp","type":"uint256"}],"name":"updatePeriodFinish","outputs":[],"stateMutability":"nonpayable","type":"function"},{"inputs":[{"internalType":"address","name":"","type":"address"}],"name":"userRewardPerTokenPaid","outputs":[{"internalType":"uint256","name":"","type":"uint256"}],"stateMutability":"view","type":"function"},{"inputs":[],"name":"game","outputs":[{"internalType":"contract CryptoBlades","name":"","type":"address"}],"stateMutability":"view","type":"function"},{"inputs":[{"internalType":"contract CryptoBlades","name":"_game","type":"address"}],"name":"migrateTo_23b3a8b","outputs":[],"stateMutability":"nonpayable","type":"function"},{"inputs":[{"internalType":"contract SpecialWeaponsManager","name":"_swm","type":"address"}],"name":"migrateTo_e1fe97c","outputs":[],"stateMutability":"nonpayable","type":"function"},{"inputs":[{"internalType":"address","name":"player","type":"address"},{"internalType":"uint256","name":"amount","type":"uint256"}],"name":"stakeFromGame","outputs":[],"stateMutability":"nonpayable","type":"function"},{"inputs":[{"internalType":"address","name":"player","type":"address"},{"internalType":"uint256","name":"amount","type":"uint256"}],"name":"unstakeToGame","outputs":[],"stateMutability":"nonpayable","type":"function"},{"inputs":[{"internalType":"uint256","name":"amount","type":"uint256"}],"name":"stake","outputs":[],"stateMutability":"nonpayable","type":"function"},{"inputs":[{"internalType":"uint256","name":"amount","type":"uint256"}],"name":"withdraw","outputs":[],"stateMutability":"nonpayable","type":"function"},{"inputs":[],"name":"exit","outputs":[],"stateMutability":"nonpayable","type":"function"},{"inputs":[],"name":"recoverOwnStake","outputs":[],"stateMutability":"nonpayable","type":"function"},{"inputs":[{"internalType":"address","name":"tokenAddress","type":"address"},{"internalType":"uint256","name":"tokenAmount","type":"uint256"}],"name":"recoverERC20","outputs":[],"stateMutability":"nonpayable","type":"function"}],"bytecode":"0x608060405234801561001057600080fd5b5061341c806100206000396000f3fe608060405234801561001057600080fd5b506004361061029f5760003560e01c80637b0a47ee11610167578063cd3daf9d116100ce578063e9fad8ee11610087578063e9fad8ee14610609578063ebe2b12b14610611578063f2fde38b14610619578063f603944c1461063f578063f7013ef614610647578063ff9940331461068d5761029f565b8063cd3daf9d146105a6578063d1af0c7d146105ae578063dc88432b146105b6578063df136d65146105dc578063e2adc237146105e4578063e9422046146105ec5761029f565b8063a694fc3a11610120578063a694fc3a1461050a578063accbc2f814610527578063c2f1535114610553578063c3fe3e2814610579578063c8f33c9114610581578063cc1a378f146105895761029f565b80637b0a47ee1461049857806380faa57d146104a05780638456cb59146104a85780638980f11f146104b05780638b876347146104dc5780638da5cb5b146105025761029f565b80633c6b16ab1161020b5780635c975abb116101c45780635c975abb14610426578063668e01221461042e5780636b036f451461045a57806370a0823114610462578063715018a61461048857806372f702f3146104905761029f565b80633c6b16ab146103b05780633d18b912146103cd5780633f4ba83a146103d55780633fc6df6e146103dd57806344142db514610401578063556f6e6b146104095761029f565b80631c1f78eb1161025d5780631c1f78eb1461036b578063242df9e11461037357806327ab19691461037b5780632e1a7d4d146103835780632f3d3b14146103a0578063386a9525146103a85761029f565b80628cc262146102a45780630700037d146102dc5780630d29fcd4146103025780631265cc971461032157806318160ddd1461033d5780631976214314610345575b600080fd5b6102ca600480360360208110156102ba57600080fd5b50356001600160a01b03166106aa565b60408051918252519081900360200190f35b6102ca600480360360208110156102f257600080fd5b50356001600160a01b0316610740565b61031f6004803603602081101561031857600080fd5b5035610752565b005b610329610831565b604080519115158252519081900360200190f35b6102ca61083a565b61031f6004803603602081101561035b57600080fd5b50356001600160a01b0316610841565b6102ca6108c5565b6102ca6108e3565b6102ca6108e9565b61031f6004803603602081101561039957600080fd5b503561091c565b61031f610b2d565b6102ca610c5f565b61031f600480360360208110156103c657600080fd5b5035610c65565b61031f610f03565b61031f6110ee565b6103e56111aa565b604080516001600160a01b039092168252519081900360200190f35b61031f6111b9565b61031f6004803603602081101561041f57600080fd5b50356112d6565b610329611427565b61031f6004803603604081101561044457600080fd5b506001600160a01b038135169060200135611435565b6102ca611604565b6102ca6004803603602081101561047857600080fd5b50356001600160a01b031661160a565b61031f611625565b6103e56116d1565b6102ca6116e0565b6102ca6116e6565b61031f6116f4565b61031f600480360360408110156104c657600080fd5b506001600160a01b0381351690602001356117ab565b6102ca600480360360208110156104f257600080fd5b50356001600160a01b0316611877565b6103e5611889565b61031f6004803603602081101561052057600080fd5b5035611898565b61031f6004803603604081101561053d57600080fd5b506001600160a01b038135169060200135611a00565b61031f6004803603602081101561056957600080fd5b50356001600160a01b0316611c30565b6103e5611cb4565b6102ca611cc3565b61031f6004803603602081101561059f57600080fd5b5035611cc9565b6102ca611de8565b6103e5611e42565b61031f600480360360208110156105cc57600080fd5b50356001600160a01b0316611e51565b6102ca611ed5565b61031f611edb565b61031f6004803603602081101561060257600080fd5b5035611fa0565b61031f61207f565b6102ca6120e2565b61031f6004803603602081101561062f57600080fd5b50356001600160a01b03166120e8565b6102ca6121eb565b61031f600480360360a081101561065d57600080fd5b506001600160a01b0381358116916020810135821691604082013581169160608101359091169060800135612236565b61031f600480360360208110156106a357600080fd5b5035612369565b6001600160a01b038116600090815260d3602090815260408083205460d290925282205461073a919061072e90670de0b6b3a764000090610722906106fd906106f1611de8565b9063ffffffff6123d016565b6001600160a01b038816600090815260d560205260409020549063ffffffff61242d16565b9063ffffffff61248d16565b9063ffffffff6124f416565b92915050565b60d36020526000908152604090205481565b60985460ff16156107945760405162461bcd60e51b81526004018080602001828103825260468152602001806131b86046913960600191505060405180910390fd5b61079c61254e565b6001600160a01b03166107ad611889565b6001600160a01b0316146107f6576040805162461bcd60e51b815260206004820181905260248201526000805160206132e1833981519152604482015290519081900360640190fd5b60d88190556040805182815290517ff7fc4cb95c43f64f7a376fd9ef5947d85e6aff2df3e9b1715789ffff63d716329181900360200190a150565b60985460ff1681565b60d4545b90565b61084961254e565b6001600160a01b031661085a611889565b6001600160a01b0316146108a3576040805162461bcd60e51b815260206004820181905260248201526000805160206132e1833981519152604482015290519081900360640190fd5b606580546001600160a01b0319166001600160a01b0392909216919091179055565b60006108de60ce5460cd5461242d90919063ffffffff16565b905090565b60cf5481565b60008060006109034260cc5461255290919063ffffffff16565b9150915081610913576000610915565b805b9250505090565b60985460ff161561095e5760405162461bcd60e51b81526004018080602001828103825260468152602001806131b86046913960600191505060405180910390fd5b600260665414156109a4576040805162461bcd60e51b815260206004820152601f6024820152600080516020613198833981519152604482015290519081900360640190fd5b6002606655609854339060ff16610a0f576109bd611de8565b60d1556109c86116e6565b60d0556001600160a01b03811615610a0f576109e3816106aa565b6001600160a01b038216600090815260d3602090815260408083209390935560d15460d2909152919020555b60cf541580610a40575060cf5433600090815260d66020526040902054610a3d90429063ffffffff6123d016565b10155b80610a4d57504260cc5411155b610a885760405162461bcd60e51b81526004018080602001828103825260358152602001806133016035913960400191505060405180910390fd5b610a923383612578565b60cb54610aaf906001600160a01b0316338463ffffffff61269c16565b60d95433600081815260d5602052604080822054815163eddf97d360e01b815260048101949094526024840152516001600160a01b039093169263eddf97d392604480820193929182900301818387803b158015610b0c57600080fd5b505af1158015610b20573d6000803e3d6000fd5b5050600160665550505050565b60985460ff16610b6e5760405162461bcd60e51b81526004018080602001828103825260488152602001806131fe6048913960600191505060405180910390fd5b33600090815260d560205260409020548015610c5c5760d454610b97908263ffffffff6123d016565b60d45533600090815260d56020526040902054610bba908263ffffffff6123d016565b33600081815260d5602052604090209190915560cb54610be6916001600160a01b03909116908361269c565b60d95433600081815260d5602052604080822054815163eddf97d360e01b815260048101949094526024840152516001600160a01b039093169263eddf97d392604480820193929182900301818387803b158015610c4357600080fd5b505af1158015610c57573d6000803e3d6000fd5b505050505b50565b60ce5481565b60985460ff1615610ca75760405162461bcd60e51b81526004018080602001828103825260468152602001806131b86046913960600191505060405180910390fd5b6065546001600160a01b03163314610cf05760405162461bcd60e51b815260040180806020018281038252602a81526020018061335c602a913960400191505060405180910390fd5b60985460009060ff16610d5757610d05611de8565b60d155610d106116e6565b60d0556001600160a01b03811615610d5757610d2b816106aa565b6001600160a01b038216600090815260d3602090815260408083209390935560d15460d2909152919020555b60cc544210610d7c5760ce54610d7490839063ffffffff61248d16565b60cd55610dcb565b60cc54600090610d92904263ffffffff6123d016565b90506000610dab60cd548361242d90919063ffffffff16565b60ce54909150610dc590610722868463ffffffff6124f416565b60cd5550505b60ca54604080516370a0823160e01b815230600482015290516000926001600160a01b0316916370a08231916024808301926020929190829003018186803b158015610e1657600080fd5b505afa158015610e2a573d6000803e3d6000fd5b505050506040513d6020811015610e4057600080fd5b505160ce54909150610e5990829063ffffffff61248d16565b60cd541115610eaf576040805162461bcd60e51b815260206004820152601860248201527f50726f76696465642072657761726420746f6f20686967680000000000000000604482015290519081900360640190fd5b4260d081905560ce54610ec8919063ffffffff6124f416565b60cc556040805184815290517fde88a922e0d3b88b24e9623efeb464919c6bf9f66857a65e2bfcf2ce87a9433d9181900360200190a1505050565b60985460ff1615610f455760405162461bcd60e51b81526004018080602001828103825260468152602001806131b86046913960600191505060405180910390fd5b60026066541415610f8b576040805162461bcd60e51b815260206004820152601f6024820152600080516020613198833981519152604482015290519081900360640190fd5b6002606655609854339060ff16610ff657610fa4611de8565b60d155610faf6116e6565b60d0556001600160a01b03811615610ff657610fca816106aa565b6001600160a01b038216600090815260d3602090815260408083209390935560d15460d2909152919020555b60cf541580611027575060cf5433600090815260d6602052604090205461102490429063ffffffff6123d016565b10155b8061103457504260cc5411155b61106f5760405162461bcd60e51b81526004018080602001828103825260378152602001806133b06037913960400191505060405180910390fd5b33600090815260d3602052604090205480156110e55733600081815260d3602052604081205560ca546110ae916001600160a01b03909116908361269c565b60408051828152905133917fe2403640ba68fed3a2f88b7557551d1993f84b99bb10ff833f0cf8db0c5e0486919081900360200190a25b50506001606655565b6110f661254e565b6001600160a01b0316611107611889565b6001600160a01b031614611150576040805162461bcd60e51b815260206004820181905260248201526000805160206132e1833981519152604482015290519081900360640190fd5b611158611427565b6111a0576040805162461bcd60e51b815260206004820152601460248201527314185d5cd8589b194e881b9bdd081c185d5cd95960621b604482015290519081900360640190fd5b6111a86126f3565b565b6065546001600160a01b031681565b6111c161254e565b6001600160a01b03166111d2611889565b6001600160a01b03161461121b576040805162461bcd60e51b815260206004820181905260248201526000805160206132e1833981519152604482015290519081900360640190fd5b60d45460cb54604080516370a0823160e01b815230600482015290516000936112aa9390926001600160a01b03909116916370a0823191602480820192602092909190829003018186803b15801561127257600080fd5b505afa158015611286573d6000803e3d6000fd5b505050506040513d602081101561129c57600080fd5b50519063ffffffff6123d016565b90508015610c5c57610c5c6112bd611889565b60cb546001600160a01b0316908363ffffffff61269c16565b60985460ff16156113185760405162461bcd60e51b81526004018080602001828103825260468152602001806131b86046913960600191505060405180910390fd5b61132061254e565b6001600160a01b0316611331611889565b6001600160a01b03161461137a576040805162461bcd60e51b815260206004820181905260248201526000805160206132e1833981519152604482015290519081900360640190fd5b60985460009060ff166113e15761138f611de8565b60d15561139a6116e6565b60d0556001600160a01b038116156113e1576113b5816106aa565b6001600160a01b038216600090815260d3602090815260408083209390935560d15460d2909152919020555b60d05482116114215760405162461bcd60e51b81526004018080602001828103825260268152602001806133366026913960400191505060405180910390fd5b5060cc55565b609854610100900460ff1690565b60985460ff16156114775760405162461bcd60e51b81526004018080602001828103825260468152602001806131b86046913960600191505060405180910390fd5b600260665414156114bd576040805162461bcd60e51b815260206004820152601f6024820152600080516020613198833981519152604482015290519081900360640190fd5b60026066556114ca611427565b1561150f576040805162461bcd60e51b815260206004820152601060248201526f14185d5cd8589b194e881c185d5cd95960821b604482015290519081900360640190fd5b60d7546001600160a01b03163314611566576040805162461bcd60e51b81526020600482015260156024820152744f6e6c792063616c6c61626c652062792067616d6560581b604482015290519081900360640190fd5b609854829060ff166115cc5761157a611de8565b60d1556115856116e6565b60d0556001600160a01b038116156115cc576115a0816106aa565b6001600160a01b038216600090815260d3602090815260408083209390935560d15460d2909152919020555b6115d68383612794565b60d75460cb546115fa916001600160a01b039182169116308563ffffffff61288c16565b5050600160665550565b60d85481565b6001600160a01b0316600090815260d5602052604090205490565b61162d61254e565b6001600160a01b031661163e611889565b6001600160a01b031614611687576040805162461bcd60e51b815260206004820181905260248201526000805160206132e1833981519152604482015290519081900360640190fd5b6033546040516000916001600160a01b0316907f8be0079c531659141344cd1fd0a4f28419497f9722a3daafe3b4186f6b6457e0908390a3603380546001600160a01b0319169055565b60cb546001600160a01b031681565b60cd5481565b60006108de4260cc546128ec565b6116fc61254e565b6001600160a01b031661170d611889565b6001600160a01b031614611756576040805162461bcd60e51b815260206004820181905260248201526000805160206132e1833981519152604482015290519081900360640190fd5b61175e611427565b156117a3576040805162461bcd60e51b815260206004820152601060248201526f14185d5cd8589b194e881c185d5cd95960821b604482015290519081900360640190fd5b6111a8612902565b6117b361254e565b6001600160a01b03166117c4611889565b6001600160a01b03161461180d576040805162461bcd60e51b815260206004820181905260248201526000805160206132e1833981519152604482015290519081900360640190fd5b61182f611818611889565b6001600160a01b038416908363ffffffff61269c16565b604080516001600160a01b03841681526020810183905281517f8c1256b8896378cd5044f80c202f9772b9d77dc85c8a6eb51967210b09bfaa28929181900390910190a15050565b60d26020526000908152604090205481565b6033546001600160a01b031690565b60985460ff16156118da5760405162461bcd60e51b81526004018080602001828103825260468152602001806131b86046913960600191505060405180910390fd5b60026066541415611920576040805162461bcd60e51b815260206004820152601f6024820152600080516020613198833981519152604482015290519081900360640190fd5b600260665561192d611427565b15611972576040805162461bcd60e51b815260206004820152601060248201526f14185d5cd8589b194e881c185d5cd95960821b604482015290519081900360640190fd5b609854339060ff166119d857611986611de8565b60d1556119916116e6565b60d0556001600160a01b038116156119d8576119ac816106aa565b6001600160a01b038216600090815260d3602090815260408083209390935560d15460d2909152919020555b6119e23383612794565b60cb54610aaf906001600160a01b031633308563ffffffff61288c16565b60985460ff1615611a425760405162461bcd60e51b81526004018080602001828103825260468152602001806131b86046913960600191505060405180910390fd5b60026066541415611a88576040805162461bcd60e51b815260206004820152601f6024820152600080516020613198833981519152604482015290519081900360640190fd5b6002606655611a95611427565b15611ada576040805162461bcd60e51b815260206004820152601060248201526f14185d5cd8589b194e881c185d5cd95960821b604482015290519081900360640190fd5b60d7546001600160a01b03163314611b31576040805162461bcd60e51b81526020600482015260156024820152744f6e6c792063616c6c61626c652062792067616d6560581b604482015290519081900360640190fd5b609854829060ff16611b9757611b45611de8565b60d155611b506116e6565b60d0556001600160a01b03811615611b9757611b6b816106aa565b6001600160a01b038216600090815260d3602090815260408083209390935560d15460d2909152919020555b611ba18383612578565b60cb5460d7546040805163a9059cbb60e01b81526001600160a01b039283166004820152602481018690529051919092169163a9059cbb9160448083019260209291908290030181600087803b158015611bfa57600080fd5b505af1158015611c0e573d6000803e3d6000fd5b505050506040513d6020811015611c2457600080fd5b50506001606655505050565b611c3861254e565b6001600160a01b0316611c49611889565b6001600160a01b031614611c92576040805162461bcd60e51b815260206004820181905260248201526000805160206132e1833981519152604482015290519081900360640190fd5b60d980546001600160a01b0319166001600160a01b0392909216919091179055565b60d7546001600160a01b031690565b60d05481565b60985460ff1615611d0b5760405162461bcd60e51b81526004018080602001828103825260468152602001806131b86046913960600191505060405180910390fd5b611d1361254e565b6001600160a01b0316611d24611889565b6001600160a01b031614611d6d576040805162461bcd60e51b815260206004820181905260248201526000805160206132e1833981519152604482015290519081900360640190fd5b60cc544211611dad5760405162461bcd60e51b81526004018080602001828103825260588152602001806131406058913960600191505060405180910390fd5b60ce8190556040805182815290517ffb46ca5a5e06d4540d6387b930a7c978bce0db5f449ec6b3f5d07c6e1d44f2d39181900360200190a150565b600060d45460001415611dfe575060d15461083e565b6108de611e3360d454610722670de0b6b3a7640000611e2760cd54611e2760d0546106f16116e6565b9063ffffffff61242d16565b60d1549063ffffffff6124f416565b60ca546001600160a01b031681565b611e5961254e565b6001600160a01b0316611e6a611889565b6001600160a01b031614611eb3576040805162461bcd60e51b815260206004820181905260248201526000805160206132e1833981519152604482015290519081900360640190fd5b60d780546001600160a01b0319166001600160a01b0392909216919091179055565b60d15481565b60985460ff1615611f1d5760405162461bcd60e51b81526004018080602001828103825260468152602001806131b86046913960600191505060405180910390fd5b611f2561254e565b6001600160a01b0316611f36611889565b6001600160a01b031614611f7f576040805162461bcd60e51b815260206004820181905260248201526000805160206132e1833981519152604482015290519081900360640190fd5b600060d881905560cf81905560cc81905560cd81905560d1556111a8612987565b60985460ff1615611fe25760405162461bcd60e51b81526004018080602001828103825260468152602001806131b86046913960600191505060405180910390fd5b611fea61254e565b6001600160a01b0316611ffb611889565b6001600160a01b031614612044576040805162461bcd60e51b815260206004820181905260248201526000805160206132e1833981519152604482015290519081900360640190fd5b60cf8190556040805182815290517f2b0fa66d155c9598699cb6569577f27b95729bbf580268eed39db6bc4e8144779181900360200190a150565b60985460ff16156120c15760405162461bcd60e51b81526004018080602001828103825260468152602001806131b86046913960600191505060405180910390fd5b33600090815260d560205260409020546120da9061091c565b6111a8610f03565b60cc5481565b6120f061254e565b6001600160a01b0316612101611889565b6001600160a01b03161461214a576040805162461bcd60e51b815260206004820181905260248201526000805160206132e1833981519152604482015290519081900360640190fd5b6001600160a01b03811661218f5760405162461bcd60e51b81526004018080602001828103825260268152602001806132466026913960400191505060405180910390fd5b6033546040516001600160a01b038084169216907f8be0079c531659141344cd1fd0a4f28419497f9722a3daafe3b4186f6b6457e090600090a3603380546001600160a01b0319166001600160a01b0392909216919091179055565b60004260cc54116121fe5750600061083e565b60cf5433600090815260d660205260408120549091829161090391429161222a9163ffffffff6124f416565b9063ffffffff61255216565b600054610100900460ff168061224f575061224f612a21565b8061225d575060005460ff16155b6122985760405162461bcd60e51b815260040180806020018281038252602e815260200180613292602e913960400191505060405180910390fd5b600054610100900460ff161580156122c3576000805460ff1961ff0019909116610100171660011790555b6122cb612a32565b6122d3612adb565b6122db612bd4565b6122e3612c80565b6122eb612d2b565b6122f3612dd1565b6122fc866120e8565b60ca80546001600160a01b038087166001600160a01b03199283161790925560cb8054868416908316179055606580549288169290911691909117905560cf829055600060cc81905560cd5562ed4e0060ce558015612361576000805461ff00191690555b505050505050565b61237161254e565b6001600160a01b0316612382611889565b6001600160a01b0316146123cb576040805162461bcd60e51b815260206004820181905260248201526000805160206132e1833981519152604482015290519081900360640190fd5b60d855565b600082821115612427576040805162461bcd60e51b815260206004820152601e60248201527f536166654d6174683a207375627472616374696f6e206f766572666c6f770000604482015290519081900360640190fd5b50900390565b60008261243c5750600061073a565b8282028284828161244957fe5b04146124865760405162461bcd60e51b81526004018080602001828103825260218152602001806132c06021913960400191505060405180910390fd5b9392505050565b60008082116124e3576040805162461bcd60e51b815260206004820152601a60248201527f536166654d6174683a206469766973696f6e206279207a65726f000000000000604482015290519081900360640190fd5b8183816124ec57fe5b049392505050565b600082820183811015612486576040805162461bcd60e51b815260206004820152601b60248201527f536166654d6174683a206164646974696f6e206f766572666c6f770000000000604482015290519081900360640190fd5b3390565b6000808383111561256857506000905080612571565b50600190508183035b9250929050565b600081116125c1576040805162461bcd60e51b8152602060048201526011602482015270043616e6e6f74207769746864726177203607c1b604482015290519081900360640190fd5b60d4546125d4908263ffffffff6123d016565b60d4556001600160a01b038216600090815260d56020526040902054612600908263ffffffff6123d016565b6001600160a01b038316600090815260d56020526040902081905561263d576001600160a01b038216600090815260d66020526040812055612659565b6001600160a01b038216600090815260d6602052604090204290555b6040805182815290516001600160a01b038416917f7084f5476618d8e60b11ef0d7d3f06914655adb8793e28ff7f018d4c76d505d5919081900360200190a25050565b604080516001600160a01b038416602482015260448082018490528251808303909101815260649091019091526020810180516001600160e01b031663a9059cbb60e01b1790526126ee908490612e71565b505050565b6126fb611427565b612743576040805162461bcd60e51b815260206004820152601460248201527314185d5cd8589b194e881b9bdd081c185d5cd95960621b604482015290519081900360640190fd5b6098805461ff00191690557f5db9ee0a495bf2e6ff9c91a7834c1ba4fdd244a5e8aa4e537bd38aeae4b073aa61277761254e565b604080516001600160a01b039092168252519081900360200190a1565b60d8548110156127eb576040805162461bcd60e51b815260206004820152601d60248201527f4d696e696d756d207374616b6520616d6f756e74207265717569726564000000604482015290519081900360640190fd5b60d4546127fe908263ffffffff6124f416565b60d4556001600160a01b038216600090815260d5602052604090205461282a908263ffffffff6124f416565b6001600160a01b038316600081815260d5602090815260408083209490945560d68152908390204290558251848152925191927f9e71bc8eea02a63969f509818f2dafb9254532904319f9dbda79b67bd34a5f3d929081900390910190a25050565b604080516001600160a01b0380861660248301528416604482015260648082018490528251808303909101815260849091019091526020810180516001600160e01b03166323b872dd60e01b1790526128e6908590612e71565b50505050565b60008183106128fb5781612486565b5090919050565b61290a611427565b1561294f576040805162461bcd60e51b815260206004820152601060248201526f14185d5cd8589b194e881c185d5cd95960821b604482015290519081900360640190fd5b6098805461ff0019166101001790557f62e78cea01bee320cd4e420270b5ea74000d11b0c9f74754ebdbfc544b05a25861277761254e565b61298f61254e565b6001600160a01b03166129a0611889565b6001600160a01b0316146129e9576040805162461bcd60e51b815260206004820181905260248201526000805160206132e1833981519152604482015290519081900360640190fd5b6098805460ff191660011790556040517fe68101b30364d616deefc8cd307b7e27ccbd9c73f138bd478179497563d97a1190600090a1565b6000612a2c30612f22565b15905090565b600054610100900460ff1680612a4b5750612a4b612a21565b80612a59575060005460ff16155b612a945760405162461bcd60e51b815260040180806020018281038252602e815260200180613292602e913960400191505060405180910390fd5b600054610100900460ff16158015612abf576000805460ff1961ff0019909116610100171660011790555b612ac7612dd1565b8015610c5c576000805461ff001916905550565b600054610100900460ff1680612af45750612af4612a21565b80612b02575060005460ff16155b612b3d5760405162461bcd60e51b815260040180806020018281038252602e815260200180613292602e913960400191505060405180910390fd5b600054610100900460ff16158015612b68576000805460ff1961ff0019909116610100171660011790555b6000612b7261254e565b603380546001600160a01b0319166001600160a01b038316908117909155604051919250906000907f8be0079c531659141344cd1fd0a4f28419497f9722a3daafe3b4186f6b6457e0908290a3508015610c5c576000805461ff001916905550565b600054610100900460ff1680612bed5750612bed612a21565b80612bfb575060005460ff16155b612c365760405162461bcd60e51b815260040180806020018281038252602e815260200180613292602e913960400191505060405180910390fd5b600054610100900460ff16158015612c61576000805460ff1961ff0019909116610100171660011790555b6098805461ff00191690558015610c5c576000805461ff001916905550565b600054610100900460ff1680612c995750612c99612a21565b80612ca7575060005460ff16155b612ce25760405162461bcd60e51b815260040180806020018281038252602e815260200180613292602e913960400191505060405180910390fd5b600054610100900460ff16158015612d0d576000805460ff1961ff0019909116610100171660011790555b6098805460ff191690558015610c5c576000805461ff001916905550565b600054610100900460ff1680612d445750612d44612a21565b80612d52575060005460ff16155b612d8d5760405162461bcd60e51b815260040180806020018281038252602e815260200180613292602e913960400191505060405180910390fd5b600054610100900460ff16158015612db8576000805460ff1961ff0019909116610100171660011790555b60016066558015610c5c576000805461ff001916905550565b600054610100900460ff1680612dea5750612dea612a21565b80612df8575060005460ff16155b612e335760405162461bcd60e51b815260040180806020018281038252602e815260200180613292602e913960400191505060405180910390fd5b600054610100900460ff16158015612ac7576000805460ff1961ff0019909116610100171660011790558015610c5c576000805461ff001916905550565b6060612ec6826040518060400160405280602081526020017f5361666545524332303a206c6f772d6c6576656c2063616c6c206661696c6564815250856001600160a01b0316612f289092919063ffffffff16565b8051909150156126ee57808060200190516020811015612ee557600080fd5b50516126ee5760405162461bcd60e51b815260040180806020018281038252602a815260200180613386602a913960400191505060405180910390fd5b3b151590565b6060612f378484600085612f3f565b949350505050565b606082471015612f805760405162461bcd60e51b815260040180806020018281038252602681526020018061326c6026913960400191505060405180910390fd5b612f8985612f22565b612fda576040805162461bcd60e51b815260206004820152601d60248201527f416464726573733a2063616c6c20746f206e6f6e2d636f6e7472616374000000604482015290519081900360640190fd5b60006060866001600160a01b031685876040518082805190602001908083835b602083106130195780518252601f199092019160209182019101612ffa565b6001836020036101000a03801982511681845116808217855250505050505090500191505060006040518083038185875af1925050503d806000811461307b576040519150601f19603f3d011682016040523d82523d6000602084013e613080565b606091505b509150915061309082828661309b565b979650505050505050565b606083156130aa575081612486565b8251156130ba5782518084602001fd5b8160405162461bcd60e51b81526004018080602001828103825283818151815260200191508051906020019080838360005b838110156131045781810151838201526020016130ec565b50505050905090810190601f1680156131315780820380516001836020036101000a031916815260200191505b509250505060405180910390fdfe50726576696f7573207265776172647320706572696f64206d75737420626520636f6d706c657465206265666f7265206368616e67696e6720746865206475726174696f6e20666f7220746865206e657720706572696f645265656e7472616e637947756172643a207265656e7472616e742063616c6c005468697320616374696f6e2063616e6e6f7420626520706572666f726d6564207768696c652074686520636f6e747261637420697320696e204661696c73616665204d6f64655468697320616374696f6e2063616e206f6e6c7920626520706572666f726d6564207768696c652074686520636f6e747261637420697320696e204661696c73616665204d6f64654f776e61626c653a206e6577206f776e657220697320746865207a65726f2061646472657373416464726573733a20696e73756666696369656e742062616c616e636520666f722063616c6c496e697469616c697a61626c653a20636f6e747261637420697320616c726561647920696e697469616c697a6564536166654d6174683a206d756c7469706c69636174696f6e206f766572666c6f774f776e61626c653a2063616c6c6572206973206e6f7420746865206f776e657243616e6e6f7420776974686472617720756e74696c206d696e696d756d207374616b696e672074696d65206861732070617373656454696d657374616d70206d757374206265206166746572206c61737455706461746554696d6543616c6c6572206973206e6f742052657761726473446973747269627574696f6e20636f6e74726163745361666545524332303a204552433230206f7065726174696f6e20646964206e6f74207375636365656443616e6e6f74206765742072657761726420756e74696c206d696e696d756d207374616b696e672074696d652068617320706173736564a2646970667358221220c04008874994430112641d6b838b92fca697549fb3c489f407ea548b92435bc064736f6c63430006050033","immutableReferences":{},"source":"pragma solidity ^0.6.2;\n\nimport \"./staking/StakingRewardsUpgradeable.sol\";\nimport \"./interfaces/IStakeFromGame.sol\";\nimport \"./cryptoblades.sol\";\n\ncontract SkillStakingRewardsUpgradeable is\n    IStakeFromGame,\n    StakingRewardsUpgradeable\n{\n\n    SpecialWeaponsManager private specialWeaponsManager;\n\n    /* ========== VIEWS ========== */\n\n    function game() external view returns (CryptoBlades) {\n        return __game;\n    }\n\n    /* ========== RESTRICTED FUNCTIONS ========== */\n\n    function migrateTo_23b3a8b(CryptoBlades _game) external onlyOwner {\n        __game = _game;\n    }\n\n    function migrateTo_e1fe97c(SpecialWeaponsManager _swm) external onlyOwner {\n        specialWeaponsManager = _swm;\n    }\n\n    function stakeFromGame(address player, uint256 amount)\n        external\n        override\n        normalMode\n        nonReentrant\n        whenNotPaused\n        onlyGame\n        updateReward(player)\n    {\n        _stake(player, amount);\n        stakingToken.safeTransferFrom(address(__game), address(this), amount);\n    }\n\n    function unstakeToGame(address player, uint256 amount)\n        external\n        override\n        normalMode\n        nonReentrant\n        whenNotPaused\n        onlyGame\n        updateReward(player)\n    {\n        _unstake(player, amount);\n        stakingToken.transfer(address(__game), amount);\n    }\n\n    function stake(uint256 amount)\n        external\n        override\n        normalMode\n        nonReentrant\n        whenNotPaused\n        updateReward(msg.sender)\n    {\n        _stake(msg.sender, amount);\n        stakingToken.safeTransferFrom(msg.sender, address(this), amount);\n        specialWeaponsManager.updateStakingReward(msg.sender, _balances[msg.sender]);\n    }\n\n    function withdraw(uint256 amount)\n        public\n        override\n        normalMode\n        nonReentrant\n        updateReward(msg.sender)\n    {\n        require(\n            minimumStakeTime == 0 ||\n                block.timestamp.sub(_stakeTimestamp[msg.sender]) >=\n                minimumStakeTime ||\n                periodFinish <= block.timestamp,\n            \"Cannot withdraw until minimum staking time has passed\"\n        );\n        _unstake(msg.sender, amount);\n        stakingToken.safeTransfer(msg.sender, amount);\n        specialWeaponsManager.updateStakingReward(msg.sender, _balances[msg.sender]);\n    }\n\n    function exit() external override normalMode {\n        withdraw(_balances[msg.sender]);\n        getReward();\n    }\n\n    function recoverOwnStake() external override failsafeMode {\n        uint256 amount = _balances[msg.sender];\n        if (amount > 0) {\n            _totalSupply = _totalSupply.sub(amount);\n            _balances[msg.sender] = _balances[msg.sender].sub(amount);\n            stakingToken.safeTransfer(msg.sender, amount);\n            specialWeaponsManager.updateStakingReward(msg.sender, _balances[msg.sender]);\n        }\n    }\n\n    function recoverERC20(address tokenAddress, uint256 tokenAmount)\n      external\n      virtual\n      override\n      onlyOwner\n    {\n        IERC20(tokenAddress).safeTransfer(owner(), tokenAmount);\n        emit Recovered(tokenAddress, tokenAmount);\n    }\n\n    /* ========== MODIFIERS ========== */\n\n    modifier onlyGame() {\n        require(msg.sender == address(__game), \"Only callable by game\");\n        _;\n    }\n}\n","sourcePath":"/home/runner/work/cryptoblades/cryptoblades/contracts/SkillStakingRewardsUpgradeable.sol","compiler":{"name":"solc","version":"0.6.5+commit.f956cc89.Emscripten.clang"},"schemaVersion":"3.3.4","updatedAt":"2023-03-29T09:16:01.067Z","devdoc":{"methods":{"owner()":{"details":"Returns the address of the current owner."},"paused()":{"details":"Returns true if the contract is paused, and false otherwise."},"renounceOwnership()":{"details":"Leaves the contract without owner. It will not be possible to call `onlyOwner` functions anymore. Can only be called by the current owner.     * NOTE: Renouncing ownership will leave the contract without an owner, thereby removing any functionality that is only available to the owner."},"transferOwnership(address)":{"details":"Transfers ownership of the contract to a new account (`newOwner`). Can only be called by the current owner."}}},"userdoc":{"methods":{}}}