{"contractName":"Weapons","abi":[{"anonymous":false,"inputs":[{"indexed":true,"internalType":"address","name":"owner","type":"address"},{"indexed":true,"internalType":"address","name":"approved","type":"address"},{"indexed":true,"internalType":"uint256","name":"tokenId","type":"uint256"}],"name":"Approval","type":"event"},{"anonymous":false,"inputs":[{"indexed":true,"internalType":"address","name":"owner","type":"address"},{"indexed":true,"internalType":"address","name":"operator","type":"address"},{"indexed":false,"internalType":"bool","name":"approved","type":"bool"}],"name":"ApprovalForAll","type":"event"},{"anonymous":false,"inputs":[{"indexed":true,"internalType":"address","name":"owner","type":"address"},{"indexed":true,"internalType":"uint256","name":"burned","type":"uint256"}],"name":"Burned","type":"event"},{"anonymous":false,"inputs":[{"indexed":true,"internalType":"uint256","name":"weapon","type":"uint256"},{"indexed":true,"internalType":"address","name":"minter","type":"address"},{"indexed":false,"internalType":"uint24","name":"weaponType","type":"uint24"}],"name":"NewWeapon","type":"event"},{"anonymous":false,"inputs":[{"indexed":true,"internalType":"address","name":"owner","type":"address"},{"indexed":true,"internalType":"uint256","name":"reforged","type":"uint256"},{"indexed":true,"internalType":"uint256","name":"burned","type":"uint256"},{"indexed":false,"internalType":"uint8","name":"lowPoints","type":"uint8"},{"indexed":false,"internalType":"uint8","name":"fourPoints","type":"uint8"},{"indexed":false,"internalType":"uint8","name":"fivePoints","type":"uint8"}],"name":"Reforged","type":"event"},{"anonymous":false,"inputs":[{"indexed":true,"internalType":"address","name":"owner","type":"address"},{"indexed":true,"internalType":"uint256","name":"reforged","type":"uint256"},{"indexed":false,"internalType":"uint8","name":"lowDust","type":"uint8"},{"indexed":false,"internalType":"uint8","name":"fourDust","type":"uint8"},{"indexed":false,"internalType":"uint8","name":"fiveDust","type":"uint8"},{"indexed":false,"internalType":"uint8","name":"lowPoints","type":"uint8"},{"indexed":false,"internalType":"uint8","name":"fourPoints","type":"uint8"},{"indexed":false,"internalType":"uint8","name":"fivePoints","type":"uint8"}],"name":"ReforgedWithDust","type":"event"},{"anonymous":false,"inputs":[{"indexed":true,"internalType":"bytes32","name":"role","type":"bytes32"},{"indexed":true,"internalType":"bytes32","name":"previousAdminRole","type":"bytes32"},{"indexed":true,"internalType":"bytes32","name":"newAdminRole","type":"bytes32"}],"name":"RoleAdminChanged","type":"event"},{"anonymous":false,"inputs":[{"indexed":true,"internalType":"bytes32","name":"role","type":"bytes32"},{"indexed":true,"internalType":"address","name":"account","type":"address"},{"indexed":true,"internalType":"address","name":"sender","type":"address"}],"name":"RoleGranted","type":"event"},{"anonymous":false,"inputs":[{"indexed":true,"internalType":"bytes32","name":"role","type":"bytes32"},{"indexed":true,"internalType":"address","name":"account","type":"address"},{"indexed":true,"internalType":"address","name":"sender","type":"address"}],"name":"RoleRevoked","type":"event"},{"anonymous":false,"inputs":[{"indexed":true,"internalType":"address","name":"from","type":"address"},{"indexed":true,"internalType":"address","name":"to","type":"address"},{"indexed":true,"internalType":"uint256","name":"tokenId","type":"uint256"}],"name":"Transfer","type":"event"},{"inputs":[],"name":"DEFAULT_ADMIN_ROLE","outputs":[{"internalType":"bytes32","name":"","type":"bytes32"}],"stateMutability":"view","type":"function"},{"inputs":[],"name":"GAME_ADMIN","outputs":[{"internalType":"bytes32","name":"","type":"bytes32"}],"stateMutability":"view","type":"function"},{"inputs":[],"name":"MINTER_ROLE","outputs":[{"internalType":"bytes32","name":"","type":"bytes32"}],"stateMutability":"view","type":"function"},{"inputs":[],"name":"NFTVAR_BUSY","outputs":[{"internalType":"uint256","name":"","type":"uint256"}],"stateMutability":"view","type":"function"},{"inputs":[],"name":"NFTVAR_WEAPON_TYPE","outputs":[{"internalType":"uint256","name":"","type":"uint256"}],"stateMutability":"view","type":"function"},{"inputs":[{"internalType":"address","name":"to","type":"address"},{"internalType":"uint256","name":"tokenId","type":"uint256"}],"name":"approve","outputs":[],"stateMutability":"nonpayable","type":"function"},{"inputs":[{"internalType":"address","name":"owner","type":"address"}],"name":"balanceOf","outputs":[{"internalType":"uint256","name":"","type":"uint256"}],"stateMutability":"view","type":"function"},{"inputs":[],"name":"baseURI","outputs":[{"internalType":"string","name":"","type":"string"}],"stateMutability":"view","type":"function"},{"inputs":[],"name":"burnPointMultiplier","outputs":[{"internalType":"uint256","name":"","type":"uint256"}],"stateMutability":"view","type":"function"},{"inputs":[],"name":"fiveStarBurnPowerPerPoint","outputs":[{"internalType":"uint256","name":"","type":"uint256"}],"stateMutability":"view","type":"function"},{"inputs":[],"name":"fourStarBurnPowerPerPoint","outputs":[{"internalType":"uint256","name":"","type":"uint256"}],"stateMutability":"view","type":"function"},{"inputs":[{"internalType":"uint256","name":"tokenId","type":"uint256"}],"name":"getApproved","outputs":[{"internalType":"address","name":"","type":"address"}],"stateMutability":"view","type":"function"},{"inputs":[{"internalType":"bytes32","name":"role","type":"bytes32"}],"name":"getRoleAdmin","outputs":[{"internalType":"bytes32","name":"","type":"bytes32"}],"stateMutability":"view","type":"function"},{"inputs":[{"internalType":"bytes32","name":"role","type":"bytes32"},{"internalType":"uint256","name":"index","type":"uint256"}],"name":"getRoleMember","outputs":[{"internalType":"address","name":"","type":"address"}],"stateMutability":"view","type":"function"},{"inputs":[{"internalType":"bytes32","name":"role","type":"bytes32"}],"name":"getRoleMemberCount","outputs":[{"internalType":"uint256","name":"","type":"uint256"}],"stateMutability":"view","type":"function"},{"inputs":[{"internalType":"bytes32","name":"role","type":"bytes32"},{"internalType":"address","name":"account","type":"address"}],"name":"grantRole","outputs":[],"stateMutability":"nonpayable","type":"function"},{"inputs":[{"internalType":"bytes32","name":"role","type":"bytes32"},{"internalType":"address","name":"account","type":"address"}],"name":"hasRole","outputs":[{"internalType":"bool","name":"","type":"bool"}],"stateMutability":"view","type":"function"},{"inputs":[{"internalType":"address","name":"owner","type":"address"},{"internalType":"address","name":"operator","type":"address"}],"name":"isApprovedForAll","outputs":[{"internalType":"bool","name":"","type":"bool"}],"stateMutability":"view","type":"function"},{"inputs":[{"internalType":"uint256","name":"","type":"uint256"}],"name":"lastTransferTimestamp","outputs":[{"internalType":"uint256","name":"","type":"uint256"}],"stateMutability":"view","type":"function"},{"inputs":[],"name":"lowStarBurnPowerPerPoint","outputs":[{"internalType":"uint256","name":"","type":"uint256"}],"stateMutability":"view","type":"function"},{"inputs":[],"name":"maxDurability","outputs":[{"internalType":"uint256","name":"","type":"uint256"}],"stateMutability":"view","type":"function"},{"inputs":[],"name":"name","outputs":[{"internalType":"string","name":"","type":"string"}],"stateMutability":"view","type":"function"},{"inputs":[{"internalType":"uint256","name":"","type":"uint256"},{"internalType":"uint256","name":"","type":"uint256"}],"name":"nftVars","outputs":[{"internalType":"uint256","name":"","type":"uint256"}],"stateMutability":"view","type":"function"},{"inputs":[{"internalType":"uint256","name":"","type":"uint256"}],"name":"numberParameters","outputs":[{"internalType":"uint256","name":"","type":"uint256"}],"stateMutability":"view","type":"function"},{"inputs":[{"internalType":"uint256","name":"tokenId","type":"uint256"}],"name":"ownerOf","outputs":[{"internalType":"address","name":"","type":"address"}],"stateMutability":"view","type":"function"},{"inputs":[],"name":"promos","outputs":[{"internalType":"contract Promos","name":"","type":"address"}],"stateMutability":"view","type":"function"},{"inputs":[{"internalType":"bytes32","name":"role","type":"bytes32"},{"internalType":"address","name":"account","type":"address"}],"name":"renounceRole","outputs":[],"stateMutability":"nonpayable","type":"function"},{"inputs":[{"internalType":"bytes32","name":"role","type":"bytes32"},{"internalType":"address","name":"account","type":"address"}],"name":"revokeRole","outputs":[],"stateMutability":"nonpayable","type":"function"},{"inputs":[{"internalType":"address","name":"from","type":"address"},{"internalType":"address","name":"to","type":"address"},{"internalType":"uint256","name":"tokenId","type":"uint256"}],"name":"safeTransferFrom","outputs":[],"stateMutability":"nonpayable","type":"function"},{"inputs":[{"internalType":"address","name":"from","type":"address"},{"internalType":"address","name":"to","type":"address"},{"internalType":"uint256","name":"tokenId","type":"uint256"},{"internalType":"bytes","name":"_data","type":"bytes"}],"name":"safeTransferFrom","outputs":[],"stateMutability":"nonpayable","type":"function"},{"inputs":[],"name":"secondsPerDurability","outputs":[{"internalType":"uint256","name":"","type":"uint256"}],"stateMutability":"view","type":"function"},{"inputs":[{"internalType":"address","name":"operator","type":"address"},{"internalType":"bool","name":"approved","type":"bool"}],"name":"setApprovalForAll","outputs":[],"stateMutability":"nonpayable","type":"function"},{"inputs":[{"internalType":"bytes4","name":"interfaceId","type":"bytes4"}],"name":"supportsInterface","outputs":[{"internalType":"bool","name":"","type":"bool"}],"stateMutability":"view","type":"function"},{"inputs":[],"name":"symbol","outputs":[{"internalType":"string","name":"","type":"string"}],"stateMutability":"view","type":"function"},{"inputs":[{"internalType":"uint256","name":"index","type":"uint256"}],"name":"tokenByIndex","outputs":[{"internalType":"uint256","name":"","type":"uint256"}],"stateMutability":"view","type":"function"},{"inputs":[{"internalType":"address","name":"owner","type":"address"},{"internalType":"uint256","name":"index","type":"uint256"}],"name":"tokenOfOwnerByIndex","outputs":[{"internalType":"uint256","name":"","type":"uint256"}],"stateMutability":"view","type":"function"},{"inputs":[{"internalType":"uint256","name":"tokenId","type":"uint256"}],"name":"tokenURI","outputs":[{"internalType":"string","name":"","type":"string"}],"stateMutability":"view","type":"function"},{"inputs":[],"name":"totalSupply","outputs":[{"internalType":"uint256","name":"","type":"uint256"}],"stateMutability":"view","type":"function"},{"inputs":[{"internalType":"address","name":"from","type":"address"},{"internalType":"address","name":"to","type":"address"},{"internalType":"uint256","name":"tokenId","type":"uint256"}],"name":"transferFrom","outputs":[],"stateMutability":"nonpayable","type":"function"},{"inputs":[],"name":"initialize","outputs":[],"stateMutability":"nonpayable","type":"function"},{"inputs":[],"name":"migrateTo_e55d8c5","outputs":[],"stateMutability":"nonpayable","type":"function"},{"inputs":[],"name":"migrateTo_aa9da90","outputs":[],"stateMutability":"nonpayable","type":"function"},{"inputs":[],"name":"migrateTo_951a020","outputs":[],"stateMutability":"nonpayable","type":"function"},{"inputs":[{"internalType":"contract Promos","name":"_promos","type":"address"}],"name":"migrateTo_surprise","outputs":[],"stateMutability":"nonpayable","type":"function"},{"inputs":[{"internalType":"uint256","name":"id","type":"uint256"}],"name":"getCosmeticsSeed","outputs":[{"internalType":"uint256","name":"","type":"uint256"}],"stateMutability":"view","type":"function"},{"inputs":[{"internalType":"uint256","name":"id","type":"uint256"}],"name":"get","outputs":[{"internalType":"uint16","name":"_properties","type":"uint16"},{"internalType":"uint16","name":"_stat1","type":"uint16"},{"internalType":"uint16","name":"_stat2","type":"uint16"},{"internalType":"uint16","name":"_stat3","type":"uint16"},{"internalType":"uint8","name":"_level","type":"uint8"},{"internalType":"uint32","name":"_cosmetics","type":"uint32"},{"internalType":"uint24","name":"_burnPoints","type":"uint24"},{"internalType":"uint24","name":"_bonusPower","type":"uint24"},{"internalType":"uint24","name":"_weaponType","type":"uint24"}],"stateMutability":"view","type":"function"},{"inputs":[{"internalType":"string","name":"baseUri","type":"string"}],"name":"setBaseURI","outputs":[],"stateMutability":"nonpayable","type":"function"},{"inputs":[{"internalType":"address","name":"minter","type":"address"},{"internalType":"uint32","name":"amount","type":"uint32"},{"internalType":"uint256","name":"seed","type":"uint256"},{"internalType":"uint8","name":"chosenElement","type":"uint8"}],"name":"mintN","outputs":[],"stateMutability":"nonpayable","type":"function"},{"inputs":[{"internalType":"address","name":"minter","type":"address"},{"internalType":"uint256","name":"seed","type":"uint256"},{"internalType":"uint8","name":"chosenElement","type":"uint8"}],"name":"mint","outputs":[{"internalType":"uint256","name":"","type":"uint256"}],"stateMutability":"nonpayable","type":"function"},{"inputs":[{"internalType":"address","name":"minter","type":"address"},{"internalType":"uint256","name":"eventId","type":"uint256"},{"internalType":"uint256","name":"stars","type":"uint256"},{"internalType":"uint256","name":"seed","type":"uint256"},{"internalType":"uint8","name":"element","type":"uint8"}],"name":"mintSpecialWeapon","outputs":[{"internalType":"uint256","name":"","type":"uint256"}],"stateMutability":"nonpayable","type":"function"},{"inputs":[{"internalType":"address","name":"to","type":"address"},{"internalType":"uint256","name":"stars","type":"uint256"},{"internalType":"uint8","name":"chosenElement","type":"uint8"}],"name":"mintGiveawayWeapon","outputs":[{"internalType":"uint256","name":"","type":"uint256"}],"stateMutability":"nonpayable","type":"function"},{"inputs":[{"internalType":"address","name":"minter","type":"address"},{"internalType":"uint256","name":"stars","type":"uint256"},{"internalType":"uint256","name":"seed","type":"uint256"},{"internalType":"uint8","name":"chosenElement","type":"uint8"}],"name":"mintWeaponWithStars","outputs":[{"internalType":"uint256","name":"","type":"uint256"}],"stateMutability":"nonpayable","type":"function"},{"inputs":[{"internalType":"address","name":"minter","type":"address"},{"internalType":"uint256","name":"weaponType","type":"uint256"},{"internalType":"uint16","name":"properties","type":"uint16"},{"internalType":"uint16","name":"stat1","type":"uint16"},{"internalType":"uint16","name":"stat2","type":"uint16"},{"internalType":"uint16","name":"stat3","type":"uint16"},{"internalType":"uint256","name":"cosmeticSeed","type":"uint256"}],"name":"performMintWeapon","outputs":[{"internalType":"uint256","name":"tokenID","type":"uint256"}],"stateMutability":"nonpayable","type":"function"},{"inputs":[{"internalType":"address","name":"minter","type":"address"},{"internalType":"uint256","name":"metaData","type":"uint256"},{"internalType":"uint256","name":"cosmeticSeed","type":"uint256"},{"internalType":"uint256","name":"tokenID","type":"uint256"}],"name":"performMintWeaponDetailed","outputs":[{"internalType":"uint256","name":"","type":"uint256"}],"stateMutability":"nonpayable","type":"function"},{"inputs":[{"internalType":"uint256","name":"id","type":"uint256"}],"name":"getProperties","outputs":[{"internalType":"uint16","name":"","type":"uint16"}],"stateMutability":"view","type":"function"},{"inputs":[{"internalType":"uint256","name":"id","type":"uint256"}],"name":"getStars","outputs":[{"internalType":"uint8","name":"","type":"uint8"}],"stateMutability":"view","type":"function"},{"inputs":[{"internalType":"uint256","name":"id","type":"uint256"}],"name":"getTrait","outputs":[{"internalType":"uint8","name":"","type":"uint8"}],"stateMutability":"view","type":"function"},{"inputs":[{"internalType":"uint256","name":"id","type":"uint256"}],"name":"getStatPattern","outputs":[{"internalType":"uint8","name":"","type":"uint8"}],"stateMutability":"view","type":"function"},{"inputs":[{"internalType":"uint256","name":"id","type":"uint256"}],"name":"getLevel","outputs":[{"internalType":"uint8","name":"","type":"uint8"}],"stateMutability":"view","type":"function"},{"inputs":[{"internalType":"uint256","name":"id","type":"uint256"}],"name":"getStat1","outputs":[{"internalType":"uint16","name":"","type":"uint16"}],"stateMutability":"view","type":"function"},{"inputs":[{"internalType":"uint256","name":"id","type":"uint256"}],"name":"getStat2","outputs":[{"internalType":"uint16","name":"","type":"uint16"}],"stateMutability":"view","type":"function"},{"inputs":[{"internalType":"uint256","name":"id","type":"uint256"}],"name":"getStat3","outputs":[{"internalType":"uint16","name":"","type":"uint16"}],"stateMutability":"view","type":"function"},{"inputs":[{"internalType":"uint256","name":"id","type":"uint256"}],"name":"getPowerMultiplier","outputs":[{"internalType":"int128","name":"","type":"int128"}],"stateMutability":"view","type":"function"},{"inputs":[{"internalType":"uint16","name":"properties","type":"uint16"},{"internalType":"uint16","name":"stat1","type":"uint16"},{"internalType":"uint16","name":"stat2","type":"uint16"},{"internalType":"uint16","name":"stat3","type":"uint16"},{"internalType":"uint8","name":"trait","type":"uint8"}],"name":"getPowerMultiplierForTrait","outputs":[{"internalType":"int128","name":"","type":"int128"}],"stateMutability":"view","type":"function"},{"inputs":[{"internalType":"address","name":"playerAddress","type":"address"}],"name":"getDustSupplies","outputs":[{"internalType":"uint32[]","name":"","type":"uint32[]"}],"stateMutability":"view","type":"function"},{"inputs":[{"internalType":"address","name":"playerAddress","type":"address"},{"internalType":"uint32","name":"amountLB","type":"uint32"},{"internalType":"uint32","name":"amount4B","type":"uint32"},{"internalType":"uint32","name":"amount5B","type":"uint32"}],"name":"decrementDustSupplies","outputs":[],"stateMutability":"nonpayable","type":"function"},{"inputs":[{"internalType":"address","name":"playerAddress","type":"address"},{"internalType":"uint32","name":"amountLB","type":"uint32"},{"internalType":"uint32","name":"amount4B","type":"uint32"},{"internalType":"uint32","name":"amount5B","type":"uint32"}],"name":"incrementDustSupplies","outputs":[],"stateMutability":"nonpayable","type":"function"},{"inputs":[{"internalType":"uint256","name":"burnID","type":"uint256"}],"name":"_calculateBurnValues","outputs":[{"internalType":"uint8[]","name":"","type":"uint8[]"}],"stateMutability":"view","type":"function"},{"inputs":[{"internalType":"uint256","name":"burnID","type":"uint256"}],"name":"burn","outputs":[],"stateMutability":"nonpayable","type":"function"},{"inputs":[{"internalType":"uint256[]","name":"burnIDs","type":"uint256[]"}],"name":"burnWithoutDust","outputs":[],"stateMutability":"nonpayable","type":"function"},{"inputs":[{"internalType":"uint256","name":"reforgeID","type":"uint256"},{"internalType":"uint256","name":"burnID","type":"uint256"}],"name":"reforge","outputs":[],"stateMutability":"nonpayable","type":"function"},{"inputs":[{"internalType":"uint256","name":"reforgeID","type":"uint256"},{"internalType":"uint8","name":"amountLB","type":"uint8"},{"internalType":"uint8","name":"amount4B","type":"uint8"},{"internalType":"uint8","name":"amount5B","type":"uint8"}],"name":"reforgeWithDust","outputs":[],"stateMutability":"nonpayable","type":"function"},{"inputs":[{"internalType":"uint256","name":"id","type":"uint256"}],"name":"getWeaponType","outputs":[{"internalType":"uint24","name":"","type":"uint24"}],"stateMutability":"view","type":"function"},{"inputs":[{"internalType":"uint256","name":"id","type":"uint256"}],"name":"getBonusPower","outputs":[{"internalType":"uint24","name":"","type":"uint24"}],"stateMutability":"view","type":"function"},{"inputs":[{"internalType":"uint256","name":"id","type":"uint256"},{"internalType":"uint8","name":"level","type":"uint8"}],"name":"getBonusPowerForFight","outputs":[{"internalType":"uint24","name":"","type":"uint24"}],"stateMutability":"view","type":"function"},{"inputs":[{"internalType":"uint256","name":"id","type":"uint256"},{"internalType":"uint8","name":"charTrait","type":"uint8"}],"name":"getFightData","outputs":[{"internalType":"int128","name":"","type":"int128"},{"internalType":"int128","name":"","type":"int128"},{"internalType":"uint24","name":"","type":"uint24"},{"internalType":"uint8","name":"","type":"uint8"}],"stateMutability":"view","type":"function"},{"inputs":[{"internalType":"address","name":"fighter","type":"address"},{"internalType":"uint256","name":"id","type":"uint256"},{"internalType":"uint8","name":"charTrait","type":"uint8"},{"internalType":"uint8","name":"drainAmount","type":"uint8"},{"internalType":"bool","name":"allowNegativeDurability","type":"bool"},{"internalType":"uint256","name":"busyFlag","type":"uint256"}],"name":"getFightDataAndDrainDurability","outputs":[{"internalType":"int128","name":"","type":"int128"},{"internalType":"int128","name":"","type":"int128"},{"internalType":"uint24","name":"","type":"uint24"},{"internalType":"uint8","name":"","type":"uint8"}],"stateMutability":"nonpayable","type":"function"},{"inputs":[{"internalType":"uint256","name":"id","type":"uint256"},{"internalType":"uint8","name":"amount","type":"uint8"},{"internalType":"bool","name":"allowNegativeDurabilty","type":"bool"}],"name":"drainDurability","outputs":[],"stateMutability":"nonpayable","type":"function"},{"inputs":[{"internalType":"uint256","name":"multiplier","type":"uint256"}],"name":"setBurnPointMultiplier","outputs":[],"stateMutability":"nonpayable","type":"function"},{"inputs":[{"internalType":"uint256","name":"powerPerBurnPoint","type":"uint256"}],"name":"setLowStarBurnPowerPerPoint","outputs":[],"stateMutability":"nonpayable","type":"function"},{"inputs":[{"internalType":"uint256","name":"powerPerBurnPoint","type":"uint256"}],"name":"setFourStarBurnPowerPerPoint","outputs":[],"stateMutability":"nonpayable","type":"function"},{"inputs":[{"internalType":"uint256","name":"powerPerBurnPoint","type":"uint256"}],"name":"setFiveStarBurnPowerPerPoint","outputs":[],"stateMutability":"nonpayable","type":"function"},{"inputs":[{"internalType":"uint256","name":"id","type":"uint256"}],"name":"getDurabilityTimestamp","outputs":[{"internalType":"uint64","name":"","type":"uint64"}],"stateMutability":"view","type":"function"},{"inputs":[{"internalType":"uint256","name":"id","type":"uint256"},{"internalType":"uint64","name":"timestamp","type":"uint64"}],"name":"setDurabilityTimestamp","outputs":[],"stateMutability":"nonpayable","type":"function"},{"inputs":[{"internalType":"uint256","name":"id","type":"uint256"}],"name":"getDurabilityPoints","outputs":[{"internalType":"uint8","name":"","type":"uint8"}],"stateMutability":"view","type":"function"},{"inputs":[{"internalType":"uint64","name":"timestamp","type":"uint64"}],"name":"getDurabilityPointsFromTimestamp","outputs":[{"internalType":"uint8","name":"","type":"uint8"}],"stateMutability":"view","type":"function"},{"inputs":[{"internalType":"uint256","name":"id","type":"uint256"}],"name":"isDurabilityFull","outputs":[{"internalType":"bool","name":"","type":"bool"}],"stateMutability":"view","type":"function"},{"inputs":[{"internalType":"uint256","name":"weaponID","type":"uint256"},{"internalType":"uint256","name":"nftVar","type":"uint256"}],"name":"getNftVar","outputs":[{"internalType":"uint256","name":"","type":"uint256"}],"stateMutability":"view","type":"function"},{"inputs":[{"internalType":"uint256","name":"weaponID","type":"uint256"},{"internalType":"uint256","name":"nftVar","type":"uint256"},{"internalType":"uint256","name":"value","type":"uint256"}],"name":"setNftVar","outputs":[],"stateMutability":"nonpayable","type":"function"}],"bytecode":"0x608060405234801561001057600080fd5b50615c4680620000216000396000f3fe608060405234801561001057600080fd5b50600436106104e35760003560e01c80636c0360eb1161028e578063a3b5ccb111610167578063d547741f116100d9578063e985e9c511610092578063e985e9c51461131f578063f006e8d71461134d578063f5dbe6241461139a578063f8e678a7146113b7578063fa9b6e87146113bf578063fbb8ef78146113dc576104e3565b8063d547741f146111c4578063d58227c8146111f0578063d7af7ad21461124d578063d9514cb314611273578063e06efad8146112ac578063e0fd339e146112c9576104e3565b8063c394f9db1161012b578063c394f9db146110df578063c87b56dd14611117578063ca15c87314611134578063cd69289614611151578063ce20b64214611177578063d5391393146111bc576104e3565b8063a3b5ccb114610f86578063acb586df14610fac578063adf04f2014610fc9578063ae5d498e14610fe6578063b88d4fde1461101b576104e3565b80638d1d1de41161020057806395d89b41116101c457806395d89b4114610f005780639abcafef14610f085780639d7c828b14610f2b578063a1570c8e14610f48578063a217fddf14610f50578063a22cb46514610f58576104e3565b80638d1d1de414610dd35780638d3d908614610df05780639010d07c14610e3157806391d1485414610e545780639507d39a14610e80576104e3565b8063783efb2511610252578063783efb2514610cd25780637a39589314610cf55780637d1a789414610d395780638129fc1c14610da657806386481d4014610dae5780638c7f724214610dcb576104e3565b80636c0360eb14610c5f57806370a0823114610c675780637294510014610c8d5780637304e4b514610c95578063752fde9e14610cca576104e3565b80632f2ff15d116103c05780634b1402771161033257806354b2bd00116102f657806354b2bd0014610aa35780635504d3d214610b4457806355f804b314610b4c5780635818142514610bf05780636112e8ac14610c0d5780636352211e14610c42576104e3565b80634b14027714610a3c5780634c0647f614610a595780634f6ccce714610a6157806351e717ac14610a7e57806352bc59ea14610a86576104e3565b8063350b799511610384578063350b7995146109a557806336568abe146109ad5780633f5e6180146109d9578063424fa66d146109e157806342842e0e146109e957806342966c6814610a1f576104e3565b80632f2ff15d146108b45780632f745c59146108e0578063303142361461090c578063308bdc6f1461094d5780633137ee291461096a576104e3565b80631b8ca2171161045957806324f7bb1b1161041d57806324f7bb1b146107f7578063262b58141461081457806327cd91de146108315780632a716b3c1461084e5780632c3048a21461086b5780632c3fc61914610888576104e3565b80631b8ca2171461073057806323b872dd14610764578063243253991461079a578063248a9ca3146107a25780632499bb09146107bf576104e3565b8063083659eb116104ab578063083659eb14610627578063095ea7b31461065d57806316f1daf61461068957806317b199a4146106c557806317dd6df4146106fa57806318160ddd14610728576104e3565b806301ffc9a7146104e8578063064187781461052357806306d382cb1461052d57806306fdde0314610571578063081812fc146105ee575b600080fd5b61050f600480360360208110156104fe57600080fd5b50356001600160e01b031916611405565b604080519115158252519081900360200190f35b61052b611428565b005b61052b6004803603608081101561054357600080fd5b506001600160a01b038135169063ffffffff602082013581169160408101358216916060909101351661152c565b610579611546565b6040805160208082528351818301528351919283929083019185019080838360005b838110156105b357818101518382015260200161059b565b50505050905090810190601f1680156105e05780820380516001836020036101000a031916815260200191505b509250505060405180910390f35b61060b6004803603602081101561060457600080fd5b50356115dd565b604080516001600160a01b039092168252519081900360200190f35b6106446004803603602081101561063d57600080fd5b503561163f565b60408051600f92830b90920b8252519081900360200190f35b61052b6004803603604081101561067357600080fd5b506001600160a01b03813516906020013561174f565b6106af6004803603602081101561069f57600080fd5b50356001600160401b031661182a565b6040805160ff9092168252519081900360200190f35b6106e8600480360360408110156106db57600080fd5b5080359060200135611868565b60408051918252519081900360200190f35b61052b6004803603606081101561071057600080fd5b5080359060ff60208201351690604001351515611885565b6106e8611898565b61074d6004803603602081101561074657600080fd5b50356118a9565b6040805161ffff9092168252519081900360200190f35b61052b6004803603606081101561077a57600080fd5b506001600160a01b038135811691602081013590911690604001356118ce565b6106e8611925565b6106e8600480360360208110156107b857600080fd5b503561192a565b6106e8600480360360808110156107d557600080fd5b506001600160a01b03813516906020810135906040810135906060013561193f565b6106af6004803603602081101561080d57600080fd5b5035611b2f565b6106e86004803603602081101561082a57600080fd5b5035611b42565b61074d6004803603602081101561084757600080fd5b5035611b8c565b61052b6004803603602081101561086457600080fd5b5035611bb8565b61074d6004803603602081101561088157600080fd5b5035611bc5565b61052b6004803603604081101561089e57600080fd5b50803590602001356001600160401b0316611bf0565b61052b600480360360408110156108ca57600080fd5b50803590602001356001600160a01b0316611c27565b6106e8600480360360408110156108f657600080fd5b506001600160a01b038135169060200135611c93565b61052b6004803603608081101561092257600080fd5b5080356001600160a01b031690602081013563ffffffff16906040810135906060013560ff16611cc2565b61052b6004803603602081101561096357600080fd5b5035611cff565b6106e86004803603608081101561098057600080fd5b5080356001600160a01b0316906020810135906040810135906060013560ff16611d0c565b6106e8611d87565b61052b600480360360408110156109c357600080fd5b50803590602001356001600160a01b0316611d8d565b61052b611dee565b6106e8611e18565b61052b600480360360608110156109ff57600080fd5b506001600160a01b03813581169160208101359091169060400135611e1d565b61052b60048036036020811015610a3557600080fd5b5035611e38565b61052b60048036036020811015610a5257600080fd5b5035611f75565b6106e8611f82565b6106e860048036036020811015610a7757600080fd5b5035611f88565b61060b611fa4565b6106af60048036036020811015610a9c57600080fd5b5035611fb3565b61052b60048036036020811015610ab957600080fd5b810190602081018135600160201b811115610ad357600080fd5b820183602082011115610ae557600080fd5b803590602001918460208302840111600160201b83111715610b0657600080fd5b919080806020026020016040519081016040528093929190818152602001838360200280828437600092019190915250929550611fd4945050505050565b6106e861200c565b61052b60048036036020811015610b6257600080fd5b810190602081018135600160201b811115610b7c57600080fd5b820183602082011115610b8e57600080fd5b803590602001918460018302840111600160201b83111715610baf57600080fd5b91908080601f01602080910402602001604051908101604052809392919081815260200183838082843760009201919091525092955061202e945050505050565b6106e860048036036020811015610c0657600080fd5b5035612042565b6106e860048036036060811015610c2357600080fd5b5080356001600160a01b0316906020810135906040013560ff16612054565b61060b60048036036020811015610c5857600080fd5b50356120c7565b6105796120f5565b6106e860048036036020811015610c7d57600080fd5b50356001600160a01b0316612156565b6106e86121be565b6106e860048036036060811015610cab57600080fd5b5080356001600160a01b0316906020810135906040013560ff166121c4565b61052b612210565b6106e860048036036040811015610ce857600080fd5b5080359060200135612236565b61052b60048036036080811015610d0b57600080fd5b506001600160a01b038135169063ffffffff6020820135811691604081013582169160609091013516612253565b610d5660048036036020811015610d4f57600080fd5b5035612267565b60408051602080825283518183015283519192839290830191858101910280838360005b83811015610d92578181015183820152602001610d7a565b505050509050019250505060405180910390f35b61052b6123ee565b6106af60048036036020811015610dc457600080fd5b50356124f2565b6106e861251d565b61052b60048036036020811015610de957600080fd5b5035612523565b6106e8600480360360a0811015610e0657600080fd5b5080356001600160a01b0316906020810135906040810135906060810135906080013560ff16612530565b61060b60048036036040811015610e4757600080fd5b5080359060200135612579565b61050f60048036036040811015610e6a57600080fd5b50803590602001356001600160a01b0316612597565b610e9d60048036036020811015610e9657600080fd5b50356125b5565b6040805161ffff9a8b168152988a1660208a01529689168888015294909716606087015260ff909216608086015263ffffffff1660a085015262ffffff90811660c085015293841660e08401529092166101008201529051908190036101200190f35b6105796125eb565b61052b60048036036040811015610f1e57600080fd5b508035906020013561264c565b6106e860048036036020811015610f4157600080fd5b50356127ca565b6106e86127dc565b6106e86127e2565b61052b60048036036040811015610f6e57600080fd5b506001600160a01b03813516906020013515156127e7565b610d5660048036036020811015610f9c57600080fd5b50356001600160a01b03166128ec565b6106af60048036036020811015610fc257600080fd5b50356129b0565b6106af60048036036020811015610fdf57600080fd5b50356129c3565b61100360048036036020811015610ffc57600080fd5b50356129d6565b6040805162ffffff9092168252519081900360200190f35b61052b6004803603608081101561103157600080fd5b6001600160a01b03823581169260208101359091169160408201359190810190608081016060820135600160201b81111561106b57600080fd5b82018360208201111561107d57600080fd5b803590602001918460018302840111600160201b8311171561109e57600080fd5b91908080601f016020809104026020016040519081016040528093929190818152602001838380828437600092019190915250929550612a04945050505050565b61052b600480360360808110156110f557600080fd5b5080359060ff6020820135811691604081013582169160609091013516612a5c565b6105796004803603602081101561112d57600080fd5b5035612bbc565b6106e86004803603602081101561114a57600080fd5b5035612e3f565b6110036004803603604081101561116757600080fd5b508035906020013560ff16612e56565b610644600480360360a081101561118d57600080fd5b50803561ffff90811691602081013582169160408201358116916060810135909116906080013560ff16612ed5565b6106e86130b1565b61052b600480360360408110156111da57600080fd5b50803590602001356001600160a01b03166130d4565b6112166004803603604081101561120657600080fd5b508035906020013560ff1661312d565b60408051600f95860b860b815293850b90940b602084015262ffffff9091168284015260ff16606082015290519081900360800190f35b61052b6004803603602081101561126357600080fd5b50356001600160a01b0316613203565b6112906004803603602081101561128957600080fd5b5035613239565b604080516001600160401b039092168252519081900360200190f35b61074d600480360360208110156112c257600080fd5b5035613254565b6106e8600480360360e08110156112df57600080fd5b506001600160a01b038135169060208101359061ffff60408201358116916060810135821691608082013581169160a08101359091169060c00135613280565b61050f6004803603604081101561133557600080fd5b506001600160a01b03813581169160200135166134ac565b611216600480360360c081101561136357600080fd5b506001600160a01b038135169060208101359060ff6040820135811691606081013590911690608081013515159060a001356134da565b611003600480360360208110156113b057600080fd5b50356135d7565b6106e86135f5565b61050f600480360360208110156113d557600080fd5b50356135fa565b61052b600480360360608110156113f257600080fd5b5080359060208101359060400135613612565b6001600160e01b0319811660009081526033602052604090205460ff165b919050565b611433600033612597565b61143c57600080fd5b6114466001613636565b60d08054600f9290920b6001600160801b03166001600160801b03199092169190911790556114786001610190613654565b60d060106101000a8154816001600160801b030219169083600f0b6001600160801b031602179055506114cd6114b060676064613654565b60d054600160801b9004600f90810b900b9063ffffffff61368b16565b60d18054600f9290920b6001600160801b03166001600160801b03199092169190911790556115016114b0606b6064613654565b60d160106101000a8154816001600160801b030219169083600f0b6001600160801b03160217905550565b6115346136c2565b61154084848484613721565b50505050565b606a8054604080516020601f60026000196101006001881615020190951694909404938401819004810282018101909252828152606093909290918301828280156115d25780601f106115a7576101008083540402835291602001916115d2565b820191906000526020600020905b8154815290600101906020018083116115b557829003601f168201915b505050505090505b90565b60006115e882613885565b6116235760405162461bcd60e51b815260040180806020018281038252602c815260200180615b0c602c913960400191505060405180910390fd5b506000908152606860205260409020546001600160a01b031690565b60006116496157cb565b60c9838154811061165657fe5b600091825260208083206040805160a081018252939091015461ffff8082168552620100008204811693850193909352600160201b8104831691840191909152600160301b81049091166060830152600160401b900460ff16608082015291506116c36001610190613654565b905060006116eb826116dc856020015161ffff16613636565b600f0b9063ffffffff61368b16565b90506000611704836116dc866040015161ffff16613636565b9050600061171d846116dc876060015161ffff16613636565b90506117448161173584611735876117356001613636565b600f0b9063ffffffff61389816565b979650505050505050565b600061175a826120c7565b9050806001600160a01b0316836001600160a01b031614156117ad5760405162461bcd60e51b8152600401808060200182810382526021815260200180615b906021913960400191505060405180910390fd5b806001600160a01b03166117bf6138cb565b6001600160a01b031614806117e057506117e0816117db6138cb565b6134ac565b61181b5760405162461bcd60e51b8152600401808060200182810382526038815260200180615a106038913960400191505060405180910390fd5b61182583836138cf565b505050565b600042826001600160401b0316111561184557506000611423565b610bb86001600160401b0383164203046014811115611862575060145b92915050565b60d960209081526000928352604080842090915290825290205481565b61188d6136c2565b61182583838361393d565b60006118a46066613a1e565b905090565b600060c982815481106118b857fe5b60009182526020909120015461ffff1692915050565b6118df6118d96138cb565b82613a29565b61191a5760405162461bcd60e51b8152600401808060200182810382526031815260200180615bb16031913960400191505060405180910390fd5b611825838383613ac5565b600281565b60009081526097602052604090206002015490565b6000611949613c23565b60ff80851690600886901c811690601087901c811690601888901c1661ffff602089901c81169060308a901c81169060408b901c81169060508c901c1662ffffff60808d901c16606487118015906119a5575060198860ff1611155b80156119b55750600a8960ff1611155b6119be57600080fd5b8a6119df576119d88e8262ffffff168486888a6000613280565b9a50611a5b565b600060c98c815481106119ee57fe5b6000918252602090912001805461ffff191661ffff8581169190911763ffff0000191662010000878316021765ffff000000001916600160201b888316021767ffff0000000000001916600160301b918916919091021760ff60401b1916600160401b60ff8a1602179055505b600060ca8c81548110611a6a57fe5b906000526020600020906002020190508c81600101819055508660c98d81548110611a9157fe5b6000918252602080832091909101805460ff60401b1916600160401b60ff958616021790558e825260d581526040808320805467ffffffffffffffff1916426001600160401b031617905560cb9091529020805460ff19169982169990991761ff0019166101009a82169a909a029990991762ff00001916620100009a9099169990990297909717909555508796505050505050505b949350505050565b6000611862611b3d836118a9565b613c7c565b6000611b4c6157f9565b60ca8381548110611b5957fe5b600091825260209182902060408051808201909152600290920201805460ff168252600101549101819052915050919050565b600060c98281548110611b9b57fe5b600091825260209091200154600160301b900461ffff1692915050565b611bc06136c2565b60cc55565b600060c98281548110611bd457fe5b60009182526020909120015462010000900461ffff1692915050565b611bf86136c2565b600091825260d56020526040909120805467ffffffffffffffff19166001600160401b03909216919091179055565b600082815260976020526040902060020154611c4a90611c456138cb565b612597565b611c855760405162461bcd60e51b815260040180806020018281038252602f81526020018061592f602f913960400191505060405180910390fd5b611c8f8282613c85565b5050565b6001600160a01b0382166000908152606560205260408120611cbb908363ffffffff613cf416565b9392505050565b611cca6136c2565b60005b8363ffffffff16811015611cf857611cef85611ce98584613d00565b84612054565b50600101611ccd565b5050505050565b611d076136c2565b60ce55565b6000611d16613c23565b60088410611d2357600080fd5b8160ff1660641480611d39575060038260ff1611155b611d4257600080fd5b6000806000611d518787613d2c565b925092509250611d7b886000611d688a8a8a613db4565b868686611d768d6003613d00565b613280565b98975050505050505050565b60ce5481565b611d956138cb565b6001600160a01b0316816001600160a01b031614611de45760405162461bcd60e51b815260040180806020018281038252602f815260200180615be2602f913960400191505060405180910390fd5b611c8f8282613e1c565b611df9600033612597565b611e0257600080fd5b600260cc55600f60cd55601e60ce55603c60cf55565b600181565b61182583838360405180602001604052806000815250612a04565b611e406136c2565b6060611e4b82612267565b90506000611e58836120c7565b9050611e6383613e8b565b60d7546040805163434d82a360e01b81526001600160a01b0384811660048381019190915260248301529151919092169163434d82a3916044808301926020929190829003018186803b158015611eb957600080fd5b505afa158015611ecd573d6000803e3d6000fd5b505050506040513d6020811015611ee357600080fd5b5051611f3a57611f3a8183600081518110611efa57fe5b602002602001015160ff1684600181518110611f1257fe5b602002602001015160ff1685600281518110611f2a57fe5b602002602001015160ff16613f64565b60405183906001600160a01b038316907f696de425f79f4a40bc6d2122ca50507f0efbeabbff86a84871b7196ab8ea8df790600090a3505050565b611f7d6136c2565b60cd55565b60cf5481565b600080611f9c60668463ffffffff6140a316565b509392505050565b60d7546001600160a01b031681565b600081815260d56020526040812054611862906001600160401b031661182a565b611fdc6136c2565b60005b8151811015611c8f57612004828281518110611ff757fe5b60200260200101516140bf565b600101611fdf565b604080516923a0a6a2afa0a226a4a760b11b8152905190819003600a01902081565b6120366136c2565b61203f8161410f565b50565b60d86020526000908152604090205481565b600061205e613c23565b600060648406600181101561207657600491506120b1565b600681101561208857600391506120b1565b601581101561209a57600291506120b1565b60388110156120ac57600191506120b1565b600091505b6120bd86838787611d0c565b9695505050505050565b600061186282604051806060016040528060298152602001615a72602991396066919063ffffffff61412216565b606d8054604080516020601f60026000196101006001881615020190951694909404938401819004810282018101909252828152606093909290918301828280156115d25780601f106115a7576101008083540402835291602001916115d2565b60006001600160a01b03821661219d5760405162461bcd60e51b815260040180806020018281038252602a815260200180615a48602a913960400191505060405180910390fd5b6001600160a01b038216600090815260656020526040902061186290613a1e565b60cc5481565b60006121ce613c23565b611b2784844260c98054905060405160200180838152602001828152602001925050506040516020818303038152906040528051906020012060001c85611d0c565b61221b600033612597565b61222457600080fd5b61223463398b9a5d60e21b61412f565b565b600091825260d96020908152604080842092845291905290205490565b61225b6136c2565b61154084848484613f64565b6040805160038082526080820190925260609182919060208201838036833701905050600084815260cb6020526040902080549192509060029060ff9081166001011604826000815181106122b857fe5b60ff9283166020918202929092010152815460029161010090910481166001011604826001815181106122e757fe5b60ff9283166020918202929092010152815460029162010000909104811660010116048260028151811061231757fe5b602002602001019060ff16908160ff1681525050600060c9858154811061233a57fe5b6000918252602082200180549092506123569061ffff166141b3565b905060038160ff161015612396578060010160ff1660cc54028460008151811061237c57fe5b6020908102919091010180519190910160ff1690526123e4565b8060ff16600314156123b25760cc548460018151811061237c57fe5b8060ff16600414156123e45760cc54846002815181106123ce57fe5b6020908102919091010180519190910160ff1690525b5091949350505050565b600054610100900460ff168061240757506124076141b9565b80612415575060005460ff16155b6124505760405162461bcd60e51b815260040180806020018281038252602e815260200180615a9b602e913960400191505060405180910390fd5b600054610100900460ff1615801561247b576000805460ff1961ff0019909116610100171660011790555b6124cb6040518060400160405280601381526020017221b93cb83a37a13630b232b9903bb2b0b837b760691b8152506040518060400160405280600381526020016243425760e81b8152506141ca565b6124d3614287565b6124de600033611c85565b801561203f576000805461ff001916905550565b600060c9828154811061250157fe5b600091825260209091200154600160401b900460ff1692915050565b610bb881565b61252b6136c2565b60cf55565b600061253a613c23565b6008841061254757600080fd5b60008060006125568787613d2c565b92509250925061256c8989611d688a8a8a613db4565b9998505050505050505050565b6000828152609760205260408120611cbb908363ffffffff613cf416565b6000828152609760205260408120611cbb908363ffffffff61432716565b60008060008060008060008060006125cc8a61433c565b9850985098509850985098509850985098509193959799909294969850565b606b8054604080516020601f60026000196101006001881615020190951694909404938401819004810282018101909252828152606093909290918301828280156115d25780601f106115a7576101008083540402835291602001916115d2565b6126546136c2565b606061265f82612267565b60d7549091506001600160a01b031663434d82a361267c856120c7565b60046040518363ffffffff1660e01b815260040180836001600160a01b03166001600160a01b031681526020018281526020019250505060206040518083038186803b1580156126cb57600080fd5b505afa1580156126df573d6000803e3d6000fd5b505050506040513d60208110156126f557600080fd5b505161274357612743838260008151811061270c57fe5b60200260200101518360018151811061272157fe5b60200260200101518460028151811061273657fe5b6020026020010151614438565b61274c82613e8b565b600083815260cb602052604090208284612765816120c7565b83546040805160ff80841682526101008404811660208301526201000090930490921682820152516001600160a01b0392909216917fd1b1d9a936fc3409b20503a5fd66b94b1c2a8b4986d01def5b9ef60272896e3c9181900360600190a450505050565b60d26020526000908152604090205481565b60cd5481565b600081565b6127ef6138cb565b6001600160a01b0316826001600160a01b03161415612855576040805162461bcd60e51b815260206004820152601960248201527f4552433732313a20617070726f766520746f2063616c6c657200000000000000604482015290519081900360640190fd5b80606960006128626138cb565b6001600160a01b03908116825260208083019390935260409182016000908120918716808252919093529120805460ff1916921515929092179091556128a66138cb565b60408051841515815290516001600160a01b0392909216917f17307eab39ab6107e8899845ad3d59bd9653f200f220920489ca2b5937696c319181900360200190a35050565b6001600160a01b038116600090815260d6602052604090819020548151600380825260808201909352606092839190816020016020820280368337019050509050818160008151811061293b57fe5b602002602001019063ffffffff16908163ffffffff1681525050602082901c8160018151811061296757fe5b602002602001019063ffffffff16908163ffffffff1681525050604082901c8160028151811061299357fe5b63ffffffff90921660209283029190910190910152915050919050565b60006118626129be836118a9565b614549565b60006118626129d1836118a9565b6141b3565b60006118628260c984815481106129e957fe5b600091825260209091200154600160401b900460ff16612e56565b612a15612a0f6138cb565b83613a29565b612a505760405162461bcd60e51b8152600401808060200182810382526031815260200180615bb16031913960400191505060405180910390fd5b61154084848484614552565b612a646136c2565b60d7546001600160a01b031663434d82a3612a7e866120c7565b60046040518363ffffffff1660e01b815260040180836001600160a01b03166001600160a01b031681526020018281526020019250505060206040518083038186803b158015612acd57600080fd5b505afa158015612ae1573d6000803e3d6000fd5b505050506040513d6020811015612af757600080fd5b5051612b0957612b0984848484614438565b612b26612b15856120c7565b8460ff168460ff168460ff16613721565b600084815260cb6020526040902084612b3e816120c7565b82546040805160ff808a16825280891660208301528088168284015280841660608301526101008404811660808301526201000090930490921660a0830152516001600160a01b0392909216917fd07aff3873e60e4df29e5f960d1422759a3ef9f5aa27eec562431cddcd9bba019181900360c00190a35050505050565b6060612bc782613885565b612c025760405162461bcd60e51b815260040180806020018281038252602f815260200180615b61602f913960400191505060405180910390fd5b6000828152606c602090815260409182902080548351601f6002600019610100600186161502019093169290920491820184900484028101840190945280845260609392830182828015612c975780601f10612c6c57610100808354040283529160200191612c97565b820191906000526020600020905b815481529060010190602001808311612c7a57829003601f168201915b505050505090506060612ca86120f5565b9050805160001415612cbc57509050611423565b815115612d7d5780826040516020018083805190602001908083835b60208310612cf75780518252601f199092019160209182019101612cd8565b51815160209384036101000a600019018019909216911617905285519190930192850191508083835b60208310612d3f5780518252601f199092019160209182019101612d20565b6001836020036101000a0380198251168184511680821785525050505050509050019250505060405160208183030381529060405292505050611423565b80612d87856145a4565b6040516020018083805190602001908083835b60208310612db95780518252601f199092019160209182019101612d9a565b51815160209384036101000a600019018019909216911617905285519190930192850191508083835b60208310612e015780518252601f199092019160209182019101612de2565b6001836020036101000a0380198251168184511680821785525050505050509050019250505060405160208183030381529060405292505050919050565b600081815260976020526040812061186290613a1e565b600082815260cb60205260408120611b27612e7b600f60ff861663ffffffff61467e16565b825460cf54612ec991612e97919062010000900460ff1661467e565b845460ce54612ec991612eb29190610100900460ff1661467e565b865460cd54612ec99160ff1663ffffffff61467e16565b9063ffffffff6146d716565b600080612ee187613c7c565b60d054909150600f0b60ff8416612ef783614731565b60ff161415612f3a5760d154612f3390612f2290600160801b9004600f0b6116dc61ffff8b16613636565b600f83900b9063ffffffff61389816565b9050612f8e565b612f4382614731565b60ff1660041415612f695760d154612f3390612f2290600f0b6116dc61ffff8b16613636565b60d054612f8b90612f2290600160801b9004600f0b6116dc61ffff8b16613636565b90505b8360ff16612f9b83614741565b60ff161415612fcd5760d154612fc690612f2290600160801b9004600f0b6116dc61ffff8a16613636565b9050613021565b612fd682614741565b60ff1660041415612ffc5760d154612fc690612f2290600f0b6116dc61ffff8a16613636565b60d05461301e90612f2290600160801b9004600f0b6116dc61ffff8a16613636565b90505b8360ff1661302e8361475a565b60ff1614156130605760d15461305990612f2290600160801b9004600f0b6116dc61ffff8916613636565b9050611744565b6130698261475a565b60ff166004141561308f5760d15461305990612f2290600f0b6116dc61ffff8916613636565b60d054611d7b90612f2290600160801b9004600f0b6116dc61ffff8916613636565b604080516a4d494e5445525f524f4c4560a81b8152905190819003600b01902081565b6000828152609760205260409020600201546130f290611c456138cb565b611de45760405162461bcd60e51b81526004018080602001828103825260308152602001806159e06030913960400191505060405180910390fd5b600080600080600060c9878154811061314257fe5b6000918252602090912001805490915061319e90613188906114b09062010000810461ffff908116600160201b8304821601600160301b90920481169190910116613636565b60d054600f90810b900b9063ffffffff61389816565b81546131cc9061ffff80821691620100008104821691600160201b8204811691600160301b9004168b612ed5565b82546131e3908a90600160401b900460ff16612e56565b83546131f29061ffff16614549565b929a91995097509095509350505050565b61320e600033612597565b61321757600080fd5b60d780546001600160a01b0319166001600160a01b0392909216919091179055565b600090815260d560205260409020546001600160401b031690565b600060c9828154811061326357fe5b600091825260209091200154600160201b900461ffff1692915050565b600061328a613c23565b5060c980546040805160a08101825261ffff89811682528881166020808401918252898316848601908152898416606086019081526000608087018181526001808b018c559a825296517f66be4f155c5ef2ebd3772b228f2f00681e4ed5826cdb3b1943cc11ad15ad1d288a018054965194519351985161ffff199097169188169190911763ffff0000191662010000948816949094029390931765ffff000000001916600160201b928716929092029190911767ffff0000000000001916600160301b96909516959095029390931760ff60401b1916600160401b60ff9384160217909255835180850190945282845290830186815260ca8054968701815590925291517f42d72674974f694b5f5159593243114d38a5c39c89d6b62fee061ff523240ee16002909502948501805460ff19169190931617909155517f42d72674974f694b5f5159593243114d38a5c39c89d6b62fee061ff523240ee2909201919091556133f9888261476c565b61341a6134046148a6565b42906001600160401b031663ffffffff6148ac16565b600082815260d560209081526040808320805467ffffffffffffffff19166001600160401b03959095169490941790935560d9815282822060028352815290829020899055815162ffffff8a16815291516001600160a01b038b169284927f90f7d5617d9f80927ddb93e20a1c60c7365ff418ac3bdb60f97c34bcc90fb5ee92918290030190a3979650505050505050565b6001600160a01b03918216600090815260696020908152604080832093909416825291909152205460ff1690565b6000806000806134e86136c2565b6134f1896120c7565b6001600160a01b03168a6001600160a01b03161461350e57600080fd5b61351989888861393d565b600060c98a8154811061352857fe5b6000918252602090912001805490915061356e90613188906114b09062010000810461ffff908116600160201b8304821601600160301b90920481169190910116613636565b815461359c9061ffff80821691620100008104821691600160201b8204811691600160301b9004168e612ed5565b82546135b3908d90600160401b900460ff16612e56565b83546135c29061ffff16614549565b929e919d509b50909950975050505050505050565b600090815260d9602090815260408083206002845290915290205490565b601481565b6000601461360783611fb3565b60ff16101592915050565b61361a6136c2565b600092835260d960209081526040808520938552929052912055565b6000677fffffffffffffff82111561364d57600080fd5b5060401b90565b60008161366057600080fd5b600061366c8484614909565b905060016001607f1b036001600160801b0382161115611cbb57600080fd5b6000600f83810b9083900b0260401d60016001607f1b031981128015906136b9575060016001607f1b038113155b611cbb57600080fd5b604080516923a0a6a2afa0a226a4a760b11b8152905190819003600a0190206136eb9033612597565b612234576040805162461bcd60e51b8152602060048201526002602482015261272960f11b604482015290519081900360640190fd5b606061372c856128ec565b90508363ffffffff168160008151811061374257fe5b602002602001015163ffffffff161015801561377e57508263ffffffff168160018151811061376d57fe5b602002602001015163ffffffff1610155b80156137aa57508163ffffffff168160028151811061379957fe5b602002602001015163ffffffff1610155b6137b357600080fd5b83816000815181106137c157fe5b602002602001018181510391509063ffffffff16908163ffffffff168152505082816001815181106137ef57fe5b602002602001018181510391509063ffffffff16908163ffffffff1681525050818160028151811061381d57fe5b602002602001018181510391509063ffffffff16908163ffffffff1681525050611cf8858260008151811061384e57fe5b60200260200101518360018151811061386357fe5b60200260200101518460028151811061387857fe5b6020026020010151614a52565b600061186260668363ffffffff614aa316565b6000600f83810b9083900b0160016001607f1b031981128015906136b9575060016001607f1b03811315611cbb57600080fd5b3390565b600081815260686020526040902080546001600160a01b0319166001600160a01b0384169081179091558190613904826120c7565b6001600160a01b03167f8c5be1e5ebec7d5bd14f71427d1e84f3dd0314c0f7b2291e5b200ac8c7c3b92560405160405180910390a45050565b600083815260d5602052604081205461395e906001600160401b031661182a565b90508260ff168160ff161015806139805750818015613980575060008160ff16115b61398957600080fd5b60ff808416610bb802906014908316106139e957806001600160401b03166139af6148a6565b600087815260d560205260409020805467ffffffffffffffff19166001600160401b03928316420393909301909116919091179055611cf8565b600085815260d56020526040902080546001600160401b0380821684011667ffffffffffffffff199091161790555050505050565b600061186282614aaf565b6000613a3482613885565b613a6f5760405162461bcd60e51b815260040180806020018281038252602c8152602001806159b4602c913960400191505060405180910390fd5b6000613a7a836120c7565b9050806001600160a01b0316846001600160a01b03161480613ab55750836001600160a01b0316613aaa846115dd565b6001600160a01b0316145b80611b275750611b2781856134ac565b826001600160a01b0316613ad8826120c7565b6001600160a01b031614613b1d5760405162461bcd60e51b8152600401808060200182810382526029815260200180615b386029913960400191505060405180910390fd5b6001600160a01b038216613b625760405162461bcd60e51b81526004018080602001828103825260248152602001806159906024913960400191505060405180910390fd5b613b6d838383614ab3565b613b786000826138cf565b6001600160a01b0383166000908152606560205260409020613ba0908263ffffffff614b8316565b506001600160a01b0382166000908152606560205260409020613bc9908263ffffffff614b8f16565b50613bdc6066828463ffffffff614b9b16565b5080826001600160a01b0316846001600160a01b03167fddf252ad1be2c89b69c2b068fc378daa952ba7f163c4a11628f55a4df523b3ef60405160405180910390a4505050565b604080516923a0a6a2afa0a226a4a760b11b8152905190819003600a019020613c4c9033612597565b806136eb5750604080516a4d494e5445525f524f4c4560a81b8152905190819003600b0190206136eb9033612597565b60051c607f1690565b6000828152609760205260409020613ca3908263ffffffff614bb116565b15611c8f57613cb06138cb565b6001600160a01b0316816001600160a01b0316837f2f8788117e7eff1d82e926ec794901d17c78024a50270940304540a733656f0d60405160405180910390a45050565b6000611cbb8383614bc6565b604080516020808201949094528082019290925280518083038201815260609092019052805191012090565b600080600080613d3b86614c2a565b90506000613d4887614c76565b90506000613d5588614ca1565b90506000613d6684848a6005614cbc565b9050600080600160ff85161115613d8757613d8486868c6003614cbc565b91505b60028460ff161115613da357613da086868c6004614cbc565b90505b919750955093505050509250925092565b6000808260ff1660641415613de8576003613ddc60006003613dd7886001613d00565b614cde565b600316901b9050613df2565b506018600383901b165b6005613e066000607c613dd7886002613d00565b607f16901b818660071617179150509392505050565b6000828152609760205260409020613e3a908263ffffffff614d3e16565b15611c8f57613e476138cb565b6001600160a01b0316816001600160a01b0316837ff6391f5c32d9c69d2a47ea670b442974b53935d1edc7fd64eb21e047a839171b60405160405180910390a45050565b6000613e96826120c7565b9050613ea481600084614ab3565b613eaf6000836138cf565b6000828152606c60205260409020546002600019610100600184161502019091160415613eed576000828152606c60205260408120613eed91615810565b6001600160a01b0381166000908152606560205260409020613f15908363ffffffff614b8316565b50613f2760668363ffffffff614d5316565b5060405182906000906001600160a01b038416907fddf252ad1be2c89b69c2b068fc378daa952ba7f163c4a11628f55a4df523b3ef908390a45050565b6060613f6f856128ec565b905063ffffffff8463ffffffff1682600081518110613f8a57fe5b602002602001015163ffffffff160111158015613fcd575063ffffffff8363ffffffff1682600181518110613fbb57fe5b602002602001015163ffffffff160111155b8015613fff575063ffffffff8263ffffffff1682600281518110613fed57fe5b602002602001015163ffffffff160111155b61400857600080fd5b838160008151811061401657fe5b602002602001018181510191509063ffffffff16908163ffffffff1681525050828160018151811061404457fe5b602002602001018181510191509063ffffffff16908163ffffffff1681525050818160028151811061407257fe5b602002602001018181510191509063ffffffff16908163ffffffff1681525050611cf8858260008151811061384e57fe5b60008080806140b28686614d5f565b9097909650945050505050565b60006140ca826120c7565b90506140d582613e8b565b60405182906001600160a01b038316907f696de425f79f4a40bc6d2122ca50507f0efbeabbff86a84871b7196ab8ea8df790600090a35050565b8051611c8f90606d906020840190615854565b6000611b27848484614dda565b6001600160e01b0319808216141561418e576040805162461bcd60e51b815260206004820152601c60248201527f4552433136353a20696e76616c696420696e7465726661636520696400000000604482015290519081900360640190fd5b6001600160e01b0319166000908152603360205260409020805460ff19166001179055565b60071690565b60006141c430614ea4565b15905090565b600054610100900460ff16806141e357506141e36141b9565b806141f1575060005460ff16155b61422c5760405162461bcd60e51b815260040180806020018281038252602e815260200180615a9b602e913960400191505060405180910390fd5b600054610100900460ff16158015614257576000805460ff1961ff0019909116610100171660011790555b61425f614287565b614267614eaa565b6142718383614f47565b8015611825576000805461ff0019169055505050565b600054610100900460ff16806142a057506142a06141b9565b806142ae575060005460ff16155b6142e95760405162461bcd60e51b815260040180806020018281038252602e815260200180615a9b602e913960400191505060405180910390fd5b600054610100900460ff161580156124de576000805460ff1961ff001990911661010017166001179055801561203f576000805461ff001916905550565b6000611cbb836001600160a01b03841661502c565b60008060008060008060008060006143538a615044565b939c50919a50985096509450600080808061436d8e6150d6565b935093509350935060188160ff1663ffffffff16901b60108360ff1663ffffffff16901b60088560ff1663ffffffff16901b8660ff161717179750505050506143b46158d2565b5060008a815260cb60209081526040918290208251606081018452905460ff808216808452610100830480831695850195909552620100009092049081169483019490945260109390931b62ff00001660089290921b61ff001690921717935061441d8b6129d6565b92506144288b6135d7565b9150509193959799909294969850565b600084815260cb6020526040902060ff841615614462578054606460ff9091161061446257600080fd5b60ff831615614482578054601961010090910460ff161061448257600080fd5b60ff8216156144a3578054600a6201000090910460ff16106144a357600080fd5b805462ff00001961ff001960ff19831660ff938416880184161790811661010091829004841687018416909102179081166201000091829004831685018316909102178083556064911611156144ff57805460ff191660641781555b8054601961010090910460ff16111561452057805461ff0019166119001781555b8054600a6201000090910460ff161115611cf857805462ff00001916620a000017905550505050565b600390811c1690565b61455d848484613ac5565b61456984848484615171565b6115405760405162461bcd60e51b815260040180806020018281038252603281526020018061595e6032913960400191505060405180910390fd5b6060816145c957506040805180820190915260018152600360fc1b6020820152611423565b8160005b81156145e157600101600a820491506145cd565b6060816001600160401b03811180156145f957600080fd5b506040519080825280601f01601f191660200182016040528015614624576020820181803683370190505b50859350905060001982015b831561467557600a840660300160f81b8282806001900393508151811061465357fe5b60200101906001600160f81b031916908160001a905350600a84049350614630565b50949350505050565b60008261468d57506000611862565b8282028284828161469a57fe5b0414611cbb5760405162461bcd60e51b8152600401808060200182810382526021815260200180615aeb6021913960400191505060405180910390fd5b600082820183811015611cbb576040805162461bcd60e51b815260206004820152601b60248201527f536166654d6174683a206164646974696f6e206f766572666c6f770000000000604482015290519081900360640190fd5b6000600560ff83165b0692915050565b600060056147538360ff1660056152f1565b8161473a57fe5b600060056147538360ff1660196152f1565b6001600160a01b0382166147c7576040805162461bcd60e51b815260206004820181905260248201527f4552433732313a206d696e7420746f20746865207a65726f2061646472657373604482015290519081900360640190fd5b6147d081613885565b15614822576040805162461bcd60e51b815260206004820152601c60248201527f4552433732313a20746f6b656e20616c7265616479206d696e74656400000000604482015290519081900360640190fd5b61482e60008383614ab3565b6001600160a01b0382166000908152606560205260409020614856908263ffffffff614b8f16565b506148696066828463ffffffff614b9b16565b5060405181906001600160a01b038416906000907fddf252ad1be2c89b69c2b068fc378daa952ba7f163c4a11628f55a4df523b3ef908290a45050565b61ea6090565b600082821115614903576040805162461bcd60e51b815260206004820152601e60248201527f536166654d6174683a207375627472616374696f6e206f766572666c6f770000604482015290519081900360640190fd5b50900390565b60008161491557600080fd5b60006001600160c01b03841161493a5782604085901b8161493257fe5b049050614a3e565b60c084811c600160201b8110614952576020918201911c5b620100008110614964576010918201911c5b6101008110614975576008918201911c5b60108110614985576004918201911c5b60048110614995576002918201911c5b600281106149a4576001820191505b60bf820360018603901c6001018260ff0387901b816149bf57fe5b0492506001600160801b038311156149d657600080fd5b608085901c83026001600160801b038616840260c088901c604089901b82811015614a02576001820391505b608084901b92900382811015614a19576001820391505b829003608084901c8214614a2957fe5b888181614a3257fe5b04870196505050505050505b6001600160801b03811115611cbb57600080fd5b6001600160a01b0393909316600090815260d6602090815260409182902063ffffffff9490941692901b67ffffffff000000001693901b6bffffffff00000000000000001692909201919091019055565b6000611cbb838361502c565b5490565b6001600160a01b0383161561182557600081815260d96020908152604080832060018452909152902054158015614b7a57506001600160a01b0382161580614b7a575060d7546040805163434d82a360e01b81526001600160a01b0386811660048381019190915260248301529151919092169163434d82a3916044808301926020929190829003018186803b158015614b4c57600080fd5b505afa158015614b60573d6000803e3d6000fd5b505050506040513d6020811015614b7657600080fd5b5051155b61182557600080fd5b6000611cbb8383615358565b6000611cbb838361541e565b6000611b2784846001600160a01b038516615468565b6000611cbb836001600160a01b03841661541e565b81546000908210614c085760405162461bcd60e51b815260040180806020018281038252602281526020018061590d6022913960400191505060405180910390fd5b826000018281548110614c1757fe5b9060005260206000200154905092915050565b600081614c3957506004611423565b8160011415614c4a575060b4611423565b8160021415614c5c5750610118611423565b8160031415614c6d575060c8611423565b5061010c919050565b60006001821115614c8a5750610190611423565b8115614c99575061012c611423565b5060c8919050565b60006003821015614cb457506001611423565b506000190190565b6000614cd58561ffff168561ffff16613dd78686613d00565b95945050505050565b600080614cf66001612ec9868863ffffffff6148ac16565b6040805160208082018790528251808303820181529183019092528051910120909150600090614d2c908363ffffffff6154ff16565b90506120bd818763ffffffff6146d716565b6000611cbb836001600160a01b038416615358565b6000611cbb8383615566565b815460009081908310614da35760405162461bcd60e51b8152600401808060200182810382526022815260200180615ac96022913960400191505060405180910390fd5b6000846000018481548110614db457fe5b906000526020600020906002020190508060000154816001015492509250509250929050565b60008281526001840160205260408120548281614e755760405162461bcd60e51b81526004018080602001828103825283818151815260200191508051906020019080838360005b83811015614e3a578181015183820152602001614e22565b50505050905090810190601f168015614e675780820380516001836020036101000a031916815260200191505b509250505060405180910390fd5b50846000016001820381548110614e8857fe5b9060005260206000209060020201600101549150509392505050565b3b151590565b600054610100900460ff1680614ec35750614ec36141b9565b80614ed1575060005460ff16155b614f0c5760405162461bcd60e51b815260040180806020018281038252602e815260200180615a9b602e913960400191505060405180910390fd5b600054610100900460ff16158015614f37576000805460ff1961ff0019909116610100171660011790555b6124de6301ffc9a760e01b61412f565b600054610100900460ff1680614f605750614f606141b9565b80614f6e575060005460ff16155b614fa95760405162461bcd60e51b815260040180806020018281038252602e815260200180615a9b602e913960400191505060405180910390fd5b600054610100900460ff16158015614fd4576000805460ff1961ff0019909116610100171660011790555b8251614fe790606a906020860190615854565b508151614ffb90606b906020850190615854565b5061500c6380ac58cd60e01b61412f565b61501c635b5e139f60e01b61412f565b61427163780e9d6360e01b61412f565b60009081526001919091016020526040902054151590565b60008060008060006150546157cb565b60c9878154811061506157fe5b60009182526020918290206040805160a081018252929091015461ffff8082168085526201000083048216958501869052600160201b83048216938501849052600160301b830490911660608501819052600160401b90920460ff1660809094018490529b939a509098509650945092505050565b6000806000806150e46157f9565b60ca86815481106150f157fe5b600091825260209182902060408051808201909152600290920201805460ff16825260019081015492820183905290925061512e9190601861563a565b945061514181602001516002601861563a565b935061515481602001516003601861563a565b925061516781602001516004601861563a565b9150509193509193565b6000615185846001600160a01b0316614ea4565b61519157506001611b27565b60606152b7630a85bd0160e11b6151a66138cb565b88878760405160240180856001600160a01b03166001600160a01b03168152602001846001600160a01b03166001600160a01b0316815260200183815260200180602001828103825283818151815260200191508051906020019080838360005b8381101561521f578181015183820152602001615207565b50505050905090810190601f16801561524c5780820380516001836020036101000a031916815260200191505b5095505050505050604051602081830303815290604052906001600160e01b0319166020820180516001600160e01b03838183161783525050505060405180606001604052806032815260200161595e603291396001600160a01b038816919063ffffffff61564f16565b905060008180602001905160208110156152d057600080fd5b50516001600160e01b031916630a85bd0160e11b1492505050949350505050565b6000808211615347576040805162461bcd60e51b815260206004820152601a60248201527f536166654d6174683a206469766973696f6e206279207a65726f000000000000604482015290519081900360640190fd5b81838161535057fe5b049392505050565b60008181526001830160205260408120548015615414578354600019808301919081019060009087908390811061538b57fe5b90600052602060002001549050808760000184815481106153a857fe5b6000918252602080832090910192909255828152600189810190925260409020908401905586548790806153d857fe5b60019003818190600052602060002001600090559055866001016000878152602001908152602001600020600090556001945050505050611862565b6000915050611862565b600061542a838361502c565b61546057508154600181810184556000848152602080822090930184905584548482528286019093526040902091909155611862565b506000611862565b6000828152600184016020526040812054806154cd575050604080518082018252838152602080820184815286546001818101895560008981528481209551600290930290950191825591519082015586548684528188019092529290912055611cbb565b828560000160018303815481106154e057fe5b9060005260206000209060020201600101819055506000915050611cbb565b6000808211615555576040805162461bcd60e51b815260206004820152601860248201527f536166654d6174683a206d6f64756c6f206279207a65726f0000000000000000604482015290519081900360640190fd5b81838161555e57fe5b069392505050565b60008181526001830160205260408120548015615414578354600019808301919081019060009087908390811061559957fe5b90600052602060002090600202019050808760000184815481106155b957fe5b6000918252602080832084546002909302019182556001938401549184019190915583548252898301905260409020908401905586548790806155f857fe5b60008281526020808220600260001990940193840201828155600190810183905592909355888152898201909252604082209190915594506118629350505050565b6000611b2760008360ff16613dd78787613d00565b6060611b2784846000858561566385614ea4565b6156b4576040805162461bcd60e51b815260206004820152601d60248201527f416464726573733a2063616c6c20746f206e6f6e2d636f6e7472616374000000604482015290519081900360640190fd5b60006060866001600160a01b031685876040518082805190602001908083835b602083106156f35780518252601f1990920191602091820191016156d4565b6001836020036101000a03801982511681845116808217855250505050505090500191505060006040518083038185875af1925050503d8060008114615755576040519150601f19603f3d011682016040523d82523d6000602084013e61575a565b606091505b509150915061174482828660608315615774575081611cbb565b8251156157845782518084602001fd5b60405162461bcd60e51b8152602060048201818152845160248401528451859391928392604401919085019080838360008315614e3a578181015183820152602001614e22565b6040805160a08101825260008082526020820181905291810182905260608101829052608081019190915290565b604080518082019091526000808252602082015290565b50805460018160011615610100020316600290046000825580601f10615836575061203f565b601f01602090049060005260206000209081019061203f91906158f2565b828054600181600116156101000203166002900490600052602060002090601f016020900481019282601f1061589557805160ff19168380011785556158c2565b828001600101855582156158c2579182015b828111156158c25782518255916020019190600101906158a7565b506158ce9291506158f2565b5090565b604080516060810182526000808252602082018190529181019190915290565b6115da91905b808211156158ce57600081556001016158f856fe456e756d657261626c655365743a20696e646578206f7574206f6620626f756e6473416363657373436f6e74726f6c3a2073656e646572206d75737420626520616e2061646d696e20746f206772616e744552433732313a207472616e7366657220746f206e6f6e20455243373231526563656976657220696d706c656d656e7465724552433732313a207472616e7366657220746f20746865207a65726f20616464726573734552433732313a206f70657261746f7220717565727920666f72206e6f6e6578697374656e7420746f6b656e416363657373436f6e74726f6c3a2073656e646572206d75737420626520616e2061646d696e20746f207265766f6b654552433732313a20617070726f76652063616c6c6572206973206e6f74206f776e6572206e6f7220617070726f76656420666f7220616c6c4552433732313a2062616c616e636520717565727920666f7220746865207a65726f20616464726573734552433732313a206f776e657220717565727920666f72206e6f6e6578697374656e7420746f6b656e496e697469616c697a61626c653a20636f6e747261637420697320616c726561647920696e697469616c697a6564456e756d657261626c654d61703a20696e646578206f7574206f6620626f756e6473536166654d6174683a206d756c7469706c69636174696f6e206f766572666c6f774552433732313a20617070726f76656420717565727920666f72206e6f6e6578697374656e7420746f6b656e4552433732313a207472616e73666572206f6620746f6b656e2074686174206973206e6f74206f776e4552433732314d657461646174613a2055524920717565727920666f72206e6f6e6578697374656e7420746f6b656e4552433732313a20617070726f76616c20746f2063757272656e74206f776e65724552433732313a207472616e736665722063616c6c6572206973206e6f74206f776e6572206e6f7220617070726f766564416363657373436f6e74726f6c3a2063616e206f6e6c792072656e6f756e636520726f6c657320666f722073656c66a26469706673582212204a87e3737db32764f06d546f5367f380e3901220ad1f368b68c934202aba0e2d64736f6c63430006050033","immutableReferences":{},"source":"pragma solidity ^0.6.0;\n\nimport \"@openzeppelin/contracts-upgradeable/proxy/Initializable.sol\";\nimport \"@openzeppelin/contracts-upgradeable/token/ERC721/ERC721Upgradeable.sol\";\nimport \"@openzeppelin/contracts-upgradeable/access/AccessControlUpgradeable.sol\";\nimport \"@openzeppelin/contracts/math/SafeMath.sol\";\nimport \"abdk-libraries-solidity/ABDKMath64x64.sol\";\nimport \"./Promos.sol\";\nimport \"./util.sol\";\n\ncontract Weapons is Initializable, ERC721Upgradeable, AccessControlUpgradeable {\n\n    using ABDKMath64x64 for int128;\n    using ABDKMath64x64 for uint16;\n\n    bytes32 public constant GAME_ADMIN = keccak256(\"GAME_ADMIN\");\n    bytes32 public constant MINTER_ROLE = keccak256(\"MINTER_ROLE\");\n\n    function initialize () public initializer {\n        __ERC721_init(\"CryptoBlades weapon\", \"CBW\");\n        __AccessControl_init_unchained();\n\n        _setupRole(DEFAULT_ADMIN_ROLE, msg.sender);\n    }\n\n    function migrateTo_e55d8c5() public {\n        require(hasRole(DEFAULT_ADMIN_ROLE, msg.sender));\n\n        burnPointMultiplier = 2;\n        lowStarBurnPowerPerPoint = 15;\n        fourStarBurnPowerPerPoint = 30;\n        fiveStarBurnPowerPerPoint = 60;\n    }\n\n    function migrateTo_aa9da90() public {\n        require(hasRole(DEFAULT_ADMIN_ROLE, msg.sender));\n\n        oneFrac = ABDKMath64x64.fromUInt(1);\n        powerMultPerPointBasic =  ABDKMath64x64.divu(1, 400);// 0.25%\n        powerMultPerPointPWR = powerMultPerPointBasic.mul(ABDKMath64x64.divu(103, 100)); // 0.2575% (+3%)\n        powerMultPerPointMatching = powerMultPerPointBasic.mul(ABDKMath64x64.divu(107, 100)); // 0.2675% (+7%)\n    }\n\n    function migrateTo_951a020() public {\n        require(hasRole(DEFAULT_ADMIN_ROLE, msg.sender));\n\n        // Apparently ERC165 interfaces cannot be removed in this version of the OpenZeppelin library.\n        // But if we remove the registration, then while local deployments would not register the interface ID,\n        // existing deployments on both testnet and mainnet would still be registered to handle it.\n        // That sort of inconsistency is a good way to attract bugs that only happens on some environments.\n        // Hence, we keep registering the interface despite not actually implementing the interface.\n        _registerInterface(0xe62e6974); // TransferCooldownableInterfaceId.interfaceId()\n    }\n\n    function migrateTo_surprise(Promos _promos) public {\n        require(hasRole(DEFAULT_ADMIN_ROLE, msg.sender));\n\n        promos = _promos;\n    }\n\n    /*\n        visual numbers start at 0, increment values by 1\n        levels: 1-128\n        stars: 1-5 (1,2,3: primary only, 4: one secondary, 5: two secondaries)\n        traits: 0-3 [0(fire) > 1(earth) > 2(lightning) > 3(water) > repeat]\n        stats: STR(fire), DEX(earth), CHA(lightning), INT(water), PWR(traitless)\n        base stat rolls: 1*(1-50), 2*(45-75), 3*(70-100), 4*(50-100), 5*(66-100, main is 68-100)\n        burns: add level & main stat, and 50% chance to increase secondaries\n        power: each point contributes .25% to fight power\n        cosmetics: 0-255 but only 24 is used, may want to cap so future expansions dont change existing weps\n    */\n\n    struct Weapon {\n        uint16 properties; // right to left: 3b stars, 2b trait, 7b stat pattern, 4b EMPTY\n        // stats (each point refers to .25% improvement)\n        uint16 stat1;\n        uint16 stat2;\n        uint16 stat3;\n        uint8 level; // separate from stat1 because stat1 will have a pre-roll\n    }\n\n    struct WeaponBurnPoints {\n        uint8 lowStarBurnPoints;\n        uint8 fourStarBurnPoints;\n        uint8 fiveStarBurnPoints;\n    }\n\n    struct WeaponCosmetics {\n        uint8 version;\n        uint256 seed;\n    }\n\n    Weapon[] private tokens;\n    WeaponCosmetics[] private cosmetics;\n    mapping(uint256 => WeaponBurnPoints) burnPoints;\n\n    uint public burnPointMultiplier; // 2\n    uint public lowStarBurnPowerPerPoint; // 15\n    uint public fourStarBurnPowerPerPoint; // 30\n    uint public fiveStarBurnPowerPerPoint; // 60\n\n    int128 internal oneFrac; // 1.0\n    int128 internal powerMultPerPointBasic; // 0.25%\n    int128 internal powerMultPerPointPWR; // 0.2575% (+3%)\n    int128 internal powerMultPerPointMatching; // 0.2675% (+7%)\n\n    // UNUSED; KEPT FOR UPGRADEABILITY PROXY COMPATIBILITY\n    mapping(uint256 => uint256) public lastTransferTimestamp;\n\n    uint256 private lastMintedBlock; // DEPRECATED\n    uint256 private firstMintedOfLastBlock; // DEPRECATED\n\n    mapping(uint256 => uint64) durabilityTimestamp;\n\n    uint256 public constant maxDurability = 20;\n    uint256 public constant secondsPerDurability = 3000; //50 * 60\n\n    mapping(address => uint256) burnDust; // user address : burned item dust counts\n\n    Promos public promos;\n\n    mapping(uint256 => uint256) public numberParameters;\n\n    mapping(uint256 => mapping(uint256 => uint256)) public nftVars;//KEYS: NFTID, VARID\n    uint256 public constant NFTVAR_BUSY = 1; // value bitflags: 1 (pvp) | 2 (raid) | 4 (TBD)..\n    uint256 public constant NFTVAR_WEAPON_TYPE = 2; // x = 0: normal, x > 0: special for partner id x\n\n    event Burned(address indexed owner, uint256 indexed burned);\n    event NewWeapon(uint256 indexed weapon, address indexed minter, uint24 weaponType);\n    event Reforged(address indexed owner, uint256 indexed reforged, uint256 indexed burned, uint8 lowPoints, uint8 fourPoints, uint8 fivePoints);\n    event ReforgedWithDust(address indexed owner, uint256 indexed reforged, uint8 lowDust, uint8 fourDust, uint8 fiveDust, uint8 lowPoints, uint8 fourPoints, uint8 fivePoints);\n\n    modifier restricted() {\n        _restricted();\n        _;\n    }\n\n    function _restricted() internal view {\n        require(hasRole(GAME_ADMIN, msg.sender), \"NR\");\n    }\n\n    modifier minterOnly() {\n        _minterOnly();\n        _;\n    }\n\n    function _minterOnly() internal view {\n        require(hasRole(GAME_ADMIN, msg.sender) || hasRole(MINTER_ROLE, msg.sender), \"NR\");\n    }\n\n    function getStats(uint256 id) internal view\n        returns (uint16 _properties, uint16 _stat1, uint16 _stat2, uint16 _stat3, uint8 _level) {\n\n        Weapon memory w = tokens[id];\n        return (w.properties, w.stat1, w.stat2, w.stat3, w.level);\n    }\n\n    function getCosmetics(uint256 id) internal view returns (uint8 _blade, uint8 _crossguard, uint8 _grip, uint8 _pommel) {\n\n        WeaponCosmetics memory wc = cosmetics[id];\n        _blade = getRandomCosmetic(wc.seed, 1, 24);\n        _crossguard = getRandomCosmetic(wc.seed, 2, 24);\n        _grip = getRandomCosmetic(wc.seed, 3, 24);\n        _pommel = getRandomCosmetic(wc.seed, 4, 24);\n    }\n\n    function getCosmeticsSeed(uint256 id) public view returns (uint256) {\n\n        WeaponCosmetics memory wc = cosmetics[id];\n        return wc.seed;\n    }\n\n    function get(uint256 id) public view\n        returns (\n            uint16 _properties, uint16 _stat1, uint16 _stat2, uint16 _stat3, uint8 _level,\n            uint32 _cosmetics,\n            uint24 _burnPoints, // burn points.. got stack limits so i put them together\n            uint24 _bonusPower, // bonus power\n            uint24 _weaponType // weapon type for special weapons\n    ) {\n        return _get(id);\n    }\n\n    function _get(uint256 id) internal view\n        returns (\n            uint16 _properties, uint16 _stat1, uint16 _stat2, uint16 _stat3, uint8 _level,\n            uint32 _cosmetics, // cosmetics put together to avoid stack too deep errors\n            uint24 _burnPoints, // burn points.. got stack limits so i put them together\n            uint24 _bonusPower, // bonus power\n            uint24 _weaponType // weapon type for special weapons\n    ) {\n        (_properties, _stat1, _stat2, _stat3, _level) = getStats(id);\n\n        // scope to avoid stack too deep errors\n        {\n        (uint8 _blade, uint8 _crossguard, uint8 _grip, uint8 _pommel) = getCosmetics(id);\n        _cosmetics = uint32(_blade) | (uint32(_crossguard) << 8) | (uint32(_grip) << 16) | (uint32(_pommel) << 24);\n        }\n\n        WeaponBurnPoints memory wbp = burnPoints[id];\n        _burnPoints =\n            uint24(wbp.lowStarBurnPoints) |\n            (uint24(wbp.fourStarBurnPoints) << 8) |\n            (uint24(wbp.fiveStarBurnPoints) << 16);\n\n        _bonusPower = getBonusPower(id);\n        _weaponType = getWeaponType(id);\n    }\n\n    function setBaseURI(string memory baseUri) public restricted {\n        _setBaseURI(baseUri);\n    }\n\n    function mintN(address minter, uint32 amount, uint256 seed, uint8 chosenElement) public restricted {\n        for(uint i = 0; i < amount; i++)\n            mint(minter, RandomUtil.combineSeeds(seed,i), chosenElement);\n    }\n\n    function mint(address minter, uint256 seed, uint8 chosenElement) public minterOnly returns(uint256) {\n        uint256 stars;\n        uint256 roll = seed % 100;\n        // will need revision, possibly manual configuration if we support more than 5 stars\n        if(roll < 1) {\n            stars = 4; // 5* at 1%\n        }\n        else if(roll < 6) { // 4* at 5%\n            stars = 3;\n        }\n        else if(roll < 21) { // 3* at 15%\n            stars = 2;\n        }\n        else if(roll < 56) { // 2* at 35%\n            stars = 1;\n        }\n        else {\n            stars = 0; // 1* at 44%\n        }\n\n        return mintWeaponWithStars(minter, stars, seed, chosenElement);\n    }\n\n    function mintSpecialWeapon(address minter, uint256 eventId, uint256 stars, uint256 seed, uint8 element) external minterOnly returns(uint256) {\n        require(stars < 8);\n        (uint16 stat1, uint16 stat2, uint16 stat3) = getStatRolls(stars, seed);\n\n        return performMintWeapon(minter,\n            eventId,\n            getRandomProperties(stars, seed, element),\n            stat1,\n            stat2,\n            stat3,\n            RandomUtil.combineSeeds(seed,3)\n        );\n    }\n\n    function mintGiveawayWeapon(address to, uint256 stars, uint8 chosenElement) external minterOnly returns(uint256) {\n        // MANUAL USE ONLY; DO NOT USE IN CONTRACTS!\n        return mintWeaponWithStars(to, stars, uint256(keccak256(abi.encodePacked(now, tokens.length))), chosenElement);\n    }\n\n    function mintWeaponWithStars(address minter, uint256 stars, uint256 seed, uint8 chosenElement) public minterOnly returns(uint256) {\n        require(stars < 8);\n        require(chosenElement == 100 || (chosenElement>= 0 && chosenElement<= 3));\n        (uint16 stat1, uint16 stat2, uint16 stat3) = getStatRolls(stars, seed);\n\n        return performMintWeapon(minter,\n            0,\n            getRandomProperties(stars, seed, chosenElement),\n            stat1,\n            stat2,\n            stat3,\n            RandomUtil.combineSeeds(seed,3)\n        );\n    }\n\n    function performMintWeapon(address minter,\n        uint256 weaponType,\n        uint16 properties,\n        uint16 stat1, uint16 stat2, uint16 stat3,\n        uint256 cosmeticSeed\n    ) public minterOnly returns(uint256 tokenID) {\n        tokenID = tokens.length;\n        tokens.push(Weapon(properties, stat1, stat2, stat3, 0));\n        cosmetics.push(WeaponCosmetics(0, cosmeticSeed));\n        _mint(minter, tokenID);\n        durabilityTimestamp[tokenID] = uint64(now.sub(getDurabilityMaxWait()));\n        nftVars[tokenID][NFTVAR_WEAPON_TYPE] = weaponType;\n\n        emit NewWeapon(tokenID, minter, uint24(weaponType));\n    }\n\n    function performMintWeaponDetailed(address minter, uint256 metaData, uint256 cosmeticSeed, uint256 tokenID) public minterOnly returns(uint256) {\n        uint8 fiveStarBurnPoints = uint8(metaData & 0xFF);\n        uint8 fourStarBurnPoints = uint8((metaData >> 8) & 0xFF);\n        uint8 lowStarBurnPoints = uint8((metaData >> 16) & 0xFF);\n        uint8 level = uint8((metaData >> 24) & 0xFF);\n        uint16 stat3 = uint16((metaData >> 32) & 0xFFFF);\n        uint16 stat2 = uint16((metaData >> 48) & 0xFFFF);\n        uint16 stat1 = uint16((metaData >> 64) & 0xFFFF);\n        uint16 properties = uint16((metaData >> 80) & 0xFFFF);\n        uint24 weaponType = uint24((metaData >> 128) & 0xFFFFFF);\n\n        require(lowStarBurnPoints <= 100 && fourStarBurnPoints <= 25 &&  fiveStarBurnPoints <= 10);\n\n        if(tokenID == 0){\n            tokenID = performMintWeapon(minter, weaponType, properties, stat1, stat2, stat3, 0);\n        }\n        else {\n            Weapon storage wp = tokens[tokenID];\n            wp.properties = properties;\n            wp.stat1 = stat1;\n            wp.stat2 = stat2;\n            wp.stat3 = stat3;\n            wp.level = level;\n        }\n        WeaponCosmetics storage wc = cosmetics[tokenID];\n        wc.seed = cosmeticSeed;\n\n        tokens[tokenID].level = level;\n        durabilityTimestamp[tokenID] = uint64(now); // avoid chain jumping abuse\n        WeaponBurnPoints storage wbp = burnPoints[tokenID];\n\n        wbp.lowStarBurnPoints = lowStarBurnPoints;\n        wbp.fourStarBurnPoints = fourStarBurnPoints;\n        wbp.fiveStarBurnPoints = fiveStarBurnPoints;\n\n        return tokenID;\n    }\n\n    function getRandomProperties(uint256 stars, uint256 seed, uint8 chosenElement) internal pure returns (uint16) {\n        uint256 trait;\n        if (chosenElement == 100) {\n            trait = ((RandomUtil.randomSeededMinMax(0,3,RandomUtil.combineSeeds(seed,1)) & 0x3) << 3);\n        } else {\n            trait = ((chosenElement & 0x3) << 3);\n        }\n        return uint16((stars & 0x7) // stars aren't randomized here!\n            | trait // trait\n            | ((RandomUtil.randomSeededMinMax(0,124,RandomUtil.combineSeeds(seed,2)) & 0x7F) << 5)); // statPattern\n    }\n\n    function getStatRolls(uint256 stars, uint256 seed) private pure returns (uint16, uint16, uint16) {\n        // each point refers to .25%\n        // so 1 * 4 is 1%\n        uint16 minRoll = getStatMinRoll(stars);\n        uint16 maxRoll = getStatMaxRoll(stars);\n        uint8 statCount = getStatCount(stars);\n\n        uint16 stat1 = getRandomStat(minRoll, maxRoll, seed, 5);\n        uint16 stat2 = 0;\n        uint16 stat3 = 0;\n        if(statCount > 1) {\n            stat2 = getRandomStat(minRoll, maxRoll, seed, 3);\n        }\n        if(statCount > 2) {\n            stat3 = getRandomStat(minRoll, maxRoll, seed, 4);\n        }\n        return (stat1, stat2, stat3);\n    }\n\n    function getRandomStat(uint16 minRoll, uint16 maxRoll, uint256 seed, uint256 seed2) internal pure returns (uint16) {\n        return uint16(RandomUtil.randomSeededMinMax(minRoll, maxRoll,RandomUtil.combineSeeds(seed, seed2)));\n    }\n\n    function getRandomCosmetic(uint256 seed, uint256 seed2, uint8 limit) internal pure returns (uint8) {\n        return uint8(RandomUtil.randomSeededMinMax(0, limit, RandomUtil.combineSeeds(seed, seed2)));\n    }\n\n    function getStatMinRoll(uint256 stars) internal pure returns (uint16) {\n        // 1 star\n        if (stars == 0) return 4;\n        // 2 star\n        if (stars == 1) return 180;\n        // 3 star\n        if (stars == 2) return 280;\n        // 4 star\n        if (stars == 3) return 200;\n        // 5+ star\n        return 268;\n    }\n\n    function getStatMaxRoll(uint256 stars) internal pure returns (uint16) {\n        // 3+ star\n        if (stars > 1) return 400;\n        // 2 star\n        if (stars > 0) return 300;\n        // 1 star\n        return 200;\n    }\n\n    function getStatCount(uint256 stars) internal pure returns (uint8) {\n        // 1-2 star\n        if (stars < 3) return 1;\n        // 3+ star\n        return uint8(stars)-1;\n    }\n\n    function getProperties(uint256 id) public view returns (uint16) {\n        return tokens[id].properties;\n    }\n\n    function getStars(uint256 id) public view returns (uint8) {\n        return getStarsFromProperties(getProperties(id));\n    }\n\n    function getStarsFromProperties(uint16 properties) internal pure returns (uint8) {\n        return uint8(properties & 0x7); // first two bits for stars\n    }\n\n    function getTrait(uint256 id) public view returns (uint8) {\n        return getTraitFromProperties(getProperties(id));\n    }\n\n    function getTraitFromProperties(uint16 properties) internal pure returns (uint8) {\n        return uint8((properties >> 3) & 0x3); // two bits after star bits (3)\n    }\n\n    function getStatPattern(uint256 id) public view returns (uint8) {\n        return getStatPatternFromProperties(getProperties(id));\n    }\n\n    function getStatPatternFromProperties(uint16 properties) internal pure returns (uint8) {\n        return uint8((properties >> 5) & 0x7F); // 7 bits after star(3) and trait(2) bits\n    }\n\n    function getStat1Trait(uint8 statPattern) internal pure returns (uint8) {\n        return uint8(uint256(statPattern) % 5); // 0-3 regular traits, 4 = traitless (PWR)\n    }\n\n    function getStat2Trait(uint8 statPattern) internal pure returns (uint8) {\n        return uint8(SafeMath.div(statPattern, 5) % 5); // 0-3 regular traits, 4 = traitless (PWR)\n    }\n\n    function getStat3Trait(uint8 statPattern) internal pure returns (uint8) {\n        return uint8(SafeMath.div(statPattern, 25) % 5); // 0-3 regular traits, 4 = traitless (PWR)\n    }\n\n    function getLevel(uint256 id) public view returns (uint8) {\n        return tokens[id].level;\n    }\n\n    function getStat1(uint256 id) public view returns (uint16) {\n        return tokens[id].stat1;\n    }\n\n    function getStat2(uint256 id) public view returns (uint16) {\n        return tokens[id].stat2;\n    }\n\n    function getStat3(uint256 id) public view returns (uint16) {\n        return tokens[id].stat3;\n    }\n\n    function getPowerMultiplier(uint256 id) public view returns (int128) {\n        // returns a 64.64 fixed point number for power multiplier\n        // this function does not account for traits\n        // it is used to calculate base enemy powers for targeting\n        Weapon memory wep = tokens[id];\n        int128 powerPerPoint = ABDKMath64x64.divu(1, 400); // 0.25% or x0.0025\n        int128 stat1 = wep.stat1.fromUInt().mul(powerPerPoint);\n        int128 stat2 = wep.stat2.fromUInt().mul(powerPerPoint);\n        int128 stat3 = wep.stat3.fromUInt().mul(powerPerPoint);\n        return ABDKMath64x64.fromUInt(1).add(stat1).add(stat2).add(stat3);\n    }\n\n    function getPowerMultiplierForTrait(\n        uint16 properties,\n        uint16 stat1,\n        uint16 stat2,\n        uint16 stat3,\n        uint8 trait\n    ) public view returns(int128) {\n        // Does not include character trait to weapon trait match\n        // Only counts arbitrary trait to weapon stat trait\n        // This function can be used by frontend to get expected % bonus for each type\n        // Making it easy to see on the market how useful it will be to you\n        uint8 statPattern = getStatPatternFromProperties(properties);\n        int128 result = oneFrac;\n\n        if(getStat1Trait(statPattern) == trait)\n            result = result.add(stat1.fromUInt().mul(powerMultPerPointMatching));\n        else if(getStat1Trait(statPattern) == 4) // PWR, traitless\n            result = result.add(stat1.fromUInt().mul(powerMultPerPointPWR));\n        else\n            result = result.add(stat1.fromUInt().mul(powerMultPerPointBasic));\n\n        if(getStat2Trait(statPattern) == trait)\n            result = result.add(stat2.fromUInt().mul(powerMultPerPointMatching));\n        else if(getStat2Trait(statPattern) == 4) // PWR, traitless\n            result = result.add(stat2.fromUInt().mul(powerMultPerPointPWR));\n        else\n            result = result.add(stat2.fromUInt().mul(powerMultPerPointBasic));\n\n        if(getStat3Trait(statPattern) == trait)\n            result = result.add(stat3.fromUInt().mul(powerMultPerPointMatching));\n        else if(getStat3Trait(statPattern) == 4) // PWR, traitless\n            result = result.add(stat3.fromUInt().mul(powerMultPerPointPWR));\n        else\n            result = result.add(stat3.fromUInt().mul(powerMultPerPointBasic));\n\n        return result;\n    }\n\n    function getDustSupplies(address playerAddress) public view returns (uint32[] memory) {\n        uint256 burnDustValue = burnDust[playerAddress];\n        uint32[] memory supplies = new uint32[](3);\n        supplies[0] = uint32(burnDustValue);\n        supplies[1] = uint32(burnDustValue >> 32);\n        supplies[2] = uint32(burnDustValue >> 64);\n        return supplies;\n    }\n\n    function _setDustSupplies(address playerAddress, uint32 amountLB, uint32 amount4B, uint32 amount5B) internal {\n        uint256 burnDustValue = (uint256(amount5B) << 64) + (uint256(amount4B) << 32) + amountLB;\n        burnDust[playerAddress] = burnDustValue;\n    }\n\n    function decrementDustSupplies(address playerAddress, uint32 amountLB, uint32 amount4B, uint32 amount5B) public restricted {\n        _decrementDustSupplies(playerAddress, amountLB, amount4B, amount5B);\n    }\n\n    function _decrementDustSupplies(address playerAddress, uint32 amountLB, uint32 amount4B, uint32 amount5B) internal {\n        uint32[] memory supplies = getDustSupplies(playerAddress);\n        require(supplies[0] >= amountLB && supplies[1] >= amount4B && supplies[2] >= amount5B);\n        supplies[0] -= amountLB;\n        supplies[1] -= amount4B;\n        supplies[2] -= amount5B;\n        _setDustSupplies(playerAddress, supplies[0], supplies[1], supplies[2]);\n    }\n\n    function incrementDustSupplies(address playerAddress, uint32 amountLB, uint32 amount4B, uint32 amount5B) public restricted {\n        _incrementDustSupplies(playerAddress, amountLB, amount4B, amount5B);\n    }\n\n    function _incrementDustSupplies(address playerAddress, uint32 amountLB, uint32 amount4B, uint32 amount5B) internal {\n        uint32[] memory supplies = getDustSupplies(playerAddress);\n        require(uint256(supplies[0]) + amountLB <= 0xFFFFFFFF\n            && uint256(supplies[1]) + amount4B <= 0xFFFFFFFF\n            && uint256(supplies[2]) + amount5B <= 0xFFFFFFFF);\n        supplies[0] += amountLB;\n        supplies[1] += amount4B;\n        supplies[2] += amount5B;\n        _setDustSupplies(playerAddress, supplies[0], supplies[1], supplies[2]);\n    }\n\n    function _calculateBurnValues(uint256 burnID) public view returns(uint8[] memory) {\n        uint8[] memory values = new uint8[](3);\n\n        // Carried burn points.\n        WeaponBurnPoints storage burningbp = burnPoints[burnID];\n        values[0] = (burningbp.lowStarBurnPoints + 1) / 2;\n        values[1] = (burningbp.fourStarBurnPoints + 1) / 2;\n        values[2] = (burningbp.fiveStarBurnPoints + 1) / 2;\n\n        // Stars-based burn points.\n        Weapon storage burning = tokens[burnID];\n        uint8 stars = getStarsFromProperties(burning.properties);\n        if(stars < 3) { // 1-3 star\n            values[0] += uint8(burnPointMultiplier * (stars + 1));\n        }\n        else if(stars == 3) { // 4 star\n            values[1] += uint8(burnPointMultiplier);\n        }\n        else if(stars == 4) { // 5 star\n            values[2] += uint8(burnPointMultiplier);\n        }\n\n        return values;\n    }\n\n    function burn(uint256 burnID) public restricted {\n        uint8[] memory values = _calculateBurnValues(burnID);\n\n        address burnOwner = ownerOf(burnID);\n\n        _burn(burnID);\n        if(promos.getBit(burnOwner, 4) == false)\n            _incrementDustSupplies(burnOwner, values[0], values[1], values[2]);\n\n        emit Burned(\n            burnOwner,\n            burnID\n        );\n    }\n\n    function burnWithoutDust(uint256[] memory burnIDs) public restricted {\n        for(uint256 i = 0; i < burnIDs.length; i++) {\n            _burnWithoutDust(burnIDs[i]);\n        }\n    }\n\n    function _burnWithoutDust(uint256 burnID) internal {\n        address burnOwner = ownerOf(burnID);\n        _burn(burnID);\n        emit Burned(burnOwner, burnID);\n    }\n\n    function reforge(uint256 reforgeID, uint256 burnID) public restricted {\n        uint8[] memory values = _calculateBurnValues(burnID);\n\n        // Note: preexisting issue of applying burn points even if _burn fails.\n        if(promos.getBit(ownerOf(reforgeID), 4) == false)\n            _applyBurnPoints(reforgeID, values[0], values[1], values[2]);\n        _burn(burnID);\n\n        WeaponBurnPoints storage wbp = burnPoints[reforgeID];\n        emit Reforged(\n            ownerOf(reforgeID),\n            reforgeID,\n            burnID,\n            wbp.lowStarBurnPoints,\n            wbp.fourStarBurnPoints,\n            wbp.fiveStarBurnPoints\n        );\n    }\n\n    function reforgeWithDust(uint256 reforgeID, uint8 amountLB, uint8 amount4B, uint8 amount5B) public restricted {\n\n        if(promos.getBit(ownerOf(reforgeID), 4) == false)\n            _applyBurnPoints(reforgeID, amountLB, amount4B, amount5B);\n        _decrementDustSupplies(ownerOf(reforgeID), amountLB, amount4B, amount5B);\n\n        WeaponBurnPoints storage wbp = burnPoints[reforgeID];\n        emit ReforgedWithDust(\n            ownerOf(reforgeID),\n            reforgeID,\n            amountLB,\n            amount4B,\n            amount5B,\n            wbp.lowStarBurnPoints,\n            wbp.fourStarBurnPoints,\n            wbp.fiveStarBurnPoints\n        );\n    }\n\n    function _applyBurnPoints(uint256 reforgeID, uint8 amountLB, uint8 amount4B, uint8 amount5B) private {\n        WeaponBurnPoints storage wbp = burnPoints[reforgeID];\n\n        if(amountLB > 0) {\n            require(wbp.lowStarBurnPoints < 100);\n        }\n        if(amount4B > 0) {\n            require(wbp.fourStarBurnPoints < 25);\n        }\n        if(amount5B > 0) {\n            require(wbp.fiveStarBurnPoints < 10);\n        }\n\n        wbp.lowStarBurnPoints += amountLB;\n        wbp.fourStarBurnPoints += amount4B;\n        wbp.fiveStarBurnPoints += amount5B;\n\n        if(wbp.lowStarBurnPoints > 100)\n            wbp.lowStarBurnPoints = 100;\n        if(wbp.fourStarBurnPoints > 25)\n            wbp.fourStarBurnPoints = 25;\n        if(wbp.fiveStarBurnPoints > 10)\n            wbp.fiveStarBurnPoints = 10;\n    }\n\n    function getWeaponType(uint256 id) public view returns(uint24) {\n        return uint24(nftVars[id][NFTVAR_WEAPON_TYPE]);\n    }\n\n    function getBonusPower(uint256 id) public view returns (uint24) {\n        return getBonusPowerForFight(id, tokens[id].level);\n    }\n\n    function getBonusPowerForFight(uint256 id, uint8 level) public view returns (uint24) {\n        WeaponBurnPoints storage wbp = burnPoints[id];\n        return uint24(lowStarBurnPowerPerPoint.mul(wbp.lowStarBurnPoints)\n            .add(fourStarBurnPowerPerPoint.mul(wbp.fourStarBurnPoints))\n            .add(fiveStarBurnPowerPerPoint.mul(wbp.fiveStarBurnPoints))\n            .add(uint256(15).mul(level))\n        );\n    }\n\n    function getFightData(uint256 id, uint8 charTrait) public view returns (int128, int128, uint24, uint8) {\n        Weapon storage wep = tokens[id];\n        return (\n            oneFrac.add(powerMultPerPointBasic.mul(\n                    ABDKMath64x64.fromUInt(\n                        wep.stat1 + wep.stat2 + wep.stat3\n                    )\n            )),//targetMult\n            getPowerMultiplierForTrait(wep.properties, wep.stat1, wep.stat2, wep.stat3, charTrait),\n            getBonusPowerForFight(id, wep.level),\n            getTraitFromProperties(wep.properties)\n        );\n    }\n\n    function getFightDataAndDrainDurability(\n        address fighter,\n        uint256 id,\n        uint8 charTrait,\n        uint8 drainAmount,\n        bool allowNegativeDurability,\n        uint256 busyFlag\n    ) public restricted returns (int128, int128, uint24, uint8) {\n        require(fighter == ownerOf(id)/* && nftVars[id][NFTVAR_BUSY] == 0*/);\n        //nftVars[id][NFTVAR_BUSY] |= busyFlag;\n        _drainDurability(id, drainAmount, allowNegativeDurability);\n        Weapon storage wep = tokens[id];\n        return (\n            oneFrac.add(powerMultPerPointBasic.mul(\n                    ABDKMath64x64.fromUInt(\n                        wep.stat1 + wep.stat2 + wep.stat3\n                    )\n            )),//targetMult\n            getPowerMultiplierForTrait(wep.properties, wep.stat1, wep.stat2, wep.stat3, charTrait),\n            getBonusPowerForFight(id, wep.level),\n            getTraitFromProperties(wep.properties)\n        );\n    }\n\n    function drainDurability(uint256 id, uint8 amount, bool allowNegativeDurabilty) external restricted {\n        _drainDurability(id, amount, allowNegativeDurabilty);\n    }\n\n    function _drainDurability(uint256 id, uint8 amount, bool allowNegativeDurability) internal {\n        uint8 durabilityPoints = getDurabilityPointsFromTimestamp(durabilityTimestamp[id]);\n        require((durabilityPoints >= amount\n        || (allowNegativeDurability && durabilityPoints > 0)) // we allow going into negative, but not starting negative\n        );\n\n        uint64 drainTime = uint64(amount * secondsPerDurability);\n        if(durabilityPoints >= maxDurability) { // if durability full, we reset timestamp and drain from that\n            durabilityTimestamp[id] = uint64(now - getDurabilityMaxWait() + drainTime);\n        }\n        else {\n            durabilityTimestamp[id] = uint64(durabilityTimestamp[id] + drainTime);\n        }\n    }\n\n    function setBurnPointMultiplier(uint256 multiplier) public restricted {\n        burnPointMultiplier = multiplier;\n    }\n    function setLowStarBurnPowerPerPoint(uint256 powerPerBurnPoint) public restricted {\n        lowStarBurnPowerPerPoint = powerPerBurnPoint;\n    }\n    function setFourStarBurnPowerPerPoint(uint256 powerPerBurnPoint) public restricted {\n        fourStarBurnPowerPerPoint = powerPerBurnPoint;\n    }\n    function setFiveStarBurnPowerPerPoint(uint256 powerPerBurnPoint) public restricted {\n        fiveStarBurnPowerPerPoint = powerPerBurnPoint;\n    }\n\n    function getDurabilityTimestamp(uint256 id) public view returns (uint64) {\n        return durabilityTimestamp[id];\n    }\n\n    function setDurabilityTimestamp(uint256 id, uint64 timestamp) public restricted {\n        durabilityTimestamp[id] = timestamp;\n    }\n\n    function getDurabilityPoints(uint256 id) public view returns (uint8) {\n        return getDurabilityPointsFromTimestamp(durabilityTimestamp[id]);\n    }\n\n    function getDurabilityPointsFromTimestamp(uint64 timestamp) public view returns (uint8) {\n        if(timestamp  > now)\n            return 0;\n\n        uint256 points = (now - timestamp) / secondsPerDurability;\n        if(points > maxDurability) {\n            points = maxDurability;\n        }\n        return uint8(points);\n    }\n\n    function isDurabilityFull(uint256 id) public view returns (bool) {\n        return getDurabilityPoints(id) >= maxDurability;\n    }\n\n    function getDurabilityMaxWait() internal pure returns (uint64) {\n        return uint64(maxDurability * secondsPerDurability);\n    }\n\n    function getNftVar(uint256 weaponID, uint256 nftVar) public view returns(uint256) {\n        return nftVars[weaponID][nftVar];\n    }\n    function setNftVar(uint256 weaponID, uint256 nftVar, uint256 value) public restricted {\n        nftVars[weaponID][nftVar] = value;\n    }\n\n    function _beforeTokenTransfer(address from, address to, uint256 tokenId) internal override {\n        // if we could afford to set exploiter weapons busy, the promos check becomes redundant, saving ~4.2k gas\n        if(from != address(0))\n            require(nftVars[tokenId][NFTVAR_BUSY] == 0 && (to == address(0) || promos.getBit(from, 4) == false));\n    }\n\n}\n","sourcePath":"/home/runner/work/cryptoblades/cryptoblades/contracts/weapons.sol","compiler":{"name":"solc","version":"0.6.5+commit.f956cc89.Emscripten.clang"},"schemaVersion":"3.3.4","updatedAt":"2023-07-14T16:11:44.610Z","devdoc":{"methods":{"approve(address,uint256)":{"details":"See {IERC721-approve}."},"balanceOf(address)":{"details":"See {IERC721-balanceOf}."},"baseURI()":{"details":"Returns the base URI set via {_setBaseURI}. This will be automatically added as a prefix in {tokenURI} to each token's URI, or to the token ID if no specific URI is set for that token ID."},"getApproved(uint256)":{"details":"See {IERC721-getApproved}."},"getRoleAdmin(bytes32)":{"details":"Returns the admin role that controls `role`. See {grantRole} and {revokeRole}.     * To change a role's admin, use {_setRoleAdmin}."},"getRoleMember(bytes32,uint256)":{"details":"Returns one of the accounts that have `role`. `index` must be a value between 0 and {getRoleMemberCount}, non-inclusive.     * Role bearers are not sorted in any particular way, and their ordering may change at any point.     * WARNING: When using {getRoleMember} and {getRoleMemberCount}, make sure you perform all queries on the same block. See the following https://forum.openzeppelin.com/t/iterating-over-elements-on-enumerableset-in-openzeppelin-contracts/2296[forum post] for more information."},"getRoleMemberCount(bytes32)":{"details":"Returns the number of accounts that have `role`. Can be used together with {getRoleMember} to enumerate all bearers of a role."},"grantRole(bytes32,address)":{"details":"Grants `role` to `account`.     * If `account` had not been already granted `role`, emits a {RoleGranted} event.     * Requirements:     * - the caller must have ``role``'s admin role."},"hasRole(bytes32,address)":{"details":"Returns `true` if `account` has been granted `role`."},"isApprovedForAll(address,address)":{"details":"See {IERC721-isApprovedForAll}."},"name()":{"details":"See {IERC721Metadata-name}."},"ownerOf(uint256)":{"details":"See {IERC721-ownerOf}."},"renounceRole(bytes32,address)":{"details":"Revokes `role` from the calling account.     * Roles are often managed via {grantRole} and {revokeRole}: this function's purpose is to provide a mechanism for accounts to lose their privileges if they are compromised (such as when a trusted device is misplaced).     * If the calling account had been granted `role`, emits a {RoleRevoked} event.     * Requirements:     * - the caller must be `account`."},"revokeRole(bytes32,address)":{"details":"Revokes `role` from `account`.     * If `account` had been granted `role`, emits a {RoleRevoked} event.     * Requirements:     * - the caller must have ``role``'s admin role."},"safeTransferFrom(address,address,uint256)":{"details":"See {IERC721-safeTransferFrom}."},"safeTransferFrom(address,address,uint256,bytes)":{"details":"See {IERC721-safeTransferFrom}."},"setApprovalForAll(address,bool)":{"details":"See {IERC721-setApprovalForAll}."},"supportsInterface(bytes4)":{"details":"See {IERC165-supportsInterface}.     * Time complexity O(1), guaranteed to always use less than 30 000 gas."},"symbol()":{"details":"See {IERC721Metadata-symbol}."},"tokenByIndex(uint256)":{"details":"See {IERC721Enumerable-tokenByIndex}."},"tokenOfOwnerByIndex(address,uint256)":{"details":"See {IERC721Enumerable-tokenOfOwnerByIndex}."},"tokenURI(uint256)":{"details":"See {IERC721Metadata-tokenURI}."},"totalSupply()":{"details":"See {IERC721Enumerable-totalSupply}."},"transferFrom(address,address,uint256)":{"details":"See {IERC721-transferFrom}."}}},"userdoc":{"methods":{}}}